{
  "contractName": "cyclicalManyToOneElectionProcedure",
  "abi": [
    {
      "constant": true,
      "inputs": [],
      "name": "currentPresident",
      "outputs": [
        {
          "name": "",
          "type": "address"
        }
      ],
      "payable": false,
      "stateMutability": "view",
      "type": "function"
    },
    {
      "constant": true,
      "inputs": [],
      "name": "electionParameters",
      "outputs": [
        {
          "name": "ballotFrequency",
          "type": "uint256"
        },
        {
          "name": "nextElectionDate",
          "type": "uint256"
        },
        {
          "name": "ballotDuration",
          "type": "uint256"
        },
        {
          "name": "candidacyDuration",
          "type": "uint256"
        },
        {
          "name": "reelectionMaximum",
          "type": "uint256"
        },
        {
          "name": "quorumSize",
          "type": "uint256"
        },
        {
          "name": "voterToCandidateRatio",
          "type": "uint256"
        }
      ],
      "payable": false,
      "stateMutability": "view",
      "type": "function"
    },
    {
      "constant": true,
      "inputs": [],
      "name": "kelsenVersionNumber",
      "outputs": [
        {
          "name": "",
          "type": "int256"
        }
      ],
      "payable": false,
      "stateMutability": "view",
      "type": "function"
    },
    {
      "constant": true,
      "inputs": [],
      "name": "procedureInfo",
      "outputs": [
        {
          "name": "procedureTypeNumber",
          "type": "uint256"
        },
        {
          "name": "procedureName",
          "type": "bytes32"
        },
        {
          "name": "linkedOrgans",
          "type": "uint256"
        }
      ],
      "payable": false,
      "stateMutability": "view",
      "type": "function"
    },
    {
      "constant": true,
      "inputs": [],
      "name": "linkedOrgans",
      "outputs": [
        {
          "name": "firstOrganAddress",
          "type": "address"
        },
        {
          "name": "secondOrganAddress",
          "type": "address"
        }
      ],
      "payable": false,
      "stateMutability": "view",
      "type": "function"
    },
    {
      "constant": true,
      "inputs": [],
      "name": "isAnOrgan",
      "outputs": [
        {
          "name": "",
          "type": "bool"
        }
      ],
      "payable": false,
      "stateMutability": "view",
      "type": "function"
    },
    {
      "constant": true,
      "inputs": [],
      "name": "isAProcedure",
      "outputs": [
        {
          "name": "",
          "type": "bool"
        }
      ],
      "payable": false,
      "stateMutability": "view",
      "type": "function"
    },
    {
      "constant": true,
      "inputs": [],
      "name": "currentBallot",
      "outputs": [
        {
          "name": "ballotNumber",
          "type": "uint256"
        },
        {
          "name": "name",
          "type": "bytes32"
        },
        {
          "name": "startDate",
          "type": "uint256"
        },
        {
          "name": "candidacyEndDate",
          "type": "uint256"
        },
        {
          "name": "electionEndDate",
          "type": "uint256"
        },
        {
          "name": "wasEnded",
          "type": "bool"
        },
        {
          "name": "totalVoteCount",
          "type": "uint256"
        },
        {
          "name": "totalVoters",
          "type": "uint256"
        },
        {
          "name": "electedOfficialSlotNumber",
          "type": "uint256"
        }
      ],
      "payable": false,
      "stateMutability": "view",
      "type": "function"
    },
    {
      "inputs": [
        {
          "name": "_referenceOrganContract",
          "type": "address"
        },
        {
          "name": "_affectedOrganContract",
          "type": "address"
        },
        {
          "name": "_ballotFrequency",
          "type": "uint256"
        },
        {
          "name": "_ballotDuration",
          "type": "uint256"
        },
        {
          "name": "_quorumSize",
          "type": "uint256"
        },
        {
          "name": "_reelectionMaximum",
          "type": "uint256"
        },
        {
          "name": "_name",
          "type": "bytes32"
        }
      ],
      "payable": false,
      "stateMutability": "nonpayable",
      "type": "constructor"
    },
    {
      "constant": false,
      "inputs": [
        {
          "name": "_ballotName",
          "type": "bytes32"
        }
      ],
      "name": "createBallot",
      "outputs": [],
      "payable": false,
      "stateMutability": "nonpayable",
      "type": "function"
    },
    {
      "constant": false,
      "inputs": [
        {
          "name": "_ipfsHash",
          "type": "bytes32"
        },
        {
          "name": "_hash_function",
          "type": "uint8"
        },
        {
          "name": "_size",
          "type": "uint8"
        }
      ],
      "name": "presentCandidacy",
      "outputs": [],
      "payable": false,
      "stateMutability": "nonpayable",
      "type": "function"
    },
    {
      "constant": false,
      "inputs": [
        {
          "name": "_candidateAddress",
          "type": "address"
        }
      ],
      "name": "vote",
      "outputs": [],
      "payable": false,
      "stateMutability": "nonpayable",
      "type": "function"
    },
    {
      "constant": false,
      "inputs": [],
      "name": "endBallot",
      "outputs": [
        {
          "name": "electionWinner",
          "type": "address"
        }
      ],
      "payable": false,
      "stateMutability": "nonpayable",
      "type": "function"
    },
    {
      "constant": true,
      "inputs": [],
      "name": "getCandidateList",
      "outputs": [
        {
          "name": "_candidateList",
          "type": "address[]"
        }
      ],
      "payable": false,
      "stateMutability": "view",
      "type": "function"
    },
    {
      "constant": true,
      "inputs": [],
      "name": "nextElectionICanVoteIn",
      "outputs": [
        {
          "name": "lastElectionIParticipatedIn",
          "type": "uint256"
        }
      ],
      "payable": false,
      "stateMutability": "view",
      "type": "function"
    },
    {
      "constant": true,
      "inputs": [
        {
          "name": "_candidateAddress",
          "type": "address"
        }
      ],
      "name": "getCandidacyInfo",
      "outputs": [
        {
          "name": "_ipfsHash",
          "type": "bytes32"
        },
        {
          "name": "_hash_function",
          "type": "uint8"
        },
        {
          "name": "_size",
          "type": "uint8"
        }
      ],
      "payable": false,
      "stateMutability": "view",
      "type": "function"
    }
  ],
  "bytecode": "0x608060405260026000556000600560006101000a81548160ff0219169083151502179055506001600560016101000a81548160ff02191690831515021790555034801561004b57600080fd5b5060405160e080611386833981018060405260e081101561006b57600080fd5b8101908080519060200190929190805190602001909291908051906020019092919080519060200190929190805190602001909291908051906020019092919080519060200190929190505050600273__procedureLibrary______________________6356e77656909160018460026040518563ffffffff167c01000000000000000000000000000000000000000000000000000000000281526004018085815260200184815260200183815260200182815260200194505050505060006040518083038186803b15801561014057600080fd5b505af4158015610154573d6000803e3d6000fd5b50505050600673__procedureLibrary______________________636f53715a909189896040518463ffffffff167c0100000000000000000000000000000000000000000000000000000000028152600401808481526020018373ffffffffffffffffffffffffffffffffffffffff1673ffffffffffffffffffffffffffffffffffffffff1681526020018273ffffffffffffffffffffffffffffffffffffffff1673ffffffffffffffffffffffffffffffffffffffff168152602001935050505060006040518083038186803b15801561022e57600080fd5b505af4158015610242573d6000803e3d6000fd5b50505050600873__cyclicalVotingLibrary_________________63578ede039091878787878a60020260006040518863ffffffff167c01000000000000000000000000000000000000000000000000000000000281526004018088815260200187815260200186815260200185815260200184815260200183815260200182815260200197505050505050505060006040518083038186803b1580156102e857600080fd5b505af41580156102fc573d6000803e3d6000fd5b5050505050505050505050611070806103166000396000f3fe608060405234801561001057600080fd5b5060043610610112576000357c0100000000000000000000000000000000000000000000000000000000900480638db704cb116100b4578063d36d2dd711610083578063d36d2dd7146103de578063e80b30a514610426578063f80723a814610448578063fdbc4006146104a257610112565b80638db704cb146102f55780639397942e146103135780639e3dd2591461033f578063a8bef97a146103bc57610112565b8063584e2fa1116100f0578063584e2fa11461021d5780635dbe4d28146102655780636d943451146102835780636dd7d8ea146102b157610112565b80632e95da2f146101175780633a47cb601461018957806347ae53e2146101d3575b600080fd5b6101596004803603602081101561012d57600080fd5b81019080803573ffffffffffffffffffffffffffffffffffffffff169060200190929190505050610501565b604051808481526020018360ff1660ff1681526020018260ff1660ff168152602001935050505060405180910390f35b6101916105ff565b604051808273ffffffffffffffffffffffffffffffffffffffff1673ffffffffffffffffffffffffffffffffffffffff16815260200191505060405180910390f35b6101db610a8b565b604051808273ffffffffffffffffffffffffffffffffffffffff1673ffffffffffffffffffffffffffffffffffffffff16815260200191505060405180910390f35b610225610ab1565b6040518088815260200187815260200186815260200185815260200184815260200183815260200182815260200197505050505050505060405180910390f35b61026d610ae1565b6040518082815260200191505060405180910390f35b6102af6004803603602081101561029957600080fd5b8101908080359060200190929190505050610ae7565b005b6102f3600480360360208110156102c757600080fd5b81019080803573ffffffffffffffffffffffffffffffffffffffff169060200190929190505050610b81565b005b6102fd610c75565b6040518082815260200191505060405180910390f35b61031b610cbe565b60405180848152602001838152602001828152602001935050505060405180910390f35b610347610cd6565b604051808373ffffffffffffffffffffffffffffffffffffffff1673ffffffffffffffffffffffffffffffffffffffff1681526020018273ffffffffffffffffffffffffffffffffffffffff1673ffffffffffffffffffffffffffffffffffffffff1681526020019250505060405180910390f35b6103c4610d28565b604051808215151515815260200191505060405180910390f35b610424600480360360608110156103f457600080fd5b8101908080359060200190929190803560ff169060200190929190803560ff169060200190929190505050610d3b565b005b61042e610e21565b604051808215151515815260200191505060405180910390f35b610450610e34565b604051808a815260200189815260200188815260200187815260200186815260200185151515158152602001848152602001838152602001828152602001995050505050505050505060405180910390f35b6104aa610e7d565b6040518080602001828103825283818151815260200191508051906020019060200280838360005b838110156104ed5780820151818401526020810190506104d2565b505050509050019250505060405180910390f35b6000806000600860090160008573ffffffffffffffffffffffffffffffffffffffff1673ffffffffffffffffffffffffffffffffffffffff16815260200190815260200160002060010154600860090160008673ffffffffffffffffffffffffffffffffffffffff1673ffffffffffffffffffffffffffffffffffffffff16815260200190815260200160002060020160009054906101000a900460ff16600860090160008773ffffffffffffffffffffffffffffffffffffffff1673ffffffffffffffffffffffffffffffffffffffff16815260200190815260200160002060020160019054906101000a900460ff169250925092509193909250565b6000600873__cyclicalVotingLibrary_________________63e0e2f6bb90916013600660000160009054906101000a900473ffffffffffffffffffffffffffffffffffffffff166040518463ffffffff167c0100000000000000000000000000000000000000000000000000000000028152600401808481526020018381526020018273ffffffffffffffffffffffffffffffffffffffff1673ffffffffffffffffffffffffffffffffffffffff168152602001935050505060206040518083038186803b1580156106d157600080fd5b505af41580156106e5573d6000803e3d6000fd5b505050506040513d60208110156106fb57600080fd5b81019080805190602001909291905050509050600073ffffffffffffffffffffffffffffffffffffffff168173ffffffffffffffffffffffffffffffffffffffff16141515610a04576001600860070160008373ffffffffffffffffffffffffffffffffffffffff1673ffffffffffffffffffffffffffffffffffffffff16815260200190815260200160002060008282540192505081905550601260009054906101000a900473ffffffffffffffffffffffffffffffffffffffff1673ffffffffffffffffffffffffffffffffffffffff168173ffffffffffffffffffffffffffffffffffffffff1614151561095f57600873__cyclicalVotingLibrary_________________633e9191589091601384601260009054906101000a900473ffffffffffffffffffffffffffffffffffffffff16600660010160009054906101000a900473ffffffffffffffffffffffffffffffffffffffff166040518663ffffffff167c0100000000000000000000000000000000000000000000000000000000028152600401808681526020018581526020018473ffffffffffffffffffffffffffffffffffffffff1673ffffffffffffffffffffffffffffffffffffffff1681526020018373ffffffffffffffffffffffffffffffffffffffff1673ffffffffffffffffffffffffffffffffffffffff1681526020018273ffffffffffffffffffffffffffffffffffffffff1673ffffffffffffffffffffffffffffffffffffffff1681526020019550505050505060006040518083038186803b15801561094657600080fd5b505af415801561095a573d6000803e3d6000fd5b505050505b600860090160008273ffffffffffffffffffffffffffffffffffffffff1673ffffffffffffffffffffffffffffffffffffffff168152602001908152602001600020600080820160006101000a81549073ffffffffffffffffffffffffffffffffffffffff021916905560018201600090556002820160006101000a81549060ff02191690556002820160016101000a81549060ff0219169055600382016000905550505b60006001601360000154019050601360008082016000905560018201600090556002820160009055600382016000905560048201600090556005820160006101000a81549060ff0219169055600682016000905560078201600090556008820160009055600982016000610a789190610ffe565b5050806013600001819055508191505090565b601260009054906101000a900473ffffffffffffffffffffffffffffffffffffffff1681565b60088060000154908060010154908060020154908060030154908060040154908060050154908060060154905087565b60005481565b600873__cyclicalVotingLibrary_________________63bd292a4790916013846040518463ffffffff167c010000000000000000000000000000000000000000000000000000000002815260040180848152602001838152602001828152602001935050505060006040518083038186803b158015610b6657600080fd5b505af4158015610b7a573d6000803e3d6000fd5b5050505050565b610baf600660000160009054906101000a900473ffffffffffffffffffffffffffffffffffffffff16610f0e565b600873__cyclicalVotingLibrary_________________639689683090916013846040518463ffffffff167c0100000000000000000000000000000000000000000000000000000000028152600401808481526020018381526020018273ffffffffffffffffffffffffffffffffffffffff1673ffffffffffffffffffffffffffffffffffffffff168152602001935050505060006040518083038186803b158015610c5a57600080fd5b505af4158015610c6e573d6000803e3d6000fd5b5050505050565b60006008800160003373ffffffffffffffffffffffffffffffffffffffff1673ffffffffffffffffffffffffffffffffffffffff16815260200190815260200160002054905090565b60028060000154908060010154908060020154905083565b60068060000160009054906101000a900473ffffffffffffffffffffffffffffffffffffffff16908060010160009054906101000a900473ffffffffffffffffffffffffffffffffffffffff16905082565b600560009054906101000a900460ff1681565b610d69600660000160009054906101000a900473ffffffffffffffffffffffffffffffffffffffff16610f0e565b600873__cyclicalVotingLibrary_________________638f4b1f74909160138686866040518663ffffffff167c0100000000000000000000000000000000000000000000000000000000028152600401808681526020018581526020018481526020018360ff1660ff1681526020018260ff1660ff1681526020019550505050505060006040518083038186803b158015610e0457600080fd5b505af4158015610e18573d6000803e3d6000fd5b50505050505050565b600560019054906101000a900460ff1681565b60138060000154908060010154908060020154908060030154908060040154908060050160009054906101000a900460ff16908060060154908060070154908060080154905089565b60606013600901805480602002602001604051908101604052809291908181526020018280548015610f0457602002820191906000526020600020905b8160009054906101000a900473ffffffffffffffffffffffffffffffffffffffff1673ffffffffffffffffffffffffffffffffffffffff1681526020019060010190808311610eba575b5050505050905090565b600081905060008173ffffffffffffffffffffffffffffffffffffffff16635549ea51336040518263ffffffff167c0100000000000000000000000000000000000000000000000000000000028152600401808273ffffffffffffffffffffffffffffffffffffffff1673ffffffffffffffffffffffffffffffffffffffff16815260200191505060206040518083038186803b158015610fae57600080fd5b505afa158015610fc2573d6000803e3d6000fd5b505050506040513d6020811015610fd857600080fd5b810190808051906020019092919050505014151515610ff657600080fd5b600091505050565b508054600082559060005260206000209081019061101c919061101f565b50565b61104191905b8082111561103d576000816000905550600101611025565b5090565b9056fea165627a7a72305820ca8823c18e1d5abb4fab85e3e91b0181baec9726390de6d12a284f79af9a4fcd0029",
  "source": "pragma solidity >=0.4.22 <0.6.0;\r\n\r\n// Standard contract for a presidential election procedure\r\n\r\nimport \"../standardProcedure.sol\";\r\nimport \"../Organ.sol\";\r\nimport \"../libraries/cyclicalVotingLibrary.sol\";\r\n\r\n\r\ncontract cyclicalManyToOneElectionProcedure is Procedure\r\n{\r\n    // 1: Cyclical many to one election (Presidential Election)\r\n    // 2: Cyclical many to many election (Moderators Election)\r\n    // 3: Simple norm nomination \r\n    // 4: Simple admins and master nomination\r\n    // 5: Vote on Norms \r\n    // 6: Vote on masters and admins \r\n    // 7: Cooptation\r\n    using procedureLibrary for procedureLibrary.twoRegisteredOrgans;\r\n    using cyclicalVotingLibrary for cyclicalVotingLibrary.RecurringElectionInfo;\r\n    using cyclicalVotingLibrary for cyclicalVotingLibrary.Candidacy;\r\n    using cyclicalVotingLibrary for cyclicalVotingLibrary.ElectionBallot;\r\n\r\n    // First stakeholder address is referenceOrganContract\r\n    // Second stakeholder address is affectedOrganContract\r\n    procedureLibrary.twoRegisteredOrgans public linkedOrgans;\r\n    cyclicalVotingLibrary.RecurringElectionInfo public electionParameters;\r\n\r\n    // ############## Variable to set up when declaring the procedure\r\n    // ####### Vote creation process\r\n\r\n    // current President address\r\n    address public currentPresident;\r\n\r\n    // A dynamically-sized array of `Ballot` structs.\r\n    cyclicalVotingLibrary.ElectionBallot public currentBallot;\r\n\r\n    constructor(address payable _referenceOrganContract, address payable _affectedOrganContract, uint _ballotFrequency, uint _ballotDuration, uint _quorumSize, uint _reelectionMaximum, bytes32 _name) \r\n    public \r\n    {\r\n        procedureInfo.initProcedure(1, _name, 2);\r\n        linkedOrgans.initTwoRegisteredOrgans(_referenceOrganContract, _affectedOrganContract);\r\n        electionParameters.initElectionParameters(_ballotFrequency, _ballotDuration, _quorumSize, _reelectionMaximum, 2*_ballotDuration, 0);\r\n    }\r\n\r\n    /// Create a new ballot to choose one of `proposalNames`.\r\n    function createBallot(bytes32 _ballotName) \r\n    public \r\n    {\r\n        electionParameters.createRecurrentBallot(currentBallot, _ballotName);\r\n    }\r\n\r\n    function presentCandidacy(bytes32 _ipfsHash, uint8 _hash_function, uint8 _size) \r\n    public \r\n    {\r\n\r\n        // Check the candidate is a member of the reference organ\r\n        procedureLibrary.isAllowed(linkedOrgans.firstOrganAddress);\r\n        electionParameters.presentCandidacyLib(currentBallot, _ipfsHash, _hash_function, _size);\r\n    }\r\n\r\n\r\n    /// Vote for a candidate\r\n    function vote(address payable _candidateAddress) \r\n    public \r\n    {\r\n        procedureLibrary.isAllowed(linkedOrgans.firstOrganAddress);\r\n        electionParameters.voteManyToOne(currentBallot, _candidateAddress);\r\n    }\r\n\r\n    // The vote is finished and we close it. This triggers the outcome of the vote.\r\n\r\n    function endBallot() \r\n    public \r\n    returns (address electionWinner)\r\n    {\r\n       electionWinner = electionParameters.countManyToOne(currentBallot, linkedOrgans.firstOrganAddress);   \r\n\r\n        if (electionWinner != address(0))\r\n        {\r\n            electionParameters.cumulatedMandates[electionWinner] += 1;\r\n\r\n            if (electionWinner != currentPresident)\r\n            {\r\n                electionParameters.givePowerToNewPresident(currentBallot, electionWinner, currentPresident, linkedOrgans.secondOrganAddress);\r\n            }\r\n\r\n            delete electionParameters.candidacies[electionWinner];\r\n        }\r\n        \r\n        uint nextBallotNumber = currentBallot.ballotNumber + 1;\r\n        // Cleaning contract state from election\r\n        delete currentBallot;\r\n        currentBallot.ballotNumber = nextBallotNumber;\r\n\r\n        return electionWinner;          \r\n    }\r\n        \r\n    // ######### Functions to retrieve procedure infos\r\n\r\n    function getCandidateList() \r\n    public \r\n    view \r\n    returns (address[] memory _candidateList)\r\n    {\r\n        return currentBallot.candidateList;\r\n    }\r\n\r\n    function nextElectionICanVoteIn() \r\n    public \r\n    view \r\n    returns (uint lastElectionIParticipatedIn)\r\n    {\r\n        return electionParameters.nextElectionUserCanVoteIn[msg.sender];\r\n    }\r\n\r\n    function getCandidacyInfo(address _candidateAddress) \r\n    public \r\n    view\r\n    returns (bytes32 _ipfsHash, uint8 _hash_function, uint8 _size)\r\n    {\r\n        return (electionParameters.candidacies[_candidateAddress].ipfsHash, electionParameters.candidacies[_candidateAddress].hash_function , electionParameters.candidacies[_candidateAddress].size);\r\n    }\r\n}\r\n\r\n",
  "sourcePath": "C:/Users/hlieutaud/Documents/Workshop/Solidity/solidity-101/contracts/utils/Kelsen/solidity/contracts/procedures/cyclicalManyToOneElectionProcedure.sol",
  "compiler": {
    "name": "solc",
    "version": "0.5.4+commit.9549d8ff.Emscripten.clang"
  },
  "schemaVersion": "3.0.10",
  "updatedAt": "2019-10-01T09:02:18.840Z",
  "devdoc": {
    "methods": {}
  },
  "userdoc": {
    "methods": {
      "createBallot(bytes32)": {
        "notice": "Create a new ballot to choose one of `proposalNames`."
      },
      "vote(address)": {
        "notice": "Vote for a candidate"
      }
    }
  }
}