{
  "contractName": "cyclicalVotingLibrary",
  "abi": [
    {
      "anonymous": false,
      "inputs": [
        {
          "indexed": false,
          "name": "_from",
          "type": "address"
        },
        {
          "indexed": false,
          "name": "_name",
          "type": "bytes32"
        },
        {
          "indexed": false,
          "name": "_startDate",
          "type": "uint256"
        },
        {
          "indexed": false,
          "name": "_candidacyEndDate",
          "type": "uint256"
        },
        {
          "indexed": false,
          "name": "_endDate",
          "type": "uint256"
        },
        {
          "indexed": false,
          "name": "_ballotNumber",
          "type": "uint256"
        }
      ],
      "name": "ballotCreationEvent",
      "type": "event"
    },
    {
      "anonymous": false,
      "inputs": [
        {
          "indexed": false,
          "name": "_ballotNumber",
          "type": "uint256"
        },
        {
          "indexed": false,
          "name": "_candidateAddress",
          "type": "address"
        },
        {
          "indexed": false,
          "name": "_ipfsHash",
          "type": "bytes32"
        },
        {
          "indexed": false,
          "name": "_hash_function",
          "type": "uint8"
        },
        {
          "indexed": false,
          "name": "_size",
          "type": "uint8"
        }
      ],
      "name": "presentCandidacyEvent",
      "type": "event"
    },
    {
      "anonymous": false,
      "inputs": [
        {
          "indexed": false,
          "name": "_from",
          "type": "address"
        },
        {
          "indexed": false,
          "name": "_ballotNumber",
          "type": "uint256"
        }
      ],
      "name": "votedOnElectionEvent",
      "type": "event"
    },
    {
      "anonymous": false,
      "inputs": [
        {
          "indexed": false,
          "name": "_ballotNumber",
          "type": "uint256"
        },
        {
          "indexed": false,
          "name": "_winningCandidate",
          "type": "address"
        },
        {
          "indexed": false,
          "name": "_totalVoteCount",
          "type": "uint256"
        }
      ],
      "name": "ballotWasCounted",
      "type": "event"
    },
    {
      "anonymous": false,
      "inputs": [
        {
          "indexed": false,
          "name": "_ballotNumber",
          "type": "uint256"
        }
      ],
      "name": "ballotResultException",
      "type": "event"
    },
    {
      "anonymous": false,
      "inputs": [
        {
          "indexed": false,
          "name": "_winningCandidate",
          "type": "address"
        },
        {
          "indexed": false,
          "name": "_ballotNumber",
          "type": "uint256"
        }
      ],
      "name": "ballotWasEnforced",
      "type": "event"
    },
    {
      "anonymous": false,
      "inputs": [
        {
          "indexed": false,
          "name": "_countedCandidate",
          "type": "address"
        },
        {
          "indexed": false,
          "name": "_ballotNumber",
          "type": "uint256"
        }
      ],
      "name": "candidateVotesWereCounted",
      "type": "event"
    },
    {
      "anonymous": false,
      "inputs": [
        {
          "indexed": false,
          "name": "_ballotNumber",
          "type": "uint256"
        },
        {
          "indexed": false,
          "name": "_totalVoteCount",
          "type": "uint256"
        }
      ],
      "name": "m2mBallotWasCounted",
      "type": "event"
    },
    {
      "anonymous": false,
      "inputs": [
        {
          "indexed": false,
          "name": "_winningCandidates",
          "type": "address[]"
        },
        {
          "indexed": false,
          "name": "_ballotNumber",
          "type": "uint256"
        }
      ],
      "name": "m2mBallotWasEnforced",
      "type": "event"
    },
    {
      "constant": false,
      "inputs": [
        {
          "name": "self",
          "type": "cyclicalVotingLibrary.RecurringElectionInfo storage"
        },
        {
          "name": "_ballotFrequency",
          "type": "uint256"
        },
        {
          "name": "_ballotDuration",
          "type": "uint256"
        },
        {
          "name": "_quorumSize",
          "type": "uint256"
        },
        {
          "name": "_reelectionMaximum",
          "type": "uint256"
        },
        {
          "name": "_candidacyDuration",
          "type": "uint256"
        },
        {
          "name": "_voterToCandidateRatio",
          "type": "uint256"
        }
      ],
      "name": "initElectionParameters",
      "outputs": [],
      "payable": false,
      "stateMutability": "nonpayable",
      "type": "function"
    },
    {
      "constant": false,
      "inputs": [
        {
          "name": "self",
          "type": "cyclicalVotingLibrary.RecurringElectionInfo storage"
        },
        {
          "name": "ballot",
          "type": "cyclicalVotingLibrary.ElectionBallot storage"
        },
        {
          "name": "_ballotName",
          "type": "bytes32"
        }
      ],
      "name": "createRecurrentBallot",
      "outputs": [],
      "payable": false,
      "stateMutability": "nonpayable",
      "type": "function"
    },
    {
      "constant": false,
      "inputs": [
        {
          "name": "self",
          "type": "cyclicalVotingLibrary.RecurringElectionInfo storage"
        },
        {
          "name": "ballot",
          "type": "cyclicalVotingLibrary.ElectionBallot storage"
        },
        {
          "name": "_ipfsHash",
          "type": "bytes32"
        },
        {
          "name": "_hash_function",
          "type": "uint8"
        },
        {
          "name": "_size",
          "type": "uint8"
        }
      ],
      "name": "presentCandidacyLib",
      "outputs": [],
      "payable": false,
      "stateMutability": "nonpayable",
      "type": "function"
    },
    {
      "constant": false,
      "inputs": [
        {
          "name": "self",
          "type": "cyclicalVotingLibrary.RecurringElectionInfo storage"
        },
        {
          "name": "ballot",
          "type": "cyclicalVotingLibrary.ElectionBallot storage"
        },
        {
          "name": "_candidateAddress",
          "type": "address"
        }
      ],
      "name": "voteManyToOne",
      "outputs": [],
      "payable": false,
      "stateMutability": "nonpayable",
      "type": "function"
    },
    {
      "constant": false,
      "inputs": [
        {
          "name": "self",
          "type": "cyclicalVotingLibrary.RecurringElectionInfo storage"
        },
        {
          "name": "ballot",
          "type": "cyclicalVotingLibrary.ElectionBallot storage"
        },
        {
          "name": "_votersOrganAddress",
          "type": "address"
        }
      ],
      "name": "countManyToOne",
      "outputs": [
        {
          "name": "nextPresidentAddress",
          "type": "address"
        }
      ],
      "payable": false,
      "stateMutability": "nonpayable",
      "type": "function"
    },
    {
      "constant": false,
      "inputs": [
        {
          "name": "self",
          "type": "cyclicalVotingLibrary.RecurringElectionInfo storage"
        },
        {
          "name": "ballot",
          "type": "cyclicalVotingLibrary.ElectionBallot storage"
        },
        {
          "name": "_newPresident",
          "type": "address"
        },
        {
          "name": "_currentPresident",
          "type": "address"
        },
        {
          "name": "_presidentialOrganAddress",
          "type": "address"
        }
      ],
      "name": "givePowerToNewPresident",
      "outputs": [],
      "payable": false,
      "stateMutability": "nonpayable",
      "type": "function"
    },
    {
      "constant": false,
      "inputs": [
        {
          "name": "self",
          "type": "cyclicalVotingLibrary.RecurringElectionInfo storage"
        },
        {
          "name": "ballot",
          "type": "cyclicalVotingLibrary.ElectionBallot storage"
        },
        {
          "name": "_candidateAddresses",
          "type": "address[]"
        }
      ],
      "name": "voteManyToMany",
      "outputs": [],
      "payable": false,
      "stateMutability": "nonpayable",
      "type": "function"
    },
    {
      "constant": false,
      "inputs": [
        {
          "name": "self",
          "type": "cyclicalVotingLibrary.RecurringElectionInfo storage"
        },
        {
          "name": "ballot",
          "type": "cyclicalVotingLibrary.ElectionBallot storage"
        },
        {
          "name": "nextModerators",
          "type": "address[] storage"
        },
        {
          "name": "_votersOrganAddress",
          "type": "address"
        }
      ],
      "name": "countManyToMany",
      "outputs": [],
      "payable": false,
      "stateMutability": "nonpayable",
      "type": "function"
    },
    {
      "constant": false,
      "inputs": [
        {
          "name": "self",
          "type": "cyclicalVotingLibrary.RecurringElectionInfo storage"
        },
        {
          "name": "ballot",
          "type": "cyclicalVotingLibrary.ElectionBallot storage"
        },
        {
          "name": "nextModerators",
          "type": "address[] storage"
        },
        {
          "name": "currentModerators",
          "type": "address[] storage"
        },
        {
          "name": "_moderatorsOrganAddress",
          "type": "address"
        }
      ],
      "name": "enforceManyToMany",
      "outputs": [],
      "payable": false,
      "stateMutability": "nonpayable",
      "type": "function"
    }
  ],
  "bytecode": "0x612bcb610030600b82828239805160001a6073146000811461002057610022565bfe5b5030600052607381538281f3fe73000000000000000000000000000000000000000030146080604052600436106100b0576000357c0100000000000000000000000000000000000000000000000000000000900463ffffffff1680633e919158146100b55780634f63e7e71461015a578063578ede03146101d35780638f4b1f741461024a57806396896830146102b3578063bd292a4714610318578063e0e2f6bb14610367578063e9eedbd51461040c578063eedbe5811461047b575b600080fd5b8180156100c157600080fd5b50610158600480360360a08110156100d857600080fd5b810190808035906020019092919080359060200190929190803573ffffffffffffffffffffffffffffffffffffffff169060200190929190803573ffffffffffffffffffffffffffffffffffffffff169060200190929190803573ffffffffffffffffffffffffffffffffffffffff169060200190929190505050610554565b005b81801561016657600080fd5b506101d1600480360360a081101561017d57600080fd5b8101908080359060200190929190803590602001909291908035906020019092919080359060200190929190803573ffffffffffffffffffffffffffffffffffffffff16906020019092919050505061097d565b005b8180156101df57600080fd5b50610248600480360360e08110156101f657600080fd5b8101908080359060200190929190803590602001909291908035906020019092919080359060200190929190803590602001909291908035906020019092919080359060200190929190505050611138565b005b81801561025657600080fd5b506102b1600480360360a081101561026d57600080fd5b81019080803590602001909291908035906020019092919080359060200190929190803560ff169060200190929190803560ff169060200190929190505050611180565b005b8180156102bf57600080fd5b50610316600480360360608110156102d657600080fd5b810190808035906020019092919080359060200190929190803573ffffffffffffffffffffffffffffffffffffffff16906020019092919050505061152a565b005b81801561032457600080fd5b506103656004803603606081101561033b57600080fd5b810190808035906020019092919080359060200190929190803590602001909291905050506117d8565b005b81801561037357600080fd5b506103ca6004803603606081101561038a57600080fd5b810190808035906020019092919080359060200190929190803573ffffffffffffffffffffffffffffffffffffffff1690602001909291905050506118e6565b604051808273ffffffffffffffffffffffffffffffffffffffff1673ffffffffffffffffffffffffffffffffffffffff16815260200191505060405180910390f35b81801561041857600080fd5b506104796004803603608081101561042f57600080fd5b81019080803590602001909291908035906020019092919080359060200190929190803573ffffffffffffffffffffffffffffffffffffffff169060200190929190505050612065565b005b81801561048757600080fd5b506105526004803603606081101561049e57600080fd5b810190808035906020019092919080359060200190929190803590602001906401000000008111156104cf57600080fd5b8201836020820111156104e157600080fd5b8035906020019184602083028401116401000000008311171561050357600080fd5b919080806020026020016040519081016040528093929190818152602001838360200280828437600081840152601f19601f8201169050808301925050505050505091929192905050506127a0565b005b60008190508073ffffffffffffffffffffffffffffffffffffffff1663a08c3cb58760090160008773ffffffffffffffffffffffffffffffffffffffff1673ffffffffffffffffffffffffffffffffffffffff16815260200190815260200160002060000160009054906101000a900473ffffffffffffffffffffffffffffffffffffffff168860090160008873ffffffffffffffffffffffffffffffffffffffff1673ffffffffffffffffffffffffffffffffffffffff168152602001908152602001600020600101548960090160008973ffffffffffffffffffffffffffffffffffffffff1673ffffffffffffffffffffffffffffffffffffffff16815260200190815260200160002060020160009054906101000a900460ff168a60090160008a73ffffffffffffffffffffffffffffffffffffffff1673ffffffffffffffffffffffffffffffffffffffff16815260200190815260200160002060020160019054906101000a900460ff166040518563ffffffff167c0100000000000000000000000000000000000000000000000000000000028152600401808573ffffffffffffffffffffffffffffffffffffffff1673ffffffffffffffffffffffffffffffffffffffff1681526020018481526020018360ff1660ff1681526020018260ff1660ff168152602001945050505050602060405180830381600087803b15801561076257600080fd5b505af1158015610776573d6000803e3d6000fd5b505050506040513d602081101561078c57600080fd5b810190808051906020019092919050505050600085600001541115610906578073ffffffffffffffffffffffffffffffffffffffff16630e9defff8273ffffffffffffffffffffffffffffffffffffffff16635549ea51866040518263ffffffff167c0100000000000000000000000000000000000000000000000000000000028152600401808273ffffffffffffffffffffffffffffffffffffffff1673ffffffffffffffffffffffffffffffffffffffff16815260200191505060206040518083038186803b15801561086057600080fd5b505afa158015610874573d6000803e3d6000fd5b505050506040513d602081101561088a57600080fd5b81019080805190602001909291905050506040518263ffffffff167c010000000000000000000000000000000000000000000000000000000002815260040180828152602001915050600060405180830381600087803b1580156108ed57600080fd5b505af1158015610901573d6000803e3d6000fd5b505050505b7f948c625cd6ce700d1633bddaf8c10cb74993a25f74007d58169d60ae6ff49e5a848660000154604051808373ffffffffffffffffffffffffffffffffffffffff1673ffffffffffffffffffffffffffffffffffffffff1681526020018281526020019250505060405180910390a1505050505050565b8360050160009054906101000a900460ff16151561099a57600080fd5b600083805490501115156109ad57600080fd5b6000819050600185600001541115610bad5760008090505b8380549050811015610bab578173ffffffffffffffffffffffffffffffffffffffff16630e9defff8373ffffffffffffffffffffffffffffffffffffffff16635549ea518785815481101515610a1757fe5b9060005260206000200160009054906101000a900473ffffffffffffffffffffffffffffffffffffffff166040518263ffffffff167c0100000000000000000000000000000000000000000000000000000000028152600401808273ffffffffffffffffffffffffffffffffffffffff1673ffffffffffffffffffffffffffffffffffffffff16815260200191505060206040518083038186803b158015610abe57600080fd5b505afa158015610ad2573d6000803e3d6000fd5b505050506040513d6020811015610ae857600080fd5b81019080805190602001909291905050506040518263ffffffff167c010000000000000000000000000000000000000000000000000000000002815260040180828152602001915050600060405180830381600087803b158015610b4b57600080fd5b505af1158015610b5f573d6000803e3d6000fd5b505050508381815481101515610b7157fe5b9060005260206000200160006101000a81549073ffffffffffffffffffffffffffffffffffffffff021916905580806001019150506109c5565b505b60008090505b8480549050811015610f7357610bc7612b50565b8760090160008784815481101515610bdb57fe5b9060005260206000200160009054906101000a900473ffffffffffffffffffffffffffffffffffffffff1673ffffffffffffffffffffffffffffffffffffffff1673ffffffffffffffffffffffffffffffffffffffff16815260200190815260200160002060a060405190810160405290816000820160009054906101000a900473ffffffffffffffffffffffffffffffffffffffff1673ffffffffffffffffffffffffffffffffffffffff1673ffffffffffffffffffffffffffffffffffffffff168152602001600182015481526020016002820160009054906101000a900460ff1660ff1660ff1681526020016002820160019054906101000a900460ff1660ff1660ff16815260200160038201548152505090508273ffffffffffffffffffffffffffffffffffffffff1663a08c3cb582600001518360200151846040015185606001516040518563ffffffff167c0100000000000000000000000000000000000000000000000000000000028152600401808573ffffffffffffffffffffffffffffffffffffffff1673ffffffffffffffffffffffffffffffffffffffff1681526020018481526020018360ff1660ff1681526020018260ff1660ff168152602001945050505050602060405180830381600087803b158015610dc157600080fd5b505af1158015610dd5573d6000803e3d6000fd5b505050506040513d6020811015610deb57600080fd5b81019080805190602001909291905050505060018860070160008885815481101515610e1357fe5b9060005260206000200160009054906101000a900473ffffffffffffffffffffffffffffffffffffffff1673ffffffffffffffffffffffffffffffffffffffff1673ffffffffffffffffffffffffffffffffffffffff168152602001908152602001600020600082825401925050819055508480549050821015610ef15780600001518583815481101515610ea457fe5b9060005260206000200160006101000a81548173ffffffffffffffffffffffffffffffffffffffff021916908373ffffffffffffffffffffffffffffffffffffffff160217905550610f5b565b84816000015190806001815401808255809150509060018203906000526020600020016000909192909190916101000a81548173ffffffffffffffffffffffffffffffffffffffff021916908373ffffffffffffffffffffffffffffffffffffffff160217905550505b610f63612b50565b9050508080600101915050610bb3565b506000905060008090505b8560090180549050811015611078578660090160008760090183815481101515610fa457fe5b9060005260206000200160009054906101000a900473ffffffffffffffffffffffffffffffffffffffff1673ffffffffffffffffffffffffffffffffffffffff1673ffffffffffffffffffffffffffffffffffffffff168152602001908152602001600020600080820160006101000a81549073ffffffffffffffffffffffffffffffffffffffff021916905560018201600090556002820160006101000a81549060ff02191690556002820160016101000a81549060ff0219169055600382016000905550508080600101915050610f7e565b507f8e19a9c6dd22955fe17cfd959879ea31cd6498d88fcb3ea8eb5482aceed2a1cb8486600001546040518080602001838152602001828103825284818154815260200191508054801561112157602002820191906000526020600020905b8160009054906101000a900473ffffffffffffffffffffffffffffffffffffffff1673ffffffffffffffffffffffffffffffffffffffff16815260200190600101908083116110d7575b5050935050505060405180910390a1505050505050565b85876000018190555042876001018190555084876002018190555083876005018190555082876004018190555081876003018190555080876006018190555050505050505050565b8360050160009054906101000a900460ff1615151561119e57600080fd5b4284600301541115156111b057600080fd5b84600401548560070160003373ffffffffffffffffffffffffffffffffffffffff1673ffffffffffffffffffffffffffffffffffffffff1681526020019081526020016000205410151561120357600080fd5b3373ffffffffffffffffffffffffffffffffffffffff168560090160003373ffffffffffffffffffffffffffffffffffffffff1673ffffffffffffffffffffffffffffffffffffffff16815260200190815260200160002060000160009054906101000a900473ffffffffffffffffffffffffffffffffffffffff1673ffffffffffffffffffffffffffffffffffffffff16141515156112a257600080fd5b836009013390806001815401808255809150509060018203906000526020600020016000909192909190916101000a81548173ffffffffffffffffffffffffffffffffffffffff021916908373ffffffffffffffffffffffffffffffffffffffff16021790555050338560090160003373ffffffffffffffffffffffffffffffffffffffff1673ffffffffffffffffffffffffffffffffffffffff16815260200190815260200160002060000160006101000a81548173ffffffffffffffffffffffffffffffffffffffff021916908373ffffffffffffffffffffffffffffffffffffffff160217905550828560090160003373ffffffffffffffffffffffffffffffffffffffff1673ffffffffffffffffffffffffffffffffffffffff16815260200190815260200160002060010181905550818560090160003373ffffffffffffffffffffffffffffffffffffffff1673ffffffffffffffffffffffffffffffffffffffff16815260200190815260200160002060020160006101000a81548160ff021916908360ff160217905550808560090160003373ffffffffffffffffffffffffffffffffffffffff1673ffffffffffffffffffffffffffffffffffffffff16815260200190815260200160002060020160016101000a81548160ff021916908360ff1602179055507fc55281888bae65346ed0cc9cf96827c46efc2e53fddf9bda71dcef252244072d846000015433858585604051808681526020018573ffffffffffffffffffffffffffffffffffffffff1673ffffffffffffffffffffffffffffffffffffffff1681526020018481526020018360ff1660ff1681526020018260ff1660ff1681526020019550505050505060405180910390a15050505050565b81600001548360080160003373ffffffffffffffffffffffffffffffffffffffff1673ffffffffffffffffffffffffffffffffffffffff168152602001908152602001600020541115151561157e57600080fd5b8160050160009054906101000a900460ff1615151561159c57600080fd5b4282600301541015156115ae57600080fd5b4282600401541115156115c057600080fd5b600073ffffffffffffffffffffffffffffffffffffffff168360090160008373ffffffffffffffffffffffffffffffffffffffff1673ffffffffffffffffffffffffffffffffffffffff16815260200190815260200160002060000160009054906101000a900473ffffffffffffffffffffffffffffffffffffffff1673ffffffffffffffffffffffffffffffffffffffff161415156116b25760018360090160008373ffffffffffffffffffffffffffffffffffffffff1673ffffffffffffffffffffffffffffffffffffffff16815260200190815260200160002060030160008282540192505081905550611706565b60018360090160008073ffffffffffffffffffffffffffffffffffffffff1673ffffffffffffffffffffffffffffffffffffffff168152602001908152602001600020600301600082825401925050819055505b60018260000154018360080160003373ffffffffffffffffffffffffffffffffffffffff1673ffffffffffffffffffffffffffffffffffffffff1681526020019081526020016000205050600182600601600082825401925050819055507f64bbf4ffdc825afb14eb0f410f1141b85c43dfa5ee8ae25eb7cdf85ec997cd8f338360000154604051808373ffffffffffffffffffffffffffffffffffffffff1673ffffffffffffffffffffffffffffffffffffffff1681526020018281526020019250505060405180910390a1505050565b8260010154421115156117ea57600080fd5b600082600201541415156117fd57600080fd5b8082600101819055504282600201819055508260030154420182600301819055508260020154836003015442010182600401819055508260000154420183600101819055507fdf29f0802d7b2d0119e9e2dd4de58efef192c081c556020edeeb7d67e65385103383600101548460020154856003015486600401548760000154604051808773ffffffffffffffffffffffffffffffffffffffff1673ffffffffffffffffffffffffffffffffffffffff168152602001868152602001858152602001848152602001838152602001828152602001965050505050505060405180910390a1505050565b60008260050160009054906101000a900460ff1615151561190657600080fd5b42836004015410151561191857600080fd5b600083600401541415151561192c57600080fd5b600083600901805490501480611946575060008360060154145b156119b85760018360050160006101000a81548160ff0219169083151502179055507fa8732f0c4ed3f6080039688c4872a71e44d577c90db8d4ebb0de4d4434c43b1e83600001546040518082815260200191505060405180910390a16001420384600101819055506000905061205e565b8360000154836002015401421115611a2b577fa8732f0c4ed3f6080039688c4872a71e44d577c90db8d4ebb0de4d4434c43b1e83600001546040518082815260200191505060405180910390a160018360050160006101000a81548160ff0219169083151502179055506000905061205e565b600080905060008090506000809050600085905060008173ffffffffffffffffffffffffffffffffffffffff1663bbea06196040518163ffffffff167c0100000000000000000000000000000000000000000000000000000000028152600401604080518083038186803b158015611aa257600080fd5b505afa158015611ab6573d6000803e3d6000fd5b505050506040513d6040811015611acc57600080fd5b810190808051906020019092919080519060200190929190505050915050808960050154026064896006015402101515611b0557600192505b6000915060008090505b8860090180549050811015611f355760008960090182815481101515611b3157fe5b9060005260206000200160009054906101000a900473ffffffffffffffffffffffffffffffffffffffff1690507fc7e3fa7c6e3531499b61859188d98e32d943d19ed648a9f4c4d93f600dd771f2818c60090160008473ffffffffffffffffffffffffffffffffffffffff1673ffffffffffffffffffffffffffffffffffffffff16815260200190815260200160002060030154604051808373ffffffffffffffffffffffffffffffffffffffff1673ffffffffffffffffffffffffffffffffffffffff1681526020018281526020019250505060405180910390a1868b60090160008373ffffffffffffffffffffffffffffffffffffffff1673ffffffffffffffffffffffffffffffffffffffff168152602001908152602001600020600301541115611d8a578a60090160008273ffffffffffffffffffffffffffffffffffffffff1673ffffffffffffffffffffffffffffffffffffffff1681526020019081526020016000206003015496508a60090160008973ffffffffffffffffffffffffffffffffffffffff1673ffffffffffffffffffffffffffffffffffffffff168152602001908152602001600020600080820160006101000a81549073ffffffffffffffffffffffffffffffffffffffff021916905560018201600090556002820160006101000a81549060ff02191690556002820160016101000a81549060ff0219169055600382016000905550508960090182815481101515611d5457fe5b9060005260206000200160009054906101000a900473ffffffffffffffffffffffffffffffffffffffff16975060009550611f27565b868b60090160008373ffffffffffffffffffffffffffffffffffffffff1673ffffffffffffffffffffffffffffffffffffffff168152602001908152602001600020600301541415611e8257600195508a60090160008273ffffffffffffffffffffffffffffffffffffffff1673ffffffffffffffffffffffffffffffffffffffff168152602001908152602001600020600080820160006101000a81549073ffffffffffffffffffffffffffffffffffffffff021916905560018201600090556002820160006101000a81549060ff02191690556002820160016101000a81549060ff021916905560038201600090555050611f26565b8a60090160008273ffffffffffffffffffffffffffffffffffffffff1673ffffffffffffffffffffffffffffffffffffffff168152602001908152602001600020600080820160006101000a81549073ffffffffffffffffffffffffffffffffffffffff021916905560018201600090556002820160006101000a81549060ff02191690556002820160016101000a81549060ff0219169055600382016000905550505b5b508080600101915050611b0f565b5060018860050160006101000a81548160ff02191690831515021790555083158015611f5e5750825b15611fe3577f673dce346b2ee7fe6e46de2a203178680d552287205aa648faddc28d8bed26028860000154878a60060154604051808481526020018373ffffffffffffffffffffffffffffffffffffffff1673ffffffffffffffffffffffffffffffffffffffff168152602001828152602001935050505060405180910390a1612055565b7fa8732f0c4ed3f6080039688c4872a71e44d577c90db8d4ebb0de4d4434c43b1e88600001546040518082815260200191505060405180910390a160014203896001018190555060018860050160006101000a81548160ff02191690831515021790555060009550505050505061205e565b85955050505050505b9392505050565b8260050160009054906101000a900460ff1615151561208357600080fd5b42836004015410151561209557600080fd5b60008360040154141515156120a957600080fd5b6000836009018054905014806120c3575060008360060154145b156121315760014203846001018190555060018360050160006101000a81548160ff0219169083151502179055507fa8732f0c4ed3f6080039688c4872a71e44d577c90db8d4ebb0de4d4434c43b1e83600001546040518082815260200191505060405180910390a161279a565b83600001548360020154014211156121ac5760014203846001018190555060018360050160006101000a81548160ff0219169083151502179055507fa8732f0c4ed3f6080039688c4872a71e44d577c90db8d4ebb0de4d4434c43b1e83600001546040518082815260200191505060405180910390a161279a565b600081905060008173ffffffffffffffffffffffffffffffffffffffff1663bbea06196040518163ffffffff167c0100000000000000000000000000000000000000000000000000000000028152600401604080518083038186803b15801561221457600080fd5b505afa158015612228573d6000803e3d6000fd5b505050506040513d604081101561223e57600080fd5b81019080805190602001909291908051906020019092919050505091505080866005015402606486600701540210156122dc5760014203866001018190555060018560050160006101000a81548160ff0219169083151502179055507fa8732f0c4ed3f6080039688c4872a71e44d577c90db8d4ebb0de4d4434c43b1e85600001546040518082815260200191505060405180910390a1505061279a565b6000915084600801548560090180549050101561230457846009018054905085600801819055505b60007fffffffffffffffffffffffffffffffffffffffffffffffffffffffffffffffff905060008090506000809050600080905060008090505b896008015481101561272e57600093506000915060008090505b8a600901805490508110156124fb5760008b6009018281548110151561237a57fe5b9060005260206000200160009054906101000a900473ffffffffffffffffffffffffffffffffffffffff169050868d60090160008373ffffffffffffffffffffffffffffffffffffffff1673ffffffffffffffffffffffffffffffffffffffff168152602001908152602001600020600301541015156123f9576124ed565b858d60090160008373ffffffffffffffffffffffffffffffffffffffff1673ffffffffffffffffffffffffffffffffffffffff168152602001908152602001600020600301541115612498578c60090160008273ffffffffffffffffffffffffffffffffffffffff1673ffffffffffffffffffffffffffffffffffffffff168152602001908152602001600020600301549550819350600094506124ec565b858d60090160008373ffffffffffffffffffffffffffffffffffffffff1673ffffffffffffffffffffffffffffffffffffffff1681526020019081526020016000206003015414156124eb576001850194505b5b5b508080600101915050612358565b50600084141561250a5761271e565b600083111561267c5760008090505b8a60090180549050811015612676578a600801548210151561253a57612669565b848c60090160008d6009018481548110151561255257fe5b9060005260206000200160009054906101000a900473ffffffffffffffffffffffffffffffffffffffff1673ffffffffffffffffffffffffffffffffffffffff1673ffffffffffffffffffffffffffffffffffffffff16815260200190815260200160002060030154141561266857898b600901828154811015156125d357fe5b9060005260206000200160009054906101000a900473ffffffffffffffffffffffffffffffffffffffff1690806001815401808255809150509060018203906000526020600020016000909192909190916101000a81548173ffffffffffffffffffffffffffffffffffffffff021916908373ffffffffffffffffffffffffffffffffffffffff160217905550506001820191505b5b8080600101915050612519565b5061271d565b888a6009018381548110151561268e57fe5b9060005260206000200160009054906101000a900473ffffffffffffffffffffffffffffffffffffffff1690806001815401808255809150509060018203906000526020600020016000909192909190916101000a81548173ffffffffffffffffffffffffffffffffffffffff021916908373ffffffffffffffffffffffffffffffffffffffff160217905550505b5b839450808060010191505061233e565b5060018960050160006101000a81548160ff0219169083151502179055507f6255635dcc3194c3820655411ee1447711bcce59a84c5c5fee024232a88e1d5189600001548a60060154604051808381526020018281526020019250505060405180910390a15050505050505b50505050565b81600001548360080160003373ffffffffffffffffffffffffffffffffffffffff1673ffffffffffffffffffffffffffffffffffffffff16815260200190815260200160002054111515156127f457600080fd5b8160050160009054906101000a900460ff16151561281157600080fd5b42826003015410151561282357600080fd5b42826004015411151561283557600080fd5b6001826008015401815110151561284b57600080fd5b6000815111151561285b57600080fd5b60008090505b8151811015612a7d5760008111156128df57818181518110151561288157fe5b9060200190602002015173ffffffffffffffffffffffffffffffffffffffff1682600183038151811015156128b257fe5b9060200190602002015173ffffffffffffffffffffffffffffffffffffffff161015156128de57600080fd5b5b600073ffffffffffffffffffffffffffffffffffffffff16846009016000848481518110151561290b57fe5b9060200190602002015173ffffffffffffffffffffffffffffffffffffffff1673ffffffffffffffffffffffffffffffffffffffff16815260200190815260200160002060000160009054906101000a900473ffffffffffffffffffffffffffffffffffffffff1673ffffffffffffffffffffffffffffffffffffffff16141515612a1c578083600801540384600901600084848151811015156129ab57fe5b9060200190602002015173ffffffffffffffffffffffffffffffffffffffff1673ffffffffffffffffffffffffffffffffffffffff16815260200190815260200160002060030160008282540192505081905550808360080154038360060160008282540192505081905550612a70565b60018460090160008073ffffffffffffffffffffffffffffffffffffffff1673ffffffffffffffffffffffffffffffffffffffff168152602001908152602001600020600301600082825401925050819055505b8080600101915050612861565b5060018260000154018360080160003373ffffffffffffffffffffffffffffffffffffffff1673ffffffffffffffffffffffffffffffffffffffff1681526020019081526020016000205050600182600701600082825401925050819055507f64bbf4ffdc825afb14eb0f410f1141b85c43dfa5ee8ae25eb7cdf85ec997cd8f338360000154604051808373ffffffffffffffffffffffffffffffffffffffff1673ffffffffffffffffffffffffffffffffffffffff1681526020018281526020019250505060405180910390a1505050565b60a060405190810160405280600073ffffffffffffffffffffffffffffffffffffffff16815260200160008019168152602001600060ff168152602001600060ff16815260200160008152509056fea165627a7a7230582031b09e445863d1c86f40cbcc16e7b5de1ff4d762c27d26375991f137fc62c5090029",
  "source": "pragma solidity >=0.4.22 <0.6.0;\n\nimport \"../Organ.sol\";\n\n/**\n\nKelsen Framework\nProcedure library\nThis library is used to hold the logic common to all procedures\n\n**/\nlibrary cyclicalVotingLibrary {\n  \n    struct RecurringElectionInfo \n    {\n        uint ballotFrequency;\n        // When will the next election take place\n        uint nextElectionDate;\n        // Time to vote\n        uint ballotDuration;\n        // Time to declare as a candidate\n        uint candidacyDuration;\n        // Maximum time someone can be candidate\n        uint reelectionMaximum;\n        // Minimum participation to validate election\n        uint quorumSize;\n        // Number of candidate per voter. Not used for many to one election\n        uint voterToCandidateRatio;\n        // A mapping of candidacy status and number of candidacies per member\n        mapping(address => uint) cumulatedMandates;\n\n        // // Is blank vote accepted\n        // bool neutralVoteAccepted;\n        \n        mapping(address => uint) nextElectionUserCanVoteIn;\n\n        // Tracking last candidacies\n        mapping(address => Candidacy) candidacies;\n    }\n\n    // Candidacies structure, to keep track of candidacies for an election\n    struct Candidacy \n    {\n        address payable candidateAddress;\n        bytes32 ipfsHash; // ID of proposal on IPFS\n        uint8 hash_function;\n        uint8 size;\n        uint voteNumber;\n    }\n\n    struct ElectionBallot \n    {\n        uint ballotNumber;\n        bytes32 name;   // short name (up to 32 bytes)\n        uint startDate;\n        uint candidacyEndDate;\n        uint electionEndDate;\n        bool wasEnded;\n        uint totalVoteCount;\n        uint totalVoters;\n        uint electedOfficialSlotNumber;\n        address[] candidateList;\n    }\n\n    // Events\n    event ballotCreationEvent(address _from, bytes32 _name, uint _startDate, uint _candidacyEndDate, uint _endDate, uint _ballotNumber);\n    event presentCandidacyEvent(uint _ballotNumber, address _candidateAddress, bytes32 _ipfsHash, uint8 _hash_function, uint8 _size);\n    event votedOnElectionEvent(address _from, uint _ballotNumber);\n    event ballotWasCounted(uint _ballotNumber, address _winningCandidate, uint _totalVoteCount);\n    event ballotResultException(uint _ballotNumber);\n    event ballotWasEnforced(address _winningCandidate, uint _ballotNumber);\n    event candidateVotesWereCounted(address _countedCandidate, uint _ballotNumber);\n    event m2mBallotWasCounted(uint _ballotNumber, uint _totalVoteCount);\n    event m2mBallotWasEnforced(address[] _winningCandidates, uint _ballotNumber);\n\n    function initElectionParameters(RecurringElectionInfo storage self, uint _ballotFrequency, uint _ballotDuration, uint _quorumSize, uint _reelectionMaximum, uint _candidacyDuration, uint _voterToCandidateRatio)\n    public\n    {\n        self.ballotFrequency = _ballotFrequency;\n        self.nextElectionDate = now;\n        self.ballotDuration = _ballotDuration;\n        self.quorumSize = _quorumSize;\n        self.reelectionMaximum = _reelectionMaximum;\n        self.candidacyDuration = _candidacyDuration;\n        self.voterToCandidateRatio = _voterToCandidateRatio;\n    }\n\n    function createRecurrentBallot(RecurringElectionInfo storage self, ElectionBallot storage ballot, bytes32 _ballotName) \n    public \n    {\n        // Checking that election date has passed\n        require (now > self.nextElectionDate);\n        // Checking if previous ballot was counted\n        require(ballot.startDate == 0);\n    \n        ballot.name = _ballotName;\n        ballot.startDate = now;\n        ballot.candidacyEndDate = now + self.candidacyDuration;\n        ballot.electionEndDate = now + self.candidacyDuration+self.ballotDuration;\n\n        self.nextElectionDate = now + self.ballotFrequency;\n\n        // Ballot creation event\n        emit ballotCreationEvent(msg.sender, ballot.name, ballot.startDate, ballot.candidacyEndDate, ballot.electionEndDate, ballot.ballotNumber);\n   }\n\n    function presentCandidacyLib(RecurringElectionInfo storage self, ElectionBallot storage ballot, bytes32 _ipfsHash, uint8 _hash_function, uint8 _size) \n    public \n    {\n        // Check that the ballot is still active\n        require(!ballot.wasEnded);\n\n        // Check that the ballot candidacy period is still open\n        require(ballot.candidacyEndDate > now);\n\n        // Check that sender is not over the mandate limit\n        require(self.cumulatedMandates[msg.sender] < self.reelectionMaximum);\n\n        // Check if the candidate is already candidate\n        require(self.candidacies[msg.sender].candidateAddress != msg.sender);\n\n        ballot.candidateList.push(msg.sender);\n\n        self.candidacies[msg.sender].candidateAddress = msg.sender;\n\n        self.candidacies[msg.sender].ipfsHash = _ipfsHash;\n        self.candidacies[msg.sender].hash_function = _hash_function;\n        self.candidacies[msg.sender].size = _size;\n         // Candidacy event is turned off for now\n        emit presentCandidacyEvent(ballot.ballotNumber, msg.sender, _ipfsHash, _hash_function, _size);\n    }\n\n    function voteManyToOne(RecurringElectionInfo storage self, ElectionBallot storage ballot, address payable _candidateAddress) \n    public \n    {        \n        // Check if voter already votred\n        require(self.nextElectionUserCanVoteIn[msg.sender] <= ballot.ballotNumber);\n\n        // Check if vote is still active\n        require(!ballot.wasEnded);\n\n        // Check if candidacy period is over\n        require(ballot.candidacyEndDate < now);\n\n        // Check if voting period ended\n        require(ballot.electionEndDate > now);\n\n        // Check if candidate for whom we voted for is declared\n        if(self.candidacies[_candidateAddress].candidateAddress != address(0))\n        {self.candidacies[_candidateAddress].voteNumber += 1;}\n        else\n            // If candidate does not exist, this is a neutral vote\n        {self.candidacies[address(0)].voteNumber += 1;}\n\n        self.nextElectionUserCanVoteIn[msg.sender] == ballot.ballotNumber + 1;\n        \n        ballot.totalVoteCount += 1;\n\n        // Event\n        emit votedOnElectionEvent(msg.sender, ballot.ballotNumber);\n    }\n\n    function countManyToOne(RecurringElectionInfo storage self, ElectionBallot storage ballot, address payable _votersOrganAddress) \n    public \n    returns (address nextPresidentAddress)\n    {\n        // We check if the vote was already closed\n        require(!ballot.wasEnded);\n\n        // Checking that the vote can be closed\n        require(ballot.electionEndDate < now);\n\n        // Checking the ballot has been initialised\n        require(ballot.electionEndDate != 0);\n\n        // Checking that there was enough participation\n        if ((ballot.candidateList.length == 0) || ballot.totalVoteCount == 0)\n        {\n            ballot.wasEnded = true;\n            emit ballotResultException(ballot.ballotNumber);\n            self.nextElectionDate = now -1;\n            return address(0);\n        }\n\n        // Checking if the election is still valid\n        if (now > ballot.startDate + self.ballotFrequency)\n        {\n            emit ballotResultException(ballot.ballotNumber);\n            ballot.wasEnded = true;  \n            return address(0);                \n        }\n\n\n\n\n        // ############## Going through candidates to check the vote count\n        uint winningVoteCount = 0;\n        bool isADraw = false;\n        bool quorumIsObtained = false;\n\n        Organ voterRegistryOrgan = Organ(_votersOrganAddress);\n\n        // Check if quorum is obtained. We avoiding divisions here, since Solidity is not good to calculate divisions\n        ( ,uint voterNumber) = voterRegistryOrgan.organInfos();\n        if (ballot.totalVoteCount*100 >= self.quorumSize*voterNumber)\n        {\n            quorumIsObtained = true;\n        }\n\n        delete voterRegistryOrgan;\n\n        // Going through candidates list\n        for (uint p = 0; p < ballot.candidateList.length; p++) \n        {\n            address _candidateAddress = ballot.candidateList[p];\n\n            // Logging how many votes this candidate received\n           emit candidateVotesWereCounted(_candidateAddress, self.candidacies[_candidateAddress].voteNumber);\n\n            if (self.candidacies[_candidateAddress].voteNumber > winningVoteCount) \n            {\n                winningVoteCount = self.candidacies[_candidateAddress].voteNumber ;\n                delete self.candidacies[nextPresidentAddress];\n                nextPresidentAddress = ballot.candidateList[p];\n                isADraw = false;\n            }\n\n            else if (self.candidacies[_candidateAddress].voteNumber == winningVoteCount)\n            {\n                isADraw = true;\n                // Cleaning candidate info from mapping\n                delete self.candidacies[_candidateAddress];\n            }\n\n            else\n            {   // Cleaning candidate info from mapping\n                delete self.candidacies[_candidateAddress];\n            }\n            \n            \n        }\n\n        // ############## Updating ballot values if vote concluded\n        ballot.wasEnded = true;\n\n        if (!isADraw && quorumIsObtained)\n            // The ballot completed succesfully\n        {\n            emit ballotWasCounted(ballot.ballotNumber, nextPresidentAddress, ballot.totalVoteCount);\n        }\n\n        else // The ballot did not conclude correctly.\n        {\n            emit ballotResultException(ballot.ballotNumber);\n            self.nextElectionDate = now -1;\n            ballot.wasEnded = true;\n            return address(0);\n        }\n\n        return nextPresidentAddress;   \n    }\n\n    function givePowerToNewPresident(RecurringElectionInfo storage self, ElectionBallot storage ballot, address _newPresident, address _currentPresident, address payable _presidentialOrganAddress)\n    public\n    {\n        Organ presidentialOrgan = Organ(_presidentialOrganAddress);\n        presidentialOrgan.addNorm(self.candidacies[_newPresident].candidateAddress, self.candidacies[_newPresident].ipfsHash, self.candidacies[_newPresident].hash_function, self.candidacies[_newPresident].size);\n        if (ballot.ballotNumber > 0)\n        {\n            presidentialOrgan.remNorm(presidentialOrgan.getAddressPositionInNorm(_currentPresident));\n        }\n        \n        emit ballotWasEnforced(_newPresident, ballot.ballotNumber);\n    }\n\n    function voteManyToMany(RecurringElectionInfo storage self, ElectionBallot storage ballot, address[] memory _candidateAddresses) \n    public \n    {\n        // Check if voter already voted\n        require(self.nextElectionUserCanVoteIn[msg.sender] <= ballot.ballotNumber);\n\n        // Check if vote is still active\n        require(ballot.wasEnded);\n\n        // Check if candidacy period is over\n        require(ballot.candidacyEndDate < now);\n\n        // Check if voting period ended\n        require(ballot.electionEndDate > now);\n\n        // Checking that the voter has not selected too much candidates\n        require(_candidateAddresses.length < ballot.electedOfficialSlotNumber + 1);\n        \n        // Checking that the voter selected at least one candidate\n        require(_candidateAddresses.length > 0);\n\n        // Going through the list of selected candidates\n        for (uint i = 0; i < _candidateAddresses.length; i++)\n        {\n            if (i > 0)\n            {\n               require(_candidateAddresses[i-1] < _candidateAddresses[i]); \n            }\n\n            if(self.candidacies[_candidateAddresses[i]].candidateAddress != address(0))\n            {\n                self.candidacies[_candidateAddresses[i]].voteNumber += ballot.electedOfficialSlotNumber-i;\n                ballot.totalVoteCount += ballot.electedOfficialSlotNumber-i;\n            }\n\n            else    // If candidate does not exist, this is a neutral vote\n            {\n                self.candidacies[address(0)].voteNumber += 1;\n            }\n        }\n        self.nextElectionUserCanVoteIn[msg.sender] == ballot.ballotNumber + 1;\n\n        ballot.totalVoters += 1;\n\n        // Log event\n        emit votedOnElectionEvent(msg.sender, ballot.ballotNumber);\n    }\n\n    function countManyToMany(RecurringElectionInfo storage self, ElectionBallot storage ballot, address[] storage nextModerators, address payable _votersOrganAddress) \n    public \n    {\n        // We check if the vote was already closed\n        require(!ballot.wasEnded);\n\n        // Checking that the vote can be closed\n        require(ballot.electionEndDate < now);\n\n        // Checking the ballot has been initialised\n        require(ballot.electionEndDate != 0);\n\n        // Checking that the vote can be closed\n        if ((ballot.candidateList.length == 0) || ballot.totalVoteCount == 0)\n        {\n            self.nextElectionDate = now -1;\n            ballot.wasEnded = true;\n            emit ballotResultException(ballot.ballotNumber);\n            return;\n        }\n\n        // Checking that the enforcing date is not later than the end of his supposed mandate\n        if (now > ballot.startDate + self.ballotFrequency)\n        {\n            self.nextElectionDate = now -1;\n            ballot.wasEnded = true;\n            emit ballotResultException(ballot.ballotNumber);\n            return;\n        }\n\n        Organ voterRegistryOrgan = Organ(_votersOrganAddress);\n        // Check if quorum is obtained. We are avoiding divisions here, since Solidity is not good to calculate divisions\n        ( ,uint voterNumber) = voterRegistryOrgan.organInfos();\n        if (ballot.totalVoters*100 < self.quorumSize*voterNumber)\n        {\n            // Quorum was not obtained. Rebooting election\n            //ballots[_ballotNumber].wasEnforced = true;\n            self.nextElectionDate = now -1;\n            ballot.wasEnded = true;\n\n            // Log event\n            emit ballotResultException(ballot.ballotNumber);\n            // Rebooting election\n            //createBallot(ballots[_ballotNumber].name);\n            return;\n        }\n        delete voterRegistryOrgan;\n\n        // Checking that there are enough candidates\n        if (ballot.candidateList.length < ballot.electedOfficialSlotNumber)\n        {\n            ballot.electedOfficialSlotNumber = ballot.candidateList.length;\n        } \n\n        // ############## Going through candidates to check the vote count\n        uint previousThresholdCount = uint(0xFFFFFFFFFFFFFFFFFFFFFFFFFFFFFFFFFFFFFFFFFFFFFFFFFFFFFFFFFFFFFFFF);\n        uint winningVoteCount = 0;\n        uint isADraw = 0;\n        uint roundWinningCandidate = 0;\n\n        // Going through candidate lists to check all elected moderators\n        for (uint i = 0; i < ballot.electedOfficialSlotNumber; i++)\n        {\n            winningVoteCount = 0;\n            roundWinningCandidate = 0;\n            // Going through candidate list once to find best suitor\n            for (uint p = 0; p < ballot.candidateList.length; p++)\n            {\n                address _candidateAddress = ballot.candidateList[p];\n                if (self.candidacies[_candidateAddress].voteNumber >= previousThresholdCount)\n                {}\n                else if (self.candidacies[_candidateAddress].voteNumber > winningVoteCount) \n                {\n                    winningVoteCount = self.candidacies[_candidateAddress].voteNumber ;\n                    roundWinningCandidate = p;\n                    isADraw = 0;\n                }\n                else if (self.candidacies[_candidateAddress].voteNumber == winningVoteCount)\n                {\n                        isADraw += 1;\n                }\n\n            }\n\n            // Checking if various candidates tied\n            if (winningVoteCount == 0)\n            {}\n            else if (isADraw > 0)\n            {\n                // Going through list one more time to add all tied up candidates\n                for (uint q = 0; q < ballot.candidateList.length; q++)\n                {   \n                    // Making sure that winning candidate number is not too big\n                    if (i >= ballot.electedOfficialSlotNumber)\n                    {}\n                    // Detecting ties\n                    else if (self.candidacies[ballot.candidateList[q]].voteNumber == winningVoteCount)\n                        {\n                            nextModerators.push(ballot.candidateList[q]);\n                            i += 1;\n                        }\n                }\n            }\n            // Adding candidate to winning candidate list\n            else \n            {\n                nextModerators.push(ballot.candidateList[roundWinningCandidate]);\n            }\n\n            previousThresholdCount = winningVoteCount;\n        }\n\n        // ############## Updating ballot values if vote concluded\n        ballot.wasEnded = true;\n        // Log event\n        emit m2mBallotWasCounted(ballot.ballotNumber, ballot.totalVoteCount );\n    }\n\n    function enforceManyToMany(RecurringElectionInfo storage self, ElectionBallot storage ballot, address[] storage nextModerators, address[] storage currentModerators, address payable _moderatorsOrganAddress) \n    public \n    {\n        // Checking the ballot was closed\n        require(ballot.wasEnded);\n        \n        // Checking there are new moderators to add\n        require(nextModerators.length > 0);\n\n        // We initiate the Organ interface to add a moderator norm\n        Organ moderatorsOrgan = Organ(_moderatorsOrganAddress);\n\n        // Removing current moderators, if this is not a first election\n        if (ballot.ballotNumber > 1)\n            {\n            for (uint i = 0; i < currentModerators.length; i++)\n                {\n                    moderatorsOrgan.remNorm(moderatorsOrgan.getAddressPositionInNorm(currentModerators[i]));\n                    delete currentModerators[i];\n                }\n            }\n\n        // Adding new moderators\n        for (uint p = 0; p < nextModerators.length; p++)\n            {\n                Candidacy memory newModerator = self.candidacies[nextModerators[p]];\n                moderatorsOrgan.addNorm(newModerator.candidateAddress, newModerator.ipfsHash, newModerator.hash_function, newModerator.size  );\n                self.cumulatedMandates[nextModerators[p]] += 1;\n                if (p < currentModerators.length )\n                {\n                    currentModerators[p] = newModerator.candidateAddress;\n                }\n                else\n                {\n                    currentModerators.push(newModerator.candidateAddress);\n                }\n                delete newModerator;\n            }\n\n        delete moderatorsOrgan;\n\n        // Cleaning candidate lists and candidatures \n        for (uint k = 0; k < ballot.candidateList.length; k++)\n        {\n            delete self.candidacies[ballot.candidateList[k]];\n        }\n\n        // Logging event\n        emit m2mBallotWasEnforced(nextModerators, ballot.ballotNumber);\n    }\n}",
  "sourcePath": "/Users/henrilieutaud/Documents/Mes documents/ESILV/03 Blockchain Programmation/solidity-101/contracts/utils/Kelsen/solidity/contracts/libraries/cyclicalVotingLibrary.sol",
  "compiler": {
    "name": "solc",
    "version": "0.5.0+commit.1d4f565a.Emscripten.clang"
  },
  "schemaVersion": "3.0.6",
  "updatedAt": "2019-10-03T20:18:25.159Z",
  "devdoc": {
    "methods": {}
  },
  "userdoc": {
    "methods": {},
    "notice": "Kelsen Framework Procedure library This library is used to hold the logic common to all procedures*"
  }
}