{
  "contractName": "cyclicalVotingLibrary",
  "abi": [
    {
      "anonymous": false,
      "inputs": [
        {
          "indexed": false,
          "name": "_from",
          "type": "address"
        },
        {
          "indexed": false,
          "name": "_name",
          "type": "bytes32"
        },
        {
          "indexed": false,
          "name": "_startDate",
          "type": "uint256"
        },
        {
          "indexed": false,
          "name": "_candidacyEndDate",
          "type": "uint256"
        },
        {
          "indexed": false,
          "name": "_endDate",
          "type": "uint256"
        },
        {
          "indexed": false,
          "name": "_ballotNumber",
          "type": "uint256"
        }
      ],
      "name": "ballotCreationEvent",
      "type": "event"
    },
    {
      "anonymous": false,
      "inputs": [
        {
          "indexed": false,
          "name": "_ballotNumber",
          "type": "uint256"
        },
        {
          "indexed": false,
          "name": "_candidateAddress",
          "type": "address"
        },
        {
          "indexed": false,
          "name": "_ipfsHash",
          "type": "bytes32"
        },
        {
          "indexed": false,
          "name": "_hash_function",
          "type": "uint8"
        },
        {
          "indexed": false,
          "name": "_size",
          "type": "uint8"
        }
      ],
      "name": "presentCandidacyEvent",
      "type": "event"
    },
    {
      "anonymous": false,
      "inputs": [
        {
          "indexed": false,
          "name": "_from",
          "type": "address"
        },
        {
          "indexed": false,
          "name": "_ballotNumber",
          "type": "uint256"
        }
      ],
      "name": "votedOnElectionEvent",
      "type": "event"
    },
    {
      "anonymous": false,
      "inputs": [
        {
          "indexed": false,
          "name": "_ballotNumber",
          "type": "uint256"
        },
        {
          "indexed": false,
          "name": "_winningCandidate",
          "type": "address"
        },
        {
          "indexed": false,
          "name": "_totalVoteCount",
          "type": "uint256"
        }
      ],
      "name": "ballotWasCounted",
      "type": "event"
    },
    {
      "anonymous": false,
      "inputs": [
        {
          "indexed": false,
          "name": "_ballotNumber",
          "type": "uint256"
        }
      ],
      "name": "ballotResultException",
      "type": "event"
    },
    {
      "anonymous": false,
      "inputs": [
        {
          "indexed": false,
          "name": "_winningCandidate",
          "type": "address"
        },
        {
          "indexed": false,
          "name": "_ballotNumber",
          "type": "uint256"
        }
      ],
      "name": "ballotWasEnforced",
      "type": "event"
    },
    {
      "anonymous": false,
      "inputs": [
        {
          "indexed": false,
          "name": "_countedCandidate",
          "type": "address"
        },
        {
          "indexed": false,
          "name": "_ballotNumber",
          "type": "uint256"
        }
      ],
      "name": "candidateVotesWereCounted",
      "type": "event"
    },
    {
      "anonymous": false,
      "inputs": [
        {
          "indexed": false,
          "name": "_ballotNumber",
          "type": "uint256"
        },
        {
          "indexed": false,
          "name": "_totalVoteCount",
          "type": "uint256"
        }
      ],
      "name": "m2mBallotWasCounted",
      "type": "event"
    },
    {
      "anonymous": false,
      "inputs": [
        {
          "indexed": false,
          "name": "_winningCandidates",
          "type": "address[]"
        },
        {
          "indexed": false,
          "name": "_ballotNumber",
          "type": "uint256"
        }
      ],
      "name": "m2mBallotWasEnforced",
      "type": "event"
    },
    {
      "constant": false,
      "inputs": [
        {
          "name": "self",
          "type": "cyclicalVotingLibrary.RecurringElectionInfo storage"
        },
        {
          "name": "_ballotFrequency",
          "type": "uint256"
        },
        {
          "name": "_ballotDuration",
          "type": "uint256"
        },
        {
          "name": "_quorumSize",
          "type": "uint256"
        },
        {
          "name": "_reelectionMaximum",
          "type": "uint256"
        },
        {
          "name": "_candidacyDuration",
          "type": "uint256"
        },
        {
          "name": "_voterToCandidateRatio",
          "type": "uint256"
        }
      ],
      "name": "initElectionParameters",
      "outputs": [],
      "payable": false,
      "stateMutability": "nonpayable",
      "type": "function"
    },
    {
      "constant": false,
      "inputs": [
        {
          "name": "self",
          "type": "cyclicalVotingLibrary.RecurringElectionInfo storage"
        },
        {
          "name": "ballot",
          "type": "cyclicalVotingLibrary.ElectionBallot storage"
        },
        {
          "name": "_ballotName",
          "type": "bytes32"
        }
      ],
      "name": "createRecurrentBallot",
      "outputs": [],
      "payable": false,
      "stateMutability": "nonpayable",
      "type": "function"
    },
    {
      "constant": false,
      "inputs": [
        {
          "name": "self",
          "type": "cyclicalVotingLibrary.RecurringElectionInfo storage"
        },
        {
          "name": "ballot",
          "type": "cyclicalVotingLibrary.ElectionBallot storage"
        },
        {
          "name": "_ipfsHash",
          "type": "bytes32"
        },
        {
          "name": "_hash_function",
          "type": "uint8"
        },
        {
          "name": "_size",
          "type": "uint8"
        }
      ],
      "name": "presentCandidacyLib",
      "outputs": [],
      "payable": false,
      "stateMutability": "nonpayable",
      "type": "function"
    },
    {
      "constant": false,
      "inputs": [
        {
          "name": "self",
          "type": "cyclicalVotingLibrary.RecurringElectionInfo storage"
        },
        {
          "name": "ballot",
          "type": "cyclicalVotingLibrary.ElectionBallot storage"
        },
        {
          "name": "_candidateAddress",
          "type": "address"
        }
      ],
      "name": "voteManyToOne",
      "outputs": [],
      "payable": false,
      "stateMutability": "nonpayable",
      "type": "function"
    },
    {
      "constant": false,
      "inputs": [
        {
          "name": "self",
          "type": "cyclicalVotingLibrary.RecurringElectionInfo storage"
        },
        {
          "name": "ballot",
          "type": "cyclicalVotingLibrary.ElectionBallot storage"
        },
        {
          "name": "_votersOrganAddress",
          "type": "address"
        }
      ],
      "name": "countManyToOne",
      "outputs": [
        {
          "name": "nextPresidentAddress",
          "type": "address"
        }
      ],
      "payable": false,
      "stateMutability": "nonpayable",
      "type": "function"
    },
    {
      "constant": false,
      "inputs": [
        {
          "name": "self",
          "type": "cyclicalVotingLibrary.RecurringElectionInfo storage"
        },
        {
          "name": "ballot",
          "type": "cyclicalVotingLibrary.ElectionBallot storage"
        },
        {
          "name": "_newPresident",
          "type": "address"
        },
        {
          "name": "_currentPresident",
          "type": "address"
        },
        {
          "name": "_presidentialOrganAddress",
          "type": "address"
        }
      ],
      "name": "givePowerToNewPresident",
      "outputs": [],
      "payable": false,
      "stateMutability": "nonpayable",
      "type": "function"
    },
    {
      "constant": false,
      "inputs": [
        {
          "name": "self",
          "type": "cyclicalVotingLibrary.RecurringElectionInfo storage"
        },
        {
          "name": "ballot",
          "type": "cyclicalVotingLibrary.ElectionBallot storage"
        },
        {
          "name": "_candidateAddresses",
          "type": "address[]"
        }
      ],
      "name": "voteManyToMany",
      "outputs": [],
      "payable": false,
      "stateMutability": "nonpayable",
      "type": "function"
    },
    {
      "constant": false,
      "inputs": [
        {
          "name": "self",
          "type": "cyclicalVotingLibrary.RecurringElectionInfo storage"
        },
        {
          "name": "ballot",
          "type": "cyclicalVotingLibrary.ElectionBallot storage"
        },
        {
          "name": "nextModerators",
          "type": "address[] storage"
        },
        {
          "name": "_votersOrganAddress",
          "type": "address"
        }
      ],
      "name": "countManyToMany",
      "outputs": [],
      "payable": false,
      "stateMutability": "nonpayable",
      "type": "function"
    },
    {
      "constant": false,
      "inputs": [
        {
          "name": "self",
          "type": "cyclicalVotingLibrary.RecurringElectionInfo storage"
        },
        {
          "name": "ballot",
          "type": "cyclicalVotingLibrary.ElectionBallot storage"
        },
        {
          "name": "nextModerators",
          "type": "address[] storage"
        },
        {
          "name": "currentModerators",
          "type": "address[] storage"
        },
        {
          "name": "_moderatorsOrganAddress",
          "type": "address"
        }
      ],
      "name": "enforceManyToMany",
      "outputs": [],
      "payable": false,
      "stateMutability": "nonpayable",
      "type": "function"
    }
  ],
  "bytecode": "0x612bd5610030600b82828239805160001a6073146000811461002057610022565bfe5b5030600052607381538281f3fe73000000000000000000000000000000000000000030146080604052600436106100ba576000357c010000000000000000000000000000000000000000000000000000000090048063968968301161008d57806396896830146102bd578063bd292a4714610322578063e0e2f6bb14610371578063e9eedbd514610416578063eedbe58114610485576100ba565b80633e919158146100bf5780634f63e7e714610164578063578ede03146101dd5780638f4b1f7414610254575b600080fd5b8180156100cb57600080fd5b50610162600480360360a08110156100e257600080fd5b810190808035906020019092919080359060200190929190803573ffffffffffffffffffffffffffffffffffffffff169060200190929190803573ffffffffffffffffffffffffffffffffffffffff169060200190929190803573ffffffffffffffffffffffffffffffffffffffff16906020019092919050505061055e565b005b81801561017057600080fd5b506101db600480360360a081101561018757600080fd5b8101908080359060200190929190803590602001909291908035906020019092919080359060200190929190803573ffffffffffffffffffffffffffffffffffffffff169060200190929190505050610987565b005b8180156101e957600080fd5b50610252600480360360e081101561020057600080fd5b8101908080359060200190929190803590602001909291908035906020019092919080359060200190929190803590602001909291908035906020019092919080359060200190929190505050611142565b005b81801561026057600080fd5b506102bb600480360360a081101561027757600080fd5b81019080803590602001909291908035906020019092919080359060200190929190803560ff169060200190929190803560ff16906020019092919050505061118a565b005b8180156102c957600080fd5b50610320600480360360608110156102e057600080fd5b810190808035906020019092919080359060200190929190803573ffffffffffffffffffffffffffffffffffffffff169060200190929190505050611534565b005b81801561032e57600080fd5b5061036f6004803603606081101561034557600080fd5b810190808035906020019092919080359060200190929190803590602001909291905050506117e2565b005b81801561037d57600080fd5b506103d46004803603606081101561039457600080fd5b810190808035906020019092919080359060200190929190803573ffffffffffffffffffffffffffffffffffffffff1690602001909291905050506118f0565b604051808273ffffffffffffffffffffffffffffffffffffffff1673ffffffffffffffffffffffffffffffffffffffff16815260200191505060405180910390f35b81801561042257600080fd5b506104836004803603608081101561043957600080fd5b81019080803590602001909291908035906020019092919080359060200190929190803573ffffffffffffffffffffffffffffffffffffffff16906020019092919050505061206f565b005b81801561049157600080fd5b5061055c600480360360608110156104a857600080fd5b810190808035906020019092919080359060200190929190803590602001906401000000008111156104d957600080fd5b8201836020820111156104eb57600080fd5b8035906020019184602083028401116401000000008311171561050d57600080fd5b919080806020026020016040519081016040528093929190818152602001838360200280828437600081840152601f19601f8201169050808301925050505050505091929192905050506127aa565b005b60008190508073ffffffffffffffffffffffffffffffffffffffff1663a08c3cb58760090160008773ffffffffffffffffffffffffffffffffffffffff1673ffffffffffffffffffffffffffffffffffffffff16815260200190815260200160002060000160009054906101000a900473ffffffffffffffffffffffffffffffffffffffff168860090160008873ffffffffffffffffffffffffffffffffffffffff1673ffffffffffffffffffffffffffffffffffffffff168152602001908152602001600020600101548960090160008973ffffffffffffffffffffffffffffffffffffffff1673ffffffffffffffffffffffffffffffffffffffff16815260200190815260200160002060020160009054906101000a900460ff168a60090160008a73ffffffffffffffffffffffffffffffffffffffff1673ffffffffffffffffffffffffffffffffffffffff16815260200190815260200160002060020160019054906101000a900460ff166040518563ffffffff167c0100000000000000000000000000000000000000000000000000000000028152600401808573ffffffffffffffffffffffffffffffffffffffff1673ffffffffffffffffffffffffffffffffffffffff1681526020018481526020018360ff1660ff1681526020018260ff1660ff168152602001945050505050602060405180830381600087803b15801561076c57600080fd5b505af1158015610780573d6000803e3d6000fd5b505050506040513d602081101561079657600080fd5b810190808051906020019092919050505050600085600001541115610910578073ffffffffffffffffffffffffffffffffffffffff16630e9defff8273ffffffffffffffffffffffffffffffffffffffff16635549ea51866040518263ffffffff167c0100000000000000000000000000000000000000000000000000000000028152600401808273ffffffffffffffffffffffffffffffffffffffff1673ffffffffffffffffffffffffffffffffffffffff16815260200191505060206040518083038186803b15801561086a57600080fd5b505afa15801561087e573d6000803e3d6000fd5b505050506040513d602081101561089457600080fd5b81019080805190602001909291905050506040518263ffffffff167c010000000000000000000000000000000000000000000000000000000002815260040180828152602001915050600060405180830381600087803b1580156108f757600080fd5b505af115801561090b573d6000803e3d6000fd5b505050505b7f948c625cd6ce700d1633bddaf8c10cb74993a25f74007d58169d60ae6ff49e5a848660000154604051808373ffffffffffffffffffffffffffffffffffffffff1673ffffffffffffffffffffffffffffffffffffffff1681526020018281526020019250505060405180910390a1505050505050565b8360050160009054906101000a900460ff1615156109a457600080fd5b600083805490501115156109b757600080fd5b6000819050600185600001541115610bb75760008090505b8380549050811015610bb5578173ffffffffffffffffffffffffffffffffffffffff16630e9defff8373ffffffffffffffffffffffffffffffffffffffff16635549ea518785815481101515610a2157fe5b9060005260206000200160009054906101000a900473ffffffffffffffffffffffffffffffffffffffff166040518263ffffffff167c0100000000000000000000000000000000000000000000000000000000028152600401808273ffffffffffffffffffffffffffffffffffffffff1673ffffffffffffffffffffffffffffffffffffffff16815260200191505060206040518083038186803b158015610ac857600080fd5b505afa158015610adc573d6000803e3d6000fd5b505050506040513d6020811015610af257600080fd5b81019080805190602001909291905050506040518263ffffffff167c010000000000000000000000000000000000000000000000000000000002815260040180828152602001915050600060405180830381600087803b158015610b5557600080fd5b505af1158015610b69573d6000803e3d6000fd5b505050508381815481101515610b7b57fe5b9060005260206000200160006101000a81549073ffffffffffffffffffffffffffffffffffffffff021916905580806001019150506109cf565b505b60008090505b8480549050811015610f7d57610bd1612b5a565b8760090160008784815481101515610be557fe5b9060005260206000200160009054906101000a900473ffffffffffffffffffffffffffffffffffffffff1673ffffffffffffffffffffffffffffffffffffffff1673ffffffffffffffffffffffffffffffffffffffff16815260200190815260200160002060a060405190810160405290816000820160009054906101000a900473ffffffffffffffffffffffffffffffffffffffff1673ffffffffffffffffffffffffffffffffffffffff1673ffffffffffffffffffffffffffffffffffffffff168152602001600182015481526020016002820160009054906101000a900460ff1660ff1660ff1681526020016002820160019054906101000a900460ff1660ff1660ff16815260200160038201548152505090508273ffffffffffffffffffffffffffffffffffffffff1663a08c3cb582600001518360200151846040015185606001516040518563ffffffff167c0100000000000000000000000000000000000000000000000000000000028152600401808573ffffffffffffffffffffffffffffffffffffffff1673ffffffffffffffffffffffffffffffffffffffff1681526020018481526020018360ff1660ff1681526020018260ff1660ff168152602001945050505050602060405180830381600087803b158015610dcb57600080fd5b505af1158015610ddf573d6000803e3d6000fd5b505050506040513d6020811015610df557600080fd5b81019080805190602001909291905050505060018860070160008885815481101515610e1d57fe5b9060005260206000200160009054906101000a900473ffffffffffffffffffffffffffffffffffffffff1673ffffffffffffffffffffffffffffffffffffffff1673ffffffffffffffffffffffffffffffffffffffff168152602001908152602001600020600082825401925050819055508480549050821015610efb5780600001518583815481101515610eae57fe5b9060005260206000200160006101000a81548173ffffffffffffffffffffffffffffffffffffffff021916908373ffffffffffffffffffffffffffffffffffffffff160217905550610f65565b84816000015190806001815401808255809150509060018203906000526020600020016000909192909190916101000a81548173ffffffffffffffffffffffffffffffffffffffff021916908373ffffffffffffffffffffffffffffffffffffffff160217905550505b610f6d612b5a565b9050508080600101915050610bbd565b506000905060008090505b8560090180549050811015611082578660090160008760090183815481101515610fae57fe5b9060005260206000200160009054906101000a900473ffffffffffffffffffffffffffffffffffffffff1673ffffffffffffffffffffffffffffffffffffffff1673ffffffffffffffffffffffffffffffffffffffff168152602001908152602001600020600080820160006101000a81549073ffffffffffffffffffffffffffffffffffffffff021916905560018201600090556002820160006101000a81549060ff02191690556002820160016101000a81549060ff0219169055600382016000905550508080600101915050610f88565b507f8e19a9c6dd22955fe17cfd959879ea31cd6498d88fcb3ea8eb5482aceed2a1cb8486600001546040518080602001838152602001828103825284818154815260200191508054801561112b57602002820191906000526020600020905b8160009054906101000a900473ffffffffffffffffffffffffffffffffffffffff1673ffffffffffffffffffffffffffffffffffffffff16815260200190600101908083116110e1575b5050935050505060405180910390a1505050505050565b85876000018190555042876001018190555084876002018190555083876005018190555082876004018190555081876003018190555080876006018190555050505050505050565b8360050160009054906101000a900460ff161515156111a857600080fd5b4284600301541115156111ba57600080fd5b84600401548560070160003373ffffffffffffffffffffffffffffffffffffffff1673ffffffffffffffffffffffffffffffffffffffff1681526020019081526020016000205410151561120d57600080fd5b3373ffffffffffffffffffffffffffffffffffffffff168560090160003373ffffffffffffffffffffffffffffffffffffffff1673ffffffffffffffffffffffffffffffffffffffff16815260200190815260200160002060000160009054906101000a900473ffffffffffffffffffffffffffffffffffffffff1673ffffffffffffffffffffffffffffffffffffffff16141515156112ac57600080fd5b836009013390806001815401808255809150509060018203906000526020600020016000909192909190916101000a81548173ffffffffffffffffffffffffffffffffffffffff021916908373ffffffffffffffffffffffffffffffffffffffff16021790555050338560090160003373ffffffffffffffffffffffffffffffffffffffff1673ffffffffffffffffffffffffffffffffffffffff16815260200190815260200160002060000160006101000a81548173ffffffffffffffffffffffffffffffffffffffff021916908373ffffffffffffffffffffffffffffffffffffffff160217905550828560090160003373ffffffffffffffffffffffffffffffffffffffff1673ffffffffffffffffffffffffffffffffffffffff16815260200190815260200160002060010181905550818560090160003373ffffffffffffffffffffffffffffffffffffffff1673ffffffffffffffffffffffffffffffffffffffff16815260200190815260200160002060020160006101000a81548160ff021916908360ff160217905550808560090160003373ffffffffffffffffffffffffffffffffffffffff1673ffffffffffffffffffffffffffffffffffffffff16815260200190815260200160002060020160016101000a81548160ff021916908360ff1602179055507fc55281888bae65346ed0cc9cf96827c46efc2e53fddf9bda71dcef252244072d846000015433858585604051808681526020018573ffffffffffffffffffffffffffffffffffffffff1673ffffffffffffffffffffffffffffffffffffffff1681526020018481526020018360ff1660ff1681526020018260ff1660ff1681526020019550505050505060405180910390a15050505050565b81600001548360080160003373ffffffffffffffffffffffffffffffffffffffff1673ffffffffffffffffffffffffffffffffffffffff168152602001908152602001600020541115151561158857600080fd5b8160050160009054906101000a900460ff161515156115a657600080fd5b4282600301541015156115b857600080fd5b4282600401541115156115ca57600080fd5b600073ffffffffffffffffffffffffffffffffffffffff168360090160008373ffffffffffffffffffffffffffffffffffffffff1673ffffffffffffffffffffffffffffffffffffffff16815260200190815260200160002060000160009054906101000a900473ffffffffffffffffffffffffffffffffffffffff1673ffffffffffffffffffffffffffffffffffffffff161415156116bc5760018360090160008373ffffffffffffffffffffffffffffffffffffffff1673ffffffffffffffffffffffffffffffffffffffff16815260200190815260200160002060030160008282540192505081905550611710565b60018360090160008073ffffffffffffffffffffffffffffffffffffffff1673ffffffffffffffffffffffffffffffffffffffff168152602001908152602001600020600301600082825401925050819055505b60018260000154018360080160003373ffffffffffffffffffffffffffffffffffffffff1673ffffffffffffffffffffffffffffffffffffffff1681526020019081526020016000205050600182600601600082825401925050819055507f64bbf4ffdc825afb14eb0f410f1141b85c43dfa5ee8ae25eb7cdf85ec997cd8f338360000154604051808373ffffffffffffffffffffffffffffffffffffffff1673ffffffffffffffffffffffffffffffffffffffff1681526020018281526020019250505060405180910390a1505050565b8260010154421115156117f457600080fd5b6000826002015414151561180757600080fd5b8082600101819055504282600201819055508260030154420182600301819055508260020154836003015442010182600401819055508260000154420183600101819055507fdf29f0802d7b2d0119e9e2dd4de58efef192c081c556020edeeb7d67e65385103383600101548460020154856003015486600401548760000154604051808773ffffffffffffffffffffffffffffffffffffffff1673ffffffffffffffffffffffffffffffffffffffff168152602001868152602001858152602001848152602001838152602001828152602001965050505050505060405180910390a1505050565b60008260050160009054906101000a900460ff1615151561191057600080fd5b42836004015410151561192257600080fd5b600083600401541415151561193657600080fd5b600083600901805490501480611950575060008360060154145b156119c25760018360050160006101000a81548160ff0219169083151502179055507fa8732f0c4ed3f6080039688c4872a71e44d577c90db8d4ebb0de4d4434c43b1e83600001546040518082815260200191505060405180910390a160014203846001018190555060009050612068565b8360000154836002015401421115611a35577fa8732f0c4ed3f6080039688c4872a71e44d577c90db8d4ebb0de4d4434c43b1e83600001546040518082815260200191505060405180910390a160018360050160006101000a81548160ff02191690831515021790555060009050612068565b600080905060008090506000809050600085905060008173ffffffffffffffffffffffffffffffffffffffff1663bbea06196040518163ffffffff167c0100000000000000000000000000000000000000000000000000000000028152600401604080518083038186803b158015611aac57600080fd5b505afa158015611ac0573d6000803e3d6000fd5b505050506040513d6040811015611ad657600080fd5b810190808051906020019092919080519060200190929190505050915050808960050154026064896006015402101515611b0f57600192505b6000915060008090505b8860090180549050811015611f3f5760008960090182815481101515611b3b57fe5b9060005260206000200160009054906101000a900473ffffffffffffffffffffffffffffffffffffffff1690507fc7e3fa7c6e3531499b61859188d98e32d943d19ed648a9f4c4d93f600dd771f2818c60090160008473ffffffffffffffffffffffffffffffffffffffff1673ffffffffffffffffffffffffffffffffffffffff16815260200190815260200160002060030154604051808373ffffffffffffffffffffffffffffffffffffffff1673ffffffffffffffffffffffffffffffffffffffff1681526020018281526020019250505060405180910390a1868b60090160008373ffffffffffffffffffffffffffffffffffffffff1673ffffffffffffffffffffffffffffffffffffffff168152602001908152602001600020600301541115611d94578a60090160008273ffffffffffffffffffffffffffffffffffffffff1673ffffffffffffffffffffffffffffffffffffffff1681526020019081526020016000206003015496508a60090160008973ffffffffffffffffffffffffffffffffffffffff1673ffffffffffffffffffffffffffffffffffffffff168152602001908152602001600020600080820160006101000a81549073ffffffffffffffffffffffffffffffffffffffff021916905560018201600090556002820160006101000a81549060ff02191690556002820160016101000a81549060ff0219169055600382016000905550508960090182815481101515611d5e57fe5b9060005260206000200160009054906101000a900473ffffffffffffffffffffffffffffffffffffffff16975060009550611f31565b868b60090160008373ffffffffffffffffffffffffffffffffffffffff1673ffffffffffffffffffffffffffffffffffffffff168152602001908152602001600020600301541415611e8c57600195508a60090160008273ffffffffffffffffffffffffffffffffffffffff1673ffffffffffffffffffffffffffffffffffffffff168152602001908152602001600020600080820160006101000a81549073ffffffffffffffffffffffffffffffffffffffff021916905560018201600090556002820160006101000a81549060ff02191690556002820160016101000a81549060ff021916905560038201600090555050611f30565b8a60090160008273ffffffffffffffffffffffffffffffffffffffff1673ffffffffffffffffffffffffffffffffffffffff168152602001908152602001600020600080820160006101000a81549073ffffffffffffffffffffffffffffffffffffffff021916905560018201600090556002820160006101000a81549060ff02191690556002820160016101000a81549060ff0219169055600382016000905550505b5b508080600101915050611b19565b5060018860050160006101000a81548160ff02191690831515021790555083158015611f685750825b15611fed577f673dce346b2ee7fe6e46de2a203178680d552287205aa648faddc28d8bed26028860000154878a60060154604051808481526020018373ffffffffffffffffffffffffffffffffffffffff1673ffffffffffffffffffffffffffffffffffffffff168152602001828152602001935050505060405180910390a161205f565b7fa8732f0c4ed3f6080039688c4872a71e44d577c90db8d4ebb0de4d4434c43b1e88600001546040518082815260200191505060405180910390a160014203896001018190555060018860050160006101000a81548160ff021916908315150217905550600095505050505050612068565b85955050505050505b9392505050565b8260050160009054906101000a900460ff1615151561208d57600080fd5b42836004015410151561209f57600080fd5b60008360040154141515156120b357600080fd5b6000836009018054905014806120cd575060008360060154145b1561213b5760014203846001018190555060018360050160006101000a81548160ff0219169083151502179055507fa8732f0c4ed3f6080039688c4872a71e44d577c90db8d4ebb0de4d4434c43b1e83600001546040518082815260200191505060405180910390a16127a4565b83600001548360020154014211156121b65760014203846001018190555060018360050160006101000a81548160ff0219169083151502179055507fa8732f0c4ed3f6080039688c4872a71e44d577c90db8d4ebb0de4d4434c43b1e83600001546040518082815260200191505060405180910390a16127a4565b600081905060008173ffffffffffffffffffffffffffffffffffffffff1663bbea06196040518163ffffffff167c0100000000000000000000000000000000000000000000000000000000028152600401604080518083038186803b15801561221e57600080fd5b505afa158015612232573d6000803e3d6000fd5b505050506040513d604081101561224857600080fd5b81019080805190602001909291908051906020019092919050505091505080866005015402606486600701540210156122e65760014203866001018190555060018560050160006101000a81548160ff0219169083151502179055507fa8732f0c4ed3f6080039688c4872a71e44d577c90db8d4ebb0de4d4434c43b1e85600001546040518082815260200191505060405180910390a150506127a4565b6000915084600801548560090180549050101561230e57846009018054905085600801819055505b60007fffffffffffffffffffffffffffffffffffffffffffffffffffffffffffffffff905060008090506000809050600080905060008090505b896008015481101561273857600093506000915060008090505b8a600901805490508110156125055760008b6009018281548110151561238457fe5b9060005260206000200160009054906101000a900473ffffffffffffffffffffffffffffffffffffffff169050868d60090160008373ffffffffffffffffffffffffffffffffffffffff1673ffffffffffffffffffffffffffffffffffffffff16815260200190815260200160002060030154101515612403576124f7565b858d60090160008373ffffffffffffffffffffffffffffffffffffffff1673ffffffffffffffffffffffffffffffffffffffff1681526020019081526020016000206003015411156124a2578c60090160008273ffffffffffffffffffffffffffffffffffffffff1673ffffffffffffffffffffffffffffffffffffffff168152602001908152602001600020600301549550819350600094506124f6565b858d60090160008373ffffffffffffffffffffffffffffffffffffffff1673ffffffffffffffffffffffffffffffffffffffff1681526020019081526020016000206003015414156124f5576001850194505b5b5b508080600101915050612362565b50600084141561251457612728565b60008311156126865760008090505b8a60090180549050811015612680578a600801548210151561254457612673565b848c60090160008d6009018481548110151561255c57fe5b9060005260206000200160009054906101000a900473ffffffffffffffffffffffffffffffffffffffff1673ffffffffffffffffffffffffffffffffffffffff1673ffffffffffffffffffffffffffffffffffffffff16815260200190815260200160002060030154141561267257898b600901828154811015156125dd57fe5b9060005260206000200160009054906101000a900473ffffffffffffffffffffffffffffffffffffffff1690806001815401808255809150509060018203906000526020600020016000909192909190916101000a81548173ffffffffffffffffffffffffffffffffffffffff021916908373ffffffffffffffffffffffffffffffffffffffff160217905550506001820191505b5b8080600101915050612523565b50612727565b888a6009018381548110151561269857fe5b9060005260206000200160009054906101000a900473ffffffffffffffffffffffffffffffffffffffff1690806001815401808255809150509060018203906000526020600020016000909192909190916101000a81548173ffffffffffffffffffffffffffffffffffffffff021916908373ffffffffffffffffffffffffffffffffffffffff160217905550505b5b8394508080600101915050612348565b5060018960050160006101000a81548160ff0219169083151502179055507f6255635dcc3194c3820655411ee1447711bcce59a84c5c5fee024232a88e1d5189600001548a60060154604051808381526020018281526020019250505060405180910390a15050505050505b50505050565b81600001548360080160003373ffffffffffffffffffffffffffffffffffffffff1673ffffffffffffffffffffffffffffffffffffffff16815260200190815260200160002054111515156127fe57600080fd5b8160050160009054906101000a900460ff16151561281b57600080fd5b42826003015410151561282d57600080fd5b42826004015411151561283f57600080fd5b6001826008015401815110151561285557600080fd5b6000815111151561286557600080fd5b60008090505b8151811015612a875760008111156128e957818181518110151561288b57fe5b9060200190602002015173ffffffffffffffffffffffffffffffffffffffff1682600183038151811015156128bc57fe5b9060200190602002015173ffffffffffffffffffffffffffffffffffffffff161015156128e857600080fd5b5b600073ffffffffffffffffffffffffffffffffffffffff16846009016000848481518110151561291557fe5b9060200190602002015173ffffffffffffffffffffffffffffffffffffffff1673ffffffffffffffffffffffffffffffffffffffff16815260200190815260200160002060000160009054906101000a900473ffffffffffffffffffffffffffffffffffffffff1673ffffffffffffffffffffffffffffffffffffffff16141515612a26578083600801540384600901600084848151811015156129b557fe5b9060200190602002015173ffffffffffffffffffffffffffffffffffffffff1673ffffffffffffffffffffffffffffffffffffffff16815260200190815260200160002060030160008282540192505081905550808360080154038360060160008282540192505081905550612a7a565b60018460090160008073ffffffffffffffffffffffffffffffffffffffff1673ffffffffffffffffffffffffffffffffffffffff168152602001908152602001600020600301600082825401925050819055505b808060010191505061286b565b5060018260000154018360080160003373ffffffffffffffffffffffffffffffffffffffff1673ffffffffffffffffffffffffffffffffffffffff1681526020019081526020016000205050600182600701600082825401925050819055507f64bbf4ffdc825afb14eb0f410f1141b85c43dfa5ee8ae25eb7cdf85ec997cd8f338360000154604051808373ffffffffffffffffffffffffffffffffffffffff1673ffffffffffffffffffffffffffffffffffffffff1681526020018281526020019250505060405180910390a1505050565b60a060405190810160405280600073ffffffffffffffffffffffffffffffffffffffff16815260200160008019168152602001600060ff168152602001600060ff16815260200160008152509056fea165627a7a72305820a37cbe9582394c2e2b688a9fd227a23c58c695d894009a0b48f05e1d725b86b20029",
  "source": "pragma solidity >=0.4.22 <0.6.0;\r\n\r\nimport \"../Organ.sol\";\r\n\r\n/**\r\n\r\nKelsen Framework\r\nProcedure library\r\nThis library is used to hold the logic common to all procedures\r\n\r\n**/\r\nlibrary cyclicalVotingLibrary {\r\n  \r\n    struct RecurringElectionInfo \r\n    {\r\n        uint ballotFrequency;\r\n        // When will the next election take place\r\n        uint nextElectionDate;\r\n        // Time to vote\r\n        uint ballotDuration;\r\n        // Time to declare as a candidate\r\n        uint candidacyDuration;\r\n        // Maximum time someone can be candidate\r\n        uint reelectionMaximum;\r\n        // Minimum participation to validate election\r\n        uint quorumSize;\r\n        // Number of candidate per voter. Not used for many to one election\r\n        uint voterToCandidateRatio;\r\n        // A mapping of candidacy status and number of candidacies per member\r\n        mapping(address => uint) cumulatedMandates;\r\n\r\n        // // Is blank vote accepted\r\n        // bool neutralVoteAccepted;\r\n        \r\n        mapping(address => uint) nextElectionUserCanVoteIn;\r\n\r\n        // Tracking last candidacies\r\n        mapping(address => Candidacy) candidacies;\r\n    }\r\n\r\n    // Candidacies structure, to keep track of candidacies for an election\r\n    struct Candidacy \r\n    {\r\n        address payable candidateAddress;\r\n        bytes32 ipfsHash; // ID of proposal on IPFS\r\n        uint8 hash_function;\r\n        uint8 size;\r\n        uint voteNumber;\r\n    }\r\n\r\n    struct ElectionBallot \r\n    {\r\n        uint ballotNumber;\r\n        bytes32 name;   // short name (up to 32 bytes)\r\n        uint startDate;\r\n        uint candidacyEndDate;\r\n        uint electionEndDate;\r\n        bool wasEnded;\r\n        uint totalVoteCount;\r\n        uint totalVoters;\r\n        uint electedOfficialSlotNumber;\r\n        address[] candidateList;\r\n    }\r\n\r\n    // Events\r\n    event ballotCreationEvent(address _from, bytes32 _name, uint _startDate, uint _candidacyEndDate, uint _endDate, uint _ballotNumber);\r\n    event presentCandidacyEvent(uint _ballotNumber, address _candidateAddress, bytes32 _ipfsHash, uint8 _hash_function, uint8 _size);\r\n    event votedOnElectionEvent(address _from, uint _ballotNumber);\r\n    event ballotWasCounted(uint _ballotNumber, address _winningCandidate, uint _totalVoteCount);\r\n    event ballotResultException(uint _ballotNumber);\r\n    event ballotWasEnforced(address _winningCandidate, uint _ballotNumber);\r\n    event candidateVotesWereCounted(address _countedCandidate, uint _ballotNumber);\r\n    event m2mBallotWasCounted(uint _ballotNumber, uint _totalVoteCount);\r\n    event m2mBallotWasEnforced(address[] _winningCandidates, uint _ballotNumber);\r\n\r\n    function initElectionParameters(RecurringElectionInfo storage self, uint _ballotFrequency, uint _ballotDuration, uint _quorumSize, uint _reelectionMaximum, uint _candidacyDuration, uint _voterToCandidateRatio)\r\n    public\r\n    {\r\n        self.ballotFrequency = _ballotFrequency;\r\n        self.nextElectionDate = now;\r\n        self.ballotDuration = _ballotDuration;\r\n        self.quorumSize = _quorumSize;\r\n        self.reelectionMaximum = _reelectionMaximum;\r\n        self.candidacyDuration = _candidacyDuration;\r\n        self.voterToCandidateRatio = _voterToCandidateRatio;\r\n    }\r\n\r\n    function createRecurrentBallot(RecurringElectionInfo storage self, ElectionBallot storage ballot, bytes32 _ballotName) \r\n    public \r\n    {\r\n        // Checking that election date has passed\r\n        require (now > self.nextElectionDate);\r\n        // Checking if previous ballot was counted\r\n        require(ballot.startDate == 0);\r\n    \r\n        ballot.name = _ballotName;\r\n        ballot.startDate = now;\r\n        ballot.candidacyEndDate = now + self.candidacyDuration;\r\n        ballot.electionEndDate = now + self.candidacyDuration+self.ballotDuration;\r\n\r\n        self.nextElectionDate = now + self.ballotFrequency;\r\n\r\n        // Ballot creation event\r\n        emit ballotCreationEvent(msg.sender, ballot.name, ballot.startDate, ballot.candidacyEndDate, ballot.electionEndDate, ballot.ballotNumber);\r\n   }\r\n\r\n    function presentCandidacyLib(RecurringElectionInfo storage self, ElectionBallot storage ballot, bytes32 _ipfsHash, uint8 _hash_function, uint8 _size) \r\n    public \r\n    {\r\n        // Check that the ballot is still active\r\n        require(!ballot.wasEnded);\r\n\r\n        // Check that the ballot candidacy period is still open\r\n        require(ballot.candidacyEndDate > now);\r\n\r\n        // Check that sender is not over the mandate limit\r\n        require(self.cumulatedMandates[msg.sender] < self.reelectionMaximum);\r\n\r\n        // Check if the candidate is already candidate\r\n        require(self.candidacies[msg.sender].candidateAddress != msg.sender);\r\n\r\n        ballot.candidateList.push(msg.sender);\r\n\r\n        self.candidacies[msg.sender].candidateAddress = msg.sender;\r\n\r\n        self.candidacies[msg.sender].ipfsHash = _ipfsHash;\r\n        self.candidacies[msg.sender].hash_function = _hash_function;\r\n        self.candidacies[msg.sender].size = _size;\r\n         // Candidacy event is turned off for now\r\n        emit presentCandidacyEvent(ballot.ballotNumber, msg.sender, _ipfsHash, _hash_function, _size);\r\n    }\r\n\r\n    function voteManyToOne(RecurringElectionInfo storage self, ElectionBallot storage ballot, address payable _candidateAddress) \r\n    public \r\n    {        \r\n        // Check if voter already votred\r\n        require(self.nextElectionUserCanVoteIn[msg.sender] <= ballot.ballotNumber);\r\n\r\n        // Check if vote is still active\r\n        require(!ballot.wasEnded);\r\n\r\n        // Check if candidacy period is over\r\n        require(ballot.candidacyEndDate < now);\r\n\r\n        // Check if voting period ended\r\n        require(ballot.electionEndDate > now);\r\n\r\n        // Check if candidate for whom we voted for is declared\r\n        if(self.candidacies[_candidateAddress].candidateAddress != address(0))\r\n        {self.candidacies[_candidateAddress].voteNumber += 1;}\r\n        else\r\n            // If candidate does not exist, this is a neutral vote\r\n        {self.candidacies[address(0)].voteNumber += 1;}\r\n\r\n        self.nextElectionUserCanVoteIn[msg.sender] == ballot.ballotNumber + 1;\r\n        \r\n        ballot.totalVoteCount += 1;\r\n\r\n        // Event\r\n        emit votedOnElectionEvent(msg.sender, ballot.ballotNumber);\r\n    }\r\n\r\n    function countManyToOne(RecurringElectionInfo storage self, ElectionBallot storage ballot, address payable _votersOrganAddress) \r\n    public \r\n    returns (address nextPresidentAddress)\r\n    {\r\n        // We check if the vote was already closed\r\n        require(!ballot.wasEnded);\r\n\r\n        // Checking that the vote can be closed\r\n        require(ballot.electionEndDate < now);\r\n\r\n        // Checking the ballot has been initialised\r\n        require(ballot.electionEndDate != 0);\r\n\r\n        // Checking that there was enough participation\r\n        if ((ballot.candidateList.length == 0) || ballot.totalVoteCount == 0)\r\n        {\r\n            ballot.wasEnded = true;\r\n            emit ballotResultException(ballot.ballotNumber);\r\n            self.nextElectionDate = now -1;\r\n            return address(0);\r\n        }\r\n\r\n        // Checking if the election is still valid\r\n        if (now > ballot.startDate + self.ballotFrequency)\r\n        {\r\n            emit ballotResultException(ballot.ballotNumber);\r\n            ballot.wasEnded = true;  \r\n            return address(0);                \r\n        }\r\n\r\n\r\n\r\n\r\n        // ############## Going through candidates to check the vote count\r\n        uint winningVoteCount = 0;\r\n        bool isADraw = false;\r\n        bool quorumIsObtained = false;\r\n\r\n        Organ voterRegistryOrgan = Organ(_votersOrganAddress);\r\n\r\n        // Check if quorum is obtained. We avoiding divisions here, since Solidity is not good to calculate divisions\r\n        ( ,uint voterNumber) = voterRegistryOrgan.organInfos();\r\n        if (ballot.totalVoteCount*100 >= self.quorumSize*voterNumber)\r\n        {\r\n            quorumIsObtained = true;\r\n        }\r\n\r\n        delete voterRegistryOrgan;\r\n\r\n        // Going through candidates list\r\n        for (uint p = 0; p < ballot.candidateList.length; p++) \r\n        {\r\n            address _candidateAddress = ballot.candidateList[p];\r\n\r\n            // Logging how many votes this candidate received\r\n           emit candidateVotesWereCounted(_candidateAddress, self.candidacies[_candidateAddress].voteNumber);\r\n\r\n            if (self.candidacies[_candidateAddress].voteNumber > winningVoteCount) \r\n            {\r\n                winningVoteCount = self.candidacies[_candidateAddress].voteNumber ;\r\n                delete self.candidacies[nextPresidentAddress];\r\n                nextPresidentAddress = ballot.candidateList[p];\r\n                isADraw = false;\r\n            }\r\n\r\n            else if (self.candidacies[_candidateAddress].voteNumber == winningVoteCount)\r\n            {\r\n                isADraw = true;\r\n                // Cleaning candidate info from mapping\r\n                delete self.candidacies[_candidateAddress];\r\n            }\r\n\r\n            else\r\n            {   // Cleaning candidate info from mapping\r\n                delete self.candidacies[_candidateAddress];\r\n            }\r\n            \r\n            \r\n        }\r\n\r\n        // ############## Updating ballot values if vote concluded\r\n        ballot.wasEnded = true;\r\n\r\n        if (!isADraw && quorumIsObtained)\r\n            // The ballot completed succesfully\r\n        {\r\n            emit ballotWasCounted(ballot.ballotNumber, nextPresidentAddress, ballot.totalVoteCount);\r\n        }\r\n\r\n        else // The ballot did not conclude correctly.\r\n        {\r\n            emit ballotResultException(ballot.ballotNumber);\r\n            self.nextElectionDate = now -1;\r\n            ballot.wasEnded = true;\r\n            return address(0);\r\n        }\r\n\r\n        return nextPresidentAddress;   \r\n    }\r\n\r\n    function givePowerToNewPresident(RecurringElectionInfo storage self, ElectionBallot storage ballot, address _newPresident, address _currentPresident, address payable _presidentialOrganAddress)\r\n    public\r\n    {\r\n        Organ presidentialOrgan = Organ(_presidentialOrganAddress);\r\n        presidentialOrgan.addNorm(self.candidacies[_newPresident].candidateAddress, self.candidacies[_newPresident].ipfsHash, self.candidacies[_newPresident].hash_function, self.candidacies[_newPresident].size);\r\n        if (ballot.ballotNumber > 0)\r\n        {\r\n            presidentialOrgan.remNorm(presidentialOrgan.getAddressPositionInNorm(_currentPresident));\r\n        }\r\n        \r\n        emit ballotWasEnforced(_newPresident, ballot.ballotNumber);\r\n    }\r\n\r\n    function voteManyToMany(RecurringElectionInfo storage self, ElectionBallot storage ballot, address[] memory _candidateAddresses) \r\n    public \r\n    {\r\n        // Check if voter already voted\r\n        require(self.nextElectionUserCanVoteIn[msg.sender] <= ballot.ballotNumber);\r\n\r\n        // Check if vote is still active\r\n        require(ballot.wasEnded);\r\n\r\n        // Check if candidacy period is over\r\n        require(ballot.candidacyEndDate < now);\r\n\r\n        // Check if voting period ended\r\n        require(ballot.electionEndDate > now);\r\n\r\n        // Checking that the voter has not selected too much candidates\r\n        require(_candidateAddresses.length < ballot.electedOfficialSlotNumber + 1);\r\n        \r\n        // Checking that the voter selected at least one candidate\r\n        require(_candidateAddresses.length > 0);\r\n\r\n        // Going through the list of selected candidates\r\n        for (uint i = 0; i < _candidateAddresses.length; i++)\r\n        {\r\n            if (i > 0)\r\n            {\r\n               require(_candidateAddresses[i-1] < _candidateAddresses[i]); \r\n            }\r\n\r\n            if(self.candidacies[_candidateAddresses[i]].candidateAddress != address(0))\r\n            {\r\n                self.candidacies[_candidateAddresses[i]].voteNumber += ballot.electedOfficialSlotNumber-i;\r\n                ballot.totalVoteCount += ballot.electedOfficialSlotNumber-i;\r\n            }\r\n\r\n            else    // If candidate does not exist, this is a neutral vote\r\n            {\r\n                self.candidacies[address(0)].voteNumber += 1;\r\n            }\r\n        }\r\n        self.nextElectionUserCanVoteIn[msg.sender] == ballot.ballotNumber + 1;\r\n\r\n        ballot.totalVoters += 1;\r\n\r\n        // Log event\r\n        emit votedOnElectionEvent(msg.sender, ballot.ballotNumber);\r\n    }\r\n\r\n    function countManyToMany(RecurringElectionInfo storage self, ElectionBallot storage ballot, address[] storage nextModerators, address payable _votersOrganAddress) \r\n    public \r\n    {\r\n        // We check if the vote was already closed\r\n        require(!ballot.wasEnded);\r\n\r\n        // Checking that the vote can be closed\r\n        require(ballot.electionEndDate < now);\r\n\r\n        // Checking the ballot has been initialised\r\n        require(ballot.electionEndDate != 0);\r\n\r\n        // Checking that the vote can be closed\r\n        if ((ballot.candidateList.length == 0) || ballot.totalVoteCount == 0)\r\n        {\r\n            self.nextElectionDate = now -1;\r\n            ballot.wasEnded = true;\r\n            emit ballotResultException(ballot.ballotNumber);\r\n            return;\r\n        }\r\n\r\n        // Checking that the enforcing date is not later than the end of his supposed mandate\r\n        if (now > ballot.startDate + self.ballotFrequency)\r\n        {\r\n            self.nextElectionDate = now -1;\r\n            ballot.wasEnded = true;\r\n            emit ballotResultException(ballot.ballotNumber);\r\n            return;\r\n        }\r\n\r\n        Organ voterRegistryOrgan = Organ(_votersOrganAddress);\r\n        // Check if quorum is obtained. We are avoiding divisions here, since Solidity is not good to calculate divisions\r\n        ( ,uint voterNumber) = voterRegistryOrgan.organInfos();\r\n        if (ballot.totalVoters*100 < self.quorumSize*voterNumber)\r\n        {\r\n            // Quorum was not obtained. Rebooting election\r\n            //ballots[_ballotNumber].wasEnforced = true;\r\n            self.nextElectionDate = now -1;\r\n            ballot.wasEnded = true;\r\n\r\n            // Log event\r\n            emit ballotResultException(ballot.ballotNumber);\r\n            // Rebooting election\r\n            //createBallot(ballots[_ballotNumber].name);\r\n            return;\r\n        }\r\n        delete voterRegistryOrgan;\r\n\r\n        // Checking that there are enough candidates\r\n        if (ballot.candidateList.length < ballot.electedOfficialSlotNumber)\r\n        {\r\n            ballot.electedOfficialSlotNumber = ballot.candidateList.length;\r\n        } \r\n\r\n        // ############## Going through candidates to check the vote count\r\n        uint previousThresholdCount = uint(0xFFFFFFFFFFFFFFFFFFFFFFFFFFFFFFFFFFFFFFFFFFFFFFFFFFFFFFFFFFFFFFFF);\r\n        uint winningVoteCount = 0;\r\n        uint isADraw = 0;\r\n        uint roundWinningCandidate = 0;\r\n\r\n        // Going through candidate lists to check all elected moderators\r\n        for (uint i = 0; i < ballot.electedOfficialSlotNumber; i++)\r\n        {\r\n            winningVoteCount = 0;\r\n            roundWinningCandidate = 0;\r\n            // Going through candidate list once to find best suitor\r\n            for (uint p = 0; p < ballot.candidateList.length; p++)\r\n            {\r\n                address _candidateAddress = ballot.candidateList[p];\r\n                if (self.candidacies[_candidateAddress].voteNumber >= previousThresholdCount)\r\n                {}\r\n                else if (self.candidacies[_candidateAddress].voteNumber > winningVoteCount) \r\n                {\r\n                    winningVoteCount = self.candidacies[_candidateAddress].voteNumber ;\r\n                    roundWinningCandidate = p;\r\n                    isADraw = 0;\r\n                }\r\n                else if (self.candidacies[_candidateAddress].voteNumber == winningVoteCount)\r\n                {\r\n                        isADraw += 1;\r\n                }\r\n\r\n            }\r\n\r\n            // Checking if various candidates tied\r\n            if (winningVoteCount == 0)\r\n            {}\r\n            else if (isADraw > 0)\r\n            {\r\n                // Going through list one more time to add all tied up candidates\r\n                for (uint q = 0; q < ballot.candidateList.length; q++)\r\n                {   \r\n                    // Making sure that winning candidate number is not too big\r\n                    if (i >= ballot.electedOfficialSlotNumber)\r\n                    {}\r\n                    // Detecting ties\r\n                    else if (self.candidacies[ballot.candidateList[q]].voteNumber == winningVoteCount)\r\n                        {\r\n                            nextModerators.push(ballot.candidateList[q]);\r\n                            i += 1;\r\n                        }\r\n                }\r\n            }\r\n            // Adding candidate to winning candidate list\r\n            else \r\n            {\r\n                nextModerators.push(ballot.candidateList[roundWinningCandidate]);\r\n            }\r\n\r\n            previousThresholdCount = winningVoteCount;\r\n        }\r\n\r\n        // ############## Updating ballot values if vote concluded\r\n        ballot.wasEnded = true;\r\n        // Log event\r\n        emit m2mBallotWasCounted(ballot.ballotNumber, ballot.totalVoteCount );\r\n    }\r\n\r\n    function enforceManyToMany(RecurringElectionInfo storage self, ElectionBallot storage ballot, address[] storage nextModerators, address[] storage currentModerators, address payable _moderatorsOrganAddress) \r\n    public \r\n    {\r\n        // Checking the ballot was closed\r\n        require(ballot.wasEnded);\r\n        \r\n        // Checking there are new moderators to add\r\n        require(nextModerators.length > 0);\r\n\r\n        // We initiate the Organ interface to add a moderator norm\r\n        Organ moderatorsOrgan = Organ(_moderatorsOrganAddress);\r\n\r\n        // Removing current moderators, if this is not a first election\r\n        if (ballot.ballotNumber > 1)\r\n            {\r\n            for (uint i = 0; i < currentModerators.length; i++)\r\n                {\r\n                    moderatorsOrgan.remNorm(moderatorsOrgan.getAddressPositionInNorm(currentModerators[i]));\r\n                    delete currentModerators[i];\r\n                }\r\n            }\r\n\r\n        // Adding new moderators\r\n        for (uint p = 0; p < nextModerators.length; p++)\r\n            {\r\n                Candidacy memory newModerator = self.candidacies[nextModerators[p]];\r\n                moderatorsOrgan.addNorm(newModerator.candidateAddress, newModerator.ipfsHash, newModerator.hash_function, newModerator.size  );\r\n                self.cumulatedMandates[nextModerators[p]] += 1;\r\n                if (p < currentModerators.length )\r\n                {\r\n                    currentModerators[p] = newModerator.candidateAddress;\r\n                }\r\n                else\r\n                {\r\n                    currentModerators.push(newModerator.candidateAddress);\r\n                }\r\n                delete newModerator;\r\n            }\r\n\r\n        delete moderatorsOrgan;\r\n\r\n        // Cleaning candidate lists and candidatures \r\n        for (uint k = 0; k < ballot.candidateList.length; k++)\r\n        {\r\n            delete self.candidacies[ballot.candidateList[k]];\r\n        }\r\n\r\n        // Logging event\r\n        emit m2mBallotWasEnforced(nextModerators, ballot.ballotNumber);\r\n    }\r\n}",
  "sourcePath": "C:\\Users\\hlieutaud\\Documents\\Workshop\\Solidity\\solidity-101\\contracts\\utils\\Kelsen\\solidity\\contracts\\libraries\\cyclicalVotingLibrary.sol",
  "compiler": {
    "name": "solc",
    "version": "0.5.4+commit.9549d8ff.Emscripten.clang"
  },
  "schemaVersion": "3.0.10",
  "updatedAt": "2019-10-01T09:07:07.337Z",
  "devdoc": {
    "methods": {}
  },
  "userdoc": {
    "methods": {},
    "notice": "Kelsen Framework\r Procedure library\r This library is used to hold the logic common to all procedures\r*"
  }
}