{
  "contractName": "cyclicalManyToOneElectionProcedure",
  "abi": [
    {
      "constant": true,
      "inputs": [],
      "name": "currentPresident",
      "outputs": [
        {
          "name": "",
          "type": "address"
        }
      ],
      "payable": false,
      "stateMutability": "view",
      "type": "function"
    },
    {
      "constant": true,
      "inputs": [],
      "name": "electionParameters",
      "outputs": [
        {
          "name": "ballotFrequency",
          "type": "uint256"
        },
        {
          "name": "nextElectionDate",
          "type": "uint256"
        },
        {
          "name": "ballotDuration",
          "type": "uint256"
        },
        {
          "name": "candidacyDuration",
          "type": "uint256"
        },
        {
          "name": "reelectionMaximum",
          "type": "uint256"
        },
        {
          "name": "quorumSize",
          "type": "uint256"
        },
        {
          "name": "voterToCandidateRatio",
          "type": "uint256"
        }
      ],
      "payable": false,
      "stateMutability": "view",
      "type": "function"
    },
    {
      "constant": true,
      "inputs": [],
      "name": "kelsenVersionNumber",
      "outputs": [
        {
          "name": "",
          "type": "int256"
        }
      ],
      "payable": false,
      "stateMutability": "view",
      "type": "function"
    },
    {
      "constant": true,
      "inputs": [],
      "name": "procedureInfo",
      "outputs": [
        {
          "name": "procedureTypeNumber",
          "type": "uint256"
        },
        {
          "name": "procedureName",
          "type": "bytes32"
        },
        {
          "name": "linkedOrgans",
          "type": "uint256"
        }
      ],
      "payable": false,
      "stateMutability": "view",
      "type": "function"
    },
    {
      "constant": true,
      "inputs": [],
      "name": "linkedOrgans",
      "outputs": [
        {
          "name": "firstOrganAddress",
          "type": "address"
        },
        {
          "name": "secondOrganAddress",
          "type": "address"
        }
      ],
      "payable": false,
      "stateMutability": "view",
      "type": "function"
    },
    {
      "constant": true,
      "inputs": [],
      "name": "isAnOrgan",
      "outputs": [
        {
          "name": "",
          "type": "bool"
        }
      ],
      "payable": false,
      "stateMutability": "view",
      "type": "function"
    },
    {
      "constant": true,
      "inputs": [],
      "name": "isAProcedure",
      "outputs": [
        {
          "name": "",
          "type": "bool"
        }
      ],
      "payable": false,
      "stateMutability": "view",
      "type": "function"
    },
    {
      "constant": true,
      "inputs": [],
      "name": "currentBallot",
      "outputs": [
        {
          "name": "ballotNumber",
          "type": "uint256"
        },
        {
          "name": "name",
          "type": "bytes32"
        },
        {
          "name": "startDate",
          "type": "uint256"
        },
        {
          "name": "candidacyEndDate",
          "type": "uint256"
        },
        {
          "name": "electionEndDate",
          "type": "uint256"
        },
        {
          "name": "wasEnded",
          "type": "bool"
        },
        {
          "name": "totalVoteCount",
          "type": "uint256"
        },
        {
          "name": "totalVoters",
          "type": "uint256"
        },
        {
          "name": "electedOfficialSlotNumber",
          "type": "uint256"
        }
      ],
      "payable": false,
      "stateMutability": "view",
      "type": "function"
    },
    {
      "inputs": [
        {
          "name": "_referenceOrganContract",
          "type": "address"
        },
        {
          "name": "_affectedOrganContract",
          "type": "address"
        },
        {
          "name": "_ballotFrequency",
          "type": "uint256"
        },
        {
          "name": "_ballotDuration",
          "type": "uint256"
        },
        {
          "name": "_quorumSize",
          "type": "uint256"
        },
        {
          "name": "_reelectionMaximum",
          "type": "uint256"
        },
        {
          "name": "_name",
          "type": "bytes32"
        }
      ],
      "payable": false,
      "stateMutability": "nonpayable",
      "type": "constructor"
    },
    {
      "constant": false,
      "inputs": [
        {
          "name": "_ballotName",
          "type": "bytes32"
        }
      ],
      "name": "createBallot",
      "outputs": [],
      "payable": false,
      "stateMutability": "nonpayable",
      "type": "function"
    },
    {
      "constant": false,
      "inputs": [
        {
          "name": "_ipfsHash",
          "type": "bytes32"
        },
        {
          "name": "_hash_function",
          "type": "uint8"
        },
        {
          "name": "_size",
          "type": "uint8"
        }
      ],
      "name": "presentCandidacy",
      "outputs": [],
      "payable": false,
      "stateMutability": "nonpayable",
      "type": "function"
    },
    {
      "constant": false,
      "inputs": [
        {
          "name": "_candidateAddress",
          "type": "address"
        }
      ],
      "name": "vote",
      "outputs": [],
      "payable": false,
      "stateMutability": "nonpayable",
      "type": "function"
    },
    {
      "constant": false,
      "inputs": [],
      "name": "endBallot",
      "outputs": [
        {
          "name": "electionWinner",
          "type": "address"
        }
      ],
      "payable": false,
      "stateMutability": "nonpayable",
      "type": "function"
    },
    {
      "constant": true,
      "inputs": [],
      "name": "getCandidateList",
      "outputs": [
        {
          "name": "_candidateList",
          "type": "address[]"
        }
      ],
      "payable": false,
      "stateMutability": "view",
      "type": "function"
    },
    {
      "constant": true,
      "inputs": [],
      "name": "nextElectionICanVoteIn",
      "outputs": [
        {
          "name": "lastElectionIParticipatedIn",
          "type": "uint256"
        }
      ],
      "payable": false,
      "stateMutability": "view",
      "type": "function"
    },
    {
      "constant": true,
      "inputs": [
        {
          "name": "_candidateAddress",
          "type": "address"
        }
      ],
      "name": "getCandidacyInfo",
      "outputs": [
        {
          "name": "_ipfsHash",
          "type": "bytes32"
        },
        {
          "name": "_hash_function",
          "type": "uint8"
        },
        {
          "name": "_size",
          "type": "uint8"
        }
      ],
      "payable": false,
      "stateMutability": "view",
      "type": "function"
    }
  ],
  "bytecode": "0x608060405260026000556000600560006101000a81548160ff0219169083151502179055506001600560016101000a81548160ff02191690831515021790555034801561004b57600080fd5b5060405160e080611412833981018060405260e081101561006b57600080fd5b8101908080519060200190929190805190602001909291908051906020019092919080519060200190929190805190602001909291908051906020019092919080519060200190929190505050600273__procedureLibrary______________________6356e77656909160018460026040518563ffffffff167c01000000000000000000000000000000000000000000000000000000000281526004018085815260200184815260200183815260200182815260200194505050505060006040518083038186803b15801561014057600080fd5b505af4158015610154573d6000803e3d6000fd5b50505050600673__procedureLibrary______________________636f53715a909189896040518463ffffffff167c0100000000000000000000000000000000000000000000000000000000028152600401808481526020018373ffffffffffffffffffffffffffffffffffffffff1673ffffffffffffffffffffffffffffffffffffffff1681526020018273ffffffffffffffffffffffffffffffffffffffff1673ffffffffffffffffffffffffffffffffffffffff168152602001935050505060006040518083038186803b15801561022e57600080fd5b505af4158015610242573d6000803e3d6000fd5b50505050600873__cyclicalVotingLibrary_________________63578ede039091878787878a60020260006040518863ffffffff167c01000000000000000000000000000000000000000000000000000000000281526004018088815260200187815260200186815260200185815260200184815260200183815260200182815260200197505050505050505060006040518083038186803b1580156102e857600080fd5b505af41580156102fc573d6000803e3d6000fd5b50505050505050505050506110fc806103166000396000f3fe6080604052600436106100db576000357c0100000000000000000000000000000000000000000000000000000000900463ffffffff1680632e95da2f146100e05780633a47cb601461015f57806347ae53e2146101b6578063584e2fa11461020d5780635dbe4d28146102625780636d9434511461028d5780636dd7d8ea146102c85780638db704cb146103195780639397942e146103445780639e3dd2591461037d578063a8bef97a14610407578063d36d2dd714610436578063e80b30a51461048b578063f80723a8146104ba578063fdbc400614610521575b600080fd5b3480156100ec57600080fd5b5061012f6004803603602081101561010357600080fd5b81019080803573ffffffffffffffffffffffffffffffffffffffff16906020019092919050505061058d565b604051808481526020018360ff1660ff1681526020018260ff1660ff168152602001935050505060405180910390f35b34801561016b57600080fd5b5061017461068b565b604051808273ffffffffffffffffffffffffffffffffffffffff1673ffffffffffffffffffffffffffffffffffffffff16815260200191505060405180910390f35b3480156101c257600080fd5b506101cb610b17565b604051808273ffffffffffffffffffffffffffffffffffffffff1673ffffffffffffffffffffffffffffffffffffffff16815260200191505060405180910390f35b34801561021957600080fd5b50610222610b3d565b6040518088815260200187815260200186815260200185815260200184815260200183815260200182815260200197505050505050505060405180910390f35b34801561026e57600080fd5b50610277610b6d565b6040518082815260200191505060405180910390f35b34801561029957600080fd5b506102c6600480360360208110156102b057600080fd5b8101908080359060200190929190505050610b73565b005b3480156102d457600080fd5b50610317600480360360208110156102eb57600080fd5b81019080803573ffffffffffffffffffffffffffffffffffffffff169060200190929190505050610c0d565b005b34801561032557600080fd5b5061032e610d01565b6040518082815260200191505060405180910390f35b34801561035057600080fd5b50610359610d4a565b60405180848152602001838152602001828152602001935050505060405180910390f35b34801561038957600080fd5b50610392610d62565b604051808373ffffffffffffffffffffffffffffffffffffffff1673ffffffffffffffffffffffffffffffffffffffff1681526020018273ffffffffffffffffffffffffffffffffffffffff1673ffffffffffffffffffffffffffffffffffffffff1681526020019250505060405180910390f35b34801561041357600080fd5b5061041c610db4565b604051808215151515815260200191505060405180910390f35b34801561044257600080fd5b506104896004803603606081101561045957600080fd5b8101908080359060200190929190803560ff169060200190929190803560ff169060200190929190505050610dc7565b005b34801561049757600080fd5b506104a0610ead565b604051808215151515815260200191505060405180910390f35b3480156104c657600080fd5b506104cf610ec0565b604051808a815260200189815260200188815260200187815260200186815260200185151515158152602001848152602001838152602001828152602001995050505050505050505060405180910390f35b34801561052d57600080fd5b50610536610f09565b6040518080602001828103825283818151815260200191508051906020019060200280838360005b8381101561057957808201518184015260208101905061055e565b505050509050019250505060405180910390f35b6000806000600860090160008573ffffffffffffffffffffffffffffffffffffffff1673ffffffffffffffffffffffffffffffffffffffff16815260200190815260200160002060010154600860090160008673ffffffffffffffffffffffffffffffffffffffff1673ffffffffffffffffffffffffffffffffffffffff16815260200190815260200160002060020160009054906101000a900460ff16600860090160008773ffffffffffffffffffffffffffffffffffffffff1673ffffffffffffffffffffffffffffffffffffffff16815260200190815260200160002060020160019054906101000a900460ff169250925092509193909250565b6000600873__cyclicalVotingLibrary_________________63e0e2f6bb90916013600660000160009054906101000a900473ffffffffffffffffffffffffffffffffffffffff166040518463ffffffff167c0100000000000000000000000000000000000000000000000000000000028152600401808481526020018381526020018273ffffffffffffffffffffffffffffffffffffffff1673ffffffffffffffffffffffffffffffffffffffff168152602001935050505060206040518083038186803b15801561075d57600080fd5b505af4158015610771573d6000803e3d6000fd5b505050506040513d602081101561078757600080fd5b81019080805190602001909291905050509050600073ffffffffffffffffffffffffffffffffffffffff168173ffffffffffffffffffffffffffffffffffffffff16141515610a90576001600860070160008373ffffffffffffffffffffffffffffffffffffffff1673ffffffffffffffffffffffffffffffffffffffff16815260200190815260200160002060008282540192505081905550601260009054906101000a900473ffffffffffffffffffffffffffffffffffffffff1673ffffffffffffffffffffffffffffffffffffffff168173ffffffffffffffffffffffffffffffffffffffff161415156109eb57600873__cyclicalVotingLibrary_________________633e9191589091601384601260009054906101000a900473ffffffffffffffffffffffffffffffffffffffff16600660010160009054906101000a900473ffffffffffffffffffffffffffffffffffffffff166040518663ffffffff167c0100000000000000000000000000000000000000000000000000000000028152600401808681526020018581526020018473ffffffffffffffffffffffffffffffffffffffff1673ffffffffffffffffffffffffffffffffffffffff1681526020018373ffffffffffffffffffffffffffffffffffffffff1673ffffffffffffffffffffffffffffffffffffffff1681526020018273ffffffffffffffffffffffffffffffffffffffff1673ffffffffffffffffffffffffffffffffffffffff1681526020019550505050505060006040518083038186803b1580156109d257600080fd5b505af41580156109e6573d6000803e3d6000fd5b505050505b600860090160008273ffffffffffffffffffffffffffffffffffffffff1673ffffffffffffffffffffffffffffffffffffffff168152602001908152602001600020600080820160006101000a81549073ffffffffffffffffffffffffffffffffffffffff021916905560018201600090556002820160006101000a81549060ff02191690556002820160016101000a81549060ff0219169055600382016000905550505b60006001601360000154019050601360008082016000905560018201600090556002820160009055600382016000905560048201600090556005820160006101000a81549060ff0219169055600682016000905560078201600090556008820160009055600982016000610b04919061108a565b5050806013600001819055508191505090565b601260009054906101000a900473ffffffffffffffffffffffffffffffffffffffff1681565b60088060000154908060010154908060020154908060030154908060040154908060050154908060060154905087565b60005481565b600873__cyclicalVotingLibrary_________________63bd292a4790916013846040518463ffffffff167c010000000000000000000000000000000000000000000000000000000002815260040180848152602001838152602001828152602001935050505060006040518083038186803b158015610bf257600080fd5b505af4158015610c06573d6000803e3d6000fd5b5050505050565b610c3b600660000160009054906101000a900473ffffffffffffffffffffffffffffffffffffffff16610f9a565b600873__cyclicalVotingLibrary_________________639689683090916013846040518463ffffffff167c0100000000000000000000000000000000000000000000000000000000028152600401808481526020018381526020018273ffffffffffffffffffffffffffffffffffffffff1673ffffffffffffffffffffffffffffffffffffffff168152602001935050505060006040518083038186803b158015610ce657600080fd5b505af4158015610cfa573d6000803e3d6000fd5b5050505050565b60006008800160003373ffffffffffffffffffffffffffffffffffffffff1673ffffffffffffffffffffffffffffffffffffffff16815260200190815260200160002054905090565b60028060000154908060010154908060020154905083565b60068060000160009054906101000a900473ffffffffffffffffffffffffffffffffffffffff16908060010160009054906101000a900473ffffffffffffffffffffffffffffffffffffffff16905082565b600560009054906101000a900460ff1681565b610df5600660000160009054906101000a900473ffffffffffffffffffffffffffffffffffffffff16610f9a565b600873__cyclicalVotingLibrary_________________638f4b1f74909160138686866040518663ffffffff167c0100000000000000000000000000000000000000000000000000000000028152600401808681526020018581526020018481526020018360ff1660ff1681526020018260ff1660ff1681526020019550505050505060006040518083038186803b158015610e9057600080fd5b505af4158015610ea4573d6000803e3d6000fd5b50505050505050565b600560019054906101000a900460ff1681565b60138060000154908060010154908060020154908060030154908060040154908060050160009054906101000a900460ff16908060060154908060070154908060080154905089565b60606013600901805480602002602001604051908101604052809291908181526020018280548015610f9057602002820191906000526020600020905b8160009054906101000a900473ffffffffffffffffffffffffffffffffffffffff1673ffffffffffffffffffffffffffffffffffffffff1681526020019060010190808311610f46575b5050505050905090565b600081905060008173ffffffffffffffffffffffffffffffffffffffff16635549ea51336040518263ffffffff167c0100000000000000000000000000000000000000000000000000000000028152600401808273ffffffffffffffffffffffffffffffffffffffff1673ffffffffffffffffffffffffffffffffffffffff16815260200191505060206040518083038186803b15801561103a57600080fd5b505afa15801561104e573d6000803e3d6000fd5b505050506040513d602081101561106457600080fd5b81019080805190602001909291905050501415151561108257600080fd5b600091505050565b50805460008255906000526020600020908101906110a891906110ab565b50565b6110cd91905b808211156110c95760008160009055506001016110b1565b5090565b9056fea165627a7a7230582072fe760a451bf7d961a71c1334706c0c9646dcc0871fadff5fd329ed799afdfc0029",
  "source": "pragma solidity >=0.4.22 <0.6.0;\n\n// Standard contract for a presidential election procedure\n\nimport \"../standardProcedure.sol\";\nimport \"../Organ.sol\";\nimport \"../libraries/cyclicalVotingLibrary.sol\";\n\n\ncontract cyclicalManyToOneElectionProcedure is Procedure\n{\n    // 1: Cyclical many to one election (Presidential Election)\n    // 2: Cyclical many to many election (Moderators Election)\n    // 3: Simple norm nomination \n    // 4: Simple admins and master nomination\n    // 5: Vote on Norms \n    // 6: Vote on masters and admins \n    // 7: Cooptation\n    using procedureLibrary for procedureLibrary.twoRegisteredOrgans;\n    using cyclicalVotingLibrary for cyclicalVotingLibrary.RecurringElectionInfo;\n    using cyclicalVotingLibrary for cyclicalVotingLibrary.Candidacy;\n    using cyclicalVotingLibrary for cyclicalVotingLibrary.ElectionBallot;\n\n    // First stakeholder address is referenceOrganContract\n    // Second stakeholder address is affectedOrganContract\n    procedureLibrary.twoRegisteredOrgans public linkedOrgans;\n    cyclicalVotingLibrary.RecurringElectionInfo public electionParameters;\n\n    // ############## Variable to set up when declaring the procedure\n    // ####### Vote creation process\n\n    // current President address\n    address public currentPresident;\n\n    // A dynamically-sized array of `Ballot` structs.\n    cyclicalVotingLibrary.ElectionBallot public currentBallot;\n\n    constructor(address payable _referenceOrganContract, address payable _affectedOrganContract, uint _ballotFrequency, uint _ballotDuration, uint _quorumSize, uint _reelectionMaximum, bytes32 _name) \n    public \n    {\n        procedureInfo.initProcedure(1, _name, 2);\n        linkedOrgans.initTwoRegisteredOrgans(_referenceOrganContract, _affectedOrganContract);\n        electionParameters.initElectionParameters(_ballotFrequency, _ballotDuration, _quorumSize, _reelectionMaximum, 2*_ballotDuration, 0);\n    }\n\n    /// Create a new ballot to choose one of `proposalNames`.\n    function createBallot(bytes32 _ballotName) \n    public \n    {\n        electionParameters.createRecurrentBallot(currentBallot, _ballotName);\n    }\n\n    function presentCandidacy(bytes32 _ipfsHash, uint8 _hash_function, uint8 _size) \n    public \n    {\n\n        // Check the candidate is a member of the reference organ\n        procedureLibrary.isAllowed(linkedOrgans.firstOrganAddress);\n        electionParameters.presentCandidacyLib(currentBallot, _ipfsHash, _hash_function, _size);\n    }\n\n\n    /// Vote for a candidate\n    function vote(address payable _candidateAddress) \n    public \n    {\n        procedureLibrary.isAllowed(linkedOrgans.firstOrganAddress);\n        electionParameters.voteManyToOne(currentBallot, _candidateAddress);\n    }\n\n    // The vote is finished and we close it. This triggers the outcome of the vote.\n\n    function endBallot() \n    public \n    returns (address electionWinner)\n    {\n       electionWinner = electionParameters.countManyToOne(currentBallot, linkedOrgans.firstOrganAddress);   \n\n        if (electionWinner != address(0))\n        {\n            electionParameters.cumulatedMandates[electionWinner] += 1;\n\n            if (electionWinner != currentPresident)\n            {\n                electionParameters.givePowerToNewPresident(currentBallot, electionWinner, currentPresident, linkedOrgans.secondOrganAddress);\n            }\n\n            delete electionParameters.candidacies[electionWinner];\n        }\n        \n        uint nextBallotNumber = currentBallot.ballotNumber + 1;\n        // Cleaning contract state from election\n        delete currentBallot;\n        currentBallot.ballotNumber = nextBallotNumber;\n\n        return electionWinner;          \n    }\n        \n    // ######### Functions to retrieve procedure infos\n\n    function getCandidateList() \n    public \n    view \n    returns (address[] memory _candidateList)\n    {\n        return currentBallot.candidateList;\n    }\n\n    function nextElectionICanVoteIn() \n    public \n    view \n    returns (uint lastElectionIParticipatedIn)\n    {\n        return electionParameters.nextElectionUserCanVoteIn[msg.sender];\n    }\n\n    function getCandidacyInfo(address _candidateAddress) \n    public \n    view\n    returns (bytes32 _ipfsHash, uint8 _hash_function, uint8 _size)\n    {\n        return (electionParameters.candidacies[_candidateAddress].ipfsHash, electionParameters.candidacies[_candidateAddress].hash_function , electionParameters.candidacies[_candidateAddress].size);\n    }\n}\n\n",
  "sourcePath": "/Users/henrilieutaud/Documents/Mes documents/ESILV/03 Blockchain Programmation/solidity-101/contracts/utils/Kelsen/solidity/contracts/procedures/cyclicalManyToOneElectionProcedure.sol",
  "compiler": {
    "name": "solc",
    "version": "0.5.0+commit.1d4f565a.Emscripten.clang"
  },
  "schemaVersion": "3.0.6",
  "updatedAt": "2019-10-03T20:18:25.181Z",
  "devdoc": {
    "methods": {}
  },
  "userdoc": {
    "methods": {
      "createBallot(bytes32)": {
        "notice": "Create a new ballot to choose one of `proposalNames`."
      },
      "vote(address)": {
        "notice": "Vote for a candidate"
      }
    }
  }
}