{
  "contractName": "cyclicalManyToManyElectionProcedure",
  "abi": [
    {
      "constant": true,
      "inputs": [],
      "name": "electionParameters",
      "outputs": [
        {
          "name": "ballotFrequency",
          "type": "uint256"
        },
        {
          "name": "nextElectionDate",
          "type": "uint256"
        },
        {
          "name": "ballotDuration",
          "type": "uint256"
        },
        {
          "name": "candidacyDuration",
          "type": "uint256"
        },
        {
          "name": "reelectionMaximum",
          "type": "uint256"
        },
        {
          "name": "quorumSize",
          "type": "uint256"
        },
        {
          "name": "voterToCandidateRatio",
          "type": "uint256"
        }
      ],
      "payable": false,
      "stateMutability": "view",
      "type": "function"
    },
    {
      "constant": true,
      "inputs": [],
      "name": "kelsenVersionNumber",
      "outputs": [
        {
          "name": "",
          "type": "int256"
        }
      ],
      "payable": false,
      "stateMutability": "view",
      "type": "function"
    },
    {
      "constant": true,
      "inputs": [],
      "name": "nextBallotToEnforce",
      "outputs": [
        {
          "name": "",
          "type": "uint256"
        }
      ],
      "payable": false,
      "stateMutability": "view",
      "type": "function"
    },
    {
      "constant": true,
      "inputs": [],
      "name": "procedureInfo",
      "outputs": [
        {
          "name": "procedureTypeNumber",
          "type": "uint256"
        },
        {
          "name": "procedureName",
          "type": "bytes32"
        },
        {
          "name": "linkedOrgans",
          "type": "uint256"
        }
      ],
      "payable": false,
      "stateMutability": "view",
      "type": "function"
    },
    {
      "constant": true,
      "inputs": [],
      "name": "linkedOrgans",
      "outputs": [
        {
          "name": "firstOrganAddress",
          "type": "address"
        },
        {
          "name": "secondOrganAddress",
          "type": "address"
        }
      ],
      "payable": false,
      "stateMutability": "view",
      "type": "function"
    },
    {
      "constant": true,
      "inputs": [
        {
          "name": "",
          "type": "uint256"
        }
      ],
      "name": "currentModerators",
      "outputs": [
        {
          "name": "",
          "type": "address"
        }
      ],
      "payable": false,
      "stateMutability": "view",
      "type": "function"
    },
    {
      "constant": true,
      "inputs": [
        {
          "name": "",
          "type": "uint256"
        }
      ],
      "name": "nextModerators",
      "outputs": [
        {
          "name": "",
          "type": "address"
        }
      ],
      "payable": false,
      "stateMutability": "view",
      "type": "function"
    },
    {
      "constant": true,
      "inputs": [],
      "name": "isAnOrgan",
      "outputs": [
        {
          "name": "",
          "type": "bool"
        }
      ],
      "payable": false,
      "stateMutability": "view",
      "type": "function"
    },
    {
      "constant": true,
      "inputs": [],
      "name": "isAProcedure",
      "outputs": [
        {
          "name": "",
          "type": "bool"
        }
      ],
      "payable": false,
      "stateMutability": "view",
      "type": "function"
    },
    {
      "constant": true,
      "inputs": [],
      "name": "currentBallot",
      "outputs": [
        {
          "name": "ballotNumber",
          "type": "uint256"
        },
        {
          "name": "name",
          "type": "bytes32"
        },
        {
          "name": "startDate",
          "type": "uint256"
        },
        {
          "name": "candidacyEndDate",
          "type": "uint256"
        },
        {
          "name": "electionEndDate",
          "type": "uint256"
        },
        {
          "name": "wasEnded",
          "type": "bool"
        },
        {
          "name": "totalVoteCount",
          "type": "uint256"
        },
        {
          "name": "totalVoters",
          "type": "uint256"
        },
        {
          "name": "electedOfficialSlotNumber",
          "type": "uint256"
        }
      ],
      "payable": false,
      "stateMutability": "view",
      "type": "function"
    },
    {
      "inputs": [
        {
          "name": "_referenceOrganContract",
          "type": "address"
        },
        {
          "name": "_affectedOrganContract",
          "type": "address"
        },
        {
          "name": "_ballotFrequency",
          "type": "uint256"
        },
        {
          "name": "_ballotDuration",
          "type": "uint256"
        },
        {
          "name": "_quorumSize",
          "type": "uint256"
        },
        {
          "name": "_reelectionMaximum",
          "type": "uint256"
        },
        {
          "name": "_voterToCandidateRatio",
          "type": "uint256"
        },
        {
          "name": "_name",
          "type": "bytes32"
        }
      ],
      "payable": false,
      "stateMutability": "nonpayable",
      "type": "constructor"
    },
    {
      "constant": false,
      "inputs": [
        {
          "name": "_ballotName",
          "type": "bytes32"
        }
      ],
      "name": "createBallot",
      "outputs": [],
      "payable": false,
      "stateMutability": "nonpayable",
      "type": "function"
    },
    {
      "constant": false,
      "inputs": [
        {
          "name": "_ipfsHash",
          "type": "bytes32"
        },
        {
          "name": "_hash_function",
          "type": "uint8"
        },
        {
          "name": "_size",
          "type": "uint8"
        }
      ],
      "name": "presentCandidacy",
      "outputs": [],
      "payable": false,
      "stateMutability": "nonpayable",
      "type": "function"
    },
    {
      "constant": false,
      "inputs": [
        {
          "name": "_candidateAddresses",
          "type": "address[]"
        }
      ],
      "name": "vote",
      "outputs": [],
      "payable": false,
      "stateMutability": "nonpayable",
      "type": "function"
    },
    {
      "constant": false,
      "inputs": [],
      "name": "endBallot",
      "outputs": [],
      "payable": false,
      "stateMutability": "nonpayable",
      "type": "function"
    },
    {
      "constant": false,
      "inputs": [],
      "name": "enforceBallot",
      "outputs": [],
      "payable": false,
      "stateMutability": "nonpayable",
      "type": "function"
    },
    {
      "constant": true,
      "inputs": [],
      "name": "getCandidateList",
      "outputs": [
        {
          "name": "_candidateList",
          "type": "address[]"
        }
      ],
      "payable": false,
      "stateMutability": "view",
      "type": "function"
    },
    {
      "constant": true,
      "inputs": [],
      "name": "nextElectionICanVoteIn",
      "outputs": [
        {
          "name": "lastElectionIParticipatedIn",
          "type": "uint256"
        }
      ],
      "payable": false,
      "stateMutability": "view",
      "type": "function"
    },
    {
      "constant": true,
      "inputs": [
        {
          "name": "_candidateAddress",
          "type": "address"
        }
      ],
      "name": "getCandidacyInfo",
      "outputs": [
        {
          "name": "_ipfsHash",
          "type": "bytes32"
        },
        {
          "name": "_hash_function",
          "type": "uint8"
        },
        {
          "name": "_size",
          "type": "uint8"
        }
      ],
      "payable": false,
      "stateMutability": "view",
      "type": "function"
    }
  ],
  "bytecode": "0x608060405260026000556000600560006101000a81548160ff0219169083151502179055506001600560016101000a81548160ff02191690831515021790555034801561004b57600080fd5b50604051610100806114df833981018060405261010081101561006d57600080fd5b810190808051906020019092919080519060200190929190805190602001909291908051906020019092919080519060200190929190805190602001909291908051906020019092919080519060200190929190505050600273__procedureLibrary______________________6356e77656909160028460026040518563ffffffff167c01000000000000000000000000000000000000000000000000000000000281526004018085815260200184815260200183815260200182815260200194505050505060006040518083038186803b15801561014c57600080fd5b505af4158015610160573d6000803e3d6000fd5b50505050600673__procedureLibrary______________________636f53715a90918a8a6040518463ffffffff167c0100000000000000000000000000000000000000000000000000000000028152600401808481526020018373ffffffffffffffffffffffffffffffffffffffff1673ffffffffffffffffffffffffffffffffffffffff1681526020018273ffffffffffffffffffffffffffffffffffffffff1673ffffffffffffffffffffffffffffffffffffffff168152602001935050505060006040518083038186803b15801561023a57600080fd5b505af415801561024e573d6000803e3d6000fd5b50505050600873__cyclicalVotingLibrary_________________63578ede039091888888888b600202896040518863ffffffff167c01000000000000000000000000000000000000000000000000000000000281526004018088815260200187815260200186815260200185815260200184815260200183815260200182815260200197505050505050505060006040518083038186803b1580156102f357600080fd5b505af4158015610307573d6000803e3d6000fd5b5050505050505050505050506111bd806103226000396000f3fe6080604052600436106100fc576000357c0100000000000000000000000000000000000000000000000000000000900463ffffffff1680632e95da2f146101015780633a47cb6014610180578063529cbae514610197578063584e2fa1146101ae5780635dbe4d281461020357806361104cf11461022e5780636d943451146102595780638db704cb146102945780639397942e146102bf5780639e3dd259146102f85780639eaa613f14610382578063a482810c146103fd578063a8bef97a14610478578063d36d2dd7146104a7578063e80b30a5146104fc578063ed0813291461052b578063f80723a8146105f0578063fdbc400614610657575b600080fd5b34801561010d57600080fd5b506101506004803603602081101561012457600080fd5b81019080803573ffffffffffffffffffffffffffffffffffffffff1690602001909291905050506106c3565b604051808481526020018360ff1660ff1681526020018260ff1660ff168152602001935050505060405180910390f35b34801561018c57600080fd5b506101956107c1565b005b3480156101a357600080fd5b506101ac6108b4565b005b3480156101ba57600080fd5b506101c3610a58565b6040518088815260200187815260200186815260200185815260200184815260200183815260200182815260200197505050505050505060405180910390f35b34801561020f57600080fd5b50610218610a88565b6040518082815260200191505060405180910390f35b34801561023a57600080fd5b50610243610a8e565b6040518082815260200191505060405180910390f35b34801561026557600080fd5b506102926004803603602081101561027c57600080fd5b8101908080359060200190929190505050610a94565b005b3480156102a057600080fd5b506102a9610c3d565b6040518082815260200191505060405180910390f35b3480156102cb57600080fd5b506102d4610c86565b60405180848152602001838152602001828152602001935050505060405180910390f35b34801561030457600080fd5b5061030d610c9e565b604051808373ffffffffffffffffffffffffffffffffffffffff1673ffffffffffffffffffffffffffffffffffffffff1681526020018273ffffffffffffffffffffffffffffffffffffffff1673ffffffffffffffffffffffffffffffffffffffff1681526020019250505060405180910390f35b34801561038e57600080fd5b506103bb600480360360208110156103a557600080fd5b8101908080359060200190929190505050610cf0565b604051808273ffffffffffffffffffffffffffffffffffffffff1673ffffffffffffffffffffffffffffffffffffffff16815260200191505060405180910390f35b34801561040957600080fd5b506104366004803603602081101561042057600080fd5b8101908080359060200190929190505050610d2e565b604051808273ffffffffffffffffffffffffffffffffffffffff1673ffffffffffffffffffffffffffffffffffffffff16815260200191505060405180910390f35b34801561048457600080fd5b5061048d610d6c565b604051808215151515815260200191505060405180910390f35b3480156104b357600080fd5b506104fa600480360360608110156104ca57600080fd5b8101908080359060200190929190803560ff169060200190929190803560ff169060200190929190505050610d7f565b005b34801561050857600080fd5b50610511610e65565b604051808215151515815260200191505060405180910390f35b34801561053757600080fd5b506105ee6004803603602081101561054e57600080fd5b810190808035906020019064010000000081111561056b57600080fd5b82018360208201111561057d57600080fd5b8035906020019184602083028401116401000000008311171561059f57600080fd5b919080806020026020016040519081016040528093929190818152602001838360200280828437600081840152601f19601f820116905080830192505050505050509192919290505050610e78565b005b3480156105fc57600080fd5b50610605610f81565b604051808a815260200189815260200188815260200187815260200186815260200185151515158152602001848152602001838152602001828152602001995050505050505050505060405180910390f35b34801561066357600080fd5b5061066c610fca565b6040518080602001828103825283818151815260200191508051906020019060200280838360005b838110156106af578082015181840152602081019050610694565b505050509050019250505060405180910390f35b6000806000600860090160008573ffffffffffffffffffffffffffffffffffffffff1673ffffffffffffffffffffffffffffffffffffffff16815260200190815260200160002060010154600860090160008673ffffffffffffffffffffffffffffffffffffffff1673ffffffffffffffffffffffffffffffffffffffff16815260200190815260200160002060020160009054906101000a900460ff16600860090160008773ffffffffffffffffffffffffffffffffffffffff1673ffffffffffffffffffffffffffffffffffffffff16815260200190815260200160002060020160019054906101000a900460ff169250925092509193909250565b600873__cyclicalVotingLibrary_________________63e9eedbd5909160156013600660000160009054906101000a900473ffffffffffffffffffffffffffffffffffffffff166040518563ffffffff167c0100000000000000000000000000000000000000000000000000000000028152600401808581526020018481526020018381526020018273ffffffffffffffffffffffffffffffffffffffff1673ffffffffffffffffffffffffffffffffffffffff16815260200194505050505060006040518083038186803b15801561089a57600080fd5b505af41580156108ae573d6000803e3d6000fd5b50505050565b601454601560000154101515156108ca57600080fd5b600873__cyclicalVotingLibrary_________________634f63e7e79091601560136012600660010160009054906101000a900473ffffffffffffffffffffffffffffffffffffffff166040518663ffffffff167c0100000000000000000000000000000000000000000000000000000000028152600401808681526020018581526020018481526020018381526020018273ffffffffffffffffffffffffffffffffffffffff1673ffffffffffffffffffffffffffffffffffffffff1681526020019550505050505060006040518083038186803b1580156109ac57600080fd5b505af41580156109c0573d6000803e3d6000fd5b50505050600160156000015401601481905550601560008082016000905560018201600090556002820160009055600382016000905560048201600090556005820160006101000a81549060ff0219169055600682016000905560078201600090556008820160009055600982016000610a3a919061114b565b505060145460156000018190555060136000610a56919061114b565b565b60088060000154908060010154908060020154908060030154908060040154908060050154908060060154905087565b60005481565b60145481565b600873__cyclicalVotingLibrary_________________63bd292a4790916015846040518463ffffffff167c010000000000000000000000000000000000000000000000000000000002815260040180848152602001838152602001828152602001935050505060006040518083038186803b158015610b1357600080fd5b505af4158015610b27573d6000803e3d6000fd5b505050506000600660000160009054906101000a900473ffffffffffffffffffffffffffffffffffffffff16905060008173ffffffffffffffffffffffffffffffffffffffff1663bbea06196040518163ffffffff167c0100000000000000000000000000000000000000000000000000000000028152600401604080518083038186803b158015610bb857600080fd5b505afa158015610bcc573d6000803e3d6000fd5b505050506040513d6040811015610be257600080fd5b81019080805190602001909291908051906020019092919050505091505060086006015481811515610c1057fe5b0460156008018190555060006015600801541415610c345760016015600801819055505b60009150505050565b60006008800160003373ffffffffffffffffffffffffffffffffffffffff1673ffffffffffffffffffffffffffffffffffffffff16815260200190815260200160002054905090565b60028060000154908060010154908060020154905083565b60068060000160009054906101000a900473ffffffffffffffffffffffffffffffffffffffff16908060010160009054906101000a900473ffffffffffffffffffffffffffffffffffffffff16905082565b601281815481101515610cff57fe5b906000526020600020016000915054906101000a900473ffffffffffffffffffffffffffffffffffffffff1681565b601381815481101515610d3d57fe5b906000526020600020016000915054906101000a900473ffffffffffffffffffffffffffffffffffffffff1681565b600560009054906101000a900460ff1681565b610dad600660000160009054906101000a900473ffffffffffffffffffffffffffffffffffffffff1661105b565b600873__cyclicalVotingLibrary_________________638f4b1f74909160158686866040518663ffffffff167c0100000000000000000000000000000000000000000000000000000000028152600401808681526020018581526020018481526020018360ff1660ff1681526020018260ff1660ff1681526020019550505050505060006040518083038186803b158015610e4857600080fd5b505af4158015610e5c573d6000803e3d6000fd5b50505050505050565b600560019054906101000a900460ff1681565b610ea6600660000160009054906101000a900473ffffffffffffffffffffffffffffffffffffffff1661105b565b600873__cyclicalVotingLibrary_________________63eedbe58190916015846040518463ffffffff167c01000000000000000000000000000000000000000000000000000000000281526004018084815260200183815260200180602001828103825283818151815260200191508051906020019060200280838360005b83811015610f41578082015181840152602081019050610f26565b5050505090500194505050505060006040518083038186803b158015610f6657600080fd5b505af4158015610f7a573d6000803e3d6000fd5b5050505050565b60158060000154908060010154908060020154908060030154908060040154908060050160009054906101000a900460ff16908060060154908060070154908060080154905089565b6060601560090180548060200260200160405190810160405280929190818152602001828054801561105157602002820191906000526020600020905b8160009054906101000a900473ffffffffffffffffffffffffffffffffffffffff1673ffffffffffffffffffffffffffffffffffffffff1681526020019060010190808311611007575b5050505050905090565b600081905060008173ffffffffffffffffffffffffffffffffffffffff16635549ea51336040518263ffffffff167c0100000000000000000000000000000000000000000000000000000000028152600401808273ffffffffffffffffffffffffffffffffffffffff1673ffffffffffffffffffffffffffffffffffffffff16815260200191505060206040518083038186803b1580156110fb57600080fd5b505afa15801561110f573d6000803e3d6000fd5b505050506040513d602081101561112557600080fd5b81019080805190602001909291905050501415151561114357600080fd5b600091505050565b5080546000825590600052602060002090810190611169919061116c565b50565b61118e91905b8082111561118a576000816000905550600101611172565b5090565b9056fea165627a7a72305820d6965e928692ed6853b25f1a84c63c22bedcf3cc29963829fb3dc301b48b39360029",
  "source": "pragma solidity >=0.4.22 <0.6.0;\n\n// Standard contract for a presidential election procedure\n\nimport \"../standardProcedure.sol\";\nimport \"../Organ.sol\";\nimport \"../libraries/cyclicalVotingLibrary.sol\";\n\n\ncontract cyclicalManyToManyElectionProcedure is Procedure{\n    // 1: Cyclical many to one election (Presidential Election)\n    // 2: Cyclical many to many election (Moderators Election)\n    // 3: Simple norm nomination \n    // 4: Simple admins and master nomination\n    // 5: Vote on Norms \n    // 6: Vote on masters and admins \n    // 7: Cooptation\n\n    using procedureLibrary for procedureLibrary.twoRegisteredOrgans;\n    using cyclicalVotingLibrary for cyclicalVotingLibrary.RecurringElectionInfo;\n    using cyclicalVotingLibrary for cyclicalVotingLibrary.Candidacy;\n    using cyclicalVotingLibrary for cyclicalVotingLibrary.ElectionBallot;\n\n    // First stakeholder address is referenceOrganContract\n    // Second stakeholder address is affectedOrganContract\n    procedureLibrary.twoRegisteredOrgans public linkedOrgans;\n    cyclicalVotingLibrary.RecurringElectionInfo public electionParameters;\n\n    // Keeping track of current moderators, next moderators and which ballot is the next to be enforced\n    address[] public currentModerators;\n    address[] public nextModerators;\n    uint public nextBallotToEnforce;\n\n    // A dynamically-sized array of `Ballot` structs.\n    //Ballot[] public ballots;\n    cyclicalVotingLibrary.ElectionBallot public currentBallot;\n\n    \n    constructor(address payable _referenceOrganContract, address payable _affectedOrganContract, uint _ballotFrequency, uint _ballotDuration, uint _quorumSize, uint _reelectionMaximum, uint _voterToCandidateRatio, bytes32 _name) \n   \n    public \n    {\n        procedureInfo.initProcedure(2, _name, 2);\n        linkedOrgans.initTwoRegisteredOrgans(_referenceOrganContract, _affectedOrganContract);\n        electionParameters.initElectionParameters(_ballotFrequency, _ballotDuration, _quorumSize, _reelectionMaximum, 2*_ballotDuration, _voterToCandidateRatio);\n    }\n\n    /// Create a new ballot to choose one of `proposalNames`.\n    function createBallot(bytes32 _ballotName) \n    public \n    {\n\n        electionParameters.createRecurrentBallot(currentBallot, _ballotName);\n        // Retrieving size of electorate\n        Organ voterRegistryOrgan = Organ(linkedOrgans.firstOrganAddress);\n        ( ,uint voterNumber) = voterRegistryOrgan.organInfos();\n\n        currentBallot.electedOfficialSlotNumber = voterNumber/uint(electionParameters.voterToCandidateRatio);\n        if ( currentBallot.electedOfficialSlotNumber == 0) \n        {\n            currentBallot.electedOfficialSlotNumber = 1;\n        }\n        delete voterRegistryOrgan;\n    }\n\n    function presentCandidacy( bytes32 _ipfsHash, uint8 _hash_function, uint8 _size) \n    public \n    {\n        // Check the candidate is a member of the reference organ\n        procedureLibrary.isAllowed(linkedOrgans.firstOrganAddress);\n\n        // Check that the ballot is still active\n        electionParameters.presentCandidacyLib(currentBallot, _ipfsHash, _hash_function, _size);    \n    }\n\n    /// Vote for a candidate\n    function vote(address[] memory _candidateAddresses) \n    public \n    {\n        procedureLibrary.isAllowed(linkedOrgans.firstOrganAddress);\n        electionParameters.voteManyToMany(currentBallot, _candidateAddresses);\n    }\n\n    // The vote is finished and we close it. This triggers the outcome of the vote.\n\n    function endBallot() \n    public \n    {\n        electionParameters.countManyToMany(currentBallot, nextModerators, linkedOrgans.firstOrganAddress);\n    }\n    \n    function enforceBallot() \n    public \n    {\n        // Checking the ballot is indeed the next one to be enforced\n        require(currentBallot.ballotNumber >= nextBallotToEnforce);\n\n        electionParameters.enforceManyToMany(currentBallot, nextModerators, currentModerators, linkedOrgans.secondOrganAddress);\n\n        nextBallotToEnforce = currentBallot.ballotNumber + 1;\n\n        delete currentBallot;\n        currentBallot.ballotNumber = nextBallotToEnforce;\n        // Removing data of nextModerators\n        delete nextModerators;\n    }\n\n    //////////////////////// Functions to communicate with other contracts\n    function getCandidateList() \n    public \n    view \n    returns (address[] memory _candidateList)\n    {\n        return currentBallot.candidateList;\n    }\n    \n    function nextElectionICanVoteIn() \n    public \n    view \n    returns (uint lastElectionIParticipatedIn)\n    {\n        return electionParameters.nextElectionUserCanVoteIn[msg.sender];\n    }\n\n    function getCandidacyInfo(address _candidateAddress) \n    public \n    view\n    returns (bytes32 _ipfsHash, uint8 _hash_function, uint8 _size)\n    {\n        return (electionParameters.candidacies[_candidateAddress].ipfsHash, electionParameters.candidacies[_candidateAddress].hash_function , electionParameters.candidacies[_candidateAddress].size);\n    }\n\n\n}\n",
  "sourcePath": "/Users/henrilieutaud/Documents/Mes documents/ESILV/03 Blockchain Programmation/solidity-101/contracts/utils/Kelsen/solidity/contracts/procedures/cyclicalManyToManyElectionProcedure.sol",
  "compiler": {
    "name": "solc",
    "version": "0.5.0+commit.1d4f565a.Emscripten.clang"
  },
  "schemaVersion": "3.0.6",
  "updatedAt": "2019-10-03T20:18:25.180Z",
  "devdoc": {
    "methods": {}
  },
  "userdoc": {
    "methods": {
      "createBallot(bytes32)": {
        "notice": "Create a new ballot to choose one of `proposalNames`."
      },
      "getCandidateList()": {
        "notice": "///////////////////// Functions to communicate with other contracts"
      },
      "vote(address[])": {
        "notice": "Vote for a candidate"
      }
    }
  }
}