{
  "contractName": "cyclicalManyToManyElectionProcedure",
  "abi": [
    {
      "constant": true,
      "inputs": [],
      "name": "electionParameters",
      "outputs": [
        {
          "name": "ballotFrequency",
          "type": "uint256"
        },
        {
          "name": "nextElectionDate",
          "type": "uint256"
        },
        {
          "name": "ballotDuration",
          "type": "uint256"
        },
        {
          "name": "candidacyDuration",
          "type": "uint256"
        },
        {
          "name": "reelectionMaximum",
          "type": "uint256"
        },
        {
          "name": "quorumSize",
          "type": "uint256"
        },
        {
          "name": "voterToCandidateRatio",
          "type": "uint256"
        }
      ],
      "payable": false,
      "stateMutability": "view",
      "type": "function"
    },
    {
      "constant": true,
      "inputs": [],
      "name": "kelsenVersionNumber",
      "outputs": [
        {
          "name": "",
          "type": "int256"
        }
      ],
      "payable": false,
      "stateMutability": "view",
      "type": "function"
    },
    {
      "constant": true,
      "inputs": [],
      "name": "nextBallotToEnforce",
      "outputs": [
        {
          "name": "",
          "type": "uint256"
        }
      ],
      "payable": false,
      "stateMutability": "view",
      "type": "function"
    },
    {
      "constant": true,
      "inputs": [],
      "name": "procedureInfo",
      "outputs": [
        {
          "name": "procedureTypeNumber",
          "type": "uint256"
        },
        {
          "name": "procedureName",
          "type": "bytes32"
        },
        {
          "name": "linkedOrgans",
          "type": "uint256"
        }
      ],
      "payable": false,
      "stateMutability": "view",
      "type": "function"
    },
    {
      "constant": true,
      "inputs": [],
      "name": "linkedOrgans",
      "outputs": [
        {
          "name": "firstOrganAddress",
          "type": "address"
        },
        {
          "name": "secondOrganAddress",
          "type": "address"
        }
      ],
      "payable": false,
      "stateMutability": "view",
      "type": "function"
    },
    {
      "constant": true,
      "inputs": [
        {
          "name": "",
          "type": "uint256"
        }
      ],
      "name": "currentModerators",
      "outputs": [
        {
          "name": "",
          "type": "address"
        }
      ],
      "payable": false,
      "stateMutability": "view",
      "type": "function"
    },
    {
      "constant": true,
      "inputs": [
        {
          "name": "",
          "type": "uint256"
        }
      ],
      "name": "nextModerators",
      "outputs": [
        {
          "name": "",
          "type": "address"
        }
      ],
      "payable": false,
      "stateMutability": "view",
      "type": "function"
    },
    {
      "constant": true,
      "inputs": [],
      "name": "isAnOrgan",
      "outputs": [
        {
          "name": "",
          "type": "bool"
        }
      ],
      "payable": false,
      "stateMutability": "view",
      "type": "function"
    },
    {
      "constant": true,
      "inputs": [],
      "name": "isAProcedure",
      "outputs": [
        {
          "name": "",
          "type": "bool"
        }
      ],
      "payable": false,
      "stateMutability": "view",
      "type": "function"
    },
    {
      "constant": true,
      "inputs": [],
      "name": "currentBallot",
      "outputs": [
        {
          "name": "ballotNumber",
          "type": "uint256"
        },
        {
          "name": "name",
          "type": "bytes32"
        },
        {
          "name": "startDate",
          "type": "uint256"
        },
        {
          "name": "candidacyEndDate",
          "type": "uint256"
        },
        {
          "name": "electionEndDate",
          "type": "uint256"
        },
        {
          "name": "wasEnded",
          "type": "bool"
        },
        {
          "name": "totalVoteCount",
          "type": "uint256"
        },
        {
          "name": "totalVoters",
          "type": "uint256"
        },
        {
          "name": "electedOfficialSlotNumber",
          "type": "uint256"
        }
      ],
      "payable": false,
      "stateMutability": "view",
      "type": "function"
    },
    {
      "inputs": [
        {
          "name": "_referenceOrganContract",
          "type": "address"
        },
        {
          "name": "_affectedOrganContract",
          "type": "address"
        },
        {
          "name": "_ballotFrequency",
          "type": "uint256"
        },
        {
          "name": "_ballotDuration",
          "type": "uint256"
        },
        {
          "name": "_quorumSize",
          "type": "uint256"
        },
        {
          "name": "_reelectionMaximum",
          "type": "uint256"
        },
        {
          "name": "_voterToCandidateRatio",
          "type": "uint256"
        },
        {
          "name": "_name",
          "type": "bytes32"
        }
      ],
      "payable": false,
      "stateMutability": "nonpayable",
      "type": "constructor"
    },
    {
      "constant": false,
      "inputs": [
        {
          "name": "_ballotName",
          "type": "bytes32"
        }
      ],
      "name": "createBallot",
      "outputs": [],
      "payable": false,
      "stateMutability": "nonpayable",
      "type": "function"
    },
    {
      "constant": false,
      "inputs": [
        {
          "name": "_ipfsHash",
          "type": "bytes32"
        },
        {
          "name": "_hash_function",
          "type": "uint8"
        },
        {
          "name": "_size",
          "type": "uint8"
        }
      ],
      "name": "presentCandidacy",
      "outputs": [],
      "payable": false,
      "stateMutability": "nonpayable",
      "type": "function"
    },
    {
      "constant": false,
      "inputs": [
        {
          "name": "_candidateAddresses",
          "type": "address[]"
        }
      ],
      "name": "vote",
      "outputs": [],
      "payable": false,
      "stateMutability": "nonpayable",
      "type": "function"
    },
    {
      "constant": false,
      "inputs": [],
      "name": "endBallot",
      "outputs": [],
      "payable": false,
      "stateMutability": "nonpayable",
      "type": "function"
    },
    {
      "constant": false,
      "inputs": [],
      "name": "enforceBallot",
      "outputs": [],
      "payable": false,
      "stateMutability": "nonpayable",
      "type": "function"
    },
    {
      "constant": true,
      "inputs": [],
      "name": "getCandidateList",
      "outputs": [
        {
          "name": "_candidateList",
          "type": "address[]"
        }
      ],
      "payable": false,
      "stateMutability": "view",
      "type": "function"
    },
    {
      "constant": true,
      "inputs": [],
      "name": "nextElectionICanVoteIn",
      "outputs": [
        {
          "name": "lastElectionIParticipatedIn",
          "type": "uint256"
        }
      ],
      "payable": false,
      "stateMutability": "view",
      "type": "function"
    },
    {
      "constant": true,
      "inputs": [
        {
          "name": "_candidateAddress",
          "type": "address"
        }
      ],
      "name": "getCandidacyInfo",
      "outputs": [
        {
          "name": "_ipfsHash",
          "type": "bytes32"
        },
        {
          "name": "_hash_function",
          "type": "uint8"
        },
        {
          "name": "_size",
          "type": "uint8"
        }
      ],
      "payable": false,
      "stateMutability": "view",
      "type": "function"
    }
  ],
  "bytecode": "0x608060405260026000556000600560006101000a81548160ff0219169083151502179055506001600560016101000a81548160ff02191690831515021790555034801561004b57600080fd5b506040516101008061142c833981018060405261010081101561006d57600080fd5b810190808051906020019092919080519060200190929190805190602001909291908051906020019092919080519060200190929190805190602001909291908051906020019092919080519060200190929190505050600273__procedureLibrary______________________6356e77656909160028460026040518563ffffffff167c01000000000000000000000000000000000000000000000000000000000281526004018085815260200184815260200183815260200182815260200194505050505060006040518083038186803b15801561014c57600080fd5b505af4158015610160573d6000803e3d6000fd5b50505050600673__procedureLibrary______________________636f53715a90918a8a6040518463ffffffff167c0100000000000000000000000000000000000000000000000000000000028152600401808481526020018373ffffffffffffffffffffffffffffffffffffffff1673ffffffffffffffffffffffffffffffffffffffff1681526020018273ffffffffffffffffffffffffffffffffffffffff1673ffffffffffffffffffffffffffffffffffffffff168152602001935050505060006040518083038186803b15801561023a57600080fd5b505af415801561024e573d6000803e3d6000fd5b50505050600873__cyclicalVotingLibrary_________________63578ede039091888888888b600202896040518863ffffffff167c01000000000000000000000000000000000000000000000000000000000281526004018088815260200187815260200186815260200185815260200184815260200183815260200182815260200197505050505050505060006040518083038186803b1580156102f357600080fd5b505af4158015610307573d6000803e3d6000fd5b50505050505050505050505061110a806103226000396000f3fe608060405234801561001057600080fd5b5060043610610133576000357c0100000000000000000000000000000000000000000000000000000000900480639e3dd259116100bf578063d36d2dd71161008e578063d36d2dd714610435578063e80b30a51461047d578063ed0813291461049f578063f80723a814610557578063fdbc4006146105b157610133565b80639e3dd259146102ba5780639eaa613f14610337578063a482810c146103a5578063a8bef97a1461041357610133565b80635dbe4d28116101065780635dbe4d281461020657806361104cf1146102245780636d943451146102425780638db704cb146102705780639397942e1461028e57610133565b80632e95da2f146101385780633a47cb60146101aa578063529cbae5146101b4578063584e2fa1146101be575b600080fd5b61017a6004803603602081101561014e57600080fd5b81019080803573ffffffffffffffffffffffffffffffffffffffff169060200190929190505050610610565b604051808481526020018360ff1660ff1681526020018260ff1660ff168152602001935050505060405180910390f35b6101b261070e565b005b6101bc610801565b005b6101c66109a5565b6040518088815260200187815260200186815260200185815260200184815260200183815260200182815260200197505050505050505060405180910390f35b61020e6109d5565b6040518082815260200191505060405180910390f35b61022c6109db565b6040518082815260200191505060405180910390f35b61026e6004803603602081101561025857600080fd5b81019080803590602001909291905050506109e1565b005b610278610b8a565b6040518082815260200191505060405180910390f35b610296610bd3565b60405180848152602001838152602001828152602001935050505060405180910390f35b6102c2610beb565b604051808373ffffffffffffffffffffffffffffffffffffffff1673ffffffffffffffffffffffffffffffffffffffff1681526020018273ffffffffffffffffffffffffffffffffffffffff1673ffffffffffffffffffffffffffffffffffffffff1681526020019250505060405180910390f35b6103636004803603602081101561034d57600080fd5b8101908080359060200190929190505050610c3d565b604051808273ffffffffffffffffffffffffffffffffffffffff1673ffffffffffffffffffffffffffffffffffffffff16815260200191505060405180910390f35b6103d1600480360360208110156103bb57600080fd5b8101908080359060200190929190505050610c7b565b604051808273ffffffffffffffffffffffffffffffffffffffff1673ffffffffffffffffffffffffffffffffffffffff16815260200191505060405180910390f35b61041b610cb9565b604051808215151515815260200191505060405180910390f35b61047b6004803603606081101561044b57600080fd5b8101908080359060200190929190803560ff169060200190929190803560ff169060200190929190505050610ccc565b005b610485610db2565b604051808215151515815260200191505060405180910390f35b610555600480360360208110156104b557600080fd5b81019080803590602001906401000000008111156104d257600080fd5b8201836020820111156104e457600080fd5b8035906020019184602083028401116401000000008311171561050657600080fd5b919080806020026020016040519081016040528093929190818152602001838360200280828437600081840152601f19601f820116905080830192505050505050509192919290505050610dc5565b005b61055f610ece565b604051808a815260200189815260200188815260200187815260200186815260200185151515158152602001848152602001838152602001828152602001995050505050505050505060405180910390f35b6105b9610f17565b6040518080602001828103825283818151815260200191508051906020019060200280838360005b838110156105fc5780820151818401526020810190506105e1565b505050509050019250505060405180910390f35b6000806000600860090160008573ffffffffffffffffffffffffffffffffffffffff1673ffffffffffffffffffffffffffffffffffffffff16815260200190815260200160002060010154600860090160008673ffffffffffffffffffffffffffffffffffffffff1673ffffffffffffffffffffffffffffffffffffffff16815260200190815260200160002060020160009054906101000a900460ff16600860090160008773ffffffffffffffffffffffffffffffffffffffff1673ffffffffffffffffffffffffffffffffffffffff16815260200190815260200160002060020160019054906101000a900460ff169250925092509193909250565b600873__cyclicalVotingLibrary_________________63e9eedbd5909160156013600660000160009054906101000a900473ffffffffffffffffffffffffffffffffffffffff166040518563ffffffff167c0100000000000000000000000000000000000000000000000000000000028152600401808581526020018481526020018381526020018273ffffffffffffffffffffffffffffffffffffffff1673ffffffffffffffffffffffffffffffffffffffff16815260200194505050505060006040518083038186803b1580156107e757600080fd5b505af41580156107fb573d6000803e3d6000fd5b50505050565b6014546015600001541015151561081757600080fd5b600873__cyclicalVotingLibrary_________________634f63e7e79091601560136012600660010160009054906101000a900473ffffffffffffffffffffffffffffffffffffffff166040518663ffffffff167c0100000000000000000000000000000000000000000000000000000000028152600401808681526020018581526020018481526020018381526020018273ffffffffffffffffffffffffffffffffffffffff1673ffffffffffffffffffffffffffffffffffffffff1681526020019550505050505060006040518083038186803b1580156108f957600080fd5b505af415801561090d573d6000803e3d6000fd5b50505050600160156000015401601481905550601560008082016000905560018201600090556002820160009055600382016000905560048201600090556005820160006101000a81549060ff02191690556006820160009055600782016000905560088201600090556009820160006109879190611098565b5050601454601560000181905550601360006109a39190611098565b565b60088060000154908060010154908060020154908060030154908060040154908060050154908060060154905087565b60005481565b60145481565b600873__cyclicalVotingLibrary_________________63bd292a4790916015846040518463ffffffff167c010000000000000000000000000000000000000000000000000000000002815260040180848152602001838152602001828152602001935050505060006040518083038186803b158015610a6057600080fd5b505af4158015610a74573d6000803e3d6000fd5b505050506000600660000160009054906101000a900473ffffffffffffffffffffffffffffffffffffffff16905060008173ffffffffffffffffffffffffffffffffffffffff1663bbea06196040518163ffffffff167c0100000000000000000000000000000000000000000000000000000000028152600401604080518083038186803b158015610b0557600080fd5b505afa158015610b19573d6000803e3d6000fd5b505050506040513d6040811015610b2f57600080fd5b81019080805190602001909291908051906020019092919050505091505060086006015481811515610b5d57fe5b0460156008018190555060006015600801541415610b815760016015600801819055505b60009150505050565b60006008800160003373ffffffffffffffffffffffffffffffffffffffff1673ffffffffffffffffffffffffffffffffffffffff16815260200190815260200160002054905090565b60028060000154908060010154908060020154905083565b60068060000160009054906101000a900473ffffffffffffffffffffffffffffffffffffffff16908060010160009054906101000a900473ffffffffffffffffffffffffffffffffffffffff16905082565b601281815481101515610c4c57fe5b906000526020600020016000915054906101000a900473ffffffffffffffffffffffffffffffffffffffff1681565b601381815481101515610c8a57fe5b906000526020600020016000915054906101000a900473ffffffffffffffffffffffffffffffffffffffff1681565b600560009054906101000a900460ff1681565b610cfa600660000160009054906101000a900473ffffffffffffffffffffffffffffffffffffffff16610fa8565b600873__cyclicalVotingLibrary_________________638f4b1f74909160158686866040518663ffffffff167c0100000000000000000000000000000000000000000000000000000000028152600401808681526020018581526020018481526020018360ff1660ff1681526020018260ff1660ff1681526020019550505050505060006040518083038186803b158015610d9557600080fd5b505af4158015610da9573d6000803e3d6000fd5b50505050505050565b600560019054906101000a900460ff1681565b610df3600660000160009054906101000a900473ffffffffffffffffffffffffffffffffffffffff16610fa8565b600873__cyclicalVotingLibrary_________________63eedbe58190916015846040518463ffffffff167c01000000000000000000000000000000000000000000000000000000000281526004018084815260200183815260200180602001828103825283818151815260200191508051906020019060200280838360005b83811015610e8e578082015181840152602081019050610e73565b5050505090500194505050505060006040518083038186803b158015610eb357600080fd5b505af4158015610ec7573d6000803e3d6000fd5b5050505050565b60158060000154908060010154908060020154908060030154908060040154908060050160009054906101000a900460ff16908060060154908060070154908060080154905089565b60606015600901805480602002602001604051908101604052809291908181526020018280548015610f9e57602002820191906000526020600020905b8160009054906101000a900473ffffffffffffffffffffffffffffffffffffffff1673ffffffffffffffffffffffffffffffffffffffff1681526020019060010190808311610f54575b5050505050905090565b600081905060008173ffffffffffffffffffffffffffffffffffffffff16635549ea51336040518263ffffffff167c0100000000000000000000000000000000000000000000000000000000028152600401808273ffffffffffffffffffffffffffffffffffffffff1673ffffffffffffffffffffffffffffffffffffffff16815260200191505060206040518083038186803b15801561104857600080fd5b505afa15801561105c573d6000803e3d6000fd5b505050506040513d602081101561107257600080fd5b81019080805190602001909291905050501415151561109057600080fd5b600091505050565b50805460008255906000526020600020908101906110b691906110b9565b50565b6110db91905b808211156110d75760008160009055506001016110bf565b5090565b9056fea165627a7a72305820635349fe40b8475f3cc20c1be9203bdb4a2c199c7de462bc9278b4f655e0396c0029",
  "source": "pragma solidity >=0.4.22 <0.6.0;\r\n\r\n// Standard contract for a presidential election procedure\r\n\r\nimport \"../standardProcedure.sol\";\r\nimport \"../Organ.sol\";\r\nimport \"../libraries/cyclicalVotingLibrary.sol\";\r\n\r\n\r\ncontract cyclicalManyToManyElectionProcedure is Procedure{\r\n    // 1: Cyclical many to one election (Presidential Election)\r\n    // 2: Cyclical many to many election (Moderators Election)\r\n    // 3: Simple norm nomination \r\n    // 4: Simple admins and master nomination\r\n    // 5: Vote on Norms \r\n    // 6: Vote on masters and admins \r\n    // 7: Cooptation\r\n\r\n    using procedureLibrary for procedureLibrary.twoRegisteredOrgans;\r\n    using cyclicalVotingLibrary for cyclicalVotingLibrary.RecurringElectionInfo;\r\n    using cyclicalVotingLibrary for cyclicalVotingLibrary.Candidacy;\r\n    using cyclicalVotingLibrary for cyclicalVotingLibrary.ElectionBallot;\r\n\r\n    // First stakeholder address is referenceOrganContract\r\n    // Second stakeholder address is affectedOrganContract\r\n    procedureLibrary.twoRegisteredOrgans public linkedOrgans;\r\n    cyclicalVotingLibrary.RecurringElectionInfo public electionParameters;\r\n\r\n    // Keeping track of current moderators, next moderators and which ballot is the next to be enforced\r\n    address[] public currentModerators;\r\n    address[] public nextModerators;\r\n    uint public nextBallotToEnforce;\r\n\r\n    // A dynamically-sized array of `Ballot` structs.\r\n    //Ballot[] public ballots;\r\n    cyclicalVotingLibrary.ElectionBallot public currentBallot;\r\n\r\n    \r\n    constructor(address payable _referenceOrganContract, address payable _affectedOrganContract, uint _ballotFrequency, uint _ballotDuration, uint _quorumSize, uint _reelectionMaximum, uint _voterToCandidateRatio, bytes32 _name) \r\n   \r\n    public \r\n    {\r\n        procedureInfo.initProcedure(2, _name, 2);\r\n        linkedOrgans.initTwoRegisteredOrgans(_referenceOrganContract, _affectedOrganContract);\r\n        electionParameters.initElectionParameters(_ballotFrequency, _ballotDuration, _quorumSize, _reelectionMaximum, 2*_ballotDuration, _voterToCandidateRatio);\r\n    }\r\n\r\n    /// Create a new ballot to choose one of `proposalNames`.\r\n    function createBallot(bytes32 _ballotName) \r\n    public \r\n    {\r\n\r\n        electionParameters.createRecurrentBallot(currentBallot, _ballotName);\r\n        // Retrieving size of electorate\r\n        Organ voterRegistryOrgan = Organ(linkedOrgans.firstOrganAddress);\r\n        ( ,uint voterNumber) = voterRegistryOrgan.organInfos();\r\n\r\n        currentBallot.electedOfficialSlotNumber = voterNumber/uint(electionParameters.voterToCandidateRatio);\r\n        if ( currentBallot.electedOfficialSlotNumber == 0) \r\n        {\r\n            currentBallot.electedOfficialSlotNumber = 1;\r\n        }\r\n        delete voterRegistryOrgan;\r\n    }\r\n\r\n    function presentCandidacy( bytes32 _ipfsHash, uint8 _hash_function, uint8 _size) \r\n    public \r\n    {\r\n        // Check the candidate is a member of the reference organ\r\n        procedureLibrary.isAllowed(linkedOrgans.firstOrganAddress);\r\n\r\n        // Check that the ballot is still active\r\n        electionParameters.presentCandidacyLib(currentBallot, _ipfsHash, _hash_function, _size);    \r\n    }\r\n\r\n    /// Vote for a candidate\r\n    function vote(address[] memory _candidateAddresses) \r\n    public \r\n    {\r\n        procedureLibrary.isAllowed(linkedOrgans.firstOrganAddress);\r\n        electionParameters.voteManyToMany(currentBallot, _candidateAddresses);\r\n    }\r\n\r\n    // The vote is finished and we close it. This triggers the outcome of the vote.\r\n\r\n    function endBallot() \r\n    public \r\n    {\r\n        electionParameters.countManyToMany(currentBallot, nextModerators, linkedOrgans.firstOrganAddress);\r\n    }\r\n    \r\n    function enforceBallot() \r\n    public \r\n    {\r\n        // Checking the ballot is indeed the next one to be enforced\r\n        require(currentBallot.ballotNumber >= nextBallotToEnforce);\r\n\r\n        electionParameters.enforceManyToMany(currentBallot, nextModerators, currentModerators, linkedOrgans.secondOrganAddress);\r\n\r\n        nextBallotToEnforce = currentBallot.ballotNumber + 1;\r\n\r\n        delete currentBallot;\r\n        currentBallot.ballotNumber = nextBallotToEnforce;\r\n        // Removing data of nextModerators\r\n        delete nextModerators;\r\n    }\r\n\r\n    //////////////////////// Functions to communicate with other contracts\r\n    function getCandidateList() \r\n    public \r\n    view \r\n    returns (address[] memory _candidateList)\r\n    {\r\n        return currentBallot.candidateList;\r\n    }\r\n    \r\n    function nextElectionICanVoteIn() \r\n    public \r\n    view \r\n    returns (uint lastElectionIParticipatedIn)\r\n    {\r\n        return electionParameters.nextElectionUserCanVoteIn[msg.sender];\r\n    }\r\n\r\n    function getCandidacyInfo(address _candidateAddress) \r\n    public \r\n    view\r\n    returns (bytes32 _ipfsHash, uint8 _hash_function, uint8 _size)\r\n    {\r\n        return (electionParameters.candidacies[_candidateAddress].ipfsHash, electionParameters.candidacies[_candidateAddress].hash_function , electionParameters.candidacies[_candidateAddress].size);\r\n    }\r\n\r\n\r\n}\r\n",
  "sourcePath": "C:/Users/hlieutaud/Documents/Workshop/Solidity/solidity-101/contracts/utils/Kelsen/solidity/contracts/procedures/cyclicalManyToManyElectionProcedure.sol",
  "compiler": {
    "name": "solc",
    "version": "0.5.4+commit.9549d8ff.Emscripten.clang"
  },
  "schemaVersion": "3.0.10",
  "updatedAt": "2019-10-01T09:02:18.832Z",
  "devdoc": {
    "methods": {}
  },
  "userdoc": {
    "methods": {
      "createBallot(bytes32)": {
        "notice": "Create a new ballot to choose one of `proposalNames`."
      },
      "getCandidateList()": {
        "notice": "///////////////////// Functions to communicate with other contracts"
      },
      "vote(address[])": {
        "notice": "Vote for a candidate"
      }
    }
  }
}