{
  "contractName": "depositWithdrawFundsProcedure",
  "abi": [
    {
      "constant": true,
      "inputs": [],
      "name": "kelsenVersionNumber",
      "outputs": [
        {
          "name": "",
          "type": "int256"
        }
      ],
      "payable": false,
      "stateMutability": "view",
      "type": "function"
    },
    {
      "constant": true,
      "inputs": [],
      "name": "procedureInfo",
      "outputs": [
        {
          "name": "procedureTypeNumber",
          "type": "uint256"
        },
        {
          "name": "procedureName",
          "type": "bytes32"
        },
        {
          "name": "linkedOrgans",
          "type": "uint256"
        }
      ],
      "payable": false,
      "stateMutability": "view",
      "type": "function"
    },
    {
      "constant": true,
      "inputs": [],
      "name": "linkedOrgans",
      "outputs": [
        {
          "name": "firstOrganAddress",
          "type": "address"
        },
        {
          "name": "secondOrganAddress",
          "type": "address"
        },
        {
          "name": "thirdOrganAddress",
          "type": "address"
        }
      ],
      "payable": false,
      "stateMutability": "view",
      "type": "function"
    },
    {
      "constant": true,
      "inputs": [],
      "name": "isAnOrgan",
      "outputs": [
        {
          "name": "",
          "type": "bool"
        }
      ],
      "payable": false,
      "stateMutability": "view",
      "type": "function"
    },
    {
      "constant": true,
      "inputs": [],
      "name": "isAProcedure",
      "outputs": [
        {
          "name": "",
          "type": "bool"
        }
      ],
      "payable": false,
      "stateMutability": "view",
      "type": "function"
    },
    {
      "inputs": [
        {
          "name": "_authorizedDepositors",
          "type": "address"
        },
        {
          "name": "_authorizedWithdrawers",
          "type": "address"
        },
        {
          "name": "_defaultReceivingOrgan",
          "type": "address"
        },
        {
          "name": "_name",
          "type": "bytes32"
        }
      ],
      "payable": false,
      "stateMutability": "nonpayable",
      "type": "constructor"
    },
    {
      "payable": true,
      "stateMutability": "payable",
      "type": "fallback"
    },
    {
      "anonymous": false,
      "inputs": [
        {
          "indexed": false,
          "name": "_from",
          "type": "address"
        },
        {
          "indexed": false,
          "name": "_payoutAddress",
          "type": "address"
        },
        {
          "indexed": false,
          "name": "_amount",
          "type": "uint256"
        }
      ],
      "name": "depositedFunds",
      "type": "event"
    },
    {
      "anonymous": false,
      "inputs": [
        {
          "indexed": false,
          "name": "_from",
          "type": "address"
        },
        {
          "indexed": false,
          "name": "_payoutAddress",
          "type": "address"
        },
        {
          "indexed": false,
          "name": "_amount",
          "type": "uint256"
        }
      ],
      "name": "withdrewFunds",
      "type": "event"
    },
    {
      "constant": false,
      "inputs": [
        {
          "name": "_targetOrgan",
          "type": "address"
        }
      ],
      "name": "depositToOrgan",
      "outputs": [],
      "payable": true,
      "stateMutability": "payable",
      "type": "function"
    },
    {
      "constant": false,
      "inputs": [
        {
          "name": "_targetOrgan",
          "type": "address"
        },
        {
          "name": "_receiver",
          "type": "address"
        },
        {
          "name": "_amount",
          "type": "uint256"
        }
      ],
      "name": "withdrawOnOrgan",
      "outputs": [],
      "payable": false,
      "stateMutability": "nonpayable",
      "type": "function"
    }
  ],
  "bytecode": "0x608060405260026000556000600560006101000a81548160ff0219169083151502179055506001600560016101000a81548160ff02191690831515021790555034801561004b57600080fd5b50604051608080610a3e8339810180604052608081101561006b57600080fd5b8101908080519060200190929190805190602001909291908051906020019092919080519060200190929190505050600273__procedureLibrary______________________6356e77656909160098460036040518563ffffffff167c01000000000000000000000000000000000000000000000000000000000281526004018085815260200184815260200183815260200182815260200194505050505060006040518083038186803b15801561012257600080fd5b505af4158015610136573d6000803e3d6000fd5b50505050600673__procedureLibrary______________________63e7d640db90918686866040518563ffffffff167c0100000000000000000000000000000000000000000000000000000000028152600401808581526020018473ffffffffffffffffffffffffffffffffffffffff1673ffffffffffffffffffffffffffffffffffffffff1681526020018373ffffffffffffffffffffffffffffffffffffffff1673ffffffffffffffffffffffffffffffffffffffff1681526020018273ffffffffffffffffffffffffffffffffffffffff1673ffffffffffffffffffffffffffffffffffffffff16815260200194505050505060006040518083038186803b15801561024457600080fd5b505af4158015610258573d6000803e3d6000fd5b50505050505050506107cf8061026f6000396000f3fe608060405260043610610083576000357c0100000000000000000000000000000000000000000000000000000000900463ffffffff16806332518e00146100b35780635dbe4d281461012e57806386042717146101595780639397942e1461019d5780639e3dd259146101d6578063a8bef97a14610293578063e80b30a5146102c2575b6100b1600660020160009054906101000a900473ffffffffffffffffffffffffffffffffffffffff166102f1565b005b3480156100bf57600080fd5b5061012c600480360360608110156100d657600080fd5b81019080803573ffffffffffffffffffffffffffffffffffffffff169060200190929190803573ffffffffffffffffffffffffffffffffffffffff16906020019092919080359060200190929190505050610464565b005b34801561013a57600080fd5b506101436105f7565b6040518082815260200191505060405180910390f35b61019b6004803603602081101561016f57600080fd5b81019080803573ffffffffffffffffffffffffffffffffffffffff1690602001909291905050506102f1565b005b3480156101a957600080fd5b506101b26105fd565b60405180848152602001838152602001828152602001935050505060405180910390f35b3480156101e257600080fd5b506101eb610615565b604051808473ffffffffffffffffffffffffffffffffffffffff1673ffffffffffffffffffffffffffffffffffffffff1681526020018373ffffffffffffffffffffffffffffffffffffffff1673ffffffffffffffffffffffffffffffffffffffff1681526020018273ffffffffffffffffffffffffffffffffffffffff1673ffffffffffffffffffffffffffffffffffffffff168152602001935050505060405180910390f35b34801561029f57600080fd5b506102a861068d565b604051808215151515815260200191505060405180910390f35b3480156102ce57600080fd5b506102d76106a0565b604051808215151515815260200191505060405180910390f35b600073ffffffffffffffffffffffffffffffffffffffff16600660000160009054906101000a900473ffffffffffffffffffffffffffffffffffffffff1673ffffffffffffffffffffffffffffffffffffffff1614151561037b5761037a600660000160009054906101000a900473ffffffffffffffffffffffffffffffffffffffff166106b3565b5b8073ffffffffffffffffffffffffffffffffffffffff166108fc349081150290604051600060405180830381858888f193505050501580156103c1573d6000803e3d6000fd5b507f9ba2320cd77403ddf10e62bb77145a1658f32e86971f41eef53b724d39bcb0a8338234604051808473ffffffffffffffffffffffffffffffffffffffff1673ffffffffffffffffffffffffffffffffffffffff1681526020018373ffffffffffffffffffffffffffffffffffffffff1673ffffffffffffffffffffffffffffffffffffffff168152602001828152602001935050505060405180910390a150565b610492600660010160009054906101000a900473ffffffffffffffffffffffffffffffffffffffff166106b3565b60008390508073ffffffffffffffffffffffffffffffffffffffff1663117de2fd84846040518363ffffffff167c0100000000000000000000000000000000000000000000000000000000028152600401808373ffffffffffffffffffffffffffffffffffffffff1673ffffffffffffffffffffffffffffffffffffffff16815260200182815260200192505050600060405180830381600087803b15801561053a57600080fd5b505af115801561054e573d6000803e3d6000fd5b505050507ffa42098c79fa91f5f4432962c3274dd6ff49a5819b2b349ce0350b620d307ebc843384604051808473ffffffffffffffffffffffffffffffffffffffff1673ffffffffffffffffffffffffffffffffffffffff1681526020018373ffffffffffffffffffffffffffffffffffffffff1673ffffffffffffffffffffffffffffffffffffffff168152602001828152602001935050505060405180910390a150505050565b60005481565b60028060000154908060010154908060020154905083565b60068060000160009054906101000a900473ffffffffffffffffffffffffffffffffffffffff16908060010160009054906101000a900473ffffffffffffffffffffffffffffffffffffffff16908060020160009054906101000a900473ffffffffffffffffffffffffffffffffffffffff16905083565b600560009054906101000a900460ff1681565b600560019054906101000a900460ff1681565b600081905060008173ffffffffffffffffffffffffffffffffffffffff16635549ea51336040518263ffffffff167c0100000000000000000000000000000000000000000000000000000000028152600401808273ffffffffffffffffffffffffffffffffffffffff1673ffffffffffffffffffffffffffffffffffffffff16815260200191505060206040518083038186803b15801561075357600080fd5b505afa158015610767573d6000803e3d6000fd5b505050506040513d602081101561077d57600080fd5b81019080805190602001909291905050501415151561079b57600080fd5b60009150505056fea165627a7a72305820406f625f20ba37b7c86cb2f25c34846bae9686f3b8a0c454bf87126d83052bef0029",
  "source": "pragma solidity >=0.4.22 <0.6.0;\n\n// Standard contract for promulgation of a norm\n\nimport \"../standardProcedure.sol\";\nimport \"../Organ.sol\";\n\n\ncontract depositWithdrawFundsProcedure is Procedure{\n    // 1: Cyclical many to one election (Presidential Election)\n    // 2: Cyclical many to many election (Moderators Election)\n    // 3: Simple norm nomination \n    // 4: Simple admins and master nomination\n    // 5: Vote on Norms \n    // 6: Vote on masters and admins \n    // 7: Cooptation\n    // 8: Vote on an expense\n    // 9: Deposit/Withdraw funds on an organ\n\n    using procedureLibrary for procedureLibrary.threeRegisteredOrgans;\n\n    // First stakeholder address is authorizedDepositorsOrganContract\n    // Second stakeholder address is authorizedWithdrawersOrganContract\n    // Third stakeholder address is defaultReceivingOrganContract\n    procedureLibrary.threeRegisteredOrgans public linkedOrgans;\n\n    // Events\n    event depositedFunds(address _from, address _payoutAddress, uint _amount);\n    event withdrewFunds(address _from, address _payoutAddress, uint _amount);\n\n    constructor (address payable _authorizedDepositors, address payable _authorizedWithdrawers, address payable _defaultReceivingOrgan, bytes32 _name) \n    public \n    {\n        procedureInfo.initProcedure(9, _name, 3);\n        linkedOrgans.initThreeRegisteredOrgans(_authorizedDepositors, _authorizedWithdrawers, _defaultReceivingOrgan);\n    }\n\n    function () \n    external \n    payable \n    {\n        depositToOrgan(linkedOrgans.thirdOrganAddress);\n    }\n\n    function depositToOrgan(address payable _targetOrgan) \n    public \n    payable \n    {\n        // Checking if depositors are restricted\n        if (linkedOrgans.firstOrganAddress != address(0)) \n        {\n            procedureLibrary.isAllowed(linkedOrgans.firstOrganAddress);   \n        }\n\n        // Sending funds to organ\n        _targetOrgan.transfer(msg.value);\n\n        // Log event\n        emit depositedFunds(msg.sender, _targetOrgan, msg.value);\n    }\n\n    function withdrawOnOrgan(address payable _targetOrgan, address payable _receiver, uint _amount) \n    public \n    {\n\n        // Checking if withdrawers are restricted\n        procedureLibrary.isAllowed(linkedOrgans.secondOrganAddress);    \n   \n        // Instanciating target organ for withdrawal\n        Organ organToWithdrawFrom = Organ(_targetOrgan);\n\n        // Withdrawing funds from organ\n        organToWithdrawFrom.payout(_receiver, _amount);\n\n        // Log event\n        emit withdrewFunds( _targetOrgan, msg.sender, _amount);\n    }\n}\n\n",
  "sourcePath": "/Users/henrilieutaud/Documents/Mes documents/ESILV/03 Blockchain Programmation/solidity-101/contracts/utils/Kelsen/solidity/contracts/procedures/depositWithdrawFundsProcedure.sol",
  "compiler": {
    "name": "solc",
    "version": "0.5.0+commit.1d4f565a.Emscripten.clang"
  },
  "schemaVersion": "3.0.6",
  "updatedAt": "2019-10-03T20:18:25.182Z",
  "devdoc": {
    "methods": {}
  },
  "userdoc": {
    "methods": {}
  }
}