{
  "contractName": "depositWithdrawFundsProcedure",
  "abi": [
    {
      "constant": true,
      "inputs": [],
      "name": "kelsenVersionNumber",
      "outputs": [
        {
          "name": "",
          "type": "int256"
        }
      ],
      "payable": false,
      "stateMutability": "view",
      "type": "function"
    },
    {
      "constant": true,
      "inputs": [],
      "name": "procedureInfo",
      "outputs": [
        {
          "name": "procedureTypeNumber",
          "type": "uint256"
        },
        {
          "name": "procedureName",
          "type": "bytes32"
        },
        {
          "name": "linkedOrgans",
          "type": "uint256"
        }
      ],
      "payable": false,
      "stateMutability": "view",
      "type": "function"
    },
    {
      "constant": true,
      "inputs": [],
      "name": "linkedOrgans",
      "outputs": [
        {
          "name": "firstOrganAddress",
          "type": "address"
        },
        {
          "name": "secondOrganAddress",
          "type": "address"
        },
        {
          "name": "thirdOrganAddress",
          "type": "address"
        }
      ],
      "payable": false,
      "stateMutability": "view",
      "type": "function"
    },
    {
      "constant": true,
      "inputs": [],
      "name": "isAnOrgan",
      "outputs": [
        {
          "name": "",
          "type": "bool"
        }
      ],
      "payable": false,
      "stateMutability": "view",
      "type": "function"
    },
    {
      "constant": true,
      "inputs": [],
      "name": "isAProcedure",
      "outputs": [
        {
          "name": "",
          "type": "bool"
        }
      ],
      "payable": false,
      "stateMutability": "view",
      "type": "function"
    },
    {
      "inputs": [
        {
          "name": "_authorizedDepositors",
          "type": "address"
        },
        {
          "name": "_authorizedWithdrawers",
          "type": "address"
        },
        {
          "name": "_defaultReceivingOrgan",
          "type": "address"
        },
        {
          "name": "_name",
          "type": "bytes32"
        }
      ],
      "payable": false,
      "stateMutability": "nonpayable",
      "type": "constructor"
    },
    {
      "payable": true,
      "stateMutability": "payable",
      "type": "fallback"
    },
    {
      "anonymous": false,
      "inputs": [
        {
          "indexed": false,
          "name": "_from",
          "type": "address"
        },
        {
          "indexed": false,
          "name": "_payoutAddress",
          "type": "address"
        },
        {
          "indexed": false,
          "name": "_amount",
          "type": "uint256"
        }
      ],
      "name": "depositedFunds",
      "type": "event"
    },
    {
      "anonymous": false,
      "inputs": [
        {
          "indexed": false,
          "name": "_from",
          "type": "address"
        },
        {
          "indexed": false,
          "name": "_payoutAddress",
          "type": "address"
        },
        {
          "indexed": false,
          "name": "_amount",
          "type": "uint256"
        }
      ],
      "name": "withdrewFunds",
      "type": "event"
    },
    {
      "constant": false,
      "inputs": [
        {
          "name": "_targetOrgan",
          "type": "address"
        }
      ],
      "name": "depositToOrgan",
      "outputs": [],
      "payable": true,
      "stateMutability": "payable",
      "type": "function"
    },
    {
      "constant": false,
      "inputs": [
        {
          "name": "_targetOrgan",
          "type": "address"
        },
        {
          "name": "_receiver",
          "type": "address"
        },
        {
          "name": "_amount",
          "type": "uint256"
        }
      ],
      "name": "withdrawOnOrgan",
      "outputs": [],
      "payable": false,
      "stateMutability": "nonpayable",
      "type": "function"
    }
  ],
  "bytecode": "0x608060405260026000556000600560006101000a81548160ff0219169083151502179055506001600560016101000a81548160ff02191690831515021790555034801561004b57600080fd5b50604051608080610a488339810180604052608081101561006b57600080fd5b8101908080519060200190929190805190602001909291908051906020019092919080519060200190929190505050600273__procedureLibrary______________________6356e77656909160098460036040518563ffffffff167c01000000000000000000000000000000000000000000000000000000000281526004018085815260200184815260200183815260200182815260200194505050505060006040518083038186803b15801561012257600080fd5b505af4158015610136573d6000803e3d6000fd5b50505050600673__procedureLibrary______________________63e7d640db90918686866040518563ffffffff167c0100000000000000000000000000000000000000000000000000000000028152600401808581526020018473ffffffffffffffffffffffffffffffffffffffff1673ffffffffffffffffffffffffffffffffffffffff1681526020018373ffffffffffffffffffffffffffffffffffffffff1673ffffffffffffffffffffffffffffffffffffffff1681526020018273ffffffffffffffffffffffffffffffffffffffff1673ffffffffffffffffffffffffffffffffffffffff16815260200194505050505060006040518083038186803b15801561024457600080fd5b505af4158015610258573d6000803e3d6000fd5b50505050505050506107d98061026f6000396000f3fe60806040526004361061008d576000357c0100000000000000000000000000000000000000000000000000000000900480639397942e1161006b5780639397942e146101a75780639e3dd259146101e0578063a8bef97a1461029d578063e80b30a5146102cc5761008d565b806332518e00146100bd5780635dbe4d28146101385780638604271714610163575b6100bb600660020160009054906101000a900473ffffffffffffffffffffffffffffffffffffffff166102fb565b005b3480156100c957600080fd5b50610136600480360360608110156100e057600080fd5b81019080803573ffffffffffffffffffffffffffffffffffffffff169060200190929190803573ffffffffffffffffffffffffffffffffffffffff1690602001909291908035906020019092919050505061046e565b005b34801561014457600080fd5b5061014d610601565b6040518082815260200191505060405180910390f35b6101a56004803603602081101561017957600080fd5b81019080803573ffffffffffffffffffffffffffffffffffffffff1690602001909291905050506102fb565b005b3480156101b357600080fd5b506101bc610607565b60405180848152602001838152602001828152602001935050505060405180910390f35b3480156101ec57600080fd5b506101f561061f565b604051808473ffffffffffffffffffffffffffffffffffffffff1673ffffffffffffffffffffffffffffffffffffffff1681526020018373ffffffffffffffffffffffffffffffffffffffff1673ffffffffffffffffffffffffffffffffffffffff1681526020018273ffffffffffffffffffffffffffffffffffffffff1673ffffffffffffffffffffffffffffffffffffffff168152602001935050505060405180910390f35b3480156102a957600080fd5b506102b2610697565b604051808215151515815260200191505060405180910390f35b3480156102d857600080fd5b506102e16106aa565b604051808215151515815260200191505060405180910390f35b600073ffffffffffffffffffffffffffffffffffffffff16600660000160009054906101000a900473ffffffffffffffffffffffffffffffffffffffff1673ffffffffffffffffffffffffffffffffffffffff1614151561038557610384600660000160009054906101000a900473ffffffffffffffffffffffffffffffffffffffff166106bd565b5b8073ffffffffffffffffffffffffffffffffffffffff166108fc349081150290604051600060405180830381858888f193505050501580156103cb573d6000803e3d6000fd5b507f9ba2320cd77403ddf10e62bb77145a1658f32e86971f41eef53b724d39bcb0a8338234604051808473ffffffffffffffffffffffffffffffffffffffff1673ffffffffffffffffffffffffffffffffffffffff1681526020018373ffffffffffffffffffffffffffffffffffffffff1673ffffffffffffffffffffffffffffffffffffffff168152602001828152602001935050505060405180910390a150565b61049c600660010160009054906101000a900473ffffffffffffffffffffffffffffffffffffffff166106bd565b60008390508073ffffffffffffffffffffffffffffffffffffffff1663117de2fd84846040518363ffffffff167c0100000000000000000000000000000000000000000000000000000000028152600401808373ffffffffffffffffffffffffffffffffffffffff1673ffffffffffffffffffffffffffffffffffffffff16815260200182815260200192505050600060405180830381600087803b15801561054457600080fd5b505af1158015610558573d6000803e3d6000fd5b505050507ffa42098c79fa91f5f4432962c3274dd6ff49a5819b2b349ce0350b620d307ebc843384604051808473ffffffffffffffffffffffffffffffffffffffff1673ffffffffffffffffffffffffffffffffffffffff1681526020018373ffffffffffffffffffffffffffffffffffffffff1673ffffffffffffffffffffffffffffffffffffffff168152602001828152602001935050505060405180910390a150505050565b60005481565b60028060000154908060010154908060020154905083565b60068060000160009054906101000a900473ffffffffffffffffffffffffffffffffffffffff16908060010160009054906101000a900473ffffffffffffffffffffffffffffffffffffffff16908060020160009054906101000a900473ffffffffffffffffffffffffffffffffffffffff16905083565b600560009054906101000a900460ff1681565b600560019054906101000a900460ff1681565b600081905060008173ffffffffffffffffffffffffffffffffffffffff16635549ea51336040518263ffffffff167c0100000000000000000000000000000000000000000000000000000000028152600401808273ffffffffffffffffffffffffffffffffffffffff1673ffffffffffffffffffffffffffffffffffffffff16815260200191505060206040518083038186803b15801561075d57600080fd5b505afa158015610771573d6000803e3d6000fd5b505050506040513d602081101561078757600080fd5b8101908080519060200190929190505050141515156107a557600080fd5b60009150505056fea165627a7a723058207e1b586d7d9b452835a0d1a0897fc61466fb072e5e33f85fa3b212bf168c9e590029",
  "source": "pragma solidity >=0.4.22 <0.6.0;\r\n\r\n// Standard contract for promulgation of a norm\r\n\r\nimport \"../standardProcedure.sol\";\r\nimport \"../Organ.sol\";\r\n\r\n\r\ncontract depositWithdrawFundsProcedure is Procedure{\r\n    // 1: Cyclical many to one election (Presidential Election)\r\n    // 2: Cyclical many to many election (Moderators Election)\r\n    // 3: Simple norm nomination \r\n    // 4: Simple admins and master nomination\r\n    // 5: Vote on Norms \r\n    // 6: Vote on masters and admins \r\n    // 7: Cooptation\r\n    // 8: Vote on an expense\r\n    // 9: Deposit/Withdraw funds on an organ\r\n\r\n    using procedureLibrary for procedureLibrary.threeRegisteredOrgans;\r\n\r\n    // First stakeholder address is authorizedDepositorsOrganContract\r\n    // Second stakeholder address is authorizedWithdrawersOrganContract\r\n    // Third stakeholder address is defaultReceivingOrganContract\r\n    procedureLibrary.threeRegisteredOrgans public linkedOrgans;\r\n\r\n    // Events\r\n    event depositedFunds(address _from, address _payoutAddress, uint _amount);\r\n    event withdrewFunds(address _from, address _payoutAddress, uint _amount);\r\n\r\n    constructor (address payable _authorizedDepositors, address payable _authorizedWithdrawers, address payable _defaultReceivingOrgan, bytes32 _name) \r\n    public \r\n    {\r\n        procedureInfo.initProcedure(9, _name, 3);\r\n        linkedOrgans.initThreeRegisteredOrgans(_authorizedDepositors, _authorizedWithdrawers, _defaultReceivingOrgan);\r\n    }\r\n\r\n    function () \r\n    external \r\n    payable \r\n    {\r\n        depositToOrgan(linkedOrgans.thirdOrganAddress);\r\n    }\r\n\r\n    function depositToOrgan(address payable _targetOrgan) \r\n    public \r\n    payable \r\n    {\r\n        // Checking if depositors are restricted\r\n        if (linkedOrgans.firstOrganAddress != address(0)) \r\n        {\r\n            procedureLibrary.isAllowed(linkedOrgans.firstOrganAddress);   \r\n        }\r\n\r\n        // Sending funds to organ\r\n        _targetOrgan.transfer(msg.value);\r\n\r\n        // Log event\r\n        emit depositedFunds(msg.sender, _targetOrgan, msg.value);\r\n    }\r\n\r\n    function withdrawOnOrgan(address payable _targetOrgan, address payable _receiver, uint _amount) \r\n    public \r\n    {\r\n\r\n        // Checking if withdrawers are restricted\r\n        procedureLibrary.isAllowed(linkedOrgans.secondOrganAddress);    \r\n   \r\n        // Instanciating target organ for withdrawal\r\n        Organ organToWithdrawFrom = Organ(_targetOrgan);\r\n\r\n        // Withdrawing funds from organ\r\n        organToWithdrawFrom.payout(_receiver, _amount);\r\n\r\n        // Log event\r\n        emit withdrewFunds( _targetOrgan, msg.sender, _amount);\r\n    }\r\n}\r\n\r\n",
  "sourcePath": "C:/Users/hlieutaud/Documents/Workshop/Solidity/solidity-101/contracts/utils/Kelsen/solidity/contracts/procedures/depositWithdrawFundsProcedure.sol",
  "compiler": {
    "name": "solc",
    "version": "0.5.4+commit.9549d8ff.Emscripten.clang"
  },
  "schemaVersion": "3.0.10",
  "updatedAt": "2019-10-01T09:02:18.848Z",
  "devdoc": {
    "methods": {}
  },
  "userdoc": {
    "methods": {}
  }
}