{
  "contractName": "ex01",
  "abi": [
    {
      "inputs": [
        {
          "internalType": "contract ERC20TD",
          "name": "_TDERC20",
          "type": "address"
        }
      ],
      "stateMutability": "nonpayable",
      "type": "constructor"
    },
    {
      "anonymous": false,
      "inputs": [
        {
          "indexed": false,
          "internalType": "address",
          "name": "erc20Address",
          "type": "address"
        }
      ],
      "name": "constructedCorrectly",
      "type": "event"
    },
    {
      "inputs": [
        {
          "internalType": "address",
          "name": "",
          "type": "address"
        }
      ],
      "name": "hasCompletedExercice",
      "outputs": [
        {
          "internalType": "bool",
          "name": "",
          "type": "bool"
        }
      ],
      "stateMutability": "view",
      "type": "function"
    },
    {
      "inputs": [
        {
          "internalType": "address payable",
          "name": "_studentAddress",
          "type": "address"
        }
      ],
      "name": "ping",
      "outputs": [],
      "stateMutability": "nonpayable",
      "type": "function"
    }
  ],
  "bytecode": "0x608060405234801561001057600080fd5b506040516103d23803806103d28339818101604052602081101561003357600080fd5b810190808051906020019092919050505080806000806101000a81548173ffffffffffffffffffffffffffffffffffffffff021916908373ffffffffffffffffffffffffffffffffffffffff1602179055507f2915b3b4e0613c6b63dca39a375dd8c9f1de68d9e208a0713b7624260e2d08126000809054906101000a900473ffffffffffffffffffffffffffffffffffffffff16604051808273ffffffffffffffffffffffffffffffffffffffff1673ffffffffffffffffffffffffffffffffffffffff16815260200191505060405180910390a150506102b88061011a6000396000f3fe608060405234801561001057600080fd5b50600436106100365760003560e01c806314df9e431461003b578063c42365c61461007f575b600080fd5b61007d6004803603602081101561005157600080fd5b81019080803573ffffffffffffffffffffffffffffffffffffffff1690602001909291905050506100db565b005b6100c16004803603602081101561009557600080fd5b81019080803573ffffffffffffffffffffffffffffffffffffffff1690602001909291905050506100f2565b604051808215151515815260200191505060405180910390f35b6100e481610112565b6100ef60028261016c565b50565b60016020528060005260406000206000915054906101000a900460ff1681565b60018060008373ffffffffffffffffffffffffffffffffffffffff1673ffffffffffffffffffffffffffffffffffffffff16815260200190815260200160002060006101000a81548160ff02191690831515021790555050565b600160008273ffffffffffffffffffffffffffffffffffffffff1673ffffffffffffffffffffffffffffffffffffffff16815260200190815260200160002060009054906101000a900460ff1661027e576000809054906101000a900473ffffffffffffffffffffffffffffffffffffffff1673ffffffffffffffffffffffffffffffffffffffff1663158a498833846040518363ffffffff1660e01b8152600401808373ffffffffffffffffffffffffffffffffffffffff1673ffffffffffffffffffffffffffffffffffffffff16815260200182815260200192505050600060405180830381600087803b15801561026557600080fd5b505af1158015610279573d6000803e3d6000fd5b505050505b505056fea26469706673582212200dcf519628be4c50406b9e1b7c6966839d8c008bd9f5b10a4f4477704847e58f64736f6c63430006020033",
  "source": "pragma solidity ^0.6.0;\n\nimport \"../exerciceTemplate.sol\";\n\n/*\nExercice 1: Creating an Ethereum Public address\nIn this exercice, you need to:\n- Create an Ethereum public address\n- Send it to the teacher via email\n- The teacher calls function newStudentInClass()\n- Your points are credited\n*/\n/*\nWhat you need to know to complete this exercice\n\nA) Create a wallet using Metamask (http://metamask.io)\n\n*/\ncontract ex01 is exerciceTemplate {\n\n\tconstructor(ERC20TD _TDERC20) \n  public \n  exerciceTemplate(_TDERC20)\n  {\n  }\n  \n  function ping(address payable _studentAddress) \n  public  \n  {\n    // Validating exercice\n    validateExercice(_studentAddress);\n    creditStudent(2, _studentAddress);\n  }\n\n}\n",
  "sourcePath": "/Users/henrilieutaud/Documents/Mes documents/ESILV/Workshop/solidity-101/contracts/exercices/ex01.sol",
  "compiler": {
    "name": "solc",
    "version": "0.6.2+commit.bacdbe57.Emscripten.clang"
  },
  "schemaVersion": "3.3.4",
  "updatedAt": "2022-01-14T18:25:32.340Z",
  "devdoc": {
    "methods": {}
  },
  "userdoc": {
    "methods": {}
  }
}