{
  "contractName": "ex02",
  "abi": [
    {
      "inputs": [
        {
          "internalType": "contract ERC20TD",
          "name": "_TDERC20",
          "type": "address"
        }
      ],
      "stateMutability": "nonpayable",
      "type": "constructor"
    },
    {
      "anonymous": false,
      "inputs": [
        {
          "indexed": false,
          "internalType": "address",
          "name": "erc20Address",
          "type": "address"
        }
      ],
      "name": "constructedCorrectly",
      "type": "event"
    },
    {
      "stateMutability": "payable",
      "type": "fallback"
    },
    {
      "inputs": [
        {
          "internalType": "address",
          "name": "",
          "type": "address"
        }
      ],
      "name": "hasCompletedExercice",
      "outputs": [
        {
          "internalType": "bool",
          "name": "",
          "type": "bool"
        }
      ],
      "stateMutability": "view",
      "type": "function"
    },
    {
      "stateMutability": "payable",
      "type": "receive"
    }
  ],
  "bytecode": "0x608060405234801561001057600080fd5b506040516103b83803806103b88339818101604052602081101561003357600080fd5b810190808051906020019092919050505080806000806101000a81548173ffffffffffffffffffffffffffffffffffffffff021916908373ffffffffffffffffffffffffffffffffffffffff1602179055507f2915b3b4e0613c6b63dca39a375dd8c9f1de68d9e208a0713b7624260e2d08126000809054906101000a900473ffffffffffffffffffffffffffffffffffffffff16604051808273ffffffffffffffffffffffffffffffffffffffff1673ffffffffffffffffffffffffffffffffffffffff16815260200191505060405180910390a1505061029e8061011a6000396000f3fe6080604052600436106100225760003560e01c8063c42365c61461006f5761004b565b3661004b57600034141561003557600080fd5b61003e336100d8565b610049600233610132565b005b600034141561005957600080fd5b610062336100d8565b61006d600233610132565b005b34801561007b57600080fd5b506100be6004803603602081101561009257600080fd5b81019080803573ffffffffffffffffffffffffffffffffffffffff169060200190929190505050610248565b604051808215151515815260200191505060405180910390f35b60018060008373ffffffffffffffffffffffffffffffffffffffff1673ffffffffffffffffffffffffffffffffffffffff16815260200190815260200160002060006101000a81548160ff02191690831515021790555050565b600160008273ffffffffffffffffffffffffffffffffffffffff1673ffffffffffffffffffffffffffffffffffffffff16815260200190815260200160002060009054906101000a900460ff16610244576000809054906101000a900473ffffffffffffffffffffffffffffffffffffffff1673ffffffffffffffffffffffffffffffffffffffff1663158a498833846040518363ffffffff1660e01b8152600401808373ffffffffffffffffffffffffffffffffffffffff1673ffffffffffffffffffffffffffffffffffffffff16815260200182815260200192505050600060405180830381600087803b15801561022b57600080fd5b505af115801561023f573d6000803e3d6000fd5b505050505b5050565b60016020528060005260406000206000915054906101000a900460ff168156fea264697066735822122008db63dfcc6b7b599d546d03400dea8db6aa88479ca671283ae2d4b79982069664736f6c63430006020033",
  "source": "pragma solidity ^0.6.0;\n\nimport \"../exerciceTemplate.sol\";\n\n/*\nExercice 2: Sending ETH to a public address\nIn this exercice, you need to:\n- Send ETH to a public address (this contract's)\n- Your points are credited by the contract\n*/\n/*\nWhat you need to know to complete this exercice\n\nA) What was included in the previous exercices\nB) The function () is designed to receive transactions that include nothing but funds. If not specified, the contract can not receive this kind of transactions.\nhttps://solidity.readthedocs.io/en/v0.4.25/contracts.html#fallback-function\nC) The require() function is used to specify conditions that must be met for the contract to execute.\nhttps://solidity.readthedocs.io/en/develop/control-structures.html?highlight=require(\nD) The 'msg' object holds information regarding the account sending the transaction:\n- msg.sender is the public address of the sender\n- msg.value is the ETH value sent with this transaction \nhttps://solidity.readthedocs.io/en/develop/miscellaneous.html#index-4\n*/\ncontract ex02 is exerciceTemplate {\n\n\tconstructor(ERC20TD _TDERC20) \n  public \n  exerciceTemplate(_TDERC20)\n  {\n  }\n  \n  fallback () \n  external \n  payable  \n  {\n\n  \trequire(msg.value != 0);\n\n  \t// Validating exercice\n    validateExercice(msg.sender);\n    creditStudent(2, msg.sender);\n\n  }\n\n  receive () external payable \n  {\n    require(msg.value != 0);\n\n    // Validating exercice\n    validateExercice(msg.sender);\n    creditStudent(2, msg.sender);\n  }\n\n\n}\n",
  "sourcePath": "/Users/henrilieutaud/Documents/Mes documents/ESILV/Workshop/solidity-101/contracts/exercices/ex02.sol",
  "compiler": {
    "name": "solc",
    "version": "0.6.2+commit.bacdbe57.Emscripten.clang"
  },
  "schemaVersion": "3.3.4",
  "updatedAt": "2022-01-14T18:25:32.342Z",
  "devdoc": {
    "methods": {}
  },
  "userdoc": {
    "methods": {}
  }
}