{
  "contractName": "ex03",
  "abi": [
    {
      "inputs": [
        {
          "internalType": "contract ERC20TD",
          "name": "_TDERC20",
          "type": "address"
        }
      ],
      "stateMutability": "nonpayable",
      "type": "constructor"
    },
    {
      "anonymous": false,
      "inputs": [
        {
          "indexed": false,
          "internalType": "address",
          "name": "erc20Address",
          "type": "address"
        }
      ],
      "name": "constructedCorrectly",
      "type": "event"
    },
    {
      "inputs": [
        {
          "internalType": "address",
          "name": "",
          "type": "address"
        }
      ],
      "name": "hasCompletedExercice",
      "outputs": [
        {
          "internalType": "bool",
          "name": "",
          "type": "bool"
        }
      ],
      "stateMutability": "view",
      "type": "function",
      "constant": true
    },
    {
      "inputs": [
        {
          "internalType": "uint256",
          "name": "_studentUint",
          "type": "uint256"
        }
      ],
      "name": "claimPoints",
      "outputs": [],
      "stateMutability": "nonpayable",
      "type": "function"
    }
  ],
  "bytecode": "0x608060405234801561001057600080fd5b506040516104343803806104348339818101604052602081101561003357600080fd5b810190808051906020019092919050505080806000806101000a81548173ffffffffffffffffffffffffffffffffffffffff021916908373ffffffffffffffffffffffffffffffffffffffff1602179055507f2915b3b4e0613c6b63dca39a375dd8c9f1de68d9e208a0713b7624260e2d08126000809054906101000a900473ffffffffffffffffffffffffffffffffffffffff16604051808273ffffffffffffffffffffffffffffffffffffffff1673ffffffffffffffffffffffffffffffffffffffff16815260200191505060405180910390a1505061031a8061011a6000396000f3fe608060405234801561001057600080fd5b50600436106100365760003560e01c80633ac795de1461003b578063c42365c614610069575b600080fd5b6100676004803603602081101561005157600080fd5b81019080803590602001909291905050506100c5565b005b6100ab6004803603602081101561007f57600080fd5b81019080803573ffffffffffffffffffffffffffffffffffffffff169060200190929190505050610154565b604051808215151515815260200191505060405180910390f35b6202c18a811461013d576040517f08c379a00000000000000000000000000000000000000000000000000000000081526004018080602001828103825260128152602001807f56616c756520697320696e636f7272656374000000000000000000000000000081525060200191505060405180910390fd5b610148600233610174565b6101513361028a565b50565b60016020528060005260406000206000915054906101000a900460ff1681565b600160008273ffffffffffffffffffffffffffffffffffffffff1673ffffffffffffffffffffffffffffffffffffffff16815260200190815260200160002060009054906101000a900460ff16610286576000809054906101000a900473ffffffffffffffffffffffffffffffffffffffff1673ffffffffffffffffffffffffffffffffffffffff1663158a498833846040518363ffffffff1660e01b8152600401808373ffffffffffffffffffffffffffffffffffffffff1673ffffffffffffffffffffffffffffffffffffffff16815260200182815260200192505050600060405180830381600087803b15801561026d57600080fd5b505af1158015610281573d6000803e3d6000fd5b505050505b5050565b60018060008373ffffffffffffffffffffffffffffffffffffffff1673ffffffffffffffffffffffffffffffffffffffff16815260200190815260200160002060006101000a81548160ff0219169083151502179055505056fea264697066735822122039eef35374cd677fee2a06cd6aebb041388151040545300456a223beee5dfe7564736f6c63430006020033",
  "source": "pragma solidity ^0.6.0;\n\nimport \"../exerciceTemplate.sol\";\n\n/*\nExercice 3: Using a simple public contract function\nIn this exercice, you need to:\n- Use this contract's claimPoints() function\n- Understand the require() keyword and send the correct value to pass the requirement\n- Your points are credited by the contract\n*/\n \n/*\nWhat you need to know to complete this exercice\nA) What was included in the previous exercices\nB) Understanding requires https://docs.soliditylang.org/en/v0.6.0/control-structures.html#id4\n*/\ncontract ex03 is exerciceTemplate {\n\n  constructor(ERC20TD _TDERC20) \n  public \n  exerciceTemplate(_TDERC20)\n  {\n  }\n  \n  function claimPoints(uint _studentUint) \n  public \n  {\n\n  \trequire(_studentUint == 180618, \"Value is incorrect\");\n\n  \t// Validating exercice\n    creditStudent(2, msg.sender);\n    validateExercice(msg.sender);\n\n  }\n\n}\n",
  "sourcePath": "/Users/henrilieutaud/Documents/Workshop/Solidity/solidity-101/contracts/exercices/ex03.sol",
  "compiler": {
    "name": "solc",
    "version": "0.6.2+commit.bacdbe57.Emscripten.clang"
  },
  "schemaVersion": "3.4.7",
  "updatedAt": "2022-09-30T13:10:11.334Z",
  "networkType": "ethereum",
  "devdoc": {
    "methods": {}
  },
  "userdoc": {
    "methods": {}
  }
}