{
  "contractName": "ex07",
  "abi": [
    {
      "inputs": [
        {
          "internalType": "contract ERC20TD",
          "name": "_TDERC20",
          "type": "address"
        }
      ],
      "stateMutability": "nonpayable",
      "type": "constructor"
    },
    {
      "anonymous": false,
      "inputs": [
        {
          "indexed": false,
          "internalType": "address",
          "name": "erc20Address",
          "type": "address"
        }
      ],
      "name": "constructedCorrectly",
      "type": "event"
    },
    {
      "anonymous": false,
      "inputs": [
        {
          "indexed": false,
          "internalType": "uint256",
          "name": "myVariable",
          "type": "uint256"
        }
      ],
      "name": "showPrivateVariableInEvent",
      "type": "event"
    },
    {
      "inputs": [
        {
          "internalType": "address",
          "name": "",
          "type": "address"
        }
      ],
      "name": "exerciceWasStarted",
      "outputs": [
        {
          "internalType": "bool",
          "name": "",
          "type": "bool"
        }
      ],
      "stateMutability": "view",
      "type": "function",
      "constant": true
    },
    {
      "inputs": [
        {
          "internalType": "address",
          "name": "",
          "type": "address"
        }
      ],
      "name": "hasCompletedExercice",
      "outputs": [
        {
          "internalType": "bool",
          "name": "",
          "type": "bool"
        }
      ],
      "stateMutability": "view",
      "type": "function",
      "constant": true
    },
    {
      "inputs": [],
      "name": "nextValueStoreRank",
      "outputs": [
        {
          "internalType": "uint256",
          "name": "",
          "type": "uint256"
        }
      ],
      "stateMutability": "view",
      "type": "function",
      "constant": true
    },
    {
      "inputs": [
        {
          "internalType": "uint256[20]",
          "name": "_randomValuesStore",
          "type": "uint256[20]"
        }
      ],
      "name": "setRandomValueStore",
      "outputs": [],
      "stateMutability": "nonpayable",
      "type": "function"
    },
    {
      "inputs": [],
      "name": "assignRank",
      "outputs": [],
      "stateMutability": "nonpayable",
      "type": "function"
    },
    {
      "inputs": [],
      "name": "fireEvent",
      "outputs": [],
      "stateMutability": "nonpayable",
      "type": "function"
    },
    {
      "inputs": [
        {
          "internalType": "uint256",
          "name": "_privateValue",
          "type": "uint256"
        }
      ],
      "name": "showYouKnowPrivateValue",
      "outputs": [],
      "stateMutability": "nonpayable",
      "type": "function"
    }
  ],
  "bytecode": "0x608060405234801561001057600080fd5b506040516108773803806108778339818101604052602081101561003357600080fd5b810190808051906020019092919050505080806000806101000a81548173ffffffffffffffffffffffffffffffffffffffff021916908373ffffffffffffffffffffffffffffffffffffffff1602179055507f2915b3b4e0613c6b63dca39a375dd8c9f1de68d9e208a0713b7624260e2d08126000809054906101000a900473ffffffffffffffffffffffffffffffffffffffff16604051808273ffffffffffffffffffffffffffffffffffffffff1673ffffffffffffffffffffffffffffffffffffffff16815260200191505060405180910390a1505061075d8061011a6000396000f3fe608060405234801561001057600080fd5b506004361061007d5760003560e01c806393e64dc21161005b57806393e64dc214610106578063c42365c614610110578063e7c027271461016c578063f6dd339e146101d35761007d565b806339119dce146100825780634185df15146100a05780638f63cb20146100aa575b600080fd5b61008a610201565b6040518082815260200191505060405180910390f35b6100a8610207565b005b6100ec600480360360208110156100c057600080fd5b81019080803573ffffffffffffffffffffffffffffffffffffffff169060200190929190505050610282565b604051808215151515815260200191505060405180910390f35b61010e6102a2565b005b6101526004803603602081101561012657600080fd5b81019080803573ffffffffffffffffffffffffffffffffffffffff169060200190929190505050610374565b604051808215151515815260200191505060405180910390f35b6101d1600480360361028081101561018357600080fd5b810190808061028001906014806020026040519081016040528092919082601460200280828437600081840152601f19601f8201169050808301925050505050509192919290505050610394565b005b6101ff600480360360208110156101e957600080fd5b8101908080359060200190929190505050610493565b005b60185481565b7fd6f3794025db9a72496b95eec7cc40ca87e4e97185c57b90d24356b988fed1586020600260003373ffffffffffffffffffffffffffffffffffffffff1673ffffffffffffffffffffffffffffffffffffffff16815260200190815260200160002054016040518082815260200191505060405180910390a1565b60036020528060005260406000206000915054906101000a900460ff1681565b6004601854601481106102b157fe5b0154600260003373ffffffffffffffffffffffffffffffffffffffff1673ffffffffffffffffffffffffffffffffffffffff16815260200190815260200160002081905550600160186000828254019250508190555060146018541061031a5760006018819055505b6001600360003373ffffffffffffffffffffffffffffffffffffffff1673ffffffffffffffffffffffffffffffffffffffff16815260200190815260200160002060006101000a81548160ff021916908315150217905550565b60016020528060005260406000206000915054906101000a900460ff1681565b6000809054906101000a900473ffffffffffffffffffffffffffffffffffffffff1673ffffffffffffffffffffffffffffffffffffffff1663f0a47f78336040518263ffffffff1660e01b8152600401808273ffffffffffffffffffffffffffffffffffffffff1673ffffffffffffffffffffffffffffffffffffffff16815260200191505060206040518083038186803b15801561043257600080fd5b505afa158015610446573d6000803e3d6000fd5b505050506040513d602081101561045c57600080fd5b810190808051906020019092919050505061047657600080fd5b8060049060146104879291906106c2565b50600060188190555050565b80600260003373ffffffffffffffffffffffffffffffffffffffff1673ffffffffffffffffffffffffffffffffffffffff16815260200190815260200160002054146104de57600080fd5b60011515600360003373ffffffffffffffffffffffffffffffffffffffff1673ffffffffffffffffffffffffffffffffffffffff16815260200190815260200160002060009054906101000a900460ff1615151461053b57600080fd5b61054433610552565b61054f6002336105ac565b50565b60018060008373ffffffffffffffffffffffffffffffffffffffff1673ffffffffffffffffffffffffffffffffffffffff16815260200190815260200160002060006101000a81548160ff02191690831515021790555050565b600160008273ffffffffffffffffffffffffffffffffffffffff1673ffffffffffffffffffffffffffffffffffffffff16815260200190815260200160002060009054906101000a900460ff166106be576000809054906101000a900473ffffffffffffffffffffffffffffffffffffffff1673ffffffffffffffffffffffffffffffffffffffff1663158a498833846040518363ffffffff1660e01b8152600401808373ffffffffffffffffffffffffffffffffffffffff1673ffffffffffffffffffffffffffffffffffffffff16815260200182815260200192505050600060405180830381600087803b1580156106a557600080fd5b505af11580156106b9573d6000803e3d6000fd5b505050505b5050565b82601481019282156106f1579160200282015b828111156106f05782518255916020019190600101906106d5565b5b5090506106fe9190610702565b5090565b61072491905b80821115610720576000816000905550600101610708565b5090565b9056fea2646970667358221220543c77b05d6edb494c3fed9bfa77a2eb2af5641e02e702155bd0a0b36e2bf44d64736f6c63430006020033",
  "source": "pragma solidity ^0.6.0;\n\n\nimport \"../exerciceTemplate.sol\";\n\n/*\nExercice 7: Events\nIn this exercice, you need to:\n- Use function assignRank() to receive a rank in the random value store\n- Use a function to trigger an event\n- Use Etherscan to analyse this event\n- Use a function to show you know the correct value of a private variable\n- Your points are credited by the contract\n*/\n\n/*\nWhat you need to know to complete this exercice\nA) What was included in the previous exercices\nB) Events are used to log data that is accessible from a full node, but not stored in the contracts variables.\nhttps://solidity.readthedocs.io/en/develop/introduction-to-smart-contracts.html#index-2\nC) Etherscan.io https://etherscan.io/ lets you visualize events that were fired during a given transaction\n\n*/\ncontract ex07 is exerciceTemplate {\n\n\tmapping(address => uint) private privateValues;\n  mapping(address => bool) public exerciceWasStarted;\n  uint[20] private randomValuesStore;\n  uint public nextValueStoreRank;\n\n  event showPrivateVariableInEvent(uint myVariable);\n  \n  constructor(ERC20TD _TDERC20) \n  public \n  exerciceTemplate(_TDERC20)\n  {\n  }\n\n  function setRandomValueStore(uint[20] memory _randomValuesStore) \n  public \n  onlyTeachers\n  {\n   randomValuesStore = _randomValuesStore;\n   nextValueStoreRank = 0;\n  }\n\n  function assignRank() \n  public  \n  {\n    privateValues[msg.sender] = randomValuesStore[nextValueStoreRank];\n    nextValueStoreRank += 1;\n    if (nextValueStoreRank >= randomValuesStore.length)\n    {\n     nextValueStoreRank = 0; \n    }\n    exerciceWasStarted[msg.sender] = true;\n  }\n  \n  function fireEvent() \n  public  \n  {\n    emit showPrivateVariableInEvent(privateValues[msg.sender]+32);\n  }\n\n  function showYouKnowPrivateValue(uint _privateValue) \n  public  \n  {\n    require(privateValues[msg.sender] == _privateValue);\n    require(exerciceWasStarted[msg.sender] == true);\n    \n    // Validating exercice\n    validateExercice(msg.sender);\n    creditStudent(2, msg.sender);\n\n  }\n\n}\n",
  "sourcePath": "/Users/henrilieutaud/Documents/Workshop/Solidity/solidity-101/contracts/exercices/ex07.sol",
  "compiler": {
    "name": "solc",
    "version": "0.6.2+commit.bacdbe57.Emscripten.clang"
  },
  "schemaVersion": "3.4.4",
  "updatedAt": "2022-01-28T15:17:45.267Z",
  "networkType": "ethereum",
  "devdoc": {
    "methods": {}
  },
  "userdoc": {
    "methods": {}
  }
}