{
  "contractName": "ex09",
  "abi": [
    {
      "inputs": [
        {
          "internalType": "contract ERC20TD",
          "name": "_TDERC20",
          "type": "address"
        }
      ],
      "stateMutability": "nonpayable",
      "type": "constructor"
    },
    {
      "anonymous": false,
      "inputs": [
        {
          "indexed": false,
          "internalType": "address",
          "name": "_lazyStudent",
          "type": "address"
        }
      ],
      "name": "aLazyStudent",
      "type": "event"
    },
    {
      "anonymous": false,
      "inputs": [
        {
          "indexed": false,
          "internalType": "address",
          "name": "erc20Address",
          "type": "address"
        }
      ],
      "name": "constructedCorrectly",
      "type": "event"
    },
    {
      "inputs": [
        {
          "internalType": "address",
          "name": "",
          "type": "address"
        }
      ],
      "name": "hasCompletedExercice",
      "outputs": [
        {
          "internalType": "bool",
          "name": "",
          "type": "bool"
        }
      ],
      "stateMutability": "view",
      "type": "function"
    },
    {
      "inputs": [
        {
          "internalType": "uint256",
          "name": "_aValueToInput",
          "type": "uint256"
        }
      ],
      "name": "collectYourPoints",
      "outputs": [],
      "stateMutability": "nonpayable",
      "type": "function"
    },
    {
      "inputs": [
        {
          "internalType": "uint256",
          "name": "_aValueToInput",
          "type": "uint256"
        }
      ],
      "name": "collectYourPointsAgain",
      "outputs": [],
      "stateMutability": "nonpayable",
      "type": "function"
    }
  ],
  "bytecode": "0x608060405234801561001057600080fd5b506040516104823803806104828339818101604052602081101561003357600080fd5b810190808051906020019092919050505080806000806101000a81548173ffffffffffffffffffffffffffffffffffffffff021916908373ffffffffffffffffffffffffffffffffffffffff1602179055507f2915b3b4e0613c6b63dca39a375dd8c9f1de68d9e208a0713b7624260e2d08126000809054906101000a900473ffffffffffffffffffffffffffffffffffffffff16604051808273ffffffffffffffffffffffffffffffffffffffff1673ffffffffffffffffffffffffffffffffffffffff16815260200191505060405180910390a150506103688061011a6000396000f3fe608060405234801561001057600080fd5b50600436106100415760003560e01c8063109f7fa11461004657806356f8ce4214610074578063c42365c6146100a2575b600080fd5b6100726004803603602081101561005c57600080fd5b81019080803590602001909291905050506100fe565b005b6100a06004803603602081101561008a57600080fd5b810190808035906020019092919050505061017c565b005b6100e4600480360360208110156100b857600080fd5b81019080803573ffffffffffffffffffffffffffffffffffffffff1690602001909291905050506101a2565b604051808215151515815260200191505060405180910390f35b620efed2811461010d57600080fd5b7f70f7e9c4ba2396cd38969e3f740193e06fafaa3f1dbe8bb457bbcec7aab15b0f33604051808273ffffffffffffffffffffffffffffffffffffffff1673ffffffffffffffffffffffffffffffffffffffff16815260200191505060405180910390a1610179336101c2565b50565b620ed7c2811461018b57600080fd5b610194336101c2565b61019f60023361021c565b50565b60016020528060005260406000206000915054906101000a900460ff1681565b60018060008373ffffffffffffffffffffffffffffffffffffffff1673ffffffffffffffffffffffffffffffffffffffff16815260200190815260200160002060006101000a81548160ff02191690831515021790555050565b600160008273ffffffffffffffffffffffffffffffffffffffff1673ffffffffffffffffffffffffffffffffffffffff16815260200190815260200160002060009054906101000a900460ff1661032e576000809054906101000a900473ffffffffffffffffffffffffffffffffffffffff1673ffffffffffffffffffffffffffffffffffffffff1663158a498882846040518363ffffffff1660e01b8152600401808373ffffffffffffffffffffffffffffffffffffffff1673ffffffffffffffffffffffffffffffffffffffff16815260200182815260200192505050600060405180830381600087803b15801561031557600080fd5b505af1158015610329573d6000803e3d6000fd5b505050505b505056fea264697066735822122079fa6f4997ef8c7596ff523292c09d768269d110f1ee49c3f32126ea2c46bc6364736f6c63430006020033",
  "source": "pragma solidity ^0.6.0;\n\n\nimport \"../exerciceTemplate.sol\";\n\n/*\nExercice 9: Visualizing code through Github history of commits\nIn this exercice, you need to:\n- Use Github to explore this contract's code history of revision\n- Find the last visible version of the contract code\n- Use a function \n- Your points are credited by the contract\n*/ \n\n/*\nWhat you need to know to complete this exercice\nA) What was included in the previous exercices\nB) The history of contract modification is visible on https://github.com/l-henri/solidity-101\nC) Only using the ABI of this contract puts you at risk of not getting the points you deserve\n\n*/\n\n\ncontract ex09 is exerciceTemplate { \n\n      event aLazyStudent(address _lazyStudent); \n\n  constructor(ERC20TD _TDERC20) \n  public \n  exerciceTemplate(_TDERC20)\n  {\n  }\n\n// Find the code elsewhere\n\n  function collectYourPoints(uint _aValueToInput)   \n  public         \n  { \n    require(_aValueToInput == 982738);  \n    emit aLazyStudent(msg.sender);  \n\n    // Validating exercice WITHOUT crediting points. Be careful, calling this function will NOT credit points to you!   \n    validateExercice(msg.sender);   \n\n  } \n\n  function collectYourPointsAgain(uint _aValueToInput)  \n  public         \n  { \n    require(_aValueToInput == 972738);  \n\n    // Validating exercice, getting points  \n    validateExercice(msg.sender);   \n    creditStudent(2, msg.sender); \n\n  }\n}",
  "sourcePath": "/Users/henrilieutaud/Documents/Workshop/Solidity/solidity-101/contracts/exercices/ex09.sol",
  "compiler": {
    "name": "solc",
    "version": "0.6.2+commit.bacdbe57.Emscripten.clang"
  },
  "schemaVersion": "3.4.7",
  "updatedAt": "2022-10-07T13:56:41.622Z",
  "devdoc": {
    "methods": {}
  },
  "userdoc": {
    "methods": {}
  }
}