{
  "contractName": "ex09",
  "abi": [
    {
      "inputs": [
        {
          "internalType": "contract ERC20TD",
          "name": "_TDERC20",
          "type": "address"
        }
      ],
      "stateMutability": "nonpayable",
      "type": "constructor"
    },
    {
      "anonymous": false,
      "inputs": [
        {
          "indexed": false,
          "internalType": "address",
          "name": "erc20Address",
          "type": "address"
        }
      ],
      "name": "constructedCorrectly",
      "type": "event"
    },
    {
      "inputs": [
        {
          "internalType": "address",
          "name": "",
          "type": "address"
        }
      ],
      "name": "hasCompletedExercice",
      "outputs": [
        {
          "internalType": "bool",
          "name": "",
          "type": "bool"
        }
      ],
      "stateMutability": "view",
      "type": "function"
    }
  ],
  "bytecode": "0x608060405234801561001057600080fd5b506040516101f53803806101f58339818101604052602081101561003357600080fd5b810190808051906020019092919050505080806000806101000a81548173ffffffffffffffffffffffffffffffffffffffff021916908373ffffffffffffffffffffffffffffffffffffffff1602179055507f2915b3b4e0613c6b63dca39a375dd8c9f1de68d9e208a0713b7624260e2d08126000809054906101000a900473ffffffffffffffffffffffffffffffffffffffff16604051808273ffffffffffffffffffffffffffffffffffffffff1673ffffffffffffffffffffffffffffffffffffffff16815260200191505060405180910390a1505060dc806101196000396000f3fe6080604052348015600f57600080fd5b506004361060285760003560e01c8063c42365c614602d575b600080fd5b606c60048036036020811015604157600080fd5b81019080803573ffffffffffffffffffffffffffffffffffffffff1690602001909291905050506086565b604051808215151515815260200191505060405180910390f35b60016020528060005260406000206000915054906101000a900460ff168156fea26469706673582212207cc43ce53d7fe47f64b5ec5f0686ed717cf0ca9be8f2fd8014e65ae401d05b6464736f6c63430006020033",
  "source": "pragma solidity ^0.6.0;\n\n\nimport \"../exerciceTemplate.sol\";\n\n/*\nExercice 9: Visualizing code through Github history of commits\nIn this exercice, you need to:\n- Use Github to explore this contract's code history of revision\n- Find the last visible version of the contract code\n- Use a function \n- Your points are credited by the contract\n*/ \n\n/*\nWhat you need to know to complete this exercice\nA) What was included in the previous exercices\nB) The history of contract modification is visible on https://github.com/l-henri/solidity-101\nC) Only using the ABI of this contract puts you at risk of not getting the points you deserve\n\n*/\n\n\ncontract ex09 is exerciceTemplate {\t\n\tconstructor(ERC20TD _TDERC20) \n  public \n  exerciceTemplate(_TDERC20)\n  {\n  }\n\n// Find the code elsewhere\n}",
  "sourcePath": "/Users/henrilieutaud/Documents/Mes documents/ESILV/Workshop/solidity-101/contracts/exercices/ex09.sol",
  "compiler": {
    "name": "solc",
    "version": "0.6.2+commit.bacdbe57.Emscripten.clang"
  },
  "schemaVersion": "3.3.4",
  "updatedAt": "2022-01-14T18:25:32.376Z",
  "devdoc": {
    "methods": {}
  },
  "userdoc": {
    "methods": {}
  }
}