{
  "contractName": "ex10",
  "abi": [
    {
      "constant": true,
      "inputs": [],
      "name": "pointsManagerContractAddress",
      "outputs": [
        {
          "name": "",
          "type": "address"
        }
      ],
      "payable": false,
      "stateMutability": "view",
      "type": "function"
    },
    {
      "constant": true,
      "inputs": [],
      "name": "nextValueStoreRank",
      "outputs": [
        {
          "name": "",
          "type": "uint256"
        }
      ],
      "payable": false,
      "stateMutability": "view",
      "type": "function"
    },
    {
      "constant": true,
      "inputs": [],
      "name": "teachersOrganAddress",
      "outputs": [
        {
          "name": "",
          "type": "address"
        }
      ],
      "payable": false,
      "stateMutability": "view",
      "type": "function"
    },
    {
      "constant": true,
      "inputs": [
        {
          "name": "",
          "type": "address"
        }
      ],
      "name": "exerciceWasStarted",
      "outputs": [
        {
          "name": "",
          "type": "bool"
        }
      ],
      "payable": false,
      "stateMutability": "view",
      "type": "function"
    },
    {
      "constant": true,
      "inputs": [
        {
          "name": "",
          "type": "address"
        }
      ],
      "name": "hasCompletedExercice",
      "outputs": [
        {
          "name": "",
          "type": "bool"
        }
      ],
      "payable": false,
      "stateMutability": "view",
      "type": "function"
    },
    {
      "constant": true,
      "inputs": [],
      "name": "studentsOrganAddress",
      "outputs": [
        {
          "name": "",
          "type": "address"
        }
      ],
      "payable": false,
      "stateMutability": "view",
      "type": "function"
    },
    {
      "inputs": [
        {
          "name": "_studentsOrganAddres",
          "type": "address"
        },
        {
          "name": "_teachersOrganAddress",
          "type": "address"
        },
        {
          "name": "_pointsManagerContractAddress",
          "type": "address"
        }
      ],
      "payable": false,
      "stateMutability": "nonpayable",
      "type": "constructor"
    },
    {
      "anonymous": false,
      "inputs": [
        {
          "indexed": false,
          "name": "i",
          "type": "uint256"
        },
        {
          "indexed": false,
          "name": "myVariable",
          "type": "uint256"
        }
      ],
      "name": "showPrivateVariableInEvent",
      "type": "event"
    },
    {
      "anonymous": false,
      "inputs": [
        {
          "indexed": false,
          "name": "i",
          "type": "uint256"
        }
      ],
      "name": "showUserRank",
      "type": "event"
    },
    {
      "constant": false,
      "inputs": [
        {
          "name": "_randomValuesStore",
          "type": "uint256[20]"
        }
      ],
      "name": "setRandomValueStore",
      "outputs": [],
      "payable": false,
      "stateMutability": "nonpayable",
      "type": "function"
    },
    {
      "constant": false,
      "inputs": [],
      "name": "startExercice",
      "outputs": [],
      "payable": false,
      "stateMutability": "nonpayable",
      "type": "function"
    },
    {
      "constant": false,
      "inputs": [
        {
          "name": "_privateValue",
          "type": "uint256"
        }
      ],
      "name": "showYouKnowPrivateValue",
      "outputs": [],
      "payable": false,
      "stateMutability": "nonpayable",
      "type": "function"
    }
  ],
  "bytecode": "0x608060405234801561001057600080fd5b50604051606080610f278339810180604052606081101561003057600080fd5b81019080805190602001909291908051906020019092919080519060200190929190505050828282826000806101000a81548173ffffffffffffffffffffffffffffffffffffffff021916908373ffffffffffffffffffffffffffffffffffffffff16021790555081600260006101000a81548173ffffffffffffffffffffffffffffffffffffffff021916908373ffffffffffffffffffffffffffffffffffffffff16021790555080600160006101000a81548173ffffffffffffffffffffffffffffffffffffffff021916908373ffffffffffffffffffffffffffffffffffffffff160217905550505050505050610df88061012f6000396000f3fe608060405260043610610099576000357c0100000000000000000000000000000000000000000000000000000000900463ffffffff16806307e054081461009e57806339119dce146100f55780637f4c5172146101205780638f63cb2014610177578063c42365c6146101e0578063c8065ad214610249578063e4cd0c98146102a0578063e7c02727146102b7578063f6dd339e1461032b575b600080fd5b3480156100aa57600080fd5b506100b3610366565b604051808273ffffffffffffffffffffffffffffffffffffffff1673ffffffffffffffffffffffffffffffffffffffff16815260200191505060405180910390f35b34801561010157600080fd5b5061010a61038c565b6040518082815260200191505060405180910390f35b34801561012c57600080fd5b50610135610392565b604051808273ffffffffffffffffffffffffffffffffffffffff1673ffffffffffffffffffffffffffffffffffffffff16815260200191505060405180910390f35b34801561018357600080fd5b506101c66004803603602081101561019a57600080fd5b81019080803573ffffffffffffffffffffffffffffffffffffffff1690602001909291905050506103b8565b604051808215151515815260200191505060405180910390f35b3480156101ec57600080fd5b5061022f6004803603602081101561020357600080fd5b81019080803573ffffffffffffffffffffffffffffffffffffffff1690602001909291905050506103d8565b604051808215151515815260200191505060405180910390f35b34801561025557600080fd5b5061025e6103f8565b604051808273ffffffffffffffffffffffffffffffffffffffff1673ffffffffffffffffffffffffffffffffffffffff16815260200191505060405180910390f35b3480156102ac57600080fd5b506102b561041d565b005b3480156102c357600080fd5b5061032960048036036102808110156102db57600080fd5b810190808061028001906014806020026040519081016040528092919082601460200280828437600081840152601f19601f820116905080830192505050505050919291929050505061077c565b005b34801561033757600080fd5b506103646004803603602081101561034e57600080fd5b8101908080359060200190929190505050610912565b005b600160009054906101000a900473ffffffffffffffffffffffffffffffffffffffff1681565b601a5481565b600260009054906101000a900473ffffffffffffffffffffffffffffffffffffffff1681565b60056020528060005260406000206000915054906101000a900460ff1681565b60036020528060005260406000206000915054906101000a900460ff1681565b6000809054906101000a900473ffffffffffffffffffffffffffffffffffffffff1681565b60008060009054906101000a900473ffffffffffffffffffffffffffffffffffffffff16905060008173ffffffffffffffffffffffffffffffffffffffff16635549ea51336040518263ffffffff167c0100000000000000000000000000000000000000000000000000000000028152600401808273ffffffffffffffffffffffffffffffffffffffff1673ffffffffffffffffffffffffffffffffffffffff16815260200191505060206040518083038186803b1580156104de57600080fd5b505afa1580156104f2573d6000803e3d6000fd5b505050506040513d602081101561050857600080fd5b810190808051906020019092919050505090506000811415151561052b57600080fd5b60008273ffffffffffffffffffffffffffffffffffffffff1663db051526836040518263ffffffff167c01000000000000000000000000000000000000000000000000000000000281526004018082815260200191505060806040518083038186803b15801561059a57600080fd5b505afa1580156105ae573d6000803e3d6000fd5b505050506040513d60808110156105c457600080fd5b8101908080519060200190929190805190602001909291908051906020019092919080519060200190929190505050505091505042816001900411151561060a57600080fd5b60011515600360003373ffffffffffffffffffffffffffffffffffffffff1673ffffffffffffffffffffffffffffffffffffffff16815260200190815260200160002060009054906101000a900460ff1615151415151561066a57600080fd5b6006601a5460148110151561067b57fe5b0154600460003373ffffffffffffffffffffffffffffffffffffffff1673ffffffffffffffffffffffffffffffffffffffff168152602001908152602001600020819055507f2a068e0a42154c9e9171c42446c18ac7dbbca22ad917e3f7ac1747774aa1a79b601a546040518082815260200191505060405180910390a16001601a600082825401925050819055506014601a5410151561071f576000601a819055505b6001600560003373ffffffffffffffffffffffffffffffffffffffff1673ffffffffffffffffffffffffffffffffffffffff16815260200190815260200160002060006101000a81548160ff021916908315150217905550505050565b6000600260009054906101000a900473ffffffffffffffffffffffffffffffffffffffff16905060008173ffffffffffffffffffffffffffffffffffffffff16635549ea51336040518263ffffffff167c0100000000000000000000000000000000000000000000000000000000028152600401808273ffffffffffffffffffffffffffffffffffffffff1673ffffffffffffffffffffffffffffffffffffffff16815260200191505060206040518083038186803b15801561083e57600080fd5b505afa158015610852573d6000803e3d6000fd5b505050506040513d602081101561086857600080fd5b81019080805190602001909291905050501415151561088657600080fd5b816006906014610897929190610d67565b506000601a8190555060008090505b601481101561090d577feed25529c68347c5f7e9ae9e77849ed8a9204fc9af2c27b9fd6b08943a109dbb81826006846014811015156108e157fe5b015401604051808381526020018281526020019250505060405180910390a180806001019150506108a6565b505050565b60008060009054906101000a900473ffffffffffffffffffffffffffffffffffffffff16905060008173ffffffffffffffffffffffffffffffffffffffff16635549ea51336040518263ffffffff167c0100000000000000000000000000000000000000000000000000000000028152600401808273ffffffffffffffffffffffffffffffffffffffff1673ffffffffffffffffffffffffffffffffffffffff16815260200191505060206040518083038186803b1580156109d357600080fd5b505afa1580156109e7573d6000803e3d6000fd5b505050506040513d60208110156109fd57600080fd5b8101908080519060200190929190505050905060008114151515610a2057600080fd5b60008273ffffffffffffffffffffffffffffffffffffffff1663db051526836040518263ffffffff167c01000000000000000000000000000000000000000000000000000000000281526004018082815260200191505060806040518083038186803b158015610a8f57600080fd5b505afa158015610aa3573d6000803e3d6000fd5b505050506040513d6080811015610ab957600080fd5b81019080805190602001909291908051906020019092919080519060200190929190805190602001909291905050505050915050428160019004111515610aff57600080fd5b60011515600360003373ffffffffffffffffffffffffffffffffffffffff1673ffffffffffffffffffffffffffffffffffffffff16815260200190815260200160002060009054906101000a900460ff16151514151515610b5f57600080fd5b83600460003373ffffffffffffffffffffffffffffffffffffffff1673ffffffffffffffffffffffffffffffffffffffff16815260200190815260200160002054141515610bac57600080fd5b60011515600560003373ffffffffffffffffffffffffffffffffffffffff1673ffffffffffffffffffffffffffffffffffffffff16815260200190815260200160002060009054906101000a900460ff161515141515610c0b57600080fd5b610c1433610c25565b610c1f60c833610c80565b50505050565b6001600360008373ffffffffffffffffffffffffffffffffffffffff1673ffffffffffffffffffffffffffffffffffffffff16815260200190815260200160002060006101000a81548160ff02191690831515021790555050565b6000600160009054906101000a900473ffffffffffffffffffffffffffffffffffffffff1690508073ffffffffffffffffffffffffffffffffffffffff1663f35484ee84846040518363ffffffff167c0100000000000000000000000000000000000000000000000000000000028152600401808381526020018273ffffffffffffffffffffffffffffffffffffffff1673ffffffffffffffffffffffffffffffffffffffff16815260200192505050600060405180830381600087803b158015610d4a57600080fd5b505af1158015610d5e573d6000803e3d6000fd5b50505050505050565b8260148101928215610d96579160200282015b82811115610d95578251825591602001919060010190610d7a565b5b509050610da39190610da7565b5090565b610dc991905b80821115610dc5576000816000905550600101610dad565b5090565b9056fea165627a7a7230582039e746d486c159f8c4d02ee38a845067cc4070e6b1a0f342635aa487a1f6ffbb0029",
  "source": "pragma solidity >=0.4.21 <0.6.0;\n\n\nimport \"../exerciceTemplate.sol\";\n\n/*\nExercice 10: Analyzing past transactions\nIn this exercice, you need to:\n- Use Etherscan to visualize this contract's transaction history\n- Analyze events\n- Use a function \n- Your points are credited by the contract\n*/\n\n/*\nWhat you need to know to complete this exercice\nA) What was included in the previous exercices\n\n*/\ncontract ex10 is exerciceTemplate {\n\n\n\tmapping(address => uint) private privateValues;\n  mapping(address => bool) public exerciceWasStarted;\n  uint[20] private randomValuesStore;\n  uint public nextValueStoreRank;\n\n  event showPrivateVariableInEvent(uint i, uint myVariable);\n  event showUserRank(uint i);\n\n  constructor(address payable _studentsOrganAddres, address payable _teachersOrganAddress, address payable _pointsManagerContractAddress) \n  exerciceTemplate(_studentsOrganAddres, _teachersOrganAddress, _pointsManagerContractAddress) \n  public\n  {}\n  \n  function setRandomValueStore(uint[20] memory _randomValuesStore) \n  public \n  onlyTeacher\n  {\n   randomValuesStore = _randomValuesStore;\n   nextValueStoreRank = 0;\n   for (uint i = 0; i < randomValuesStore.length; i++)\n   {\n   \temit showPrivateVariableInEvent(i, randomValuesStore[i]+i);\n   }\n  }\n\n  function startExercice() \n  public \n  canWorkOnExercice \n  {\n    privateValues[msg.sender] = randomValuesStore[nextValueStoreRank];\n    emit showUserRank(nextValueStoreRank);\n    nextValueStoreRank += 1;\n    if (nextValueStoreRank >= randomValuesStore.length)\n    {\n     nextValueStoreRank = 0; \n    }\n    exerciceWasStarted[msg.sender] = true;\n  }\n\n  function showYouKnowPrivateValue(uint _privateValue) \n  public \n  canWorkOnExercice \n  {\n    require(privateValues[msg.sender] == _privateValue);\n    require(exerciceWasStarted[msg.sender] == true);\n    \n    // Validating exercice\n    validateExercice(msg.sender);\n    creditStudent(200, msg.sender);\n\n  }\n\n\n}\n",
  "sourcePath": "/Users/henrilieutaud/Documents/Mes documents/ESILV/03 Blockchain Programmation/solidity-101/contracts/exercices/ex10.sol",
  "compiler": {
    "name": "solc",
    "version": "0.5.0+commit.1d4f565a.Emscripten.clang"
  },
  "schemaVersion": "3.3.2",
  "updatedAt": "2021-03-04T20:32:45.160Z",
  "networkType": "ethereum",
  "devdoc": {
    "methods": {}
  },
  "userdoc": {
    "methods": {}
  }
}