{
  "contractName": "ex11",
  "abi": [
    {
      "inputs": [
        {
          "internalType": "contract ERC20TD",
          "name": "_TDERC20",
          "type": "address"
        },
        {
          "internalType": "address",
          "name": "_ex11bAddress",
          "type": "address"
        }
      ],
      "stateMutability": "nonpayable",
      "type": "constructor"
    },
    {
      "anonymous": false,
      "inputs": [
        {
          "indexed": false,
          "internalType": "address",
          "name": "erc20Address",
          "type": "address"
        }
      ],
      "name": "constructedCorrectly",
      "type": "event"
    },
    {
      "inputs": [],
      "name": "ex11bAddress",
      "outputs": [
        {
          "internalType": "address",
          "name": "",
          "type": "address"
        }
      ],
      "stateMutability": "view",
      "type": "function",
      "constant": true
    },
    {
      "inputs": [
        {
          "internalType": "address",
          "name": "",
          "type": "address"
        }
      ],
      "name": "hasCompletedExercice",
      "outputs": [
        {
          "internalType": "bool",
          "name": "",
          "type": "bool"
        }
      ],
      "stateMutability": "view",
      "type": "function",
      "constant": true
    },
    {
      "inputs": [
        {
          "internalType": "uint256",
          "name": "_aValueToInput",
          "type": "uint256"
        },
        {
          "internalType": "uint256",
          "name": "_nextValueForSecret",
          "type": "uint256"
        }
      ],
      "name": "askForPoints",
      "outputs": [],
      "stateMutability": "nonpayable",
      "type": "function"
    }
  ],
  "bytecode": "0x608060405234801561001057600080fd5b506040516105b33803806105b38339818101604052604081101561003357600080fd5b81019080805190602001909291908051906020019092919050505081806000806101000a81548173ffffffffffffffffffffffffffffffffffffffff021916908373ffffffffffffffffffffffffffffffffffffffff1602179055507f2915b3b4e0613c6b63dca39a375dd8c9f1de68d9e208a0713b7624260e2d08126000809054906101000a900473ffffffffffffffffffffffffffffffffffffffff16604051808273ffffffffffffffffffffffffffffffffffffffff1673ffffffffffffffffffffffffffffffffffffffff16815260200191505060405180910390a15080600260006101000a81548173ffffffffffffffffffffffffffffffffffffffff021916908373ffffffffffffffffffffffffffffffffffffffff160217905550505061044d806101666000396000f3fe608060405234801561001057600080fd5b50600436106100415760003560e01c80635fd5225814610046578063c42365c614610090578063cdfdab97146100ec575b600080fd5b61004e610124565b604051808273ffffffffffffffffffffffffffffffffffffffff1673ffffffffffffffffffffffffffffffffffffffff16815260200191505060405180910390f35b6100d2600480360360208110156100a657600080fd5b81019080803573ffffffffffffffffffffffffffffffffffffffff16906020019092919050505061014a565b604051808215151515815260200191505060405180910390f35b6101226004803603604081101561010257600080fd5b81019080803590602001909291908035906020019092919050505061016a565b005b600260009054906101000a900473ffffffffffffffffffffffffffffffffffffffff1681565b60016020528060005260406000206000915054906101000a900460ff1681565b6000600260009054906101000a900473ffffffffffffffffffffffffffffffffffffffff16905060008173ffffffffffffffffffffffffffffffffffffffff1663ccaa02486040518163ffffffff1660e01b815260040160206040518083038186803b1580156101d957600080fd5b505afa1580156101ed573d6000803e3d6000fd5b505050506040513d602081101561020357600080fd5b8101908080519060200190929190505050905080841461022257600080fd5b8173ffffffffffffffffffffffffffffffffffffffff16634adc122e846040518263ffffffff1660e01b815260040180828152602001915050600060405180830381600087803b15801561027557600080fd5b505af1158015610289573d6000803e3d6000fd5b50505050610296336102a7565b6102a1600233610301565b50505050565b60018060008373ffffffffffffffffffffffffffffffffffffffff1673ffffffffffffffffffffffffffffffffffffffff16815260200190815260200160002060006101000a81548160ff02191690831515021790555050565b600160008273ffffffffffffffffffffffffffffffffffffffff1673ffffffffffffffffffffffffffffffffffffffff16815260200190815260200160002060009054906101000a900460ff16610413576000809054906101000a900473ffffffffffffffffffffffffffffffffffffffff1673ffffffffffffffffffffffffffffffffffffffff1663158a498833846040518363ffffffff1660e01b8152600401808373ffffffffffffffffffffffffffffffffffffffff1673ffffffffffffffffffffffffffffffffffffffff16815260200182815260200192505050600060405180830381600087803b1580156103fa57600080fd5b505af115801561040e573d6000803e3d6000fd5b505050505b505056fea264697066735822122017f088f0e29760476218412485af6c95921a43e9d95e2c5bb7efb60e8864fec464736f6c63430006020033",
  "source": "pragma solidity ^0.6.0;\n\n\nimport \"../exerciceTemplate.sol\";\nimport \"./ex11b.sol\";\n/*\nExercice 11: Understanding how contracts communicate with each other.\nThis contract (11) reads a value from another contract (11b).\nIn this exercice, you need to:\n- Find out the address of contract 11b\n- Understand which function of contract 11b contract 11 calls\n- Use contract 11b to find out what is the value required\n- Call contract 11 with the correct value, which will call contract 11b to check you have the correct value, and deliver your points.\n*/\n\n/*\nWhat you need to know to complete this exercice\nA) What was included in the previous exercices\nB) https://medium.com/@blockchain101/calling-the-function-of-another-contract-in-solidity-f9edfa921f4c#targetText=When%20we%20write%20Smart%20Contracts,treating%20deployed%20contracts%20like%20libraries.\n\n*/\ncontract ex11 is exerciceTemplate {\n\n  address public ex11bAddress;\n\n  constructor(ERC20TD _TDERC20, address _ex11bAddress) \n  public \n  exerciceTemplate(_TDERC20)\n  {\n    ex11bAddress = _ex11bAddress;\n  }\n\n\n\n  function askForPoints(uint _aValueToInput, uint _nextValueForSecret) \n  public \n  {\n    // Instanciating the external contract\n    ex11b ex11bInstance = ex11b(ex11bAddress);\n\n    // Retrieving value from external contract\n    uint retrievedSecretValue = ex11bInstance.secretValue();\n\n    // Checking that our input value is the one stored in contract ex11b\n    require(_aValueToInput == retrievedSecretValue);\n\n    // Updating secret value with the new value you chose\n    ex11bInstance.setSecretValue(_nextValueForSecret);\n\n    // Validating exercice\n    validateExercice(msg.sender);\n    creditStudent(2, msg.sender);\n\n  }\n\n\n}\n",
  "sourcePath": "/Users/henrilieutaud/Documents/Workshop/Solidity/solidity-101/contracts/exercices/ex11.sol",
  "compiler": {
    "name": "solc",
    "version": "0.6.2+commit.bacdbe57.Emscripten.clang"
  },
  "schemaVersion": "3.4.4",
  "updatedAt": "2022-01-28T15:17:45.277Z",
  "networkType": "ethereum",
  "devdoc": {
    "methods": {}
  },
  "userdoc": {
    "methods": {}
  }
}