{
  "contractName": "ex11b",
  "abi": [
    {
      "inputs": [
        {
          "internalType": "contract ERC20TD",
          "name": "_TDERC20",
          "type": "address"
        }
      ],
      "stateMutability": "nonpayable",
      "type": "constructor"
    },
    {
      "anonymous": false,
      "inputs": [
        {
          "indexed": false,
          "internalType": "address",
          "name": "erc20Address",
          "type": "address"
        }
      ],
      "name": "constructedCorrectly",
      "type": "event"
    },
    {
      "inputs": [
        {
          "internalType": "address",
          "name": "",
          "type": "address"
        }
      ],
      "name": "hasCompletedExercice",
      "outputs": [
        {
          "internalType": "bool",
          "name": "",
          "type": "bool"
        }
      ],
      "stateMutability": "view",
      "type": "function",
      "constant": true
    },
    {
      "inputs": [],
      "name": "secretValue",
      "outputs": [
        {
          "internalType": "uint256",
          "name": "",
          "type": "uint256"
        }
      ],
      "stateMutability": "view",
      "type": "function",
      "constant": true
    },
    {
      "inputs": [
        {
          "internalType": "uint256",
          "name": "_newSecretValue",
          "type": "uint256"
        }
      ],
      "name": "setSecretValue",
      "outputs": [],
      "stateMutability": "nonpayable",
      "type": "function"
    }
  ],
  "bytecode": "0x608060405234801561001057600080fd5b506040516103593803806103598339818101604052602081101561003357600080fd5b810190808051906020019092919050505080806000806101000a81548173ffffffffffffffffffffffffffffffffffffffff021916908373ffffffffffffffffffffffffffffffffffffffff1602179055507f2915b3b4e0613c6b63dca39a375dd8c9f1de68d9e208a0713b7624260e2d08126000809054906101000a900473ffffffffffffffffffffffffffffffffffffffff16604051808273ffffffffffffffffffffffffffffffffffffffff1673ffffffffffffffffffffffffffffffffffffffff16815260200191505060405180910390a15061792c60028190555050610236806101236000396000f3fe608060405234801561001057600080fd5b50600436106100415760003560e01c80634adc122e14610046578063c42365c614610074578063ccaa0248146100d0575b600080fd5b6100726004803603602081101561005c57600080fd5b81019080803590602001909291905050506100ee565b005b6100b66004803603602081101561008a57600080fd5b81019080803573ffffffffffffffffffffffffffffffffffffffff1690602001909291905050506101da565b604051808215151515815260200191505060405180910390f35b6100d86101fa565b6040518082815260200191505060405180910390f35b6000809054906101000a900473ffffffffffffffffffffffffffffffffffffffff1673ffffffffffffffffffffffffffffffffffffffff1663f0a47f78336040518263ffffffff1660e01b8152600401808273ffffffffffffffffffffffffffffffffffffffff1673ffffffffffffffffffffffffffffffffffffffff16815260200191505060206040518083038186803b15801561018c57600080fd5b505afa1580156101a0573d6000803e3d6000fd5b505050506040513d60208110156101b657600080fd5b81019080805190602001909291905050506101d057600080fd5b8060028190555050565b60016020528060005260406000206000915054906101000a900460ff1681565b6002548156fea2646970667358221220b8c87922c83f94d4439b6394bca7475012be71a4596f887e77c5b704c0efa1af64736f6c63430006020033",
  "source": "pragma solidity ^0.6.0;\n\n\nimport \"../exerciceTemplate.sol\";\n\n/*\nExercice 11: Finding a hidden exercice\nIn this exercice, you need to:\n- Read the documentation of another contract to understand its structure\n- Extract contract ABI\n- Use the ABI to extract the contract content and find the missing contract\n- Call the contract function\n- Your points are credited by the contract\n*/\n\n/*\nWhat you need to know to complete this exercice\nA) What was included in the previous exercices\nB) Documentation of the Kelsen framework on https://github.com/97network/Kelsen/blob/master/docs/01_standardOrgan.md\n\n*/\ncontract ex11b is exerciceTemplate {\n\n  uint public secretValue;\n\n  constructor(ERC20TD _TDERC20) \n  public \n  exerciceTemplate(_TDERC20)\n  {\n    secretValue = 31020;\n  }\n  \n  function setSecretValue(uint _newSecretValue)\n  public\n  onlyTeachers\n  {\n  \tsecretValue = _newSecretValue;\n  }\n\n\n\n\n}\n",
  "sourcePath": "/Users/henrilieutaud/Documents/Workshop/Solidity/solidity-101/contracts/exercices/ex11b.sol",
  "compiler": {
    "name": "solc",
    "version": "0.6.2+commit.bacdbe57.Emscripten.clang"
  },
  "schemaVersion": "3.4.7",
  "updatedAt": "2022-10-07T13:55:39.090Z",
  "networkType": "ethereum",
  "devdoc": {
    "methods": {}
  },
  "userdoc": {
    "methods": {}
  }
}