{
  "contractName": "ex11",
  "abi": [
    {
      "constant": true,
      "inputs": [],
      "name": "pointsManagerContractAddress",
      "outputs": [
        {
          "name": "",
          "type": "address"
        }
      ],
      "payable": false,
      "stateMutability": "view",
      "type": "function"
    },
    {
      "constant": true,
      "inputs": [],
      "name": "ex11bAddress",
      "outputs": [
        {
          "name": "",
          "type": "address"
        }
      ],
      "payable": false,
      "stateMutability": "view",
      "type": "function"
    },
    {
      "constant": true,
      "inputs": [],
      "name": "teachersOrganAddress",
      "outputs": [
        {
          "name": "",
          "type": "address"
        }
      ],
      "payable": false,
      "stateMutability": "view",
      "type": "function"
    },
    {
      "constant": true,
      "inputs": [
        {
          "name": "",
          "type": "address"
        }
      ],
      "name": "hasCompletedExercice",
      "outputs": [
        {
          "name": "",
          "type": "bool"
        }
      ],
      "payable": false,
      "stateMutability": "view",
      "type": "function"
    },
    {
      "constant": true,
      "inputs": [],
      "name": "studentsOrganAddress",
      "outputs": [
        {
          "name": "",
          "type": "address"
        }
      ],
      "payable": false,
      "stateMutability": "view",
      "type": "function"
    },
    {
      "inputs": [
        {
          "name": "_studentsOrganAddres",
          "type": "address"
        },
        {
          "name": "_teachersOrganAddress",
          "type": "address"
        },
        {
          "name": "_pointsManagerContractAddress",
          "type": "address"
        }
      ],
      "payable": false,
      "stateMutability": "nonpayable",
      "type": "constructor"
    },
    {
      "constant": false,
      "inputs": [
        {
          "name": "_ex11bAddress",
          "type": "address"
        }
      ],
      "name": "setex11bAddress",
      "outputs": [],
      "payable": false,
      "stateMutability": "nonpayable",
      "type": "function"
    },
    {
      "constant": false,
      "inputs": [
        {
          "name": "_aValueToInput",
          "type": "uint256"
        }
      ],
      "name": "askForPoints",
      "outputs": [],
      "payable": false,
      "stateMutability": "nonpayable",
      "type": "function"
    }
  ],
  "bytecode": "0x608060405234801561001057600080fd5b50604051606080610a778339810180604052606081101561003057600080fd5b81019080805190602001909291908051906020019092919080519060200190929190505050828282826000806101000a81548173ffffffffffffffffffffffffffffffffffffffff021916908373ffffffffffffffffffffffffffffffffffffffff16021790555081600260006101000a81548173ffffffffffffffffffffffffffffffffffffffff021916908373ffffffffffffffffffffffffffffffffffffffff16021790555080600160006101000a81548173ffffffffffffffffffffffffffffffffffffffff021916908373ffffffffffffffffffffffffffffffffffffffff1602179055505050505050506109488061012f6000396000f3fe608060405234801561001057600080fd5b506004361061009a576000357c0100000000000000000000000000000000000000000000000000000000900480637f4c5172116100785780637f4c517214610161578063c42365c6146101ab578063c8065ad214610207578063c9cd513e146102515761009a565b806307e054081461009f5780632ce9b2ff146100e95780635fd5225814610117575b600080fd5b6100a7610295565b604051808273ffffffffffffffffffffffffffffffffffffffff1673ffffffffffffffffffffffffffffffffffffffff16815260200191505060405180910390f35b610115600480360360208110156100ff57600080fd5b81019080803590602001909291905050506102bb565b005b61011f6105fa565b604051808273ffffffffffffffffffffffffffffffffffffffff1673ffffffffffffffffffffffffffffffffffffffff16815260200191505060405180910390f35b610169610620565b604051808273ffffffffffffffffffffffffffffffffffffffff1673ffffffffffffffffffffffffffffffffffffffff16815260200191505060405180910390f35b6101ed600480360360208110156101c157600080fd5b81019080803573ffffffffffffffffffffffffffffffffffffffff169060200190929190505050610646565b604051808215151515815260200191505060405180910390f35b61020f610666565b604051808273ffffffffffffffffffffffffffffffffffffffff1673ffffffffffffffffffffffffffffffffffffffff16815260200191505060405180910390f35b6102936004803603602081101561026757600080fd5b81019080803573ffffffffffffffffffffffffffffffffffffffff16906020019092919050505061068b565b005b600160009054906101000a900473ffffffffffffffffffffffffffffffffffffffff1681565b60008060009054906101000a900473ffffffffffffffffffffffffffffffffffffffff16905060008173ffffffffffffffffffffffffffffffffffffffff16635549ea51336040518263ffffffff167c0100000000000000000000000000000000000000000000000000000000028152600401808273ffffffffffffffffffffffffffffffffffffffff1673ffffffffffffffffffffffffffffffffffffffff16815260200191505060206040518083038186803b15801561037c57600080fd5b505afa158015610390573d6000803e3d6000fd5b505050506040513d60208110156103a657600080fd5b81019080805190602001909291905050509050600081141515156103c957600080fd5b60008273ffffffffffffffffffffffffffffffffffffffff1663db051526836040518263ffffffff167c01000000000000000000000000000000000000000000000000000000000281526004018082815260200191505060806040518083038186803b15801561043857600080fd5b505afa15801561044c573d6000803e3d6000fd5b505050506040513d608081101561046257600080fd5b810190808051906020019092919080519060200190929190805190602001909291908051906020019092919050505050509150504281600190041115156104a857600080fd5b60011515600360003373ffffffffffffffffffffffffffffffffffffffff1673ffffffffffffffffffffffffffffffffffffffff16815260200190815260200160002060009054906101000a900460ff1615151415151561050857600080fd5b6000600460009054906101000a900473ffffffffffffffffffffffffffffffffffffffff16905060008173ffffffffffffffffffffffffffffffffffffffff1663ccaa02486040518163ffffffff167c010000000000000000000000000000000000000000000000000000000002815260040160206040518083038186803b15801561059357600080fd5b505afa1580156105a7573d6000803e3d6000fd5b505050506040513d60208110156105bd57600080fd5b8101908080519060200190929190505050905080861415156105de57600080fd5b6105e7336107da565b6105f260c833610835565b505050505050565b600460009054906101000a900473ffffffffffffffffffffffffffffffffffffffff1681565b600260009054906101000a900473ffffffffffffffffffffffffffffffffffffffff1681565b60036020528060005260406000206000915054906101000a900460ff1681565b6000809054906101000a900473ffffffffffffffffffffffffffffffffffffffff1681565b6000600260009054906101000a900473ffffffffffffffffffffffffffffffffffffffff16905060008173ffffffffffffffffffffffffffffffffffffffff16635549ea51336040518263ffffffff167c0100000000000000000000000000000000000000000000000000000000028152600401808273ffffffffffffffffffffffffffffffffffffffff1673ffffffffffffffffffffffffffffffffffffffff16815260200191505060206040518083038186803b15801561074d57600080fd5b505afa158015610761573d6000803e3d6000fd5b505050506040513d602081101561077757600080fd5b81019080805190602001909291905050501415151561079557600080fd5b81600460006101000a81548173ffffffffffffffffffffffffffffffffffffffff021916908373ffffffffffffffffffffffffffffffffffffffff1602179055505050565b6001600360008373ffffffffffffffffffffffffffffffffffffffff1673ffffffffffffffffffffffffffffffffffffffff16815260200190815260200160002060006101000a81548160ff02191690831515021790555050565b6000600160009054906101000a900473ffffffffffffffffffffffffffffffffffffffff1690508073ffffffffffffffffffffffffffffffffffffffff1663f35484ee84846040518363ffffffff167c0100000000000000000000000000000000000000000000000000000000028152600401808381526020018273ffffffffffffffffffffffffffffffffffffffff1673ffffffffffffffffffffffffffffffffffffffff16815260200192505050600060405180830381600087803b1580156108ff57600080fd5b505af1158015610913573d6000803e3d6000fd5b5050505050505056fea165627a7a7230582066c1b7482bb2749930a4bb3c0810b37021d23df6f28d4f9a0345951e3f170ff40029",
  "source": "pragma solidity >=0.4.21 <0.6.0;\r\n\r\n\r\nimport \"../exerciceTemplate.sol\";\r\nimport \"./ex11b.sol\";\r\n/*\r\nExercice 11: Finding a hidden exercice\r\nIn this exercice, you need to:\r\n- Read the documentation of another contract to understand its structure\r\n- Extract contract ABI\r\n- Use the ABI to extract the contract content and find the missing contract\r\n- Call the contract function\r\n- Your points are credited by the contract\r\n*/\r\n\r\n/*\r\nWhat you need to know to complete this exercice\r\nA) What was included in the previous exercices\r\nB) Documentation of the Kelsen framework on https://github.com/97network/Kelsen/blob/master/docs/01_standardOrgan.md\r\n\r\n*/\r\ncontract ex11 is exerciceTemplate {\r\n\r\n  address public ex11bAddress;\r\n  constructor(address payable _studentsOrganAddres, address payable _teachersOrganAddress, address payable _pointsManagerContractAddress) \r\n  exerciceTemplate(_studentsOrganAddres, _teachersOrganAddress, _pointsManagerContractAddress) \r\n  public\r\n  {}\r\n\r\n  function setex11bAddress(address _ex11bAddress) \r\n  public \r\n  onlyTeacher\r\n  {\r\n   ex11bAddress = _ex11bAddress;\r\n  }\r\n\r\n  function askForPoints(uint _aValueToInput) \r\n  public \r\n  canWorkOnExercice \r\n  {\r\n    // Instanciating the external contract\r\n    ex11b ex11bInstance = ex11b(ex11bAddress);\r\n\r\n    // Retrieving value from external contract\r\n    uint retrievedSecretValue = ex11bInstance.secretValue();\r\n\r\n    // Checking that our input value is the one stored in contract ex11b\r\n    require(_aValueToInput == retrievedSecretValue);\r\n\r\n    // Validating exercice\r\n    validateExercice(msg.sender);\r\n    creditStudent(200, msg.sender);\r\n\r\n  }\r\n\r\n\r\n}\r\n",
  "sourcePath": "C:/Users/hlieutaud/Documents/Workshop/Solidity/solidity-101/contracts/exercices/ex11.sol",
  "compiler": {
    "name": "solc",
    "version": "0.5.4+commit.9549d8ff.Emscripten.clang"
  },
  "schemaVersion": "3.0.10",
  "updatedAt": "2019-10-01T09:42:38.819Z",
  "devdoc": {
    "methods": {}
  },
  "userdoc": {
    "methods": {}
  }
}