{
  "contractName": "ex11",
  "abi": [
    {
      "inputs": [
        {
          "internalType": "contract ERC20TD",
          "name": "_TDERC20",
          "type": "address"
        }
      ],
      "stateMutability": "nonpayable",
      "type": "constructor"
    },
    {
      "anonymous": false,
      "inputs": [
        {
          "indexed": false,
          "internalType": "address",
          "name": "erc20Address",
          "type": "address"
        }
      ],
      "name": "constructedCorrectly",
      "type": "event"
    },
    {
      "inputs": [],
      "name": "ex11bAddress",
      "outputs": [
        {
          "internalType": "address",
          "name": "",
          "type": "address"
        }
      ],
      "stateMutability": "view",
      "type": "function"
    },
    {
      "inputs": [
        {
          "internalType": "address",
          "name": "",
          "type": "address"
        }
      ],
      "name": "hasCompletedExercice",
      "outputs": [
        {
          "internalType": "bool",
          "name": "",
          "type": "bool"
        }
      ],
      "stateMutability": "view",
      "type": "function"
    },
    {
      "inputs": [
        {
          "internalType": "address",
          "name": "_ex11bAddress",
          "type": "address"
        }
      ],
      "name": "setex11bAddress",
      "outputs": [],
      "stateMutability": "nonpayable",
      "type": "function"
    },
    {
      "inputs": [
        {
          "internalType": "uint256",
          "name": "_aValueToInput",
          "type": "uint256"
        }
      ],
      "name": "askForPoints",
      "outputs": [],
      "stateMutability": "nonpayable",
      "type": "function"
    }
  ],
  "bytecode": "0x608060405234801561001057600080fd5b506040516106663803806106668339818101604052602081101561003357600080fd5b810190808051906020019092919050505080806000806101000a81548173ffffffffffffffffffffffffffffffffffffffff021916908373ffffffffffffffffffffffffffffffffffffffff1602179055507f2915b3b4e0613c6b63dca39a375dd8c9f1de68d9e208a0713b7624260e2d08126000809054906101000a900473ffffffffffffffffffffffffffffffffffffffff16604051808273ffffffffffffffffffffffffffffffffffffffff1673ffffffffffffffffffffffffffffffffffffffff16815260200191505060405180910390a1505061054c8061011a6000396000f3fe608060405234801561001057600080fd5b506004361061004c5760003560e01c80632ce9b2ff146100515780635fd522581461007f578063c42365c6146100c9578063c9cd513e14610125575b600080fd5b61007d6004803603602081101561006757600080fd5b8101908080359060200190929190505050610169565b005b61008761023a565b604051808273ffffffffffffffffffffffffffffffffffffffff1673ffffffffffffffffffffffffffffffffffffffff16815260200191505060405180910390f35b61010b600480360360208110156100df57600080fd5b81019080803573ffffffffffffffffffffffffffffffffffffffff169060200190929190505050610260565b604051808215151515815260200191505060405180910390f35b6101676004803603602081101561013b57600080fd5b81019080803573ffffffffffffffffffffffffffffffffffffffff169060200190929190505050610280565b005b6000600260009054906101000a900473ffffffffffffffffffffffffffffffffffffffff16905060008173ffffffffffffffffffffffffffffffffffffffff1663ccaa02486040518163ffffffff1660e01b815260040160206040518083038186803b1580156101d857600080fd5b505afa1580156101ec573d6000803e3d6000fd5b505050506040513d602081101561020257600080fd5b8101908080519060200190929190505050905080831461022157600080fd5b61022a336103a6565b610235600233610400565b505050565b600260009054906101000a900473ffffffffffffffffffffffffffffffffffffffff1681565b60016020528060005260406000206000915054906101000a900460ff1681565b6000809054906101000a900473ffffffffffffffffffffffffffffffffffffffff1673ffffffffffffffffffffffffffffffffffffffff1663f0a47f78336040518263ffffffff1660e01b8152600401808273ffffffffffffffffffffffffffffffffffffffff1673ffffffffffffffffffffffffffffffffffffffff16815260200191505060206040518083038186803b15801561031e57600080fd5b505afa158015610332573d6000803e3d6000fd5b505050506040513d602081101561034857600080fd5b810190808051906020019092919050505061036257600080fd5b80600260006101000a81548173ffffffffffffffffffffffffffffffffffffffff021916908373ffffffffffffffffffffffffffffffffffffffff16021790555050565b60018060008373ffffffffffffffffffffffffffffffffffffffff1673ffffffffffffffffffffffffffffffffffffffff16815260200190815260200160002060006101000a81548160ff02191690831515021790555050565b600160008273ffffffffffffffffffffffffffffffffffffffff1673ffffffffffffffffffffffffffffffffffffffff16815260200190815260200160002060009054906101000a900460ff16610512576000809054906101000a900473ffffffffffffffffffffffffffffffffffffffff1673ffffffffffffffffffffffffffffffffffffffff1663158a498833846040518363ffffffff1660e01b8152600401808373ffffffffffffffffffffffffffffffffffffffff1673ffffffffffffffffffffffffffffffffffffffff16815260200182815260200192505050600060405180830381600087803b1580156104f957600080fd5b505af115801561050d573d6000803e3d6000fd5b505050505b505056fea2646970667358221220bc7e76334dc87777600b8789b74ec943a930b6e9ecd85f92e651423e86f5a43864736f6c63430006020033",
  "source": "pragma solidity ^0.6.0;\n\n\nimport \"../exerciceTemplate.sol\";\nimport \"./ex11b.sol\";\n/*\nExercice 11: Understanding how contracts communicate with each other.\nThis contract (11) reads a value from another contract (11b).\nIn this exercice, you need to:\n- Find out the address of contract 11b\n- Understand which function of contract 11b contract 11 calls\n- Use contract 11b to find out what is the value required\n- Call contract 11 with the correct value, which will call contract 11b to check you have the correct value, and deliver your points.\n*/\n\n/*\nWhat you need to know to complete this exercice\nA) What was included in the previous exercices\nB) https://medium.com/@blockchain101/calling-the-function-of-another-contract-in-solidity-f9edfa921f4c#targetText=When%20we%20write%20Smart%20Contracts,treating%20deployed%20contracts%20like%20libraries.\n\n*/\ncontract ex11 is exerciceTemplate {\n\n  address public ex11bAddress;\n\n  constructor(ERC20TD _TDERC20) \n  public \n  exerciceTemplate(_TDERC20)\n  {\n  }\n\n  function setex11bAddress(address _ex11bAddress) \n  public \n  onlyTeachers\n  {\n   ex11bAddress = _ex11bAddress;\n  }\n\n  function askForPoints(uint _aValueToInput) \n  public \n  {\n    // Instanciating the external contract\n    ex11b ex11bInstance = ex11b(ex11bAddress);\n\n    // Retrieving value from external contract\n    uint retrievedSecretValue = ex11bInstance.secretValue();\n\n    // Checking that our input value is the one stored in contract ex11b\n    require(_aValueToInput == retrievedSecretValue);\n\n    // Validating exercice\n    validateExercice(msg.sender);\n    creditStudent(2, msg.sender);\n\n  }\n\n\n}\n",
  "sourcePath": "/Users/henrilieutaud/Documents/Mes documents/ESILV/Workshop/solidity-101/contracts/exercices/ex11.sol",
  "compiler": {
    "name": "solc",
    "version": "0.6.2+commit.bacdbe57.Emscripten.clang"
  },
  "schemaVersion": "3.3.4",
  "updatedAt": "2022-01-14T18:25:32.391Z",
  "devdoc": {
    "methods": {}
  },
  "userdoc": {
    "methods": {}
  }
}