{
  "contractName": "ex14",
  "abi": [
    {
      "inputs": [
        {
          "internalType": "contract ERC20TD",
          "name": "_TDERC20",
          "type": "address"
        }
      ],
      "stateMutability": "nonpayable",
      "type": "constructor"
    },
    {
      "anonymous": false,
      "inputs": [
        {
          "indexed": false,
          "internalType": "address",
          "name": "erc20Address",
          "type": "address"
        }
      ],
      "name": "constructedCorrectly",
      "type": "event"
    },
    {
      "inputs": [
        {
          "internalType": "address",
          "name": "",
          "type": "address"
        }
      ],
      "name": "hasCompletedExercice",
      "outputs": [
        {
          "internalType": "bool",
          "name": "",
          "type": "bool"
        }
      ],
      "stateMutability": "view",
      "type": "function",
      "constant": true
    },
    {
      "inputs": [
        {
          "internalType": "address",
          "name": "mySolution",
          "type": "address"
        }
      ],
      "name": "askForPoints",
      "outputs": [],
      "stateMutability": "nonpayable",
      "type": "function"
    }
  ],
  "bytecode": "0x608060405234801561001057600080fd5b506040516107a63803806107a68339818101604052602081101561003357600080fd5b810190808051906020019092919050505080806000806101000a81548173ffffffffffffffffffffffffffffffffffffffff021916908373ffffffffffffffffffffffffffffffffffffffff1602179055507f2915b3b4e0613c6b63dca39a375dd8c9f1de68d9e208a0713b7624260e2d08126000809054906101000a900473ffffffffffffffffffffffffffffffffffffffff16604051808273ffffffffffffffffffffffffffffffffffffffff1673ffffffffffffffffffffffffffffffffffffffff16815260200191505060405180910390a1505061068c8061011a6000396000f3fe608060405234801561001057600080fd5b50600436106100365760003560e01c80639b4f1c141461003b578063c42365c61461007f575b600080fd5b61007d6004803603602081101561005157600080fd5b81019080803573ffffffffffffffffffffffffffffffffffffffff1690602001909291905050506100db565b005b6100c16004803603602081101561009557600080fd5b81019080803573ffffffffffffffffffffffffffffffffffffffff169060200190929190505050610474565b604051808215151515815260200191505060405180910390f35b60008060009054906101000a900473ffffffffffffffffffffffffffffffffffffffff1673ffffffffffffffffffffffffffffffffffffffff166370a08231836040518263ffffffff1660e01b8152600401808273ffffffffffffffffffffffffffffffffffffffff1673ffffffffffffffffffffffffffffffffffffffff16815260200191505060206040518083038186803b15801561017b57600080fd5b505afa15801561018f573d6000803e3d6000fd5b505050506040513d60208110156101a557600080fd5b8101908080519060200190929190505050905060008114610211576040517f08c379a00000000000000000000000000000000000000000000000000000000081526004018080602001828103825260238152602001806106056023913960400191505060405180910390fd5b60008290508073ffffffffffffffffffffffffffffffffffffffff166359b4726c6040518163ffffffff1660e01b815260040160006040518083038186803b15801561025c57600080fd5b505afa158015610270573d6000803e3d6000fd5b5050505060008060009054906101000a900473ffffffffffffffffffffffffffffffffffffffff1673ffffffffffffffffffffffffffffffffffffffff166370a08231856040518263ffffffff1660e01b8152600401808273ffffffffffffffffffffffffffffffffffffffff1673ffffffffffffffffffffffffffffffffffffffff16815260200191505060206040518083038186803b15801561031457600080fd5b505afa158015610328573d6000803e3d6000fd5b505050506040513d602081101561033e57600080fd5b8101908080519060200190929190505050905060008060009054906101000a900473ffffffffffffffffffffffffffffffffffffffff1673ffffffffffffffffffffffffffffffffffffffff1663313ce5676040518163ffffffff1660e01b815260040160206040518083038186803b1580156103ba57600080fd5b505afa1580156103ce573d6000803e3d6000fd5b505050506040513d60208110156103e457600080fd5b810190808051906020019092919050505060ff169050600281600a0a02821015610459576040517f08c379a000000000000000000000000000000000000000000000000000000000815260040180806020018281038252602f815260200180610628602f913960400191505060405180910390fd5b610464600233610494565b61046d336105aa565b5050505050565b60016020528060005260406000206000915054906101000a900460ff1681565b600160008273ffffffffffffffffffffffffffffffffffffffff1673ffffffffffffffffffffffffffffffffffffffff16815260200190815260200160002060009054906101000a900460ff166105a6576000809054906101000a900473ffffffffffffffffffffffffffffffffffffffff1673ffffffffffffffffffffffffffffffffffffffff1663158a498882846040518363ffffffff1660e01b8152600401808373ffffffffffffffffffffffffffffffffffffffff1673ffffffffffffffffffffffffffffffffffffffff16815260200182815260200192505050600060405180830381600087803b15801561058d57600080fd5b505af11580156105a1573d6000803e3d6000fd5b505050505b5050565b60018060008373ffffffffffffffffffffffffffffffffffffffff1673ffffffffffffffffffffffffffffffffffffffff16815260200190815260200160002060006101000a81548160ff0219169083151502179055505056fe536f6c7574696f6e2073686f756c642073746172742077697468203020706f696e7473536f6c7574696f6e2073686f756c6420656e642077697468206174206c65617374207468616e203220706f696e7473a2646970667358221220003c78a35fb32c47dfc45db320b1bef30d509b2e24a08b73520f4d5cb9d7d35864736f6c63430006020033",
  "source": "pragma solidity ^0.6.0;\n\n\nimport \"../exerciceTemplate.sol\";\nimport \"./Iex14Solution.sol\";\n\n/*\nExercice 14: Completing all the workshop in a single transaction!\nIn this exercice you should:\n- Implement a contract that complies with interface Iex14Solution\n- Call the appropriate function here to trigger collecting points\n*/\n\n\ncontract ex14 is exerciceTemplate {\n\n\n  constructor(ERC20TD _TDERC20) \n  public \n  exerciceTemplate(_TDERC20)\n  {\n  }\n\n  function askForPoints(address mySolution) \n  public  \n  {\n    // Checking that solution has no token yet\n    uint256 initialBalance = TDERC20.balanceOf(mySolution);\n    require(initialBalance == 0, \"Solution should start with 0 points\");\n\n    // Calling the solution so that it solves the workshop\n    Iex14Solution callerSolution = Iex14Solution(mySolution);\n    callerSolution.completeWorkshop();\n\n    // Checking that at least 10 exercices where validated\n    uint256 finalBalance = TDERC20.balanceOf(mySolution);\n    uint256 decimals = TDERC20.decimals();\n    require(finalBalance >= 10**decimals *2, \"Solution should end with at least than 2 points\");\n\n    // Validating exercice\n    creditStudent(2, msg.sender);\n    validateExercice(msg.sender);\n\n  }\n\n\n}\n",
  "sourcePath": "/Users/henrilieutaud/Documents/Workshop/Solidity/solidity-101/contracts/exercices/ex14.sol",
  "compiler": {
    "name": "solc",
    "version": "0.6.2+commit.bacdbe57.Emscripten.clang"
  },
  "schemaVersion": "3.4.7",
  "updatedAt": "2022-10-07T21:24:15.363Z",
  "networkType": "ethereum",
  "devdoc": {
    "methods": {}
  },
  "userdoc": {
    "methods": {}
  }
}