{
  "contractName": "ex14",
  "abi": [
    {
      "inputs": [
        {
          "internalType": "contract ERC20TD",
          "name": "_TDERC20",
          "type": "address"
        }
      ],
      "stateMutability": "nonpayable",
      "type": "constructor"
    },
    {
      "anonymous": false,
      "inputs": [
        {
          "indexed": false,
          "internalType": "address",
          "name": "erc20Address",
          "type": "address"
        }
      ],
      "name": "constructedCorrectly",
      "type": "event"
    },
    {
      "inputs": [
        {
          "internalType": "address",
          "name": "",
          "type": "address"
        }
      ],
      "name": "hasCompletedExercice",
      "outputs": [
        {
          "internalType": "bool",
          "name": "",
          "type": "bool"
        }
      ],
      "stateMutability": "view",
      "type": "function",
      "constant": true
    },
    {
      "inputs": [],
      "name": "askForPoints",
      "outputs": [],
      "stateMutability": "nonpayable",
      "type": "function"
    }
  ],
  "bytecode": "0x608060405234801561001057600080fd5b5060405161076d38038061076d8339818101604052602081101561003357600080fd5b810190808051906020019092919050505080806000806101000a81548173ffffffffffffffffffffffffffffffffffffffff021916908373ffffffffffffffffffffffffffffffffffffffff1602179055507f2915b3b4e0613c6b63dca39a375dd8c9f1de68d9e208a0713b7624260e2d08126000809054906101000a900473ffffffffffffffffffffffffffffffffffffffff16604051808273ffffffffffffffffffffffffffffffffffffffff1673ffffffffffffffffffffffffffffffffffffffff16815260200191505060405180910390a150506106538061011a6000396000f3fe608060405234801561001057600080fd5b50600436106100365760003560e01c80639b1336031461003b578063c42365c614610045575b600080fd5b6100436100a1565b005b6100876004803603602081101561005b57600080fd5b81019080803573ffffffffffffffffffffffffffffffffffffffff16906020019092919050505061043b565b604051808215151515815260200191505060405180910390f35b60008060009054906101000a900473ffffffffffffffffffffffffffffffffffffffff1673ffffffffffffffffffffffffffffffffffffffff166370a08231336040518263ffffffff1660e01b8152600401808273ffffffffffffffffffffffffffffffffffffffff1673ffffffffffffffffffffffffffffffffffffffff16815260200191505060206040518083038186803b15801561014157600080fd5b505afa158015610155573d6000803e3d6000fd5b505050506040513d602081101561016b57600080fd5b81019080805190602001909291905050509050600081146101d7576040517f08c379a00000000000000000000000000000000000000000000000000000000081526004018080602001828103825260238152602001806105cc6023913960400191505060405180910390fd5b60003390508073ffffffffffffffffffffffffffffffffffffffff166359b4726c6040518163ffffffff1660e01b8152600401600060405180830381600087803b15801561022457600080fd5b505af1158015610238573d6000803e3d6000fd5b5050505060008060009054906101000a900473ffffffffffffffffffffffffffffffffffffffff1673ffffffffffffffffffffffffffffffffffffffff166370a08231336040518263ffffffff1660e01b8152600401808273ffffffffffffffffffffffffffffffffffffffff1673ffffffffffffffffffffffffffffffffffffffff16815260200191505060206040518083038186803b1580156102dc57600080fd5b505afa1580156102f0573d6000803e3d6000fd5b505050506040513d602081101561030657600080fd5b8101908080519060200190929190505050905060008060009054906101000a900473ffffffffffffffffffffffffffffffffffffffff1673ffffffffffffffffffffffffffffffffffffffff1663313ce5676040518163ffffffff1660e01b815260040160206040518083038186803b15801561038257600080fd5b505afa158015610396573d6000803e3d6000fd5b505050506040513d60208110156103ac57600080fd5b810190808051906020019092919050505060ff169050600281600a0a02821015610421576040517f08c379a000000000000000000000000000000000000000000000000000000000815260040180806020018281038252602f8152602001806105ef602f913960400191505060405180910390fd5b61042c60023361045b565b61043533610571565b50505050565b60016020528060005260406000206000915054906101000a900460ff1681565b600160008273ffffffffffffffffffffffffffffffffffffffff1673ffffffffffffffffffffffffffffffffffffffff16815260200190815260200160002060009054906101000a900460ff1661056d576000809054906101000a900473ffffffffffffffffffffffffffffffffffffffff1673ffffffffffffffffffffffffffffffffffffffff1663158a498882846040518363ffffffff1660e01b8152600401808373ffffffffffffffffffffffffffffffffffffffff1673ffffffffffffffffffffffffffffffffffffffff16815260200182815260200192505050600060405180830381600087803b15801561055457600080fd5b505af1158015610568573d6000803e3d6000fd5b505050505b5050565b60018060008373ffffffffffffffffffffffffffffffffffffffff1673ffffffffffffffffffffffffffffffffffffffff16815260200190815260200160002060006101000a81548160ff0219169083151502179055505056fe536f6c7574696f6e2073686f756c642073746172742077697468203020706f696e7473536f6c7574696f6e2073686f756c6420656e642077697468206174206c65617374207468616e203220706f696e7473a264697066735822122079cbb686cfcf9c404e7bd3dce09a5af47e9c25d93b7ce19932e08b7c6941154864736f6c63430006020033",
  "source": "pragma solidity ^0.6.0;\n\n\nimport \"../exerciceTemplate.sol\";\nimport \"./Iex14Solution.sol\";\n\n/*\nExercice 14: Completing all the workshop in a single transaction!\nIn this exercice you should:\n- Implement a contract that complies with interface Iex14Solution\n- Call the appropriate function here to trigger collecting points\n*/\n\n\ncontract ex14 is exerciceTemplate {\n\n\n  constructor(ERC20TD _TDERC20) \n  public \n  exerciceTemplate(_TDERC20)\n  {\n  }\n\n  function askForPoints() \n  public  \n  {\n    // Checking that solution has no token yet\n    uint256 initialBalance = TDERC20.balanceOf(msg.sender);\n    require(initialBalance == 0, \"Solution should start with 0 points\");\n\n    // Calling the solution so that it solves the workshop\n    Iex14Solution callerSolution = Iex14Solution(msg.sender);\n    callerSolution.completeWorkshop();\n\n    // Checking that at least 10 exercices where validated\n    uint256 finalBalance = TDERC20.balanceOf(msg.sender);\n    uint256 decimals = TDERC20.decimals();\n    require(finalBalance >= 10**decimals *2, \"Solution should end with at least than 2 points\");\n\n    // Validating exercice\n    creditStudent(2, msg.sender);\n    validateExercice(msg.sender);\n\n  }\n\n\n}\n",
  "sourcePath": "/Users/henrilieutaud/Documents/Workshop/Solidity/solidity-101/contracts/exercices/ex14.sol",
  "compiler": {
    "name": "solc",
    "version": "0.6.2+commit.bacdbe57.Emscripten.clang"
  },
  "schemaVersion": "3.4.7",
  "updatedAt": "2022-11-18T10:14:38.888Z",
  "networkType": "ethereum",
  "devdoc": {
    "methods": {}
  },
  "userdoc": {
    "methods": {}
  }
}