{
  "contractName": "ex3",
  "abi": [
    {
      "constant": true,
      "inputs": [],
      "name": "pointsManagerContractAddress",
      "outputs": [
        {
          "name": "",
          "type": "address"
        }
      ],
      "payable": false,
      "stateMutability": "view",
      "type": "function"
    },
    {
      "constant": true,
      "inputs": [],
      "name": "teachersOrganAddress",
      "outputs": [
        {
          "name": "",
          "type": "address"
        }
      ],
      "payable": false,
      "stateMutability": "view",
      "type": "function"
    },
    {
      "constant": true,
      "inputs": [
        {
          "name": "",
          "type": "address"
        }
      ],
      "name": "hasCompletedExercice",
      "outputs": [
        {
          "name": "",
          "type": "bool"
        }
      ],
      "payable": false,
      "stateMutability": "view",
      "type": "function"
    },
    {
      "constant": true,
      "inputs": [],
      "name": "studentsOrganAddress",
      "outputs": [
        {
          "name": "",
          "type": "address"
        }
      ],
      "payable": false,
      "stateMutability": "view",
      "type": "function"
    },
    {
      "inputs": [
        {
          "name": "_studentsOrganAddres",
          "type": "address"
        },
        {
          "name": "_teachersOrganAddress",
          "type": "address"
        },
        {
          "name": "_pointsManagerContractAddress",
          "type": "address"
        }
      ],
      "payable": false,
      "stateMutability": "nonpayable",
      "type": "constructor"
    },
    {
      "constant": false,
      "inputs": [
        {
          "name": "_studentUint",
          "type": "uint256"
        }
      ],
      "name": "claimPoints",
      "outputs": [],
      "payable": false,
      "stateMutability": "nonpayable",
      "type": "function"
    }
  ],
  "bytecode": "0x608060405234801561001057600080fd5b506040516060806107fe833981018060405281019080805190602001909291908051906020019092919080519060200190929190505050828282826000806101000a81548173ffffffffffffffffffffffffffffffffffffffff021916908373ffffffffffffffffffffffffffffffffffffffff16021790555081600260006101000a81548173ffffffffffffffffffffffffffffffffffffffff021916908373ffffffffffffffffffffffffffffffffffffffff16021790555080600160006101000a81548173ffffffffffffffffffffffffffffffffffffffff021916908373ffffffffffffffffffffffffffffffffffffffff1602179055505050505050506106dd806101216000396000f30060806040526004361061006d576000357c0100000000000000000000000000000000000000000000000000000000900463ffffffff16806307e05408146100725780633ac795de146100c95780637f4c5172146100f6578063c42365c61461014d578063c8065ad2146101a8575b600080fd5b34801561007e57600080fd5b506100876101ff565b604051808273ffffffffffffffffffffffffffffffffffffffff1673ffffffffffffffffffffffffffffffffffffffff16815260200191505060405180910390f35b3480156100d557600080fd5b506100f460048036038101908080359060200190929190505050610225565b005b34801561010257600080fd5b5061010b610504565b604051808273ffffffffffffffffffffffffffffffffffffffff1673ffffffffffffffffffffffffffffffffffffffff16815260200191505060405180910390f35b34801561015957600080fd5b5061018e600480360381019080803573ffffffffffffffffffffffffffffffffffffffff16906020019092919050505061052a565b604051808215151515815260200191505060405180910390f35b3480156101b457600080fd5b506101bd61054a565b604051808273ffffffffffffffffffffffffffffffffffffffff1673ffffffffffffffffffffffffffffffffffffffff16815260200191505060405180910390f35b600160009054906101000a900473ffffffffffffffffffffffffffffffffffffffff1681565b60008060008060009054906101000a900473ffffffffffffffffffffffffffffffffffffffff1692508273ffffffffffffffffffffffffffffffffffffffff16635549ea51336040518263ffffffff167c0100000000000000000000000000000000000000000000000000000000028152600401808273ffffffffffffffffffffffffffffffffffffffff1673ffffffffffffffffffffffffffffffffffffffff168152602001915050602060405180830381600087803b1580156102e957600080fd5b505af11580156102fd573d6000803e3d6000fd5b505050506040513d602081101561031357600080fd5b810190808051906020019092919050505091506000821415151561033657600080fd5b8273ffffffffffffffffffffffffffffffffffffffff1663e3a31b2c836040518263ffffffff167c010000000000000000000000000000000000000000000000000000000002815260040180828152602001915050600060405180830381600087803b1580156103a557600080fd5b505af11580156103b9573d6000803e3d6000fd5b505050506040513d6000823e3d601f19601f8201168201806040525060a08110156103e357600080fd5b8101908080516401000000008111156103fb57600080fd5b8281019050602081018481111561041157600080fd5b815185600182028301116401000000008211171561042e57600080fd5b50509291906020018051906020019092919080519060200190929190805190602001909291908051906020019092919050505050509250505042816001900411151561047957600080fd5b60011515600360003373ffffffffffffffffffffffffffffffffffffffff1673ffffffffffffffffffffffffffffffffffffffff16815260200190815260200160002060009054906101000a900460ff161515141515156104d957600080fd5b6202c18a841415156104ea57600080fd5b6104f33361056f565b6104fe60c8336105ca565b50505050565b600260009054906101000a900473ffffffffffffffffffffffffffffffffffffffff1681565b60036020528060005260406000206000915054906101000a900460ff1681565b6000809054906101000a900473ffffffffffffffffffffffffffffffffffffffff1681565b6001600360008373ffffffffffffffffffffffffffffffffffffffff1673ffffffffffffffffffffffffffffffffffffffff16815260200190815260200160002060006101000a81548160ff02191690831515021790555050565b6000600160009054906101000a900473ffffffffffffffffffffffffffffffffffffffff1690508073ffffffffffffffffffffffffffffffffffffffff1663f35484ee84846040518363ffffffff167c0100000000000000000000000000000000000000000000000000000000028152600401808381526020018273ffffffffffffffffffffffffffffffffffffffff1673ffffffffffffffffffffffffffffffffffffffff16815260200192505050600060405180830381600087803b15801561069457600080fd5b505af11580156106a8573d6000803e3d6000fd5b505050505050505600a165627a7a7230582042fc9373bd89bcdf01af0f02ca468dd9b40b4cbb81a68f3959287afb7506bf280029",
  "source": "pragma solidity ^0.4.24;\n\nimport \"../exerciceTemplate.sol\";\n\n/*\nExercice 3: Using a simple public contract function\nIn this exercice, you need to:\n- Use this contract's claimPoints() function\n- Your points are credited by the contract\n*/\n \n/*\nWhat you need to know to complete this exercice\nA) What was included in the previous exercices\nB) The contract ABI is included in the \"build\" folder at the root of the repo, in a JSON file\n\n*/\ncontract ex3 is exerciceTemplate {\n\n\tconstructor(address _studentsOrganAddres, address _teachersOrganAddress, address _pointsManagerContractAddress) \n  exerciceTemplate(_studentsOrganAddres, _teachersOrganAddress, _pointsManagerContractAddress) \n  public\n  {}\n  \n  function claimPoints(uint _studentUint) \n  public \n  canWorkOnExercice \n  {\n\n  \trequire(_studentUint == 180618);\n\n  \t// Validating exercice\n    validateExercice(msg.sender);\n    creditStudent(200, msg.sender);\n\n  }\n\n}\n",
  "sourcePath": "/Users/henrilieutaud/Documents/Mes documents/ESILV/03 Blockchain Programmation/solidity-101/contracts/exercices/ex3.sol",
  "compiler": {
    "name": "solc",
    "version": "0.4.25+commit.59dbf8f1.Emscripten.clang"
  },
  "schemaVersion": "2.0.2",
  "updatedAt": "2019-02-21T16:27:06.745Z"
}