{
  "contractName": "ex6",
  "abi": [
    {
      "constant": true,
      "inputs": [],
      "name": "pointsManagerContractAddress",
      "outputs": [
        {
          "name": "",
          "type": "address"
        }
      ],
      "payable": false,
      "stateMutability": "view",
      "type": "function"
    },
    {
      "constant": true,
      "inputs": [],
      "name": "nextValueStoreRank",
      "outputs": [
        {
          "name": "",
          "type": "uint256"
        }
      ],
      "payable": false,
      "stateMutability": "view",
      "type": "function"
    },
    {
      "constant": true,
      "inputs": [
        {
          "name": "",
          "type": "address"
        }
      ],
      "name": "publicValues",
      "outputs": [
        {
          "name": "",
          "type": "uint256"
        }
      ],
      "payable": false,
      "stateMutability": "view",
      "type": "function"
    },
    {
      "constant": true,
      "inputs": [],
      "name": "teachersOrganAddress",
      "outputs": [
        {
          "name": "",
          "type": "address"
        }
      ],
      "payable": false,
      "stateMutability": "view",
      "type": "function"
    },
    {
      "constant": true,
      "inputs": [
        {
          "name": "",
          "type": "address"
        }
      ],
      "name": "hasCompletedExercice",
      "outputs": [
        {
          "name": "",
          "type": "bool"
        }
      ],
      "payable": false,
      "stateMutability": "view",
      "type": "function"
    },
    {
      "constant": true,
      "inputs": [],
      "name": "studentsOrganAddress",
      "outputs": [
        {
          "name": "",
          "type": "address"
        }
      ],
      "payable": false,
      "stateMutability": "view",
      "type": "function"
    },
    {
      "inputs": [
        {
          "name": "_studentsOrganAddres",
          "type": "address"
        },
        {
          "name": "_teachersOrganAddress",
          "type": "address"
        },
        {
          "name": "_pointsManagerContractAddress",
          "type": "address"
        }
      ],
      "payable": false,
      "stateMutability": "nonpayable",
      "type": "constructor"
    },
    {
      "constant": false,
      "inputs": [
        {
          "name": "_randomValuesStore",
          "type": "uint256[20]"
        }
      ],
      "name": "setRandomValueStore",
      "outputs": [],
      "payable": false,
      "stateMutability": "nonpayable",
      "type": "function"
    },
    {
      "constant": false,
      "inputs": [],
      "name": "startExercice",
      "outputs": [],
      "payable": false,
      "stateMutability": "nonpayable",
      "type": "function"
    },
    {
      "constant": false,
      "inputs": [],
      "name": "duplicatePrivateValueInPublic",
      "outputs": [],
      "payable": false,
      "stateMutability": "nonpayable",
      "type": "function"
    },
    {
      "constant": false,
      "inputs": [
        {
          "name": "_privateValue",
          "type": "uint256"
        }
      ],
      "name": "showYouKnowPrivateValue",
      "outputs": [],
      "payable": false,
      "stateMutability": "nonpayable",
      "type": "function"
    }
  ],
  "bytecode": "0x608060405234801561001057600080fd5b50604051606080611195833981018060405281019080805190602001909291908051906020019092919080519060200190929190505050828282826000806101000a81548173ffffffffffffffffffffffffffffffffffffffff021916908373ffffffffffffffffffffffffffffffffffffffff16021790555081600260006101000a81548173ffffffffffffffffffffffffffffffffffffffff021916908373ffffffffffffffffffffffffffffffffffffffff16021790555080600160006101000a81548173ffffffffffffffffffffffffffffffffffffffff021916908373ffffffffffffffffffffffffffffffffffffffff160217905550505050505050611074806101216000396000f3006080604052600436106100a4576000357c0100000000000000000000000000000000000000000000000000000000900463ffffffff16806307e05408146100a957806339119dce146101005780633a3c079c1461012b5780637f4c517214610182578063b956be87146101d9578063c42365c6146101f0578063c8065ad21461024b578063e4cd0c98146102a2578063e7c02727146102b9578063f6dd339e1461030c575b600080fd5b3480156100b557600080fd5b506100be610339565b604051808273ffffffffffffffffffffffffffffffffffffffff1673ffffffffffffffffffffffffffffffffffffffff16815260200191505060405180910390f35b34801561010c57600080fd5b5061011561035f565b6040518082815260200191505060405180910390f35b34801561013757600080fd5b5061016c600480360381019080803573ffffffffffffffffffffffffffffffffffffffff169060200190929190505050610365565b6040518082815260200191505060405180910390f35b34801561018e57600080fd5b5061019761037d565b604051808273ffffffffffffffffffffffffffffffffffffffff1673ffffffffffffffffffffffffffffffffffffffff16815260200191505060405180910390f35b3480156101e557600080fd5b506101ee6103a3565b005b3480156101fc57600080fd5b50610231600480360381019080803573ffffffffffffffffffffffffffffffffffffffff1690602001909291905050506106e2565b604051808215151515815260200191505060405180910390f35b34801561025757600080fd5b50610260610702565b604051808273ffffffffffffffffffffffffffffffffffffffff1673ffffffffffffffffffffffffffffffffffffffff16815260200191505060405180910390f35b3480156102ae57600080fd5b506102b7610727565b005b3480156102c557600080fd5b5061030a600480360381019080806102800190601480602002604051908101604052809291908260146020028082843782019150505050509192919290505050610a5c565b005b34801561031857600080fd5b5061033760048036038101908080359060200190929190505050610b86565b005b600160009054906101000a900473ffffffffffffffffffffffffffffffffffffffff1681565b601a5481565b60056020528060005260406000206000915090505481565b600260009054906101000a900473ffffffffffffffffffffffffffffffffffffffff1681565b60008060008060009054906101000a900473ffffffffffffffffffffffffffffffffffffffff1692508273ffffffffffffffffffffffffffffffffffffffff16635549ea51336040518263ffffffff167c0100000000000000000000000000000000000000000000000000000000028152600401808273ffffffffffffffffffffffffffffffffffffffff1673ffffffffffffffffffffffffffffffffffffffff168152602001915050602060405180830381600087803b15801561046757600080fd5b505af115801561047b573d6000803e3d6000fd5b505050506040513d602081101561049157600080fd5b81019080805190602001909291905050509150600082141515156104b457600080fd5b8273ffffffffffffffffffffffffffffffffffffffff1663e3a31b2c836040518263ffffffff167c010000000000000000000000000000000000000000000000000000000002815260040180828152602001915050600060405180830381600087803b15801561052357600080fd5b505af1158015610537573d6000803e3d6000fd5b505050506040513d6000823e3d601f19601f8201168201806040525060a081101561056157600080fd5b81019080805164010000000081111561057957600080fd5b8281019050602081018481111561058f57600080fd5b81518560018202830111640100000000821117156105ac57600080fd5b5050929190602001805190602001909291908051906020019092919080519060200190929190805190602001909291905050505050925050504281600190041115156105f757600080fd5b60011515600360003373ffffffffffffffffffffffffffffffffffffffff1673ffffffffffffffffffffffffffffffffffffffff16815260200190815260200160002060009054906101000a900460ff1615151415151561065757600080fd5b6055600460003373ffffffffffffffffffffffffffffffffffffffff1673ffffffffffffffffffffffffffffffffffffffff1681526020019081526020016000205401600560003373ffffffffffffffffffffffffffffffffffffffff1673ffffffffffffffffffffffffffffffffffffffff16815260200190815260200160002081905550505050565b60036020528060005260406000206000915054906101000a900460ff1681565b6000809054906101000a900473ffffffffffffffffffffffffffffffffffffffff1681565b60008060008060009054906101000a900473ffffffffffffffffffffffffffffffffffffffff1692508273ffffffffffffffffffffffffffffffffffffffff16635549ea51336040518263ffffffff167c0100000000000000000000000000000000000000000000000000000000028152600401808273ffffffffffffffffffffffffffffffffffffffff1673ffffffffffffffffffffffffffffffffffffffff168152602001915050602060405180830381600087803b1580156107eb57600080fd5b505af11580156107ff573d6000803e3d6000fd5b505050506040513d602081101561081557600080fd5b810190808051906020019092919050505091506000821415151561083857600080fd5b8273ffffffffffffffffffffffffffffffffffffffff1663e3a31b2c836040518263ffffffff167c010000000000000000000000000000000000000000000000000000000002815260040180828152602001915050600060405180830381600087803b1580156108a757600080fd5b505af11580156108bb573d6000803e3d6000fd5b505050506040513d6000823e3d601f19601f8201168201806040525060a08110156108e557600080fd5b8101908080516401000000008111156108fd57600080fd5b8281019050602081018481111561091357600080fd5b815185600182028301116401000000008211171561093057600080fd5b50509291906020018051906020019092919080519060200190929190805190602001909291908051906020019092919050505050509250505042816001900411151561097b57600080fd5b60011515600360003373ffffffffffffffffffffffffffffffffffffffff1673ffffffffffffffffffffffffffffffffffffffff16815260200190815260200160002060009054906101000a900460ff161515141515156109db57600080fd5b6006601a546014811015156109ec57fe5b0154600460003373ffffffffffffffffffffffffffffffffffffffff1673ffffffffffffffffffffffffffffffffffffffff168152602001908152602001600020819055506001601a600082825401925050819055506014601a54101515610a57576000601a819055505b505050565b6000600260009054906101000a900473ffffffffffffffffffffffffffffffffffffffff16905060008173ffffffffffffffffffffffffffffffffffffffff16635549ea51336040518263ffffffff167c0100000000000000000000000000000000000000000000000000000000028152600401808273ffffffffffffffffffffffffffffffffffffffff1673ffffffffffffffffffffffffffffffffffffffff168152602001915050602060405180830381600087803b158015610b2057600080fd5b505af1158015610b34573d6000803e3d6000fd5b505050506040513d6020811015610b4a57600080fd5b810190808051906020019092919050505014151515610b6857600080fd5b816006906014610b79929190610fe3565b506000601a819055505050565b60008060008060009054906101000a900473ffffffffffffffffffffffffffffffffffffffff1692508273ffffffffffffffffffffffffffffffffffffffff16635549ea51336040518263ffffffff167c0100000000000000000000000000000000000000000000000000000000028152600401808273ffffffffffffffffffffffffffffffffffffffff1673ffffffffffffffffffffffffffffffffffffffff168152602001915050602060405180830381600087803b158015610c4a57600080fd5b505af1158015610c5e573d6000803e3d6000fd5b505050506040513d6020811015610c7457600080fd5b8101908080519060200190929190505050915060008214151515610c9757600080fd5b8273ffffffffffffffffffffffffffffffffffffffff1663e3a31b2c836040518263ffffffff167c010000000000000000000000000000000000000000000000000000000002815260040180828152602001915050600060405180830381600087803b158015610d0657600080fd5b505af1158015610d1a573d6000803e3d6000fd5b505050506040513d6000823e3d601f19601f8201168201806040525060a0811015610d4457600080fd5b810190808051640100000000811115610d5c57600080fd5b82810190506020810184811115610d7257600080fd5b8151856001820283011164010000000082111715610d8f57600080fd5b505092919060200180519060200190929190805190602001909291908051906020019092919080519060200190929190505050505092505050428160019004111515610dda57600080fd5b60011515600360003373ffffffffffffffffffffffffffffffffffffffff1673ffffffffffffffffffffffffffffffffffffffff16815260200190815260200160002060009054906101000a900460ff16151514151515610e3a57600080fd5b83600460003373ffffffffffffffffffffffffffffffffffffffff1673ffffffffffffffffffffffffffffffffffffffff16815260200190815260200160002054141515610e8757600080fd5b610e9033610ea1565b610e9b60c833610efc565b50505050565b6001600360008373ffffffffffffffffffffffffffffffffffffffff1673ffffffffffffffffffffffffffffffffffffffff16815260200190815260200160002060006101000a81548160ff02191690831515021790555050565b6000600160009054906101000a900473ffffffffffffffffffffffffffffffffffffffff1690508073ffffffffffffffffffffffffffffffffffffffff1663f35484ee84846040518363ffffffff167c0100000000000000000000000000000000000000000000000000000000028152600401808381526020018273ffffffffffffffffffffffffffffffffffffffff1673ffffffffffffffffffffffffffffffffffffffff16815260200192505050600060405180830381600087803b158015610fc657600080fd5b505af1158015610fda573d6000803e3d6000fd5b50505050505050565b8260148101928215611012579160200282015b82811115611011578251825591602001919060010190610ff6565b5b50905061101f9190611023565b5090565b61104591905b80821115611041576000816000905550600101611029565b5090565b905600a165627a7a7230582037d64f11f7d5009d66d1efeff28f5ca783f79e61f07eec0551aefe8e7e4d747c0029",
  "source": "pragma solidity ^0.4.24;\n\n\nimport \"../exerciceTemplate.sol\";\n\n/*\nExercice 6: public/private variables\nIn this exercice, you need to:\n- Use a function to get assigned a private variable\n- Use a function to duplicate this variable in a public variables\n- Use a function to show you know the correct value of the private variable\n- Your points are credited by the contract\n*/\n\n/*\nWhat you need to know to complete this exercice\nA) What was included in the previous exercices\nB) The differences between public and private variables https://solidity.readthedocs.io/en/develop/contracts.html#index-3\nC) What a contract constructor is https://solidity.readthedocs.io/en/develop/contracts.html#index-17\nD) When the contract is created, the teacher creates an array called randomValuesStore. \nWhen students start the exercice, they get assigned one of these values.\n*/\ncontract ex6 is exerciceTemplate {\n\n\tmapping(address => uint) private privateValues;\n  mapping(address => uint) public publicValues;\n  uint[20] private randomValuesStore;\n  uint public nextValueStoreRank;\n\n  constructor(address _studentsOrganAddres, address _teachersOrganAddress, address _pointsManagerContractAddress) \n  exerciceTemplate(_studentsOrganAddres, _teachersOrganAddress, _pointsManagerContractAddress) \n  public\n  {}\n  \n  function setRandomValueStore(uint[20] _randomValuesStore) \n  public \n  onlyTeacher\n  {\n   randomValuesStore = _randomValuesStore;\n   nextValueStoreRank = 0;\n  }\n\n  function startExercice() \n  public \n  canWorkOnExercice \n  {\n    privateValues[msg.sender] = randomValuesStore[nextValueStoreRank];\n    nextValueStoreRank += 1;\n    if (nextValueStoreRank >= randomValuesStore.length)\n    {\n     nextValueStoreRank = 0; \n    }\n  }\n  \n  function duplicatePrivateValueInPublic() \n  public \n  canWorkOnExercice \n  {\n    publicValues[msg.sender] = privateValues[msg.sender] + 85;\n  }\n\n  function showYouKnowPrivateValue(uint _privateValue) \n  public \n  canWorkOnExercice \n  {\n    require(privateValues[msg.sender] == _privateValue);\n\n    // Validating exercice\n    validateExercice(msg.sender);\n    creditStudent(200, msg.sender);\n\n  }\n\n}\n",
  "sourcePath": "/Users/henrilieutaud/Documents/Mes documents/ESILV/03 Blockchain Programmation/solidity-101/contracts/exercices/ex6.sol",
  "compiler": {
    "name": "solc",
    "version": "0.4.25+commit.59dbf8f1.Emscripten.clang"
  },
  "schemaVersion": "2.0.2",
  "updatedAt": "2019-02-21T16:27:06.764Z"
}