{
  "contractName": "ex6",
  "abi": [
    {
      "constant": true,
      "inputs": [],
      "name": "pointsManagerContractAddress",
      "outputs": [
        {
          "name": "",
          "type": "address"
        }
      ],
      "payable": false,
      "stateMutability": "view",
      "type": "function"
    },
    {
      "constant": true,
      "inputs": [],
      "name": "nextValueStoreRank",
      "outputs": [
        {
          "name": "",
          "type": "uint256"
        }
      ],
      "payable": false,
      "stateMutability": "view",
      "type": "function"
    },
    {
      "constant": true,
      "inputs": [
        {
          "name": "",
          "type": "address"
        }
      ],
      "name": "publicValues",
      "outputs": [
        {
          "name": "",
          "type": "uint256"
        }
      ],
      "payable": false,
      "stateMutability": "view",
      "type": "function"
    },
    {
      "constant": true,
      "inputs": [],
      "name": "teachersOrganAddress",
      "outputs": [
        {
          "name": "",
          "type": "address"
        }
      ],
      "payable": false,
      "stateMutability": "view",
      "type": "function"
    },
    {
      "constant": true,
      "inputs": [
        {
          "name": "",
          "type": "address"
        }
      ],
      "name": "exerciceWasStarted",
      "outputs": [
        {
          "name": "",
          "type": "bool"
        }
      ],
      "payable": false,
      "stateMutability": "view",
      "type": "function"
    },
    {
      "constant": true,
      "inputs": [
        {
          "name": "",
          "type": "address"
        }
      ],
      "name": "hasCompletedExercice",
      "outputs": [
        {
          "name": "",
          "type": "bool"
        }
      ],
      "payable": false,
      "stateMutability": "view",
      "type": "function"
    },
    {
      "constant": true,
      "inputs": [],
      "name": "studentsOrganAddress",
      "outputs": [
        {
          "name": "",
          "type": "address"
        }
      ],
      "payable": false,
      "stateMutability": "view",
      "type": "function"
    },
    {
      "inputs": [
        {
          "name": "_studentsOrganAddres",
          "type": "address"
        },
        {
          "name": "_teachersOrganAddress",
          "type": "address"
        },
        {
          "name": "_pointsManagerContractAddress",
          "type": "address"
        }
      ],
      "payable": false,
      "stateMutability": "nonpayable",
      "type": "constructor"
    },
    {
      "constant": false,
      "inputs": [
        {
          "name": "_randomValuesStore",
          "type": "uint256[20]"
        }
      ],
      "name": "setRandomValueStore",
      "outputs": [],
      "payable": false,
      "stateMutability": "nonpayable",
      "type": "function"
    },
    {
      "constant": false,
      "inputs": [],
      "name": "startExercice",
      "outputs": [],
      "payable": false,
      "stateMutability": "nonpayable",
      "type": "function"
    },
    {
      "constant": false,
      "inputs": [],
      "name": "duplicatePrivateValueInPublic",
      "outputs": [],
      "payable": false,
      "stateMutability": "nonpayable",
      "type": "function"
    },
    {
      "constant": false,
      "inputs": [
        {
          "name": "_privateValue",
          "type": "uint256"
        }
      ],
      "name": "showYouKnowPrivateValue",
      "outputs": [],
      "payable": false,
      "stateMutability": "nonpayable",
      "type": "function"
    }
  ],
  "bytecode": "0x608060405234801561001057600080fd5b5060405160608061118a8339810180604052606081101561003057600080fd5b81019080805190602001909291908051906020019092919080519060200190929190505050828282826000806101000a81548173ffffffffffffffffffffffffffffffffffffffff021916908373ffffffffffffffffffffffffffffffffffffffff16021790555081600260006101000a81548173ffffffffffffffffffffffffffffffffffffffff021916908373ffffffffffffffffffffffffffffffffffffffff16021790555080600160006101000a81548173ffffffffffffffffffffffffffffffffffffffff021916908373ffffffffffffffffffffffffffffffffffffffff16021790555050505050505061105b8061012f6000396000f3fe608060405234801561001057600080fd5b50600436106100c6576000357c010000000000000000000000000000000000000000000000000000000090048063b956be871161008e578063b956be8714610231578063c42365c61461023b578063c8065ad214610297578063e4cd0c98146102e1578063e7c02727146102eb578063f6dd339e14610352576100c6565b806307e05408146100cb57806339119dce146101155780633a3c079c146101335780637f4c51721461018b5780638f63cb20146101d5575b600080fd5b6100d3610380565b604051808273ffffffffffffffffffffffffffffffffffffffff1673ffffffffffffffffffffffffffffffffffffffff16815260200191505060405180910390f35b61011d6103a6565b6040518082815260200191505060405180910390f35b6101756004803603602081101561014957600080fd5b81019080803573ffffffffffffffffffffffffffffffffffffffff1690602001909291905050506103ac565b6040518082815260200191505060405180910390f35b6101936103c4565b604051808273ffffffffffffffffffffffffffffffffffffffff1673ffffffffffffffffffffffffffffffffffffffff16815260200191505060405180910390f35b610217600480360360208110156101eb57600080fd5b81019080803573ffffffffffffffffffffffffffffffffffffffff1690602001909291905050506103ea565b604051808215151515815260200191505060405180910390f35b61023961040a565b005b61027d6004803603602081101561025157600080fd5b81019080803573ffffffffffffffffffffffffffffffffffffffff1690602001909291905050506106e2565b604051808215151515815260200191505060405180910390f35b61029f610702565b604051808273ffffffffffffffffffffffffffffffffffffffff1673ffffffffffffffffffffffffffffffffffffffff16815260200191505060405180910390f35b6102e9610727565b005b610350600480360361028081101561030257600080fd5b810190808061028001906014806020026040519081016040528092919082601460200280828437600081840152601f19601f8201169050808301925050505050509192919290505050610a4d565b005b61037e6004803603602081101561036857600080fd5b8101908080359060200190929190505050610b75565b005b600160009054906101000a900473ffffffffffffffffffffffffffffffffffffffff1681565b601b5481565b60056020528060005260406000206000915090505481565b600260009054906101000a900473ffffffffffffffffffffffffffffffffffffffff1681565b60066020528060005260406000206000915054906101000a900460ff1681565b60008060009054906101000a900473ffffffffffffffffffffffffffffffffffffffff16905060008173ffffffffffffffffffffffffffffffffffffffff16635549ea51336040518263ffffffff167c0100000000000000000000000000000000000000000000000000000000028152600401808273ffffffffffffffffffffffffffffffffffffffff1673ffffffffffffffffffffffffffffffffffffffff16815260200191505060206040518083038186803b1580156104cb57600080fd5b505afa1580156104df573d6000803e3d6000fd5b505050506040513d60208110156104f557600080fd5b810190808051906020019092919050505090506000811415151561051857600080fd5b60008273ffffffffffffffffffffffffffffffffffffffff1663db051526836040518263ffffffff167c01000000000000000000000000000000000000000000000000000000000281526004018082815260200191505060806040518083038186803b15801561058757600080fd5b505afa15801561059b573d6000803e3d6000fd5b505050506040513d60808110156105b157600080fd5b810190808051906020019092919080519060200190929190805190602001909291908051906020019092919050505050509150504281600190041115156105f757600080fd5b60011515600360003373ffffffffffffffffffffffffffffffffffffffff1673ffffffffffffffffffffffffffffffffffffffff16815260200190815260200160002060009054906101000a900460ff1615151415151561065757600080fd5b6055600460003373ffffffffffffffffffffffffffffffffffffffff1673ffffffffffffffffffffffffffffffffffffffff1681526020019081526020016000205401600560003373ffffffffffffffffffffffffffffffffffffffff1673ffffffffffffffffffffffffffffffffffffffff16815260200190815260200160002081905550505050565b60036020528060005260406000206000915054906101000a900460ff1681565b6000809054906101000a900473ffffffffffffffffffffffffffffffffffffffff1681565b60008060009054906101000a900473ffffffffffffffffffffffffffffffffffffffff16905060008173ffffffffffffffffffffffffffffffffffffffff16635549ea51336040518263ffffffff167c0100000000000000000000000000000000000000000000000000000000028152600401808273ffffffffffffffffffffffffffffffffffffffff1673ffffffffffffffffffffffffffffffffffffffff16815260200191505060206040518083038186803b1580156107e857600080fd5b505afa1580156107fc573d6000803e3d6000fd5b505050506040513d602081101561081257600080fd5b810190808051906020019092919050505090506000811415151561083557600080fd5b60008273ffffffffffffffffffffffffffffffffffffffff1663db051526836040518263ffffffff167c01000000000000000000000000000000000000000000000000000000000281526004018082815260200191505060806040518083038186803b1580156108a457600080fd5b505afa1580156108b8573d6000803e3d6000fd5b505050506040513d60808110156108ce57600080fd5b8101908080519060200190929190805190602001909291908051906020019092919080519060200190929190505050505091505042816001900411151561091457600080fd5b60011515600360003373ffffffffffffffffffffffffffffffffffffffff1673ffffffffffffffffffffffffffffffffffffffff16815260200190815260200160002060009054906101000a900460ff1615151415151561097457600080fd5b6007601b5460148110151561098557fe5b0154600460003373ffffffffffffffffffffffffffffffffffffffff1673ffffffffffffffffffffffffffffffffffffffff168152602001908152602001600020819055506001601b600082825401925050819055506014601b541015156109f0576000601b819055505b6001600660003373ffffffffffffffffffffffffffffffffffffffff1673ffffffffffffffffffffffffffffffffffffffff16815260200190815260200160002060006101000a81548160ff021916908315150217905550505050565b6000600260009054906101000a900473ffffffffffffffffffffffffffffffffffffffff16905060008173ffffffffffffffffffffffffffffffffffffffff16635549ea51336040518263ffffffff167c0100000000000000000000000000000000000000000000000000000000028152600401808273ffffffffffffffffffffffffffffffffffffffff1673ffffffffffffffffffffffffffffffffffffffff16815260200191505060206040518083038186803b158015610b0f57600080fd5b505afa158015610b23573d6000803e3d6000fd5b505050506040513d6020811015610b3957600080fd5b810190808051906020019092919050505014151515610b5757600080fd5b816007906014610b68929190610fca565b506000601b819055505050565b60008060009054906101000a900473ffffffffffffffffffffffffffffffffffffffff16905060008173ffffffffffffffffffffffffffffffffffffffff16635549ea51336040518263ffffffff167c0100000000000000000000000000000000000000000000000000000000028152600401808273ffffffffffffffffffffffffffffffffffffffff1673ffffffffffffffffffffffffffffffffffffffff16815260200191505060206040518083038186803b158015610c3657600080fd5b505afa158015610c4a573d6000803e3d6000fd5b505050506040513d6020811015610c6057600080fd5b8101908080519060200190929190505050905060008114151515610c8357600080fd5b60008273ffffffffffffffffffffffffffffffffffffffff1663db051526836040518263ffffffff167c01000000000000000000000000000000000000000000000000000000000281526004018082815260200191505060806040518083038186803b158015610cf257600080fd5b505afa158015610d06573d6000803e3d6000fd5b505050506040513d6080811015610d1c57600080fd5b81019080805190602001909291908051906020019092919080519060200190929190805190602001909291905050505050915050428160019004111515610d6257600080fd5b60011515600360003373ffffffffffffffffffffffffffffffffffffffff1673ffffffffffffffffffffffffffffffffffffffff16815260200190815260200160002060009054906101000a900460ff16151514151515610dc257600080fd5b83600460003373ffffffffffffffffffffffffffffffffffffffff1673ffffffffffffffffffffffffffffffffffffffff16815260200190815260200160002054141515610e0f57600080fd5b60011515600660003373ffffffffffffffffffffffffffffffffffffffff1673ffffffffffffffffffffffffffffffffffffffff16815260200190815260200160002060009054906101000a900460ff161515141515610e6e57600080fd5b610e7733610e88565b610e8260c833610ee3565b50505050565b6001600360008373ffffffffffffffffffffffffffffffffffffffff1673ffffffffffffffffffffffffffffffffffffffff16815260200190815260200160002060006101000a81548160ff02191690831515021790555050565b6000600160009054906101000a900473ffffffffffffffffffffffffffffffffffffffff1690508073ffffffffffffffffffffffffffffffffffffffff1663f35484ee84846040518363ffffffff167c0100000000000000000000000000000000000000000000000000000000028152600401808381526020018273ffffffffffffffffffffffffffffffffffffffff1673ffffffffffffffffffffffffffffffffffffffff16815260200192505050600060405180830381600087803b158015610fad57600080fd5b505af1158015610fc1573d6000803e3d6000fd5b50505050505050565b8260148101928215610ff9579160200282015b82811115610ff8578251825591602001919060010190610fdd565b5b509050611006919061100a565b5090565b61102c91905b80821115611028576000816000905550600101611010565b5090565b9056fea165627a7a7230582007a1571d294d2be6e4410bf1ec794caf23f373b55b791037994b505d108af43c0029",
  "source": "pragma solidity >=0.4.21 <0.6.0;\r\n\r\n\r\nimport \"../exerciceTemplate.sol\";\r\n\r\n/*\r\nExercice 6: public/private variables\r\nIn this exercice, you need to:\r\n- Use a function to get assigned a private variable\r\n- Use a function to duplicate this variable in a public variables\r\n- Use a function to show you know the correct value of the private variable\r\n- Your points are credited by the contract\r\n*/\r\n\r\n/*\r\nWhat you need to know to complete this exercice\r\nA) What was included in the previous exercices\r\nB) The differences between public and private variables https://solidity.readthedocs.io/en/develop/contracts.html#index-3\r\nC) What a contract constructor is https://solidity.readthedocs.io/en/develop/contracts.html#index-17\r\nD) When the contract is created, the teacher creates an array called randomValuesStore. \r\nWhen students start the exercice, they get assigned one of these values.\r\n*/\r\ncontract ex6 is exerciceTemplate {\r\n\r\n\tmapping(address => uint) private privateValues;\r\n  mapping(address => uint) public publicValues;\r\n  mapping(address => bool) public exerciceWasStarted;\r\n\r\n  uint[20] private randomValuesStore;\r\n  uint public nextValueStoreRank;\r\n\r\n  constructor(address payable _studentsOrganAddres, address payable _teachersOrganAddress, address payable _pointsManagerContractAddress) \r\n  exerciceTemplate(_studentsOrganAddres, _teachersOrganAddress, _pointsManagerContractAddress) \r\n  public\r\n  {}\r\n  \r\n  function setRandomValueStore(uint[20] memory _randomValuesStore) \r\n  public \r\n  onlyTeacher\r\n  {\r\n   randomValuesStore = _randomValuesStore;\r\n   nextValueStoreRank = 0;\r\n  }\r\n\r\n  function startExercice() \r\n  public \r\n  canWorkOnExercice \r\n  {\r\n    privateValues[msg.sender] = randomValuesStore[nextValueStoreRank];\r\n    nextValueStoreRank += 1;\r\n    if (nextValueStoreRank >= randomValuesStore.length)\r\n    {\r\n     nextValueStoreRank = 0; \r\n    }\r\n    exerciceWasStarted[msg.sender] = true;\r\n  }\r\n  \r\n  function duplicatePrivateValueInPublic() \r\n  public \r\n  canWorkOnExercice \r\n  {\r\n    publicValues[msg.sender] = privateValues[msg.sender] + 85;\r\n  }\r\n\r\n  function showYouKnowPrivateValue(uint _privateValue) \r\n  public \r\n  canWorkOnExercice \r\n  {\r\n    require(privateValues[msg.sender] == _privateValue);\r\n    require(exerciceWasStarted[msg.sender] == true);\r\n    \r\n    // Validating exercice\r\n    validateExercice(msg.sender);\r\n    creditStudent(200, msg.sender);\r\n\r\n  }\r\n\r\n}\r\n",
  "sourcePath": "C:/Users/hlieutaud/Documents/Workshop/Solidity/solidity-101/contracts/exercices/ex6.sol",
  "compiler": {
    "name": "solc",
    "version": "0.5.4+commit.9549d8ff.Emscripten.clang"
  },
  "schemaVersion": "3.0.10",
  "updatedAt": "2019-10-01T09:15:40.157Z",
  "devdoc": {
    "methods": {}
  },
  "userdoc": {
    "methods": {}
  }
}