{
  "contractName": "ex6",
  "abi": [
    {
      "constant": true,
      "inputs": [],
      "name": "pointsManagerContractAddress",
      "outputs": [
        {
          "name": "",
          "type": "address"
        }
      ],
      "payable": false,
      "stateMutability": "view",
      "type": "function"
    },
    {
      "constant": true,
      "inputs": [],
      "name": "nextValueStoreRank",
      "outputs": [
        {
          "name": "",
          "type": "uint256"
        }
      ],
      "payable": false,
      "stateMutability": "view",
      "type": "function"
    },
    {
      "constant": true,
      "inputs": [
        {
          "name": "",
          "type": "address"
        }
      ],
      "name": "publicValues",
      "outputs": [
        {
          "name": "",
          "type": "uint256"
        }
      ],
      "payable": false,
      "stateMutability": "view",
      "type": "function"
    },
    {
      "constant": true,
      "inputs": [],
      "name": "teachersOrganAddress",
      "outputs": [
        {
          "name": "",
          "type": "address"
        }
      ],
      "payable": false,
      "stateMutability": "view",
      "type": "function"
    },
    {
      "constant": true,
      "inputs": [
        {
          "name": "",
          "type": "address"
        }
      ],
      "name": "exerciceWasStarted",
      "outputs": [
        {
          "name": "",
          "type": "bool"
        }
      ],
      "payable": false,
      "stateMutability": "view",
      "type": "function"
    },
    {
      "constant": true,
      "inputs": [
        {
          "name": "",
          "type": "address"
        }
      ],
      "name": "hasCompletedExercice",
      "outputs": [
        {
          "name": "",
          "type": "bool"
        }
      ],
      "payable": false,
      "stateMutability": "view",
      "type": "function"
    },
    {
      "constant": true,
      "inputs": [],
      "name": "studentsOrganAddress",
      "outputs": [
        {
          "name": "",
          "type": "address"
        }
      ],
      "payable": false,
      "stateMutability": "view",
      "type": "function"
    },
    {
      "inputs": [
        {
          "name": "_studentsOrganAddres",
          "type": "address"
        },
        {
          "name": "_teachersOrganAddress",
          "type": "address"
        },
        {
          "name": "_pointsManagerContractAddress",
          "type": "address"
        }
      ],
      "payable": false,
      "stateMutability": "nonpayable",
      "type": "constructor"
    },
    {
      "constant": false,
      "inputs": [
        {
          "name": "_randomValuesStore",
          "type": "uint256[20]"
        }
      ],
      "name": "setRandomValueStore",
      "outputs": [],
      "payable": false,
      "stateMutability": "nonpayable",
      "type": "function"
    },
    {
      "constant": false,
      "inputs": [],
      "name": "startExercice",
      "outputs": [],
      "payable": false,
      "stateMutability": "nonpayable",
      "type": "function"
    },
    {
      "constant": false,
      "inputs": [],
      "name": "duplicatePrivateValueInPublic",
      "outputs": [],
      "payable": false,
      "stateMutability": "nonpayable",
      "type": "function"
    },
    {
      "constant": false,
      "inputs": [
        {
          "name": "_privateValue",
          "type": "uint256"
        }
      ],
      "name": "showYouKnowPrivateValue",
      "outputs": [],
      "payable": false,
      "stateMutability": "nonpayable",
      "type": "function"
    }
  ],
  "bytecode": "0x608060405234801561001057600080fd5b506040516060806112d2833981018060405281019080805190602001909291908051906020019092919080519060200190929190505050828282826000806101000a81548173ffffffffffffffffffffffffffffffffffffffff021916908373ffffffffffffffffffffffffffffffffffffffff16021790555081600260006101000a81548173ffffffffffffffffffffffffffffffffffffffff021916908373ffffffffffffffffffffffffffffffffffffffff16021790555080600160006101000a81548173ffffffffffffffffffffffffffffffffffffffff021916908373ffffffffffffffffffffffffffffffffffffffff1602179055505050505050506111b1806101216000396000f3006080604052600436106100af576000357c0100000000000000000000000000000000000000000000000000000000900463ffffffff16806307e05408146100b457806339119dce1461010b5780633a3c079c146101365780637f4c51721461018d5780638f63cb20146101e4578063b956be871461023f578063c42365c614610256578063c8065ad2146102b1578063e4cd0c9814610308578063e7c027271461031f578063f6dd339e14610372575b600080fd5b3480156100c057600080fd5b506100c961039f565b604051808273ffffffffffffffffffffffffffffffffffffffff1673ffffffffffffffffffffffffffffffffffffffff16815260200191505060405180910390f35b34801561011757600080fd5b506101206103c5565b6040518082815260200191505060405180910390f35b34801561014257600080fd5b50610177600480360381019080803573ffffffffffffffffffffffffffffffffffffffff1690602001909291905050506103cb565b6040518082815260200191505060405180910390f35b34801561019957600080fd5b506101a26103e3565b604051808273ffffffffffffffffffffffffffffffffffffffff1673ffffffffffffffffffffffffffffffffffffffff16815260200191505060405180910390f35b3480156101f057600080fd5b50610225600480360381019080803573ffffffffffffffffffffffffffffffffffffffff169060200190929190505050610409565b604051808215151515815260200191505060405180910390f35b34801561024b57600080fd5b50610254610429565b005b34801561026257600080fd5b50610297600480360381019080803573ffffffffffffffffffffffffffffffffffffffff169060200190929190505050610768565b604051808215151515815260200191505060405180910390f35b3480156102bd57600080fd5b506102c6610788565b604051808273ffffffffffffffffffffffffffffffffffffffff1673ffffffffffffffffffffffffffffffffffffffff16815260200191505060405180910390f35b34801561031457600080fd5b5061031d6107ad565b005b34801561032b57600080fd5b50610370600480360381019080806102800190601480602002604051908101604052809291908260146020028082843782019150505050509192919290505050610b3a565b005b34801561037e57600080fd5b5061039d60048036038101908080359060200190929190505050610c64565b005b600160009054906101000a900473ffffffffffffffffffffffffffffffffffffffff1681565b601b5481565b60056020528060005260406000206000915090505481565b600260009054906101000a900473ffffffffffffffffffffffffffffffffffffffff1681565b60066020528060005260406000206000915054906101000a900460ff1681565b60008060008060009054906101000a900473ffffffffffffffffffffffffffffffffffffffff1692508273ffffffffffffffffffffffffffffffffffffffff16635549ea51336040518263ffffffff167c0100000000000000000000000000000000000000000000000000000000028152600401808273ffffffffffffffffffffffffffffffffffffffff1673ffffffffffffffffffffffffffffffffffffffff168152602001915050602060405180830381600087803b1580156104ed57600080fd5b505af1158015610501573d6000803e3d6000fd5b505050506040513d602081101561051757600080fd5b810190808051906020019092919050505091506000821415151561053a57600080fd5b8273ffffffffffffffffffffffffffffffffffffffff1663e3a31b2c836040518263ffffffff167c010000000000000000000000000000000000000000000000000000000002815260040180828152602001915050600060405180830381600087803b1580156105a957600080fd5b505af11580156105bd573d6000803e3d6000fd5b505050506040513d6000823e3d601f19601f8201168201806040525060a08110156105e757600080fd5b8101908080516401000000008111156105ff57600080fd5b8281019050602081018481111561061557600080fd5b815185600182028301116401000000008211171561063257600080fd5b50509291906020018051906020019092919080519060200190929190805190602001909291908051906020019092919050505050509250505042816001900411151561067d57600080fd5b60011515600360003373ffffffffffffffffffffffffffffffffffffffff1673ffffffffffffffffffffffffffffffffffffffff16815260200190815260200160002060009054906101000a900460ff161515141515156106dd57600080fd5b6055600460003373ffffffffffffffffffffffffffffffffffffffff1673ffffffffffffffffffffffffffffffffffffffff1681526020019081526020016000205401600560003373ffffffffffffffffffffffffffffffffffffffff1673ffffffffffffffffffffffffffffffffffffffff16815260200190815260200160002081905550505050565b60036020528060005260406000206000915054906101000a900460ff1681565b6000809054906101000a900473ffffffffffffffffffffffffffffffffffffffff1681565b60008060008060009054906101000a900473ffffffffffffffffffffffffffffffffffffffff1692508273ffffffffffffffffffffffffffffffffffffffff16635549ea51336040518263ffffffff167c0100000000000000000000000000000000000000000000000000000000028152600401808273ffffffffffffffffffffffffffffffffffffffff1673ffffffffffffffffffffffffffffffffffffffff168152602001915050602060405180830381600087803b15801561087157600080fd5b505af1158015610885573d6000803e3d6000fd5b505050506040513d602081101561089b57600080fd5b81019080805190602001909291905050509150600082141515156108be57600080fd5b8273ffffffffffffffffffffffffffffffffffffffff1663e3a31b2c836040518263ffffffff167c010000000000000000000000000000000000000000000000000000000002815260040180828152602001915050600060405180830381600087803b15801561092d57600080fd5b505af1158015610941573d6000803e3d6000fd5b505050506040513d6000823e3d601f19601f8201168201806040525060a081101561096b57600080fd5b81019080805164010000000081111561098357600080fd5b8281019050602081018481111561099957600080fd5b81518560018202830111640100000000821117156109b657600080fd5b505092919060200180519060200190929190805190602001909291908051906020019092919080519060200190929190505050505092505050428160019004111515610a0157600080fd5b60011515600360003373ffffffffffffffffffffffffffffffffffffffff1673ffffffffffffffffffffffffffffffffffffffff16815260200190815260200160002060009054906101000a900460ff16151514151515610a6157600080fd5b6007601b54601481101515610a7257fe5b0154600460003373ffffffffffffffffffffffffffffffffffffffff1673ffffffffffffffffffffffffffffffffffffffff168152602001908152602001600020819055506001601b600082825401925050819055506014601b54101515610add576000601b819055505b6001600660003373ffffffffffffffffffffffffffffffffffffffff1673ffffffffffffffffffffffffffffffffffffffff16815260200190815260200160002060006101000a81548160ff021916908315150217905550505050565b6000600260009054906101000a900473ffffffffffffffffffffffffffffffffffffffff16905060008173ffffffffffffffffffffffffffffffffffffffff16635549ea51336040518263ffffffff167c0100000000000000000000000000000000000000000000000000000000028152600401808273ffffffffffffffffffffffffffffffffffffffff1673ffffffffffffffffffffffffffffffffffffffff168152602001915050602060405180830381600087803b158015610bfe57600080fd5b505af1158015610c12573d6000803e3d6000fd5b505050506040513d6020811015610c2857600080fd5b810190808051906020019092919050505014151515610c4657600080fd5b816007906014610c57929190611120565b506000601b819055505050565b60008060008060009054906101000a900473ffffffffffffffffffffffffffffffffffffffff1692508273ffffffffffffffffffffffffffffffffffffffff16635549ea51336040518263ffffffff167c0100000000000000000000000000000000000000000000000000000000028152600401808273ffffffffffffffffffffffffffffffffffffffff1673ffffffffffffffffffffffffffffffffffffffff168152602001915050602060405180830381600087803b158015610d2857600080fd5b505af1158015610d3c573d6000803e3d6000fd5b505050506040513d6020811015610d5257600080fd5b8101908080519060200190929190505050915060008214151515610d7557600080fd5b8273ffffffffffffffffffffffffffffffffffffffff1663e3a31b2c836040518263ffffffff167c010000000000000000000000000000000000000000000000000000000002815260040180828152602001915050600060405180830381600087803b158015610de457600080fd5b505af1158015610df8573d6000803e3d6000fd5b505050506040513d6000823e3d601f19601f8201168201806040525060a0811015610e2257600080fd5b810190808051640100000000811115610e3a57600080fd5b82810190506020810184811115610e5057600080fd5b8151856001820283011164010000000082111715610e6d57600080fd5b505092919060200180519060200190929190805190602001909291908051906020019092919080519060200190929190505050505092505050428160019004111515610eb857600080fd5b60011515600360003373ffffffffffffffffffffffffffffffffffffffff1673ffffffffffffffffffffffffffffffffffffffff16815260200190815260200160002060009054906101000a900460ff16151514151515610f1857600080fd5b83600460003373ffffffffffffffffffffffffffffffffffffffff1673ffffffffffffffffffffffffffffffffffffffff16815260200190815260200160002054141515610f6557600080fd5b60011515600660003373ffffffffffffffffffffffffffffffffffffffff1673ffffffffffffffffffffffffffffffffffffffff16815260200190815260200160002060009054906101000a900460ff161515141515610fc457600080fd5b610fcd33610fde565b610fd860c833611039565b50505050565b6001600360008373ffffffffffffffffffffffffffffffffffffffff1673ffffffffffffffffffffffffffffffffffffffff16815260200190815260200160002060006101000a81548160ff02191690831515021790555050565b6000600160009054906101000a900473ffffffffffffffffffffffffffffffffffffffff1690508073ffffffffffffffffffffffffffffffffffffffff1663f35484ee84846040518363ffffffff167c0100000000000000000000000000000000000000000000000000000000028152600401808381526020018273ffffffffffffffffffffffffffffffffffffffff1673ffffffffffffffffffffffffffffffffffffffff16815260200192505050600060405180830381600087803b15801561110357600080fd5b505af1158015611117573d6000803e3d6000fd5b50505050505050565b826014810192821561114f579160200282015b8281111561114e578251825591602001919060010190611133565b5b50905061115c9190611160565b5090565b61118291905b8082111561117e576000816000905550600101611166565b5090565b905600a165627a7a72305820a1cf128bb842d5dbbe2cd0092bbbfc88666fcdf8d6dae95ee991bc211efc70ba0029",
  "source": "pragma solidity ^0.4.24;\r\n\r\n\r\nimport \"../exerciceTemplate.sol\";\r\n\r\n/*\r\nExercice 6: public/private variables\r\nIn this exercice, you need to:\r\n- Use a function to get assigned a private variable\r\n- Use a function to duplicate this variable in a public variables\r\n- Use a function to show you know the correct value of the private variable\r\n- Your points are credited by the contract\r\n*/\r\n\r\n/*\r\nWhat you need to know to complete this exercice\r\nA) What was included in the previous exercices\r\nB) The differences between public and private variables https://solidity.readthedocs.io/en/develop/contracts.html#index-3\r\nC) What a contract constructor is https://solidity.readthedocs.io/en/develop/contracts.html#index-17\r\nD) When the contract is created, the teacher creates an array called randomValuesStore. \r\nWhen students start the exercice, they get assigned one of these values.\r\n*/\r\ncontract ex6 is exerciceTemplate {\r\n\r\n\tmapping(address => uint) private privateValues;\r\n  mapping(address => uint) public publicValues;\r\n  mapping(address => bool) public exerciceWasStarted;\r\n\r\n  uint[20] private randomValuesStore;\r\n  uint public nextValueStoreRank;\r\n\r\n  constructor(address _studentsOrganAddres, address _teachersOrganAddress, address _pointsManagerContractAddress) \r\n  exerciceTemplate(_studentsOrganAddres, _teachersOrganAddress, _pointsManagerContractAddress) \r\n  public\r\n  {}\r\n  \r\n  function setRandomValueStore(uint[20] _randomValuesStore) \r\n  public \r\n  onlyTeacher\r\n  {\r\n   randomValuesStore = _randomValuesStore;\r\n   nextValueStoreRank = 0;\r\n  }\r\n\r\n  function startExercice() \r\n  public \r\n  canWorkOnExercice \r\n  {\r\n    privateValues[msg.sender] = randomValuesStore[nextValueStoreRank];\r\n    nextValueStoreRank += 1;\r\n    if (nextValueStoreRank >= randomValuesStore.length)\r\n    {\r\n     nextValueStoreRank = 0; \r\n    }\r\n    exerciceWasStarted[msg.sender] = true;\r\n  }\r\n  \r\n  function duplicatePrivateValueInPublic() \r\n  public \r\n  canWorkOnExercice \r\n  {\r\n    publicValues[msg.sender] = privateValues[msg.sender] + 85;\r\n  }\r\n\r\n  function showYouKnowPrivateValue(uint _privateValue) \r\n  public \r\n  canWorkOnExercice \r\n  {\r\n    require(privateValues[msg.sender] == _privateValue);\r\n    require(exerciceWasStarted[msg.sender] == true);\r\n    \r\n    // Validating exercice\r\n    validateExercice(msg.sender);\r\n    creditStudent(200, msg.sender);\r\n\r\n  }\r\n\r\n}\r\n",
  "sourcePath": "C:\\Users\\LIEUTAUDHenri\\Documents\\Perso\\ESILV\\solidity-101\\contracts\\exercices\\ex6.sol",
  "compiler": {
    "name": "solc",
    "version": "0.4.24+commit.e67f0147.Emscripten.clang"
  },
  "schemaVersion": "2.0.1",
  "updatedAt": "2019-03-06T09:06:22.970Z"
}