{
  "contractName": "ex7",
  "abi": [
    {
      "constant": true,
      "inputs": [],
      "name": "pointsManagerContractAddress",
      "outputs": [
        {
          "name": "",
          "type": "address"
        }
      ],
      "payable": false,
      "stateMutability": "view",
      "type": "function"
    },
    {
      "constant": true,
      "inputs": [],
      "name": "nextValueStoreRank",
      "outputs": [
        {
          "name": "",
          "type": "uint256"
        }
      ],
      "payable": false,
      "stateMutability": "view",
      "type": "function"
    },
    {
      "constant": true,
      "inputs": [],
      "name": "teachersOrganAddress",
      "outputs": [
        {
          "name": "",
          "type": "address"
        }
      ],
      "payable": false,
      "stateMutability": "view",
      "type": "function"
    },
    {
      "constant": true,
      "inputs": [
        {
          "name": "",
          "type": "address"
        }
      ],
      "name": "hasCompletedExercice",
      "outputs": [
        {
          "name": "",
          "type": "bool"
        }
      ],
      "payable": false,
      "stateMutability": "view",
      "type": "function"
    },
    {
      "constant": true,
      "inputs": [],
      "name": "studentsOrganAddress",
      "outputs": [
        {
          "name": "",
          "type": "address"
        }
      ],
      "payable": false,
      "stateMutability": "view",
      "type": "function"
    },
    {
      "inputs": [
        {
          "name": "_studentsOrganAddres",
          "type": "address"
        },
        {
          "name": "_teachersOrganAddress",
          "type": "address"
        },
        {
          "name": "_pointsManagerContractAddress",
          "type": "address"
        }
      ],
      "payable": false,
      "stateMutability": "nonpayable",
      "type": "constructor"
    },
    {
      "anonymous": false,
      "inputs": [
        {
          "indexed": false,
          "name": "myVariable",
          "type": "uint256"
        }
      ],
      "name": "showPrivateVariableInEvent",
      "type": "event"
    },
    {
      "constant": false,
      "inputs": [
        {
          "name": "_randomValuesStore",
          "type": "uint256[20]"
        }
      ],
      "name": "setRandomValueStore",
      "outputs": [],
      "payable": false,
      "stateMutability": "nonpayable",
      "type": "function"
    },
    {
      "constant": false,
      "inputs": [],
      "name": "startExercice",
      "outputs": [],
      "payable": false,
      "stateMutability": "nonpayable",
      "type": "function"
    },
    {
      "constant": false,
      "inputs": [],
      "name": "fireEvent",
      "outputs": [],
      "payable": false,
      "stateMutability": "nonpayable",
      "type": "function"
    },
    {
      "constant": false,
      "inputs": [
        {
          "name": "_privateValue",
          "type": "uint256"
        }
      ],
      "name": "showYouKnowPrivateValue",
      "outputs": [],
      "payable": false,
      "stateMutability": "nonpayable",
      "type": "function"
    }
  ],
  "bytecode": "0x608060405234801561001057600080fd5b50604051606080610d1c833981018060405281019080805190602001909291908051906020019092919080519060200190929190505050828282826000806101000a81548173ffffffffffffffffffffffffffffffffffffffff021916908373ffffffffffffffffffffffffffffffffffffffff16021790555081600260006101000a81548173ffffffffffffffffffffffffffffffffffffffff021916908373ffffffffffffffffffffffffffffffffffffffff16021790555080600160006101000a81548173ffffffffffffffffffffffffffffffffffffffff021916908373ffffffffffffffffffffffffffffffffffffffff160217905550505050505050610bfb806101216000396000f300608060405260043610610099576000357c0100000000000000000000000000000000000000000000000000000000900463ffffffff16806307e054081461009e57806339119dce146100f55780634185df15146101205780637f4c517214610137578063c42365c61461018e578063c8065ad2146101e9578063e4cd0c9814610240578063e7c0272714610257578063f6dd339e146102aa575b600080fd5b3480156100aa57600080fd5b506100b36102d7565b604051808273ffffffffffffffffffffffffffffffffffffffff1673ffffffffffffffffffffffffffffffffffffffff16815260200191505060405180910390f35b34801561010157600080fd5b5061010a6102fd565b6040518082815260200191505060405180910390f35b34801561012c57600080fd5b50610135610303565b005b34801561014357600080fd5b5061014c6104e6565b604051808273ffffffffffffffffffffffffffffffffffffffff1673ffffffffffffffffffffffffffffffffffffffff16815260200191505060405180910390f35b34801561019a57600080fd5b506101cf600480360381019080803573ffffffffffffffffffffffffffffffffffffffff16906020019092919050505061050c565b604051808215151515815260200191505060405180910390f35b3480156101f557600080fd5b506101fe61052c565b604051808273ffffffffffffffffffffffffffffffffffffffff1673ffffffffffffffffffffffffffffffffffffffff16815260200191505060405180910390f35b34801561024c57600080fd5b50610255610551565b005b34801561026357600080fd5b506102a8600480360381019080806102800190601480602002604051908101604052809291908260146020028082843782019150505050509192919290505050610736565b005b3480156102b657600080fd5b506102d56004803603810190808035906020019092919050505061085c565b005b600160009054906101000a900473ffffffffffffffffffffffffffffffffffffffff1681565b60195481565b60008060009054906101000a900473ffffffffffffffffffffffffffffffffffffffff1690508073ffffffffffffffffffffffffffffffffffffffff1663d323a4f8336040518263ffffffff167c0100000000000000000000000000000000000000000000000000000000028152600401808273ffffffffffffffffffffffffffffffffffffffff1673ffffffffffffffffffffffffffffffffffffffff168152602001915050602060405180830381600087803b1580156103c457600080fd5b505af11580156103d8573d6000803e3d6000fd5b505050506040513d60208110156103ee57600080fd5b8101908080519060200190929190505050151561040a57600080fd5b60011515600360003373ffffffffffffffffffffffffffffffffffffffff1673ffffffffffffffffffffffffffffffffffffffff16815260200190815260200160002060009054906101000a900460ff1615151415151561046a57600080fd5b7fd6f3794025db9a72496b95eec7cc40ca87e4e97185c57b90d24356b988fed1586020600460003373ffffffffffffffffffffffffffffffffffffffff1673ffffffffffffffffffffffffffffffffffffffff16815260200190815260200160002054016040518082815260200191505060405180910390a150565b600260009054906101000a900473ffffffffffffffffffffffffffffffffffffffff1681565b60036020528060005260406000206000915054906101000a900460ff1681565b6000809054906101000a900473ffffffffffffffffffffffffffffffffffffffff1681565b60008060009054906101000a900473ffffffffffffffffffffffffffffffffffffffff1690508073ffffffffffffffffffffffffffffffffffffffff1663d323a4f8336040518263ffffffff167c0100000000000000000000000000000000000000000000000000000000028152600401808273ffffffffffffffffffffffffffffffffffffffff1673ffffffffffffffffffffffffffffffffffffffff168152602001915050602060405180830381600087803b15801561061257600080fd5b505af1158015610626573d6000803e3d6000fd5b505050506040513d602081101561063c57600080fd5b8101908080519060200190929190505050151561065857600080fd5b60011515600360003373ffffffffffffffffffffffffffffffffffffffff1673ffffffffffffffffffffffffffffffffffffffff16815260200190815260200160002060009054906101000a900460ff161515141515156106b857600080fd5b60056019546014811015156106c957fe5b0154600460003373ffffffffffffffffffffffffffffffffffffffff1673ffffffffffffffffffffffffffffffffffffffff168152602001908152602001600020819055506001601960008282540192505081905550601460195411156107335760006019819055505b50565b6000600260009054906101000a900473ffffffffffffffffffffffffffffffffffffffff1690508073ffffffffffffffffffffffffffffffffffffffff1663d323a4f8336040518263ffffffff167c0100000000000000000000000000000000000000000000000000000000028152600401808273ffffffffffffffffffffffffffffffffffffffff1673ffffffffffffffffffffffffffffffffffffffff168152602001915050602060405180830381600087803b1580156107f857600080fd5b505af115801561080c573d6000803e3d6000fd5b505050506040513d602081101561082257600080fd5b8101908080519060200190929190505050151561083e57600080fd5b81600590601461084f929190610b6a565b5060006019819055505050565b60008060009054906101000a900473ffffffffffffffffffffffffffffffffffffffff1690508073ffffffffffffffffffffffffffffffffffffffff1663d323a4f8336040518263ffffffff167c0100000000000000000000000000000000000000000000000000000000028152600401808273ffffffffffffffffffffffffffffffffffffffff1673ffffffffffffffffffffffffffffffffffffffff168152602001915050602060405180830381600087803b15801561091d57600080fd5b505af1158015610931573d6000803e3d6000fd5b505050506040513d602081101561094757600080fd5b8101908080519060200190929190505050151561096357600080fd5b60011515600360003373ffffffffffffffffffffffffffffffffffffffff1673ffffffffffffffffffffffffffffffffffffffff16815260200190815260200160002060009054906101000a900460ff161515141515156109c357600080fd5b81600460003373ffffffffffffffffffffffffffffffffffffffff1673ffffffffffffffffffffffffffffffffffffffff16815260200190815260200160002054141515610a1057600080fd5b610a1933610a28565b610a2460c833610a83565b5050565b6001600360008373ffffffffffffffffffffffffffffffffffffffff1673ffffffffffffffffffffffffffffffffffffffff16815260200190815260200160002060006101000a81548160ff02191690831515021790555050565b6000600160009054906101000a900473ffffffffffffffffffffffffffffffffffffffff1690508073ffffffffffffffffffffffffffffffffffffffff1663f35484ee84846040518363ffffffff167c0100000000000000000000000000000000000000000000000000000000028152600401808381526020018273ffffffffffffffffffffffffffffffffffffffff1673ffffffffffffffffffffffffffffffffffffffff16815260200192505050600060405180830381600087803b158015610b4d57600080fd5b505af1158015610b61573d6000803e3d6000fd5b50505050505050565b8260148101928215610b99579160200282015b82811115610b98578251825591602001919060010190610b7d565b5b509050610ba69190610baa565b5090565b610bcc91905b80821115610bc8576000816000905550600101610bb0565b5090565b905600a165627a7a72305820e2eb85cd3bb90a9fc5d95e8eaa6f9e6db1be2d99d7405ffc07b23bb9250ba5300029",
  "source": "pragma solidity ^0.4.24;\n\n\nimport \"../exerciceTemplate.sol\";\n\n/*\nExercice 7: Events\nIn this exercice, you need to:\n- Use a function to trigger an event\n- Use Etherscan to analyse this event\n- Use a function to show you know the correct value of a private variable\n- Your points are credited by the contract\n*/\n\n/*\nWhat you need to know to complete this exercice\nA) What was included in the previous exercices\nB) Events are used to log data that is accessible from a full node, but not stored in the contracts variables.\nhttps://solidity.readthedocs.io/en/develop/introduction-to-smart-contracts.html#index-2\nC) Etherscan.io https://etherscan.io/ lets you visualize events that were fired during a given transaction\n\n*/\ncontract ex7 is exerciceTemplate {\n\n\tmapping(address => uint) private privateValues;\n  uint[20] private randomValuesStore;\n  uint public nextValueStoreRank;\n\n  event showPrivateVariableInEvent(uint myVariable);\n\n  constructor(address _studentsOrganAddres, address _teachersOrganAddress, address _pointsManagerContractAddress) \n  exerciceTemplate(_studentsOrganAddres, _teachersOrganAddress, _pointsManagerContractAddress) \n  public\n  {}\n  \n  function setRandomValueStore(uint[20] _randomValuesStore) \n  public \n  onlyTeacher\n  {\n   randomValuesStore = _randomValuesStore;\n   nextValueStoreRank = 0;\n  }\n\n  function startExercice() \n  public \n  canWorkOnExercice \n  {\n    privateValues[msg.sender] = randomValuesStore[nextValueStoreRank];\n    nextValueStoreRank += 1;\n    if (nextValueStoreRank > randomValuesStore.length)\n    {\n     nextValueStoreRank = 0; \n    }\n  }\n  \n  function fireEvent() \n  public \n  canWorkOnExercice \n  {\n    emit showPrivateVariableInEvent(privateValues[msg.sender]+32);\n  }\n\n  function showYouKnowPrivateValue(uint _privateValue) \n  public \n  canWorkOnExercice \n  {\n    require(privateValues[msg.sender] == _privateValue);\n\n    // Validating exercice\n    validateExercice(msg.sender);\n    creditStudent(200, msg.sender);\n\n  }\n\n}\n",
  "sourcePath": "/Users/henrilieutaud/Documents/Mes documents/ESILV/Blockchain Programmation/solidity-101/contracts/exercices/ex7.sol",
  "compiler": {
    "name": "solc",
    "version": "0.4.24+commit.e67f0147.Emscripten.clang"
  },
  "schemaVersion": "2.0.1",
  "updatedAt": "2018-12-05T15:21:05.752Z"
}