{
  "contractName": "ex7",
  "abi": [
    {
      "constant": true,
      "inputs": [],
      "name": "pointsManagerContractAddress",
      "outputs": [
        {
          "name": "",
          "type": "address"
        }
      ],
      "payable": false,
      "stateMutability": "view",
      "type": "function"
    },
    {
      "constant": true,
      "inputs": [],
      "name": "nextValueStoreRank",
      "outputs": [
        {
          "name": "",
          "type": "uint256"
        }
      ],
      "payable": false,
      "stateMutability": "view",
      "type": "function"
    },
    {
      "constant": true,
      "inputs": [],
      "name": "teachersOrganAddress",
      "outputs": [
        {
          "name": "",
          "type": "address"
        }
      ],
      "payable": false,
      "stateMutability": "view",
      "type": "function"
    },
    {
      "constant": true,
      "inputs": [
        {
          "name": "",
          "type": "address"
        }
      ],
      "name": "exerciceWasStarted",
      "outputs": [
        {
          "name": "",
          "type": "bool"
        }
      ],
      "payable": false,
      "stateMutability": "view",
      "type": "function"
    },
    {
      "constant": true,
      "inputs": [
        {
          "name": "",
          "type": "address"
        }
      ],
      "name": "hasCompletedExercice",
      "outputs": [
        {
          "name": "",
          "type": "bool"
        }
      ],
      "payable": false,
      "stateMutability": "view",
      "type": "function"
    },
    {
      "constant": true,
      "inputs": [],
      "name": "studentsOrganAddress",
      "outputs": [
        {
          "name": "",
          "type": "address"
        }
      ],
      "payable": false,
      "stateMutability": "view",
      "type": "function"
    },
    {
      "inputs": [
        {
          "name": "_studentsOrganAddres",
          "type": "address"
        },
        {
          "name": "_teachersOrganAddress",
          "type": "address"
        },
        {
          "name": "_pointsManagerContractAddress",
          "type": "address"
        }
      ],
      "payable": false,
      "stateMutability": "nonpayable",
      "type": "constructor"
    },
    {
      "anonymous": false,
      "inputs": [
        {
          "indexed": false,
          "name": "myVariable",
          "type": "uint256"
        }
      ],
      "name": "showPrivateVariableInEvent",
      "type": "event"
    },
    {
      "constant": false,
      "inputs": [
        {
          "name": "_randomValuesStore",
          "type": "uint256[20]"
        }
      ],
      "name": "setRandomValueStore",
      "outputs": [],
      "payable": false,
      "stateMutability": "nonpayable",
      "type": "function"
    },
    {
      "constant": false,
      "inputs": [],
      "name": "startExercice",
      "outputs": [],
      "payable": false,
      "stateMutability": "nonpayable",
      "type": "function"
    },
    {
      "constant": false,
      "inputs": [],
      "name": "fireEvent",
      "outputs": [],
      "payable": false,
      "stateMutability": "nonpayable",
      "type": "function"
    },
    {
      "constant": false,
      "inputs": [
        {
          "name": "_privateValue",
          "type": "uint256"
        }
      ],
      "name": "showYouKnowPrivateValue",
      "outputs": [],
      "payable": false,
      "stateMutability": "nonpayable",
      "type": "function"
    }
  ],
  "bytecode": "0x608060405234801561001057600080fd5b5060405160608061124b833981018060405281019080805190602001909291908051906020019092919080519060200190929190505050828282826000806101000a81548173ffffffffffffffffffffffffffffffffffffffff021916908373ffffffffffffffffffffffffffffffffffffffff16021790555081600260006101000a81548173ffffffffffffffffffffffffffffffffffffffff021916908373ffffffffffffffffffffffffffffffffffffffff16021790555080600160006101000a81548173ffffffffffffffffffffffffffffffffffffffff021916908373ffffffffffffffffffffffffffffffffffffffff16021790555050505050505061112a806101216000396000f3006080604052600436106100a4576000357c0100000000000000000000000000000000000000000000000000000000900463ffffffff16806307e05408146100a957806339119dce146101005780634185df151461012b5780637f4c5172146101425780638f63cb2014610199578063c42365c6146101f4578063c8065ad21461024f578063e4cd0c98146102a6578063e7c02727146102bd578063f6dd339e14610310575b600080fd5b3480156100b557600080fd5b506100be61033d565b604051808273ffffffffffffffffffffffffffffffffffffffff1673ffffffffffffffffffffffffffffffffffffffff16815260200191505060405180910390f35b34801561010c57600080fd5b50610115610363565b6040518082815260200191505060405180910390f35b34801561013757600080fd5b50610140610369565b005b34801561014e57600080fd5b5061015761069b565b604051808273ffffffffffffffffffffffffffffffffffffffff1673ffffffffffffffffffffffffffffffffffffffff16815260200191505060405180910390f35b3480156101a557600080fd5b506101da600480360381019080803573ffffffffffffffffffffffffffffffffffffffff1690602001909291905050506106c1565b604051808215151515815260200191505060405180910390f35b34801561020057600080fd5b50610235600480360381019080803573ffffffffffffffffffffffffffffffffffffffff1690602001909291905050506106e1565b604051808215151515815260200191505060405180910390f35b34801561025b57600080fd5b50610264610701565b604051808273ffffffffffffffffffffffffffffffffffffffff1673ffffffffffffffffffffffffffffffffffffffff16815260200191505060405180910390f35b3480156102b257600080fd5b506102bb610726565b005b3480156102c957600080fd5b5061030e600480360381019080806102800190601480602002604051908101604052809291908260146020028082843782019150505050509192919290505050610ab3565b005b34801561031c57600080fd5b5061033b60048036038101908080359060200190929190505050610bdd565b005b600160009054906101000a900473ffffffffffffffffffffffffffffffffffffffff1681565b601a5481565b60008060008060009054906101000a900473ffffffffffffffffffffffffffffffffffffffff1692508273ffffffffffffffffffffffffffffffffffffffff16635549ea51336040518263ffffffff167c0100000000000000000000000000000000000000000000000000000000028152600401808273ffffffffffffffffffffffffffffffffffffffff1673ffffffffffffffffffffffffffffffffffffffff168152602001915050602060405180830381600087803b15801561042d57600080fd5b505af1158015610441573d6000803e3d6000fd5b505050506040513d602081101561045757600080fd5b810190808051906020019092919050505091506000821415151561047a57600080fd5b8273ffffffffffffffffffffffffffffffffffffffff1663e3a31b2c836040518263ffffffff167c010000000000000000000000000000000000000000000000000000000002815260040180828152602001915050600060405180830381600087803b1580156104e957600080fd5b505af11580156104fd573d6000803e3d6000fd5b505050506040513d6000823e3d601f19601f8201168201806040525060a081101561052757600080fd5b81019080805164010000000081111561053f57600080fd5b8281019050602081018481111561055557600080fd5b815185600182028301116401000000008211171561057257600080fd5b5050929190602001805190602001909291908051906020019092919080519060200190929190805190602001909291905050505050925050504281600190041115156105bd57600080fd5b60011515600360003373ffffffffffffffffffffffffffffffffffffffff1673ffffffffffffffffffffffffffffffffffffffff16815260200190815260200160002060009054906101000a900460ff1615151415151561061d57600080fd5b7fd6f3794025db9a72496b95eec7cc40ca87e4e97185c57b90d24356b988fed1586020600460003373ffffffffffffffffffffffffffffffffffffffff1673ffffffffffffffffffffffffffffffffffffffff16815260200190815260200160002054016040518082815260200191505060405180910390a1505050565b600260009054906101000a900473ffffffffffffffffffffffffffffffffffffffff1681565b60056020528060005260406000206000915054906101000a900460ff1681565b60036020528060005260406000206000915054906101000a900460ff1681565b6000809054906101000a900473ffffffffffffffffffffffffffffffffffffffff1681565b60008060008060009054906101000a900473ffffffffffffffffffffffffffffffffffffffff1692508273ffffffffffffffffffffffffffffffffffffffff16635549ea51336040518263ffffffff167c0100000000000000000000000000000000000000000000000000000000028152600401808273ffffffffffffffffffffffffffffffffffffffff1673ffffffffffffffffffffffffffffffffffffffff168152602001915050602060405180830381600087803b1580156107ea57600080fd5b505af11580156107fe573d6000803e3d6000fd5b505050506040513d602081101561081457600080fd5b810190808051906020019092919050505091506000821415151561083757600080fd5b8273ffffffffffffffffffffffffffffffffffffffff1663e3a31b2c836040518263ffffffff167c010000000000000000000000000000000000000000000000000000000002815260040180828152602001915050600060405180830381600087803b1580156108a657600080fd5b505af11580156108ba573d6000803e3d6000fd5b505050506040513d6000823e3d601f19601f8201168201806040525060a08110156108e457600080fd5b8101908080516401000000008111156108fc57600080fd5b8281019050602081018481111561091257600080fd5b815185600182028301116401000000008211171561092f57600080fd5b50509291906020018051906020019092919080519060200190929190805190602001909291908051906020019092919050505050509250505042816001900411151561097a57600080fd5b60011515600360003373ffffffffffffffffffffffffffffffffffffffff1673ffffffffffffffffffffffffffffffffffffffff16815260200190815260200160002060009054906101000a900460ff161515141515156109da57600080fd5b6006601a546014811015156109eb57fe5b0154600460003373ffffffffffffffffffffffffffffffffffffffff1673ffffffffffffffffffffffffffffffffffffffff168152602001908152602001600020819055506001601a600082825401925050819055506014601a54101515610a56576000601a819055505b6001600560003373ffffffffffffffffffffffffffffffffffffffff1673ffffffffffffffffffffffffffffffffffffffff16815260200190815260200160002060006101000a81548160ff021916908315150217905550505050565b6000600260009054906101000a900473ffffffffffffffffffffffffffffffffffffffff16905060008173ffffffffffffffffffffffffffffffffffffffff16635549ea51336040518263ffffffff167c0100000000000000000000000000000000000000000000000000000000028152600401808273ffffffffffffffffffffffffffffffffffffffff1673ffffffffffffffffffffffffffffffffffffffff168152602001915050602060405180830381600087803b158015610b7757600080fd5b505af1158015610b8b573d6000803e3d6000fd5b505050506040513d6020811015610ba157600080fd5b810190808051906020019092919050505014151515610bbf57600080fd5b816006906014610bd0929190611099565b506000601a819055505050565b60008060008060009054906101000a900473ffffffffffffffffffffffffffffffffffffffff1692508273ffffffffffffffffffffffffffffffffffffffff16635549ea51336040518263ffffffff167c0100000000000000000000000000000000000000000000000000000000028152600401808273ffffffffffffffffffffffffffffffffffffffff1673ffffffffffffffffffffffffffffffffffffffff168152602001915050602060405180830381600087803b158015610ca157600080fd5b505af1158015610cb5573d6000803e3d6000fd5b505050506040513d6020811015610ccb57600080fd5b8101908080519060200190929190505050915060008214151515610cee57600080fd5b8273ffffffffffffffffffffffffffffffffffffffff1663e3a31b2c836040518263ffffffff167c010000000000000000000000000000000000000000000000000000000002815260040180828152602001915050600060405180830381600087803b158015610d5d57600080fd5b505af1158015610d71573d6000803e3d6000fd5b505050506040513d6000823e3d601f19601f8201168201806040525060a0811015610d9b57600080fd5b810190808051640100000000811115610db357600080fd5b82810190506020810184811115610dc957600080fd5b8151856001820283011164010000000082111715610de657600080fd5b505092919060200180519060200190929190805190602001909291908051906020019092919080519060200190929190505050505092505050428160019004111515610e3157600080fd5b60011515600360003373ffffffffffffffffffffffffffffffffffffffff1673ffffffffffffffffffffffffffffffffffffffff16815260200190815260200160002060009054906101000a900460ff16151514151515610e9157600080fd5b83600460003373ffffffffffffffffffffffffffffffffffffffff1673ffffffffffffffffffffffffffffffffffffffff16815260200190815260200160002054141515610ede57600080fd5b60011515600560003373ffffffffffffffffffffffffffffffffffffffff1673ffffffffffffffffffffffffffffffffffffffff16815260200190815260200160002060009054906101000a900460ff161515141515610f3d57600080fd5b610f4633610f57565b610f5160c833610fb2565b50505050565b6001600360008373ffffffffffffffffffffffffffffffffffffffff1673ffffffffffffffffffffffffffffffffffffffff16815260200190815260200160002060006101000a81548160ff02191690831515021790555050565b6000600160009054906101000a900473ffffffffffffffffffffffffffffffffffffffff1690508073ffffffffffffffffffffffffffffffffffffffff1663f35484ee84846040518363ffffffff167c0100000000000000000000000000000000000000000000000000000000028152600401808381526020018273ffffffffffffffffffffffffffffffffffffffff1673ffffffffffffffffffffffffffffffffffffffff16815260200192505050600060405180830381600087803b15801561107c57600080fd5b505af1158015611090573d6000803e3d6000fd5b50505050505050565b82601481019282156110c8579160200282015b828111156110c75782518255916020019190600101906110ac565b5b5090506110d591906110d9565b5090565b6110fb91905b808211156110f75760008160009055506001016110df565b5090565b905600a165627a7a72305820cc12f81c057805f8900d96e9a9f5c1ab0c3ef2812b9bcbc815f233a64849c8820029",
  "source": "pragma solidity ^0.4.24;\r\n\r\n\r\nimport \"../exerciceTemplate.sol\";\r\n\r\n/*\r\nExercice 7: Events\r\nIn this exercice, you need to:\r\n- Use a function to trigger an event\r\n- Use Etherscan to analyse this event\r\n- Use a function to show you know the correct value of a private variable\r\n- Your points are credited by the contract\r\n*/\r\n\r\n/*\r\nWhat you need to know to complete this exercice\r\nA) What was included in the previous exercices\r\nB) Events are used to log data that is accessible from a full node, but not stored in the contracts variables.\r\nhttps://solidity.readthedocs.io/en/develop/introduction-to-smart-contracts.html#index-2\r\nC) Etherscan.io https://etherscan.io/ lets you visualize events that were fired during a given transaction\r\n\r\n*/\r\ncontract ex7 is exerciceTemplate {\r\n\r\n\tmapping(address => uint) private privateValues;\r\n  mapping(address => bool) public exerciceWasStarted;\r\n  uint[20] private randomValuesStore;\r\n  uint public nextValueStoreRank;\r\n\r\n  event showPrivateVariableInEvent(uint myVariable);\r\n\r\n  constructor(address _studentsOrganAddres, address _teachersOrganAddress, address _pointsManagerContractAddress) \r\n  exerciceTemplate(_studentsOrganAddres, _teachersOrganAddress, _pointsManagerContractAddress) \r\n  public\r\n  {}\r\n  \r\n  function setRandomValueStore(uint[20] _randomValuesStore) \r\n  public \r\n  onlyTeacher\r\n  {\r\n   randomValuesStore = _randomValuesStore;\r\n   nextValueStoreRank = 0;\r\n  }\r\n\r\n  function startExercice() \r\n  public \r\n  canWorkOnExercice \r\n  {\r\n    privateValues[msg.sender] = randomValuesStore[nextValueStoreRank];\r\n    nextValueStoreRank += 1;\r\n    if (nextValueStoreRank >= randomValuesStore.length)\r\n    {\r\n     nextValueStoreRank = 0; \r\n    }\r\n    exerciceWasStarted[msg.sender] = true;\r\n  }\r\n  \r\n  function fireEvent() \r\n  public \r\n  canWorkOnExercice \r\n  {\r\n    emit showPrivateVariableInEvent(privateValues[msg.sender]+32);\r\n  }\r\n\r\n  function showYouKnowPrivateValue(uint _privateValue) \r\n  public \r\n  canWorkOnExercice \r\n  {\r\n    require(privateValues[msg.sender] == _privateValue);\r\n    require(exerciceWasStarted[msg.sender] == true);\r\n    \r\n    // Validating exercice\r\n    validateExercice(msg.sender);\r\n    creditStudent(200, msg.sender);\r\n\r\n  }\r\n\r\n}\r\n",
  "sourcePath": "C:\\Users\\LIEUTAUDHenri\\Documents\\Perso\\ESILV\\solidity-101\\contracts\\exercices\\ex7.sol",
  "compiler": {
    "name": "solc",
    "version": "0.4.24+commit.e67f0147.Emscripten.clang"
  },
  "schemaVersion": "2.0.1",
  "updatedAt": "2019-03-06T09:06:22.965Z"
}