{
  "contractName": "ex7",
  "abi": [
    {
      "constant": true,
      "inputs": [],
      "name": "pointsManagerContractAddress",
      "outputs": [
        {
          "name": "",
          "type": "address"
        }
      ],
      "payable": false,
      "stateMutability": "view",
      "type": "function"
    },
    {
      "constant": true,
      "inputs": [],
      "name": "nextValueStoreRank",
      "outputs": [
        {
          "name": "",
          "type": "uint256"
        }
      ],
      "payable": false,
      "stateMutability": "view",
      "type": "function"
    },
    {
      "constant": true,
      "inputs": [],
      "name": "teachersOrganAddress",
      "outputs": [
        {
          "name": "",
          "type": "address"
        }
      ],
      "payable": false,
      "stateMutability": "view",
      "type": "function"
    },
    {
      "constant": true,
      "inputs": [
        {
          "name": "",
          "type": "address"
        }
      ],
      "name": "hasCompletedExercice",
      "outputs": [
        {
          "name": "",
          "type": "bool"
        }
      ],
      "payable": false,
      "stateMutability": "view",
      "type": "function"
    },
    {
      "constant": true,
      "inputs": [],
      "name": "studentsOrganAddress",
      "outputs": [
        {
          "name": "",
          "type": "address"
        }
      ],
      "payable": false,
      "stateMutability": "view",
      "type": "function"
    },
    {
      "inputs": [
        {
          "name": "_studentsOrganAddres",
          "type": "address"
        },
        {
          "name": "_teachersOrganAddress",
          "type": "address"
        },
        {
          "name": "_pointsManagerContractAddress",
          "type": "address"
        }
      ],
      "payable": false,
      "stateMutability": "nonpayable",
      "type": "constructor"
    },
    {
      "anonymous": false,
      "inputs": [
        {
          "indexed": false,
          "name": "myVariable",
          "type": "uint256"
        }
      ],
      "name": "showPrivateVariableInEvent",
      "type": "event"
    },
    {
      "constant": false,
      "inputs": [
        {
          "name": "_randomValuesStore",
          "type": "uint256[20]"
        }
      ],
      "name": "setRandomValueStore",
      "outputs": [],
      "payable": false,
      "stateMutability": "nonpayable",
      "type": "function"
    },
    {
      "constant": false,
      "inputs": [],
      "name": "startExercice",
      "outputs": [],
      "payable": false,
      "stateMutability": "nonpayable",
      "type": "function"
    },
    {
      "constant": false,
      "inputs": [],
      "name": "fireEvent",
      "outputs": [],
      "payable": false,
      "stateMutability": "nonpayable",
      "type": "function"
    },
    {
      "constant": false,
      "inputs": [
        {
          "name": "_privateValue",
          "type": "uint256"
        }
      ],
      "name": "showYouKnowPrivateValue",
      "outputs": [],
      "payable": false,
      "stateMutability": "nonpayable",
      "type": "function"
    }
  ],
  "bytecode": "0x608060405234801561001057600080fd5b5060405160608061110e833981018060405281019080805190602001909291908051906020019092919080519060200190929190505050828282826000806101000a81548173ffffffffffffffffffffffffffffffffffffffff021916908373ffffffffffffffffffffffffffffffffffffffff16021790555081600260006101000a81548173ffffffffffffffffffffffffffffffffffffffff021916908373ffffffffffffffffffffffffffffffffffffffff16021790555080600160006101000a81548173ffffffffffffffffffffffffffffffffffffffff021916908373ffffffffffffffffffffffffffffffffffffffff160217905550505050505050610fed806101216000396000f300608060405260043610610099576000357c0100000000000000000000000000000000000000000000000000000000900463ffffffff16806307e054081461009e57806339119dce146100f55780634185df15146101205780637f4c517214610137578063c42365c61461018e578063c8065ad2146101e9578063e4cd0c9814610240578063e7c0272714610257578063f6dd339e146102aa575b600080fd5b3480156100aa57600080fd5b506100b36102d7565b604051808273ffffffffffffffffffffffffffffffffffffffff1673ffffffffffffffffffffffffffffffffffffffff16815260200191505060405180910390f35b34801561010157600080fd5b5061010a6102fd565b6040518082815260200191505060405180910390f35b34801561012c57600080fd5b50610135610303565b005b34801561014357600080fd5b5061014c610635565b604051808273ffffffffffffffffffffffffffffffffffffffff1673ffffffffffffffffffffffffffffffffffffffff16815260200191505060405180910390f35b34801561019a57600080fd5b506101cf600480360381019080803573ffffffffffffffffffffffffffffffffffffffff16906020019092919050505061065b565b604051808215151515815260200191505060405180910390f35b3480156101f557600080fd5b506101fe61067b565b604051808273ffffffffffffffffffffffffffffffffffffffff1673ffffffffffffffffffffffffffffffffffffffff16815260200191505060405180910390f35b34801561024c57600080fd5b506102556106a0565b005b34801561026357600080fd5b506102a86004803603810190808061028001906014806020026040519081016040528092919082601460200280828437820191505050505091929192905050506109d5565b005b3480156102b657600080fd5b506102d560048036038101908080359060200190929190505050610aff565b005b600160009054906101000a900473ffffffffffffffffffffffffffffffffffffffff1681565b60195481565b60008060008060009054906101000a900473ffffffffffffffffffffffffffffffffffffffff1692508273ffffffffffffffffffffffffffffffffffffffff16635549ea51336040518263ffffffff167c0100000000000000000000000000000000000000000000000000000000028152600401808273ffffffffffffffffffffffffffffffffffffffff1673ffffffffffffffffffffffffffffffffffffffff168152602001915050602060405180830381600087803b1580156103c757600080fd5b505af11580156103db573d6000803e3d6000fd5b505050506040513d60208110156103f157600080fd5b810190808051906020019092919050505091506000821415151561041457600080fd5b8273ffffffffffffffffffffffffffffffffffffffff1663e3a31b2c836040518263ffffffff167c010000000000000000000000000000000000000000000000000000000002815260040180828152602001915050600060405180830381600087803b15801561048357600080fd5b505af1158015610497573d6000803e3d6000fd5b505050506040513d6000823e3d601f19601f8201168201806040525060a08110156104c157600080fd5b8101908080516401000000008111156104d957600080fd5b828101905060208101848111156104ef57600080fd5b815185600182028301116401000000008211171561050c57600080fd5b50509291906020018051906020019092919080519060200190929190805190602001909291908051906020019092919050505050509250505042816001900411151561055757600080fd5b60011515600360003373ffffffffffffffffffffffffffffffffffffffff1673ffffffffffffffffffffffffffffffffffffffff16815260200190815260200160002060009054906101000a900460ff161515141515156105b757600080fd5b7fd6f3794025db9a72496b95eec7cc40ca87e4e97185c57b90d24356b988fed1586020600460003373ffffffffffffffffffffffffffffffffffffffff1673ffffffffffffffffffffffffffffffffffffffff16815260200190815260200160002054016040518082815260200191505060405180910390a1505050565b600260009054906101000a900473ffffffffffffffffffffffffffffffffffffffff1681565b60036020528060005260406000206000915054906101000a900460ff1681565b6000809054906101000a900473ffffffffffffffffffffffffffffffffffffffff1681565b60008060008060009054906101000a900473ffffffffffffffffffffffffffffffffffffffff1692508273ffffffffffffffffffffffffffffffffffffffff16635549ea51336040518263ffffffff167c0100000000000000000000000000000000000000000000000000000000028152600401808273ffffffffffffffffffffffffffffffffffffffff1673ffffffffffffffffffffffffffffffffffffffff168152602001915050602060405180830381600087803b15801561076457600080fd5b505af1158015610778573d6000803e3d6000fd5b505050506040513d602081101561078e57600080fd5b81019080805190602001909291905050509150600082141515156107b157600080fd5b8273ffffffffffffffffffffffffffffffffffffffff1663e3a31b2c836040518263ffffffff167c010000000000000000000000000000000000000000000000000000000002815260040180828152602001915050600060405180830381600087803b15801561082057600080fd5b505af1158015610834573d6000803e3d6000fd5b505050506040513d6000823e3d601f19601f8201168201806040525060a081101561085e57600080fd5b81019080805164010000000081111561087657600080fd5b8281019050602081018481111561088c57600080fd5b81518560018202830111640100000000821117156108a957600080fd5b5050929190602001805190602001909291908051906020019092919080519060200190929190805190602001909291905050505050925050504281600190041115156108f457600080fd5b60011515600360003373ffffffffffffffffffffffffffffffffffffffff1673ffffffffffffffffffffffffffffffffffffffff16815260200190815260200160002060009054906101000a900460ff1615151415151561095457600080fd5b600560195460148110151561096557fe5b0154600460003373ffffffffffffffffffffffffffffffffffffffff1673ffffffffffffffffffffffffffffffffffffffff16815260200190815260200160002081905550600160196000828254019250508190555060146019541015156109d05760006019819055505b505050565b6000600260009054906101000a900473ffffffffffffffffffffffffffffffffffffffff16905060008173ffffffffffffffffffffffffffffffffffffffff16635549ea51336040518263ffffffff167c0100000000000000000000000000000000000000000000000000000000028152600401808273ffffffffffffffffffffffffffffffffffffffff1673ffffffffffffffffffffffffffffffffffffffff168152602001915050602060405180830381600087803b158015610a9957600080fd5b505af1158015610aad573d6000803e3d6000fd5b505050506040513d6020811015610ac357600080fd5b810190808051906020019092919050505014151515610ae157600080fd5b816005906014610af2929190610f5c565b5060006019819055505050565b60008060008060009054906101000a900473ffffffffffffffffffffffffffffffffffffffff1692508273ffffffffffffffffffffffffffffffffffffffff16635549ea51336040518263ffffffff167c0100000000000000000000000000000000000000000000000000000000028152600401808273ffffffffffffffffffffffffffffffffffffffff1673ffffffffffffffffffffffffffffffffffffffff168152602001915050602060405180830381600087803b158015610bc357600080fd5b505af1158015610bd7573d6000803e3d6000fd5b505050506040513d6020811015610bed57600080fd5b8101908080519060200190929190505050915060008214151515610c1057600080fd5b8273ffffffffffffffffffffffffffffffffffffffff1663e3a31b2c836040518263ffffffff167c010000000000000000000000000000000000000000000000000000000002815260040180828152602001915050600060405180830381600087803b158015610c7f57600080fd5b505af1158015610c93573d6000803e3d6000fd5b505050506040513d6000823e3d601f19601f8201168201806040525060a0811015610cbd57600080fd5b810190808051640100000000811115610cd557600080fd5b82810190506020810184811115610ceb57600080fd5b8151856001820283011164010000000082111715610d0857600080fd5b505092919060200180519060200190929190805190602001909291908051906020019092919080519060200190929190505050505092505050428160019004111515610d5357600080fd5b60011515600360003373ffffffffffffffffffffffffffffffffffffffff1673ffffffffffffffffffffffffffffffffffffffff16815260200190815260200160002060009054906101000a900460ff16151514151515610db357600080fd5b83600460003373ffffffffffffffffffffffffffffffffffffffff1673ffffffffffffffffffffffffffffffffffffffff16815260200190815260200160002054141515610e0057600080fd5b610e0933610e1a565b610e1460c833610e75565b50505050565b6001600360008373ffffffffffffffffffffffffffffffffffffffff1673ffffffffffffffffffffffffffffffffffffffff16815260200190815260200160002060006101000a81548160ff02191690831515021790555050565b6000600160009054906101000a900473ffffffffffffffffffffffffffffffffffffffff1690508073ffffffffffffffffffffffffffffffffffffffff1663f35484ee84846040518363ffffffff167c0100000000000000000000000000000000000000000000000000000000028152600401808381526020018273ffffffffffffffffffffffffffffffffffffffff1673ffffffffffffffffffffffffffffffffffffffff16815260200192505050600060405180830381600087803b158015610f3f57600080fd5b505af1158015610f53573d6000803e3d6000fd5b50505050505050565b8260148101928215610f8b579160200282015b82811115610f8a578251825591602001919060010190610f6f565b5b509050610f989190610f9c565b5090565b610fbe91905b80821115610fba576000816000905550600101610fa2565b5090565b905600a165627a7a723058207fa0d43d2d70363261e262be0a4ea6efbefa8e8d5f7410de00c7bde60c787a000029",
  "source": "pragma solidity ^0.4.24;\n\n\nimport \"../exerciceTemplate.sol\";\n\n/*\nExercice 7: Events\nIn this exercice, you need to:\n- Use a function to trigger an event\n- Use Etherscan to analyse this event\n- Use a function to show you know the correct value of a private variable\n- Your points are credited by the contract\n*/\n\n/*\nWhat you need to know to complete this exercice\nA) What was included in the previous exercices\nB) Events are used to log data that is accessible from a full node, but not stored in the contracts variables.\nhttps://solidity.readthedocs.io/en/develop/introduction-to-smart-contracts.html#index-2\nC) Etherscan.io https://etherscan.io/ lets you visualize events that were fired during a given transaction\n\n*/\ncontract ex7 is exerciceTemplate {\n\n\tmapping(address => uint) private privateValues;\n  uint[20] private randomValuesStore;\n  uint public nextValueStoreRank;\n\n  event showPrivateVariableInEvent(uint myVariable);\n\n  constructor(address _studentsOrganAddres, address _teachersOrganAddress, address _pointsManagerContractAddress) \n  exerciceTemplate(_studentsOrganAddres, _teachersOrganAddress, _pointsManagerContractAddress) \n  public\n  {}\n  \n  function setRandomValueStore(uint[20] _randomValuesStore) \n  public \n  onlyTeacher\n  {\n   randomValuesStore = _randomValuesStore;\n   nextValueStoreRank = 0;\n  }\n\n  function startExercice() \n  public \n  canWorkOnExercice \n  {\n    privateValues[msg.sender] = randomValuesStore[nextValueStoreRank];\n    nextValueStoreRank += 1;\n    if (nextValueStoreRank >= randomValuesStore.length)\n    {\n     nextValueStoreRank = 0; \n    }\n  }\n  \n  function fireEvent() \n  public \n  canWorkOnExercice \n  {\n    emit showPrivateVariableInEvent(privateValues[msg.sender]+32);\n  }\n\n  function showYouKnowPrivateValue(uint _privateValue) \n  public \n  canWorkOnExercice \n  {\n    require(privateValues[msg.sender] == _privateValue);\n\n    // Validating exercice\n    validateExercice(msg.sender);\n    creditStudent(200, msg.sender);\n\n  }\n\n}\n",
  "sourcePath": "/Users/henrilieutaud/Documents/Mes documents/ESILV/03 Blockchain Programmation/solidity-101/contracts/exercices/ex7.sol",
  "compiler": {
    "name": "solc",
    "version": "0.4.25+commit.59dbf8f1.Emscripten.clang"
  },
  "schemaVersion": "2.0.2",
  "updatedAt": "2019-02-22T10:17:32.530Z"
}