{
  "contractName": "ex8",
  "abi": [
    {
      "constant": true,
      "inputs": [],
      "name": "pointsManagerContractAddress",
      "outputs": [
        {
          "name": "",
          "type": "address"
        }
      ],
      "payable": false,
      "stateMutability": "view",
      "type": "function"
    },
    {
      "constant": true,
      "inputs": [],
      "name": "teachersOrganAddress",
      "outputs": [
        {
          "name": "",
          "type": "address"
        }
      ],
      "payable": false,
      "stateMutability": "view",
      "type": "function"
    },
    {
      "constant": true,
      "inputs": [
        {
          "name": "",
          "type": "address"
        }
      ],
      "name": "hasCompletedExercice",
      "outputs": [
        {
          "name": "",
          "type": "bool"
        }
      ],
      "payable": false,
      "stateMutability": "view",
      "type": "function"
    },
    {
      "constant": true,
      "inputs": [],
      "name": "studentsOrganAddress",
      "outputs": [
        {
          "name": "",
          "type": "address"
        }
      ],
      "payable": false,
      "stateMutability": "view",
      "type": "function"
    },
    {
      "constant": true,
      "inputs": [
        {
          "name": "",
          "type": "uint256"
        }
      ],
      "name": "studentObjects",
      "outputs": [
        {
          "name": "owner",
          "type": "address"
        },
        {
          "name": "creator",
          "type": "address"
        },
        {
          "name": "name",
          "type": "string"
        },
        {
          "name": "hasBeenModified",
          "type": "bool"
        }
      ],
      "payable": false,
      "stateMutability": "view",
      "type": "function"
    },
    {
      "inputs": [
        {
          "name": "_studentsOrganAddres",
          "type": "address"
        },
        {
          "name": "_teachersOrganAddress",
          "type": "address"
        },
        {
          "name": "_pointsManagerContractAddress",
          "type": "address"
        }
      ],
      "payable": false,
      "stateMutability": "nonpayable",
      "type": "constructor"
    },
    {
      "anonymous": false,
      "inputs": [
        {
          "indexed": false,
          "name": "objectNumber",
          "type": "uint256"
        }
      ],
      "name": "createdAnObject",
      "type": "event"
    },
    {
      "constant": false,
      "inputs": [
        {
          "name": "_name",
          "type": "string"
        }
      ],
      "name": "createObject",
      "outputs": [],
      "payable": false,
      "stateMutability": "nonpayable",
      "type": "function"
    },
    {
      "constant": false,
      "inputs": [
        {
          "name": "_objectNumber",
          "type": "uint256"
        },
        {
          "name": "_name",
          "type": "string"
        }
      ],
      "name": "changeObjectName",
      "outputs": [],
      "payable": false,
      "stateMutability": "nonpayable",
      "type": "function"
    },
    {
      "constant": false,
      "inputs": [
        {
          "name": "_objectNumber",
          "type": "uint256"
        },
        {
          "name": "_recipient",
          "type": "address"
        }
      ],
      "name": "transfer",
      "outputs": [],
      "payable": false,
      "stateMutability": "nonpayable",
      "type": "function"
    },
    {
      "constant": false,
      "inputs": [
        {
          "name": "_objectNumber",
          "type": "uint256"
        }
      ],
      "name": "claimPoints",
      "outputs": [],
      "payable": false,
      "stateMutability": "nonpayable",
      "type": "function"
    }
  ],
  "bytecode": "0x608060405234801561001057600080fd5b5060405160608061180b833981018060405281019080805190602001909291908051906020019092919080519060200190929190505050828282826000806101000a81548173ffffffffffffffffffffffffffffffffffffffff021916908373ffffffffffffffffffffffffffffffffffffffff16021790555081600260006101000a81548173ffffffffffffffffffffffffffffffffffffffff021916908373ffffffffffffffffffffffffffffffffffffffff16021790555080600160006101000a81548173ffffffffffffffffffffffffffffffffffffffff021916908373ffffffffffffffffffffffffffffffffffffffff1602179055505050505050506116ea806101216000396000f300608060405260043610610099576000357c0100000000000000000000000000000000000000000000000000000000900463ffffffff16806307e054081461009e5780633ac795de146100f5578063759f09141461012257806379dcdf8c1461018b5780637f4c5172146101fe578063b7760c8f14610255578063c42365c6146102a2578063c8065ad2146102fd578063db64d74d14610354575b600080fd5b3480156100aa57600080fd5b506100b361046b565b604051808273ffffffffffffffffffffffffffffffffffffffff1673ffffffffffffffffffffffffffffffffffffffff16815260200191505060405180910390f35b34801561010157600080fd5b5061012060048036038101908080359060200190929190505050610491565b005b34801561012e57600080fd5b50610189600480360381019080803590602001908201803590602001908080601f0160208091040260200160405190810160405280939291908181526020018383808284378201915050505050509192919290505050610961565b005b34801561019757600080fd5b506101fc60048036038101908080359060200190929190803590602001908201803590602001908080601f0160208091040260200160405190810160405280939291908181526020018383808284378201915050505050509192919290505050610df1565b005b34801561020a57600080fd5b50610213611194565b604051808273ffffffffffffffffffffffffffffffffffffffff1673ffffffffffffffffffffffffffffffffffffffff16815260200191505060405180910390f35b34801561026157600080fd5b506102a060048036038101908080359060200190929190803573ffffffffffffffffffffffffffffffffffffffff1690602001909291905050506111ba565b005b3480156102ae57600080fd5b506102e3600480360381019080803573ffffffffffffffffffffffffffffffffffffffff169060200190929190505050611297565b604051808215151515815260200191505060405180910390f35b34801561030957600080fd5b506103126112b7565b604051808273ffffffffffffffffffffffffffffffffffffffff1673ffffffffffffffffffffffffffffffffffffffff16815260200191505060405180910390f35b34801561036057600080fd5b5061037f600480360381019080803590602001909291905050506112dc565b604051808573ffffffffffffffffffffffffffffffffffffffff1673ffffffffffffffffffffffffffffffffffffffff1681526020018473ffffffffffffffffffffffffffffffffffffffff1673ffffffffffffffffffffffffffffffffffffffff1681526020018060200183151515158152602001828103825284818151815260200191508051906020019080838360005b8381101561042d578082015181840152602081019050610412565b50505050905090810190601f16801561045a5780820380516001836020036101000a031916815260200191505b509550505050505060405180910390f35b600160009054906101000a900473ffffffffffffffffffffffffffffffffffffffff1681565b6000806000806000809054906101000a900473ffffffffffffffffffffffffffffffffffffffff1692508273ffffffffffffffffffffffffffffffffffffffff16635549ea51336040518263ffffffff167c0100000000000000000000000000000000000000000000000000000000028152600401808273ffffffffffffffffffffffffffffffffffffffff1673ffffffffffffffffffffffffffffffffffffffff168152602001915050602060405180830381600087803b15801561055657600080fd5b505af115801561056a573d6000803e3d6000fd5b505050506040513d602081101561058057600080fd5b81019080805190602001909291905050509150600082141515156105a357600080fd5b8273ffffffffffffffffffffffffffffffffffffffff1663e3a31b2c836040518263ffffffff167c010000000000000000000000000000000000000000000000000000000002815260040180828152602001915050600060405180830381600087803b15801561061257600080fd5b505af1158015610626573d6000803e3d6000fd5b505050506040513d6000823e3d601f19601f8201168201806040525060a081101561065057600080fd5b81019080805164010000000081111561066857600080fd5b8281019050602081018481111561067e57600080fd5b815185600182028301116401000000008211171561069b57600080fd5b5050929190602001805190602001909291908051906020019092919080519060200190929190805190602001909291905050505050925050504281600190041115156106e657600080fd5b60011515600360003373ffffffffffffffffffffffffffffffffffffffff1673ffffffffffffffffffffffffffffffffffffffff16815260200190815260200160002060009054906101000a900460ff1615151415151561074657600080fd5b3373ffffffffffffffffffffffffffffffffffffffff1660048681548110151561076c57fe5b906000526020600020906004020160010160009054906101000a900473ffffffffffffffffffffffffffffffffffffffff1673ffffffffffffffffffffffffffffffffffffffff161415156107c057600080fd5b600115156004868154811015156107d357fe5b906000526020600020906004020160030160009054906101000a900460ff16151514151561080057600080fd5b600260009054906101000a900473ffffffffffffffffffffffffffffffffffffffff1693508373ffffffffffffffffffffffffffffffffffffffff1663d323a4f860048781548110151561085057fe5b906000526020600020906004020160000160009054906101000a900473ffffffffffffffffffffffffffffffffffffffff166040518263ffffffff167c0100000000000000000000000000000000000000000000000000000000028152600401808273ffffffffffffffffffffffffffffffffffffffff1673ffffffffffffffffffffffffffffffffffffffff168152602001915050602060405180830381600087803b15801561090057600080fd5b505af1158015610914573d6000803e3d6000fd5b505050506040513d602081101561092a57600080fd5b8101908080519060200190929190505050151561094657600080fd5b61094f33611400565b61095a60c83361145b565b5050505050565b610969611542565b6000806000806000809054906101000a900473ffffffffffffffffffffffffffffffffffffffff1692508273ffffffffffffffffffffffffffffffffffffffff16635549ea51336040518263ffffffff167c0100000000000000000000000000000000000000000000000000000000028152600401808273ffffffffffffffffffffffffffffffffffffffff1673ffffffffffffffffffffffffffffffffffffffff168152602001915050602060405180830381600087803b158015610a2e57600080fd5b505af1158015610a42573d6000803e3d6000fd5b505050506040513d6020811015610a5857600080fd5b8101908080519060200190929190505050915060008214151515610a7b57600080fd5b8273ffffffffffffffffffffffffffffffffffffffff1663e3a31b2c836040518263ffffffff167c010000000000000000000000000000000000000000000000000000000002815260040180828152602001915050600060405180830381600087803b158015610aea57600080fd5b505af1158015610afe573d6000803e3d6000fd5b505050506040513d6000823e3d601f19601f8201168201806040525060a0811015610b2857600080fd5b810190808051640100000000811115610b4057600080fd5b82810190506020810184811115610b5657600080fd5b8151856001820283011164010000000082111715610b7357600080fd5b505092919060200180519060200190929190805190602001909291908051906020019092919080519060200190929190505050505092505050428160019004111515610bbe57600080fd5b60011515600360003373ffffffffffffffffffffffffffffffffffffffff1673ffffffffffffffffffffffffffffffffffffffff16815260200190815260200160002060009054906101000a900460ff16151514151515610c1e57600080fd5b33856000019073ffffffffffffffffffffffffffffffffffffffff16908173ffffffffffffffffffffffffffffffffffffffff168152505033856020019073ffffffffffffffffffffffffffffffffffffffff16908173ffffffffffffffffffffffffffffffffffffffff1681525050858560400181905250600085606001901515908115158152505060016004869080600181540180825580915050906001820390600052602060002090600402016000909192909190915060008201518160000160006101000a81548173ffffffffffffffffffffffffffffffffffffffff021916908373ffffffffffffffffffffffffffffffffffffffff16021790555060208201518160010160006101000a81548173ffffffffffffffffffffffffffffffffffffffff021916908373ffffffffffffffffffffffffffffffffffffffff1602179055506040820151816002019080519060200190610d82929190611599565b5060608201518160030160006101000a81548160ff0219169083151502179055505050505060016004805490500393507f7cae7a3c7c00bad87d1229fed1113a236da28d46017a7a02cd43fb830fe389a8846040518082815260200191505060405180910390a1505050505050565b60008060008060009054906101000a900473ffffffffffffffffffffffffffffffffffffffff1692508273ffffffffffffffffffffffffffffffffffffffff16635549ea51336040518263ffffffff167c0100000000000000000000000000000000000000000000000000000000028152600401808273ffffffffffffffffffffffffffffffffffffffff1673ffffffffffffffffffffffffffffffffffffffff168152602001915050602060405180830381600087803b158015610eb557600080fd5b505af1158015610ec9573d6000803e3d6000fd5b505050506040513d6020811015610edf57600080fd5b8101908080519060200190929190505050915060008214151515610f0257600080fd5b8273ffffffffffffffffffffffffffffffffffffffff1663e3a31b2c836040518263ffffffff167c010000000000000000000000000000000000000000000000000000000002815260040180828152602001915050600060405180830381600087803b158015610f7157600080fd5b505af1158015610f85573d6000803e3d6000fd5b505050506040513d6000823e3d601f19601f8201168201806040525060a0811015610faf57600080fd5b810190808051640100000000811115610fc757600080fd5b82810190506020810184811115610fdd57600080fd5b8151856001820283011164010000000082111715610ffa57600080fd5b50509291906020018051906020019092919080519060200190929190805190602001909291908051906020019092919050505050509250505042816001900411151561104557600080fd5b60011515600360003373ffffffffffffffffffffffffffffffffffffffff1673ffffffffffffffffffffffffffffffffffffffff16815260200190815260200160002060009054906101000a900460ff161515141515156110a557600080fd5b3373ffffffffffffffffffffffffffffffffffffffff166004868154811015156110cb57fe5b906000526020600020906004020160000160009054906101000a900473ffffffffffffffffffffffffffffffffffffffff1673ffffffffffffffffffffffffffffffffffffffff1614151561111f57600080fd5b8360048681548110151561112f57fe5b90600052602060002090600402016002019080519060200190611153929190611619565b50600160048681548110151561116557fe5b906000526020600020906004020160030160006101000a81548160ff0219169083151502179055505050505050565b600260009054906101000a900473ffffffffffffffffffffffffffffffffffffffff1681565b3373ffffffffffffffffffffffffffffffffffffffff166004838154811015156111e057fe5b906000526020600020906004020160000160009054906101000a900473ffffffffffffffffffffffffffffffffffffffff1673ffffffffffffffffffffffffffffffffffffffff1614151561123457600080fd5b8060048381548110151561124457fe5b906000526020600020906004020160000160006101000a81548173ffffffffffffffffffffffffffffffffffffffff021916908373ffffffffffffffffffffffffffffffffffffffff1602179055505050565b60036020528060005260406000206000915054906101000a900460ff1681565b6000809054906101000a900473ffffffffffffffffffffffffffffffffffffffff1681565b6004818154811015156112eb57fe5b90600052602060002090600402016000915090508060000160009054906101000a900473ffffffffffffffffffffffffffffffffffffffff16908060010160009054906101000a900473ffffffffffffffffffffffffffffffffffffffff1690806002018054600181600116156101000203166002900480601f0160208091040260200160405190810160405280929190818152602001828054600181600116156101000203166002900480156113e35780601f106113b8576101008083540402835291602001916113e3565b820191906000526020600020905b8154815290600101906020018083116113c657829003601f168201915b5050505050908060030160009054906101000a900460ff16905084565b6001600360008373ffffffffffffffffffffffffffffffffffffffff1673ffffffffffffffffffffffffffffffffffffffff16815260200190815260200160002060006101000a81548160ff02191690831515021790555050565b6000600160009054906101000a900473ffffffffffffffffffffffffffffffffffffffff1690508073ffffffffffffffffffffffffffffffffffffffff1663f35484ee84846040518363ffffffff167c0100000000000000000000000000000000000000000000000000000000028152600401808381526020018273ffffffffffffffffffffffffffffffffffffffff1673ffffffffffffffffffffffffffffffffffffffff16815260200192505050600060405180830381600087803b15801561152557600080fd5b505af1158015611539573d6000803e3d6000fd5b50505050505050565b608060405190810160405280600073ffffffffffffffffffffffffffffffffffffffff168152602001600073ffffffffffffffffffffffffffffffffffffffff168152602001606081526020016000151581525090565b828054600181600116156101000203166002900490600052602060002090601f016020900481019282601f106115da57805160ff1916838001178555611608565b82800160010185558215611608579182015b828111156116075782518255916020019190600101906115ec565b5b5090506116159190611699565b5090565b828054600181600116156101000203166002900490600052602060002090601f016020900481019282601f1061165a57805160ff1916838001178555611688565b82800160010185558215611688579182015b8281111561168757825182559160200191906001019061166c565b5b5090506116959190611699565b5090565b6116bb91905b808211156116b757600081600090555060010161169f565b5090565b905600a165627a7a723058203403b4fa79e31d97a2a1ef07ec3e0a1fb595b36cd29c0b507b551cef2596d99c0029",
  "source": "pragma solidity ^0.4.24;\r\n\r\n\r\nimport \"../exerciceTemplate.sol\";\r\n\r\n/*\r\nExercice 8: structures\r\nIn this exercice, you need to:\r\n- Create an object using a structure\r\n- Modify it\r\n- Claim your points\r\n- Your points are credited by the contract\r\n*/\r\n\r\n/*\r\nWhat you need to know to complete this exercice\r\nA) What was included in the previous exercices\r\nB) What a structure is https://solidity.readthedocs.io/en/develop/types.html#index-14\r\n\r\n*/\r\ncontract ex8 is exerciceTemplate {\r\n\r\n\tstruct studentObject \r\n  {\r\n    address owner;\r\n    address creator;\r\n    string name;\r\n    bool hasBeenModified;\r\n  }\r\n\r\n  studentObject[] public studentObjects;\r\n  \r\n  event createdAnObject(uint objectNumber);\r\n\r\n  constructor(address _studentsOrganAddres, address _teachersOrganAddress, address _pointsManagerContractAddress) \r\n  exerciceTemplate(_studentsOrganAddres, _teachersOrganAddress, _pointsManagerContractAddress) \r\n  public\r\n  {}\r\n\r\n  function createObject(string _name) \r\n  public \r\n  canWorkOnExercice \r\n  {\r\n\r\n    studentObject memory _studentObject;\r\n    _studentObject.owner = msg.sender;\r\n    _studentObject.creator = msg.sender;\r\n    _studentObject.name = _name;\r\n    _studentObject.hasBeenModified = false;\r\n\r\n    studentObjects.push(_studentObject) - 1;\r\n    uint objectNumber = studentObjects.length - 1;\r\n\r\n    emit createdAnObject(objectNumber);\r\n\r\n  }\r\n  \r\n  function changeObjectName(uint _objectNumber, string _name) \r\n  public \r\n  canWorkOnExercice \r\n  {\r\n    require(studentObjects[_objectNumber].owner == msg.sender);\r\n    studentObjects[_objectNumber].name = _name;\r\n    studentObjects[_objectNumber].hasBeenModified = true;\r\n  }\r\n\r\n  function transfer(uint _objectNumber, address _recipient) \r\n  public  \r\n  {\r\n    require(studentObjects[_objectNumber].owner == msg.sender);\r\n    studentObjects[_objectNumber].owner = _recipient;\r\n  }\r\n\r\n\r\n  function claimPoints(uint _objectNumber) \r\n  public \r\n  canWorkOnExercice \r\n  {\r\n    require(studentObjects[_objectNumber].creator == msg.sender);\r\n    require(studentObjects[_objectNumber].hasBeenModified == true);\r\n\r\n    Organ teachersOrganInstance = Organ(teachersOrganAddress);\r\n    require(teachersOrganInstance.isNorm(studentObjects[_objectNumber].owner));\r\n\r\n    // Validating exercice\r\n    validateExercice(msg.sender);\r\n    creditStudent(200, msg.sender);\r\n\r\n  }\r\n\r\n}\r\n",
  "sourcePath": "C:\\Users\\LIEUTAUDHenri\\Documents\\Perso\\ESILV\\solidity-101\\contracts\\exercices\\ex8.sol",
  "compiler": {
    "name": "solc",
    "version": "0.4.24+commit.e67f0147.Emscripten.clang"
  },
  "schemaVersion": "2.0.1",
  "updatedAt": "2019-03-06T09:06:22.995Z"
}