{
  "contractName": "exerciceTemplate",
  "abi": [
    {
      "constant": true,
      "inputs": [],
      "name": "pointsManagerContractAddress",
      "outputs": [
        {
          "name": "",
          "type": "address"
        }
      ],
      "payable": false,
      "stateMutability": "view",
      "type": "function"
    },
    {
      "constant": true,
      "inputs": [],
      "name": "teachersOrganAddress",
      "outputs": [
        {
          "name": "",
          "type": "address"
        }
      ],
      "payable": false,
      "stateMutability": "view",
      "type": "function"
    },
    {
      "constant": true,
      "inputs": [
        {
          "name": "",
          "type": "address"
        }
      ],
      "name": "hasCompletedExercice",
      "outputs": [
        {
          "name": "",
          "type": "bool"
        }
      ],
      "payable": false,
      "stateMutability": "view",
      "type": "function"
    },
    {
      "constant": true,
      "inputs": [],
      "name": "studentsOrganAddress",
      "outputs": [
        {
          "name": "",
          "type": "address"
        }
      ],
      "payable": false,
      "stateMutability": "view",
      "type": "function"
    },
    {
      "inputs": [
        {
          "name": "_studentsOrganAddres",
          "type": "address"
        },
        {
          "name": "_teachersOrganAddress",
          "type": "address"
        },
        {
          "name": "_pointsManagerContractAddress",
          "type": "address"
        }
      ],
      "payable": false,
      "stateMutability": "nonpayable",
      "type": "constructor"
    }
  ],
  "bytecode": "0x608060405234801561001057600080fd5b506040516060806103bb8339810180604052606081101561003057600080fd5b81019080805190602001909291908051906020019092919080519060200190929190505050826000806101000a81548173ffffffffffffffffffffffffffffffffffffffff021916908373ffffffffffffffffffffffffffffffffffffffff16021790555081600260006101000a81548173ffffffffffffffffffffffffffffffffffffffff021916908373ffffffffffffffffffffffffffffffffffffffff16021790555080600160006101000a81548173ffffffffffffffffffffffffffffffffffffffff021916908373ffffffffffffffffffffffffffffffffffffffff160217905550505050610292806101296000396000f3fe608060405260043610610062576000357c0100000000000000000000000000000000000000000000000000000000900463ffffffff16806307e05408146100675780637f4c5172146100be578063c42365c614610115578063c8065ad21461017e575b600080fd5b34801561007357600080fd5b5061007c6101d5565b604051808273ffffffffffffffffffffffffffffffffffffffff1673ffffffffffffffffffffffffffffffffffffffff16815260200191505060405180910390f35b3480156100ca57600080fd5b506100d36101fb565b604051808273ffffffffffffffffffffffffffffffffffffffff1673ffffffffffffffffffffffffffffffffffffffff16815260200191505060405180910390f35b34801561012157600080fd5b506101646004803603602081101561013857600080fd5b81019080803573ffffffffffffffffffffffffffffffffffffffff169060200190929190505050610221565b604051808215151515815260200191505060405180910390f35b34801561018a57600080fd5b50610193610241565b604051808273ffffffffffffffffffffffffffffffffffffffff1673ffffffffffffffffffffffffffffffffffffffff16815260200191505060405180910390f35b600160009054906101000a900473ffffffffffffffffffffffffffffffffffffffff1681565b600260009054906101000a900473ffffffffffffffffffffffffffffffffffffffff1681565b60036020528060005260406000206000915054906101000a900460ff1681565b6000809054906101000a900473ffffffffffffffffffffffffffffffffffffffff168156fea165627a7a72305820afbdbab68b41cbd04fd046bbd3253ca537345ac3d1345c934f16444c25f933b90029",
  "source": "pragma solidity >=0.4.21 <0.6.0;\n\n// Using Kelsen framework for authentification of stakeholders.\n// More info on https://github.com/97network/Kelsen\n// What you need to know for this session: https://github.com/97network/Kelsen/blob/master/docs/01_standardOrgan.md\nimport \"./utils/Kelsen/solidity/contracts/Organ.sol\";\nimport \"./pointsManager.sol\";\n\n/*\nCommon behavior in exercices\n\nThis contract describes functions that are common to most exercices. They help\n- Authentify students and teacher\n- Credit students\n*/\n\ncontract exerciceTemplate {\n\n\t// Pointing at Kelsen organs listing stakeholders\n  address payable public studentsOrganAddress;\n  address payable public pointsManagerContractAddress;\n  address payable public teachersOrganAddress;\n\n  mapping(address => bool) public hasCompletedExercice;\n\n  constructor(address payable _studentsOrganAddres, address payable _teachersOrganAddress, address payable _pointsManagerContractAddress) public\n  {\n    studentsOrganAddress = _studentsOrganAddres;\n    teachersOrganAddress = _teachersOrganAddress;\n    pointsManagerContractAddress = _pointsManagerContractAddress;\n  }\n\n  function creditStudent(uint _points, address _studentAddress) internal {\n    pointsManager pointsManagerContract = pointsManager(pointsManagerContractAddress);\n    pointsManagerContract.grantPoints(_points, _studentAddress);\n  }\n\n  function validateExercice(address _studentAddress) internal {\n    hasCompletedExercice[_studentAddress] = true;\n  }\n\n\n  modifier canWorkOnExercice() {\n    Organ studentsOrgan = Organ(studentsOrganAddress);\n    uint studentPosition = studentsOrgan.getAddressPositionInNorm(msg.sender);\n    require( studentPosition != 0);\n    ( , bytes32 deadLine , , ) = studentsOrgan.getSingleNorm(studentPosition);\n    require(uint(deadLine) > now);\n    require(hasCompletedExercice[msg.sender] != true);\n    _;\n  }\n\n  modifier onlyTeacher() {\n    Organ teachersOrgan = Organ(teachersOrganAddress);\n    // require(teachersOrgan.isNorm(msg.sender));\n    require(teachersOrgan.getAddressPositionInNorm(msg.sender) != 0);\n    _;\n  }\n}\n",
  "sourcePath": "/Users/henrilieutaud/Documents/Mes documents/ESILV/03 Blockchain Programmation/solidity-101/contracts/exerciceTemplate.sol",
  "compiler": {
    "name": "solc",
    "version": "0.5.0+commit.1d4f565a.Emscripten.clang"
  },
  "schemaVersion": "3.0.6",
  "updatedAt": "2019-10-03T20:18:25.149Z",
  "devdoc": {
    "methods": {}
  },
  "userdoc": {
    "methods": {}
  }
}