{
  "contractName": "exerciceTemplate",
  "abi": [
    {
      "inputs": [
        {
          "internalType": "contract ERC20TD",
          "name": "_TDERC20",
          "type": "address"
        }
      ],
      "stateMutability": "nonpayable",
      "type": "constructor"
    },
    {
      "anonymous": false,
      "inputs": [
        {
          "indexed": false,
          "internalType": "address",
          "name": "erc20Address",
          "type": "address"
        }
      ],
      "name": "constructedCorrectly",
      "type": "event"
    },
    {
      "inputs": [
        {
          "internalType": "address",
          "name": "",
          "type": "address"
        }
      ],
      "name": "hasCompletedExercice",
      "outputs": [
        {
          "internalType": "bool",
          "name": "",
          "type": "bool"
        }
      ],
      "stateMutability": "view",
      "type": "function"
    }
  ],
  "bytecode": "0x608060405234801561001057600080fd5b506040516101f33803806101f38339818101604052602081101561003357600080fd5b8101908080519060200190929190505050806000806101000a81548173ffffffffffffffffffffffffffffffffffffffff021916908373ffffffffffffffffffffffffffffffffffffffff1602179055507f2915b3b4e0613c6b63dca39a375dd8c9f1de68d9e208a0713b7624260e2d08126000809054906101000a900473ffffffffffffffffffffffffffffffffffffffff16604051808273ffffffffffffffffffffffffffffffffffffffff1673ffffffffffffffffffffffffffffffffffffffff16815260200191505060405180910390a15060dc806101176000396000f3fe6080604052348015600f57600080fd5b506004361060285760003560e01c8063c42365c614602d575b600080fd5b606c60048036036020811015604157600080fd5b81019080803573ffffffffffffffffffffffffffffffffffffffff1690602001909291905050506086565b604051808215151515815260200191505060405180910390f35b60016020528060005260406000206000915054906101000a900460ff168156fea26469706673582212208eabfb1fd920fb395692356269704949eb0a2d7b3e70ba1e78b6c0894d65d60164736f6c63430006020033",
  "source": "pragma solidity ^0.6.0;\n\nimport \"./ERC20TD.sol\";\n\n/*\nCommon behavior in exercices\n\nThis contract describes functions that are common to most exercices. They help\n- Authentify students and teacher\n- Credit students\n*/\n\ncontract exerciceTemplate {\n\n  ERC20TD TDERC20;\n\n  mapping(address => bool) public hasCompletedExercice;\n\n  event constructedCorrectly(address erc20Address);\n  constructor(ERC20TD _TDERC20) \n  public \n  {\n    TDERC20 = _TDERC20;\n    emit constructedCorrectly(address(TDERC20));\n  }\n\n  function creditStudent(uint _points, address _studentAddress) internal {\n    if (!hasCompletedExercice[_studentAddress])\n    {\n      TDERC20.distributeTokens(msg.sender, _points);\n    }\n  }\n\n  function validateExercice(address _studentAddress) internal {\n    hasCompletedExercice[_studentAddress] = true;\n  }\n\n\n\n  modifier onlyTeachers() \n  {\n\n      require(TDERC20.teachers(msg.sender));\n      _;\n  }\n}\n",
  "sourcePath": "/Users/henrilieutaud/Documents/Workshop/Solidity/solidity-101/contracts/exerciceTemplate.sol",
  "compiler": {
    "name": "solc",
    "version": "0.6.2+commit.bacdbe57.Emscripten.clang"
  },
  "schemaVersion": "3.4.4",
  "updatedAt": "2022-01-28T14:18:04.513Z",
  "devdoc": {
    "methods": {}
  },
  "userdoc": {
    "methods": {}
  }
}