{
  "contractName": "Kelsen",
  "abi": [
    {
      "constant": true,
      "inputs": [],
      "name": "kelsenVersionNumber",
      "outputs": [
        {
          "name": "",
          "type": "int256"
        }
      ],
      "payable": false,
      "stateMutability": "view",
      "type": "function"
    },
    {
      "constant": true,
      "inputs": [],
      "name": "isAnOrgan",
      "outputs": [
        {
          "name": "",
          "type": "bool"
        }
      ],
      "payable": false,
      "stateMutability": "view",
      "type": "function"
    },
    {
      "constant": true,
      "inputs": [],
      "name": "isAProcedure",
      "outputs": [
        {
          "name": "",
          "type": "bool"
        }
      ],
      "payable": false,
      "stateMutability": "view",
      "type": "function"
    }
  ],
  "bytecode": "0x608060405234801561001057600080fd5b5061013c806100206000396000f300608060405260043610610057576000357c0100000000000000000000000000000000000000000000000000000000900463ffffffff1680635dbe4d281461005c578063a8bef97a14610087578063e80b30a5146100b6575b600080fd5b34801561006857600080fd5b506100716100e5565b6040518082815260200191505060405180910390f35b34801561009357600080fd5b5061009c6100eb565b604051808215151515815260200191505060405180910390f35b3480156100c257600080fd5b506100cb6100fe565b604051808215151515815260200191505060405180910390f35b60005481565b600160009054906101000a900460ff1681565b6001809054906101000a900460ff16815600a165627a7a723058205c23c6411ec613347a2c88d97d2b0b47e67e2d615f51b9206e8ff65ae132fb4f0029",
  "source": "pragma solidity ^0.4.11;\n\n/// @title Standard organ contract\n\ncontract Kelsen {\n        // Identifiers for Dapp using Kelsen\n    int public kelsenVersionNumber;\n    bool public isAnOrgan;\n    bool public isAProcedure;\n}",
  "sourcePath": "/Users/henrilieutaud/Documents/Mes documents/ESILV/03 Blockchain Programmation/solidity-101/contracts/utils/Kelsen/Kelsen.sol",
  "compiler": {
    "name": "solc",
    "version": "0.4.25+commit.59dbf8f1.Emscripten.clang"
  },
  "schemaVersion": "2.0.2",
  "updatedAt": "2019-02-22T17:31:56.748Z"
}