{
  "contractName": "Kelsen",
  "abi": [
    {
      "constant": true,
      "inputs": [],
      "name": "kelsenVersionNumber",
      "outputs": [
        {
          "name": "",
          "type": "int256"
        }
      ],
      "payable": false,
      "stateMutability": "view",
      "type": "function"
    },
    {
      "constant": true,
      "inputs": [],
      "name": "isAnOrgan",
      "outputs": [
        {
          "name": "",
          "type": "bool"
        }
      ],
      "payable": false,
      "stateMutability": "view",
      "type": "function"
    },
    {
      "constant": true,
      "inputs": [],
      "name": "isAProcedure",
      "outputs": [
        {
          "name": "",
          "type": "bool"
        }
      ],
      "payable": false,
      "stateMutability": "view",
      "type": "function"
    }
  ],
  "bytecode": "0x6080604052600260005534801561001557600080fd5b5061013c806100256000396000f3fe608060405260043610610057576000357c0100000000000000000000000000000000000000000000000000000000900463ffffffff1680635dbe4d281461005c578063a8bef97a14610087578063e80b30a5146100b6575b600080fd5b34801561006857600080fd5b506100716100e5565b6040518082815260200191505060405180910390f35b34801561009357600080fd5b5061009c6100eb565b604051808215151515815260200191505060405180910390f35b3480156100c257600080fd5b506100cb6100fe565b604051808215151515815260200191505060405180910390f35b60005481565b600160009054906101000a900460ff1681565b6001809054906101000a900460ff168156fea165627a7a7230582049e32ce952c2c38e29f5a44620279a29d0ce47fba7581068725000dfa8f1f6360029",
  "source": "pragma solidity >=0.4.22 <0.6.0;\n\n\n\n/// @title Standard organ contract\n\ncontract Kelsen {\n        // Identifiers for Dapp using Kelsen\n    int public kelsenVersionNumber = 2;\n    bool public isAnOrgan;\n    bool public isAProcedure;\n}\n",
  "sourcePath": "/Users/henrilieutaud/Documents/Mes documents/ESILV/03 Blockchain Programmation/solidity-101/contracts/utils/Kelsen/solidity/contracts/Kelsen.sol",
  "compiler": {
    "name": "solc",
    "version": "0.5.0+commit.1d4f565a.Emscripten.clang"
  },
  "schemaVersion": "3.0.6",
  "updatedAt": "2019-10-03T20:18:25.157Z",
  "devdoc": {
    "methods": {},
    "title": "Standard organ contract"
  },
  "userdoc": {
    "methods": {}
  }
}