{
  "contractName": "normsCooptationProcedure",
  "abi": [
    {
      "constant": true,
      "inputs": [
        {
          "name": "",
          "type": "address"
        },
        {
          "name": "",
          "type": "uint256"
        }
      ],
      "name": "propositionToUser",
      "outputs": [
        {
          "name": "",
          "type": "uint256"
        }
      ],
      "payable": false,
      "stateMutability": "view",
      "type": "function"
    },
    {
      "constant": true,
      "inputs": [],
      "name": "procedureTypeNumber",
      "outputs": [
        {
          "name": "",
          "type": "int256"
        }
      ],
      "payable": false,
      "stateMutability": "view",
      "type": "function"
    },
    {
      "constant": true,
      "inputs": [],
      "name": "quorumSize",
      "outputs": [
        {
          "name": "",
          "type": "uint256"
        }
      ],
      "payable": false,
      "stateMutability": "view",
      "type": "function"
    },
    {
      "constant": true,
      "inputs": [
        {
          "name": "",
          "type": "address"
        },
        {
          "name": "",
          "type": "uint256"
        }
      ],
      "name": "propositionToPromulgator",
      "outputs": [
        {
          "name": "",
          "type": "uint256"
        }
      ],
      "payable": false,
      "stateMutability": "view",
      "type": "function"
    },
    {
      "constant": true,
      "inputs": [],
      "name": "kelsenVersionNumber",
      "outputs": [
        {
          "name": "",
          "type": "int256"
        }
      ],
      "payable": false,
      "stateMutability": "view",
      "type": "function"
    },
    {
      "constant": true,
      "inputs": [],
      "name": "membersWithVetoOrganContract",
      "outputs": [
        {
          "name": "",
          "type": "address"
        }
      ],
      "payable": false,
      "stateMutability": "view",
      "type": "function"
    },
    {
      "constant": true,
      "inputs": [
        {
          "name": "",
          "type": "address"
        },
        {
          "name": "",
          "type": "uint256"
        }
      ],
      "name": "propositionToVoter",
      "outputs": [
        {
          "name": "",
          "type": "uint256"
        }
      ],
      "payable": false,
      "stateMutability": "view",
      "type": "function"
    },
    {
      "constant": true,
      "inputs": [],
      "name": "finalPromulgatorsOrganContract",
      "outputs": [
        {
          "name": "",
          "type": "address"
        }
      ],
      "payable": false,
      "stateMutability": "view",
      "type": "function"
    },
    {
      "constant": true,
      "inputs": [],
      "name": "totalPropositionNumber",
      "outputs": [
        {
          "name": "",
          "type": "uint256"
        }
      ],
      "payable": false,
      "stateMutability": "view",
      "type": "function"
    },
    {
      "constant": true,
      "inputs": [],
      "name": "procedureInfo",
      "outputs": [
        {
          "name": "procedureTypeNumber",
          "type": "uint256"
        },
        {
          "name": "procedureName",
          "type": "bytes32"
        },
        {
          "name": "linkedOrgans",
          "type": "uint256"
        }
      ],
      "payable": false,
      "stateMutability": "view",
      "type": "function"
    },
    {
      "constant": true,
      "inputs": [],
      "name": "isAnOrgan",
      "outputs": [
        {
          "name": "",
          "type": "bool"
        }
      ],
      "payable": false,
      "stateMutability": "view",
      "type": "function"
    },
    {
      "constant": true,
      "inputs": [],
      "name": "procedureName",
      "outputs": [
        {
          "name": "",
          "type": "bytes32"
        }
      ],
      "payable": false,
      "stateMutability": "view",
      "type": "function"
    },
    {
      "constant": true,
      "inputs": [],
      "name": "votingPeriodDuration",
      "outputs": [
        {
          "name": "",
          "type": "uint256"
        }
      ],
      "payable": false,
      "stateMutability": "view",
      "type": "function"
    },
    {
      "constant": true,
      "inputs": [],
      "name": "membersOrganContract",
      "outputs": [
        {
          "name": "",
          "type": "address"
        }
      ],
      "payable": false,
      "stateMutability": "view",
      "type": "function"
    },
    {
      "constant": true,
      "inputs": [
        {
          "name": "",
          "type": "uint256"
        }
      ],
      "name": "propositionsWaitingPromulgation",
      "outputs": [
        {
          "name": "",
          "type": "bool"
        }
      ],
      "payable": false,
      "stateMutability": "view",
      "type": "function"
    },
    {
      "constant": true,
      "inputs": [],
      "name": "promulgationPeriodDuration",
      "outputs": [
        {
          "name": "",
          "type": "uint256"
        }
      ],
      "payable": false,
      "stateMutability": "view",
      "type": "function"
    },
    {
      "constant": true,
      "inputs": [
        {
          "name": "",
          "type": "address"
        },
        {
          "name": "",
          "type": "uint256"
        }
      ],
      "name": "propositionToVetoer",
      "outputs": [
        {
          "name": "",
          "type": "uint256"
        }
      ],
      "payable": false,
      "stateMutability": "view",
      "type": "function"
    },
    {
      "constant": true,
      "inputs": [
        {
          "name": "",
          "type": "uint256"
        }
      ],
      "name": "propositionsWaitingEndOfVote",
      "outputs": [
        {
          "name": "",
          "type": "bool"
        }
      ],
      "payable": false,
      "stateMutability": "view",
      "type": "function"
    },
    {
      "constant": true,
      "inputs": [],
      "name": "isAProcedure",
      "outputs": [
        {
          "name": "",
          "type": "bool"
        }
      ],
      "payable": false,
      "stateMutability": "view",
      "type": "function"
    },
    {
      "constant": true,
      "inputs": [
        {
          "name": "",
          "type": "uint256"
        }
      ],
      "name": "linkedOrgans",
      "outputs": [
        {
          "name": "",
          "type": "address"
        }
      ],
      "payable": false,
      "stateMutability": "view",
      "type": "function"
    },
    {
      "inputs": [
        {
          "name": "_membersOrganContract",
          "type": "address"
        },
        {
          "name": "_membersWithVetoOrganContract",
          "type": "address"
        },
        {
          "name": "_finalPromulgatorsOrganContract",
          "type": "address"
        },
        {
          "name": "_quorumSize",
          "type": "uint256"
        },
        {
          "name": "_votingPeriodDuration",
          "type": "uint256"
        },
        {
          "name": "_promulgationPeriodDuration",
          "type": "uint256"
        },
        {
          "name": "_name",
          "type": "bytes32"
        }
      ],
      "payable": false,
      "stateMutability": "nonpayable",
      "type": "constructor"
    },
    {
      "anonymous": false,
      "inputs": [
        {
          "indexed": false,
          "name": "_candidateAddress",
          "type": "address"
        },
        {
          "indexed": false,
          "name": "_deposit",
          "type": "uint256"
        },
        {
          "indexed": false,
          "name": "_ipfsHash",
          "type": "bytes32"
        },
        {
          "indexed": false,
          "name": "_hash_function",
          "type": "uint8"
        },
        {
          "indexed": false,
          "name": "_size",
          "type": "uint8"
        }
      ],
      "name": "createPropositionEvent",
      "type": "event"
    },
    {
      "anonymous": false,
      "inputs": [
        {
          "indexed": false,
          "name": "_from",
          "type": "address"
        },
        {
          "indexed": false,
          "name": "_propositionNumber",
          "type": "uint256"
        }
      ],
      "name": "voteOnProposition",
      "type": "event"
    },
    {
      "anonymous": false,
      "inputs": [
        {
          "indexed": false,
          "name": "_from",
          "type": "address"
        },
        {
          "indexed": false,
          "name": "_propositionNumber",
          "type": "uint256"
        },
        {
          "indexed": false,
          "name": "_decision",
          "type": "bool"
        }
      ],
      "name": "vetoProposition",
      "type": "event"
    },
    {
      "anonymous": false,
      "inputs": [
        {
          "indexed": false,
          "name": "_from",
          "type": "address"
        },
        {
          "indexed": false,
          "name": "_propositionNumber",
          "type": "uint256"
        }
      ],
      "name": "countVotes",
      "type": "event"
    },
    {
      "anonymous": false,
      "inputs": [
        {
          "indexed": false,
          "name": "_from",
          "type": "address"
        },
        {
          "indexed": false,
          "name": "_propositionNumber",
          "type": "uint256"
        }
      ],
      "name": "promulgatePropositionEvent",
      "type": "event"
    },
    {
      "anonymous": false,
      "inputs": [
        {
          "indexed": false,
          "name": "_from",
          "type": "address"
        },
        {
          "indexed": false,
          "name": "_propositionNumber",
          "type": "uint256"
        },
        {
          "indexed": false,
          "name": "_value",
          "type": "uint256"
        }
      ],
      "name": "withdrawal",
      "type": "event"
    },
    {
      "constant": false,
      "inputs": [
        {
          "name": "_name",
          "type": "bytes32"
        },
        {
          "name": "_ipfsHash",
          "type": "bytes32"
        },
        {
          "name": "_hash_function",
          "type": "uint8"
        },
        {
          "name": "_size",
          "type": "uint8"
        }
      ],
      "name": "createProposition",
      "outputs": [
        {
          "name": "propositionNumber",
          "type": "uint256"
        }
      ],
      "payable": true,
      "stateMutability": "payable",
      "type": "function"
    },
    {
      "constant": false,
      "inputs": [
        {
          "name": "_propositionNumber",
          "type": "uint256"
        },
        {
          "name": "_acceptProposition",
          "type": "bool"
        }
      ],
      "name": "vote",
      "outputs": [],
      "payable": false,
      "stateMutability": "nonpayable",
      "type": "function"
    },
    {
      "constant": false,
      "inputs": [
        {
          "name": "_propositionNumber",
          "type": "uint256"
        },
        {
          "name": "_acceptProposition",
          "type": "bool"
        }
      ],
      "name": "veto",
      "outputs": [],
      "payable": false,
      "stateMutability": "nonpayable",
      "type": "function"
    },
    {
      "constant": false,
      "inputs": [
        {
          "name": "_propositionNumber",
          "type": "uint256"
        }
      ],
      "name": "endPropositionVote",
      "outputs": [
        {
          "name": "hasBeenAccepted",
          "type": "bool"
        }
      ],
      "payable": false,
      "stateMutability": "nonpayable",
      "type": "function"
    },
    {
      "constant": false,
      "inputs": [
        {
          "name": "_propositionNumber",
          "type": "uint256"
        }
      ],
      "name": "promulgateProposition",
      "outputs": [],
      "payable": false,
      "stateMutability": "nonpayable",
      "type": "function"
    },
    {
      "constant": false,
      "inputs": [
        {
          "name": "_propositionNumber",
          "type": "uint256"
        }
      ],
      "name": "withDrawPayout",
      "outputs": [],
      "payable": false,
      "stateMutability": "nonpayable",
      "type": "function"
    },
    {
      "constant": true,
      "inputs": [
        {
          "name": "_propositionNumber",
          "type": "uint256"
        }
      ],
      "name": "getPropositionDetails",
      "outputs": [
        {
          "name": "_candidateAddress",
          "type": "address"
        },
        {
          "name": "_name",
          "type": "bytes32"
        },
        {
          "name": "_ipfsHash",
          "type": "bytes32"
        },
        {
          "name": "_hash_function",
          "type": "uint8"
        },
        {
          "name": "_size",
          "type": "uint8"
        }
      ],
      "payable": false,
      "stateMutability": "view",
      "type": "function"
    },
    {
      "constant": true,
      "inputs": [
        {
          "name": "_propositionNumber",
          "type": "uint256"
        }
      ],
      "name": "getPropositionDates",
      "outputs": [
        {
          "name": "_startDate",
          "type": "uint256"
        },
        {
          "name": "_votingPeriodEndDate",
          "type": "uint256"
        },
        {
          "name": "_promulgatorWindowEndDate",
          "type": "uint256"
        }
      ],
      "payable": false,
      "stateMutability": "view",
      "type": "function"
    },
    {
      "constant": true,
      "inputs": [
        {
          "name": "_propositionNumber",
          "type": "uint256"
        }
      ],
      "name": "getPropositionStatus",
      "outputs": [
        {
          "name": "_wasCounted",
          "type": "bool"
        },
        {
          "name": "_wasEnacted",
          "type": "bool"
        }
      ],
      "payable": false,
      "stateMutability": "view",
      "type": "function"
    },
    {
      "constant": true,
      "inputs": [
        {
          "name": "_propositionNumber",
          "type": "uint256"
        }
      ],
      "name": "getVotedPropositionResults",
      "outputs": [
        {
          "name": "totalVoters",
          "type": "uint256"
        },
        {
          "name": "_totalVoteCount",
          "type": "uint256"
        },
        {
          "name": "_voteFor",
          "type": "uint256"
        },
        {
          "name": "_vetoCount",
          "type": "uint256"
        },
        {
          "name": "_notVetoCount",
          "type": "uint256"
        },
        {
          "name": "_wasAccepted",
          "type": "bool"
        }
      ],
      "payable": false,
      "stateMutability": "view",
      "type": "function"
    },
    {
      "constant": true,
      "inputs": [
        {
          "name": "_userAddress",
          "type": "address"
        }
      ],
      "name": "getPropositionsCreatedByUser",
      "outputs": [
        {
          "name": "",
          "type": "uint256[]"
        }
      ],
      "payable": false,
      "stateMutability": "view",
      "type": "function"
    },
    {
      "constant": true,
      "inputs": [
        {
          "name": "_userAddress",
          "type": "address"
        }
      ],
      "name": "getPropositionsVetoedByUser",
      "outputs": [
        {
          "name": "",
          "type": "uint256[]"
        }
      ],
      "payable": false,
      "stateMutability": "view",
      "type": "function"
    },
    {
      "constant": true,
      "inputs": [
        {
          "name": "_userAddress",
          "type": "address"
        }
      ],
      "name": "getPropositionsPromulgatedByUser",
      "outputs": [
        {
          "name": "",
          "type": "uint256[]"
        }
      ],
      "payable": false,
      "stateMutability": "view",
      "type": "function"
    },
    {
      "constant": true,
      "inputs": [
        {
          "name": "_userAddress",
          "type": "address"
        }
      ],
      "name": "getPropositionsUsedByUser",
      "outputs": [
        {
          "name": "",
          "type": "uint256[]"
        }
      ],
      "payable": false,
      "stateMutability": "view",
      "type": "function"
    },
    {
      "constant": true,
      "inputs": [
        {
          "name": "propositionNumber",
          "type": "uint256"
        }
      ],
      "name": "haveIVoted",
      "outputs": [
        {
          "name": "IHaveVoted",
          "type": "bool"
        }
      ],
      "payable": false,
      "stateMutability": "view",
      "type": "function"
    }
  ],
  "bytecode": "0x608060405260026000556000600560006101000a81548160ff0219169083151502179055506001600560016101000a81548160ff02191690831515021790555060076006553480156200005157600080fd5b5060405160e080620035e9833981018060405260e08110156200007357600080fd5b810190808051906020019092919080519060200190929190805190602001909291908051906020019092919080519060200190929190805190602001909291908051906020019092919050505086600760006101000a81548173ffffffffffffffffffffffffffffffffffffffff021916908373ffffffffffffffffffffffffffffffffffffffff16021790555085600860006101000a81548173ffffffffffffffffffffffffffffffffffffffff021916908373ffffffffffffffffffffffffffffffffffffffff16021790555084600960006101000a81548173ffffffffffffffffffffffffffffffffffffffff021916908373ffffffffffffffffffffffffffffffffffffffff160217905550606060405190810160405280600960009054906101000a900473ffffffffffffffffffffffffffffffffffffffff1673ffffffffffffffffffffffffffffffffffffffff1673ffffffffffffffffffffffffffffffffffffffff168152602001600860009054906101000a900473ffffffffffffffffffffffffffffffffffffffff1673ffffffffffffffffffffffffffffffffffffffff1673ffffffffffffffffffffffffffffffffffffffff168152602001600760009054906101000a900473ffffffffffffffffffffffffffffffffffffffff1673ffffffffffffffffffffffffffffffffffffffff1673ffffffffffffffffffffffffffffffffffffffff1681525060109060036200029b929190620002d6565b5080600f8190555083600d819055506103e8600a8190555082600b8190555081600c81905550600160008190555050505050505050620003ab565b82805482825590600052602060002090810192821562000352579160200282015b82811115620003515782518260006101000a81548173ffffffffffffffffffffffffffffffffffffffff021916908373ffffffffffffffffffffffffffffffffffffffff16021790555091602001919060010190620002f7565b5b50905062000361919062000365565b5090565b620003a891905b80821115620003a457600081816101000a81549073ffffffffffffffffffffffffffffffffffffffff0219169055506001016200036c565b5090565b90565b61322e80620003bb6000396000f3fe608060405260043610610221576000357c0100000000000000000000000000000000000000000000000000000000900480638967893011610135578063cb20a2fd116100bd578063d85884941161008c578063d858849414610c89578063e09ecb8714610cf8578063e36f6e4e14610d4b578063e80b30a514610d9e578063f2edc61614610dcd57610221565b8063cb20a2fd14610b08578063cd43eb1f14610bae578063cd87c2b614610c01578063ce88840314610c2c57610221565b8063ac37af1c11610104578063ac37af1c146109c1578063adb4018b14610a14578063b5fdb88e14610a3f578063b945d9e714610a6a578063c9d27afe14610ac157610221565b806389678930146108c85780638f3b07a41461092e5780639397942e14610959578063a8bef97a1461099257610221565b80635332eea1116101b85780635e8b7244116101875780635e8b7244146106ee57806364cdd61e146107355780636a95d38d1461078c57806375ff60c414610802578063880d3f541461087157610221565b80635332eea1146105de5780635ac852121461064d5780635b9d7345146106885780635dbe4d28146106c357610221565b80632647d7f9116101f45780632647d7f91461043f5780633068ef4d1461046a57806337443feb146104955780633c0848ee1461053857610221565b80630366af3d1461022657806305cf00571461028457806307e7a2241461032a5780630b2e34b0146103d0575b600080fd5b34801561023257600080fd5b5061025f6004803603602081101561024957600080fd5b8101908080359060200190929190505050610e48565b6040518083151515158152602001821515151581526020019250505060405180910390f35b34801561029057600080fd5b506102d3600480360360208110156102a757600080fd5b81019080803573ffffffffffffffffffffffffffffffffffffffff169060200190929190505050610eb0565b6040518080602001828103825283818151815260200191508051906020019060200280838360005b838110156103165780820151818401526020810190506102fb565b505050509050019250505060405180910390f35b34801561033657600080fd5b506103796004803603602081101561034d57600080fd5b81019080803573ffffffffffffffffffffffffffffffffffffffff169060200190929190505050610f47565b6040518080602001828103825283818151815260200191508051906020019060200280838360005b838110156103bc5780820151818401526020810190506103a1565b505050509050019250505060405180910390f35b3480156103dc57600080fd5b50610429600480360360408110156103f357600080fd5b81019080803573ffffffffffffffffffffffffffffffffffffffff16906020019092919080359060200190929190505050610fde565b6040518082815260200191505060405180910390f35b34801561044b57600080fd5b5061045461100e565b6040518082815260200191505060405180910390f35b34801561047657600080fd5b5061047f611014565b6040518082815260200191505060405180910390f35b3480156104a157600080fd5b506104ce600480360360208110156104b857600080fd5b810190808035906020019092919050505061101a565b604051808673ffffffffffffffffffffffffffffffffffffffff1673ffffffffffffffffffffffffffffffffffffffff1681526020018581526020018481526020018360ff1660ff1681526020018260ff1660ff1681526020019550505050505060405180910390f35b34801561054457600080fd5b506105876004803603602081101561055b57600080fd5b81019080803573ffffffffffffffffffffffffffffffffffffffff169060200190929190505050611117565b6040518080602001828103825283818151815260200191508051906020019060200280838360005b838110156105ca5780820151818401526020810190506105af565b505050509050019250505060405180910390f35b3480156105ea57600080fd5b506106376004803603604081101561060157600080fd5b81019080803573ffffffffffffffffffffffffffffffffffffffff169060200190929190803590602001909291905050506111ae565b6040518082815260200191505060405180910390f35b34801561065957600080fd5b506106866004803603602081101561067057600080fd5b81019080803590602001909291905050506111de565b005b34801561069457600080fd5b506106c1600480360360208110156106ab57600080fd5b8101908080359060200190929190505050611545565b005b3480156106cf57600080fd5b506106d8611974565b6040518082815260200191505060405180910390f35b3480156106fa57600080fd5b506107336004803603604081101561071157600080fd5b810190808035906020019092919080351515906020019092919050505061197a565b005b34801561074157600080fd5b5061074a611c8f565b604051808273ffffffffffffffffffffffffffffffffffffffff1673ffffffffffffffffffffffffffffffffffffffff16815260200191505060405180910390f35b34801561079857600080fd5b506107c5600480360360208110156107af57600080fd5b8101908080359060200190929190505050611cb5565b6040518087815260200186815260200185815260200184815260200183815260200182151515158152602001965050505050505060405180910390f35b34801561080e57600080fd5b5061085b6004803603604081101561082557600080fd5b81019080803573ffffffffffffffffffffffffffffffffffffffff16906020019092919080359060200190929190505050611ddf565b6040518082815260200191505060405180910390f35b34801561087d57600080fd5b50610886611e0f565b604051808273ffffffffffffffffffffffffffffffffffffffff1673ffffffffffffffffffffffffffffffffffffffff16815260200191505060405180910390f35b610918600480360360808110156108de57600080fd5b810190808035906020019092919080359060200190929190803560ff169060200190929190803560ff169060200190929190505050611e35565b6040518082815260200191505060405180910390f35b34801561093a57600080fd5b506109436124db565b6040518082815260200191505060405180910390f35b34801561096557600080fd5b5061096e6124e1565b60405180848152602001838152602001828152602001935050505060405180910390f35b34801561099e57600080fd5b506109a76124f9565b604051808215151515815260200191505060405180910390f35b3480156109cd57600080fd5b506109fa600480360360208110156109e457600080fd5b810190808035906020019092919050505061250c565b604051808215151515815260200191505060405180910390f35b348015610a2057600080fd5b50610a29612580565b6040518082815260200191505060405180910390f35b348015610a4b57600080fd5b50610a54612586565b6040518082815260200191505060405180910390f35b348015610a7657600080fd5b50610a7f61258c565b604051808273ffffffffffffffffffffffffffffffffffffffff1673ffffffffffffffffffffffffffffffffffffffff16815260200191505060405180910390f35b348015610acd57600080fd5b50610b0660048036036040811015610ae457600080fd5b81019080803590602001909291908035151590602001909291905050506125b2565b005b348015610b1457600080fd5b50610b5760048036036020811015610b2b57600080fd5b81019080803573ffffffffffffffffffffffffffffffffffffffff1690602001909291905050506128bd565b6040518080602001828103825283818151815260200191508051906020019060200280838360005b83811015610b9a578082015181840152602081019050610b7f565b505050509050019250505060405180910390f35b348015610bba57600080fd5b50610be760048036036020811015610bd157600080fd5b8101908080359060200190929190505050612954565b604051808215151515815260200191505060405180910390f35b348015610c0d57600080fd5b50610c16612987565b6040518082815260200191505060405180910390f35b348015610c3857600080fd5b50610c6560048036036020811015610c4f57600080fd5b810190808035906020019092919050505061298d565b60405180848152602001838152602001828152602001935050505060405180910390f35b348015610c9557600080fd5b50610ce260048036036040811015610cac57600080fd5b81019080803573ffffffffffffffffffffffffffffffffffffffff16906020019092919080359060200190929190505050612a0e565b6040518082815260200191505060405180910390f35b348015610d0457600080fd5b50610d3160048036036020811015610d1b57600080fd5b8101908080359060200190929190505050612a3e565b604051808215151515815260200191505060405180910390f35b348015610d5757600080fd5b50610d8460048036036020811015610d6e57600080fd5b8101908080359060200190929190505050612fe8565b604051808215151515815260200191505060405180910390f35b348015610daa57600080fd5b50610db361301b565b604051808215151515815260200191505060405180910390f35b348015610dd957600080fd5b50610e0660048036036020811015610df057600080fd5b810190808035906020019092919050505061302e565b604051808273ffffffffffffffffffffffffffffffffffffffff1673ffffffffffffffffffffffffffffffffffffffff16815260200191505060405180910390f35b600080601183815481101515610e5a57fe5b90600052602060002090600f020160030160019054906101000a900460ff16601184815481101515610e8857fe5b90600052602060002090600f020160030160029054906101000a900460ff1691509150915091565b6060601560008373ffffffffffffffffffffffffffffffffffffffff1673ffffffffffffffffffffffffffffffffffffffff168152602001908152602001600020805480602002602001604051908101604052809291908181526020018280548015610f3b57602002820191906000526020600020905b815481526020019060010190808311610f27575b50505050509050919050565b6060601760008373ffffffffffffffffffffffffffffffffffffffff1673ffffffffffffffffffffffffffffffffffffffff168152602001908152602001600020805480602002602001604051908101604052809291908181526020018280548015610fd257602002820191906000526020600020905b815481526020019060010190808311610fbe575b50505050509050919050565b601460205281600052604060002081815481101515610ff957fe5b90600052602060002001600091509150505481565b60065481565b600d5481565b600080600080600060118681548110151561103157fe5b90600052602060002090600f020160090160009054906101000a900473ffffffffffffffffffffffffffffffffffffffff1660118781548110151561107257fe5b90600052602060002090600f0201600a015460118881548110151561109357fe5b90600052602060002090600f0201600b01546011898154811015156110b457fe5b90600052602060002090600f0201600c0160009054906101000a900460ff1660118a8154811015156110e257fe5b90600052602060002090600f0201600c0160019054906101000a900460ff168494509450945094509450945091939590929450565b6060601660008373ffffffffffffffffffffffffffffffffffffffff1673ffffffffffffffffffffffffffffffffffffffff1681526020019081526020016000208054806020026020016040519081016040528092919081815260200182805480156111a257602002820191906000526020600020905b81548152602001906001019080831161118e575b50505050509050919050565b6017602052816000526040600020818154811015156111c957fe5b90600052602060002001600091509150505481565b6011818154811015156111ed57fe5b90600052602060002090600f020160030160029054906101000a900460ff16151561121757600080fd5b60118181548110151561122657fe5b90600052602060002090600f020160000160003373ffffffffffffffffffffffffffffffffffffffff1673ffffffffffffffffffffffffffffffffffffffff16815260200190815260200160002060009054906101000a900460ff16151561128d57600080fd5b60118181548110151561129c57fe5b90600052602060002090600f020160030160009054906101000a900460ff1615156011828154811015156112cc57fe5b90600052602060002090600f020160010160003373ffffffffffffffffffffffffffffffffffffffff1673ffffffffffffffffffffffffffffffffffffffff16815260200190815260200160002060009054906101000a900460ff16151514151561133657600080fd5b600060118281548110151561134757fe5b90600052602060002090600f020160000160003373ffffffffffffffffffffffffffffffffffffffff1673ffffffffffffffffffffffffffffffffffffffff16815260200190815260200160002060006101000a81548160ff0219169083151502179055506000600760009054906101000a900473ffffffffffffffffffffffffffffffffffffffff1690508073ffffffffffffffffffffffffffffffffffffffff1663117de2fd336011858154811015156113ff57fe5b90600052602060002090600f0201600e01546040518363ffffffff167c0100000000000000000000000000000000000000000000000000000000028152600401808373ffffffffffffffffffffffffffffffffffffffff1673ffffffffffffffffffffffffffffffffffffffff16815260200182815260200192505050600060405180830381600087803b15801561149657600080fd5b505af11580156114aa573d6000803e3d6000fd5b505050507f2e4d3189c330c7bfcce65176d6c0b1b49698fd9638f1dbba37a5bfb7e55a283333836011858154811015156114e057fe5b90600052602060002090600f0201600e0154604051808473ffffffffffffffffffffffffffffffffffffffff1673ffffffffffffffffffffffffffffffffffffffff168152602001838152602001828152602001935050505060405180910390a15050565b60118181548110151561155457fe5b90600052602060002090600f020160030160029054906101000a900460ff1615151561157f57600080fd5b60118181548110151561158e57fe5b90600052602060002090600f020160030160019054906101000a900460ff1615156115b857600080fd5b600c54600b546011838154811015156115cd57fe5b90600052602060002090600f020160020154010142101561161457611613600960009054906101000a900473ffffffffffffffffffffffffffffffffffffffff1661306c565b5b60118181548110151561162357fe5b90600052602060002090600f020160030160009054906101000a900460ff16151561164d57600080fd5b6000600760009054906101000a900473ffffffffffffffffffffffffffffffffffffffff1690508073ffffffffffffffffffffffffffffffffffffffff1663a08c3cb560118481548110151561169f57fe5b90600052602060002090600f020160090160009054906101000a900473ffffffffffffffffffffffffffffffffffffffff166011858154811015156116e057fe5b90600052602060002090600f0201600b015460118681548110151561170157fe5b90600052602060002090600f0201600c0160009054906101000a900460ff1660118781548110151561172f57fe5b90600052602060002090600f0201600c0160019054906101000a900460ff166040518563ffffffff167c0100000000000000000000000000000000000000000000000000000000028152600401808573ffffffffffffffffffffffffffffffffffffffff1673ffffffffffffffffffffffffffffffffffffffff1681526020018481526020018360ff1660ff1681526020018260ff1660ff168152602001945050505050602060405180830381600087803b1580156117ed57600080fd5b505af1158015611801573d6000803e3d6000fd5b505050506040513d602081101561181757600080fd5b810190808051906020019092919050505050600160118381548110151561183a57fe5b90600052602060002090600f020160030160026101000a81548160ff021916908315150217905550600060138381548110151561187357fe5b90600052602060002090602091828204019190066101000a81548160ff021916908315150217905550601760003373ffffffffffffffffffffffffffffffffffffffff1673ffffffffffffffffffffffffffffffffffffffff1681526020019081526020016000208290806001815401808255809150509060018203906000526020600020016000909192909190915055507f6488668a970b37da2333b4e2f299369ec2545de1cb7772a523818f23e0e5f8b43383604051808373ffffffffffffffffffffffffffffffffffffffff1673ffffffffffffffffffffffffffffffffffffffff1681526020018281526020019250505060405180910390a15050565b60005481565b60118281548110151561198957fe5b90600052602060002090600f020160000160003373ffffffffffffffffffffffffffffffffffffffff1673ffffffffffffffffffffffffffffffffffffffff16815260200190815260200160002060009054906101000a900460ff161515156119f157600080fd5b611a1c600860009054906101000a900473ffffffffffffffffffffffffffffffffffffffff1661306c565b601182815481101515611a2b57fe5b90600052602060002090600f020160030160019054906101000a900460ff16151515611a5657600080fd5b8015611a90576001601183815481101515611a6d57fe5b90600052602060002090600f020160070160008282540192505081905550611ac0565b6001601183815481101515611aa157fe5b90600052602060002090600f0201600601600082825401925050819055505b6001601183815481101515611ad157fe5b90600052602060002090600f020160000160003373ffffffffffffffffffffffffffffffffffffffff1673ffffffffffffffffffffffffffffffffffffffff16815260200190815260200160002060006101000a81548160ff02191690831515021790555080601183815481101515611b4657fe5b90600052602060002090600f020160010160003373ffffffffffffffffffffffffffffffffffffffff1673ffffffffffffffffffffffffffffffffffffffff16815260200190815260200160002060006101000a81548160ff021916908315150217905550601660003373ffffffffffffffffffffffffffffffffffffffff1673ffffffffffffffffffffffffffffffffffffffff1681526020019081526020016000208290806001815401808255809150509060018203906000526020600020016000909192909190915055507f784f91034367c5f65754729da97be44b2d8e37d9ccfd9f568442de3a84f3fe1f338383604051808473ffffffffffffffffffffffffffffffffffffffff1673ffffffffffffffffffffffffffffffffffffffff16815260200183815260200182151515158152602001935050505060405180910390a15050565b600860009054906101000a900473ffffffffffffffffffffffffffffffffffffffff1681565b600080600080600080601187815481101515611ccd57fe5b90600052602060002090600f020160030160019054906101000a900460ff161515611cf757600080fd5b601187815481101515611d0657fe5b90600052602060002090600f020160050154601188815481101515611d2757fe5b90600052602060002090600f020160050154601189815481101515611d4857fe5b90600052602060002090600f02016004015460118a815481101515611d6957fe5b90600052602060002090600f02016006015460118b815481101515611d8a57fe5b90600052602060002090600f02016007015460118c815481101515611dab57fe5b90600052602060002090600f020160030160009054906101000a900460ff1695509550955095509550955091939550919395565b601560205281600052604060002081815481101515611dfa57fe5b90600052602060002001600091509150505481565b600960009054906101000a900473ffffffffffffffffffffffffffffffffffffffff1681565b600080600760009054906101000a900473ffffffffffffffffffffffffffffffffffffffff16905060008173ffffffffffffffffffffffffffffffffffffffff16635549ea51336040518263ffffffff167c0100000000000000000000000000000000000000000000000000000000028152600401808273ffffffffffffffffffffffffffffffffffffffff1673ffffffffffffffffffffffffffffffffffffffff16815260200191505060206040518083038186803b158015611ef857600080fd5b505afa158015611f0c573d6000803e3d6000fd5b505050506040513d6020811015611f2257600080fd5b8101908080519060200190929190505050141515611f3f57600080fd5b60008173ffffffffffffffffffffffffffffffffffffffff1663bbea06196040518163ffffffff167c0100000000000000000000000000000000000000000000000000000000028152600401604080518083038186803b158015611fa257600080fd5b505afa158015611fb6573d6000803e3d6000fd5b505050506040513d6040811015611fcc57600080fd5b81019080805190602001909291908051906020019092919050505091505080600a540234111515611ffc57600080fd5b61200461315c565b6064600d54830281151561201457fe5b04816101000181815250506000816101000151141561203a576001816101000181815250505b600092503381610120019073ffffffffffffffffffffffffffffffffffffffff16908173ffffffffffffffffffffffffffffffffffffffff168152505086816101600181815250508581610180019060ff16908160ff168152505084816101a0019060ff16908160ff1681525050878161014001818152505034816101c00181815250504281600001818152505060008160600190151590811515815250506000816040019015159081151581525050600081602001901515908115158152505060008160a0018181525050600081608001818152505060008160c001818152505060008160e00181815250506000816101e00181815250506011819080600181540180825580915050906001820390600052602060002090600f0201600090919290919091506000820151816002015560208201518160030160006101000a81548160ff02191690831515021790555060408201518160030160016101000a81548160ff02191690831515021790555060608201518160030160026101000a81548160ff0219169083151502179055506080820151816004015560a0820151816005015560c0820151816006015560e0820151816007015561010082015181600801556101208201518160090160006101000a81548173ffffffffffffffffffffffffffffffffffffffff021916908373ffffffffffffffffffffffffffffffffffffffff16021790555061014082015181600a015561016082015181600b015561018082015181600c0160006101000a81548160ff021916908360ff1602179055506101a082015181600c0160016101000a81548160ff021916908360ff1602179055506101c082015181600d01556101e082015181600e01555050506122c161315c565b905060016011805490500393506001600e60008282540192505081905550601460003373ffffffffffffffffffffffffffffffffffffffff1673ffffffffffffffffffffffffffffffffffffffff16815260200190815260200160002084908060018154018082558091505090600182039060005260206000200160009091929091909150555060126001908060018154018082558091505090600182039060005260206000209060209182820401919006909192909190916101000a81548160ff0219169083151502179055505060136000908060018154018082558091505090600182039060005260206000209060209182820401919006909192909190916101000a81548160ff021916908315150217905550507f362fe28119932e029adb55bc2d8adcd4902c1f751a356d510fc4492728b1112d3334898989604051808673ffffffffffffffffffffffffffffffffffffffff1673ffffffffffffffffffffffffffffffffffffffff1681526020018581526020018481526020018360ff1660ff1681526020018260ff1660ff1681526020019550505050505060405180910390a1600760009054906101000a900473ffffffffffffffffffffffffffffffffffffffff1673ffffffffffffffffffffffffffffffffffffffff166108fc349081150290604051600060405180830381858888f193505050501580156124cf573d6000803e3d6000fd5b50505050949350505050565b600e5481565b60028060000154908060010154908060020154905083565b600560009054906101000a900460ff1681565b600060118281548110151561251d57fe5b90600052602060002090600f020160000160003373ffffffffffffffffffffffffffffffffffffffff1673ffffffffffffffffffffffffffffffffffffffff16815260200190815260200160002060009054906101000a900460ff169050919050565b600f5481565b600b5481565b600760009054906101000a900473ffffffffffffffffffffffffffffffffffffffff1681565b6125dd600760009054906101000a900473ffffffffffffffffffffffffffffffffffffffff1661306c565b6011828154811015156125ec57fe5b90600052602060002090600f020160000160003373ffffffffffffffffffffffffffffffffffffffff1673ffffffffffffffffffffffffffffffffffffffff16815260200190815260200160002060009054906101000a900460ff1615151561265457600080fd5b60118281548110151561266357fe5b90600052602060002090600f020160030160019054906101000a900460ff1615151561268e57600080fd5b6001151581151514156126cb5760016011838154811015156126ac57fe5b90600052602060002090600f0201600401600082825401925050819055505b60016011838154811015156126dc57fe5b90600052602060002090600f020160000160003373ffffffffffffffffffffffffffffffffffffffff1673ffffffffffffffffffffffffffffffffffffffff16815260200190815260200160002060006101000a81548160ff0219169083151502179055508060118381548110151561275157fe5b90600052602060002090600f020160010160003373ffffffffffffffffffffffffffffffffffffffff1673ffffffffffffffffffffffffffffffffffffffff16815260200190815260200160002060006101000a81548160ff02191690831515021790555060016011838154811015156127c757fe5b90600052602060002090600f020160050160008282540192505081905550601560003373ffffffffffffffffffffffffffffffffffffffff1673ffffffffffffffffffffffffffffffffffffffff1681526020019081526020016000208290806001815401808255809150509060018203906000526020600020016000909192909190915055507fd1faddd599b0d6b58c83de71d7ff5395895b5891894dcd37f2482f33b2a1c43d3383604051808373ffffffffffffffffffffffffffffffffffffffff1673ffffffffffffffffffffffffffffffffffffffff1681526020018281526020019250505060405180910390a15050565b6060601460008373ffffffffffffffffffffffffffffffffffffffff1673ffffffffffffffffffffffffffffffffffffffff16815260200190815260200160002080548060200260200160405190810160405280929190818152602001828054801561294857602002820191906000526020600020905b815481526020019060010190808311612934575b50505050509050919050565b60138181548110151561296357fe5b9060005260206000209060209182820401919006915054906101000a900460ff1681565b600c5481565b60008060006011848154811015156129a157fe5b90600052602060002090600f020160020154600b546011868154811015156129c557fe5b90600052602060002090600f02016002015401600c54600b546011888154811015156129ed57fe5b90600052602060002090600f02016002015401019250925092509193909250565b601660205281600052604060002081815481101515612a2957fe5b90600052602060002001600091509150505481565b6000601182815481101515612a4f57fe5b90600052602060002090600f020160030160019054906101000a900460ff16151515612a7a57600080fd5b42600b54601184815481101515612a8d57fe5b90600052602060002090600f02016002015401101515612aac57600080fd5b601182815481101515612abb57fe5b90600052602060002090600f020160080154601183815481101515612adc57fe5b90600052602060002090600f02016005015410151515612afb57600080fd5b6000600860009054906101000a900473ffffffffffffffffffffffffffffffffffffffff16905060008173ffffffffffffffffffffffffffffffffffffffff1663bbea06196040518163ffffffff167c0100000000000000000000000000000000000000000000000000000000028152600401604080518083038186803b158015612b8557600080fd5b505afa158015612b99573d6000803e3d6000fd5b505050506040513d6040811015612baf57600080fd5b8101908080519060200190929190805190602001909291905050509150506000915080601185815481101515612be157fe5b90600052602060002090600f020160060154101515612cce57600092506001601185815481101515612c0f57fe5b90600052602060002090600f020160030160026101000a81548160ff021916908315150217905550601184815481101515612c4657fe5b90600052602060002090600f020160040154601185815481101515612c6757fe5b90600052602060002090600f02016005015403601185815481101515612c8957fe5b90600052602060002090600f0201600d0154811515612ca457fe5b04601185815481101515612cb457fe5b90600052602060002090600f0201600e0181905550612e8e565b80601185815481101515612cde57fe5b90600052602060002090600f020160070154101580612d3f5750601184815481101515612d0757fe5b90600052602060002090600f0201600501546002601186815481101515612d2a57fe5b90600052602060002090600f02016004015402115b15612dbd5760019250601184815481101515612d5757fe5b90600052602060002090600f020160040154601185815481101515612d7857fe5b90600052602060002090600f0201600d0154811515612d9357fe5b04601185815481101515612da357fe5b90600052602060002090600f0201600e0181905550612e8d565b600092506001601185815481101515612dd257fe5b90600052602060002090600f020160030160026101000a81548160ff021916908315150217905550601184815481101515612e0957fe5b90600052602060002090600f020160040154601185815481101515612e2a57fe5b90600052602060002090600f02016005015403601185815481101515612e4c57fe5b90600052602060002090600f0201600d0154811515612e6757fe5b04601185815481101515612e7757fe5b90600052602060002090600f0201600e01819055505b5b6001601185815481101515612e9f57fe5b90600052602060002090600f020160030160016101000a81548160ff02191690831515021790555082601185815481101515612ed757fe5b90600052602060002090600f020160030160006101000a81548160ff0219169083151502179055506000601285815481101515612f1057fe5b90600052602060002090602091828204019190066101000a81548160ff0219169083151502179055506001601385815481101515612f4a57fe5b90600052602060002090602091828204019190066101000a81548160ff0219169083151502179055507f297f1f08d2ef8c90272f7ee3e1d4272015a96cdff8a252b60547b9e432e723603385604051808373ffffffffffffffffffffffffffffffffffffffff1673ffffffffffffffffffffffffffffffffffffffff1681526020018281526020019250505060405180910390a18292505050919050565b601281815481101515612ff757fe5b9060005260206000209060209182820401919006915054906101000a900460ff1681565b600560019054906101000a900460ff1681565b60108181548110151561303d57fe5b906000526020600020016000915054906101000a900473ffffffffffffffffffffffffffffffffffffffff1681565b600081905060008173ffffffffffffffffffffffffffffffffffffffff16635549ea51336040518263ffffffff167c0100000000000000000000000000000000000000000000000000000000028152600401808273ffffffffffffffffffffffffffffffffffffffff1673ffffffffffffffffffffffffffffffffffffffff16815260200191505060206040518083038186803b15801561310c57600080fd5b505afa158015613120573d6000803e3d6000fd5b505050506040513d602081101561313657600080fd5b81019080805190602001909291905050501415151561315457600080fd5b600091505050565b61020060405190810160405280600081526020016000151581526020016000151581526020016000151581526020016000815260200160008152602001600081526020016000815260200160008152602001600073ffffffffffffffffffffffffffffffffffffffff1681526020016000801916815260200160008019168152602001600060ff168152602001600060ff1681526020016000815260200160008152509056fea165627a7a723058209203279e5b732dce734eda54a19ed7e1a26220ab6b75c50ba6c3751e078f4afd0029",
  "source": "pragma solidity >=0.4.22 <0.6.0;\r\n\r\n// Standard contract for promulgation of a norm\r\n\r\nimport \"../standardProcedure.sol\";\r\nimport \"../Organ.sol\";\r\n\r\n\r\ncontract normsCooptationProcedure is Procedure{\r\n    // 1: Cyclical many to one election (Presidential Election)\r\n    // 2: Cyclical many to many election (Moderators Election)\r\n    // 3: Simple norm nomination \r\n    // 4: Simple admins and master nomination\r\n    // 5: Vote on Norms \r\n    // 6: Vote on masters and admins \r\n    // 7: Norms cooptation\r\n    int public procedureTypeNumber = 7;\r\n\r\n    // // Storage for procedure name\r\n    // string public procedureName;\r\n    // // Gathering connected organs for easier DAO mapping\r\n    // address[] public linkedOrgans;\r\n\r\n    // Which organ will be affected\r\n    address payable public  membersOrganContract;\r\n\r\n    // Organ in which the voters with veto power are registered\r\n    address payable public membersWithVetoOrganContract;\r\n\r\n    // Organ in which final promulgators are listed\r\n    address payable public finalPromulgatorsOrganContract;\r\n\r\n\r\n    // ############## Variable to set up when declaring the procedure\r\n    // ####### Vote creation process\r\n    uint minimumDepositSize;\r\n\r\n    // ####### Voting process\r\n    // Time for participant to vote\r\n    uint public votingPeriodDuration;\r\n\r\n    // Time for the final promulgators to promulgate\r\n    uint public promulgationPeriodDuration;\r\n\r\n    // ####### Resolution process\r\n    // Minimum participation to validate election\r\n    uint public quorumSize;\r\n\r\n    // Variable of the procedure to keep track of propositions\r\n    uint public totalPropositionNumber;\r\n\r\n    bytes32 public procedureName;\r\n    address[] public linkedOrgans;\r\n\r\n    // Proposition structure\r\n    struct Proposition {\r\n        // **** Voting variables\r\n        // Mapping to track if each user voted\r\n        mapping(address => bool) hasUserVoted;\r\n        // Mapping to track user votes\r\n        mapping(address => bool) whatHasUserVoted;\r\n        // Time of proposition creation\r\n        uint startDate;\r\n        // Was the proposition accepted?\r\n        bool wasAccepted;\r\n        // Was the proposition counted?\r\n        bool wasCounted;\r\n        // Was the proposition acted upon?\r\n        bool wasEnacted;\r\n        // How many people voted YES?\r\n        uint voteFor;\r\n        // How many people voted?\r\n        uint totalVoteCount;\r\n        // Was the proposition vetoed by the Vetoing members?\r\n        uint vetoCount;\r\n        // Was the proposition validated by the Vetoing members?\r\n        uint notVetoCount;\r\n        // How many members need to vote to enact proposition?\r\n        uint requiredQuorum;\r\n        // Proposition details\r\n        address payable candidateAddress;\r\n        bytes32 name;\r\n        bytes32 ipfsHash; // ID of proposal on IPFS\r\n        uint8 hash_function;\r\n        uint8 size;\r\n        uint deposit;\r\n        uint payoutPerUser;\r\n    }\r\n\r\n\r\n    // A dynamically-sized array of `Proposition` structs.\r\n    Proposition[] propositions;\r\n\r\n    // Dynamic size array of status of propositions\r\n    bool[] public propositionsWaitingEndOfVote;\r\n    bool[] public propositionsWaitingPromulgation;\r\n\r\n    // Mapping each proposition to the user creating it\r\n    mapping (address => uint[]) public propositionToUser;    \r\n\r\n    // Mapping each proposition to the user who participated\r\n    mapping (address => uint[]) public propositionToVoter;\r\n\r\n    // Mapping each proposition to the user vetoing it\r\n    mapping (address => uint[]) public propositionToVetoer;\r\n\r\n    // Mapping each proposition to the user promulgating it\r\n    mapping (address => uint[]) public propositionToPromulgator;\r\n\r\n    \r\n\r\n    // Events\r\n    event createPropositionEvent(address _candidateAddress, uint _deposit, bytes32 _ipfsHash, uint8 _hash_function, uint8 _size);\r\n    event voteOnProposition(address _from, uint _propositionNumber);\r\n    event vetoProposition(address _from, uint _propositionNumber, bool _decision);\r\n    event countVotes(address _from, uint _propositionNumber);\r\n    event promulgatePropositionEvent(address _from, uint _propositionNumber);\r\n    event withdrawal(address _from, uint _propositionNumber, uint _value);\r\n\r\n    constructor(address payable _membersOrganContract, address payable _membersWithVetoOrganContract, address payable _finalPromulgatorsOrganContract, uint _quorumSize, uint _votingPeriodDuration, uint _promulgationPeriodDuration, bytes32 _name) \r\n    public \r\n    {\r\n\r\n    membersOrganContract = _membersOrganContract;\r\n    membersWithVetoOrganContract = _membersWithVetoOrganContract;\r\n    finalPromulgatorsOrganContract = _finalPromulgatorsOrganContract; \r\n    linkedOrgans = [finalPromulgatorsOrganContract,membersWithVetoOrganContract,membersOrganContract];\r\n\r\n    // Procedure name \r\n    procedureName = _name;\r\n    \r\n    quorumSize = _quorumSize;\r\n    minimumDepositSize = 1000;\r\n    // votingPeriodDuration = 3 minutes;\r\n    // promulgationPeriodDuration = 3 minutes;\r\n\r\n    votingPeriodDuration = _votingPeriodDuration;\r\n    promulgationPeriodDuration = _promulgationPeriodDuration;\r\n\r\n\r\n    kelsenVersionNumber = 1;\r\n\r\n    }\r\n\r\n    /// Create a new ballot to choose one of `proposalNames`.\r\n    function createProposition(bytes32 _name, bytes32 _ipfsHash, uint8 _hash_function, uint8 _size) public payable returns (uint propositionNumber){\r\n\r\n            // Checking that the proposition is not made on an existing member\r\n            Organ membersOrgan = Organ(membersOrganContract);\r\n            require(membersOrgan.getAddressPositionInNorm(msg.sender) == 0);\r\n            ( ,uint voterNumber) = membersOrgan.organInfos();\r\n            // Check that deposit size is enough\r\n            require(msg.value > minimumDepositSize * voterNumber);\r\n\r\n            // Creating new proposition \r\n            Proposition memory newProposition;\r\n            \r\n            // Calculating required quorum\r\n            newProposition.requiredQuorum = voterNumber*quorumSize/100;\r\n            if (newProposition.requiredQuorum == 0){\r\n                newProposition.requiredQuorum = 1;\r\n            }\r\n            delete membersOrgan;\r\n\r\n            \r\n            newProposition.candidateAddress = msg.sender;\r\n            newProposition.ipfsHash = _ipfsHash;\r\n            newProposition.hash_function = _hash_function;\r\n            newProposition.size = _size;\r\n            newProposition.name = _name;\r\n            newProposition.deposit = msg.value;\r\n\r\n            // Instanciating proposition\r\n\r\n            newProposition.startDate = now;\r\n            newProposition.wasEnacted = false;\r\n            newProposition.wasCounted = false;\r\n            newProposition.wasAccepted = false;\r\n            newProposition.totalVoteCount = 0;\r\n            newProposition.voteFor = 0;\r\n            newProposition.vetoCount = 0;\r\n            newProposition.notVetoCount = 0;\r\n            newProposition.payoutPerUser = 0;\r\n\r\n            // newProposition.voteAgainst = 0;\r\n            propositions.push(newProposition);\r\n            delete newProposition;\r\n\r\n            propositionNumber = propositions.length - 1;\r\n\r\n            // Tracking propositions being deposed\r\n            totalPropositionNumber += 1;\r\n            propositionToUser[msg.sender].push(propositionNumber);\r\n            propositionsWaitingEndOfVote.push(true);\r\n            propositionsWaitingPromulgation.push(false);\r\n\r\n            // proposition creation event\r\n            emit createPropositionEvent(msg.sender, msg.value, _ipfsHash, _hash_function, _size);\r\n\r\n            // Sending deposit to organ\r\n            membersOrganContract.transfer(msg.value);\r\n    }\r\n\r\n    // Vote for a proposition\r\n    function vote(uint _propositionNumber, bool _acceptProposition) public {\r\n\r\n        // Check the voter is able to vote on a proposition\r\n        procedureLibrary.isAllowed(membersOrganContract);\r\n        \r\n        // Check if voter already voted\r\n        require(!propositions[_propositionNumber].hasUserVoted[msg.sender]);\r\n\r\n        // Check if vote is still active\r\n        require(!propositions[_propositionNumber].wasCounted);\r\n\r\n        // Adding vote\r\n        if(_acceptProposition == true)\r\n        {propositions[_propositionNumber].voteFor += 1;}\r\n\r\n        // Log that user voted\r\n        propositions[_propositionNumber].hasUserVoted[msg.sender] = true;\r\n\r\n        // Log what the user voted\r\n        propositions[_propositionNumber].whatHasUserVoted[msg.sender] = _acceptProposition;\r\n        \r\n        // Adding vote count\r\n        propositions[_propositionNumber].totalVoteCount += 1;\r\n\r\n        // Log that user voted on this proposition\r\n        propositionToVoter[msg.sender].push(_propositionNumber);\r\n\r\n        // create vote event\r\n        emit voteOnProposition(msg.sender, _propositionNumber);\r\n    }\r\n\r\n        /// Veto a candidate\r\n    function veto(uint _propositionNumber, bool _acceptProposition) public {\r\n\r\n        // Check if voter already voted\r\n        require(!propositions[_propositionNumber].hasUserVoted[msg.sender]);\r\n\r\n        // Check the voter is able to veto the proposition\r\n        procedureLibrary.isAllowed(membersWithVetoOrganContract);\r\n        \r\n        // Check if vote is still active\r\n        require(!propositions[_propositionNumber].wasCounted);\r\n\r\n        // Log decision\r\n        if (_acceptProposition) {\r\n            propositions[_propositionNumber].notVetoCount += 1;\r\n        }\r\n       else {\r\n            propositions[_propositionNumber].vetoCount += 1;\r\n       }\r\n\r\n       // Log that user voted\r\n        propositions[_propositionNumber].hasUserVoted[msg.sender] = true;\r\n\r\n        // Log what the user voted\r\n        propositions[_propositionNumber].whatHasUserVoted[msg.sender] = _acceptProposition;\r\n\r\n        // Log that user vetoed this proposition\r\n        propositionToVetoer[msg.sender].push(_propositionNumber);\r\n\r\n        //  Create veto event\r\n        emit vetoProposition(msg.sender, _propositionNumber, _acceptProposition);\r\n\r\n    }\r\n\r\n    // The vote is finished and we close it. This does not trigger the outcome of the vote. PromulgateProposition() should be called after\r\n    function endPropositionVote(uint _propositionNumber) public returns (bool hasBeenAccepted) {\r\n        // We check if the vote was already counted\r\n        require(!propositions[_propositionNumber].wasCounted);\r\n\r\n        // Checking that the vote can be closed\r\n        require(propositions[_propositionNumber].startDate + votingPeriodDuration < now);\r\n\r\n        // Checking that the vote received enough votes to be closed\r\n        require((propositions[_propositionNumber].totalVoteCount >= propositions[_propositionNumber].requiredQuorum));\r\n\r\n        // Checking if members with vetoed blocked/forced the proposition\r\n        Organ membersWithVetoOrgan = Organ(membersWithVetoOrganContract);\r\n\r\n        ( ,uint vetoerNumber) = membersWithVetoOrgan.organInfos();\r\n        delete membersWithVetoOrgan;\r\n        // We check that Quorum was obtained and that a majority of votes were cast in favor of the proposition\r\n        if (propositions[_propositionNumber].vetoCount >= vetoerNumber)\r\n            {hasBeenAccepted=false;\r\n                propositions[_propositionNumber].wasEnacted = true;\r\n                propositions[_propositionNumber].payoutPerUser = propositions[_propositionNumber].deposit/(propositions[_propositionNumber].totalVoteCount-propositions[_propositionNumber].voteFor);}\r\n        else if ((propositions[_propositionNumber].notVetoCount >= vetoerNumber) || (propositions[_propositionNumber].voteFor*2 > propositions[_propositionNumber].totalVoteCount) )\r\n            {hasBeenAccepted = true;\r\n            propositions[_propositionNumber].payoutPerUser = propositions[_propositionNumber].deposit/propositions[_propositionNumber].voteFor;}\r\n        else \r\n            {hasBeenAccepted=false;\r\n            propositions[_propositionNumber].wasEnacted = true;\r\n            propositions[_propositionNumber].payoutPerUser = propositions[_propositionNumber].deposit/(propositions[_propositionNumber].totalVoteCount-propositions[_propositionNumber].voteFor);}\r\n\r\n\r\n        // ############## Updating ballot values if vote concluded\r\n        propositions[_propositionNumber].wasCounted = true;\r\n        propositions[_propositionNumber].wasAccepted = hasBeenAccepted;\r\n        propositionsWaitingEndOfVote[_propositionNumber] = false;\r\n        propositionsWaitingPromulgation[_propositionNumber] = true;\r\n\r\n        // Calculating payout per user\r\n\r\n\r\n        emit countVotes(msg.sender, _propositionNumber);\r\n\r\n        return hasBeenAccepted;\r\n    }\r\n\r\n    function promulgateProposition(uint _propositionNumber) public\r\n    {\r\n        // Checking if ballot was already enforced\r\n        require(!propositions[_propositionNumber].wasEnacted );\r\n\r\n        // Checking the ballot was counted\r\n        require(propositions[_propositionNumber].wasCounted);\r\n\r\n        // If promulgation is happening before endOfVote + promulgationPeriodDuration, check caller is an official promulgator\r\n        if (now < propositions[_propositionNumber].startDate + votingPeriodDuration + promulgationPeriodDuration)\r\n            {        \r\n            // Check the voter is able to promulgate the proposition\r\n            procedureLibrary.isAllowed(finalPromulgatorsOrganContract);\r\n            }\r\n\r\n        // Checking the ballot was accepted\r\n        require(propositions[_propositionNumber].wasAccepted);\r\n\r\n        // We initiate the Organ interface to add a norm\r\n\r\n        Organ membersOrgan = Organ(membersOrganContract);\r\n         // Adding a new norm\r\n        membersOrgan.addNorm(propositions[_propositionNumber].candidateAddress, propositions[_propositionNumber].ipfsHash, propositions[_propositionNumber].hash_function, propositions[_propositionNumber].size );\r\n                \r\n            \r\n\r\n        \r\n        propositions[_propositionNumber].wasEnacted = true;\r\n        propositionsWaitingPromulgation[_propositionNumber] = false;\r\n        propositionToPromulgator[msg.sender].push(_propositionNumber);\r\n        // promulgation event\r\n        emit promulgatePropositionEvent(msg.sender, _propositionNumber);\r\n\r\n    }\r\n\r\n     function withDrawPayout(uint _propositionNumber) public {\r\n        // Checking if ballot was already enforced\r\n        require(propositions[_propositionNumber].wasEnacted );\r\n\r\n        // Checking that the user voted, or that he did not already cash out\r\n        require(propositions[_propositionNumber].hasUserVoted[msg.sender] );\r\n\r\n        // Checking that the user voted as the crowd\r\n        require(propositions[_propositionNumber].whatHasUserVoted[msg.sender] == propositions[_propositionNumber].wasAccepted);\r\n\r\n        // Disabling the possibilit to cash out\r\n        propositions[_propositionNumber].hasUserVoted[msg.sender] = false;\r\n\r\n        // Send payment\r\n        Organ membersOrgan = Organ(membersOrganContract);\r\n        membersOrgan.payout(msg.sender, propositions[_propositionNumber].payoutPerUser);\r\n\r\n        // Log event\r\n        emit withdrawal(msg.sender, _propositionNumber, propositions[_propositionNumber].payoutPerUser);\r\n\r\n     }\r\n\r\n        //////////////////////// Functions to communicate with other contracts\r\n    function getPropositionDetails(uint _propositionNumber) public view returns (address _candidateAddress, bytes32 _name, bytes32 _ipfsHash, uint8 _hash_function, uint8 _size){\r\n        return (propositions[_propositionNumber].candidateAddress, propositions[_propositionNumber].name, propositions[_propositionNumber].ipfsHash, propositions[_propositionNumber].hash_function, propositions[_propositionNumber].size);\r\n    }\r\n    function getPropositionDates(uint _propositionNumber) public view returns (uint _startDate, uint _votingPeriodEndDate, uint _promulgatorWindowEndDate){\r\n        return (propositions[_propositionNumber].startDate, propositions[_propositionNumber].startDate + votingPeriodDuration, propositions[_propositionNumber].startDate + votingPeriodDuration + promulgationPeriodDuration);\r\n    }\r\n    function getPropositionStatus(uint _propositionNumber) public view returns (bool _wasCounted, bool _wasEnacted){\r\n        return (propositions[_propositionNumber].wasCounted, propositions[_propositionNumber].wasEnacted);\r\n    }\r\n    function getVotedPropositionResults(uint _propositionNumber) public view returns (uint totalVoters, uint _totalVoteCount, uint _voteFor, uint _vetoCount, uint _notVetoCount, bool _wasAccepted){\r\n        require(propositions[_propositionNumber].wasCounted);\r\n        return (propositions[_propositionNumber].totalVoteCount, propositions[_propositionNumber].totalVoteCount, propositions[_propositionNumber].voteFor, propositions[_propositionNumber].vetoCount, propositions[_propositionNumber].notVetoCount, propositions[_propositionNumber].wasAccepted);\r\n        }\r\n    function getPropositionsCreatedByUser(address _userAddress) public view returns (uint[] memory)\r\n    {return propositionToUser[_userAddress];}    \r\n    function getPropositionsVetoedByUser(address _userAddress) public view returns (uint[] memory)\r\n    {return propositionToVetoer[_userAddress];}  \r\n    function getPropositionsPromulgatedByUser(address _userAddress) public view returns (uint[] memory)\r\n    {return propositionToPromulgator[_userAddress];}  \r\n    function getPropositionsUsedByUser(address _userAddress) public view returns (uint[] memory)\r\n    {return propositionToVoter[_userAddress];}  \r\n    function haveIVoted(uint propositionNumber) public view returns (bool IHaveVoted)\r\n    {return propositions[propositionNumber].hasUserVoted[msg.sender];}\r\n    // function getLinkedOrgans() public view returns (address[] _linkedOrgans)\r\n    // {return linkedOrgans;}\r\n    // function getProcedureName() public view returns (string _procedureName)\r\n    // {return procedureName;}\r\n\r\n\r\n}\r\n\r\n",
  "sourcePath": "C:/Users/hlieutaud/Documents/Workshop/Solidity/solidity-101/contracts/utils/Kelsen/solidity/contracts/procedures/normsCooptationProcedure.sol",
  "compiler": {
    "name": "solc",
    "version": "0.5.4+commit.9549d8ff.Emscripten.clang"
  },
  "schemaVersion": "3.0.10",
  "updatedAt": "2019-10-01T09:02:18.854Z",
  "devdoc": {
    "methods": {}
  },
  "userdoc": {
    "methods": {
      "createProposition(bytes32,bytes32,uint8,uint8)": {
        "notice": "Create a new ballot to choose one of `proposalNames`."
      },
      "getPropositionDetails(uint256)": {
        "notice": "///////////////////// Functions to communicate with other contracts"
      },
      "veto(uint256,bool)": {
        "notice": "Veto a candidate"
      }
    }
  }
}