{
  "contractName": "normsCooptationProcedure",
  "abi": [
    {
      "constant": true,
      "inputs": [
        {
          "name": "",
          "type": "address"
        },
        {
          "name": "",
          "type": "uint256"
        }
      ],
      "name": "propositionToUser",
      "outputs": [
        {
          "name": "",
          "type": "uint256"
        }
      ],
      "payable": false,
      "stateMutability": "view",
      "type": "function"
    },
    {
      "constant": true,
      "inputs": [],
      "name": "procedureTypeNumber",
      "outputs": [
        {
          "name": "",
          "type": "int256"
        }
      ],
      "payable": false,
      "stateMutability": "view",
      "type": "function"
    },
    {
      "constant": true,
      "inputs": [],
      "name": "quorumSize",
      "outputs": [
        {
          "name": "",
          "type": "uint256"
        }
      ],
      "payable": false,
      "stateMutability": "view",
      "type": "function"
    },
    {
      "constant": true,
      "inputs": [
        {
          "name": "",
          "type": "address"
        },
        {
          "name": "",
          "type": "uint256"
        }
      ],
      "name": "propositionToPromulgator",
      "outputs": [
        {
          "name": "",
          "type": "uint256"
        }
      ],
      "payable": false,
      "stateMutability": "view",
      "type": "function"
    },
    {
      "constant": true,
      "inputs": [],
      "name": "kelsenVersionNumber",
      "outputs": [
        {
          "name": "",
          "type": "int256"
        }
      ],
      "payable": false,
      "stateMutability": "view",
      "type": "function"
    },
    {
      "constant": true,
      "inputs": [],
      "name": "membersWithVetoOrganContract",
      "outputs": [
        {
          "name": "",
          "type": "address"
        }
      ],
      "payable": false,
      "stateMutability": "view",
      "type": "function"
    },
    {
      "constant": true,
      "inputs": [
        {
          "name": "",
          "type": "address"
        },
        {
          "name": "",
          "type": "uint256"
        }
      ],
      "name": "propositionToVoter",
      "outputs": [
        {
          "name": "",
          "type": "uint256"
        }
      ],
      "payable": false,
      "stateMutability": "view",
      "type": "function"
    },
    {
      "constant": true,
      "inputs": [],
      "name": "finalPromulgatorsOrganContract",
      "outputs": [
        {
          "name": "",
          "type": "address"
        }
      ],
      "payable": false,
      "stateMutability": "view",
      "type": "function"
    },
    {
      "constant": true,
      "inputs": [],
      "name": "totalPropositionNumber",
      "outputs": [
        {
          "name": "",
          "type": "uint256"
        }
      ],
      "payable": false,
      "stateMutability": "view",
      "type": "function"
    },
    {
      "constant": true,
      "inputs": [],
      "name": "procedureInfo",
      "outputs": [
        {
          "name": "procedureTypeNumber",
          "type": "uint256"
        },
        {
          "name": "procedureName",
          "type": "bytes32"
        },
        {
          "name": "linkedOrgans",
          "type": "uint256"
        }
      ],
      "payable": false,
      "stateMutability": "view",
      "type": "function"
    },
    {
      "constant": true,
      "inputs": [],
      "name": "isAnOrgan",
      "outputs": [
        {
          "name": "",
          "type": "bool"
        }
      ],
      "payable": false,
      "stateMutability": "view",
      "type": "function"
    },
    {
      "constant": true,
      "inputs": [],
      "name": "procedureName",
      "outputs": [
        {
          "name": "",
          "type": "bytes32"
        }
      ],
      "payable": false,
      "stateMutability": "view",
      "type": "function"
    },
    {
      "constant": true,
      "inputs": [],
      "name": "votingPeriodDuration",
      "outputs": [
        {
          "name": "",
          "type": "uint256"
        }
      ],
      "payable": false,
      "stateMutability": "view",
      "type": "function"
    },
    {
      "constant": true,
      "inputs": [],
      "name": "membersOrganContract",
      "outputs": [
        {
          "name": "",
          "type": "address"
        }
      ],
      "payable": false,
      "stateMutability": "view",
      "type": "function"
    },
    {
      "constant": true,
      "inputs": [
        {
          "name": "",
          "type": "uint256"
        }
      ],
      "name": "propositionsWaitingPromulgation",
      "outputs": [
        {
          "name": "",
          "type": "bool"
        }
      ],
      "payable": false,
      "stateMutability": "view",
      "type": "function"
    },
    {
      "constant": true,
      "inputs": [],
      "name": "promulgationPeriodDuration",
      "outputs": [
        {
          "name": "",
          "type": "uint256"
        }
      ],
      "payable": false,
      "stateMutability": "view",
      "type": "function"
    },
    {
      "constant": true,
      "inputs": [
        {
          "name": "",
          "type": "address"
        },
        {
          "name": "",
          "type": "uint256"
        }
      ],
      "name": "propositionToVetoer",
      "outputs": [
        {
          "name": "",
          "type": "uint256"
        }
      ],
      "payable": false,
      "stateMutability": "view",
      "type": "function"
    },
    {
      "constant": true,
      "inputs": [
        {
          "name": "",
          "type": "uint256"
        }
      ],
      "name": "propositionsWaitingEndOfVote",
      "outputs": [
        {
          "name": "",
          "type": "bool"
        }
      ],
      "payable": false,
      "stateMutability": "view",
      "type": "function"
    },
    {
      "constant": true,
      "inputs": [],
      "name": "isAProcedure",
      "outputs": [
        {
          "name": "",
          "type": "bool"
        }
      ],
      "payable": false,
      "stateMutability": "view",
      "type": "function"
    },
    {
      "constant": true,
      "inputs": [
        {
          "name": "",
          "type": "uint256"
        }
      ],
      "name": "linkedOrgans",
      "outputs": [
        {
          "name": "",
          "type": "address"
        }
      ],
      "payable": false,
      "stateMutability": "view",
      "type": "function"
    },
    {
      "inputs": [
        {
          "name": "_membersOrganContract",
          "type": "address"
        },
        {
          "name": "_membersWithVetoOrganContract",
          "type": "address"
        },
        {
          "name": "_finalPromulgatorsOrganContract",
          "type": "address"
        },
        {
          "name": "_quorumSize",
          "type": "uint256"
        },
        {
          "name": "_votingPeriodDuration",
          "type": "uint256"
        },
        {
          "name": "_promulgationPeriodDuration",
          "type": "uint256"
        },
        {
          "name": "_name",
          "type": "bytes32"
        }
      ],
      "payable": false,
      "stateMutability": "nonpayable",
      "type": "constructor"
    },
    {
      "anonymous": false,
      "inputs": [
        {
          "indexed": false,
          "name": "_candidateAddress",
          "type": "address"
        },
        {
          "indexed": false,
          "name": "_deposit",
          "type": "uint256"
        },
        {
          "indexed": false,
          "name": "_ipfsHash",
          "type": "bytes32"
        },
        {
          "indexed": false,
          "name": "_hash_function",
          "type": "uint8"
        },
        {
          "indexed": false,
          "name": "_size",
          "type": "uint8"
        }
      ],
      "name": "createPropositionEvent",
      "type": "event"
    },
    {
      "anonymous": false,
      "inputs": [
        {
          "indexed": false,
          "name": "_from",
          "type": "address"
        },
        {
          "indexed": false,
          "name": "_propositionNumber",
          "type": "uint256"
        }
      ],
      "name": "voteOnProposition",
      "type": "event"
    },
    {
      "anonymous": false,
      "inputs": [
        {
          "indexed": false,
          "name": "_from",
          "type": "address"
        },
        {
          "indexed": false,
          "name": "_propositionNumber",
          "type": "uint256"
        },
        {
          "indexed": false,
          "name": "_decision",
          "type": "bool"
        }
      ],
      "name": "vetoProposition",
      "type": "event"
    },
    {
      "anonymous": false,
      "inputs": [
        {
          "indexed": false,
          "name": "_from",
          "type": "address"
        },
        {
          "indexed": false,
          "name": "_propositionNumber",
          "type": "uint256"
        }
      ],
      "name": "countVotes",
      "type": "event"
    },
    {
      "anonymous": false,
      "inputs": [
        {
          "indexed": false,
          "name": "_from",
          "type": "address"
        },
        {
          "indexed": false,
          "name": "_propositionNumber",
          "type": "uint256"
        }
      ],
      "name": "promulgatePropositionEvent",
      "type": "event"
    },
    {
      "anonymous": false,
      "inputs": [
        {
          "indexed": false,
          "name": "_from",
          "type": "address"
        },
        {
          "indexed": false,
          "name": "_propositionNumber",
          "type": "uint256"
        },
        {
          "indexed": false,
          "name": "_value",
          "type": "uint256"
        }
      ],
      "name": "withdrawal",
      "type": "event"
    },
    {
      "constant": false,
      "inputs": [
        {
          "name": "_name",
          "type": "bytes32"
        },
        {
          "name": "_ipfsHash",
          "type": "bytes32"
        },
        {
          "name": "_hash_function",
          "type": "uint8"
        },
        {
          "name": "_size",
          "type": "uint8"
        }
      ],
      "name": "createProposition",
      "outputs": [
        {
          "name": "propositionNumber",
          "type": "uint256"
        }
      ],
      "payable": true,
      "stateMutability": "payable",
      "type": "function"
    },
    {
      "constant": false,
      "inputs": [
        {
          "name": "_propositionNumber",
          "type": "uint256"
        },
        {
          "name": "_acceptProposition",
          "type": "bool"
        }
      ],
      "name": "vote",
      "outputs": [],
      "payable": false,
      "stateMutability": "nonpayable",
      "type": "function"
    },
    {
      "constant": false,
      "inputs": [
        {
          "name": "_propositionNumber",
          "type": "uint256"
        },
        {
          "name": "_acceptProposition",
          "type": "bool"
        }
      ],
      "name": "veto",
      "outputs": [],
      "payable": false,
      "stateMutability": "nonpayable",
      "type": "function"
    },
    {
      "constant": false,
      "inputs": [
        {
          "name": "_propositionNumber",
          "type": "uint256"
        }
      ],
      "name": "endPropositionVote",
      "outputs": [
        {
          "name": "hasBeenAccepted",
          "type": "bool"
        }
      ],
      "payable": false,
      "stateMutability": "nonpayable",
      "type": "function"
    },
    {
      "constant": false,
      "inputs": [
        {
          "name": "_propositionNumber",
          "type": "uint256"
        }
      ],
      "name": "promulgateProposition",
      "outputs": [],
      "payable": false,
      "stateMutability": "nonpayable",
      "type": "function"
    },
    {
      "constant": false,
      "inputs": [
        {
          "name": "_propositionNumber",
          "type": "uint256"
        }
      ],
      "name": "withDrawPayout",
      "outputs": [],
      "payable": false,
      "stateMutability": "nonpayable",
      "type": "function"
    },
    {
      "constant": true,
      "inputs": [
        {
          "name": "_propositionNumber",
          "type": "uint256"
        }
      ],
      "name": "getPropositionDetails",
      "outputs": [
        {
          "name": "_candidateAddress",
          "type": "address"
        },
        {
          "name": "_name",
          "type": "bytes32"
        },
        {
          "name": "_ipfsHash",
          "type": "bytes32"
        },
        {
          "name": "_hash_function",
          "type": "uint8"
        },
        {
          "name": "_size",
          "type": "uint8"
        }
      ],
      "payable": false,
      "stateMutability": "view",
      "type": "function"
    },
    {
      "constant": true,
      "inputs": [
        {
          "name": "_propositionNumber",
          "type": "uint256"
        }
      ],
      "name": "getPropositionDates",
      "outputs": [
        {
          "name": "_startDate",
          "type": "uint256"
        },
        {
          "name": "_votingPeriodEndDate",
          "type": "uint256"
        },
        {
          "name": "_promulgatorWindowEndDate",
          "type": "uint256"
        }
      ],
      "payable": false,
      "stateMutability": "view",
      "type": "function"
    },
    {
      "constant": true,
      "inputs": [
        {
          "name": "_propositionNumber",
          "type": "uint256"
        }
      ],
      "name": "getPropositionStatus",
      "outputs": [
        {
          "name": "_wasCounted",
          "type": "bool"
        },
        {
          "name": "_wasEnacted",
          "type": "bool"
        }
      ],
      "payable": false,
      "stateMutability": "view",
      "type": "function"
    },
    {
      "constant": true,
      "inputs": [
        {
          "name": "_propositionNumber",
          "type": "uint256"
        }
      ],
      "name": "getVotedPropositionResults",
      "outputs": [
        {
          "name": "totalVoters",
          "type": "uint256"
        },
        {
          "name": "_totalVoteCount",
          "type": "uint256"
        },
        {
          "name": "_voteFor",
          "type": "uint256"
        },
        {
          "name": "_vetoCount",
          "type": "uint256"
        },
        {
          "name": "_notVetoCount",
          "type": "uint256"
        },
        {
          "name": "_wasAccepted",
          "type": "bool"
        }
      ],
      "payable": false,
      "stateMutability": "view",
      "type": "function"
    },
    {
      "constant": true,
      "inputs": [
        {
          "name": "_userAddress",
          "type": "address"
        }
      ],
      "name": "getPropositionsCreatedByUser",
      "outputs": [
        {
          "name": "",
          "type": "uint256[]"
        }
      ],
      "payable": false,
      "stateMutability": "view",
      "type": "function"
    },
    {
      "constant": true,
      "inputs": [
        {
          "name": "_userAddress",
          "type": "address"
        }
      ],
      "name": "getPropositionsVetoedByUser",
      "outputs": [
        {
          "name": "",
          "type": "uint256[]"
        }
      ],
      "payable": false,
      "stateMutability": "view",
      "type": "function"
    },
    {
      "constant": true,
      "inputs": [
        {
          "name": "_userAddress",
          "type": "address"
        }
      ],
      "name": "getPropositionsPromulgatedByUser",
      "outputs": [
        {
          "name": "",
          "type": "uint256[]"
        }
      ],
      "payable": false,
      "stateMutability": "view",
      "type": "function"
    },
    {
      "constant": true,
      "inputs": [
        {
          "name": "_userAddress",
          "type": "address"
        }
      ],
      "name": "getPropositionsUsedByUser",
      "outputs": [
        {
          "name": "",
          "type": "uint256[]"
        }
      ],
      "payable": false,
      "stateMutability": "view",
      "type": "function"
    },
    {
      "constant": true,
      "inputs": [
        {
          "name": "propositionNumber",
          "type": "uint256"
        }
      ],
      "name": "haveIVoted",
      "outputs": [
        {
          "name": "IHaveVoted",
          "type": "bool"
        }
      ],
      "payable": false,
      "stateMutability": "view",
      "type": "function"
    }
  ],
  "bytecode": "0x608060405260026000556000600560006101000a81548160ff0219169083151502179055506001600560016101000a81548160ff02191690831515021790555060076006553480156200005157600080fd5b5060405160e0806200357f833981018060405260e08110156200007357600080fd5b810190808051906020019092919080519060200190929190805190602001909291908051906020019092919080519060200190929190805190602001909291908051906020019092919050505086600760006101000a81548173ffffffffffffffffffffffffffffffffffffffff021916908373ffffffffffffffffffffffffffffffffffffffff16021790555085600860006101000a81548173ffffffffffffffffffffffffffffffffffffffff021916908373ffffffffffffffffffffffffffffffffffffffff16021790555084600960006101000a81548173ffffffffffffffffffffffffffffffffffffffff021916908373ffffffffffffffffffffffffffffffffffffffff160217905550606060405190810160405280600960009054906101000a900473ffffffffffffffffffffffffffffffffffffffff1673ffffffffffffffffffffffffffffffffffffffff1673ffffffffffffffffffffffffffffffffffffffff168152602001600860009054906101000a900473ffffffffffffffffffffffffffffffffffffffff1673ffffffffffffffffffffffffffffffffffffffff1673ffffffffffffffffffffffffffffffffffffffff168152602001600760009054906101000a900473ffffffffffffffffffffffffffffffffffffffff1673ffffffffffffffffffffffffffffffffffffffff1673ffffffffffffffffffffffffffffffffffffffff1681525060109060036200029b929190620002d6565b5080600f8190555083600d819055506103e8600a8190555082600b8190555081600c81905550600160008190555050505050505050620003ab565b82805482825590600052602060002090810192821562000352579160200282015b82811115620003515782518260006101000a81548173ffffffffffffffffffffffffffffffffffffffff021916908373ffffffffffffffffffffffffffffffffffffffff16021790555091602001919060010190620002f7565b5b50905062000361919062000365565b5090565b620003a891905b80821115620003a457600081816101000a81549073ffffffffffffffffffffffffffffffffffffffff0219169055506001016200036c565b5090565b90565b6131c480620003bb6000396000f3fe6080604052600436106101b7576000357c0100000000000000000000000000000000000000000000000000000000900463ffffffff1680630366af3d146101bc57806305cf00571461021a57806307e7a224146102c05780630b2e34b0146103665780632647d7f9146103d55780633068ef4d1461040057806337443feb1461042b5780633c0848ee146104ce5780635332eea1146105745780635ac85212146105e35780635b9d73451461061e5780635dbe4d28146106595780635e8b72441461068457806364cdd61e146106cb5780636a95d38d1461072257806375ff60c414610798578063880d3f5414610807578063896789301461085e5780638f3b07a4146108c45780639397942e146108ef578063a8bef97a14610928578063ac37af1c14610957578063adb4018b146109aa578063b5fdb88e146109d5578063b945d9e714610a00578063c9d27afe14610a57578063cb20a2fd14610a9e578063cd43eb1f14610b44578063cd87c2b614610b97578063ce88840314610bc2578063d858849414610c1f578063e09ecb8714610c8e578063e36f6e4e14610ce1578063e80b30a514610d34578063f2edc61614610d63575b600080fd5b3480156101c857600080fd5b506101f5600480360360208110156101df57600080fd5b8101908080359060200190929190505050610dde565b6040518083151515158152602001821515151581526020019250505060405180910390f35b34801561022657600080fd5b506102696004803603602081101561023d57600080fd5b81019080803573ffffffffffffffffffffffffffffffffffffffff169060200190929190505050610e46565b6040518080602001828103825283818151815260200191508051906020019060200280838360005b838110156102ac578082015181840152602081019050610291565b505050509050019250505060405180910390f35b3480156102cc57600080fd5b5061030f600480360360208110156102e357600080fd5b81019080803573ffffffffffffffffffffffffffffffffffffffff169060200190929190505050610edd565b6040518080602001828103825283818151815260200191508051906020019060200280838360005b83811015610352578082015181840152602081019050610337565b505050509050019250505060405180910390f35b34801561037257600080fd5b506103bf6004803603604081101561038957600080fd5b81019080803573ffffffffffffffffffffffffffffffffffffffff16906020019092919080359060200190929190505050610f74565b6040518082815260200191505060405180910390f35b3480156103e157600080fd5b506103ea610fa4565b6040518082815260200191505060405180910390f35b34801561040c57600080fd5b50610415610faa565b6040518082815260200191505060405180910390f35b34801561043757600080fd5b506104646004803603602081101561044e57600080fd5b8101908080359060200190929190505050610fb0565b604051808673ffffffffffffffffffffffffffffffffffffffff1673ffffffffffffffffffffffffffffffffffffffff1681526020018581526020018481526020018360ff1660ff1681526020018260ff1660ff1681526020019550505050505060405180910390f35b3480156104da57600080fd5b5061051d600480360360208110156104f157600080fd5b81019080803573ffffffffffffffffffffffffffffffffffffffff1690602001909291905050506110ad565b6040518080602001828103825283818151815260200191508051906020019060200280838360005b83811015610560578082015181840152602081019050610545565b505050509050019250505060405180910390f35b34801561058057600080fd5b506105cd6004803603604081101561059757600080fd5b81019080803573ffffffffffffffffffffffffffffffffffffffff16906020019092919080359060200190929190505050611144565b6040518082815260200191505060405180910390f35b3480156105ef57600080fd5b5061061c6004803603602081101561060657600080fd5b8101908080359060200190929190505050611174565b005b34801561062a57600080fd5b506106576004803603602081101561064157600080fd5b81019080803590602001909291905050506114db565b005b34801561066557600080fd5b5061066e61190a565b6040518082815260200191505060405180910390f35b34801561069057600080fd5b506106c9600480360360408110156106a757600080fd5b8101908080359060200190929190803515159060200190929190505050611910565b005b3480156106d757600080fd5b506106e0611c25565b604051808273ffffffffffffffffffffffffffffffffffffffff1673ffffffffffffffffffffffffffffffffffffffff16815260200191505060405180910390f35b34801561072e57600080fd5b5061075b6004803603602081101561074557600080fd5b8101908080359060200190929190505050611c4b565b6040518087815260200186815260200185815260200184815260200183815260200182151515158152602001965050505050505060405180910390f35b3480156107a457600080fd5b506107f1600480360360408110156107bb57600080fd5b81019080803573ffffffffffffffffffffffffffffffffffffffff16906020019092919080359060200190929190505050611d75565b6040518082815260200191505060405180910390f35b34801561081357600080fd5b5061081c611da5565b604051808273ffffffffffffffffffffffffffffffffffffffff1673ffffffffffffffffffffffffffffffffffffffff16815260200191505060405180910390f35b6108ae6004803603608081101561087457600080fd5b810190808035906020019092919080359060200190929190803560ff169060200190929190803560ff169060200190929190505050611dcb565b6040518082815260200191505060405180910390f35b3480156108d057600080fd5b506108d9612471565b6040518082815260200191505060405180910390f35b3480156108fb57600080fd5b50610904612477565b60405180848152602001838152602001828152602001935050505060405180910390f35b34801561093457600080fd5b5061093d61248f565b604051808215151515815260200191505060405180910390f35b34801561096357600080fd5b506109906004803603602081101561097a57600080fd5b81019080803590602001909291905050506124a2565b604051808215151515815260200191505060405180910390f35b3480156109b657600080fd5b506109bf612516565b6040518082815260200191505060405180910390f35b3480156109e157600080fd5b506109ea61251c565b6040518082815260200191505060405180910390f35b348015610a0c57600080fd5b50610a15612522565b604051808273ffffffffffffffffffffffffffffffffffffffff1673ffffffffffffffffffffffffffffffffffffffff16815260200191505060405180910390f35b348015610a6357600080fd5b50610a9c60048036036040811015610a7a57600080fd5b8101908080359060200190929190803515159060200190929190505050612548565b005b348015610aaa57600080fd5b50610aed60048036036020811015610ac157600080fd5b81019080803573ffffffffffffffffffffffffffffffffffffffff169060200190929190505050612853565b6040518080602001828103825283818151815260200191508051906020019060200280838360005b83811015610b30578082015181840152602081019050610b15565b505050509050019250505060405180910390f35b348015610b5057600080fd5b50610b7d60048036036020811015610b6757600080fd5b81019080803590602001909291905050506128ea565b604051808215151515815260200191505060405180910390f35b348015610ba357600080fd5b50610bac61291d565b6040518082815260200191505060405180910390f35b348015610bce57600080fd5b50610bfb60048036036020811015610be557600080fd5b8101908080359060200190929190505050612923565b60405180848152602001838152602001828152602001935050505060405180910390f35b348015610c2b57600080fd5b50610c7860048036036040811015610c4257600080fd5b81019080803573ffffffffffffffffffffffffffffffffffffffff169060200190929190803590602001909291905050506129a4565b6040518082815260200191505060405180910390f35b348015610c9a57600080fd5b50610cc760048036036020811015610cb157600080fd5b81019080803590602001909291905050506129d4565b604051808215151515815260200191505060405180910390f35b348015610ced57600080fd5b50610d1a60048036036020811015610d0457600080fd5b8101908080359060200190929190505050612f7e565b604051808215151515815260200191505060405180910390f35b348015610d4057600080fd5b50610d49612fb1565b604051808215151515815260200191505060405180910390f35b348015610d6f57600080fd5b50610d9c60048036036020811015610d8657600080fd5b8101908080359060200190929190505050612fc4565b604051808273ffffffffffffffffffffffffffffffffffffffff1673ffffffffffffffffffffffffffffffffffffffff16815260200191505060405180910390f35b600080601183815481101515610df057fe5b90600052602060002090600f020160030160019054906101000a900460ff16601184815481101515610e1e57fe5b90600052602060002090600f020160030160029054906101000a900460ff1691509150915091565b6060601560008373ffffffffffffffffffffffffffffffffffffffff1673ffffffffffffffffffffffffffffffffffffffff168152602001908152602001600020805480602002602001604051908101604052809291908181526020018280548015610ed157602002820191906000526020600020905b815481526020019060010190808311610ebd575b50505050509050919050565b6060601760008373ffffffffffffffffffffffffffffffffffffffff1673ffffffffffffffffffffffffffffffffffffffff168152602001908152602001600020805480602002602001604051908101604052809291908181526020018280548015610f6857602002820191906000526020600020905b815481526020019060010190808311610f54575b50505050509050919050565b601460205281600052604060002081815481101515610f8f57fe5b90600052602060002001600091509150505481565b60065481565b600d5481565b6000806000806000601186815481101515610fc757fe5b90600052602060002090600f020160090160009054906101000a900473ffffffffffffffffffffffffffffffffffffffff1660118781548110151561100857fe5b90600052602060002090600f0201600a015460118881548110151561102957fe5b90600052602060002090600f0201600b015460118981548110151561104a57fe5b90600052602060002090600f0201600c0160009054906101000a900460ff1660118a81548110151561107857fe5b90600052602060002090600f0201600c0160019054906101000a900460ff168494509450945094509450945091939590929450565b6060601660008373ffffffffffffffffffffffffffffffffffffffff1673ffffffffffffffffffffffffffffffffffffffff16815260200190815260200160002080548060200260200160405190810160405280929190818152602001828054801561113857602002820191906000526020600020905b815481526020019060010190808311611124575b50505050509050919050565b60176020528160005260406000208181548110151561115f57fe5b90600052602060002001600091509150505481565b60118181548110151561118357fe5b90600052602060002090600f020160030160029054906101000a900460ff1615156111ad57600080fd5b6011818154811015156111bc57fe5b90600052602060002090600f020160000160003373ffffffffffffffffffffffffffffffffffffffff1673ffffffffffffffffffffffffffffffffffffffff16815260200190815260200160002060009054906101000a900460ff16151561122357600080fd5b60118181548110151561123257fe5b90600052602060002090600f020160030160009054906101000a900460ff16151560118281548110151561126257fe5b90600052602060002090600f020160010160003373ffffffffffffffffffffffffffffffffffffffff1673ffffffffffffffffffffffffffffffffffffffff16815260200190815260200160002060009054906101000a900460ff1615151415156112cc57600080fd5b60006011828154811015156112dd57fe5b90600052602060002090600f020160000160003373ffffffffffffffffffffffffffffffffffffffff1673ffffffffffffffffffffffffffffffffffffffff16815260200190815260200160002060006101000a81548160ff0219169083151502179055506000600760009054906101000a900473ffffffffffffffffffffffffffffffffffffffff1690508073ffffffffffffffffffffffffffffffffffffffff1663117de2fd3360118581548110151561139557fe5b90600052602060002090600f0201600e01546040518363ffffffff167c0100000000000000000000000000000000000000000000000000000000028152600401808373ffffffffffffffffffffffffffffffffffffffff1673ffffffffffffffffffffffffffffffffffffffff16815260200182815260200192505050600060405180830381600087803b15801561142c57600080fd5b505af1158015611440573d6000803e3d6000fd5b505050507f2e4d3189c330c7bfcce65176d6c0b1b49698fd9638f1dbba37a5bfb7e55a2833338360118581548110151561147657fe5b90600052602060002090600f0201600e0154604051808473ffffffffffffffffffffffffffffffffffffffff1673ffffffffffffffffffffffffffffffffffffffff168152602001838152602001828152602001935050505060405180910390a15050565b6011818154811015156114ea57fe5b90600052602060002090600f020160030160029054906101000a900460ff1615151561151557600080fd5b60118181548110151561152457fe5b90600052602060002090600f020160030160019054906101000a900460ff16151561154e57600080fd5b600c54600b5460118381548110151561156357fe5b90600052602060002090600f02016002015401014210156115aa576115a9600960009054906101000a900473ffffffffffffffffffffffffffffffffffffffff16613002565b5b6011818154811015156115b957fe5b90600052602060002090600f020160030160009054906101000a900460ff1615156115e357600080fd5b6000600760009054906101000a900473ffffffffffffffffffffffffffffffffffffffff1690508073ffffffffffffffffffffffffffffffffffffffff1663a08c3cb560118481548110151561163557fe5b90600052602060002090600f020160090160009054906101000a900473ffffffffffffffffffffffffffffffffffffffff1660118581548110151561167657fe5b90600052602060002090600f0201600b015460118681548110151561169757fe5b90600052602060002090600f0201600c0160009054906101000a900460ff166011878154811015156116c557fe5b90600052602060002090600f0201600c0160019054906101000a900460ff166040518563ffffffff167c0100000000000000000000000000000000000000000000000000000000028152600401808573ffffffffffffffffffffffffffffffffffffffff1673ffffffffffffffffffffffffffffffffffffffff1681526020018481526020018360ff1660ff1681526020018260ff1660ff168152602001945050505050602060405180830381600087803b15801561178357600080fd5b505af1158015611797573d6000803e3d6000fd5b505050506040513d60208110156117ad57600080fd5b81019080805190602001909291905050505060016011838154811015156117d057fe5b90600052602060002090600f020160030160026101000a81548160ff021916908315150217905550600060138381548110151561180957fe5b90600052602060002090602091828204019190066101000a81548160ff021916908315150217905550601760003373ffffffffffffffffffffffffffffffffffffffff1673ffffffffffffffffffffffffffffffffffffffff1681526020019081526020016000208290806001815401808255809150509060018203906000526020600020016000909192909190915055507f6488668a970b37da2333b4e2f299369ec2545de1cb7772a523818f23e0e5f8b43383604051808373ffffffffffffffffffffffffffffffffffffffff1673ffffffffffffffffffffffffffffffffffffffff1681526020018281526020019250505060405180910390a15050565b60005481565b60118281548110151561191f57fe5b90600052602060002090600f020160000160003373ffffffffffffffffffffffffffffffffffffffff1673ffffffffffffffffffffffffffffffffffffffff16815260200190815260200160002060009054906101000a900460ff1615151561198757600080fd5b6119b2600860009054906101000a900473ffffffffffffffffffffffffffffffffffffffff16613002565b6011828154811015156119c157fe5b90600052602060002090600f020160030160019054906101000a900460ff161515156119ec57600080fd5b8015611a26576001601183815481101515611a0357fe5b90600052602060002090600f020160070160008282540192505081905550611a56565b6001601183815481101515611a3757fe5b90600052602060002090600f0201600601600082825401925050819055505b6001601183815481101515611a6757fe5b90600052602060002090600f020160000160003373ffffffffffffffffffffffffffffffffffffffff1673ffffffffffffffffffffffffffffffffffffffff16815260200190815260200160002060006101000a81548160ff02191690831515021790555080601183815481101515611adc57fe5b90600052602060002090600f020160010160003373ffffffffffffffffffffffffffffffffffffffff1673ffffffffffffffffffffffffffffffffffffffff16815260200190815260200160002060006101000a81548160ff021916908315150217905550601660003373ffffffffffffffffffffffffffffffffffffffff1673ffffffffffffffffffffffffffffffffffffffff1681526020019081526020016000208290806001815401808255809150509060018203906000526020600020016000909192909190915055507f784f91034367c5f65754729da97be44b2d8e37d9ccfd9f568442de3a84f3fe1f338383604051808473ffffffffffffffffffffffffffffffffffffffff1673ffffffffffffffffffffffffffffffffffffffff16815260200183815260200182151515158152602001935050505060405180910390a15050565b600860009054906101000a900473ffffffffffffffffffffffffffffffffffffffff1681565b600080600080600080601187815481101515611c6357fe5b90600052602060002090600f020160030160019054906101000a900460ff161515611c8d57600080fd5b601187815481101515611c9c57fe5b90600052602060002090600f020160050154601188815481101515611cbd57fe5b90600052602060002090600f020160050154601189815481101515611cde57fe5b90600052602060002090600f02016004015460118a815481101515611cff57fe5b90600052602060002090600f02016006015460118b815481101515611d2057fe5b90600052602060002090600f02016007015460118c815481101515611d4157fe5b90600052602060002090600f020160030160009054906101000a900460ff1695509550955095509550955091939550919395565b601560205281600052604060002081815481101515611d9057fe5b90600052602060002001600091509150505481565b600960009054906101000a900473ffffffffffffffffffffffffffffffffffffffff1681565b600080600760009054906101000a900473ffffffffffffffffffffffffffffffffffffffff16905060008173ffffffffffffffffffffffffffffffffffffffff16635549ea51336040518263ffffffff167c0100000000000000000000000000000000000000000000000000000000028152600401808273ffffffffffffffffffffffffffffffffffffffff1673ffffffffffffffffffffffffffffffffffffffff16815260200191505060206040518083038186803b158015611e8e57600080fd5b505afa158015611ea2573d6000803e3d6000fd5b505050506040513d6020811015611eb857600080fd5b8101908080519060200190929190505050141515611ed557600080fd5b60008173ffffffffffffffffffffffffffffffffffffffff1663bbea06196040518163ffffffff167c0100000000000000000000000000000000000000000000000000000000028152600401604080518083038186803b158015611f3857600080fd5b505afa158015611f4c573d6000803e3d6000fd5b505050506040513d6040811015611f6257600080fd5b81019080805190602001909291908051906020019092919050505091505080600a540234111515611f9257600080fd5b611f9a6130f2565b6064600d548302811515611faa57fe5b048161010001818152505060008161010001511415611fd0576001816101000181815250505b600092503381610120019073ffffffffffffffffffffffffffffffffffffffff16908173ffffffffffffffffffffffffffffffffffffffff168152505086816101600181815250508581610180019060ff16908160ff168152505084816101a0019060ff16908160ff1681525050878161014001818152505034816101c00181815250504281600001818152505060008160600190151590811515815250506000816040019015159081151581525050600081602001901515908115158152505060008160a0018181525050600081608001818152505060008160c001818152505060008160e00181815250506000816101e00181815250506011819080600181540180825580915050906001820390600052602060002090600f0201600090919290919091506000820151816002015560208201518160030160006101000a81548160ff02191690831515021790555060408201518160030160016101000a81548160ff02191690831515021790555060608201518160030160026101000a81548160ff0219169083151502179055506080820151816004015560a0820151816005015560c0820151816006015560e0820151816007015561010082015181600801556101208201518160090160006101000a81548173ffffffffffffffffffffffffffffffffffffffff021916908373ffffffffffffffffffffffffffffffffffffffff16021790555061014082015181600a015561016082015181600b015561018082015181600c0160006101000a81548160ff021916908360ff1602179055506101a082015181600c0160016101000a81548160ff021916908360ff1602179055506101c082015181600d01556101e082015181600e01555050506122576130f2565b905060016011805490500393506001600e60008282540192505081905550601460003373ffffffffffffffffffffffffffffffffffffffff1673ffffffffffffffffffffffffffffffffffffffff16815260200190815260200160002084908060018154018082558091505090600182039060005260206000200160009091929091909150555060126001908060018154018082558091505090600182039060005260206000209060209182820401919006909192909190916101000a81548160ff0219169083151502179055505060136000908060018154018082558091505090600182039060005260206000209060209182820401919006909192909190916101000a81548160ff021916908315150217905550507f362fe28119932e029adb55bc2d8adcd4902c1f751a356d510fc4492728b1112d3334898989604051808673ffffffffffffffffffffffffffffffffffffffff1673ffffffffffffffffffffffffffffffffffffffff1681526020018581526020018481526020018360ff1660ff1681526020018260ff1660ff1681526020019550505050505060405180910390a1600760009054906101000a900473ffffffffffffffffffffffffffffffffffffffff1673ffffffffffffffffffffffffffffffffffffffff166108fc349081150290604051600060405180830381858888f19350505050158015612465573d6000803e3d6000fd5b50505050949350505050565b600e5481565b60028060000154908060010154908060020154905083565b600560009054906101000a900460ff1681565b60006011828154811015156124b357fe5b90600052602060002090600f020160000160003373ffffffffffffffffffffffffffffffffffffffff1673ffffffffffffffffffffffffffffffffffffffff16815260200190815260200160002060009054906101000a900460ff169050919050565b600f5481565b600b5481565b600760009054906101000a900473ffffffffffffffffffffffffffffffffffffffff1681565b612573600760009054906101000a900473ffffffffffffffffffffffffffffffffffffffff16613002565b60118281548110151561258257fe5b90600052602060002090600f020160000160003373ffffffffffffffffffffffffffffffffffffffff1673ffffffffffffffffffffffffffffffffffffffff16815260200190815260200160002060009054906101000a900460ff161515156125ea57600080fd5b6011828154811015156125f957fe5b90600052602060002090600f020160030160019054906101000a900460ff1615151561262457600080fd5b60011515811515141561266157600160118381548110151561264257fe5b90600052602060002090600f0201600401600082825401925050819055505b600160118381548110151561267257fe5b90600052602060002090600f020160000160003373ffffffffffffffffffffffffffffffffffffffff1673ffffffffffffffffffffffffffffffffffffffff16815260200190815260200160002060006101000a81548160ff021916908315150217905550806011838154811015156126e757fe5b90600052602060002090600f020160010160003373ffffffffffffffffffffffffffffffffffffffff1673ffffffffffffffffffffffffffffffffffffffff16815260200190815260200160002060006101000a81548160ff021916908315150217905550600160118381548110151561275d57fe5b90600052602060002090600f020160050160008282540192505081905550601560003373ffffffffffffffffffffffffffffffffffffffff1673ffffffffffffffffffffffffffffffffffffffff1681526020019081526020016000208290806001815401808255809150509060018203906000526020600020016000909192909190915055507fd1faddd599b0d6b58c83de71d7ff5395895b5891894dcd37f2482f33b2a1c43d3383604051808373ffffffffffffffffffffffffffffffffffffffff1673ffffffffffffffffffffffffffffffffffffffff1681526020018281526020019250505060405180910390a15050565b6060601460008373ffffffffffffffffffffffffffffffffffffffff1673ffffffffffffffffffffffffffffffffffffffff1681526020019081526020016000208054806020026020016040519081016040528092919081815260200182805480156128de57602002820191906000526020600020905b8154815260200190600101908083116128ca575b50505050509050919050565b6013818154811015156128f957fe5b9060005260206000209060209182820401919006915054906101000a900460ff1681565b600c5481565b600080600060118481548110151561293757fe5b90600052602060002090600f020160020154600b5460118681548110151561295b57fe5b90600052602060002090600f02016002015401600c54600b5460118881548110151561298357fe5b90600052602060002090600f02016002015401019250925092509193909250565b6016602052816000526040600020818154811015156129bf57fe5b90600052602060002001600091509150505481565b60006011828154811015156129e557fe5b90600052602060002090600f020160030160019054906101000a900460ff16151515612a1057600080fd5b42600b54601184815481101515612a2357fe5b90600052602060002090600f02016002015401101515612a4257600080fd5b601182815481101515612a5157fe5b90600052602060002090600f020160080154601183815481101515612a7257fe5b90600052602060002090600f02016005015410151515612a9157600080fd5b6000600860009054906101000a900473ffffffffffffffffffffffffffffffffffffffff16905060008173ffffffffffffffffffffffffffffffffffffffff1663bbea06196040518163ffffffff167c0100000000000000000000000000000000000000000000000000000000028152600401604080518083038186803b158015612b1b57600080fd5b505afa158015612b2f573d6000803e3d6000fd5b505050506040513d6040811015612b4557600080fd5b8101908080519060200190929190805190602001909291905050509150506000915080601185815481101515612b7757fe5b90600052602060002090600f020160060154101515612c6457600092506001601185815481101515612ba557fe5b90600052602060002090600f020160030160026101000a81548160ff021916908315150217905550601184815481101515612bdc57fe5b90600052602060002090600f020160040154601185815481101515612bfd57fe5b90600052602060002090600f02016005015403601185815481101515612c1f57fe5b90600052602060002090600f0201600d0154811515612c3a57fe5b04601185815481101515612c4a57fe5b90600052602060002090600f0201600e0181905550612e24565b80601185815481101515612c7457fe5b90600052602060002090600f020160070154101580612cd55750601184815481101515612c9d57fe5b90600052602060002090600f0201600501546002601186815481101515612cc057fe5b90600052602060002090600f02016004015402115b15612d535760019250601184815481101515612ced57fe5b90600052602060002090600f020160040154601185815481101515612d0e57fe5b90600052602060002090600f0201600d0154811515612d2957fe5b04601185815481101515612d3957fe5b90600052602060002090600f0201600e0181905550612e23565b600092506001601185815481101515612d6857fe5b90600052602060002090600f020160030160026101000a81548160ff021916908315150217905550601184815481101515612d9f57fe5b90600052602060002090600f020160040154601185815481101515612dc057fe5b90600052602060002090600f02016005015403601185815481101515612de257fe5b90600052602060002090600f0201600d0154811515612dfd57fe5b04601185815481101515612e0d57fe5b90600052602060002090600f0201600e01819055505b5b6001601185815481101515612e3557fe5b90600052602060002090600f020160030160016101000a81548160ff02191690831515021790555082601185815481101515612e6d57fe5b90600052602060002090600f020160030160006101000a81548160ff0219169083151502179055506000601285815481101515612ea657fe5b90600052602060002090602091828204019190066101000a81548160ff0219169083151502179055506001601385815481101515612ee057fe5b90600052602060002090602091828204019190066101000a81548160ff0219169083151502179055507f297f1f08d2ef8c90272f7ee3e1d4272015a96cdff8a252b60547b9e432e723603385604051808373ffffffffffffffffffffffffffffffffffffffff1673ffffffffffffffffffffffffffffffffffffffff1681526020018281526020019250505060405180910390a18292505050919050565b601281815481101515612f8d57fe5b9060005260206000209060209182820401919006915054906101000a900460ff1681565b600560019054906101000a900460ff1681565b601081815481101515612fd357fe5b906000526020600020016000915054906101000a900473ffffffffffffffffffffffffffffffffffffffff1681565b600081905060008173ffffffffffffffffffffffffffffffffffffffff16635549ea51336040518263ffffffff167c0100000000000000000000000000000000000000000000000000000000028152600401808273ffffffffffffffffffffffffffffffffffffffff1673ffffffffffffffffffffffffffffffffffffffff16815260200191505060206040518083038186803b1580156130a257600080fd5b505afa1580156130b6573d6000803e3d6000fd5b505050506040513d60208110156130cc57600080fd5b8101908080519060200190929190505050141515156130ea57600080fd5b600091505050565b61020060405190810160405280600081526020016000151581526020016000151581526020016000151581526020016000815260200160008152602001600081526020016000815260200160008152602001600073ffffffffffffffffffffffffffffffffffffffff1681526020016000801916815260200160008019168152602001600060ff168152602001600060ff1681526020016000815260200160008152509056fea165627a7a7230582051639ffc721aa1a8207c9c772fa122b3105ac8bfc063ad2fe9dbf14ee58c768e0029",
  "source": "pragma solidity >=0.4.22 <0.6.0;\n\n// Standard contract for promulgation of a norm\n\nimport \"../standardProcedure.sol\";\nimport \"../Organ.sol\";\n\n\ncontract normsCooptationProcedure is Procedure{\n    // 1: Cyclical many to one election (Presidential Election)\n    // 2: Cyclical many to many election (Moderators Election)\n    // 3: Simple norm nomination \n    // 4: Simple admins and master nomination\n    // 5: Vote on Norms \n    // 6: Vote on masters and admins \n    // 7: Norms cooptation\n    int public procedureTypeNumber = 7;\n\n    // // Storage for procedure name\n    // string public procedureName;\n    // // Gathering connected organs for easier DAO mapping\n    // address[] public linkedOrgans;\n\n    // Which organ will be affected\n    address payable public  membersOrganContract;\n\n    // Organ in which the voters with veto power are registered\n    address payable public membersWithVetoOrganContract;\n\n    // Organ in which final promulgators are listed\n    address payable public finalPromulgatorsOrganContract;\n\n\n    // ############## Variable to set up when declaring the procedure\n    // ####### Vote creation process\n    uint minimumDepositSize;\n\n    // ####### Voting process\n    // Time for participant to vote\n    uint public votingPeriodDuration;\n\n    // Time for the final promulgators to promulgate\n    uint public promulgationPeriodDuration;\n\n    // ####### Resolution process\n    // Minimum participation to validate election\n    uint public quorumSize;\n\n    // Variable of the procedure to keep track of propositions\n    uint public totalPropositionNumber;\n\n    bytes32 public procedureName;\n    address[] public linkedOrgans;\n\n    // Proposition structure\n    struct Proposition {\n        // **** Voting variables\n        // Mapping to track if each user voted\n        mapping(address => bool) hasUserVoted;\n        // Mapping to track user votes\n        mapping(address => bool) whatHasUserVoted;\n        // Time of proposition creation\n        uint startDate;\n        // Was the proposition accepted?\n        bool wasAccepted;\n        // Was the proposition counted?\n        bool wasCounted;\n        // Was the proposition acted upon?\n        bool wasEnacted;\n        // How many people voted YES?\n        uint voteFor;\n        // How many people voted?\n        uint totalVoteCount;\n        // Was the proposition vetoed by the Vetoing members?\n        uint vetoCount;\n        // Was the proposition validated by the Vetoing members?\n        uint notVetoCount;\n        // How many members need to vote to enact proposition?\n        uint requiredQuorum;\n        // Proposition details\n        address payable candidateAddress;\n        bytes32 name;\n        bytes32 ipfsHash; // ID of proposal on IPFS\n        uint8 hash_function;\n        uint8 size;\n        uint deposit;\n        uint payoutPerUser;\n    }\n\n\n    // A dynamically-sized array of `Proposition` structs.\n    Proposition[] propositions;\n\n    // Dynamic size array of status of propositions\n    bool[] public propositionsWaitingEndOfVote;\n    bool[] public propositionsWaitingPromulgation;\n\n    // Mapping each proposition to the user creating it\n    mapping (address => uint[]) public propositionToUser;    \n\n    // Mapping each proposition to the user who participated\n    mapping (address => uint[]) public propositionToVoter;\n\n    // Mapping each proposition to the user vetoing it\n    mapping (address => uint[]) public propositionToVetoer;\n\n    // Mapping each proposition to the user promulgating it\n    mapping (address => uint[]) public propositionToPromulgator;\n\n    \n\n    // Events\n    event createPropositionEvent(address _candidateAddress, uint _deposit, bytes32 _ipfsHash, uint8 _hash_function, uint8 _size);\n    event voteOnProposition(address _from, uint _propositionNumber);\n    event vetoProposition(address _from, uint _propositionNumber, bool _decision);\n    event countVotes(address _from, uint _propositionNumber);\n    event promulgatePropositionEvent(address _from, uint _propositionNumber);\n    event withdrawal(address _from, uint _propositionNumber, uint _value);\n\n    constructor(address payable _membersOrganContract, address payable _membersWithVetoOrganContract, address payable _finalPromulgatorsOrganContract, uint _quorumSize, uint _votingPeriodDuration, uint _promulgationPeriodDuration, bytes32 _name) \n    public \n    {\n\n    membersOrganContract = _membersOrganContract;\n    membersWithVetoOrganContract = _membersWithVetoOrganContract;\n    finalPromulgatorsOrganContract = _finalPromulgatorsOrganContract; \n    linkedOrgans = [finalPromulgatorsOrganContract,membersWithVetoOrganContract,membersOrganContract];\n\n    // Procedure name \n    procedureName = _name;\n    \n    quorumSize = _quorumSize;\n    minimumDepositSize = 1000;\n    // votingPeriodDuration = 3 minutes;\n    // promulgationPeriodDuration = 3 minutes;\n\n    votingPeriodDuration = _votingPeriodDuration;\n    promulgationPeriodDuration = _promulgationPeriodDuration;\n\n\n    kelsenVersionNumber = 1;\n\n    }\n\n    /// Create a new ballot to choose one of `proposalNames`.\n    function createProposition(bytes32 _name, bytes32 _ipfsHash, uint8 _hash_function, uint8 _size) public payable returns (uint propositionNumber){\n\n            // Checking that the proposition is not made on an existing member\n            Organ membersOrgan = Organ(membersOrganContract);\n            require(membersOrgan.getAddressPositionInNorm(msg.sender) == 0);\n            ( ,uint voterNumber) = membersOrgan.organInfos();\n            // Check that deposit size is enough\n            require(msg.value > minimumDepositSize * voterNumber);\n\n            // Creating new proposition \n            Proposition memory newProposition;\n            \n            // Calculating required quorum\n            newProposition.requiredQuorum = voterNumber*quorumSize/100;\n            if (newProposition.requiredQuorum == 0){\n                newProposition.requiredQuorum = 1;\n            }\n            delete membersOrgan;\n\n            \n            newProposition.candidateAddress = msg.sender;\n            newProposition.ipfsHash = _ipfsHash;\n            newProposition.hash_function = _hash_function;\n            newProposition.size = _size;\n            newProposition.name = _name;\n            newProposition.deposit = msg.value;\n\n            // Instanciating proposition\n\n            newProposition.startDate = now;\n            newProposition.wasEnacted = false;\n            newProposition.wasCounted = false;\n            newProposition.wasAccepted = false;\n            newProposition.totalVoteCount = 0;\n            newProposition.voteFor = 0;\n            newProposition.vetoCount = 0;\n            newProposition.notVetoCount = 0;\n            newProposition.payoutPerUser = 0;\n\n            // newProposition.voteAgainst = 0;\n            propositions.push(newProposition);\n            delete newProposition;\n\n            propositionNumber = propositions.length - 1;\n\n            // Tracking propositions being deposed\n            totalPropositionNumber += 1;\n            propositionToUser[msg.sender].push(propositionNumber);\n            propositionsWaitingEndOfVote.push(true);\n            propositionsWaitingPromulgation.push(false);\n\n            // proposition creation event\n            emit createPropositionEvent(msg.sender, msg.value, _ipfsHash, _hash_function, _size);\n\n            // Sending deposit to organ\n            membersOrganContract.transfer(msg.value);\n    }\n\n    // Vote for a proposition\n    function vote(uint _propositionNumber, bool _acceptProposition) public {\n\n        // Check the voter is able to vote on a proposition\n        procedureLibrary.isAllowed(membersOrganContract);\n        \n        // Check if voter already voted\n        require(!propositions[_propositionNumber].hasUserVoted[msg.sender]);\n\n        // Check if vote is still active\n        require(!propositions[_propositionNumber].wasCounted);\n\n        // Adding vote\n        if(_acceptProposition == true)\n        {propositions[_propositionNumber].voteFor += 1;}\n\n        // Log that user voted\n        propositions[_propositionNumber].hasUserVoted[msg.sender] = true;\n\n        // Log what the user voted\n        propositions[_propositionNumber].whatHasUserVoted[msg.sender] = _acceptProposition;\n        \n        // Adding vote count\n        propositions[_propositionNumber].totalVoteCount += 1;\n\n        // Log that user voted on this proposition\n        propositionToVoter[msg.sender].push(_propositionNumber);\n\n        // create vote event\n        emit voteOnProposition(msg.sender, _propositionNumber);\n    }\n\n        /// Veto a candidate\n    function veto(uint _propositionNumber, bool _acceptProposition) public {\n\n        // Check if voter already voted\n        require(!propositions[_propositionNumber].hasUserVoted[msg.sender]);\n\n        // Check the voter is able to veto the proposition\n        procedureLibrary.isAllowed(membersWithVetoOrganContract);\n        \n        // Check if vote is still active\n        require(!propositions[_propositionNumber].wasCounted);\n\n        // Log decision\n        if (_acceptProposition) {\n            propositions[_propositionNumber].notVetoCount += 1;\n        }\n       else {\n            propositions[_propositionNumber].vetoCount += 1;\n       }\n\n       // Log that user voted\n        propositions[_propositionNumber].hasUserVoted[msg.sender] = true;\n\n        // Log what the user voted\n        propositions[_propositionNumber].whatHasUserVoted[msg.sender] = _acceptProposition;\n\n        // Log that user vetoed this proposition\n        propositionToVetoer[msg.sender].push(_propositionNumber);\n\n        //  Create veto event\n        emit vetoProposition(msg.sender, _propositionNumber, _acceptProposition);\n\n    }\n\n    // The vote is finished and we close it. This does not trigger the outcome of the vote. PromulgateProposition() should be called after\n    function endPropositionVote(uint _propositionNumber) public returns (bool hasBeenAccepted) {\n        // We check if the vote was already counted\n        require(!propositions[_propositionNumber].wasCounted);\n\n        // Checking that the vote can be closed\n        require(propositions[_propositionNumber].startDate + votingPeriodDuration < now);\n\n        // Checking that the vote received enough votes to be closed\n        require((propositions[_propositionNumber].totalVoteCount >= propositions[_propositionNumber].requiredQuorum));\n\n        // Checking if members with vetoed blocked/forced the proposition\n        Organ membersWithVetoOrgan = Organ(membersWithVetoOrganContract);\n\n        ( ,uint vetoerNumber) = membersWithVetoOrgan.organInfos();\n        delete membersWithVetoOrgan;\n        // We check that Quorum was obtained and that a majority of votes were cast in favor of the proposition\n        if (propositions[_propositionNumber].vetoCount >= vetoerNumber)\n            {hasBeenAccepted=false;\n                propositions[_propositionNumber].wasEnacted = true;\n                propositions[_propositionNumber].payoutPerUser = propositions[_propositionNumber].deposit/(propositions[_propositionNumber].totalVoteCount-propositions[_propositionNumber].voteFor);}\n        else if ((propositions[_propositionNumber].notVetoCount >= vetoerNumber) || (propositions[_propositionNumber].voteFor*2 > propositions[_propositionNumber].totalVoteCount) )\n            {hasBeenAccepted = true;\n            propositions[_propositionNumber].payoutPerUser = propositions[_propositionNumber].deposit/propositions[_propositionNumber].voteFor;}\n        else \n            {hasBeenAccepted=false;\n            propositions[_propositionNumber].wasEnacted = true;\n            propositions[_propositionNumber].payoutPerUser = propositions[_propositionNumber].deposit/(propositions[_propositionNumber].totalVoteCount-propositions[_propositionNumber].voteFor);}\n\n\n        // ############## Updating ballot values if vote concluded\n        propositions[_propositionNumber].wasCounted = true;\n        propositions[_propositionNumber].wasAccepted = hasBeenAccepted;\n        propositionsWaitingEndOfVote[_propositionNumber] = false;\n        propositionsWaitingPromulgation[_propositionNumber] = true;\n\n        // Calculating payout per user\n\n\n        emit countVotes(msg.sender, _propositionNumber);\n\n        return hasBeenAccepted;\n    }\n\n    function promulgateProposition(uint _propositionNumber) public\n    {\n        // Checking if ballot was already enforced\n        require(!propositions[_propositionNumber].wasEnacted );\n\n        // Checking the ballot was counted\n        require(propositions[_propositionNumber].wasCounted);\n\n        // If promulgation is happening before endOfVote + promulgationPeriodDuration, check caller is an official promulgator\n        if (now < propositions[_propositionNumber].startDate + votingPeriodDuration + promulgationPeriodDuration)\n            {        \n            // Check the voter is able to promulgate the proposition\n            procedureLibrary.isAllowed(finalPromulgatorsOrganContract);\n            }\n\n        // Checking the ballot was accepted\n        require(propositions[_propositionNumber].wasAccepted);\n\n        // We initiate the Organ interface to add a norm\n\n        Organ membersOrgan = Organ(membersOrganContract);\n         // Adding a new norm\n        membersOrgan.addNorm(propositions[_propositionNumber].candidateAddress, propositions[_propositionNumber].ipfsHash, propositions[_propositionNumber].hash_function, propositions[_propositionNumber].size );\n                \n            \n\n        \n        propositions[_propositionNumber].wasEnacted = true;\n        propositionsWaitingPromulgation[_propositionNumber] = false;\n        propositionToPromulgator[msg.sender].push(_propositionNumber);\n        // promulgation event\n        emit promulgatePropositionEvent(msg.sender, _propositionNumber);\n\n    }\n\n     function withDrawPayout(uint _propositionNumber) public {\n        // Checking if ballot was already enforced\n        require(propositions[_propositionNumber].wasEnacted );\n\n        // Checking that the user voted, or that he did not already cash out\n        require(propositions[_propositionNumber].hasUserVoted[msg.sender] );\n\n        // Checking that the user voted as the crowd\n        require(propositions[_propositionNumber].whatHasUserVoted[msg.sender] == propositions[_propositionNumber].wasAccepted);\n\n        // Disabling the possibilit to cash out\n        propositions[_propositionNumber].hasUserVoted[msg.sender] = false;\n\n        // Send payment\n        Organ membersOrgan = Organ(membersOrganContract);\n        membersOrgan.payout(msg.sender, propositions[_propositionNumber].payoutPerUser);\n\n        // Log event\n        emit withdrawal(msg.sender, _propositionNumber, propositions[_propositionNumber].payoutPerUser);\n\n     }\n\n        //////////////////////// Functions to communicate with other contracts\n    function getPropositionDetails(uint _propositionNumber) public view returns (address _candidateAddress, bytes32 _name, bytes32 _ipfsHash, uint8 _hash_function, uint8 _size){\n        return (propositions[_propositionNumber].candidateAddress, propositions[_propositionNumber].name, propositions[_propositionNumber].ipfsHash, propositions[_propositionNumber].hash_function, propositions[_propositionNumber].size);\n    }\n    function getPropositionDates(uint _propositionNumber) public view returns (uint _startDate, uint _votingPeriodEndDate, uint _promulgatorWindowEndDate){\n        return (propositions[_propositionNumber].startDate, propositions[_propositionNumber].startDate + votingPeriodDuration, propositions[_propositionNumber].startDate + votingPeriodDuration + promulgationPeriodDuration);\n    }\n    function getPropositionStatus(uint _propositionNumber) public view returns (bool _wasCounted, bool _wasEnacted){\n        return (propositions[_propositionNumber].wasCounted, propositions[_propositionNumber].wasEnacted);\n    }\n    function getVotedPropositionResults(uint _propositionNumber) public view returns (uint totalVoters, uint _totalVoteCount, uint _voteFor, uint _vetoCount, uint _notVetoCount, bool _wasAccepted){\n        require(propositions[_propositionNumber].wasCounted);\n        return (propositions[_propositionNumber].totalVoteCount, propositions[_propositionNumber].totalVoteCount, propositions[_propositionNumber].voteFor, propositions[_propositionNumber].vetoCount, propositions[_propositionNumber].notVetoCount, propositions[_propositionNumber].wasAccepted);\n        }\n    function getPropositionsCreatedByUser(address _userAddress) public view returns (uint[] memory)\n    {return propositionToUser[_userAddress];}    \n    function getPropositionsVetoedByUser(address _userAddress) public view returns (uint[] memory)\n    {return propositionToVetoer[_userAddress];}  \n    function getPropositionsPromulgatedByUser(address _userAddress) public view returns (uint[] memory)\n    {return propositionToPromulgator[_userAddress];}  \n    function getPropositionsUsedByUser(address _userAddress) public view returns (uint[] memory)\n    {return propositionToVoter[_userAddress];}  \n    function haveIVoted(uint propositionNumber) public view returns (bool IHaveVoted)\n    {return propositions[propositionNumber].hasUserVoted[msg.sender];}\n    // function getLinkedOrgans() public view returns (address[] _linkedOrgans)\n    // {return linkedOrgans;}\n    // function getProcedureName() public view returns (string _procedureName)\n    // {return procedureName;}\n\n\n}\n\n",
  "sourcePath": "/Users/henrilieutaud/Documents/Mes documents/ESILV/03 Blockchain Programmation/solidity-101/contracts/utils/Kelsen/solidity/contracts/procedures/normsCooptationProcedure.sol",
  "compiler": {
    "name": "solc",
    "version": "0.5.0+commit.1d4f565a.Emscripten.clang"
  },
  "schemaVersion": "3.0.6",
  "updatedAt": "2019-10-03T20:18:25.190Z",
  "devdoc": {
    "methods": {}
  },
  "userdoc": {
    "methods": {
      "createProposition(bytes32,bytes32,uint8,uint8)": {
        "notice": "Create a new ballot to choose one of `proposalNames`."
      },
      "getPropositionDetails(uint256)": {
        "notice": "///////////////////// Functions to communicate with other contracts"
      },
      "veto(uint256,bool)": {
        "notice": "Veto a candidate"
      }
    }
  }
}