{
  "contractName": "Organ",
  "abi": [
    {
      "constant": true,
      "inputs": [],
      "name": "kelsenVersionNumber",
      "outputs": [
        {
          "name": "",
          "type": "int256"
        }
      ],
      "payable": false,
      "stateMutability": "view",
      "type": "function"
    },
    {
      "constant": true,
      "inputs": [],
      "name": "isAnOrgan",
      "outputs": [
        {
          "name": "",
          "type": "bool"
        }
      ],
      "payable": false,
      "stateMutability": "view",
      "type": "function"
    },
    {
      "constant": true,
      "inputs": [],
      "name": "organInfos",
      "outputs": [
        {
          "name": "organName",
          "type": "bytes32"
        },
        {
          "name": "activeNormNumber",
          "type": "uint256"
        }
      ],
      "payable": false,
      "stateMutability": "view",
      "type": "function"
    },
    {
      "constant": true,
      "inputs": [],
      "name": "isAProcedure",
      "outputs": [
        {
          "name": "",
          "type": "bool"
        }
      ],
      "payable": false,
      "stateMutability": "view",
      "type": "function"
    },
    {
      "inputs": [
        {
          "name": "_organName",
          "type": "bytes32"
        }
      ],
      "payable": false,
      "stateMutability": "nonpayable",
      "type": "constructor"
    },
    {
      "payable": true,
      "stateMutability": "payable",
      "type": "fallback"
    },
    {
      "constant": false,
      "inputs": [
        {
          "name": "_organName",
          "type": "bytes32"
        }
      ],
      "name": "setName",
      "outputs": [],
      "payable": false,
      "stateMutability": "nonpayable",
      "type": "function"
    },
    {
      "constant": false,
      "inputs": [
        {
          "name": "_to",
          "type": "address"
        },
        {
          "name": "_value",
          "type": "uint256"
        }
      ],
      "name": "payout",
      "outputs": [],
      "payable": false,
      "stateMutability": "nonpayable",
      "type": "function"
    },
    {
      "constant": false,
      "inputs": [
        {
          "name": "_newMasterAddress",
          "type": "address"
        },
        {
          "name": "_canAdd",
          "type": "bool"
        },
        {
          "name": "_canDelete",
          "type": "bool"
        }
      ],
      "name": "addMaster",
      "outputs": [],
      "payable": false,
      "stateMutability": "nonpayable",
      "type": "function"
    },
    {
      "constant": false,
      "inputs": [
        {
          "name": "_masterToRemove",
          "type": "address"
        }
      ],
      "name": "remMaster",
      "outputs": [],
      "payable": false,
      "stateMutability": "nonpayable",
      "type": "function"
    },
    {
      "constant": false,
      "inputs": [
        {
          "name": "_masterToRemove",
          "type": "address"
        },
        {
          "name": "_masterToAdd",
          "type": "address"
        },
        {
          "name": "_canAdd",
          "type": "bool"
        },
        {
          "name": "_canDelete",
          "type": "bool"
        }
      ],
      "name": "replaceMaster",
      "outputs": [],
      "payable": false,
      "stateMutability": "nonpayable",
      "type": "function"
    },
    {
      "constant": false,
      "inputs": [
        {
          "name": "_newAdminAddress",
          "type": "address"
        },
        {
          "name": "_canAdd",
          "type": "bool"
        },
        {
          "name": "_canDelete",
          "type": "bool"
        },
        {
          "name": "_canDeposit",
          "type": "bool"
        },
        {
          "name": "_canSpend",
          "type": "bool"
        }
      ],
      "name": "addAdmin",
      "outputs": [],
      "payable": false,
      "stateMutability": "nonpayable",
      "type": "function"
    },
    {
      "constant": false,
      "inputs": [
        {
          "name": "_adminToRemove",
          "type": "address"
        },
        {
          "name": "_adminToAdd",
          "type": "address"
        },
        {
          "name": "_canAdd",
          "type": "bool"
        },
        {
          "name": "_canDelete",
          "type": "bool"
        },
        {
          "name": "_canDeposit",
          "type": "bool"
        },
        {
          "name": "_canSpend",
          "type": "bool"
        }
      ],
      "name": "replaceAdmin",
      "outputs": [],
      "payable": false,
      "stateMutability": "nonpayable",
      "type": "function"
    },
    {
      "constant": false,
      "inputs": [
        {
          "name": "_adminToRemove",
          "type": "address"
        }
      ],
      "name": "remAdmin",
      "outputs": [],
      "payable": false,
      "stateMutability": "nonpayable",
      "type": "function"
    },
    {
      "constant": false,
      "inputs": [
        {
          "name": "_normAddress",
          "type": "address"
        },
        {
          "name": "_ipfsHash",
          "type": "bytes32"
        },
        {
          "name": "_hash_function",
          "type": "uint8"
        },
        {
          "name": "_size",
          "type": "uint8"
        }
      ],
      "name": "addNorm",
      "outputs": [
        {
          "name": "_normPosition",
          "type": "uint256"
        }
      ],
      "payable": false,
      "stateMutability": "nonpayable",
      "type": "function"
    },
    {
      "constant": false,
      "inputs": [
        {
          "name": "_normNumber",
          "type": "uint256"
        }
      ],
      "name": "remNorm",
      "outputs": [],
      "payable": false,
      "stateMutability": "nonpayable",
      "type": "function"
    },
    {
      "constant": false,
      "inputs": [
        {
          "name": "_normNumber",
          "type": "uint256"
        },
        {
          "name": "_normAddress",
          "type": "address"
        },
        {
          "name": "_ipfsHash",
          "type": "bytes32"
        },
        {
          "name": "_hash_function",
          "type": "uint8"
        },
        {
          "name": "_size",
          "type": "uint8"
        }
      ],
      "name": "replaceNorm",
      "outputs": [],
      "payable": false,
      "stateMutability": "nonpayable",
      "type": "function"
    },
    {
      "constant": true,
      "inputs": [
        {
          "name": "_adressToCheck",
          "type": "address"
        }
      ],
      "name": "isMaster",
      "outputs": [
        {
          "name": "canAdd",
          "type": "bool"
        },
        {
          "name": "canDelete",
          "type": "bool"
        }
      ],
      "payable": false,
      "stateMutability": "view",
      "type": "function"
    },
    {
      "constant": true,
      "inputs": [
        {
          "name": "_adressToCheck",
          "type": "address"
        }
      ],
      "name": "isAdmin",
      "outputs": [
        {
          "name": "canAdd",
          "type": "bool"
        },
        {
          "name": "canDelete",
          "type": "bool"
        },
        {
          "name": "canDeposit",
          "type": "bool"
        },
        {
          "name": "canSpend",
          "type": "bool"
        }
      ],
      "payable": false,
      "stateMutability": "view",
      "type": "function"
    },
    {
      "constant": true,
      "inputs": [],
      "name": "getNormListSize",
      "outputs": [
        {
          "name": "normArraySize",
          "type": "uint256"
        }
      ],
      "payable": false,
      "stateMutability": "view",
      "type": "function"
    },
    {
      "constant": true,
      "inputs": [
        {
          "name": "_addressToCheck",
          "type": "address"
        }
      ],
      "name": "getAddressPositionInNorm",
      "outputs": [
        {
          "name": "addressInNormPosition",
          "type": "uint256"
        }
      ],
      "payable": false,
      "stateMutability": "view",
      "type": "function"
    },
    {
      "constant": true,
      "inputs": [
        {
          "name": "_desiredNormPosition",
          "type": "uint256"
        }
      ],
      "name": "getSingleNorm",
      "outputs": [
        {
          "name": "normAddress",
          "type": "address"
        },
        {
          "name": "ipfsHash",
          "type": "bytes32"
        },
        {
          "name": "hash_function",
          "type": "uint8"
        },
        {
          "name": "size",
          "type": "uint8"
        }
      ],
      "payable": false,
      "stateMutability": "view",
      "type": "function"
    },
    {
      "constant": true,
      "inputs": [],
      "name": "getKelsenVersion",
      "outputs": [
        {
          "name": "_isAnOrgan",
          "type": "bool"
        },
        {
          "name": "_isAProcedure",
          "type": "bool"
        },
        {
          "name": "_versionNumber",
          "type": "int256"
        }
      ],
      "payable": false,
      "stateMutability": "view",
      "type": "function"
    }
  ],
  "bytecode": "0x6080604052600260005560018060026101000a81548160ff0219169083151502179055506000600160036101000a81548160ff02191690831515021790555034801561004a57600080fd5b506040516020806117dc8339810180604052602081101561006a57600080fd5b8101908080519060200190929190505050600273__organLibrary__________________________634e6f396c9091836040518363ffffffff167c0100000000000000000000000000000000000000000000000000000000028152600401808381526020018281526020019250505060006040518083038186803b1580156100f157600080fd5b505af4158015610105573d6000803e3d6000fd5b50505050506116c3806101196000396000f3fe608060405260043610610147576000357c0100000000000000000000000000000000000000000000000000000000900480636f2a4d5f116100c8578063a08c3cb51161008c578063a08c3cb51461075b578063a8bef97a146107e4578063bbea061914610813578063db05152614610845578063e80b30a5146108e1578063f720f80b1461091057610147565b80636f2a4d5f1461054457806371e7f374146105cd57806379524d2d1461066e57806390cb15a9146106ef5780639e9b8aed1461073057610147565b80633f7819a11161010f5780633f7819a1146103915780635549ea51146103fa5780635ac801fe1461045f5780635dbe4d281461049a5780636c49e087146104c557610147565b80630e9defff146101cf578063117de2fd1461020a57806311c604181461026557806324d7806c146102b657806331a7919814610340575b600273__organLibrary__________________________639025315590916040518263ffffffff167c01000000000000000000000000000000000000000000000000000000000281526004018082815260200191505060006040518083038186803b1580156101b557600080fd5b505af41580156101c9573d6000803e3d6000fd5b50505050005b3480156101db57600080fd5b50610208600480360360208110156101f257600080fd5b8101908080359060200190929190505050610984565b005b34801561021657600080fd5b506102636004803603604081101561022d57600080fd5b81019080803573ffffffffffffffffffffffffffffffffffffffff16906020019092919080359060200190929190505050610a15565b005b34801561027157600080fd5b506102b46004803603602081101561028857600080fd5b81019080803573ffffffffffffffffffffffffffffffffffffffff169060200190929190505050610adb565b005b3480156102c257600080fd5b50610305600480360360208110156102d957600080fd5b81019080803573ffffffffffffffffffffffffffffffffffffffff169060200190929190505050610b98565b604051808515151515815260200184151515158152602001831515151581526020018215151515815260200194505050505060405180910390f35b34801561034c57600080fd5b5061038f6004803603602081101561036357600080fd5b81019080803573ffffffffffffffffffffffffffffffffffffffff169060200190929190505050610cf9565b005b34801561039d57600080fd5b506103f8600480360360608110156103b457600080fd5b81019080803573ffffffffffffffffffffffffffffffffffffffff169060200190929190803515159060200190929190803515159060200190929190505050610db6565b005b34801561040657600080fd5b506104496004803603602081101561041d57600080fd5b81019080803573ffffffffffffffffffffffffffffffffffffffff169060200190929190505050610e8d565b6040518082815260200191505060405180910390f35b34801561046b57600080fd5b506104986004803603602081101561048257600080fd5b8101908080359060200190929190505050610ed9565b005b3480156104a657600080fd5b506104af610f6a565b6040518082815260200191505060405180910390f35b3480156104d157600080fd5b50610542600480360360a08110156104e857600080fd5b8101908080359060200190929190803573ffffffffffffffffffffffffffffffffffffffff16906020019092919080359060200190929190803560ff169060200190929190803560ff169060200190929190505050610f70565b005b34801561055057600080fd5b506105cb6004803603608081101561056757600080fd5b81019080803573ffffffffffffffffffffffffffffffffffffffff169060200190929190803573ffffffffffffffffffffffffffffffffffffffff16906020019092919080351515906020019092919080351515906020019092919050505061105d565b005b3480156105d957600080fd5b5061066c600480360360c08110156105f057600080fd5b81019080803573ffffffffffffffffffffffffffffffffffffffff169060200190929190803573ffffffffffffffffffffffffffffffffffffffff169060200190929190803515159060200190929190803515159060200190929190803515159060200190929190803515159060200190929190505050611169565b005b34801561067a57600080fd5b506106ed600480360360a081101561069157600080fd5b81019080803573ffffffffffffffffffffffffffffffffffffffff16906020019092919080351515906020019092919080351515906020019092919080351515906020019092919080351515906020019092919050505061128f565b005b3480156106fb57600080fd5b50610704611380565b604051808415151515815260200183151515158152602001828152602001935050505060405180910390f35b34801561073c57600080fd5b506107456113b3565b6040518082815260200191505060405180910390f35b34801561076757600080fd5b506107ce6004803603608081101561077e57600080fd5b81019080803573ffffffffffffffffffffffffffffffffffffffff16906020019092919080359060200190929190803560ff169060200190929190803560ff1690602001909291905050506113c3565b6040518082815260200191505060405180910390f35b3480156107f057600080fd5b506107f96114d0565b604051808215151515815260200191505060405180910390f35b34801561081f57600080fd5b506108286114e3565b604051808381526020018281526020019250505060405180910390f35b34801561085157600080fd5b5061087e6004803603602081101561086857600080fd5b81019080803590602001909291905050506114f5565b604051808573ffffffffffffffffffffffffffffffffffffffff1673ffffffffffffffffffffffffffffffffffffffff1681526020018481526020018360ff1660ff1681526020018260ff1660ff16815260200194505050505060405180910390f35b3480156108ed57600080fd5b506108f66115d4565b604051808215151515815260200191505060405180910390f35b34801561091c57600080fd5b5061095f6004803603602081101561093357600080fd5b81019080803573ffffffffffffffffffffffffffffffffffffffff1690602001909291905050506115e7565b6040518083151515158152602001821515151581526020019250505060405180910390f35b600273__organLibrary__________________________6313d6a0cb9091836040518363ffffffff167c0100000000000000000000000000000000000000000000000000000000028152600401808381526020018281526020019250505060006040518083038186803b1580156109fa57600080fd5b505af4158015610a0e573d6000803e3d6000fd5b5050505050565b600273__organLibrary__________________________63c0a9a964909184846040518463ffffffff167c0100000000000000000000000000000000000000000000000000000000028152600401808481526020018373ffffffffffffffffffffffffffffffffffffffff1673ffffffffffffffffffffffffffffffffffffffff168152602001828152602001935050505060006040518083038186803b158015610abf57600080fd5b505af4158015610ad3573d6000803e3d6000fd5b505050505050565b600273__organLibrary__________________________63f96257cc9091836040518363ffffffff167c0100000000000000000000000000000000000000000000000000000000028152600401808381526020018273ffffffffffffffffffffffffffffffffffffffff1673ffffffffffffffffffffffffffffffffffffffff1681526020019250505060006040518083038186803b158015610b7d57600080fd5b505af4158015610b91573d6000803e3d6000fd5b5050505050565b600080600080600260030160008673ffffffffffffffffffffffffffffffffffffffff1673ffffffffffffffffffffffffffffffffffffffff16815260200190815260200160002060000160009054906101000a900460ff16600260030160008773ffffffffffffffffffffffffffffffffffffffff1673ffffffffffffffffffffffffffffffffffffffff16815260200190815260200160002060000160019054906101000a900460ff16600260030160008873ffffffffffffffffffffffffffffffffffffffff1673ffffffffffffffffffffffffffffffffffffffff16815260200190815260200160002060000160039054906101000a900460ff16600260030160008973ffffffffffffffffffffffffffffffffffffffff1673ffffffffffffffffffffffffffffffffffffffff16815260200190815260200160002060000160029054906101000a900460ff1693509350935093509193509193565b600273__organLibrary__________________________63fad7b3849091836040518363ffffffff167c0100000000000000000000000000000000000000000000000000000000028152600401808381526020018273ffffffffffffffffffffffffffffffffffffffff1673ffffffffffffffffffffffffffffffffffffffff1681526020019250505060006040518083038186803b158015610d9b57600080fd5b505af4158015610daf573d6000803e3d6000fd5b5050505050565b600273__organLibrary__________________________634d8cd96790918585856040518563ffffffff167c0100000000000000000000000000000000000000000000000000000000028152600401808581526020018473ffffffffffffffffffffffffffffffffffffffff1673ffffffffffffffffffffffffffffffffffffffff168152602001831515151581526020018215151515815260200194505050505060006040518083038186803b158015610e7057600080fd5b505af4158015610e84573d6000803e3d6000fd5b50505050505050565b6000600260050160008373ffffffffffffffffffffffffffffffffffffffff1673ffffffffffffffffffffffffffffffffffffffff168152602001908152602001600020549050919050565b600273__organLibrary__________________________6313c938a79091836040518363ffffffff167c0100000000000000000000000000000000000000000000000000000000028152600401808381526020018281526020019250505060006040518083038186803b158015610f4f57600080fd5b505af4158015610f63573d6000803e3d6000fd5b5050505050565b60005481565b600273__organLibrary__________________________63c4be85a4909187878787876040518763ffffffff167c0100000000000000000000000000000000000000000000000000000000028152600401808781526020018681526020018573ffffffffffffffffffffffffffffffffffffffff1673ffffffffffffffffffffffffffffffffffffffff1681526020018481526020018360ff1660ff1681526020018260ff1660ff168152602001965050505050505060006040518083038186803b15801561103e57600080fd5b505af4158015611052573d6000803e3d6000fd5b505050505050505050565b600273__organLibrary__________________________6395ab63419091868686866040518663ffffffff167c0100000000000000000000000000000000000000000000000000000000028152600401808681526020018573ffffffffffffffffffffffffffffffffffffffff1673ffffffffffffffffffffffffffffffffffffffff1681526020018473ffffffffffffffffffffffffffffffffffffffff1673ffffffffffffffffffffffffffffffffffffffff16815260200183151515158152602001821515151581526020019550505050505060006040518083038186803b15801561114b57600080fd5b505af415801561115f573d6000803e3d6000fd5b5050505050505050565b600273__organLibrary__________________________633d579bd390918888888888886040518863ffffffff167c0100000000000000000000000000000000000000000000000000000000028152600401808881526020018773ffffffffffffffffffffffffffffffffffffffff1673ffffffffffffffffffffffffffffffffffffffff1681526020018673ffffffffffffffffffffffffffffffffffffffff1673ffffffffffffffffffffffffffffffffffffffff1681526020018515151515815260200184151515158152602001831515151581526020018215151515815260200197505050505050505060006040518083038186803b15801561126f57600080fd5b505af4158015611283573d6000803e3d6000fd5b50505050505050505050565b600273__organLibrary__________________________63f1638523909187878787876040518763ffffffff167c0100000000000000000000000000000000000000000000000000000000028152600401808781526020018673ffffffffffffffffffffffffffffffffffffffff1673ffffffffffffffffffffffffffffffffffffffff16815260200185151515158152602001841515151581526020018315151515815260200182151515158152602001965050505050505060006040518083038186803b15801561136157600080fd5b505af4158015611375573d6000803e3d6000fd5b505050505050505050565b6000806000600160029054906101000a900460ff16600160039054906101000a900460ff16600054925092509250909192565b6000600260040180549050905090565b6000600273__organLibrary__________________________63bd25fc159091878787876040518663ffffffff167c0100000000000000000000000000000000000000000000000000000000028152600401808681526020018573ffffffffffffffffffffffffffffffffffffffff1673ffffffffffffffffffffffffffffffffffffffff1681526020018481526020018360ff1660ff1681526020018260ff1660ff1681526020019550505050505060206040518083038186803b15801561148b57600080fd5b505af415801561149f573d6000803e3d6000fd5b505050506040513d60208110156114b557600080fd5b81019080805190602001909291905050509050949350505050565b600160029054906101000a900460ff1681565b60028060000154908060010154905082565b60008060008060026004018581548110151561150d57fe5b906000526020600020906003020160000160009054906101000a900473ffffffffffffffffffffffffffffffffffffffff1660026004018681548110151561155157fe5b90600052602060002090600302016001015460026004018781548110151561157557fe5b906000526020600020906003020160020160009054906101000a900460ff166002600401888154811015156115a657fe5b906000526020600020906003020160020160019054906101000a900460ff1693509350935093509193509193565b600160039054906101000a900460ff1681565b6000806002800160008473ffffffffffffffffffffffffffffffffffffffff1673ffffffffffffffffffffffffffffffffffffffff16815260200190815260200160002060000160009054906101000a900460ff166002800160008573ffffffffffffffffffffffffffffffffffffffff1673ffffffffffffffffffffffffffffffffffffffff16815260200190815260200160002060000160019054906101000a900460ff169150915091509156fea165627a7a72305820065150aa880546b164c4ea7c04f26a75386f3702c6d05eff3288487713dfc6390029",
  "source": "pragma solidity >=0.4.22 <0.6.0;\r\n\r\n\r\n/// @title Standard organ contract\r\n\r\n\r\nimport \"./Kelsen.sol\";\r\nimport \"./libraries/organLibrary.sol\";\r\n\r\n\r\ncontract Organ is Kelsen{\r\n\r\n\r\n    // Declaring structures for different organ roles:\r\n    // Masters can add/remove admins\r\n    // Admins can add / remove norms\r\n    // Norms are sets of adresses, contracts or references gathered by the organ\r\n    bool public isAnOrgan = true;\r\n    bool public isAProcedure = false;\r\n    \r\n    using organLibrary for organLibrary.OrganInfo;\r\n    // Storing organ infos\r\n    organLibrary.OrganInfo public organInfos;\r\n\r\n    // Organ declaration\r\n    constructor(bytes32 _organName) public {\r\n        organInfos.initOrganLib(_organName);\r\n    }\r\n\r\n    // ################# Organ managing functions\r\n\r\n    function setName(bytes32 _organName) \r\n    public \r\n    {\r\n        organInfos.setNameLib(_organName);\r\n    }\r\n        // Money managing function\r\n    function () \r\n    external \r\n    payable \r\n    {\r\n        organInfos.payInLib();\r\n    }\r\n\r\n    function payout(address payable _to, uint _value) \r\n    public \r\n    {\r\n        organInfos.payoutLib(_to, _value);\r\n    }\r\n\r\n    // ################# Master managing functions\r\n    function addMaster(address _newMasterAddress, bool _canAdd, bool _canDelete) \r\n    public\r\n    {\r\n        organInfos.addMasterLib(_newMasterAddress, _canAdd, _canDelete);\r\n    }\r\n\r\n    function remMaster(address _masterToRemove) \r\n    public \r\n    {\r\n        organInfos.remMasterLib(_masterToRemove);\r\n    }\r\n\r\n    function replaceMaster(address _masterToRemove, address _masterToAdd, bool _canAdd, bool _canDelete) \r\n    public \r\n    {\r\n        organInfos.replaceMasterLib(_masterToRemove, _masterToAdd, _canAdd, _canDelete);\r\n    }\r\n\r\n    // ################# Admin managing functions\r\n    function addAdmin(address _newAdminAddress, bool _canAdd, bool _canDelete, bool _canDeposit, bool _canSpend) \r\n    public \r\n    {\r\n        organInfos.addAdminLib(_newAdminAddress, _canAdd, _canDelete, _canDeposit, _canSpend);\r\n    }\r\n\r\n    function replaceAdmin(address _adminToRemove, address _adminToAdd, bool _canAdd, bool _canDelete, bool _canDeposit, bool _canSpend) \r\n    public \r\n    {\r\n        organInfos.replaceAdminLib(_adminToRemove, _adminToAdd, _canAdd, _canDelete, _canDeposit, _canSpend);\r\n    }\r\n\r\n    function remAdmin(address _adminToRemove) public {\r\n        organInfos.remAdminLib(_adminToRemove);\r\n    }\r\n\r\n    // ################# Norms managing functions\r\n\r\n    function addNorm (address payable _normAddress, bytes32 _ipfsHash, uint8 _hash_function, uint8 _size) \r\n    public  \r\n    returns (uint _normPosition)\r\n    {\r\n        return organInfos.addNormLib(_normAddress, _ipfsHash, _hash_function, _size);\r\n    }\r\n\r\n    function remNorm (uint _normNumber) \r\n    public\r\n    {\r\n       organInfos.remNormLib(_normNumber);\r\n    }\r\n\r\n    function replaceNorm (uint _normNumber, address payable _normAddress, bytes32 _ipfsHash, uint8 _hash_function, uint8 _size) \r\n    public\r\n    {\r\n       organInfos.replaceNormLib(_normNumber, _normAddress, _ipfsHash, _hash_function, _size);\r\n    }\r\n\r\n    //////////////////////// Functions to communicate with other contracts\r\n    // Checking individual addresses\r\n    function isMaster (address _adressToCheck) \r\n    public \r\n    view \r\n    returns (bool canAdd, bool canDelete) \r\n    {\r\n        return (organInfos.masters[_adressToCheck].canAdd, organInfos.masters[_adressToCheck].canDelete);\r\n    }\r\n\r\n    function isAdmin (address _adressToCheck) \r\n    public \r\n    view \r\n    returns (bool canAdd, bool canDelete, bool canDeposit, bool canSpend) \r\n    {\r\n        return (organInfos.admins[_adressToCheck].canAdd, organInfos.admins[_adressToCheck].canDelete, organInfos.admins[_adressToCheck].canDeposit, organInfos.admins[_adressToCheck].canSpend);\r\n    }\r\n\r\n    // Retrieve contract state info\r\n    // Size of norm array, to list elements\r\n    function getNormListSize() \r\n    public \r\n    view \r\n    returns (uint normArraySize)\r\n    {\r\n        return organInfos.norms.length;\r\n    }\r\n\r\n    function getAddressPositionInNorm(address _addressToCheck) \r\n    public \r\n    view \r\n    returns (uint addressInNormPosition)\r\n    {\r\n        return organInfos.addressPositionInNorms[_addressToCheck];\r\n    }\r\n\r\n    function getSingleNorm(uint _desiredNormPosition) \r\n    public \r\n    view \r\n    returns (address payable normAddress, bytes32 ipfsHash, uint8 hash_function, uint8 size)\r\n    {\r\n        return (organInfos.norms[_desiredNormPosition].normAddress, organInfos.norms[_desiredNormPosition].ipfsHash, organInfos.norms[_desiredNormPosition].hash_function, organInfos.norms[_desiredNormPosition].size);\r\n    }\r\n\r\n    function getKelsenVersion() \r\n    public \r\n    view \r\n    returns(bool _isAnOrgan, bool _isAProcedure, int _versionNumber)\r\n    {\r\n        return (isAnOrgan, isAProcedure, kelsenVersionNumber);\r\n    }\r\n}\r\n\r\n",
  "sourcePath": "C:\\Users\\hlieutaud\\Documents\\Workshop\\Solidity\\solidity-101\\contracts\\utils\\Kelsen\\solidity\\contracts\\Organ.sol",
  "compiler": {
    "name": "solc",
    "version": "0.5.4+commit.9549d8ff.Emscripten.clang"
  },
  "schemaVersion": "3.0.10",
  "updatedAt": "2019-10-01T09:42:38.741Z",
  "devdoc": {
    "methods": {}
  },
  "userdoc": {
    "methods": {
      "isMaster(address)": {
        "notice": "///////////////////// Functions to communicate with other contracts"
      }
    }
  }
}