{
  "contractName": "organLibrary",
  "abi": [
    {
      "anonymous": false,
      "inputs": [
        {
          "indexed": false,
          "name": "_from",
          "type": "address"
        },
        {
          "indexed": false,
          "name": "_newName",
          "type": "bytes32"
        }
      ],
      "name": "changeOrganName",
      "type": "event"
    },
    {
      "anonymous": false,
      "inputs": [
        {
          "indexed": false,
          "name": "_from",
          "type": "address"
        },
        {
          "indexed": false,
          "name": "_to",
          "type": "address"
        },
        {
          "indexed": false,
          "name": "_amount",
          "type": "uint256"
        }
      ],
      "name": "spendMoney",
      "type": "event"
    },
    {
      "anonymous": false,
      "inputs": [
        {
          "indexed": false,
          "name": "_from",
          "type": "address"
        },
        {
          "indexed": false,
          "name": "_amount",
          "type": "uint256"
        }
      ],
      "name": "receiveMoney",
      "type": "event"
    },
    {
      "anonymous": false,
      "inputs": [
        {
          "indexed": false,
          "name": "_from",
          "type": "address"
        },
        {
          "indexed": false,
          "name": "_newMaster",
          "type": "address"
        },
        {
          "indexed": false,
          "name": "_canAdd",
          "type": "bool"
        },
        {
          "indexed": false,
          "name": "_canDelete",
          "type": "bool"
        }
      ],
      "name": "addMasterEvent",
      "type": "event"
    },
    {
      "anonymous": false,
      "inputs": [
        {
          "indexed": false,
          "name": "_from",
          "type": "address"
        },
        {
          "indexed": false,
          "name": "_masterToRemove",
          "type": "address"
        }
      ],
      "name": "remMasterEvent",
      "type": "event"
    },
    {
      "anonymous": false,
      "inputs": [
        {
          "indexed": false,
          "name": "_from",
          "type": "address"
        },
        {
          "indexed": false,
          "name": "_newAdmin",
          "type": "address"
        },
        {
          "indexed": false,
          "name": "_canAdd",
          "type": "bool"
        },
        {
          "indexed": false,
          "name": "_canDelete",
          "type": "bool"
        },
        {
          "indexed": false,
          "name": "_canDeposit",
          "type": "bool"
        },
        {
          "indexed": false,
          "name": "_canSpend",
          "type": "bool"
        }
      ],
      "name": "addAdminEvent",
      "type": "event"
    },
    {
      "anonymous": false,
      "inputs": [
        {
          "indexed": false,
          "name": "_from",
          "type": "address"
        },
        {
          "indexed": false,
          "name": "_adminToRemove",
          "type": "address"
        }
      ],
      "name": "remAdminEvent",
      "type": "event"
    },
    {
      "anonymous": false,
      "inputs": [
        {
          "indexed": false,
          "name": "_from",
          "type": "address"
        },
        {
          "indexed": false,
          "name": "_normAddress",
          "type": "address"
        },
        {
          "indexed": false,
          "name": "_ipfsHash",
          "type": "bytes32"
        },
        {
          "indexed": false,
          "name": "_hash_function",
          "type": "uint8"
        },
        {
          "indexed": false,
          "name": "_size",
          "type": "uint8"
        }
      ],
      "name": "addNormEvent",
      "type": "event"
    },
    {
      "anonymous": false,
      "inputs": [
        {
          "indexed": false,
          "name": "_from",
          "type": "address"
        },
        {
          "indexed": false,
          "name": "_normAddress",
          "type": "address"
        },
        {
          "indexed": false,
          "name": "_ipfsHash",
          "type": "bytes32"
        },
        {
          "indexed": false,
          "name": "_hash_function",
          "type": "uint8"
        },
        {
          "indexed": false,
          "name": "_size",
          "type": "uint8"
        }
      ],
      "name": "remNormEvent",
      "type": "event"
    },
    {
      "constant": false,
      "inputs": [
        {
          "name": "self",
          "type": "organLibrary.OrganInfo storage"
        },
        {
          "name": "_organName",
          "type": "bytes32"
        }
      ],
      "name": "initOrganLib",
      "outputs": [],
      "payable": false,
      "stateMutability": "nonpayable",
      "type": "function"
    },
    {
      "constant": false,
      "inputs": [
        {
          "name": "self",
          "type": "organLibrary.OrganInfo storage"
        },
        {
          "name": "_organName",
          "type": "bytes32"
        }
      ],
      "name": "setNameLib",
      "outputs": [],
      "payable": false,
      "stateMutability": "nonpayable",
      "type": "function"
    },
    {
      "constant": false,
      "inputs": [
        {
          "name": "self",
          "type": "organLibrary.OrganInfo storage"
        }
      ],
      "name": "payInLib",
      "outputs": [],
      "payable": false,
      "stateMutability": "nonpayable",
      "type": "function"
    },
    {
      "constant": false,
      "inputs": [
        {
          "name": "self",
          "type": "organLibrary.OrganInfo storage"
        },
        {
          "name": "_to",
          "type": "address"
        },
        {
          "name": "_value",
          "type": "uint256"
        }
      ],
      "name": "payoutLib",
      "outputs": [],
      "payable": false,
      "stateMutability": "nonpayable",
      "type": "function"
    },
    {
      "constant": false,
      "inputs": [
        {
          "name": "self",
          "type": "organLibrary.OrganInfo storage"
        },
        {
          "name": "_newMasterAddress",
          "type": "address"
        },
        {
          "name": "_canAdd",
          "type": "bool"
        },
        {
          "name": "_canDelete",
          "type": "bool"
        }
      ],
      "name": "addMasterLib",
      "outputs": [],
      "payable": false,
      "stateMutability": "nonpayable",
      "type": "function"
    },
    {
      "constant": false,
      "inputs": [
        {
          "name": "self",
          "type": "organLibrary.OrganInfo storage"
        },
        {
          "name": "_masterToRemove",
          "type": "address"
        }
      ],
      "name": "remMasterLib",
      "outputs": [],
      "payable": false,
      "stateMutability": "nonpayable",
      "type": "function"
    },
    {
      "constant": false,
      "inputs": [
        {
          "name": "self",
          "type": "organLibrary.OrganInfo storage"
        },
        {
          "name": "_masterToRemove",
          "type": "address"
        },
        {
          "name": "_masterToAdd",
          "type": "address"
        },
        {
          "name": "_canAdd",
          "type": "bool"
        },
        {
          "name": "_canDelete",
          "type": "bool"
        }
      ],
      "name": "replaceMasterLib",
      "outputs": [],
      "payable": false,
      "stateMutability": "nonpayable",
      "type": "function"
    },
    {
      "constant": false,
      "inputs": [
        {
          "name": "self",
          "type": "organLibrary.OrganInfo storage"
        },
        {
          "name": "_newAdminAddress",
          "type": "address"
        },
        {
          "name": "_canAdd",
          "type": "bool"
        },
        {
          "name": "_canDelete",
          "type": "bool"
        },
        {
          "name": "_canDeposit",
          "type": "bool"
        },
        {
          "name": "_canSpend",
          "type": "bool"
        }
      ],
      "name": "addAdminLib",
      "outputs": [],
      "payable": false,
      "stateMutability": "nonpayable",
      "type": "function"
    },
    {
      "constant": false,
      "inputs": [
        {
          "name": "self",
          "type": "organLibrary.OrganInfo storage"
        },
        {
          "name": "_adminToRemove",
          "type": "address"
        }
      ],
      "name": "remAdminLib",
      "outputs": [],
      "payable": false,
      "stateMutability": "nonpayable",
      "type": "function"
    },
    {
      "constant": false,
      "inputs": [
        {
          "name": "self",
          "type": "organLibrary.OrganInfo storage"
        },
        {
          "name": "_adminToRemove",
          "type": "address"
        },
        {
          "name": "_adminToAdd",
          "type": "address"
        },
        {
          "name": "_canAdd",
          "type": "bool"
        },
        {
          "name": "_canDelete",
          "type": "bool"
        },
        {
          "name": "_canDeposit",
          "type": "bool"
        },
        {
          "name": "_canSpend",
          "type": "bool"
        }
      ],
      "name": "replaceAdminLib",
      "outputs": [],
      "payable": false,
      "stateMutability": "nonpayable",
      "type": "function"
    },
    {
      "constant": false,
      "inputs": [
        {
          "name": "self",
          "type": "organLibrary.OrganInfo storage"
        },
        {
          "name": "_normAddress",
          "type": "address"
        },
        {
          "name": "_ipfsHash",
          "type": "bytes32"
        },
        {
          "name": "_hash_function",
          "type": "uint8"
        },
        {
          "name": "_size",
          "type": "uint8"
        }
      ],
      "name": "addNormLib",
      "outputs": [
        {
          "name": "_normPosition",
          "type": "uint256"
        }
      ],
      "payable": false,
      "stateMutability": "nonpayable",
      "type": "function"
    },
    {
      "constant": false,
      "inputs": [
        {
          "name": "self",
          "type": "organLibrary.OrganInfo storage"
        },
        {
          "name": "_normNumber",
          "type": "uint256"
        }
      ],
      "name": "remNormLib",
      "outputs": [],
      "payable": false,
      "stateMutability": "nonpayable",
      "type": "function"
    },
    {
      "constant": false,
      "inputs": [
        {
          "name": "self",
          "type": "organLibrary.OrganInfo storage"
        },
        {
          "name": "_normNumber",
          "type": "uint256"
        },
        {
          "name": "_normAddress",
          "type": "address"
        },
        {
          "name": "_ipfsHash",
          "type": "bytes32"
        },
        {
          "name": "_hash_function",
          "type": "uint8"
        },
        {
          "name": "_size",
          "type": "uint8"
        }
      ],
      "name": "replaceNormLib",
      "outputs": [],
      "payable": false,
      "stateMutability": "nonpayable",
      "type": "function"
    }
  ],
  "bytecode": "0x6128a2610030600b82828239805160001a6073146000811461002057610022565bfe5b5030600052607381538281f3fe73000000000000000000000000000000000000000030146080604052600436106100dc576000357c0100000000000000000000000000000000000000000000000000000000900463ffffffff16806313c938a7146100e157806313d6a0cb146101265780633d579bd31461016b5780634d8cd967146102165780634e6f396c1461028957806390253155146102ce57806395ab634114610309578063bd25fc151461039c578063c0a9a9641461042f578063c4be85a414610494578063f16385231461051d578063f96257cc146105a8578063fad7b38414610603575b600080fd5b8180156100ed57600080fd5b506101246004803603604081101561010457600080fd5b81019080803590602001909291908035906020019092919050505061065e565b005b81801561013257600080fd5b506101696004803603604081101561014957600080fd5b81019080803590602001909291908035906020019092919050505061078d565b005b81801561017757600080fd5b50610214600480360360e081101561018e57600080fd5b8101908080359060200190929190803573ffffffffffffffffffffffffffffffffffffffff169060200190929190803573ffffffffffffffffffffffffffffffffffffffff169060200190929190803515159060200190929190803515159060200190929190803515159060200190929190803515159060200190929190505050610b86565b005b81801561022257600080fd5b506102876004803603608081101561023957600080fd5b8101908080359060200190929190803573ffffffffffffffffffffffffffffffffffffffff169060200190929190803515159060200190929190803515159060200190929190505050610c82565b005b81801561029557600080fd5b506102cc600480360360408110156102ac57600080fd5b810190808035906020019092919080359060200190929190505050610f19565b005b8180156102da57600080fd5b50610307600480360360208110156102f157600080fd5b81019080803590602001909291905050506110af565b005b81801561031557600080fd5b5061039a600480360360a081101561032c57600080fd5b8101908080359060200190929190803573ffffffffffffffffffffffffffffffffffffffff169060200190929190803573ffffffffffffffffffffffffffffffffffffffff16906020019092919080351515906020019092919080351515906020019092919050505061117a565b005b8180156103a857600080fd5b50610419600480360360a08110156103bf57600080fd5b8101908080359060200190929190803573ffffffffffffffffffffffffffffffffffffffff16906020019092919080359060200190929190803560ff169060200190929190803560ff16906020019092919050505061149b565b6040518082815260200191505060405180910390f35b81801561043b57600080fd5b506104926004803603606081101561045257600080fd5b8101908080359060200190929190803573ffffffffffffffffffffffffffffffffffffffff169060200190929190803590602001909291905050506117ef565b005b8180156104a057600080fd5b5061051b600480360360c08110156104b757600080fd5b810190808035906020019092919080359060200190929190803573ffffffffffffffffffffffffffffffffffffffff16906020019092919080359060200190929190803560ff169060200190929190803560ff169060200190929190505050611937565b005b81801561052957600080fd5b506105a6600480360360c081101561054057600080fd5b8101908080359060200190929190803573ffffffffffffffffffffffffffffffffffffffff169060200190929190803515159060200190929190803515159060200190929190803515159060200190929190803515159060200190929190505050611ef1565b005b8180156105b457600080fd5b50610601600480360360408110156105cb57600080fd5b8101908080359060200190929190803573ffffffffffffffffffffffffffffffffffffffff169060200190929190505050612320565b005b81801561060f57600080fd5b5061065c6004803603604081101561062657600080fd5b8101908080359060200190929190803573ffffffffffffffffffffffffffffffffffffffff169060200190929190505050612614565b005b8160020160003373ffffffffffffffffffffffffffffffffffffffff1673ffffffffffffffffffffffffffffffffffffffff16815260200190815260200160002060000160009054906101000a900460ff16801561070a57508160020160003373ffffffffffffffffffffffffffffffffffffffff1673ffffffffffffffffffffffffffffffffffffffff16815260200190815260200160002060000160019054906101000a900460ff165b151561071557600080fd5b8082600001819055507f133895c1c832b44ee3aab9909d2fd715c60ace0f02485202e5abe1d7fb1634f73382604051808373ffffffffffffffffffffffffffffffffffffffff1673ffffffffffffffffffffffffffffffffffffffff1681526020018281526020019250505060405180910390a15050565b8160030160003373ffffffffffffffffffffffffffffffffffffffff1673ffffffffffffffffffffffffffffffffffffffff16815260200190815260200160002060000160019054906101000a900460ff16806108e75750600082600501600084600401848154811015156107fe57fe5b906000526020600020906003020160000160009054906101000a900473ffffffffffffffffffffffffffffffffffffffff1673ffffffffffffffffffffffffffffffffffffffff1673ffffffffffffffffffffffffffffffffffffffff16815260200190815260200160002054141580156108e65750816004018181548110151561088557fe5b906000526020600020906003020160000160009054906101000a900473ffffffffffffffffffffffffffffffffffffffff1673ffffffffffffffffffffffffffffffffffffffff163373ffffffffffffffffffffffffffffffffffffffff16145b5b15156108f257600080fd5b816005016000836004018381548110151561090957fe5b906000526020600020906003020160000160009054906101000a900473ffffffffffffffffffffffffffffffffffffffff1673ffffffffffffffffffffffffffffffffffffffff1673ffffffffffffffffffffffffffffffffffffffff168152602001908152602001600020600090557f64568118a19ad215abe2d686897fccabd012923c71c2685472af34b4e0676e3a3383600401838154811015156109ac57fe5b906000526020600020906003020160000160009054906101000a900473ffffffffffffffffffffffffffffffffffffffff1684600401848154811015156109ef57fe5b9060005260206000209060030201600101548560040185815481101515610a1257fe5b906000526020600020906003020160020160009054906101000a900460ff168660040186815481101515610a4257fe5b906000526020600020906003020160020160019054906101000a900460ff16604051808673ffffffffffffffffffffffffffffffffffffffff1673ffffffffffffffffffffffffffffffffffffffff1681526020018573ffffffffffffffffffffffffffffffffffffffff1673ffffffffffffffffffffffffffffffffffffffff1681526020018481526020018360ff1660ff1681526020018260ff1660ff1681526020019550505050505060405180910390a18160040181815481101515610b0757fe5b9060005260206000209060030201600080820160006101000a81549073ffffffffffffffffffffffffffffffffffffffff021916905560018201600090556002820160006101000a81549060ff02191690556002820160016101000a81549060ff02191690555050600182600101600082825403925050819055505050565b8660020160003373ffffffffffffffffffffffffffffffffffffffff1673ffffffffffffffffffffffffffffffffffffffff16815260200190815260200160002060000160009054906101000a900460ff168015610c3257508660020160003373ffffffffffffffffffffffffffffffffffffffff1673ffffffffffffffffffffffffffffffffffffffff16815260200190815260200160002060000160019054906101000a900460ff165b1515610c3d57600080fd5b8380610c465750825b80610c4e5750815b80610c565750805b1515610c6157600080fd5b610c6b8787612320565b610c79878686868686611ef1565b50505050505050565b8360020160003373ffffffffffffffffffffffffffffffffffffffff1673ffffffffffffffffffffffffffffffffffffffff16815260200190815260200160002060000160009054906101000a900460ff161515610cdf57600080fd5b8360020160008473ffffffffffffffffffffffffffffffffffffffff1673ffffffffffffffffffffffffffffffffffffffff16815260200190815260200160002060000160009054906101000a900460ff16158015610d8d57508360020160008473ffffffffffffffffffffffffffffffffffffffff1673ffffffffffffffffffffffffffffffffffffffff16815260200190815260200160002060000160019054906101000a900460ff16155b1515610d9857600080fd5b8180610da15750805b1515610dac57600080fd5b818460020160008573ffffffffffffffffffffffffffffffffffffffff1673ffffffffffffffffffffffffffffffffffffffff16815260200190815260200160002060000160006101000a81548160ff021916908315150217905550808460020160008573ffffffffffffffffffffffffffffffffffffffff1673ffffffffffffffffffffffffffffffffffffffff16815260200190815260200160002060000160016101000a81548160ff0219169083151502179055507fc6bf01a203024da6c2267ec8f9524f39ae64470f6ceec9cb9b05e3bc78ce898d33848484604051808573ffffffffffffffffffffffffffffffffffffffff1673ffffffffffffffffffffffffffffffffffffffff1681526020018473ffffffffffffffffffffffffffffffffffffffff1673ffffffffffffffffffffffffffffffffffffffff168152602001831515151581526020018215151515815260200194505050505060405180910390a150505050565b60018260020160003373ffffffffffffffffffffffffffffffffffffffff1673ffffffffffffffffffffffffffffffffffffffff16815260200190815260200160002060000160006101000a81548160ff02191690831515021790555060018260020160003373ffffffffffffffffffffffffffffffffffffffff1673ffffffffffffffffffffffffffffffffffffffff16815260200190815260200160002060000160016101000a81548160ff021916908315150217905550808260000181905550610fe461282e565b82600401819080600181540180825580915050906001820390600052602060002090600302016000909192909190915060008201518160000160006101000a81548173ffffffffffffffffffffffffffffffffffffffff021916908373ffffffffffffffffffffffffffffffffffffffff1602179055506020820151816001015560408201518160020160006101000a81548160ff021916908360ff16021790555060608201518160020160016101000a81548160ff021916908360ff160217905550505050505050565b8060030160003373ffffffffffffffffffffffffffffffffffffffff1673ffffffffffffffffffffffffffffffffffffffff16815260200190815260200160002060000160039054906101000a900460ff16151561110c57600080fd5b7fe8e8caa49c00808ca0e50595f43e7fc4e3a4286edfd5ad4de7ab640742e1fb223334604051808373ffffffffffffffffffffffffffffffffffffffff1673ffffffffffffffffffffffffffffffffffffffff1681526020018281526020019250505060405180910390a150565b8460020160003373ffffffffffffffffffffffffffffffffffffffff1673ffffffffffffffffffffffffffffffffffffffff16815260200190815260200160002060000160009054906101000a900460ff16801561122657508460020160003373ffffffffffffffffffffffffffffffffffffffff1673ffffffffffffffffffffffffffffffffffffffff16815260200190815260200160002060000160019054906101000a900460ff165b151561123157600080fd5b818061123a5750805b151561124557600080fd5b8273ffffffffffffffffffffffffffffffffffffffff168473ffffffffffffffffffffffffffffffffffffffff161415156112955761128685848484610c82565b6112908585612614565b611494565b7f31cf2b8264326b61eebefe150df927acfc3396b2c609d77aa05ef4bc570ac23c3385604051808373ffffffffffffffffffffffffffffffffffffffff1673ffffffffffffffffffffffffffffffffffffffff1681526020018273ffffffffffffffffffffffffffffffffffffffff1673ffffffffffffffffffffffffffffffffffffffff1681526020019250505060405180910390a17fc6bf01a203024da6c2267ec8f9524f39ae64470f6ceec9cb9b05e3bc78ce898d33848484604051808573ffffffffffffffffffffffffffffffffffffffff1673ffffffffffffffffffffffffffffffffffffffff1681526020018473ffffffffffffffffffffffffffffffffffffffff1673ffffffffffffffffffffffffffffffffffffffff168152602001831515151581526020018215151515815260200194505050505060405180910390a1818560020160008673ffffffffffffffffffffffffffffffffffffffff1673ffffffffffffffffffffffffffffffffffffffff16815260200190815260200160002060000160006101000a81548160ff021916908315150217905550808560020160008673ffffffffffffffffffffffffffffffffffffffff1673ffffffffffffffffffffffffffffffffffffffff16815260200190815260200160002060000160016101000a81548160ff0219169083151502179055505b5050505050565b60008560030160003373ffffffffffffffffffffffffffffffffffffffff1673ffffffffffffffffffffffffffffffffffffffff16815260200190815260200160002060000160009054906101000a900460ff1615156114fa57600080fd5b600073ffffffffffffffffffffffffffffffffffffffff168573ffffffffffffffffffffffffffffffffffffffff161415156115815760008660050160008773ffffffffffffffffffffffffffffffffffffffff1673ffffffffffffffffffffffffffffffffffffffff1681526020019081526020016000205414151561158057600080fd5b5b856004016080604051908101604052808773ffffffffffffffffffffffffffffffffffffffff1681526020018681526020018560ff1681526020018460ff168152509080600181540180825580915050906001820390600052602060002090600302016000909192909190915060008201518160000160006101000a81548173ffffffffffffffffffffffffffffffffffffffff021916908373ffffffffffffffffffffffffffffffffffffffff1602179055506020820151816001015560408201518160020160006101000a81548160ff021916908360ff16021790555060608201518160020160016101000a81548160ff021916908360ff16021790555050505060018660040180549050038660050160008773ffffffffffffffffffffffffffffffffffffffff1673ffffffffffffffffffffffffffffffffffffffff16815260200190815260200160002081905550600186600101600082825401925050819055507fd0c4b59ed6fb4a093e4bfcba88175d0d6443b50bf9717b95f697eca388314b363386868686604051808673ffffffffffffffffffffffffffffffffffffffff1673ffffffffffffffffffffffffffffffffffffffff1681526020018573ffffffffffffffffffffffffffffffffffffffff1673ffffffffffffffffffffffffffffffffffffffff1681526020018481526020018360ff1660ff1681526020018260ff1660ff1681526020019550505050505060405180910390a18560050160008673ffffffffffffffffffffffffffffffffffffffff1673ffffffffffffffffffffffffffffffffffffffff16815260200190815260200160002054905095945050505050565b8260030160003373ffffffffffffffffffffffffffffffffffffffff1673ffffffffffffffffffffffffffffffffffffffff16815260200190815260200160002060000160029054906101000a900460ff16151561184c57600080fd5b8173ffffffffffffffffffffffffffffffffffffffff166108fc829081150290604051600060405180830381858888f19350505050158015611892573d6000803e3d6000fd5b507f69ef4b1cb1e3f170e636a678eb5bdcc1a5220158859f5a6218483d81ed19c6ba338383604051808473ffffffffffffffffffffffffffffffffffffffff1673ffffffffffffffffffffffffffffffffffffffff1681526020018373ffffffffffffffffffffffffffffffffffffffff1673ffffffffffffffffffffffffffffffffffffffff168152602001828152602001935050505060405180910390a1505050565b8560030160003373ffffffffffffffffffffffffffffffffffffffff1673ffffffffffffffffffffffffffffffffffffffff16815260200190815260200160002060000160019054906101000a900460ff1680156119e357508560030160003373ffffffffffffffffffffffffffffffffffffffff1673ffffffffffffffffffffffffffffffffffffffff16815260200190815260200160002060000160009054906101000a900460ff165b15156119ee57600080fd5b600073ffffffffffffffffffffffffffffffffffffffff168473ffffffffffffffffffffffffffffffffffffffff16141515611a765760008660050160008673ffffffffffffffffffffffffffffffffffffffff1673ffffffffffffffffffffffffffffffffffffffff1681526020019081526020016000205414151515611a7557600080fd5b5b60008660050160008860040188815481101515611a8f57fe5b906000526020600020906003020160000160009054906101000a900473ffffffffffffffffffffffffffffffffffffffff1673ffffffffffffffffffffffffffffffffffffffff1673ffffffffffffffffffffffffffffffffffffffff168152602001908152602001600020819055507f64568118a19ad215abe2d686897fccabd012923c71c2685472af34b4e0676e3a338760040187815481101515611b3257fe5b906000526020600020906003020160000160009054906101000a900473ffffffffffffffffffffffffffffffffffffffff168860040188815481101515611b7557fe5b9060005260206000209060030201600101548960040189815481101515611b9857fe5b906000526020600020906003020160020160009054906101000a900460ff168a6004018a815481101515611bc857fe5b906000526020600020906003020160020160019054906101000a900460ff16604051808673ffffffffffffffffffffffffffffffffffffffff1673ffffffffffffffffffffffffffffffffffffffff1681526020018573ffffffffffffffffffffffffffffffffffffffff1673ffffffffffffffffffffffffffffffffffffffff1681526020018481526020018360ff1660ff1681526020018260ff1660ff1681526020019550505050505060405180910390a18560040185815481101515611c8d57fe5b9060005260206000209060030201600080820160006101000a81549073ffffffffffffffffffffffffffffffffffffffff021916905560018201600090556002820160006101000a81549060ff02191690556002820160016101000a81549060ff021916905550506080604051908101604052808573ffffffffffffffffffffffffffffffffffffffff1681526020018481526020018360ff1681526020018260ff168152508660040186815481101515611d4457fe5b906000526020600020906003020160008201518160000160006101000a81548173ffffffffffffffffffffffffffffffffffffffff021916908373ffffffffffffffffffffffffffffffffffffffff1602179055506020820151816001015560408201518160020160006101000a81548160ff021916908360ff16021790555060608201518160020160016101000a81548160ff021916908360ff160217905550905050848660050160008673ffffffffffffffffffffffffffffffffffffffff1673ffffffffffffffffffffffffffffffffffffffff168152602001908152602001600020819055507fd0c4b59ed6fb4a093e4bfcba88175d0d6443b50bf9717b95f697eca388314b363385858585604051808673ffffffffffffffffffffffffffffffffffffffff1673ffffffffffffffffffffffffffffffffffffffff1681526020018573ffffffffffffffffffffffffffffffffffffffff1673ffffffffffffffffffffffffffffffffffffffff1681526020018481526020018360ff1660ff1681526020018260ff1660ff1681526020019550505050505060405180910390a1505050505050565b8560020160003373ffffffffffffffffffffffffffffffffffffffff1673ffffffffffffffffffffffffffffffffffffffff16815260200190815260200160002060000160009054906101000a900460ff161515611f4e57600080fd5b8560030160008673ffffffffffffffffffffffffffffffffffffffff1673ffffffffffffffffffffffffffffffffffffffff16815260200190815260200160002060000160009054906101000a900460ff16158015611ffc57508560030160008673ffffffffffffffffffffffffffffffffffffffff1673ffffffffffffffffffffffffffffffffffffffff16815260200190815260200160002060000160019054906101000a900460ff16155b801561205757508560030160008673ffffffffffffffffffffffffffffffffffffffff1673ffffffffffffffffffffffffffffffffffffffff16815260200190815260200160002060000160039054906101000a900460ff16155b80156120b257508560030160008673ffffffffffffffffffffffffffffffffffffffff1673ffffffffffffffffffffffffffffffffffffffff16815260200190815260200160002060000160029054906101000a900460ff16155b15156120bd57600080fd5b83806120c65750825b806120ce5750815b806120d65750805b15156120e157600080fd5b838660030160008773ffffffffffffffffffffffffffffffffffffffff1673ffffffffffffffffffffffffffffffffffffffff16815260200190815260200160002060000160006101000a81548160ff021916908315150217905550828660030160008773ffffffffffffffffffffffffffffffffffffffff1673ffffffffffffffffffffffffffffffffffffffff16815260200190815260200160002060000160016101000a81548160ff021916908315150217905550818660030160008773ffffffffffffffffffffffffffffffffffffffff1673ffffffffffffffffffffffffffffffffffffffff16815260200190815260200160002060000160036101000a81548160ff021916908315150217905550808660030160008773ffffffffffffffffffffffffffffffffffffffff1673ffffffffffffffffffffffffffffffffffffffff16815260200190815260200160002060000160026101000a81548160ff0219169083151502179055507f26272d25bc1196c872b2db8c23f99b1b000a717184976793acfe5e0ad4e33dc0338686868686604051808773ffffffffffffffffffffffffffffffffffffffff1673ffffffffffffffffffffffffffffffffffffffff1681526020018673ffffffffffffffffffffffffffffffffffffffff1673ffffffffffffffffffffffffffffffffffffffff16815260200185151515158152602001841515151581526020018315151515815260200182151515158152602001965050505050505060405180910390a1505050505050565b8160020160003373ffffffffffffffffffffffffffffffffffffffff1673ffffffffffffffffffffffffffffffffffffffff16815260200190815260200160002060000160019054906101000a900460ff16151561237d57600080fd5b8160030160008273ffffffffffffffffffffffffffffffffffffffff1673ffffffffffffffffffffffffffffffffffffffff16815260200190815260200160002060000160019054906101000a900460ff168061242857508160030160008273ffffffffffffffffffffffffffffffffffffffff1673ffffffffffffffffffffffffffffffffffffffff16815260200190815260200160002060000160009054906101000a900460ff165b8061248157508160030160008273ffffffffffffffffffffffffffffffffffffffff1673ffffffffffffffffffffffffffffffffffffffff16815260200190815260200160002060000160039054906101000a900460ff165b806124da57508160030160008273ffffffffffffffffffffffffffffffffffffffff1673ffffffffffffffffffffffffffffffffffffffff16815260200190815260200160002060000160029054906101000a900460ff165b15156124e557600080fd5b8160030160008273ffffffffffffffffffffffffffffffffffffffff1673ffffffffffffffffffffffffffffffffffffffff168152602001908152602001600020600080820160006101000a81549060ff02191690556000820160016101000a81549060ff02191690556000820160026101000a81549060ff02191690556000820160036101000a81549060ff021916905550507fd67845a459bcfe6c29d4fdbe8f965d4a62ae50e68971c894edfd625d9f8bfebe3382604051808373ffffffffffffffffffffffffffffffffffffffff1673ffffffffffffffffffffffffffffffffffffffff1681526020018273ffffffffffffffffffffffffffffffffffffffff1673ffffffffffffffffffffffffffffffffffffffff1681526020019250505060405180910390a15050565b8160020160003373ffffffffffffffffffffffffffffffffffffffff1673ffffffffffffffffffffffffffffffffffffffff16815260200190815260200160002060000160019054906101000a900460ff16151561267157600080fd5b8160020160008273ffffffffffffffffffffffffffffffffffffffff1673ffffffffffffffffffffffffffffffffffffffff16815260200190815260200160002060000160019054906101000a900460ff168061271c57508160020160008273ffffffffffffffffffffffffffffffffffffffff1673ffffffffffffffffffffffffffffffffffffffff16815260200190815260200160002060000160009054906101000a900460ff165b151561272757600080fd5b8160020160008273ffffffffffffffffffffffffffffffffffffffff1673ffffffffffffffffffffffffffffffffffffffff168152602001908152602001600020600080820160006101000a81549060ff02191690556000820160016101000a81549060ff021916905550507f31cf2b8264326b61eebefe150df927acfc3396b2c609d77aa05ef4bc570ac23c3382604051808373ffffffffffffffffffffffffffffffffffffffff1673ffffffffffffffffffffffffffffffffffffffff1681526020018273ffffffffffffffffffffffffffffffffffffffff1673ffffffffffffffffffffffffffffffffffffffff1681526020019250505060405180910390a15050565b608060405190810160405280600073ffffffffffffffffffffffffffffffffffffffff16815260200160008019168152602001600060ff168152602001600060ff168152509056fea165627a7a72305820e85174efc313589b5686a7aacc4152d94bdfc414f9686bf39ab6b27035a9affb0029",
  "source": "pragma solidity >=0.4.22 <0.6.0;\n\n\n\n/**\n\nKelsen Framework\nOrgan library\nThis library is used to hold all the logic to manage a simple organ.\n\n**/\nlibrary organLibrary {\n  \n    struct Master {\n        bool canAdd;  // if true, master can add admins\n        bool canDelete;  // if true, master can delete admins\n    }\n\n    struct Admin {\n        bool canAdd;  // if true, Admin can add norms\n        bool canDelete;  // if true, Admin can delete norms\n        bool canSpend;\n        bool canDeposit;\n    }\n\n    struct Norm {\n        address payable normAddress; // Address if norm is a member or a contract\n        bytes32 ipfsHash; // ID of proposal on IPFS\n        uint8 hash_function;\n        uint8 size;\n    }\n\n    struct OrganInfo {\n        bytes32 organName;\n        uint256 activeNormNumber;\n        mapping(address => Master) masters;\n        mapping(address => Admin) admins;\n        Norm[] norms;\n        mapping(address => uint) addressPositionInNorms;\n    }\n\n    // Events\n    // Organ management events\n    event changeOrganName(address _from, bytes32 _newName);\n    event spendMoney(address _from, address _to, uint256 _amount);\n    event receiveMoney(address _from, uint256 _amount);\n\n    // Master management events\n    event addMasterEvent(address _from, address _newMaster, bool _canAdd, bool _canDelete);\n    event remMasterEvent(address _from, address _masterToRemove);\n\n    // Admin management events\n    event addAdminEvent(address _from, address _newAdmin, bool _canAdd, bool _canDelete, bool _canDeposit, bool _canSpend);\n    event remAdminEvent(address _from, address _adminToRemove);\n\n    // Norm management events\n    event addNormEvent(address _from, address _normAddress, bytes32 _ipfsHash, uint8 _hash_function, uint8 _size);\n    event remNormEvent(address _from, address _normAddress, bytes32 _ipfsHash, uint8 _hash_function, uint8 _size);\n\n    function initOrganLib(OrganInfo storage self, bytes32 _organName)\n    public\n    {\n        // Initializing with deployer as master\n        self.masters[msg.sender].canAdd = true;\n        self.masters[msg.sender].canDelete = true;\n        self.organName = _organName;\n        Norm memory initNorm;\n        self.norms.push(initNorm);\n    }\n    function setNameLib(OrganInfo storage self, bytes32 _organName) \n    public \n    {\n        // Check sender is allowed\n        require((self.masters[msg.sender].canAdd) && (self.masters[msg.sender].canDelete));\n        self.organName = _organName;\n        emit changeOrganName(msg.sender, _organName);\n    }\n        // Money managing function\n    function payInLib(OrganInfo storage self) \n    public  \n    {\n        require(self.admins[msg.sender].canDeposit);\n        emit receiveMoney(msg.sender, msg.value);\n    }\n    function payoutLib(OrganInfo storage self, address payable _to, uint _value) \n    public \n    {\n        require(self.admins[msg.sender].canSpend);\n        _to.transfer(_value);\n        emit spendMoney(msg.sender, _to, _value);\n    }\n    // ################# Master managing functions\n    function addMasterLib(OrganInfo storage self, address _newMasterAddress, bool _canAdd, bool _canDelete) \n    public\n    {\n        // Check that the sender is allowed\n        require((self.masters[msg.sender].canAdd));\n        // Check new master is not already a master\n        require((!self.masters[_newMasterAddress].canAdd) && (!self.masters[_newMasterAddress].canDelete));\n\n        // Check new master has at least one permission activated\n        require(_canAdd || _canDelete);\n\n        // Creating master privileges\n        self.masters[_newMasterAddress].canAdd = _canAdd;\n        self.masters[_newMasterAddress].canDelete = _canDelete;\n        emit addMasterEvent(msg.sender, _newMasterAddress, _canAdd, _canDelete);\n    }\n    function remMasterLib(OrganInfo storage self, address _masterToRemove) \n    public \n    {\n        // Check sender is allowed\n        require((self.masters[msg.sender].canDelete));\n        // Check affected account is a master\n        require((self.masters[_masterToRemove].canDelete) || (self.masters[_masterToRemove].canAdd) );\n        // Deleting master privileges\n        delete self.masters[_masterToRemove];\n        emit remMasterEvent(msg.sender, _masterToRemove);\n    }\n    function replaceMasterLib(OrganInfo storage self, address _masterToRemove, address _masterToAdd, bool _canAdd, bool _canDelete) \n    public \n    {\n        // Check sender is allowed\n        require((self.masters[msg.sender].canAdd) && (self.masters[msg.sender].canDelete));\n        // Check new master has at least one permission activated\n        require(_canAdd || _canDelete);\n\n        // Check if we are replacing a master with another, or if we are modifying permissions\n        if (_masterToRemove != _masterToAdd)\n        {\n            // Replacing a master\n            addMasterLib(self, _masterToAdd, _canAdd, _canDelete);\n            remMasterLib(self, _masterToRemove);\n        }\n        else\n        {\n            // Modifying permissions\n            // Triggering events\n            emit remMasterEvent(msg.sender, _masterToRemove);\n            emit addMasterEvent(msg.sender, _masterToAdd, _canAdd, _canDelete);\n\n            //Modifying permissions\n            self.masters[_masterToRemove].canAdd = _canAdd;\n            self.masters[_masterToRemove].canDelete = _canDelete;\n        }\n    }\n\n    // ################# Admin managing functions\n    function addAdminLib(OrganInfo storage self, address _newAdminAddress, bool _canAdd, bool _canDelete, bool _canDeposit, bool _canSpend) \n    public \n    {\n        // Check the sender is allowed\n        require((self.masters[msg.sender].canAdd));\n        // Check new admin is not already an admin\n        require((!self.admins[_newAdminAddress].canAdd) && (!self.admins[_newAdminAddress].canDelete) && (!self.admins[_newAdminAddress].canDeposit) && (!self.admins[_newAdminAddress].canSpend));\n\n        // Check new admin has at least one permission activated\n        require(_canAdd || _canDelete || _canDeposit || _canSpend);\n\n        // Creating master privileges\n        self.admins[_newAdminAddress].canAdd = _canAdd;\n        self.admins[_newAdminAddress].canDelete = _canDelete;\n        self.admins[_newAdminAddress].canDeposit = _canDeposit;\n        self.admins[_newAdminAddress].canSpend = _canSpend;\n        emit addAdminEvent(msg.sender, _newAdminAddress,  _canAdd,  _canDelete,  _canDeposit,  _canSpend);\n    }\n\n    function remAdminLib(OrganInfo storage self, address _adminToRemove) \n    public \n    {\n        // Check sender is allowed\n        require((self.masters[msg.sender].canDelete));\n        // Check affected account is admin\n        require((self.admins[_adminToRemove].canDelete) || (self.admins[_adminToRemove].canAdd) || (self.admins[_adminToRemove].canDeposit) || (self.admins[_adminToRemove].canSpend));\n\n        // Deleting admin privileges\n        delete self.admins[_adminToRemove];\n\n        emit remAdminEvent(msg.sender, _adminToRemove);\n    }\n\n    function replaceAdminLib(OrganInfo storage self, address _adminToRemove, address _adminToAdd, bool _canAdd, bool _canDelete, bool _canDeposit, bool _canSpend) \n    public \n    {\n        // Check sender is allowed\n        require((self.masters[msg.sender].canAdd) && (self.masters[msg.sender].canDelete));\n        // Check new admin has at least one permission activated\n        require(_canAdd || _canDelete || _canDeposit || _canSpend);\n        \n        remAdminLib(self, _adminToRemove);\n        addAdminLib(self, _adminToAdd, _canAdd, _canDelete, _canDeposit, _canSpend);\n    }\n\n    function addNormLib(OrganInfo storage self, address payable _normAddress, bytes32 _ipfsHash, uint8 _hash_function, uint8 _size) \n    public \n    returns (uint _normPosition)\n    {\n        // Check sender is allowed\n        require(self.admins[msg.sender].canAdd);\n\n        // If the norm has an address, we check that the address has not been used before.\n        if (_normAddress != address(0)) { require(self.addressPositionInNorms[_normAddress] == 0);}\n\n        // Adding the norm\n        self.norms.push(organLibrary.Norm({\n                normAddress: _normAddress,\n                ipfsHash: _ipfsHash,\n                hash_function: _hash_function,\n                size: _size\n            }));\n        // Registering norm position relative to its address\n        self.addressPositionInNorms[_normAddress] = self.norms.length -1;\n        // Incrementing active norm number and total norm number trackers\n        self.activeNormNumber += 1;\n        emit addNormEvent(msg.sender, _normAddress,  _ipfsHash,  _hash_function,  _size);\n\n        // Registering the address as active\n        return self.addressPositionInNorms[_normAddress] ;\n    }\n\n    function remNormLib(OrganInfo storage self, uint _normNumber) \n    public\n    {\n        // Check sender is allowed:\n        // - Sender is admin\n        // - Norm number is trying to delete himself\n        require(self.admins[msg.sender].canDelete || (self.addressPositionInNorms[self.norms[_normNumber].normAddress] != 0 && msg.sender == self.norms[_normNumber].normAddress));\n        // Deleting norm position from addressPositionInNorms\n        delete self.addressPositionInNorms[self.norms[_normNumber].normAddress];\n        // Logging event\n        emit remNormEvent(msg.sender, self.norms[_normNumber].normAddress, self.norms[_normNumber].ipfsHash,  self.norms[_normNumber].hash_function,  self.norms[_normNumber].size);\n\n        // Removing norm from norms\n        delete self.norms[_normNumber];\n        self.activeNormNumber -= 1;\n    }\n\n    function replaceNormLib(OrganInfo storage self, uint _normNumber, address payable _normAddress, bytes32 _ipfsHash, uint8 _hash_function, uint8 _size) \n    public\n    {\n        require((self.admins[msg.sender].canDelete) && (self.admins[msg.sender].canAdd));\n        if (_normAddress != address(0)) { require(self.addressPositionInNorms[_normAddress] != 0);}\n        \n        self.addressPositionInNorms[self.norms[_normNumber].normAddress] = 0;\n        emit remNormEvent(msg.sender, self.norms[_normNumber].normAddress, self.norms[_normNumber].ipfsHash,  self.norms[_normNumber].hash_function,  self.norms[_normNumber].size);\n\n        delete self.norms[_normNumber];\n        self.norms[_normNumber] = organLibrary.Norm({\n                normAddress: _normAddress,\n                ipfsHash: _ipfsHash,\n                hash_function: _hash_function,\n                size: _size\n            });\n        \n        self.addressPositionInNorms[_normAddress] = _normNumber;\n        emit addNormEvent(msg.sender, _normAddress,  _ipfsHash,  _hash_function,  _size);\n    }\n}",
  "sourcePath": "/Users/henrilieutaud/Documents/Mes documents/ESILV/03 Blockchain Programmation/solidity-101/contracts/utils/Kelsen/solidity/contracts/libraries/organLibrary.sol",
  "compiler": {
    "name": "solc",
    "version": "0.5.0+commit.1d4f565a.Emscripten.clang"
  },
  "schemaVersion": "3.3.2",
  "updatedAt": "2021-03-04T20:32:45.120Z",
  "networkType": "ethereum",
  "devdoc": {
    "methods": {}
  },
  "userdoc": {
    "methods": {},
    "notice": "Kelsen Framework Organ library This library is used to hold all the logic to manage a simple organ.*"
  }
}