{
  "contractName": "Organ",
  "abi": [
    {
      "constant": true,
      "inputs": [
        {
          "name": "",
          "type": "uint256"
        }
      ],
      "name": "adminList",
      "outputs": [
        {
          "name": "",
          "type": "address"
        }
      ],
      "payable": false,
      "stateMutability": "view",
      "type": "function"
    },
    {
      "constant": true,
      "inputs": [],
      "name": "organName",
      "outputs": [
        {
          "name": "",
          "type": "string"
        }
      ],
      "payable": false,
      "stateMutability": "view",
      "type": "function"
    },
    {
      "constant": true,
      "inputs": [],
      "name": "activeNormNumber",
      "outputs": [
        {
          "name": "",
          "type": "uint256"
        }
      ],
      "payable": false,
      "stateMutability": "view",
      "type": "function"
    },
    {
      "constant": true,
      "inputs": [
        {
          "name": "",
          "type": "address"
        }
      ],
      "name": "admins",
      "outputs": [
        {
          "name": "name",
          "type": "string"
        },
        {
          "name": "canAdd",
          "type": "bool"
        },
        {
          "name": "canDelete",
          "type": "bool"
        },
        {
          "name": "canSpend",
          "type": "bool"
        },
        {
          "name": "canDeposit",
          "type": "bool"
        },
        {
          "name": "rankInAdminList",
          "type": "uint256"
        }
      ],
      "payable": false,
      "stateMutability": "view",
      "type": "function"
    },
    {
      "constant": true,
      "inputs": [],
      "name": "kelsenVersionNumber",
      "outputs": [
        {
          "name": "",
          "type": "int256"
        }
      ],
      "payable": false,
      "stateMutability": "view",
      "type": "function"
    },
    {
      "constant": true,
      "inputs": [
        {
          "name": "",
          "type": "address"
        }
      ],
      "name": "addressPositionInNorms",
      "outputs": [
        {
          "name": "",
          "type": "uint256"
        }
      ],
      "payable": false,
      "stateMutability": "view",
      "type": "function"
    },
    {
      "constant": true,
      "inputs": [
        {
          "name": "",
          "type": "address"
        }
      ],
      "name": "masters",
      "outputs": [
        {
          "name": "name",
          "type": "string"
        },
        {
          "name": "canAdd",
          "type": "bool"
        },
        {
          "name": "canDelete",
          "type": "bool"
        },
        {
          "name": "rankInMasterList",
          "type": "uint256"
        }
      ],
      "payable": false,
      "stateMutability": "view",
      "type": "function"
    },
    {
      "constant": true,
      "inputs": [],
      "name": "isAnOrgan",
      "outputs": [
        {
          "name": "",
          "type": "bool"
        }
      ],
      "payable": false,
      "stateMutability": "view",
      "type": "function"
    },
    {
      "constant": true,
      "inputs": [
        {
          "name": "",
          "type": "uint256"
        }
      ],
      "name": "masterList",
      "outputs": [
        {
          "name": "",
          "type": "address"
        }
      ],
      "payable": false,
      "stateMutability": "view",
      "type": "function"
    },
    {
      "constant": true,
      "inputs": [
        {
          "name": "",
          "type": "address"
        }
      ],
      "name": "isAddressInNorms",
      "outputs": [
        {
          "name": "",
          "type": "bool"
        }
      ],
      "payable": false,
      "stateMutability": "view",
      "type": "function"
    },
    {
      "constant": true,
      "inputs": [
        {
          "name": "",
          "type": "uint256"
        }
      ],
      "name": "norms",
      "outputs": [
        {
          "name": "name",
          "type": "string"
        },
        {
          "name": "normAddress",
          "type": "address"
        },
        {
          "name": "ipfsHash",
          "type": "bytes32"
        },
        {
          "name": "hash_function",
          "type": "uint8"
        },
        {
          "name": "size",
          "type": "uint8"
        }
      ],
      "payable": false,
      "stateMutability": "view",
      "type": "function"
    },
    {
      "constant": true,
      "inputs": [],
      "name": "isAProcedure",
      "outputs": [
        {
          "name": "",
          "type": "bool"
        }
      ],
      "payable": false,
      "stateMutability": "view",
      "type": "function"
    },
    {
      "payable": true,
      "stateMutability": "payable",
      "type": "fallback"
    },
    {
      "anonymous": false,
      "inputs": [
        {
          "indexed": false,
          "name": "_from",
          "type": "address"
        },
        {
          "indexed": false,
          "name": "_newName",
          "type": "string"
        }
      ],
      "name": "changeOrganName",
      "type": "event"
    },
    {
      "anonymous": false,
      "inputs": [
        {
          "indexed": false,
          "name": "_from",
          "type": "address"
        },
        {
          "indexed": false,
          "name": "_to",
          "type": "address"
        },
        {
          "indexed": false,
          "name": "_amount",
          "type": "uint256"
        }
      ],
      "name": "spendMoney",
      "type": "event"
    },
    {
      "anonymous": false,
      "inputs": [
        {
          "indexed": false,
          "name": "_from",
          "type": "address"
        },
        {
          "indexed": false,
          "name": "_amount",
          "type": "uint256"
        }
      ],
      "name": "receiveMoney",
      "type": "event"
    },
    {
      "anonymous": false,
      "inputs": [
        {
          "indexed": false,
          "name": "_from",
          "type": "address"
        },
        {
          "indexed": false,
          "name": "_newMaster",
          "type": "address"
        },
        {
          "indexed": false,
          "name": "_canAdd",
          "type": "bool"
        },
        {
          "indexed": false,
          "name": "_canDelete",
          "type": "bool"
        },
        {
          "indexed": false,
          "name": "_name",
          "type": "string"
        }
      ],
      "name": "addMasterEvent",
      "type": "event"
    },
    {
      "anonymous": false,
      "inputs": [
        {
          "indexed": false,
          "name": "_from",
          "type": "address"
        },
        {
          "indexed": false,
          "name": "_masterToRemove",
          "type": "address"
        }
      ],
      "name": "remMasterEvent",
      "type": "event"
    },
    {
      "anonymous": false,
      "inputs": [
        {
          "indexed": false,
          "name": "_from",
          "type": "address"
        },
        {
          "indexed": false,
          "name": "_newAdmin",
          "type": "address"
        },
        {
          "indexed": false,
          "name": "_canAdd",
          "type": "bool"
        },
        {
          "indexed": false,
          "name": "_canDelete",
          "type": "bool"
        },
        {
          "indexed": false,
          "name": "_canDeposit",
          "type": "bool"
        },
        {
          "indexed": false,
          "name": "_canSpend",
          "type": "bool"
        },
        {
          "indexed": false,
          "name": "_name",
          "type": "string"
        }
      ],
      "name": "addAdminEvent",
      "type": "event"
    },
    {
      "anonymous": false,
      "inputs": [
        {
          "indexed": false,
          "name": "_from",
          "type": "address"
        },
        {
          "indexed": false,
          "name": "_adminToRemove",
          "type": "address"
        }
      ],
      "name": "remAdminEvent",
      "type": "event"
    },
    {
      "anonymous": false,
      "inputs": [
        {
          "indexed": false,
          "name": "_from",
          "type": "address"
        },
        {
          "indexed": false,
          "name": "_normAddress",
          "type": "address"
        },
        {
          "indexed": false,
          "name": "_name",
          "type": "string"
        },
        {
          "indexed": false,
          "name": "_ipfsHash",
          "type": "bytes32"
        },
        {
          "indexed": false,
          "name": "_hash_function",
          "type": "uint8"
        },
        {
          "indexed": false,
          "name": "_size",
          "type": "uint8"
        }
      ],
      "name": "addNormEvent",
      "type": "event"
    },
    {
      "anonymous": false,
      "inputs": [
        {
          "indexed": false,
          "name": "_from",
          "type": "address"
        },
        {
          "indexed": false,
          "name": "_normAddress",
          "type": "address"
        },
        {
          "indexed": false,
          "name": "_name",
          "type": "string"
        },
        {
          "indexed": false,
          "name": "_ipfsHash",
          "type": "bytes32"
        },
        {
          "indexed": false,
          "name": "_hash_function",
          "type": "uint8"
        },
        {
          "indexed": false,
          "name": "_size",
          "type": "uint8"
        }
      ],
      "name": "remNormEvent",
      "type": "event"
    },
    {
      "constant": false,
      "inputs": [
        {
          "name": "_name",
          "type": "string"
        }
      ],
      "name": "setName",
      "outputs": [],
      "payable": false,
      "stateMutability": "nonpayable",
      "type": "function"
    },
    {
      "constant": false,
      "inputs": [
        {
          "name": "_to",
          "type": "address"
        },
        {
          "name": "_value",
          "type": "uint256"
        }
      ],
      "name": "payout",
      "outputs": [],
      "payable": false,
      "stateMutability": "nonpayable",
      "type": "function"
    },
    {
      "constant": false,
      "inputs": [
        {
          "name": "_newMasterAddress",
          "type": "address"
        },
        {
          "name": "_canAdd",
          "type": "bool"
        },
        {
          "name": "_canDelete",
          "type": "bool"
        },
        {
          "name": "_name",
          "type": "string"
        }
      ],
      "name": "addMaster",
      "outputs": [],
      "payable": false,
      "stateMutability": "nonpayable",
      "type": "function"
    },
    {
      "constant": false,
      "inputs": [
        {
          "name": "_masterToRemove",
          "type": "address"
        },
        {
          "name": "_masterToAdd",
          "type": "address"
        },
        {
          "name": "_canAdd",
          "type": "bool"
        },
        {
          "name": "_canDelete",
          "type": "bool"
        },
        {
          "name": "_name",
          "type": "string"
        }
      ],
      "name": "replaceMaster",
      "outputs": [],
      "payable": false,
      "stateMutability": "nonpayable",
      "type": "function"
    },
    {
      "constant": false,
      "inputs": [
        {
          "name": "_masterToRemove",
          "type": "address"
        }
      ],
      "name": "remMaster",
      "outputs": [],
      "payable": false,
      "stateMutability": "nonpayable",
      "type": "function"
    },
    {
      "constant": false,
      "inputs": [
        {
          "name": "_newAdminAddress",
          "type": "address"
        },
        {
          "name": "_canAdd",
          "type": "bool"
        },
        {
          "name": "_canDelete",
          "type": "bool"
        },
        {
          "name": "_canDeposit",
          "type": "bool"
        },
        {
          "name": "_canSpend",
          "type": "bool"
        },
        {
          "name": "_name",
          "type": "string"
        }
      ],
      "name": "addAdmin",
      "outputs": [],
      "payable": false,
      "stateMutability": "nonpayable",
      "type": "function"
    },
    {
      "constant": false,
      "inputs": [
        {
          "name": "_adminToRemove",
          "type": "address"
        },
        {
          "name": "_adminToAdd",
          "type": "address"
        },
        {
          "name": "_canAdd",
          "type": "bool"
        },
        {
          "name": "_canDelete",
          "type": "bool"
        },
        {
          "name": "_canDeposit",
          "type": "bool"
        },
        {
          "name": "_canSpend",
          "type": "bool"
        },
        {
          "name": "_name",
          "type": "string"
        }
      ],
      "name": "replaceAdmin",
      "outputs": [],
      "payable": false,
      "stateMutability": "nonpayable",
      "type": "function"
    },
    {
      "constant": false,
      "inputs": [
        {
          "name": "_adminToRemove",
          "type": "address"
        }
      ],
      "name": "remAdmin",
      "outputs": [],
      "payable": false,
      "stateMutability": "nonpayable",
      "type": "function"
    },
    {
      "constant": false,
      "inputs": [
        {
          "name": "_normAddress",
          "type": "address"
        },
        {
          "name": "_name",
          "type": "string"
        },
        {
          "name": "_ipfsHash",
          "type": "bytes32"
        },
        {
          "name": "_hash_function",
          "type": "uint8"
        },
        {
          "name": "_size",
          "type": "uint8"
        }
      ],
      "name": "addNorm",
      "outputs": [
        {
          "name": "_normPosition",
          "type": "uint256"
        }
      ],
      "payable": false,
      "stateMutability": "nonpayable",
      "type": "function"
    },
    {
      "constant": false,
      "inputs": [
        {
          "name": "_normNumber",
          "type": "uint256"
        },
        {
          "name": "_normAddress",
          "type": "address"
        },
        {
          "name": "_name",
          "type": "string"
        },
        {
          "name": "_ipfsHash",
          "type": "bytes32"
        },
        {
          "name": "_hash_function",
          "type": "uint8"
        },
        {
          "name": "_size",
          "type": "uint8"
        }
      ],
      "name": "replaceNorm",
      "outputs": [],
      "payable": false,
      "stateMutability": "nonpayable",
      "type": "function"
    },
    {
      "constant": false,
      "inputs": [
        {
          "name": "_normNumber",
          "type": "uint256"
        }
      ],
      "name": "remNorm",
      "outputs": [],
      "payable": false,
      "stateMutability": "nonpayable",
      "type": "function"
    },
    {
      "constant": true,
      "inputs": [
        {
          "name": "_adressToCheck",
          "type": "address"
        }
      ],
      "name": "isMaster",
      "outputs": [
        {
          "name": "canAdd",
          "type": "bool"
        },
        {
          "name": "canDelete",
          "type": "bool"
        }
      ],
      "payable": false,
      "stateMutability": "view",
      "type": "function"
    },
    {
      "constant": true,
      "inputs": [
        {
          "name": "_adressToCheck",
          "type": "address"
        }
      ],
      "name": "isAdmin",
      "outputs": [
        {
          "name": "canAdd",
          "type": "bool"
        },
        {
          "name": "canDelete",
          "type": "bool"
        }
      ],
      "payable": false,
      "stateMutability": "view",
      "type": "function"
    },
    {
      "constant": true,
      "inputs": [
        {
          "name": "_adressToCheck",
          "type": "address"
        }
      ],
      "name": "isNorm",
      "outputs": [
        {
          "name": "isAddressInNorm",
          "type": "bool"
        }
      ],
      "payable": false,
      "stateMutability": "view",
      "type": "function"
    },
    {
      "constant": true,
      "inputs": [
        {
          "name": "_adressToCheck",
          "type": "address"
        }
      ],
      "name": "isMoneyManager",
      "outputs": [
        {
          "name": "canDeposit",
          "type": "bool"
        },
        {
          "name": "canSpend",
          "type": "bool"
        }
      ],
      "payable": false,
      "stateMutability": "view",
      "type": "function"
    },
    {
      "constant": true,
      "inputs": [],
      "name": "getActiveNormNumber",
      "outputs": [
        {
          "name": "_activeNormNumber",
          "type": "uint256"
        }
      ],
      "payable": false,
      "stateMutability": "view",
      "type": "function"
    },
    {
      "constant": true,
      "inputs": [],
      "name": "getNormListSize",
      "outputs": [
        {
          "name": "normArraySize",
          "type": "uint256"
        }
      ],
      "payable": false,
      "stateMutability": "view",
      "type": "function"
    },
    {
      "constant": true,
      "inputs": [
        {
          "name": "_addressToCheck",
          "type": "address"
        }
      ],
      "name": "getAddressPositionInNorm",
      "outputs": [
        {
          "name": "addressInNormPosition",
          "type": "uint256"
        }
      ],
      "payable": false,
      "stateMutability": "view",
      "type": "function"
    },
    {
      "constant": true,
      "inputs": [
        {
          "name": "_desiredNormPosition",
          "type": "uint256"
        }
      ],
      "name": "getSingleNorm",
      "outputs": [
        {
          "name": "name",
          "type": "string"
        },
        {
          "name": "normAddress",
          "type": "address"
        },
        {
          "name": "ipfsHash",
          "type": "bytes32"
        },
        {
          "name": "hash_function",
          "type": "uint8"
        },
        {
          "name": "size",
          "type": "uint8"
        }
      ],
      "payable": false,
      "stateMutability": "view",
      "type": "function"
    },
    {
      "constant": true,
      "inputs": [],
      "name": "getMasterList",
      "outputs": [
        {
          "name": "_masterList",
          "type": "address[]"
        }
      ],
      "payable": false,
      "stateMutability": "view",
      "type": "function"
    },
    {
      "constant": true,
      "inputs": [],
      "name": "getAdminList",
      "outputs": [
        {
          "name": "_adminList",
          "type": "address[]"
        }
      ],
      "payable": false,
      "stateMutability": "view",
      "type": "function"
    },
    {
      "constant": true,
      "inputs": [],
      "name": "getKelsenVersion",
      "outputs": [
        {
          "name": "_isAnOrgan",
          "type": "bool"
        },
        {
          "name": "_isAProcedure",
          "type": "bool"
        },
        {
          "name": "_versionNumber",
          "type": "int256"
        }
      ],
      "payable": false,
      "stateMutability": "view",
      "type": "function"
    }
  ],
  "bytecode": "0x608060405260018060026101000a81548160ff0219169083151502179055506000600160036101000a81548160ff021916908315150217905550600160025534801561004a57600080fd5b506145cb8061005a6000396000f3006080604052600436106101ac576000357c0100000000000000000000000000000000000000000000000000000000900463ffffffff168063023a5379146102745780630e6adcdf146102da5780630e9defff1461039b57806311117fc8146103c8578063117de2fd1461043557806311c60418146104825780631cbce485146104c5578063234d34de1461055557806324d7806c1461058057806331a79198146105e657806332a0cf3414610629578063429b62e5146106545780635549ea51146107435780635dbe4d281461079a578063696c5219146107c557806372a3e1d31461088a57806378ebd005146108e15780637a38a1061461099a5780638186c35014610a7357806390cb15a914610b4c5780639e9b8aed14610b8d578063a8bef97a14610bb8578063ae69b70914610be7578063c1401b0314610c54578063c47f002714610cc0578063ca1885f714610d29578063cba1c0b514610dca578063cd26b87b14610e25578063d323a4f814610ee0578063d9f774fc14610f3b578063db05152614610fa7578063e3a31b2c146110a9578063e80b30a5146111ab578063f720f80b146111da575b600560003373ffffffffffffffffffffffffffffffffffffffff1673ffffffffffffffffffffffffffffffffffffffff16815260200190815260200160002060010160039054906101000a900460ff16151561020757600080fd5b7fe8e8caa49c00808ca0e50595f43e7fc4e3a4286edfd5ad4de7ab640742e1fb223334604051808373ffffffffffffffffffffffffffffffffffffffff1673ffffffffffffffffffffffffffffffffffffffff1681526020018281526020019250505060405180910390a1005b34801561028057600080fd5b506102b5600480360381019080803573ffffffffffffffffffffffffffffffffffffffff169060200190929190505050611240565b6040518083151515158152602001821515151581526020019250505060405180910390f35b3480156102e657600080fd5b50610399600480360381019080803573ffffffffffffffffffffffffffffffffffffffff169060200190929190803573ffffffffffffffffffffffffffffffffffffffff169060200190929190803515159060200190929190803515159060200190929190803590602001908201803590602001908080601f01602080910402602001604051908101604052809392919081815260200183838082843782019150505050505091929192905050506112ec565b005b3480156103a757600080fd5b506103c6600480360381019080803590602001909291905050506116c8565b005b3480156103d457600080fd5b506103f360048036038101908080359060200190929190505050611bc5565b604051808273ffffffffffffffffffffffffffffffffffffffff1673ffffffffffffffffffffffffffffffffffffffff16815260200191505060405180910390f35b34801561044157600080fd5b50610480600480360381019080803573ffffffffffffffffffffffffffffffffffffffff16906020019092919080359060200190929190505050611c03565b005b34801561048e57600080fd5b506104c3600480360381019080803573ffffffffffffffffffffffffffffffffffffffff169060200190929190505050611d48565b005b3480156104d157600080fd5b506104da612017565b6040518080602001828103825283818151815260200191508051906020019080838360005b8381101561051a5780820151818401526020810190506104ff565b50505050905090810190601f1680156105475780820380516001836020036101000a031916815260200191505b509250505060405180910390f35b34801561056157600080fd5b5061056a6120b5565b6040518082815260200191505060405180910390f35b34801561058c57600080fd5b506105c1600480360381019080803573ffffffffffffffffffffffffffffffffffffffff1690602001909291905050506120bf565b6040518083151515158152602001821515151581526020019250505060405180910390f35b3480156105f257600080fd5b50610627600480360381019080803573ffffffffffffffffffffffffffffffffffffffff16906020019092919050505061216b565b005b34801561063557600080fd5b5061063e612412565b6040518082815260200191505060405180910390f35b34801561066057600080fd5b50610695600480360381019080803573ffffffffffffffffffffffffffffffffffffffff169060200190929190505050612418565b604051808060200187151515158152602001861515151581526020018515151515815260200184151515158152602001838152602001828103825288818151815260200191508051906020019080838360005b838110156107035780820151818401526020810190506106e8565b50505050905090810190601f1680156107305780820380516001836020036101000a031916815260200191505b5097505050505050505060405180910390f35b34801561074f57600080fd5b50610784600480360381019080803573ffffffffffffffffffffffffffffffffffffffff169060200190929190505050612520565b6040518082815260200191505060405180910390f35b3480156107a657600080fd5b506107af612569565b6040518082815260200191505060405180910390f35b3480156107d157600080fd5b50610874600480360381019080803573ffffffffffffffffffffffffffffffffffffffff169060200190929190803590602001908201803590602001908080601f01602080910402602001604051908101604052809392919081815260200183838082843782019150505050505091929192908035600019169060200190929190803560ff169060200190929190803560ff16906020019092919050505061256f565b6040518082815260200191505060405180910390f35b34801561089657600080fd5b506108cb600480360381019080803573ffffffffffffffffffffffffffffffffffffffff16906020019092919050505061299f565b6040518082815260200191505060405180910390f35b3480156108ed57600080fd5b50610998600480360381019080803573ffffffffffffffffffffffffffffffffffffffff169060200190929190803515159060200190929190803515159060200190929190803515159060200190929190803515159060200190929190803590602001908201803590602001908080601f01602080910402602001604051908101604052809392919081815260200183838082843782019150505050505091929192905050506129b7565b005b3480156109a657600080fd5b506109db600480360381019080803573ffffffffffffffffffffffffffffffffffffffff169060200190929190505050612f46565b60405180806020018515151515815260200184151515158152602001838152602001828103825286818151815260200191508051906020019080838360005b83811015610a35578082015181840152602081019050610a1a565b50505050905090810190601f168015610a625780820380516001836020036101000a031916815260200191505b509550505050505060405180910390f35b348015610a7f57600080fd5b50610b4a600480360381019080803573ffffffffffffffffffffffffffffffffffffffff169060200190929190803573ffffffffffffffffffffffffffffffffffffffff169060200190929190803515159060200190929190803515159060200190929190803515159060200190929190803515159060200190929190803590602001908201803590602001908080601f0160208091040260200160405190810160405280939291908181526020018383808284378201915050505050509192919290505050613028565b005b348015610b5857600080fd5b50610b6161311f565b604051808415151515815260200183151515158152602001828152602001935050505060405180910390f35b348015610b9957600080fd5b50610ba2613152565b6040518082815260200191505060405180910390f35b348015610bc457600080fd5b50610bcd61315f565b604051808215151515815260200191505060405180910390f35b348015610bf357600080fd5b50610c1260048036038101908080359060200190929190505050613172565b604051808273ffffffffffffffffffffffffffffffffffffffff1673ffffffffffffffffffffffffffffffffffffffff16815260200191505060405180910390f35b348015610c6057600080fd5b50610c696131b0565b6040518080602001828103825283818151815260200191508051906020019060200280838360005b83811015610cac578082015181840152602081019050610c91565b505050509050019250505060405180910390f35b348015610ccc57600080fd5b50610d27600480360381019080803590602001908201803590602001908080601f016020809104026020016040519081016040528093929190818152602001838380828437820191505050505050919291929050505061323e565b005b348015610d3557600080fd5b50610dc8600480360381019080803573ffffffffffffffffffffffffffffffffffffffff169060200190929190803515159060200190929190803515159060200190929190803590602001908201803590602001908080601f01602080910402602001604051908101604052809392919081815260200183838082843782019150505050505091929192905050506133db565b005b348015610dd657600080fd5b50610e0b600480360381019080803573ffffffffffffffffffffffffffffffffffffffff1690602001909291905050506137da565b604051808215151515815260200191505060405180910390f35b348015610e3157600080fd5b50610ede60048036038101908080359060200190929190803573ffffffffffffffffffffffffffffffffffffffff169060200190929190803590602001908201803590602001908080601f01602080910402602001604051908101604052809392919081815260200183838082843782019150505050505091929192908035600019169060200190929190803560ff169060200190929190803560ff1690602001909291905050506137fa565b005b348015610eec57600080fd5b50610f21600480360381019080803573ffffffffffffffffffffffffffffffffffffffff169060200190929190505050613fe3565b604051808215151515815260200191505060405180910390f35b348015610f4757600080fd5b50610f50614039565b6040518080602001828103825283818151815260200191508051906020019060200280838360005b83811015610f93578082015181840152602081019050610f78565b505050509050019250505060405180910390f35b348015610fb357600080fd5b50610fd2600480360381019080803590602001909291905050506140c7565b60405180806020018673ffffffffffffffffffffffffffffffffffffffff1673ffffffffffffffffffffffffffffffffffffffff16815260200185600019166000191681526020018460ff1660ff1681526020018360ff1660ff168152602001828103825287818151815260200191508051906020019080838360005b8381101561106a57808201518184015260208101905061104f565b50505050905090810190601f1680156110975780820380516001836020036101000a031916815260200191505b50965050505050505060405180910390f35b3480156110b557600080fd5b506110d46004803603810190808035906020019092919050505061425c565b60405180806020018673ffffffffffffffffffffffffffffffffffffffff1673ffffffffffffffffffffffffffffffffffffffff16815260200185600019166000191681526020018460ff1660ff1681526020018360ff1660ff168152602001828103825287818151815260200191508051906020019080838360005b8381101561116c578082015181840152602081019050611151565b50505050905090810190601f1680156111995780820380516001836020036101000a031916815260200191505b50965050505050505060405180910390f35b3480156111b757600080fd5b506111c0614373565b604051808215151515815260200191505060405180910390f35b3480156111e657600080fd5b5061121b600480360381019080803573ffffffffffffffffffffffffffffffffffffffff169060200190929190505050614386565b6040518083151515158152602001821515151581526020019250505060405180910390f35b600080600560008473ffffffffffffffffffffffffffffffffffffffff1673ffffffffffffffffffffffffffffffffffffffff16815260200190815260200160002060010160039054906101000a900460ff16600560008573ffffffffffffffffffffffffffffffffffffffff1673ffffffffffffffffffffffffffffffffffffffff16815260200190815260200160002060010160029054906101000a900460ff1691509150915091565b600460003373ffffffffffffffffffffffffffffffffffffffff1673ffffffffffffffffffffffffffffffffffffffff16815260200190815260200160002060010160009054906101000a900460ff1680156113945750600460003373ffffffffffffffffffffffffffffffffffffffff1673ffffffffffffffffffffffffffffffffffffffff16815260200190815260200160002060010160019054906101000a900460ff165b151561139f57600080fd5b82806113a85750815b15156113b357600080fd5b8373ffffffffffffffffffffffffffffffffffffffff168573ffffffffffffffffffffffffffffffffffffffff16141515611402576113f4848484846133db565b6113fd8561216b565b6116c1565b7f31cf2b8264326b61eebefe150df927acfc3396b2c609d77aa05ef4bc570ac23c3386604051808373ffffffffffffffffffffffffffffffffffffffff1673ffffffffffffffffffffffffffffffffffffffff1681526020018273ffffffffffffffffffffffffffffffffffffffff1673ffffffffffffffffffffffffffffffffffffffff1681526020019250505060405180910390a17fb527c33e3cc4951b2cdc9a7eb45b7635a0b511688f180b982ad3b25e409596003385858585604051808673ffffffffffffffffffffffffffffffffffffffff1673ffffffffffffffffffffffffffffffffffffffff1681526020018573ffffffffffffffffffffffffffffffffffffffff1673ffffffffffffffffffffffffffffffffffffffff168152602001841515151581526020018315151515815260200180602001828103825283818151815260200191508051906020019080838360005b8381101561157757808201518184015260208101905061155c565b50505050905090810190601f1680156115a45780820380516001836020036101000a031916815260200191505b50965050505050505060405180910390a182600460008773ffffffffffffffffffffffffffffffffffffffff1673ffffffffffffffffffffffffffffffffffffffff16815260200190815260200160002060010160006101000a81548160ff02191690831515021790555081600460008773ffffffffffffffffffffffffffffffffffffffff1673ffffffffffffffffffffffffffffffffffffffff16815260200190815260200160002060010160016101000a81548160ff02191690831515021790555080600460008773ffffffffffffffffffffffffffffffffffffffff1673ffffffffffffffffffffffffffffffffffffffff16815260200190815260200160002060000190805190602001906116bf929190614432565b505b5050505050565b600560003373ffffffffffffffffffffffffffffffffffffffff1673ffffffffffffffffffffffffffffffffffffffff16815260200190815260200160002060010160019054906101000a900460ff16806117e35750600660003373ffffffffffffffffffffffffffffffffffffffff1673ffffffffffffffffffffffffffffffffffffffff16815260200190815260200160002060009054906101000a900460ff1680156117e25750600a8181548110151561178157fe5b906000526020600020906004020160010160009054906101000a900473ffffffffffffffffffffffffffffffffffffffff1673ffffffffffffffffffffffffffffffffffffffff163373ffffffffffffffffffffffffffffffffffffffff16145b5b15156117ee57600080fd5b60076000600a8381548110151561180157fe5b906000526020600020906004020160010160009054906101000a900473ffffffffffffffffffffffffffffffffffffffff1673ffffffffffffffffffffffffffffffffffffffff1673ffffffffffffffffffffffffffffffffffffffff16815260200190815260200160002060009055600060066000600a8481548110151561188657fe5b906000526020600020906004020160010160009054906101000a900473ffffffffffffffffffffffffffffffffffffffff1673ffffffffffffffffffffffffffffffffffffffff1673ffffffffffffffffffffffffffffffffffffffff16815260200190815260200160002060006101000a81548160ff0219169083151502179055507f5e8f1b7616df6c470e9f9feb6c689358bc178bd027b2ef7772ea3ae23ba7db8b33600a8381548110151561193a57fe5b906000526020600020906004020160010160009054906101000a900473ffffffffffffffffffffffffffffffffffffffff16600a8481548110151561197b57fe5b9060005260206000209060040201600001600a8581548110151561199b57fe5b906000526020600020906004020160020154600a868154811015156119bc57fe5b906000526020600020906004020160030160009054906101000a900460ff16600a878154811015156119ea57fe5b906000526020600020906004020160030160019054906101000a900460ff16604051808773ffffffffffffffffffffffffffffffffffffffff1673ffffffffffffffffffffffffffffffffffffffff1681526020018673ffffffffffffffffffffffffffffffffffffffff1673ffffffffffffffffffffffffffffffffffffffff1681526020018060200185600019166000191681526020018460ff1660ff1681526020018360ff1660ff168152602001828103825286818154600181600116156101000203166002900481526020019150805460018160011615610100020316600290048015611b1c5780601f10611af157610100808354040283529160200191611b1c565b820191906000526020600020905b815481529060010190602001808311611aff57829003601f168201915b505097505050505050505060405180910390a1600a81815481101515611b3e57fe5b906000526020600020906004020160008082016000611b5d91906144b2565b6001820160006101000a81549073ffffffffffffffffffffffffffffffffffffffff021916905560028201600090556003820160006101000a81549060ff02191690556003820160016101000a81549060ff021916905550506001600b5403600b8190555050565b600981815481101515611bd457fe5b906000526020600020016000915054906101000a900473ffffffffffffffffffffffffffffffffffffffff1681565b600560003373ffffffffffffffffffffffffffffffffffffffff1673ffffffffffffffffffffffffffffffffffffffff16815260200190815260200160002060010160029054906101000a900460ff161515611c5e57600080fd5b8173ffffffffffffffffffffffffffffffffffffffff166108fc829081150290604051600060405180830381858888f19350505050158015611ca4573d6000803e3d6000fd5b507f69ef4b1cb1e3f170e636a678eb5bdcc1a5220158859f5a6218483d81ed19c6ba338383604051808473ffffffffffffffffffffffffffffffffffffffff1673ffffffffffffffffffffffffffffffffffffffff1681526020018373ffffffffffffffffffffffffffffffffffffffff1673ffffffffffffffffffffffffffffffffffffffff168152602001828152602001935050505060405180910390a15050565b600460003373ffffffffffffffffffffffffffffffffffffffff1673ffffffffffffffffffffffffffffffffffffffff16815260200190815260200160002060010160019054906101000a900460ff161515611da357600080fd5b600560008273ffffffffffffffffffffffffffffffffffffffff1673ffffffffffffffffffffffffffffffffffffffff16815260200190815260200160002060010160019054906101000a900460ff1680611e4a5750600560008273ffffffffffffffffffffffffffffffffffffffff1673ffffffffffffffffffffffffffffffffffffffff16815260200190815260200160002060010160009054906101000a900460ff165b1515611e5557600080fd5b6009600560008373ffffffffffffffffffffffffffffffffffffffff1673ffffffffffffffffffffffffffffffffffffffff16815260200190815260200160002060020154815481101515611ea657fe5b9060005260206000200160006101000a81549073ffffffffffffffffffffffffffffffffffffffff0219169055600560008273ffffffffffffffffffffffffffffffffffffffff1673ffffffffffffffffffffffffffffffffffffffff16815260200190815260200160002060008082016000611f2391906144b2565b6001820160006101000a81549060ff02191690556001820160016101000a81549060ff02191690556001820160026101000a81549060ff02191690556001820160036101000a81549060ff0219169055600282016000905550507fd67845a459bcfe6c29d4fdbe8f965d4a62ae50e68971c894edfd625d9f8bfebe3382604051808373ffffffffffffffffffffffffffffffffffffffff1673ffffffffffffffffffffffffffffffffffffffff1681526020018273ffffffffffffffffffffffffffffffffffffffff1673ffffffffffffffffffffffffffffffffffffffff1681526020019250505060405180910390a150565b60038054600181600116156101000203166002900480601f0160208091040260200160405190810160405280929190818152602001828054600181600116156101000203166002900480156120ad5780601f10612082576101008083540402835291602001916120ad565b820191906000526020600020905b81548152906001019060200180831161209057829003601f168201915b505050505081565b6000600b54905090565b600080600560008473ffffffffffffffffffffffffffffffffffffffff1673ffffffffffffffffffffffffffffffffffffffff16815260200190815260200160002060010160009054906101000a900460ff16600560008573ffffffffffffffffffffffffffffffffffffffff1673ffffffffffffffffffffffffffffffffffffffff16815260200190815260200160002060010160019054906101000a900460ff1691509150915091565b600460003373ffffffffffffffffffffffffffffffffffffffff1673ffffffffffffffffffffffffffffffffffffffff16815260200190815260200160002060010160019054906101000a900460ff1615156121c657600080fd5b600460008273ffffffffffffffffffffffffffffffffffffffff1673ffffffffffffffffffffffffffffffffffffffff16815260200190815260200160002060010160019054906101000a900460ff168061226d5750600460008273ffffffffffffffffffffffffffffffffffffffff1673ffffffffffffffffffffffffffffffffffffffff16815260200190815260200160002060010160009054906101000a900460ff165b151561227857600080fd5b6008600460008373ffffffffffffffffffffffffffffffffffffffff1673ffffffffffffffffffffffffffffffffffffffff168152602001908152602001600020600201548154811015156122c957fe5b9060005260206000200160006101000a81549073ffffffffffffffffffffffffffffffffffffffff0219169055600460008273ffffffffffffffffffffffffffffffffffffffff1673ffffffffffffffffffffffffffffffffffffffff1681526020019081526020016000206000808201600061234691906144b2565b6001820160006101000a81549060ff02191690556001820160016101000a81549060ff0219169055600282016000905550507f31cf2b8264326b61eebefe150df927acfc3396b2c609d77aa05ef4bc570ac23c3382604051808373ffffffffffffffffffffffffffffffffffffffff1673ffffffffffffffffffffffffffffffffffffffff1681526020018273ffffffffffffffffffffffffffffffffffffffff1673ffffffffffffffffffffffffffffffffffffffff1681526020019250505060405180910390a150565b600b5481565b6005602052806000526040600020600091509050806000018054600181600116156101000203166002900480601f0160208091040260200160405190810160405280929190818152602001828054600181600116156101000203166002900480156124c45780601f10612499576101008083540402835291602001916124c4565b820191906000526020600020905b8154815290600101906020018083116124a757829003601f168201915b5050505050908060010160009054906101000a900460ff16908060010160019054906101000a900460ff16908060010160029054906101000a900460ff16908060010160039054906101000a900460ff16908060020154905086565b6000600760008373ffffffffffffffffffffffffffffffffffffffff1673ffffffffffffffffffffffffffffffffffffffff168152602001908152602001600020549050919050565b60025481565b6000600560003373ffffffffffffffffffffffffffffffffffffffff1673ffffffffffffffffffffffffffffffffffffffff16815260200190815260200160002060010160009054906101000a900460ff1615156125cc57600080fd5b60008673ffffffffffffffffffffffffffffffffffffffff1614151561264657600660008773ffffffffffffffffffffffffffffffffffffffff1673ffffffffffffffffffffffffffffffffffffffff16815260200190815260200160002060009054906101000a900460ff1615151561264557600080fd5b5b600a60a0604051908101604052808781526020018873ffffffffffffffffffffffffffffffffffffffff168152602001866000191681526020018560ff1681526020018460ff168152509080600181540180825580915050906001820390600052602060002090600402016000909192909190915060008201518160000190805190602001906126d79291906144fa565b5060208201518160010160006101000a81548173ffffffffffffffffffffffffffffffffffffffff021916908373ffffffffffffffffffffffffffffffffffffffff1602179055506040820151816002019060001916905560608201518160030160006101000a81548160ff021916908360ff16021790555060808201518160030160016101000a81548160ff021916908360ff1602179055505050506001600a8054905003600760008873ffffffffffffffffffffffffffffffffffffffff1673ffffffffffffffffffffffffffffffffffffffff168152602001908152602001600020819055506001600b5401600b819055507ffd630a3c8211981eaa495106d3337d3e980ded0eb89a88643329e26a0dc5b053338787878787604051808773ffffffffffffffffffffffffffffffffffffffff1673ffffffffffffffffffffffffffffffffffffffff1681526020018673ffffffffffffffffffffffffffffffffffffffff1673ffffffffffffffffffffffffffffffffffffffff1681526020018060200185600019166000191681526020018460ff1660ff1681526020018360ff1660ff168152602001828103825286818151815260200191508051906020019080838360005b838110156128bd5780820151818401526020810190506128a2565b50505050905090810190601f1680156128ea5780820380516001836020036101000a031916815260200191505b5097505050505050505060405180910390a16001600660008873ffffffffffffffffffffffffffffffffffffffff1673ffffffffffffffffffffffffffffffffffffffff16815260200190815260200160002060006101000a81548160ff021916908315150217905550600760008773ffffffffffffffffffffffffffffffffffffffff1673ffffffffffffffffffffffffffffffffffffffff16815260200190815260200160002054905095945050505050565b60076020528060005260406000206000915090505481565b600460003373ffffffffffffffffffffffffffffffffffffffff1673ffffffffffffffffffffffffffffffffffffffff16815260200190815260200160002060010160009054906101000a900460ff161515612a1257600080fd5b600560008773ffffffffffffffffffffffffffffffffffffffff1673ffffffffffffffffffffffffffffffffffffffff16815260200190815260200160002060010160009054906101000a900460ff16158015612abc5750600560008773ffffffffffffffffffffffffffffffffffffffff1673ffffffffffffffffffffffffffffffffffffffff16815260200190815260200160002060010160019054906101000a900460ff16155b8015612b155750600560008773ffffffffffffffffffffffffffffffffffffffff1673ffffffffffffffffffffffffffffffffffffffff16815260200190815260200160002060010160039054906101000a900460ff16155b8015612b6e5750600560008773ffffffffffffffffffffffffffffffffffffffff1673ffffffffffffffffffffffffffffffffffffffff16815260200190815260200160002060010160029054906101000a900460ff16155b1515612b7957600080fd5b8480612b825750835b80612b8a5750825b80612b925750815b1515612b9d57600080fd5b600160098790806001815401808255809150509060018203906000526020600020016000909192909190916101000a81548173ffffffffffffffffffffffffffffffffffffffff021916908373ffffffffffffffffffffffffffffffffffffffff16021790555003600560008873ffffffffffffffffffffffffffffffffffffffff1673ffffffffffffffffffffffffffffffffffffffff1681526020019081526020016000206002018190555084600560008873ffffffffffffffffffffffffffffffffffffffff1673ffffffffffffffffffffffffffffffffffffffff16815260200190815260200160002060010160006101000a81548160ff02191690831515021790555083600560008873ffffffffffffffffffffffffffffffffffffffff1673ffffffffffffffffffffffffffffffffffffffff16815260200190815260200160002060010160016101000a81548160ff02191690831515021790555082600560008873ffffffffffffffffffffffffffffffffffffffff1673ffffffffffffffffffffffffffffffffffffffff16815260200190815260200160002060010160036101000a81548160ff02191690831515021790555081600560008873ffffffffffffffffffffffffffffffffffffffff1673ffffffffffffffffffffffffffffffffffffffff16815260200190815260200160002060010160026101000a81548160ff02191690831515021790555080600560008873ffffffffffffffffffffffffffffffffffffffff1673ffffffffffffffffffffffffffffffffffffffff1681526020019081526020016000206000019080519060200190612e09929190614432565b507fa2878f598d393afb52a0a1316c9e0f81b8019f37b9f811016912dbc0768fff3e33878787878787604051808873ffffffffffffffffffffffffffffffffffffffff1673ffffffffffffffffffffffffffffffffffffffff1681526020018773ffffffffffffffffffffffffffffffffffffffff1673ffffffffffffffffffffffffffffffffffffffff1681526020018615151515815260200185151515158152602001841515151581526020018315151515815260200180602001828103825283818151815260200191508051906020019080838360005b83811015612efe578082015181840152602081019050612ee3565b50505050905090810190601f168015612f2b5780820380516001836020036101000a031916815260200191505b509850505050505050505060405180910390a1505050505050565b6004602052806000526040600020600091509050806000018054600181600116156101000203166002900480601f016020809104026020016040519081016040528092919081815260200182805460018160011615610100020316600290048015612ff25780601f10612fc757610100808354040283529160200191612ff2565b820191906000526020600020905b815481529060010190602001808311612fd557829003601f168201915b5050505050908060010160009054906101000a900460ff16908060010160019054906101000a900460ff16908060020154905084565b600460003373ffffffffffffffffffffffffffffffffffffffff1673ffffffffffffffffffffffffffffffffffffffff16815260200190815260200160002060010160009054906101000a900460ff1680156130d05750600460003373ffffffffffffffffffffffffffffffffffffffff1673ffffffffffffffffffffffffffffffffffffffff16815260200190815260200160002060010160019054906101000a900460ff165b15156130db57600080fd5b84806130e45750835b806130ec5750825b806130f45750815b15156130ff57600080fd5b61310887611d48565b6131168686868686866129b7565b50505050505050565b6000806000600160029054906101000a900460ff16600160039054906101000a900460ff16600254925092509250909192565b6000600a80549050905090565b600160029054906101000a900460ff1681565b60088181548110151561318157fe5b906000526020600020016000915054906101000a900473ffffffffffffffffffffffffffffffffffffffff1681565b6060600880548060200260200160405190810160405280929190818152602001828054801561323457602002820191906000526020600020905b8160009054906101000a900473ffffffffffffffffffffffffffffffffffffffff1673ffffffffffffffffffffffffffffffffffffffff16815260200190600101908083116131ea575b5050505050905090565b600460003373ffffffffffffffffffffffffffffffffffffffff1673ffffffffffffffffffffffffffffffffffffffff16815260200190815260200160002060010160009054906101000a900460ff1680156132e65750600460003373ffffffffffffffffffffffffffffffffffffffff1673ffffffffffffffffffffffffffffffffffffffff16815260200190815260200160002060010160019054906101000a900460ff165b15156132f157600080fd5b8060039080519060200190613307929190614432565b507f56a4dccb4f272cec4bf47cc5d2172996c2c9bcca52a9b625019901cd9f7933f23382604051808373ffffffffffffffffffffffffffffffffffffffff1673ffffffffffffffffffffffffffffffffffffffff16815260200180602001828103825283818151815260200191508051906020019080838360005b8381101561339d578082015181840152602081019050613382565b50505050905090810190601f1680156133ca5780820380516001836020036101000a031916815260200191505b50935050505060405180910390a150565b600460003373ffffffffffffffffffffffffffffffffffffffff1673ffffffffffffffffffffffffffffffffffffffff16815260200190815260200160002060010160009054906101000a900460ff16151561343657600080fd5b600460008573ffffffffffffffffffffffffffffffffffffffff1673ffffffffffffffffffffffffffffffffffffffff16815260200190815260200160002060010160009054906101000a900460ff161580156134e05750600460008573ffffffffffffffffffffffffffffffffffffffff1673ffffffffffffffffffffffffffffffffffffffff16815260200190815260200160002060010160019054906101000a900460ff16155b15156134eb57600080fd5b82806134f45750815b15156134ff57600080fd5b600160088590806001815401808255809150509060018203906000526020600020016000909192909190916101000a81548173ffffffffffffffffffffffffffffffffffffffff021916908373ffffffffffffffffffffffffffffffffffffffff16021790555003600460008673ffffffffffffffffffffffffffffffffffffffff1673ffffffffffffffffffffffffffffffffffffffff1681526020019081526020016000206002018190555082600460008673ffffffffffffffffffffffffffffffffffffffff1673ffffffffffffffffffffffffffffffffffffffff16815260200190815260200160002060010160006101000a81548160ff02191690831515021790555081600460008673ffffffffffffffffffffffffffffffffffffffff1673ffffffffffffffffffffffffffffffffffffffff16815260200190815260200160002060010160016101000a81548160ff02191690831515021790555080600460008673ffffffffffffffffffffffffffffffffffffffff1673ffffffffffffffffffffffffffffffffffffffff16815260200190815260200160002060000190805190602001906136b7929190614432565b507fb527c33e3cc4951b2cdc9a7eb45b7635a0b511688f180b982ad3b25e409596003385858585604051808673ffffffffffffffffffffffffffffffffffffffff1673ffffffffffffffffffffffffffffffffffffffff1681526020018573ffffffffffffffffffffffffffffffffffffffff1673ffffffffffffffffffffffffffffffffffffffff168152602001841515151581526020018315151515815260200180602001828103825283818151815260200191508051906020019080838360005b8381101561379657808201518184015260208101905061377b565b50505050905090810190601f1680156137c35780820380516001836020036101000a031916815260200191505b50965050505050505060405180910390a150505050565b60066020528060005260406000206000915054906101000a900460ff1681565b600560003373ffffffffffffffffffffffffffffffffffffffff1673ffffffffffffffffffffffffffffffffffffffff16815260200190815260200160002060010160019054906101000a900460ff1680156138a25750600560003373ffffffffffffffffffffffffffffffffffffffff1673ffffffffffffffffffffffffffffffffffffffff16815260200190815260200160002060010160009054906101000a900460ff165b15156138ad57600080fd5b60008573ffffffffffffffffffffffffffffffffffffffff1614151561392757600660008673ffffffffffffffffffffffffffffffffffffffff1673ffffffffffffffffffffffffffffffffffffffff16815260200190815260200160002060009054906101000a900460ff1615151561392657600080fd5b5b600060066000600a8981548110151561393c57fe5b906000526020600020906004020160010160009054906101000a900473ffffffffffffffffffffffffffffffffffffffff1673ffffffffffffffffffffffffffffffffffffffff1673ffffffffffffffffffffffffffffffffffffffff16815260200190815260200160002060006101000a81548160ff021916908315150217905550600060076000600a898154811015156139d457fe5b906000526020600020906004020160010160009054906101000a900473ffffffffffffffffffffffffffffffffffffffff1673ffffffffffffffffffffffffffffffffffffffff1673ffffffffffffffffffffffffffffffffffffffff168152602001908152602001600020819055507f5e8f1b7616df6c470e9f9feb6c689358bc178bd027b2ef7772ea3ae23ba7db8b33600a88815481101515613a7557fe5b906000526020600020906004020160010160009054906101000a900473ffffffffffffffffffffffffffffffffffffffff16600a89815481101515613ab657fe5b9060005260206000209060040201600001600a8a815481101515613ad657fe5b906000526020600020906004020160020154600a8b815481101515613af757fe5b906000526020600020906004020160030160009054906101000a900460ff16600a8c815481101515613b2557fe5b906000526020600020906004020160030160019054906101000a900460ff16604051808773ffffffffffffffffffffffffffffffffffffffff1673ffffffffffffffffffffffffffffffffffffffff1681526020018673ffffffffffffffffffffffffffffffffffffffff1673ffffffffffffffffffffffffffffffffffffffff1681526020018060200185600019166000191681526020018460ff1660ff1681526020018360ff1660ff168152602001828103825286818154600181600116156101000203166002900481526020019150805460018160011615610100020316600290048015613c575780601f10613c2c57610100808354040283529160200191613c57565b820191906000526020600020905b815481529060010190602001808311613c3a57829003601f168201915b505097505050505050505060405180910390a1600a86815481101515613c7957fe5b906000526020600020906004020160008082016000613c9891906144b2565b6001820160006101000a81549073ffffffffffffffffffffffffffffffffffffffff021916905560028201600090556003820160006101000a81549060ff02191690556003820160016101000a81549060ff0219169055505060a0604051908101604052808581526020018673ffffffffffffffffffffffffffffffffffffffff168152602001846000191681526020018360ff1681526020018260ff16815250600a87815481101515613d4857fe5b90600052602060002090600402016000820151816000019080519060200190613d729291906144fa565b5060208201518160010160006101000a81548173ffffffffffffffffffffffffffffffffffffffff021916908373ffffffffffffffffffffffffffffffffffffffff1602179055506040820151816002019060001916905560608201518160030160006101000a81548160ff021916908360ff16021790555060808201518160030160016101000a81548160ff021916908360ff1602179055509050506001600660008773ffffffffffffffffffffffffffffffffffffffff1673ffffffffffffffffffffffffffffffffffffffff16815260200190815260200160002060006101000a81548160ff02191690831515021790555085600760008773ffffffffffffffffffffffffffffffffffffffff1673ffffffffffffffffffffffffffffffffffffffff168152602001908152602001600020819055507ffd630a3c8211981eaa495106d3337d3e980ded0eb89a88643329e26a0dc5b053338686868686604051808773ffffffffffffffffffffffffffffffffffffffff1673ffffffffffffffffffffffffffffffffffffffff1681526020018673ffffffffffffffffffffffffffffffffffffffff1673ffffffffffffffffffffffffffffffffffffffff1681526020018060200185600019166000191681526020018460ff1660ff1681526020018360ff1660ff168152602001828103825286818151815260200191508051906020019080838360005b83811015613f9c578082015181840152602081019050613f81565b50505050905090810190601f168015613fc95780820380516001836020036101000a031916815260200191505b5097505050505050505060405180910390a1505050505050565b6000600660008373ffffffffffffffffffffffffffffffffffffffff1673ffffffffffffffffffffffffffffffffffffffff16815260200190815260200160002060009054906101000a900460ff169050919050565b606060098054806020026020016040519081016040528092919081815260200182805480156140bd57602002820191906000526020600020905b8160009054906101000a900473ffffffffffffffffffffffffffffffffffffffff1673ffffffffffffffffffffffffffffffffffffffff1681526020019060010190808311614073575b5050505050905090565b6060600080600080600a868154811015156140de57fe5b9060005260206000209060040201600001600a878154811015156140fe57fe5b906000526020600020906004020160010160009054906101000a900473ffffffffffffffffffffffffffffffffffffffff16600a8881548110151561413f57fe5b906000526020600020906004020160020154600a8981548110151561416057fe5b906000526020600020906004020160030160009054906101000a900460ff16600a8a81548110151561418e57fe5b906000526020600020906004020160030160019054906101000a900460ff16848054600181600116156101000203166002900480601f0160208091040260200160405190810160405280929190818152602001828054600181600116156101000203166002900480156142425780601f1061421757610100808354040283529160200191614242565b820191906000526020600020905b81548152906001019060200180831161422557829003601f168201915b505050505094509450945094509450945091939590929450565b600a8181548110151561426b57fe5b9060005260206000209060040201600091509050806000018054600181600116156101000203166002900480601f0160208091040260200160405190810160405280929190818152602001828054600181600116156101000203166002900480156143175780601f106142ec57610100808354040283529160200191614317565b820191906000526020600020905b8154815290600101906020018083116142fa57829003601f168201915b5050505050908060010160009054906101000a900473ffffffffffffffffffffffffffffffffffffffff16908060020154908060030160009054906101000a900460ff16908060030160019054906101000a900460ff16905085565b600160039054906101000a900460ff1681565b600080600460008473ffffffffffffffffffffffffffffffffffffffff1673ffffffffffffffffffffffffffffffffffffffff16815260200190815260200160002060010160009054906101000a900460ff16600460008573ffffffffffffffffffffffffffffffffffffffff1673ffffffffffffffffffffffffffffffffffffffff16815260200190815260200160002060010160019054906101000a900460ff1691509150915091565b828054600181600116156101000203166002900490600052602060002090601f016020900481019282601f1061447357805160ff19168380011785556144a1565b828001600101855582156144a1579182015b828111156144a0578251825591602001919060010190614485565b5b5090506144ae919061457a565b5090565b50805460018160011615610100020316600290046000825580601f106144d857506144f7565b601f0160209004906000526020600020908101906144f6919061457a565b5b50565b828054600181600116156101000203166002900490600052602060002090601f016020900481019282601f1061453b57805160ff1916838001178555614569565b82800160010185558215614569579182015b8281111561456857825182559160200191906001019061454d565b5b509050614576919061457a565b5090565b61459c91905b80821115614598576000816000905550600101614580565b5090565b905600a165627a7a72305820b34ed1731a2f9c6f8382b6a79f4b4d2530f3260f4d16abee8426a7a18f356f540029",
  "source": "pragma solidity ^0.4.11;\n\n/// @title Standard organ contract\n\n\nimport \"./Kelsen.sol\";\n\n\ncontract Organ is Kelsen{\n\n\n    // Declaring structures for different organ roles:\n    // Masters can add/remove admins\n    // Admins can add / remove norms\n    // Norms are sets of adresses, contracts or references gathered by the organ\n    bool public isAnOrgan = true;\n    bool public isAProcedure = false;\n    int public kelsenVersionNumber = 1;\n    string public organName;\n\n    struct Master {\n        string name; // Master name\n        bool canAdd;  // if true, master can add admins\n        bool canDelete;  // if true, master can delete admins\n        uint rankInMasterList; // Rank in dynamic array masterList\n\n    }\n\n    struct Admin {\n        string name; // Admin name\n        bool canAdd;  // if true, Admin can add norms\n        bool canDelete;  // if true, Admin can delete norms\n        bool canSpend;\n        bool canDeposit;\n        uint rankInAdminList; // Rank in dynamic array adminList\n    }\n\n    struct Norm {\n        string name; // Master name\n        address normAddress; // Address if norm is a member or a contract\n        bytes32 ipfsHash; // ID of proposal on IPFS\n        uint8 hash_function;\n        uint8 size;\n    }\n\n    // Events\n    // Organ management events\n    event changeOrganName(address _from, string _newName);\n    event spendMoney(address _from, address _to, uint256 _amount);\n    event receiveMoney(address _from, uint256 _amount);\n\n    // Master management events\n    event addMasterEvent(address _from, address _newMaster, bool _canAdd, bool _canDelete, string _name);\n    event remMasterEvent(address _from, address _masterToRemove);\n\n    // Admin management events\n    event addAdminEvent(address _from, address _newAdmin, bool _canAdd, bool _canDelete, bool _canDeposit, bool _canSpend, string _name);\n    event remAdminEvent(address _from, address _adminToRemove);\n\n    // Norm management events\n    event addNormEvent(address _from, address _normAddress, string _name, bytes32 _ipfsHash, uint8 _hash_function, uint8 _size);\n    event remNormEvent(address _from, address _normAddress, string _name, bytes32 _ipfsHash, uint8 _hash_function, uint8 _size);\n\n\n\n    // This declares two state variable that\n    // stores a `Master` and a 'admin' struct for each possible address.\n    mapping(address => Master) public masters;\n    mapping(address => Admin) public admins;\n\n    // One mapping to signal adresses that are included in norms\n    mapping(address => bool) public isAddressInNorms;\n    // One mapping to track norm position of each address. Careful, each address is tracked only once here\n    mapping(address => uint) public addressPositionInNorms;\n\n    // This declares two dynamically-sized array of `Admin` and 'Master' structs for easy referencing.\n    address[] public masterList;\n    address[] public adminList;\n\n    // A dynamically-sized array of `Norm` structs.\n    Norm[] public norms;\n\n\n    // Keeping track of active norms\n    uint256 public activeNormNumber;\n\n    // ################# Organ managing functions\n\n    function setName(string _name) public {\n        // Check sender is allowed\n        require((masters[msg.sender].canAdd) && (masters[msg.sender].canDelete));\n        organName = _name;\n        emit changeOrganName(msg.sender, _name);\n    }\n        // Money managing function\n    function () public payable {\n        require(admins[msg.sender].canDeposit);\n        emit receiveMoney(msg.sender, msg.value);\n\n\n    }\n    function payout(address _to, uint _value) public {\n        require(admins[msg.sender].canSpend);\n        _to.transfer(_value);\n        emit spendMoney(msg.sender, _to, _value);\n\n    }\n\n    // ################# Master managing functions\n\n    function addMaster(address _newMasterAddress, bool _canAdd, bool _canDelete, string _name) public{\n        // Check that the sender is allowed\n        require((masters[msg.sender].canAdd));\n        // Check new master is not already a master\n        require((!masters[_newMasterAddress].canAdd) && (!masters[_newMasterAddress].canDelete));\n\n        // Check new master has at least one permission activated\n        require(_canAdd || _canDelete);\n\n        // Adding master to master list and retrieving position\n        masters[_newMasterAddress].rankInMasterList = masterList.push(_newMasterAddress) - 1;\n\n        // Creating master privileges\n        masters[_newMasterAddress].canAdd = _canAdd;\n        masters[_newMasterAddress].canDelete = _canDelete;\n        masters[_newMasterAddress].name = _name;\n        emit addMasterEvent(msg.sender, _newMasterAddress, _canAdd, _canDelete, _name);\n\n    }\n\n    function replaceMaster(address _masterToRemove, address _masterToAdd, bool _canAdd, bool _canDelete, string _name) public {\n        // Check sender is allowed\n        require((masters[msg.sender].canAdd) && (masters[msg.sender].canDelete));\n        // Check new master has at least one permission activated\n        require(_canAdd || _canDelete);\n\n        // Check if we are replacing a master with another, or if we are modifying permissions\n        if (_masterToRemove != _masterToAdd)\n        {\n            // Replacing a master\n            addMaster(_masterToAdd, _canAdd, _canDelete, _name);\n            remMaster(_masterToRemove);\n        }\n\n        else\n        {\n            // Modifying permissions\n            \n\n            // Triggering events\n            emit remMasterEvent(msg.sender, _masterToRemove);\n            emit addMasterEvent(msg.sender, _masterToAdd, _canAdd, _canDelete, _name);\n\n            //Modifying permissions\n            masters[_masterToRemove].canAdd = _canAdd;\n            masters[_masterToRemove].canDelete = _canDelete;\n            masters[_masterToRemove].name = _name;\n\n        }\n\n\n    }\n    function remMaster(address _masterToRemove) public {\n        // Check sender is allowed\n        require((masters[msg.sender].canDelete));\n        // Check affected account is a master\n        require((masters[_masterToRemove].canDelete) || (masters[_masterToRemove].canAdd) );\n        // Deleting entry in masterList\n        delete masterList[masters[_masterToRemove].rankInMasterList];\n        // Deleting master privileges\n        delete masters[_masterToRemove];\n        emit remMasterEvent(msg.sender, _masterToRemove);\n    }\n\n    // ################# Admin managing functions\n\n    function addAdmin(address _newAdminAddress, bool _canAdd, bool _canDelete, bool _canDeposit, bool _canSpend, string _name) public {\n        // Check the sender is allowed\n        require((masters[msg.sender].canAdd));\n        // Check new admin is not already an admin\n        require((!admins[_newAdminAddress].canAdd) && (!admins[_newAdminAddress].canDelete) && (!admins[_newAdminAddress].canDeposit) && (!admins[_newAdminAddress].canSpend));\n\n        // Check new admin has at least one permission activated\n        require(_canAdd || _canDelete || _canDeposit || _canSpend);\n\n        // Adding admin to admin list and retrieving position\n        admins[_newAdminAddress].rankInAdminList = adminList.push(_newAdminAddress) - 1;\n\n        // Creating master privileges\n        admins[_newAdminAddress].canAdd = _canAdd;\n        admins[_newAdminAddress].canDelete = _canDelete;\n        admins[_newAdminAddress].canDeposit = _canDeposit;\n        admins[_newAdminAddress].canSpend = _canSpend;\n        admins[_newAdminAddress].name = _name;\n        emit addAdminEvent(msg.sender, _newAdminAddress,  _canAdd,  _canDelete,  _canDeposit,  _canSpend,  _name);\n   \n    }\n\n    function replaceAdmin(address _adminToRemove, address _adminToAdd, bool _canAdd, bool _canDelete, bool _canDeposit, bool _canSpend, string _name) public {\n        // Check sender is allowed\n        require((masters[msg.sender].canAdd) && (masters[msg.sender].canDelete));\n        // Check new admin has at least one permission activated\n        require(_canAdd || _canDelete || _canDeposit || _canSpend);\n        \n        remAdmin(_adminToRemove);\n        addAdmin(_adminToAdd, _canAdd, _canDelete, _canDeposit, _canSpend, _name);\n\n    }\n\n    function remAdmin(address _adminToRemove) public {\n        // Check sender is allowed\n        require((masters[msg.sender].canDelete));\n        // Check affected account is admin\n        require((admins[_adminToRemove].canDelete) || (admins[_adminToRemove].canAdd) );\n        // Deleting entry in adminList\n        delete adminList[admins[_adminToRemove].rankInAdminList];\n        // Deleting admin privileges\n        delete admins[_adminToRemove];\n\n        emit remAdminEvent(msg.sender, _adminToRemove);\n\n    }\n\n    // ################# Norms managing functions\n\n    function addNorm (address _normAddress, string _name, bytes32 _ipfsHash, uint8 _hash_function, uint8 _size) public  returns (uint _normPosition)\n    {\n        // Check sender is allowed\n        require(admins[msg.sender].canAdd);\n\n        // If the norm has an address, we check that the address has not been used before.\n        if (_normAddress != 0x0000) { require(!isAddressInNorms[_normAddress]);}\n\n        // Adding the norm\n        norms.push(Norm({\n                name: _name,\n                normAddress: _normAddress,\n                ipfsHash: _ipfsHash,\n                hash_function: _hash_function,\n                size: _size\n            }));\n        // Registering norm position relative to its address\n        addressPositionInNorms[_normAddress] = norms.length -1;\n        // Incrementing active norm number and total norm number trackers\n        activeNormNumber = activeNormNumber + 1;\n        emit addNormEvent(msg.sender, _normAddress,  _name,  _ipfsHash,  _hash_function,  _size);\n\n        // Registering the address as active\n        isAddressInNorms[_normAddress] = true;\n        return addressPositionInNorms[_normAddress] ;\n    }\n\n    function replaceNorm (uint _normNumber, address _normAddress, string _name, bytes32 _ipfsHash, uint8 _hash_function, uint8 _size) public\n    {\n        require((admins[msg.sender].canDelete) && (admins[msg.sender].canAdd));\n        if (_normAddress != 0x0000) { require(!isAddressInNorms[_normAddress]);}\n        isAddressInNorms[norms[_normNumber].normAddress] = false;\n        addressPositionInNorms[norms[_normNumber].normAddress] = 0;\n        emit remNormEvent(msg.sender, norms[_normNumber].normAddress, norms[_normNumber].name, norms[_normNumber].ipfsHash,  norms[_normNumber].hash_function,  norms[_normNumber].size);\n\n        delete norms[_normNumber];\n        norms[_normNumber] = Norm({\n                name: _name,\n                normAddress: _normAddress,\n                ipfsHash: _ipfsHash,\n                hash_function: _hash_function,\n                size: _size\n            });\n        isAddressInNorms[_normAddress] = true;\n        addressPositionInNorms[_normAddress] = _normNumber;\n        emit addNormEvent(msg.sender, _normAddress,  _name,  _ipfsHash,  _hash_function,  _size);\n\n    }\n\n    function remNorm (uint _normNumber) public\n    {\n        // Check sender is allowed:\n        // - Sender is admin\n        // - Norm number is trying to delete himself\n        require(admins[msg.sender].canDelete || (isAddressInNorms[msg.sender] && msg.sender == norms[_normNumber].normAddress));\n        // Deleting norm position from addressPositionInNorms\n        delete addressPositionInNorms[norms[_normNumber].normAddress];\n        // Marking address as deactivated from isAddressInNorms\n        isAddressInNorms[norms[_normNumber].normAddress] = false;\n        // Logging event\n        emit remNormEvent(msg.sender, norms[_normNumber].normAddress, norms[_normNumber].name, norms[_normNumber].ipfsHash,  norms[_normNumber].hash_function,  norms[_normNumber].size);\n\n        // Removing norm from norms\n        delete norms[_normNumber];\n        activeNormNumber = activeNormNumber - 1;\n\n\n    }\n\n    //////////////////////// Functions to communicate with other contracts\n    // Checking individual addresses\n    function isMaster (address _adressToCheck) public view returns (bool canAdd, bool canDelete) {\n        return (masters[_adressToCheck].canAdd, masters[_adressToCheck].canDelete);\n    }\n    function isAdmin (address _adressToCheck) public view returns (bool canAdd, bool canDelete) {\n        return (admins[_adressToCheck].canAdd, admins[_adressToCheck].canDelete);\n    }\n    function isNorm (address _adressToCheck) public view returns (bool isAddressInNorm) {\n        return isAddressInNorms[_adressToCheck];\n    }\n    function isMoneyManager(address _adressToCheck) public view returns (bool canDeposit, bool canSpend){\n        return (admins[_adressToCheck].canDeposit, admins[_adressToCheck].canSpend);\n    }\n    // Retrieve contract state info\n    // Number of active norms (voter pool size for voter registering, for example)\n    function getActiveNormNumber() public view returns (uint _activeNormNumber){\n        return activeNormNumber;\n    }\n    // Size of norm array, to list elements\n    function getNormListSize() public view returns (uint normArraySize){\n        return norms.length;\n    }\n    function getAddressPositionInNorm(address _addressToCheck) public view returns (uint addressInNormPosition){\n        return addressPositionInNorms[_addressToCheck];\n    }\n    function getSingleNorm(uint _desiredNormPosition) public view returns (string name, address normAddress, bytes32 ipfsHash, uint8 hash_function, uint8 size){\n        return (norms[_desiredNormPosition].name, norms[_desiredNormPosition].normAddress, norms[_desiredNormPosition].ipfsHash, norms[_desiredNormPosition].hash_function, norms[_desiredNormPosition].size);\n    }\n\n    // Retrieve lists of adresses\n    function getMasterList() public view returns (address[] _masterList){\n        return masterList;\n    }\n    function getAdminList() public view returns (address[] _adminList){\n        return adminList;\n    }\n    function getKelsenVersion() public view returns(bool _isAnOrgan, bool _isAProcedure, int _versionNumber)\n    {\n\n        return (isAnOrgan, isAProcedure, kelsenVersionNumber);\n\n    }\n\n\n\n}",
  "sourcePath": "/Users/henrilieutaud/Documents/Mes documents/ESILV/Blockchain Programmation/solidity-101/contracts/utils/Kelsen/standardOrgan.sol",
  "compiler": {
    "name": "solc",
    "version": "0.4.24+commit.e67f0147.Emscripten.clang"
  },
  "schemaVersion": "2.0.1",
  "updatedAt": "2018-12-05T15:24:08.624Z"
}