{
  "contractName": "organLibrary",
  "abi": [
    {
      "anonymous": false,
      "inputs": [
        {
          "indexed": false,
          "name": "_from",
          "type": "address"
        },
        {
          "indexed": false,
          "name": "_newName",
          "type": "bytes32"
        }
      ],
      "name": "changeOrganName",
      "type": "event"
    },
    {
      "anonymous": false,
      "inputs": [
        {
          "indexed": false,
          "name": "_from",
          "type": "address"
        },
        {
          "indexed": false,
          "name": "_to",
          "type": "address"
        },
        {
          "indexed": false,
          "name": "_amount",
          "type": "uint256"
        }
      ],
      "name": "spendMoney",
      "type": "event"
    },
    {
      "anonymous": false,
      "inputs": [
        {
          "indexed": false,
          "name": "_from",
          "type": "address"
        },
        {
          "indexed": false,
          "name": "_amount",
          "type": "uint256"
        }
      ],
      "name": "receiveMoney",
      "type": "event"
    },
    {
      "anonymous": false,
      "inputs": [
        {
          "indexed": false,
          "name": "_from",
          "type": "address"
        },
        {
          "indexed": false,
          "name": "_newMaster",
          "type": "address"
        },
        {
          "indexed": false,
          "name": "_canAdd",
          "type": "bool"
        },
        {
          "indexed": false,
          "name": "_canDelete",
          "type": "bool"
        }
      ],
      "name": "addMasterEvent",
      "type": "event"
    },
    {
      "anonymous": false,
      "inputs": [
        {
          "indexed": false,
          "name": "_from",
          "type": "address"
        },
        {
          "indexed": false,
          "name": "_masterToRemove",
          "type": "address"
        }
      ],
      "name": "remMasterEvent",
      "type": "event"
    },
    {
      "anonymous": false,
      "inputs": [
        {
          "indexed": false,
          "name": "_from",
          "type": "address"
        },
        {
          "indexed": false,
          "name": "_newAdmin",
          "type": "address"
        },
        {
          "indexed": false,
          "name": "_canAdd",
          "type": "bool"
        },
        {
          "indexed": false,
          "name": "_canDelete",
          "type": "bool"
        },
        {
          "indexed": false,
          "name": "_canDeposit",
          "type": "bool"
        },
        {
          "indexed": false,
          "name": "_canSpend",
          "type": "bool"
        }
      ],
      "name": "addAdminEvent",
      "type": "event"
    },
    {
      "anonymous": false,
      "inputs": [
        {
          "indexed": false,
          "name": "_from",
          "type": "address"
        },
        {
          "indexed": false,
          "name": "_adminToRemove",
          "type": "address"
        }
      ],
      "name": "remAdminEvent",
      "type": "event"
    },
    {
      "anonymous": false,
      "inputs": [
        {
          "indexed": false,
          "name": "_from",
          "type": "address"
        },
        {
          "indexed": false,
          "name": "_normAddress",
          "type": "address"
        },
        {
          "indexed": false,
          "name": "_ipfsHash",
          "type": "bytes32"
        },
        {
          "indexed": false,
          "name": "_hash_function",
          "type": "uint8"
        },
        {
          "indexed": false,
          "name": "_size",
          "type": "uint8"
        }
      ],
      "name": "addNormEvent",
      "type": "event"
    },
    {
      "anonymous": false,
      "inputs": [
        {
          "indexed": false,
          "name": "_from",
          "type": "address"
        },
        {
          "indexed": false,
          "name": "_normAddress",
          "type": "address"
        },
        {
          "indexed": false,
          "name": "_ipfsHash",
          "type": "bytes32"
        },
        {
          "indexed": false,
          "name": "_hash_function",
          "type": "uint8"
        },
        {
          "indexed": false,
          "name": "_size",
          "type": "uint8"
        }
      ],
      "name": "remNormEvent",
      "type": "event"
    },
    {
      "constant": false,
      "inputs": [
        {
          "name": "self",
          "type": "organLibrary.OrganInfo storage"
        },
        {
          "name": "_organName",
          "type": "bytes32"
        }
      ],
      "name": "initOrganLib",
      "outputs": [],
      "payable": false,
      "stateMutability": "nonpayable",
      "type": "function"
    },
    {
      "constant": false,
      "inputs": [
        {
          "name": "self",
          "type": "organLibrary.OrganInfo storage"
        },
        {
          "name": "_organName",
          "type": "bytes32"
        }
      ],
      "name": "setNameLib",
      "outputs": [],
      "payable": false,
      "stateMutability": "nonpayable",
      "type": "function"
    },
    {
      "constant": false,
      "inputs": [
        {
          "name": "self",
          "type": "organLibrary.OrganInfo storage"
        }
      ],
      "name": "payInLib",
      "outputs": [],
      "payable": false,
      "stateMutability": "nonpayable",
      "type": "function"
    },
    {
      "constant": false,
      "inputs": [
        {
          "name": "self",
          "type": "organLibrary.OrganInfo storage"
        },
        {
          "name": "_to",
          "type": "address"
        },
        {
          "name": "_value",
          "type": "uint256"
        }
      ],
      "name": "payoutLib",
      "outputs": [],
      "payable": false,
      "stateMutability": "nonpayable",
      "type": "function"
    },
    {
      "constant": false,
      "inputs": [
        {
          "name": "self",
          "type": "organLibrary.OrganInfo storage"
        },
        {
          "name": "_newMasterAddress",
          "type": "address"
        },
        {
          "name": "_canAdd",
          "type": "bool"
        },
        {
          "name": "_canDelete",
          "type": "bool"
        }
      ],
      "name": "addMasterLib",
      "outputs": [],
      "payable": false,
      "stateMutability": "nonpayable",
      "type": "function"
    },
    {
      "constant": false,
      "inputs": [
        {
          "name": "self",
          "type": "organLibrary.OrganInfo storage"
        },
        {
          "name": "_masterToRemove",
          "type": "address"
        }
      ],
      "name": "remMasterLib",
      "outputs": [],
      "payable": false,
      "stateMutability": "nonpayable",
      "type": "function"
    },
    {
      "constant": false,
      "inputs": [
        {
          "name": "self",
          "type": "organLibrary.OrganInfo storage"
        },
        {
          "name": "_masterToRemove",
          "type": "address"
        },
        {
          "name": "_masterToAdd",
          "type": "address"
        },
        {
          "name": "_canAdd",
          "type": "bool"
        },
        {
          "name": "_canDelete",
          "type": "bool"
        }
      ],
      "name": "replaceMasterLib",
      "outputs": [],
      "payable": false,
      "stateMutability": "nonpayable",
      "type": "function"
    },
    {
      "constant": false,
      "inputs": [
        {
          "name": "self",
          "type": "organLibrary.OrganInfo storage"
        },
        {
          "name": "_newAdminAddress",
          "type": "address"
        },
        {
          "name": "_canAdd",
          "type": "bool"
        },
        {
          "name": "_canDelete",
          "type": "bool"
        },
        {
          "name": "_canDeposit",
          "type": "bool"
        },
        {
          "name": "_canSpend",
          "type": "bool"
        }
      ],
      "name": "addAdminLib",
      "outputs": [],
      "payable": false,
      "stateMutability": "nonpayable",
      "type": "function"
    },
    {
      "constant": false,
      "inputs": [
        {
          "name": "self",
          "type": "organLibrary.OrganInfo storage"
        },
        {
          "name": "_adminToRemove",
          "type": "address"
        }
      ],
      "name": "remAdminLib",
      "outputs": [],
      "payable": false,
      "stateMutability": "nonpayable",
      "type": "function"
    },
    {
      "constant": false,
      "inputs": [
        {
          "name": "self",
          "type": "organLibrary.OrganInfo storage"
        },
        {
          "name": "_adminToRemove",
          "type": "address"
        },
        {
          "name": "_adminToAdd",
          "type": "address"
        },
        {
          "name": "_canAdd",
          "type": "bool"
        },
        {
          "name": "_canDelete",
          "type": "bool"
        },
        {
          "name": "_canDeposit",
          "type": "bool"
        },
        {
          "name": "_canSpend",
          "type": "bool"
        }
      ],
      "name": "replaceAdminLib",
      "outputs": [],
      "payable": false,
      "stateMutability": "nonpayable",
      "type": "function"
    },
    {
      "constant": false,
      "inputs": [
        {
          "name": "self",
          "type": "organLibrary.OrganInfo storage"
        },
        {
          "name": "_normAddress",
          "type": "address"
        },
        {
          "name": "_ipfsHash",
          "type": "bytes32"
        },
        {
          "name": "_hash_function",
          "type": "uint8"
        },
        {
          "name": "_size",
          "type": "uint8"
        }
      ],
      "name": "addNormLib",
      "outputs": [
        {
          "name": "_normPosition",
          "type": "uint256"
        }
      ],
      "payable": false,
      "stateMutability": "nonpayable",
      "type": "function"
    },
    {
      "constant": false,
      "inputs": [
        {
          "name": "self",
          "type": "organLibrary.OrganInfo storage"
        },
        {
          "name": "_normNumber",
          "type": "uint256"
        }
      ],
      "name": "remNormLib",
      "outputs": [],
      "payable": false,
      "stateMutability": "nonpayable",
      "type": "function"
    },
    {
      "constant": false,
      "inputs": [
        {
          "name": "self",
          "type": "organLibrary.OrganInfo storage"
        },
        {
          "name": "_normNumber",
          "type": "uint256"
        },
        {
          "name": "_normAddress",
          "type": "address"
        },
        {
          "name": "_ipfsHash",
          "type": "bytes32"
        },
        {
          "name": "_hash_function",
          "type": "uint8"
        },
        {
          "name": "_size",
          "type": "uint8"
        }
      ],
      "name": "replaceNormLib",
      "outputs": [],
      "payable": false,
      "stateMutability": "nonpayable",
      "type": "function"
    }
  ],
  "bytecode": "0x6128bc610030600b82828239805160001a6073146000811461002057610022565bfe5b5030600052607381538281f3fe73000000000000000000000000000000000000000030146080604052600436106100f6576000357c01000000000000000000000000000000000000000000000000000000009004806395ab6341116100b3578063c4be85a41161008d578063c4be85a4146104ae578063f163852314610537578063f96257cc146105c2578063fad7b3841461061d576100f6565b806395ab634114610323578063bd25fc15146103b6578063c0a9a96414610449576100f6565b806313c938a7146100fb57806313d6a0cb146101405780633d579bd3146101855780634d8cd967146102305780634e6f396c146102a357806390253155146102e8575b600080fd5b81801561010757600080fd5b5061013e6004803603604081101561011e57600080fd5b810190808035906020019092919080359060200190929190505050610678565b005b81801561014c57600080fd5b506101836004803603604081101561016357600080fd5b8101908080359060200190929190803590602001909291905050506107a7565b005b81801561019157600080fd5b5061022e600480360360e08110156101a857600080fd5b8101908080359060200190929190803573ffffffffffffffffffffffffffffffffffffffff169060200190929190803573ffffffffffffffffffffffffffffffffffffffff169060200190929190803515159060200190929190803515159060200190929190803515159060200190929190803515159060200190929190505050610ba0565b005b81801561023c57600080fd5b506102a16004803603608081101561025357600080fd5b8101908080359060200190929190803573ffffffffffffffffffffffffffffffffffffffff169060200190929190803515159060200190929190803515159060200190929190505050610c9c565b005b8180156102af57600080fd5b506102e6600480360360408110156102c657600080fd5b810190808035906020019092919080359060200190929190505050610f33565b005b8180156102f457600080fd5b506103216004803603602081101561030b57600080fd5b81019080803590602001909291905050506110c9565b005b81801561032f57600080fd5b506103b4600480360360a081101561034657600080fd5b8101908080359060200190929190803573ffffffffffffffffffffffffffffffffffffffff169060200190929190803573ffffffffffffffffffffffffffffffffffffffff169060200190929190803515159060200190929190803515159060200190929190505050611194565b005b8180156103c257600080fd5b50610433600480360360a08110156103d957600080fd5b8101908080359060200190929190803573ffffffffffffffffffffffffffffffffffffffff16906020019092919080359060200190929190803560ff169060200190929190803560ff1690602001909291905050506114b5565b6040518082815260200191505060405180910390f35b81801561045557600080fd5b506104ac6004803603606081101561046c57600080fd5b8101908080359060200190929190803573ffffffffffffffffffffffffffffffffffffffff16906020019092919080359060200190929190505050611809565b005b8180156104ba57600080fd5b50610535600480360360c08110156104d157600080fd5b810190808035906020019092919080359060200190929190803573ffffffffffffffffffffffffffffffffffffffff16906020019092919080359060200190929190803560ff169060200190929190803560ff169060200190929190505050611951565b005b81801561054357600080fd5b506105c0600480360360c081101561055a57600080fd5b8101908080359060200190929190803573ffffffffffffffffffffffffffffffffffffffff169060200190929190803515159060200190929190803515159060200190929190803515159060200190929190803515159060200190929190505050611f0b565b005b8180156105ce57600080fd5b5061061b600480360360408110156105e557600080fd5b8101908080359060200190929190803573ffffffffffffffffffffffffffffffffffffffff16906020019092919050505061233a565b005b81801561062957600080fd5b506106766004803603604081101561064057600080fd5b8101908080359060200190929190803573ffffffffffffffffffffffffffffffffffffffff16906020019092919050505061262e565b005b8160020160003373ffffffffffffffffffffffffffffffffffffffff1673ffffffffffffffffffffffffffffffffffffffff16815260200190815260200160002060000160009054906101000a900460ff16801561072457508160020160003373ffffffffffffffffffffffffffffffffffffffff1673ffffffffffffffffffffffffffffffffffffffff16815260200190815260200160002060000160019054906101000a900460ff165b151561072f57600080fd5b8082600001819055507f133895c1c832b44ee3aab9909d2fd715c60ace0f02485202e5abe1d7fb1634f73382604051808373ffffffffffffffffffffffffffffffffffffffff1673ffffffffffffffffffffffffffffffffffffffff1681526020018281526020019250505060405180910390a15050565b8160030160003373ffffffffffffffffffffffffffffffffffffffff1673ffffffffffffffffffffffffffffffffffffffff16815260200190815260200160002060000160019054906101000a900460ff168061090157506000826005016000846004018481548110151561081857fe5b906000526020600020906003020160000160009054906101000a900473ffffffffffffffffffffffffffffffffffffffff1673ffffffffffffffffffffffffffffffffffffffff1673ffffffffffffffffffffffffffffffffffffffff16815260200190815260200160002054141580156109005750816004018181548110151561089f57fe5b906000526020600020906003020160000160009054906101000a900473ffffffffffffffffffffffffffffffffffffffff1673ffffffffffffffffffffffffffffffffffffffff163373ffffffffffffffffffffffffffffffffffffffff16145b5b151561090c57600080fd5b816005016000836004018381548110151561092357fe5b906000526020600020906003020160000160009054906101000a900473ffffffffffffffffffffffffffffffffffffffff1673ffffffffffffffffffffffffffffffffffffffff1673ffffffffffffffffffffffffffffffffffffffff168152602001908152602001600020600090557f64568118a19ad215abe2d686897fccabd012923c71c2685472af34b4e0676e3a3383600401838154811015156109c657fe5b906000526020600020906003020160000160009054906101000a900473ffffffffffffffffffffffffffffffffffffffff168460040184815481101515610a0957fe5b9060005260206000209060030201600101548560040185815481101515610a2c57fe5b906000526020600020906003020160020160009054906101000a900460ff168660040186815481101515610a5c57fe5b906000526020600020906003020160020160019054906101000a900460ff16604051808673ffffffffffffffffffffffffffffffffffffffff1673ffffffffffffffffffffffffffffffffffffffff1681526020018573ffffffffffffffffffffffffffffffffffffffff1673ffffffffffffffffffffffffffffffffffffffff1681526020018481526020018360ff1660ff1681526020018260ff1660ff1681526020019550505050505060405180910390a18160040181815481101515610b2157fe5b9060005260206000209060030201600080820160006101000a81549073ffffffffffffffffffffffffffffffffffffffff021916905560018201600090556002820160006101000a81549060ff02191690556002820160016101000a81549060ff02191690555050600182600101600082825403925050819055505050565b8660020160003373ffffffffffffffffffffffffffffffffffffffff1673ffffffffffffffffffffffffffffffffffffffff16815260200190815260200160002060000160009054906101000a900460ff168015610c4c57508660020160003373ffffffffffffffffffffffffffffffffffffffff1673ffffffffffffffffffffffffffffffffffffffff16815260200190815260200160002060000160019054906101000a900460ff165b1515610c5757600080fd5b8380610c605750825b80610c685750815b80610c705750805b1515610c7b57600080fd5b610c85878761233a565b610c93878686868686611f0b565b50505050505050565b8360020160003373ffffffffffffffffffffffffffffffffffffffff1673ffffffffffffffffffffffffffffffffffffffff16815260200190815260200160002060000160009054906101000a900460ff161515610cf957600080fd5b8360020160008473ffffffffffffffffffffffffffffffffffffffff1673ffffffffffffffffffffffffffffffffffffffff16815260200190815260200160002060000160009054906101000a900460ff16158015610da757508360020160008473ffffffffffffffffffffffffffffffffffffffff1673ffffffffffffffffffffffffffffffffffffffff16815260200190815260200160002060000160019054906101000a900460ff16155b1515610db257600080fd5b8180610dbb5750805b1515610dc657600080fd5b818460020160008573ffffffffffffffffffffffffffffffffffffffff1673ffffffffffffffffffffffffffffffffffffffff16815260200190815260200160002060000160006101000a81548160ff021916908315150217905550808460020160008573ffffffffffffffffffffffffffffffffffffffff1673ffffffffffffffffffffffffffffffffffffffff16815260200190815260200160002060000160016101000a81548160ff0219169083151502179055507fc6bf01a203024da6c2267ec8f9524f39ae64470f6ceec9cb9b05e3bc78ce898d33848484604051808573ffffffffffffffffffffffffffffffffffffffff1673ffffffffffffffffffffffffffffffffffffffff1681526020018473ffffffffffffffffffffffffffffffffffffffff1673ffffffffffffffffffffffffffffffffffffffff168152602001831515151581526020018215151515815260200194505050505060405180910390a150505050565b60018260020160003373ffffffffffffffffffffffffffffffffffffffff1673ffffffffffffffffffffffffffffffffffffffff16815260200190815260200160002060000160006101000a81548160ff02191690831515021790555060018260020160003373ffffffffffffffffffffffffffffffffffffffff1673ffffffffffffffffffffffffffffffffffffffff16815260200190815260200160002060000160016101000a81548160ff021916908315150217905550808260000181905550610ffe612848565b82600401819080600181540180825580915050906001820390600052602060002090600302016000909192909190915060008201518160000160006101000a81548173ffffffffffffffffffffffffffffffffffffffff021916908373ffffffffffffffffffffffffffffffffffffffff1602179055506020820151816001015560408201518160020160006101000a81548160ff021916908360ff16021790555060608201518160020160016101000a81548160ff021916908360ff160217905550505050505050565b8060030160003373ffffffffffffffffffffffffffffffffffffffff1673ffffffffffffffffffffffffffffffffffffffff16815260200190815260200160002060000160039054906101000a900460ff16151561112657600080fd5b7fe8e8caa49c00808ca0e50595f43e7fc4e3a4286edfd5ad4de7ab640742e1fb223334604051808373ffffffffffffffffffffffffffffffffffffffff1673ffffffffffffffffffffffffffffffffffffffff1681526020018281526020019250505060405180910390a150565b8460020160003373ffffffffffffffffffffffffffffffffffffffff1673ffffffffffffffffffffffffffffffffffffffff16815260200190815260200160002060000160009054906101000a900460ff16801561124057508460020160003373ffffffffffffffffffffffffffffffffffffffff1673ffffffffffffffffffffffffffffffffffffffff16815260200190815260200160002060000160019054906101000a900460ff165b151561124b57600080fd5b81806112545750805b151561125f57600080fd5b8273ffffffffffffffffffffffffffffffffffffffff168473ffffffffffffffffffffffffffffffffffffffff161415156112af576112a085848484610c9c565b6112aa858561262e565b6114ae565b7f31cf2b8264326b61eebefe150df927acfc3396b2c609d77aa05ef4bc570ac23c3385604051808373ffffffffffffffffffffffffffffffffffffffff1673ffffffffffffffffffffffffffffffffffffffff1681526020018273ffffffffffffffffffffffffffffffffffffffff1673ffffffffffffffffffffffffffffffffffffffff1681526020019250505060405180910390a17fc6bf01a203024da6c2267ec8f9524f39ae64470f6ceec9cb9b05e3bc78ce898d33848484604051808573ffffffffffffffffffffffffffffffffffffffff1673ffffffffffffffffffffffffffffffffffffffff1681526020018473ffffffffffffffffffffffffffffffffffffffff1673ffffffffffffffffffffffffffffffffffffffff168152602001831515151581526020018215151515815260200194505050505060405180910390a1818560020160008673ffffffffffffffffffffffffffffffffffffffff1673ffffffffffffffffffffffffffffffffffffffff16815260200190815260200160002060000160006101000a81548160ff021916908315150217905550808560020160008673ffffffffffffffffffffffffffffffffffffffff1673ffffffffffffffffffffffffffffffffffffffff16815260200190815260200160002060000160016101000a81548160ff0219169083151502179055505b5050505050565b60008560030160003373ffffffffffffffffffffffffffffffffffffffff1673ffffffffffffffffffffffffffffffffffffffff16815260200190815260200160002060000160009054906101000a900460ff16151561151457600080fd5b600073ffffffffffffffffffffffffffffffffffffffff168573ffffffffffffffffffffffffffffffffffffffff1614151561159b5760008660050160008773ffffffffffffffffffffffffffffffffffffffff1673ffffffffffffffffffffffffffffffffffffffff1681526020019081526020016000205414151561159a57600080fd5b5b856004016080604051908101604052808773ffffffffffffffffffffffffffffffffffffffff1681526020018681526020018560ff1681526020018460ff168152509080600181540180825580915050906001820390600052602060002090600302016000909192909190915060008201518160000160006101000a81548173ffffffffffffffffffffffffffffffffffffffff021916908373ffffffffffffffffffffffffffffffffffffffff1602179055506020820151816001015560408201518160020160006101000a81548160ff021916908360ff16021790555060608201518160020160016101000a81548160ff021916908360ff16021790555050505060018660040180549050038660050160008773ffffffffffffffffffffffffffffffffffffffff1673ffffffffffffffffffffffffffffffffffffffff16815260200190815260200160002081905550600186600101600082825401925050819055507fd0c4b59ed6fb4a093e4bfcba88175d0d6443b50bf9717b95f697eca388314b363386868686604051808673ffffffffffffffffffffffffffffffffffffffff1673ffffffffffffffffffffffffffffffffffffffff1681526020018573ffffffffffffffffffffffffffffffffffffffff1673ffffffffffffffffffffffffffffffffffffffff1681526020018481526020018360ff1660ff1681526020018260ff1660ff1681526020019550505050505060405180910390a18560050160008673ffffffffffffffffffffffffffffffffffffffff1673ffffffffffffffffffffffffffffffffffffffff16815260200190815260200160002054905095945050505050565b8260030160003373ffffffffffffffffffffffffffffffffffffffff1673ffffffffffffffffffffffffffffffffffffffff16815260200190815260200160002060000160029054906101000a900460ff16151561186657600080fd5b8173ffffffffffffffffffffffffffffffffffffffff166108fc829081150290604051600060405180830381858888f193505050501580156118ac573d6000803e3d6000fd5b507f69ef4b1cb1e3f170e636a678eb5bdcc1a5220158859f5a6218483d81ed19c6ba338383604051808473ffffffffffffffffffffffffffffffffffffffff1673ffffffffffffffffffffffffffffffffffffffff1681526020018373ffffffffffffffffffffffffffffffffffffffff1673ffffffffffffffffffffffffffffffffffffffff168152602001828152602001935050505060405180910390a1505050565b8560030160003373ffffffffffffffffffffffffffffffffffffffff1673ffffffffffffffffffffffffffffffffffffffff16815260200190815260200160002060000160019054906101000a900460ff1680156119fd57508560030160003373ffffffffffffffffffffffffffffffffffffffff1673ffffffffffffffffffffffffffffffffffffffff16815260200190815260200160002060000160009054906101000a900460ff165b1515611a0857600080fd5b600073ffffffffffffffffffffffffffffffffffffffff168473ffffffffffffffffffffffffffffffffffffffff16141515611a905760008660050160008673ffffffffffffffffffffffffffffffffffffffff1673ffffffffffffffffffffffffffffffffffffffff1681526020019081526020016000205414151515611a8f57600080fd5b5b60008660050160008860040188815481101515611aa957fe5b906000526020600020906003020160000160009054906101000a900473ffffffffffffffffffffffffffffffffffffffff1673ffffffffffffffffffffffffffffffffffffffff1673ffffffffffffffffffffffffffffffffffffffff168152602001908152602001600020819055507f64568118a19ad215abe2d686897fccabd012923c71c2685472af34b4e0676e3a338760040187815481101515611b4c57fe5b906000526020600020906003020160000160009054906101000a900473ffffffffffffffffffffffffffffffffffffffff168860040188815481101515611b8f57fe5b9060005260206000209060030201600101548960040189815481101515611bb257fe5b906000526020600020906003020160020160009054906101000a900460ff168a6004018a815481101515611be257fe5b906000526020600020906003020160020160019054906101000a900460ff16604051808673ffffffffffffffffffffffffffffffffffffffff1673ffffffffffffffffffffffffffffffffffffffff1681526020018573ffffffffffffffffffffffffffffffffffffffff1673ffffffffffffffffffffffffffffffffffffffff1681526020018481526020018360ff1660ff1681526020018260ff1660ff1681526020019550505050505060405180910390a18560040185815481101515611ca757fe5b9060005260206000209060030201600080820160006101000a81549073ffffffffffffffffffffffffffffffffffffffff021916905560018201600090556002820160006101000a81549060ff02191690556002820160016101000a81549060ff021916905550506080604051908101604052808573ffffffffffffffffffffffffffffffffffffffff1681526020018481526020018360ff1681526020018260ff168152508660040186815481101515611d5e57fe5b906000526020600020906003020160008201518160000160006101000a81548173ffffffffffffffffffffffffffffffffffffffff021916908373ffffffffffffffffffffffffffffffffffffffff1602179055506020820151816001015560408201518160020160006101000a81548160ff021916908360ff16021790555060608201518160020160016101000a81548160ff021916908360ff160217905550905050848660050160008673ffffffffffffffffffffffffffffffffffffffff1673ffffffffffffffffffffffffffffffffffffffff168152602001908152602001600020819055507fd0c4b59ed6fb4a093e4bfcba88175d0d6443b50bf9717b95f697eca388314b363385858585604051808673ffffffffffffffffffffffffffffffffffffffff1673ffffffffffffffffffffffffffffffffffffffff1681526020018573ffffffffffffffffffffffffffffffffffffffff1673ffffffffffffffffffffffffffffffffffffffff1681526020018481526020018360ff1660ff1681526020018260ff1660ff1681526020019550505050505060405180910390a1505050505050565b8560020160003373ffffffffffffffffffffffffffffffffffffffff1673ffffffffffffffffffffffffffffffffffffffff16815260200190815260200160002060000160009054906101000a900460ff161515611f6857600080fd5b8560030160008673ffffffffffffffffffffffffffffffffffffffff1673ffffffffffffffffffffffffffffffffffffffff16815260200190815260200160002060000160009054906101000a900460ff1615801561201657508560030160008673ffffffffffffffffffffffffffffffffffffffff1673ffffffffffffffffffffffffffffffffffffffff16815260200190815260200160002060000160019054906101000a900460ff16155b801561207157508560030160008673ffffffffffffffffffffffffffffffffffffffff1673ffffffffffffffffffffffffffffffffffffffff16815260200190815260200160002060000160039054906101000a900460ff16155b80156120cc57508560030160008673ffffffffffffffffffffffffffffffffffffffff1673ffffffffffffffffffffffffffffffffffffffff16815260200190815260200160002060000160029054906101000a900460ff16155b15156120d757600080fd5b83806120e05750825b806120e85750815b806120f05750805b15156120fb57600080fd5b838660030160008773ffffffffffffffffffffffffffffffffffffffff1673ffffffffffffffffffffffffffffffffffffffff16815260200190815260200160002060000160006101000a81548160ff021916908315150217905550828660030160008773ffffffffffffffffffffffffffffffffffffffff1673ffffffffffffffffffffffffffffffffffffffff16815260200190815260200160002060000160016101000a81548160ff021916908315150217905550818660030160008773ffffffffffffffffffffffffffffffffffffffff1673ffffffffffffffffffffffffffffffffffffffff16815260200190815260200160002060000160036101000a81548160ff021916908315150217905550808660030160008773ffffffffffffffffffffffffffffffffffffffff1673ffffffffffffffffffffffffffffffffffffffff16815260200190815260200160002060000160026101000a81548160ff0219169083151502179055507f26272d25bc1196c872b2db8c23f99b1b000a717184976793acfe5e0ad4e33dc0338686868686604051808773ffffffffffffffffffffffffffffffffffffffff1673ffffffffffffffffffffffffffffffffffffffff1681526020018673ffffffffffffffffffffffffffffffffffffffff1673ffffffffffffffffffffffffffffffffffffffff16815260200185151515158152602001841515151581526020018315151515815260200182151515158152602001965050505050505060405180910390a1505050505050565b8160020160003373ffffffffffffffffffffffffffffffffffffffff1673ffffffffffffffffffffffffffffffffffffffff16815260200190815260200160002060000160019054906101000a900460ff16151561239757600080fd5b8160030160008273ffffffffffffffffffffffffffffffffffffffff1673ffffffffffffffffffffffffffffffffffffffff16815260200190815260200160002060000160019054906101000a900460ff168061244257508160030160008273ffffffffffffffffffffffffffffffffffffffff1673ffffffffffffffffffffffffffffffffffffffff16815260200190815260200160002060000160009054906101000a900460ff165b8061249b57508160030160008273ffffffffffffffffffffffffffffffffffffffff1673ffffffffffffffffffffffffffffffffffffffff16815260200190815260200160002060000160039054906101000a900460ff165b806124f457508160030160008273ffffffffffffffffffffffffffffffffffffffff1673ffffffffffffffffffffffffffffffffffffffff16815260200190815260200160002060000160029054906101000a900460ff165b15156124ff57600080fd5b8160030160008273ffffffffffffffffffffffffffffffffffffffff1673ffffffffffffffffffffffffffffffffffffffff168152602001908152602001600020600080820160006101000a81549060ff02191690556000820160016101000a81549060ff02191690556000820160026101000a81549060ff02191690556000820160036101000a81549060ff021916905550507fd67845a459bcfe6c29d4fdbe8f965d4a62ae50e68971c894edfd625d9f8bfebe3382604051808373ffffffffffffffffffffffffffffffffffffffff1673ffffffffffffffffffffffffffffffffffffffff1681526020018273ffffffffffffffffffffffffffffffffffffffff1673ffffffffffffffffffffffffffffffffffffffff1681526020019250505060405180910390a15050565b8160020160003373ffffffffffffffffffffffffffffffffffffffff1673ffffffffffffffffffffffffffffffffffffffff16815260200190815260200160002060000160019054906101000a900460ff16151561268b57600080fd5b8160020160008273ffffffffffffffffffffffffffffffffffffffff1673ffffffffffffffffffffffffffffffffffffffff16815260200190815260200160002060000160019054906101000a900460ff168061273657508160020160008273ffffffffffffffffffffffffffffffffffffffff1673ffffffffffffffffffffffffffffffffffffffff16815260200190815260200160002060000160009054906101000a900460ff165b151561274157600080fd5b8160020160008273ffffffffffffffffffffffffffffffffffffffff1673ffffffffffffffffffffffffffffffffffffffff168152602001908152602001600020600080820160006101000a81549060ff02191690556000820160016101000a81549060ff021916905550507f31cf2b8264326b61eebefe150df927acfc3396b2c609d77aa05ef4bc570ac23c3382604051808373ffffffffffffffffffffffffffffffffffffffff1673ffffffffffffffffffffffffffffffffffffffff1681526020018273ffffffffffffffffffffffffffffffffffffffff1673ffffffffffffffffffffffffffffffffffffffff1681526020019250505060405180910390a15050565b608060405190810160405280600073ffffffffffffffffffffffffffffffffffffffff16815260200160008019168152602001600060ff168152602001600060ff168152509056fea165627a7a723058207e491ead1b01828c5cb892174ffdb377b3be8df9e607616c879ef637a76260900029",
  "source": "pragma solidity >=0.4.22 <0.6.0;\r\n\r\n\r\n\r\n/**\r\n\r\nKelsen Framework\r\nOrgan library\r\nThis library is used to hold all the logic to manage a simple organ.\r\n\r\n**/\r\nlibrary organLibrary {\r\n  \r\n    struct Master {\r\n        bool canAdd;  // if true, master can add admins\r\n        bool canDelete;  // if true, master can delete admins\r\n    }\r\n\r\n    struct Admin {\r\n        bool canAdd;  // if true, Admin can add norms\r\n        bool canDelete;  // if true, Admin can delete norms\r\n        bool canSpend;\r\n        bool canDeposit;\r\n    }\r\n\r\n    struct Norm {\r\n        address payable normAddress; // Address if norm is a member or a contract\r\n        bytes32 ipfsHash; // ID of proposal on IPFS\r\n        uint8 hash_function;\r\n        uint8 size;\r\n    }\r\n\r\n    struct OrganInfo {\r\n        bytes32 organName;\r\n        uint256 activeNormNumber;\r\n        mapping(address => Master) masters;\r\n        mapping(address => Admin) admins;\r\n        Norm[] norms;\r\n        mapping(address => uint) addressPositionInNorms;\r\n    }\r\n\r\n    // Events\r\n    // Organ management events\r\n    event changeOrganName(address _from, bytes32 _newName);\r\n    event spendMoney(address _from, address _to, uint256 _amount);\r\n    event receiveMoney(address _from, uint256 _amount);\r\n\r\n    // Master management events\r\n    event addMasterEvent(address _from, address _newMaster, bool _canAdd, bool _canDelete);\r\n    event remMasterEvent(address _from, address _masterToRemove);\r\n\r\n    // Admin management events\r\n    event addAdminEvent(address _from, address _newAdmin, bool _canAdd, bool _canDelete, bool _canDeposit, bool _canSpend);\r\n    event remAdminEvent(address _from, address _adminToRemove);\r\n\r\n    // Norm management events\r\n    event addNormEvent(address _from, address _normAddress, bytes32 _ipfsHash, uint8 _hash_function, uint8 _size);\r\n    event remNormEvent(address _from, address _normAddress, bytes32 _ipfsHash, uint8 _hash_function, uint8 _size);\r\n\r\n    function initOrganLib(OrganInfo storage self, bytes32 _organName)\r\n    public\r\n    {\r\n        // Initializing with deployer as master\r\n        self.masters[msg.sender].canAdd = true;\r\n        self.masters[msg.sender].canDelete = true;\r\n        self.organName = _organName;\r\n        Norm memory initNorm;\r\n        self.norms.push(initNorm);\r\n    }\r\n    function setNameLib(OrganInfo storage self, bytes32 _organName) \r\n    public \r\n    {\r\n        // Check sender is allowed\r\n        require((self.masters[msg.sender].canAdd) && (self.masters[msg.sender].canDelete));\r\n        self.organName = _organName;\r\n        emit changeOrganName(msg.sender, _organName);\r\n    }\r\n        // Money managing function\r\n    function payInLib(OrganInfo storage self) \r\n    public  \r\n    {\r\n        require(self.admins[msg.sender].canDeposit);\r\n        emit receiveMoney(msg.sender, msg.value);\r\n    }\r\n    function payoutLib(OrganInfo storage self, address payable _to, uint _value) \r\n    public \r\n    {\r\n        require(self.admins[msg.sender].canSpend);\r\n        _to.transfer(_value);\r\n        emit spendMoney(msg.sender, _to, _value);\r\n    }\r\n    // ################# Master managing functions\r\n    function addMasterLib(OrganInfo storage self, address _newMasterAddress, bool _canAdd, bool _canDelete) \r\n    public\r\n    {\r\n        // Check that the sender is allowed\r\n        require((self.masters[msg.sender].canAdd));\r\n        // Check new master is not already a master\r\n        require((!self.masters[_newMasterAddress].canAdd) && (!self.masters[_newMasterAddress].canDelete));\r\n\r\n        // Check new master has at least one permission activated\r\n        require(_canAdd || _canDelete);\r\n\r\n        // Creating master privileges\r\n        self.masters[_newMasterAddress].canAdd = _canAdd;\r\n        self.masters[_newMasterAddress].canDelete = _canDelete;\r\n        emit addMasterEvent(msg.sender, _newMasterAddress, _canAdd, _canDelete);\r\n    }\r\n    function remMasterLib(OrganInfo storage self, address _masterToRemove) \r\n    public \r\n    {\r\n        // Check sender is allowed\r\n        require((self.masters[msg.sender].canDelete));\r\n        // Check affected account is a master\r\n        require((self.masters[_masterToRemove].canDelete) || (self.masters[_masterToRemove].canAdd) );\r\n        // Deleting master privileges\r\n        delete self.masters[_masterToRemove];\r\n        emit remMasterEvent(msg.sender, _masterToRemove);\r\n    }\r\n    function replaceMasterLib(OrganInfo storage self, address _masterToRemove, address _masterToAdd, bool _canAdd, bool _canDelete) \r\n    public \r\n    {\r\n        // Check sender is allowed\r\n        require((self.masters[msg.sender].canAdd) && (self.masters[msg.sender].canDelete));\r\n        // Check new master has at least one permission activated\r\n        require(_canAdd || _canDelete);\r\n\r\n        // Check if we are replacing a master with another, or if we are modifying permissions\r\n        if (_masterToRemove != _masterToAdd)\r\n        {\r\n            // Replacing a master\r\n            addMasterLib(self, _masterToAdd, _canAdd, _canDelete);\r\n            remMasterLib(self, _masterToRemove);\r\n        }\r\n        else\r\n        {\r\n            // Modifying permissions\r\n            // Triggering events\r\n            emit remMasterEvent(msg.sender, _masterToRemove);\r\n            emit addMasterEvent(msg.sender, _masterToAdd, _canAdd, _canDelete);\r\n\r\n            //Modifying permissions\r\n            self.masters[_masterToRemove].canAdd = _canAdd;\r\n            self.masters[_masterToRemove].canDelete = _canDelete;\r\n        }\r\n    }\r\n\r\n    // ################# Admin managing functions\r\n    function addAdminLib(OrganInfo storage self, address _newAdminAddress, bool _canAdd, bool _canDelete, bool _canDeposit, bool _canSpend) \r\n    public \r\n    {\r\n        // Check the sender is allowed\r\n        require((self.masters[msg.sender].canAdd));\r\n        // Check new admin is not already an admin\r\n        require((!self.admins[_newAdminAddress].canAdd) && (!self.admins[_newAdminAddress].canDelete) && (!self.admins[_newAdminAddress].canDeposit) && (!self.admins[_newAdminAddress].canSpend));\r\n\r\n        // Check new admin has at least one permission activated\r\n        require(_canAdd || _canDelete || _canDeposit || _canSpend);\r\n\r\n        // Creating master privileges\r\n        self.admins[_newAdminAddress].canAdd = _canAdd;\r\n        self.admins[_newAdminAddress].canDelete = _canDelete;\r\n        self.admins[_newAdminAddress].canDeposit = _canDeposit;\r\n        self.admins[_newAdminAddress].canSpend = _canSpend;\r\n        emit addAdminEvent(msg.sender, _newAdminAddress,  _canAdd,  _canDelete,  _canDeposit,  _canSpend);\r\n    }\r\n\r\n    function remAdminLib(OrganInfo storage self, address _adminToRemove) \r\n    public \r\n    {\r\n        // Check sender is allowed\r\n        require((self.masters[msg.sender].canDelete));\r\n        // Check affected account is admin\r\n        require((self.admins[_adminToRemove].canDelete) || (self.admins[_adminToRemove].canAdd) || (self.admins[_adminToRemove].canDeposit) || (self.admins[_adminToRemove].canSpend));\r\n\r\n        // Deleting admin privileges\r\n        delete self.admins[_adminToRemove];\r\n\r\n        emit remAdminEvent(msg.sender, _adminToRemove);\r\n    }\r\n\r\n    function replaceAdminLib(OrganInfo storage self, address _adminToRemove, address _adminToAdd, bool _canAdd, bool _canDelete, bool _canDeposit, bool _canSpend) \r\n    public \r\n    {\r\n        // Check sender is allowed\r\n        require((self.masters[msg.sender].canAdd) && (self.masters[msg.sender].canDelete));\r\n        // Check new admin has at least one permission activated\r\n        require(_canAdd || _canDelete || _canDeposit || _canSpend);\r\n        \r\n        remAdminLib(self, _adminToRemove);\r\n        addAdminLib(self, _adminToAdd, _canAdd, _canDelete, _canDeposit, _canSpend);\r\n    }\r\n\r\n    function addNormLib(OrganInfo storage self, address payable _normAddress, bytes32 _ipfsHash, uint8 _hash_function, uint8 _size) \r\n    public \r\n    returns (uint _normPosition)\r\n    {\r\n        // Check sender is allowed\r\n        require(self.admins[msg.sender].canAdd);\r\n\r\n        // If the norm has an address, we check that the address has not been used before.\r\n        if (_normAddress != address(0)) { require(self.addressPositionInNorms[_normAddress] == 0);}\r\n\r\n        // Adding the norm\r\n        self.norms.push(organLibrary.Norm({\r\n                normAddress: _normAddress,\r\n                ipfsHash: _ipfsHash,\r\n                hash_function: _hash_function,\r\n                size: _size\r\n            }));\r\n        // Registering norm position relative to its address\r\n        self.addressPositionInNorms[_normAddress] = self.norms.length -1;\r\n        // Incrementing active norm number and total norm number trackers\r\n        self.activeNormNumber += 1;\r\n        emit addNormEvent(msg.sender, _normAddress,  _ipfsHash,  _hash_function,  _size);\r\n\r\n        // Registering the address as active\r\n        return self.addressPositionInNorms[_normAddress] ;\r\n    }\r\n\r\n    function remNormLib(OrganInfo storage self, uint _normNumber) \r\n    public\r\n    {\r\n        // Check sender is allowed:\r\n        // - Sender is admin\r\n        // - Norm number is trying to delete himself\r\n        require(self.admins[msg.sender].canDelete || (self.addressPositionInNorms[self.norms[_normNumber].normAddress] != 0 && msg.sender == self.norms[_normNumber].normAddress));\r\n        // Deleting norm position from addressPositionInNorms\r\n        delete self.addressPositionInNorms[self.norms[_normNumber].normAddress];\r\n        // Logging event\r\n        emit remNormEvent(msg.sender, self.norms[_normNumber].normAddress, self.norms[_normNumber].ipfsHash,  self.norms[_normNumber].hash_function,  self.norms[_normNumber].size);\r\n\r\n        // Removing norm from norms\r\n        delete self.norms[_normNumber];\r\n        self.activeNormNumber -= 1;\r\n    }\r\n\r\n    function replaceNormLib(OrganInfo storage self, uint _normNumber, address payable _normAddress, bytes32 _ipfsHash, uint8 _hash_function, uint8 _size) \r\n    public\r\n    {\r\n        require((self.admins[msg.sender].canDelete) && (self.admins[msg.sender].canAdd));\r\n        if (_normAddress != address(0)) { require(self.addressPositionInNorms[_normAddress] != 0);}\r\n        \r\n        self.addressPositionInNorms[self.norms[_normNumber].normAddress] = 0;\r\n        emit remNormEvent(msg.sender, self.norms[_normNumber].normAddress, self.norms[_normNumber].ipfsHash,  self.norms[_normNumber].hash_function,  self.norms[_normNumber].size);\r\n\r\n        delete self.norms[_normNumber];\r\n        self.norms[_normNumber] = organLibrary.Norm({\r\n                normAddress: _normAddress,\r\n                ipfsHash: _ipfsHash,\r\n                hash_function: _hash_function,\r\n                size: _size\r\n            });\r\n        \r\n        self.addressPositionInNorms[_normAddress] = _normNumber;\r\n        emit addNormEvent(msg.sender, _normAddress,  _ipfsHash,  _hash_function,  _size);\r\n    }\r\n}",
  "sourcePath": "C:\\Users\\hlieutaud\\Documents\\Workshop\\Solidity\\solidity-101\\contracts\\utils\\Kelsen\\solidity\\contracts\\libraries\\organLibrary.sol",
  "compiler": {
    "name": "solc",
    "version": "0.5.4+commit.9549d8ff.Emscripten.clang"
  },
  "schemaVersion": "3.0.10",
  "updatedAt": "2019-10-01T09:07:07.375Z",
  "devdoc": {
    "methods": {}
  },
  "userdoc": {
    "methods": {},
    "notice": "Kelsen Framework\r Organ library\r This library is used to hold all the logic to manage a simple organ.\r*"
  }
}