{
  "contractName": "Organ",
  "abi": [
    {
      "constant": true,
      "inputs": [],
      "name": "kelsenVersionNumber",
      "outputs": [
        {
          "name": "",
          "type": "int256"
        }
      ],
      "payable": false,
      "stateMutability": "view",
      "type": "function"
    },
    {
      "constant": true,
      "inputs": [],
      "name": "isAnOrgan",
      "outputs": [
        {
          "name": "",
          "type": "bool"
        }
      ],
      "payable": false,
      "stateMutability": "view",
      "type": "function"
    },
    {
      "constant": true,
      "inputs": [],
      "name": "organInfos",
      "outputs": [
        {
          "name": "organName",
          "type": "bytes32"
        },
        {
          "name": "activeNormNumber",
          "type": "uint256"
        }
      ],
      "payable": false,
      "stateMutability": "view",
      "type": "function"
    },
    {
      "constant": true,
      "inputs": [],
      "name": "isAProcedure",
      "outputs": [
        {
          "name": "",
          "type": "bool"
        }
      ],
      "payable": false,
      "stateMutability": "view",
      "type": "function"
    },
    {
      "inputs": [
        {
          "name": "_organName",
          "type": "bytes32"
        }
      ],
      "payable": false,
      "stateMutability": "nonpayable",
      "type": "constructor"
    },
    {
      "payable": true,
      "stateMutability": "payable",
      "type": "fallback"
    },
    {
      "constant": false,
      "inputs": [
        {
          "name": "_organName",
          "type": "bytes32"
        }
      ],
      "name": "setName",
      "outputs": [],
      "payable": false,
      "stateMutability": "nonpayable",
      "type": "function"
    },
    {
      "constant": false,
      "inputs": [
        {
          "name": "_to",
          "type": "address"
        },
        {
          "name": "_value",
          "type": "uint256"
        }
      ],
      "name": "payout",
      "outputs": [],
      "payable": false,
      "stateMutability": "nonpayable",
      "type": "function"
    },
    {
      "constant": false,
      "inputs": [
        {
          "name": "_newMasterAddress",
          "type": "address"
        },
        {
          "name": "_canAdd",
          "type": "bool"
        },
        {
          "name": "_canDelete",
          "type": "bool"
        }
      ],
      "name": "addMaster",
      "outputs": [],
      "payable": false,
      "stateMutability": "nonpayable",
      "type": "function"
    },
    {
      "constant": false,
      "inputs": [
        {
          "name": "_masterToRemove",
          "type": "address"
        }
      ],
      "name": "remMaster",
      "outputs": [],
      "payable": false,
      "stateMutability": "nonpayable",
      "type": "function"
    },
    {
      "constant": false,
      "inputs": [
        {
          "name": "_masterToRemove",
          "type": "address"
        },
        {
          "name": "_masterToAdd",
          "type": "address"
        },
        {
          "name": "_canAdd",
          "type": "bool"
        },
        {
          "name": "_canDelete",
          "type": "bool"
        }
      ],
      "name": "replaceMaster",
      "outputs": [],
      "payable": false,
      "stateMutability": "nonpayable",
      "type": "function"
    },
    {
      "constant": false,
      "inputs": [
        {
          "name": "_newAdminAddress",
          "type": "address"
        },
        {
          "name": "_canAdd",
          "type": "bool"
        },
        {
          "name": "_canDelete",
          "type": "bool"
        },
        {
          "name": "_canDeposit",
          "type": "bool"
        },
        {
          "name": "_canSpend",
          "type": "bool"
        }
      ],
      "name": "addAdmin",
      "outputs": [],
      "payable": false,
      "stateMutability": "nonpayable",
      "type": "function"
    },
    {
      "constant": false,
      "inputs": [
        {
          "name": "_adminToRemove",
          "type": "address"
        },
        {
          "name": "_adminToAdd",
          "type": "address"
        },
        {
          "name": "_canAdd",
          "type": "bool"
        },
        {
          "name": "_canDelete",
          "type": "bool"
        },
        {
          "name": "_canDeposit",
          "type": "bool"
        },
        {
          "name": "_canSpend",
          "type": "bool"
        }
      ],
      "name": "replaceAdmin",
      "outputs": [],
      "payable": false,
      "stateMutability": "nonpayable",
      "type": "function"
    },
    {
      "constant": false,
      "inputs": [
        {
          "name": "_adminToRemove",
          "type": "address"
        }
      ],
      "name": "remAdmin",
      "outputs": [],
      "payable": false,
      "stateMutability": "nonpayable",
      "type": "function"
    },
    {
      "constant": false,
      "inputs": [
        {
          "name": "_normAddress",
          "type": "address"
        },
        {
          "name": "_ipfsHash",
          "type": "bytes32"
        },
        {
          "name": "_hash_function",
          "type": "uint8"
        },
        {
          "name": "_size",
          "type": "uint8"
        }
      ],
      "name": "addNorm",
      "outputs": [
        {
          "name": "_normPosition",
          "type": "uint256"
        }
      ],
      "payable": false,
      "stateMutability": "nonpayable",
      "type": "function"
    },
    {
      "constant": false,
      "inputs": [
        {
          "name": "_normNumber",
          "type": "uint256"
        }
      ],
      "name": "remNorm",
      "outputs": [],
      "payable": false,
      "stateMutability": "nonpayable",
      "type": "function"
    },
    {
      "constant": false,
      "inputs": [
        {
          "name": "_normNumber",
          "type": "uint256"
        },
        {
          "name": "_normAddress",
          "type": "address"
        },
        {
          "name": "_ipfsHash",
          "type": "bytes32"
        },
        {
          "name": "_hash_function",
          "type": "uint8"
        },
        {
          "name": "_size",
          "type": "uint8"
        }
      ],
      "name": "replaceNorm",
      "outputs": [],
      "payable": false,
      "stateMutability": "nonpayable",
      "type": "function"
    },
    {
      "constant": true,
      "inputs": [
        {
          "name": "_adressToCheck",
          "type": "address"
        }
      ],
      "name": "isMaster",
      "outputs": [
        {
          "name": "canAdd",
          "type": "bool"
        },
        {
          "name": "canDelete",
          "type": "bool"
        }
      ],
      "payable": false,
      "stateMutability": "view",
      "type": "function"
    },
    {
      "constant": true,
      "inputs": [
        {
          "name": "_adressToCheck",
          "type": "address"
        }
      ],
      "name": "isAdmin",
      "outputs": [
        {
          "name": "canAdd",
          "type": "bool"
        },
        {
          "name": "canDelete",
          "type": "bool"
        },
        {
          "name": "canDeposit",
          "type": "bool"
        },
        {
          "name": "canSpend",
          "type": "bool"
        }
      ],
      "payable": false,
      "stateMutability": "view",
      "type": "function"
    },
    {
      "constant": true,
      "inputs": [],
      "name": "getNormListSize",
      "outputs": [
        {
          "name": "normArraySize",
          "type": "uint256"
        }
      ],
      "payable": false,
      "stateMutability": "view",
      "type": "function"
    },
    {
      "constant": true,
      "inputs": [
        {
          "name": "_addressToCheck",
          "type": "address"
        }
      ],
      "name": "getAddressPositionInNorm",
      "outputs": [
        {
          "name": "addressInNormPosition",
          "type": "uint256"
        }
      ],
      "payable": false,
      "stateMutability": "view",
      "type": "function"
    },
    {
      "constant": true,
      "inputs": [
        {
          "name": "_desiredNormPosition",
          "type": "uint256"
        }
      ],
      "name": "getSingleNorm",
      "outputs": [
        {
          "name": "normAddress",
          "type": "address"
        },
        {
          "name": "ipfsHash",
          "type": "bytes32"
        },
        {
          "name": "hash_function",
          "type": "uint8"
        },
        {
          "name": "size",
          "type": "uint8"
        }
      ],
      "payable": false,
      "stateMutability": "view",
      "type": "function"
    },
    {
      "constant": true,
      "inputs": [],
      "name": "getKelsenVersion",
      "outputs": [
        {
          "name": "_isAnOrgan",
          "type": "bool"
        },
        {
          "name": "_isAProcedure",
          "type": "bool"
        },
        {
          "name": "_versionNumber",
          "type": "int256"
        }
      ],
      "payable": false,
      "stateMutability": "view",
      "type": "function"
    }
  ],
  "bytecode": "0x6080604052600260005560018060026101000a81548160ff0219169083151502179055506000600160036101000a81548160ff02191690831515021790555034801561004a57600080fd5b506040516020806117b28339810180604052602081101561006a57600080fd5b8101908080519060200190929190505050600273__organLibrary__________________________634e6f396c9091836040518363ffffffff167c0100000000000000000000000000000000000000000000000000000000028152600401808381526020018281526020019250505060006040518083038186803b1580156100f157600080fd5b505af4158015610105573d6000803e3d6000fd5b5050505050611699806101196000396000f3fe60806040526004361061011d576000357c0100000000000000000000000000000000000000000000000000000000900463ffffffff1680630e9defff146101a5578063117de2fd146101e057806311c604181461023b57806324d7806c1461028c57806331a79198146103165780633f7819a1146103675780635549ea51146103d05780635ac801fe146104355780635dbe4d28146104705780636c49e0871461049b5780636f2a4d5f1461051a57806371e7f374146105a357806379524d2d1461064457806390cb15a9146106c55780639e9b8aed14610706578063a08c3cb514610731578063a8bef97a146107ba578063bbea0619146107e9578063db0515261461081b578063e80b30a5146108b7578063f720f80b146108e6575b600273__organLibrary__________________________639025315590916040518263ffffffff167c01000000000000000000000000000000000000000000000000000000000281526004018082815260200191505060006040518083038186803b15801561018b57600080fd5b505af415801561019f573d6000803e3d6000fd5b50505050005b3480156101b157600080fd5b506101de600480360360208110156101c857600080fd5b810190808035906020019092919050505061095a565b005b3480156101ec57600080fd5b506102396004803603604081101561020357600080fd5b81019080803573ffffffffffffffffffffffffffffffffffffffff169060200190929190803590602001909291905050506109eb565b005b34801561024757600080fd5b5061028a6004803603602081101561025e57600080fd5b81019080803573ffffffffffffffffffffffffffffffffffffffff169060200190929190505050610ab1565b005b34801561029857600080fd5b506102db600480360360208110156102af57600080fd5b81019080803573ffffffffffffffffffffffffffffffffffffffff169060200190929190505050610b6e565b604051808515151515815260200184151515158152602001831515151581526020018215151515815260200194505050505060405180910390f35b34801561032257600080fd5b506103656004803603602081101561033957600080fd5b81019080803573ffffffffffffffffffffffffffffffffffffffff169060200190929190505050610ccf565b005b34801561037357600080fd5b506103ce6004803603606081101561038a57600080fd5b81019080803573ffffffffffffffffffffffffffffffffffffffff169060200190929190803515159060200190929190803515159060200190929190505050610d8c565b005b3480156103dc57600080fd5b5061041f600480360360208110156103f357600080fd5b81019080803573ffffffffffffffffffffffffffffffffffffffff169060200190929190505050610e63565b6040518082815260200191505060405180910390f35b34801561044157600080fd5b5061046e6004803603602081101561045857600080fd5b8101908080359060200190929190505050610eaf565b005b34801561047c57600080fd5b50610485610f40565b6040518082815260200191505060405180910390f35b3480156104a757600080fd5b50610518600480360360a08110156104be57600080fd5b8101908080359060200190929190803573ffffffffffffffffffffffffffffffffffffffff16906020019092919080359060200190929190803560ff169060200190929190803560ff169060200190929190505050610f46565b005b34801561052657600080fd5b506105a16004803603608081101561053d57600080fd5b81019080803573ffffffffffffffffffffffffffffffffffffffff169060200190929190803573ffffffffffffffffffffffffffffffffffffffff169060200190929190803515159060200190929190803515159060200190929190505050611033565b005b3480156105af57600080fd5b50610642600480360360c08110156105c657600080fd5b81019080803573ffffffffffffffffffffffffffffffffffffffff169060200190929190803573ffffffffffffffffffffffffffffffffffffffff16906020019092919080351515906020019092919080351515906020019092919080351515906020019092919080351515906020019092919050505061113f565b005b34801561065057600080fd5b506106c3600480360360a081101561066757600080fd5b81019080803573ffffffffffffffffffffffffffffffffffffffff169060200190929190803515159060200190929190803515159060200190929190803515159060200190929190803515159060200190929190505050611265565b005b3480156106d157600080fd5b506106da611356565b604051808415151515815260200183151515158152602001828152602001935050505060405180910390f35b34801561071257600080fd5b5061071b611389565b6040518082815260200191505060405180910390f35b34801561073d57600080fd5b506107a46004803603608081101561075457600080fd5b81019080803573ffffffffffffffffffffffffffffffffffffffff16906020019092919080359060200190929190803560ff169060200190929190803560ff169060200190929190505050611399565b6040518082815260200191505060405180910390f35b3480156107c657600080fd5b506107cf6114a6565b604051808215151515815260200191505060405180910390f35b3480156107f557600080fd5b506107fe6114b9565b604051808381526020018281526020019250505060405180910390f35b34801561082757600080fd5b506108546004803603602081101561083e57600080fd5b81019080803590602001909291905050506114cb565b604051808573ffffffffffffffffffffffffffffffffffffffff1673ffffffffffffffffffffffffffffffffffffffff1681526020018481526020018360ff1660ff1681526020018260ff1660ff16815260200194505050505060405180910390f35b3480156108c357600080fd5b506108cc6115aa565b604051808215151515815260200191505060405180910390f35b3480156108f257600080fd5b506109356004803603602081101561090957600080fd5b81019080803573ffffffffffffffffffffffffffffffffffffffff1690602001909291905050506115bd565b6040518083151515158152602001821515151581526020019250505060405180910390f35b600273__organLibrary__________________________6313d6a0cb9091836040518363ffffffff167c0100000000000000000000000000000000000000000000000000000000028152600401808381526020018281526020019250505060006040518083038186803b1580156109d057600080fd5b505af41580156109e4573d6000803e3d6000fd5b5050505050565b600273__organLibrary__________________________63c0a9a964909184846040518463ffffffff167c0100000000000000000000000000000000000000000000000000000000028152600401808481526020018373ffffffffffffffffffffffffffffffffffffffff1673ffffffffffffffffffffffffffffffffffffffff168152602001828152602001935050505060006040518083038186803b158015610a9557600080fd5b505af4158015610aa9573d6000803e3d6000fd5b505050505050565b600273__organLibrary__________________________63f96257cc9091836040518363ffffffff167c0100000000000000000000000000000000000000000000000000000000028152600401808381526020018273ffffffffffffffffffffffffffffffffffffffff1673ffffffffffffffffffffffffffffffffffffffff1681526020019250505060006040518083038186803b158015610b5357600080fd5b505af4158015610b67573d6000803e3d6000fd5b5050505050565b600080600080600260030160008673ffffffffffffffffffffffffffffffffffffffff1673ffffffffffffffffffffffffffffffffffffffff16815260200190815260200160002060000160009054906101000a900460ff16600260030160008773ffffffffffffffffffffffffffffffffffffffff1673ffffffffffffffffffffffffffffffffffffffff16815260200190815260200160002060000160019054906101000a900460ff16600260030160008873ffffffffffffffffffffffffffffffffffffffff1673ffffffffffffffffffffffffffffffffffffffff16815260200190815260200160002060000160039054906101000a900460ff16600260030160008973ffffffffffffffffffffffffffffffffffffffff1673ffffffffffffffffffffffffffffffffffffffff16815260200190815260200160002060000160029054906101000a900460ff1693509350935093509193509193565b600273__organLibrary__________________________63fad7b3849091836040518363ffffffff167c0100000000000000000000000000000000000000000000000000000000028152600401808381526020018273ffffffffffffffffffffffffffffffffffffffff1673ffffffffffffffffffffffffffffffffffffffff1681526020019250505060006040518083038186803b158015610d7157600080fd5b505af4158015610d85573d6000803e3d6000fd5b5050505050565b600273__organLibrary__________________________634d8cd96790918585856040518563ffffffff167c0100000000000000000000000000000000000000000000000000000000028152600401808581526020018473ffffffffffffffffffffffffffffffffffffffff1673ffffffffffffffffffffffffffffffffffffffff168152602001831515151581526020018215151515815260200194505050505060006040518083038186803b158015610e4657600080fd5b505af4158015610e5a573d6000803e3d6000fd5b50505050505050565b6000600260050160008373ffffffffffffffffffffffffffffffffffffffff1673ffffffffffffffffffffffffffffffffffffffff168152602001908152602001600020549050919050565b600273__organLibrary__________________________6313c938a79091836040518363ffffffff167c0100000000000000000000000000000000000000000000000000000000028152600401808381526020018281526020019250505060006040518083038186803b158015610f2557600080fd5b505af4158015610f39573d6000803e3d6000fd5b5050505050565b60005481565b600273__organLibrary__________________________63c4be85a4909187878787876040518763ffffffff167c0100000000000000000000000000000000000000000000000000000000028152600401808781526020018681526020018573ffffffffffffffffffffffffffffffffffffffff1673ffffffffffffffffffffffffffffffffffffffff1681526020018481526020018360ff1660ff1681526020018260ff1660ff168152602001965050505050505060006040518083038186803b15801561101457600080fd5b505af4158015611028573d6000803e3d6000fd5b505050505050505050565b600273__organLibrary__________________________6395ab63419091868686866040518663ffffffff167c0100000000000000000000000000000000000000000000000000000000028152600401808681526020018573ffffffffffffffffffffffffffffffffffffffff1673ffffffffffffffffffffffffffffffffffffffff1681526020018473ffffffffffffffffffffffffffffffffffffffff1673ffffffffffffffffffffffffffffffffffffffff16815260200183151515158152602001821515151581526020019550505050505060006040518083038186803b15801561112157600080fd5b505af4158015611135573d6000803e3d6000fd5b5050505050505050565b600273__organLibrary__________________________633d579bd390918888888888886040518863ffffffff167c0100000000000000000000000000000000000000000000000000000000028152600401808881526020018773ffffffffffffffffffffffffffffffffffffffff1673ffffffffffffffffffffffffffffffffffffffff1681526020018673ffffffffffffffffffffffffffffffffffffffff1673ffffffffffffffffffffffffffffffffffffffff1681526020018515151515815260200184151515158152602001831515151581526020018215151515815260200197505050505050505060006040518083038186803b15801561124557600080fd5b505af4158015611259573d6000803e3d6000fd5b50505050505050505050565b600273__organLibrary__________________________63f1638523909187878787876040518763ffffffff167c0100000000000000000000000000000000000000000000000000000000028152600401808781526020018673ffffffffffffffffffffffffffffffffffffffff1673ffffffffffffffffffffffffffffffffffffffff16815260200185151515158152602001841515151581526020018315151515815260200182151515158152602001965050505050505060006040518083038186803b15801561133757600080fd5b505af415801561134b573d6000803e3d6000fd5b505050505050505050565b6000806000600160029054906101000a900460ff16600160039054906101000a900460ff16600054925092509250909192565b6000600260040180549050905090565b6000600273__organLibrary__________________________63bd25fc159091878787876040518663ffffffff167c0100000000000000000000000000000000000000000000000000000000028152600401808681526020018573ffffffffffffffffffffffffffffffffffffffff1673ffffffffffffffffffffffffffffffffffffffff1681526020018481526020018360ff1660ff1681526020018260ff1660ff1681526020019550505050505060206040518083038186803b15801561146157600080fd5b505af4158015611475573d6000803e3d6000fd5b505050506040513d602081101561148b57600080fd5b81019080805190602001909291905050509050949350505050565b600160029054906101000a900460ff1681565b60028060000154908060010154905082565b6000806000806002600401858154811015156114e357fe5b906000526020600020906003020160000160009054906101000a900473ffffffffffffffffffffffffffffffffffffffff1660026004018681548110151561152757fe5b90600052602060002090600302016001015460026004018781548110151561154b57fe5b906000526020600020906003020160020160009054906101000a900460ff1660026004018881548110151561157c57fe5b906000526020600020906003020160020160019054906101000a900460ff1693509350935093509193509193565b600160039054906101000a900460ff1681565b6000806002800160008473ffffffffffffffffffffffffffffffffffffffff1673ffffffffffffffffffffffffffffffffffffffff16815260200190815260200160002060000160009054906101000a900460ff166002800160008573ffffffffffffffffffffffffffffffffffffffff1673ffffffffffffffffffffffffffffffffffffffff16815260200190815260200160002060000160019054906101000a900460ff169150915091509156fea165627a7a723058207cb9368fa594646ce457f88b3e8b3c08c91df6e3586e8d02c49630a5ff08a1120029",
  "source": "pragma solidity >=0.4.22 <0.6.0;\n\n\n/// @title Standard organ contract\n\n\nimport \"./Kelsen.sol\";\nimport \"./libraries/organLibrary.sol\";\n\n\ncontract Organ is Kelsen{\n\n\n    // Declaring structures for different organ roles:\n    // Masters can add/remove admins\n    // Admins can add / remove norms\n    // Norms are sets of adresses, contracts or references gathered by the organ\n    bool public isAnOrgan = true;\n    bool public isAProcedure = false;\n    \n    using organLibrary for organLibrary.OrganInfo;\n    // Storing organ infos\n    organLibrary.OrganInfo public organInfos;\n\n    // Organ declaration\n    constructor(bytes32 _organName) public {\n        organInfos.initOrganLib(_organName);\n    }\n\n    // ################# Organ managing functions\n\n    function setName(bytes32 _organName) \n    public \n    {\n        organInfos.setNameLib(_organName);\n    }\n        // Money managing function\n    function () \n    external \n    payable \n    {\n        organInfos.payInLib();\n    }\n\n    function payout(address payable _to, uint _value) \n    public \n    {\n        organInfos.payoutLib(_to, _value);\n    }\n\n    // ################# Master managing functions\n    function addMaster(address _newMasterAddress, bool _canAdd, bool _canDelete) \n    public\n    {\n        organInfos.addMasterLib(_newMasterAddress, _canAdd, _canDelete);\n    }\n\n    function remMaster(address _masterToRemove) \n    public \n    {\n        organInfos.remMasterLib(_masterToRemove);\n    }\n\n    function replaceMaster(address _masterToRemove, address _masterToAdd, bool _canAdd, bool _canDelete) \n    public \n    {\n        organInfos.replaceMasterLib(_masterToRemove, _masterToAdd, _canAdd, _canDelete);\n    }\n\n    // ################# Admin managing functions\n    function addAdmin(address _newAdminAddress, bool _canAdd, bool _canDelete, bool _canDeposit, bool _canSpend) \n    public \n    {\n        organInfos.addAdminLib(_newAdminAddress, _canAdd, _canDelete, _canDeposit, _canSpend);\n    }\n\n    function replaceAdmin(address _adminToRemove, address _adminToAdd, bool _canAdd, bool _canDelete, bool _canDeposit, bool _canSpend) \n    public \n    {\n        organInfos.replaceAdminLib(_adminToRemove, _adminToAdd, _canAdd, _canDelete, _canDeposit, _canSpend);\n    }\n\n    function remAdmin(address _adminToRemove) public {\n        organInfos.remAdminLib(_adminToRemove);\n    }\n\n    // ################# Norms managing functions\n\n    function addNorm (address payable _normAddress, bytes32 _ipfsHash, uint8 _hash_function, uint8 _size) \n    public  \n    returns (uint _normPosition)\n    {\n        return organInfos.addNormLib(_normAddress, _ipfsHash, _hash_function, _size);\n    }\n\n    function remNorm (uint _normNumber) \n    public\n    {\n       organInfos.remNormLib(_normNumber);\n    }\n\n    function replaceNorm (uint _normNumber, address payable _normAddress, bytes32 _ipfsHash, uint8 _hash_function, uint8 _size) \n    public\n    {\n       organInfos.replaceNormLib(_normNumber, _normAddress, _ipfsHash, _hash_function, _size);\n    }\n\n    //////////////////////// Functions to communicate with other contracts\n    // Checking individual addresses\n    function isMaster (address _adressToCheck) \n    public \n    view \n    returns (bool canAdd, bool canDelete) \n    {\n        return (organInfos.masters[_adressToCheck].canAdd, organInfos.masters[_adressToCheck].canDelete);\n    }\n\n    function isAdmin (address _adressToCheck) \n    public \n    view \n    returns (bool canAdd, bool canDelete, bool canDeposit, bool canSpend) \n    {\n        return (organInfos.admins[_adressToCheck].canAdd, organInfos.admins[_adressToCheck].canDelete, organInfos.admins[_adressToCheck].canDeposit, organInfos.admins[_adressToCheck].canSpend);\n    }\n\n    // Retrieve contract state info\n    // Size of norm array, to list elements\n    function getNormListSize() \n    public \n    view \n    returns (uint normArraySize)\n    {\n        return organInfos.norms.length;\n    }\n\n    function getAddressPositionInNorm(address _addressToCheck) \n    public \n    view \n    returns (uint addressInNormPosition)\n    {\n        return organInfos.addressPositionInNorms[_addressToCheck];\n    }\n\n    function getSingleNorm(uint _desiredNormPosition) \n    public \n    view \n    returns (address payable normAddress, bytes32 ipfsHash, uint8 hash_function, uint8 size)\n    {\n        return (organInfos.norms[_desiredNormPosition].normAddress, organInfos.norms[_desiredNormPosition].ipfsHash, organInfos.norms[_desiredNormPosition].hash_function, organInfos.norms[_desiredNormPosition].size);\n    }\n\n    function getKelsenVersion() \n    public \n    view \n    returns(bool _isAnOrgan, bool _isAProcedure, int _versionNumber)\n    {\n        return (isAnOrgan, isAProcedure, kelsenVersionNumber);\n    }\n}\n\n",
  "sourcePath": "/Users/henrilieutaud/Documents/Mes documents/ESILV/03 Blockchain Programmation/solidity-101/contracts/utils/Kelsen/solidity/contracts/Organ.sol",
  "compiler": {
    "name": "solc",
    "version": "0.5.0+commit.1d4f565a.Emscripten.clang"
  },
  "schemaVersion": "3.3.2",
  "updatedAt": "2021-03-04T20:32:45.132Z",
  "networkType": "ethereum",
  "devdoc": {
    "methods": {}
  },
  "userdoc": {
    "methods": {
      "isMaster(address)": {
        "notice": "///////////////////// Functions to communicate with other contracts"
      }
    }
  }
}