{
  "contractName": "pointsManager",
  "abi": [
    {
      "constant": true,
      "inputs": [],
      "name": "studentsOrgan",
      "outputs": [
        {
          "name": "",
          "type": "address"
        }
      ],
      "payable": false,
      "stateMutability": "view",
      "type": "function"
    },
    {
      "constant": true,
      "inputs": [],
      "name": "exercicesOrgan",
      "outputs": [
        {
          "name": "",
          "type": "address"
        }
      ],
      "payable": false,
      "stateMutability": "view",
      "type": "function"
    },
    {
      "constant": true,
      "inputs": [
        {
          "name": "",
          "type": "address"
        }
      ],
      "name": "grades",
      "outputs": [
        {
          "name": "",
          "type": "uint256"
        }
      ],
      "payable": false,
      "stateMutability": "view",
      "type": "function"
    },
    {
      "constant": true,
      "inputs": [],
      "name": "teachersOrgan",
      "outputs": [
        {
          "name": "",
          "type": "address"
        }
      ],
      "payable": false,
      "stateMutability": "view",
      "type": "function"
    },
    {
      "inputs": [
        {
          "name": "_studentsOrgan",
          "type": "address"
        },
        {
          "name": "_teachersOrgan",
          "type": "address"
        },
        {
          "name": "_exercicesOrgan",
          "type": "address"
        }
      ],
      "payable": false,
      "stateMutability": "nonpayable",
      "type": "constructor"
    },
    {
      "constant": false,
      "inputs": [
        {
          "name": "_points",
          "type": "uint256"
        },
        {
          "name": "_studentAddress",
          "type": "address"
        }
      ],
      "name": "grantPoints",
      "outputs": [],
      "payable": false,
      "stateMutability": "nonpayable",
      "type": "function"
    },
    {
      "constant": false,
      "inputs": [
        {
          "name": "_extraPoints",
          "type": "uint256"
        },
        {
          "name": "_studentAddress",
          "type": "address"
        }
      ],
      "name": "grantExtraPoint",
      "outputs": [],
      "payable": false,
      "stateMutability": "nonpayable",
      "type": "function"
    }
  ],
  "bytecode": "0x608060405234801561001057600080fd5b506040516060806106f6833981018060405281019080805190602001909291908051906020019092919080519060200190929190505050816000806101000a81548173ffffffffffffffffffffffffffffffffffffffff021916908373ffffffffffffffffffffffffffffffffffffffff16021790555080600160006101000a81548173ffffffffffffffffffffffffffffffffffffffff021916908373ffffffffffffffffffffffffffffffffffffffff16021790555082600260006101000a81548173ffffffffffffffffffffffffffffffffffffffff021916908373ffffffffffffffffffffffffffffffffffffffff1602179055505050506105db8061011b6000396000f300608060405260043610610078576000357c0100000000000000000000000000000000000000000000000000000000900463ffffffff1680632ec443071461007d57806368dbd2d2146100d457806393e58efe1461012b578063d49fc75114610178578063f35484ee146101cf578063fc6f99ca1461021c575b600080fd5b34801561008957600080fd5b50610092610273565b604051808273ffffffffffffffffffffffffffffffffffffffff1673ffffffffffffffffffffffffffffffffffffffff16815260200191505060405180910390f35b3480156100e057600080fd5b506100e9610299565b604051808273ffffffffffffffffffffffffffffffffffffffff1673ffffffffffffffffffffffffffffffffffffffff16815260200191505060405180910390f35b34801561013757600080fd5b5061017660048036038101908080359060200190929190803573ffffffffffffffffffffffffffffffffffffffff1690602001909291905050506102bf565b005b34801561018457600080fd5b506101b9600480360381019080803573ffffffffffffffffffffffffffffffffffffffff169060200190929190505050610418565b6040518082815260200191505060405180910390f35b3480156101db57600080fd5b5061021a60048036038101908080359060200190929190803573ffffffffffffffffffffffffffffffffffffffff169060200190929190505050610430565b005b34801561022857600080fd5b5061023161058a565b604051808273ffffffffffffffffffffffffffffffffffffffff1673ffffffffffffffffffffffffffffffffffffffff16815260200191505060405180910390f35b600260009054906101000a900473ffffffffffffffffffffffffffffffffffffffff1681565b600160009054906101000a900473ffffffffffffffffffffffffffffffffffffffff1681565b60008060009054906101000a900473ffffffffffffffffffffffffffffffffffffffff1690508073ffffffffffffffffffffffffffffffffffffffff1663d323a4f8336040518263ffffffff167c0100000000000000000000000000000000000000000000000000000000028152600401808273ffffffffffffffffffffffffffffffffffffffff1673ffffffffffffffffffffffffffffffffffffffff168152602001915050602060405180830381600087803b15801561038057600080fd5b505af1158015610394573d6000803e3d6000fd5b505050506040513d60208110156103aa57600080fd5b810190808051906020019092919050505015156103c657600080fd5b82600360008473ffffffffffffffffffffffffffffffffffffffff1673ffffffffffffffffffffffffffffffffffffffff16815260200190815260200160002060008282540192505081905550505050565b60036020528060005260406000206000915090505481565b6000600160009054906101000a900473ffffffffffffffffffffffffffffffffffffffff1690508073ffffffffffffffffffffffffffffffffffffffff1663d323a4f8336040518263ffffffff167c0100000000000000000000000000000000000000000000000000000000028152600401808273ffffffffffffffffffffffffffffffffffffffff1673ffffffffffffffffffffffffffffffffffffffff168152602001915050602060405180830381600087803b1580156104f257600080fd5b505af1158015610506573d6000803e3d6000fd5b505050506040513d602081101561051c57600080fd5b8101908080519060200190929190505050151561053857600080fd5b82600360008473ffffffffffffffffffffffffffffffffffffffff1673ffffffffffffffffffffffffffffffffffffffff16815260200190815260200160002060008282540192505081905550505050565b6000809054906101000a900473ffffffffffffffffffffffffffffffffffffffff16815600a165627a7a723058208571721e3b0ba61903c8b00da2cae802c3f83d98d7f6383010abeeb45b05c6760029",
  "source": "pragma solidity ^0.4.24;\r\n\r\n// Using Kelsen framework for authentification of stakeholders.\r\n// More info on https://github.com/97network/Kelsen\r\n// What you need to know for this session: https://github.com/97network/Kelsen/blob/master/docs/01_standardOrgan.md\r\nimport \"./utils/Kelsen/standardOrgan.sol\";\r\n\r\n/*\r\nExam points manager\r\n\r\nStudents and teachers are registered in studentsOrgan and teachersOrgan respectively.\r\nSmart contracts that are allowed to credit points are registered in exercicesOrgan.\r\n\r\nThe grade of each student is registered in the grades mapping. \r\n*/\r\n\r\n\r\ncontract pointsManager {\r\n\r\n\t// Pointing at Kelsen organs listing stakeholders\r\n  address public teachersOrgan;\r\n  address public exercicesOrgan;\r\n  address public studentsOrgan;\r\n\r\n  constructor( address _studentsOrgan, address _teachersOrgan, address _exercicesOrgan) public {\r\n    teachersOrgan = _teachersOrgan;\r\n    exercicesOrgan = _exercicesOrgan;\r\n    studentsOrgan = _studentsOrgan;\r\n  }\r\n\r\n  mapping(address => uint) public grades;\r\n\r\n  // Function for exercices to attribute points\r\n  function grantPoints(uint _points, address _studentAddress) public onlyExercices {\r\n  \tgrades[_studentAddress] += _points;\r\n\r\n  }\r\n\r\n  // Function for the teacher to attribute extra points, if students find a bug in exercices for example\r\n  function grantExtraPoint(uint _extraPoints, address _studentAddress) public onlyTeachers {\r\n  \tgrades[_studentAddress] += _extraPoints;\r\n  }\r\n\r\n\r\n  modifier onlyExercices() {\r\n    Organ exercicesOrganInstance = Organ(exercicesOrgan);\r\n    require(exercicesOrganInstance.isNorm(msg.sender));\r\n    _;\r\n  }\r\n\r\n  modifier onlyTeachers() {\r\n    Organ teachersOrganInstance = Organ(teachersOrgan);\r\n    require(teachersOrganInstance.isNorm(msg.sender));\r\n    _;\r\n  }\r\n\r\n}\r\n",
  "sourcePath": "C:\\Users\\LIEUTAUDHenri\\Documents\\Perso\\ESILV\\solidity-101\\contracts\\pointsManager.sol",
  "compiler": {
    "name": "solc",
    "version": "0.4.24+commit.e67f0147.Emscripten.clang"
  },
  "schemaVersion": "2.0.1",
  "updatedAt": "2019-03-06T09:06:22.934Z"
}