{
  "contractName": "Procedure",
  "abi": [
    {
      "constant": true,
      "inputs": [],
      "name": "kelsenVersionNumber",
      "outputs": [
        {
          "name": "",
          "type": "int256"
        }
      ],
      "payable": false,
      "stateMutability": "view",
      "type": "function"
    },
    {
      "constant": true,
      "inputs": [],
      "name": "procedureInfo",
      "outputs": [
        {
          "name": "procedureTypeNumber",
          "type": "uint256"
        },
        {
          "name": "procedureName",
          "type": "bytes32"
        },
        {
          "name": "linkedOrgans",
          "type": "uint256"
        }
      ],
      "payable": false,
      "stateMutability": "view",
      "type": "function"
    },
    {
      "constant": true,
      "inputs": [],
      "name": "isAnOrgan",
      "outputs": [
        {
          "name": "",
          "type": "bool"
        }
      ],
      "payable": false,
      "stateMutability": "view",
      "type": "function"
    },
    {
      "constant": true,
      "inputs": [],
      "name": "isAProcedure",
      "outputs": [
        {
          "name": "",
          "type": "bool"
        }
      ],
      "payable": false,
      "stateMutability": "view",
      "type": "function"
    }
  ],
  "bytecode": "0x608060405260026000556000600560006101000a81548160ff0219169083151502179055506001600560016101000a81548160ff02191690831515021790555034801561004b57600080fd5b506101998061005b6000396000f3fe608060405260043610610062576000357c0100000000000000000000000000000000000000000000000000000000900463ffffffff1680635dbe4d28146100675780639397942e14610092578063a8bef97a146100cb578063e80b30a5146100fa575b600080fd5b34801561007357600080fd5b5061007c610129565b6040518082815260200191505060405180910390f35b34801561009e57600080fd5b506100a761012f565b60405180848152602001838152602001828152602001935050505060405180910390f35b3480156100d757600080fd5b506100e0610147565b604051808215151515815260200191505060405180910390f35b34801561010657600080fd5b5061010f61015a565b604051808215151515815260200191505060405180910390f35b60005481565b60028060000154908060010154908060020154905083565b600560009054906101000a900460ff1681565b600560019054906101000a900460ff168156fea165627a7a7230582058047ee6b345d115eecb0efec3bc37c3221b24ea437ac629d415b81820cf42240029",
  "source": "pragma solidity >=0.4.22 <0.6.0;\n\n\n/// @title Standard organ contract\n\nimport \"./Kelsen.sol\";\nimport \"./libraries/procedureLibrary.sol\";\n\n\ncontract Procedure is Kelsen {\n\n    procedureLibrary.ProcedureData public procedureInfo;\n    using procedureLibrary for address;\n    using procedureLibrary for procedureLibrary.ProcedureData;\n\n    // Identifiers to adapt procedure interface\n    bool public isAnOrgan = false;\n    bool public isAProcedure = true;\n}\n",
  "sourcePath": "/Users/henrilieutaud/Documents/Mes documents/ESILV/03 Blockchain Programmation/solidity-101/contracts/utils/Kelsen/solidity/contracts/standardProcedure.sol",
  "compiler": {
    "name": "solc",
    "version": "0.5.0+commit.1d4f565a.Emscripten.clang"
  },
  "schemaVersion": "3.0.6",
  "updatedAt": "2019-10-03T20:18:25.202Z",
  "devdoc": {
    "methods": {}
  },
  "userdoc": {
    "methods": {}
  }
}