{
  "contractName": "procedureLibrary",
  "abi": [
    {
      "constant": false,
      "inputs": [
        {
          "name": "self",
          "type": "procedureLibrary.ProcedureData storage"
        },
        {
          "name": "_procedureTypeNumber",
          "type": "uint256"
        },
        {
          "name": "_procedureName",
          "type": "bytes32"
        },
        {
          "name": "_linkedOrgans",
          "type": "uint256"
        }
      ],
      "name": "initProcedure",
      "outputs": [],
      "payable": false,
      "stateMutability": "nonpayable",
      "type": "function"
    },
    {
      "constant": false,
      "inputs": [
        {
          "name": "self",
          "type": "procedureLibrary.oneRegisteredOrgan storage"
        },
        {
          "name": "_firstOrganAddress",
          "type": "address"
        }
      ],
      "name": "initOneRegisteredOrgan",
      "outputs": [],
      "payable": false,
      "stateMutability": "nonpayable",
      "type": "function"
    },
    {
      "constant": false,
      "inputs": [
        {
          "name": "self",
          "type": "procedureLibrary.twoRegisteredOrgans storage"
        },
        {
          "name": "_firstOrganAddress",
          "type": "address"
        },
        {
          "name": "_secondOrganAddress",
          "type": "address"
        }
      ],
      "name": "initTwoRegisteredOrgans",
      "outputs": [],
      "payable": false,
      "stateMutability": "nonpayable",
      "type": "function"
    },
    {
      "constant": false,
      "inputs": [
        {
          "name": "self",
          "type": "procedureLibrary.threeRegisteredOrgans storage"
        },
        {
          "name": "_firstOrganAddress",
          "type": "address"
        },
        {
          "name": "_secondOrganAddress",
          "type": "address"
        },
        {
          "name": "_thirdOrganAddress",
          "type": "address"
        }
      ],
      "name": "initThreeRegisteredOrgans",
      "outputs": [],
      "payable": false,
      "stateMutability": "nonpayable",
      "type": "function"
    },
    {
      "constant": false,
      "inputs": [
        {
          "name": "self",
          "type": "procedureLibrary.fourRegisteredOrgans storage"
        },
        {
          "name": "_firstOrganAddress",
          "type": "address"
        },
        {
          "name": "_secondOrganAddress",
          "type": "address"
        },
        {
          "name": "_thirdOrganAddress",
          "type": "address"
        },
        {
          "name": "_fourthOrganAddress",
          "type": "address"
        }
      ],
      "name": "initFourRegisteredOrgans",
      "outputs": [],
      "payable": false,
      "stateMutability": "nonpayable",
      "type": "function"
    }
  ],
  "bytecode": "0x610609610030600b82828239805160001a6073146000811461002057610022565bfe5b5030600052607381538281f3fe730000000000000000000000000000000000000000301460806040526004361061007e576000357c01000000000000000000000000000000000000000000000000000000009004806356e77656146100835780636f53715a146100dc57806380ac418e14610157578063e0f4337814610212578063e7d640db1461026d575b600080fd5b81801561008f57600080fd5b506100da600480360360808110156100a657600080fd5b8101908080359060200190929190803590602001909291908035906020019092919080359060200190929190505050610308565b005b8180156100e857600080fd5b50610155600480360360608110156100ff57600080fd5b8101908080359060200190929190803573ffffffffffffffffffffffffffffffffffffffff169060200190929190803573ffffffffffffffffffffffffffffffffffffffff169060200190929190505050610329565b005b81801561016357600080fd5b50610210600480360360a081101561017a57600080fd5b8101908080359060200190929190803573ffffffffffffffffffffffffffffffffffffffff169060200190929190803573ffffffffffffffffffffffffffffffffffffffff169060200190929190803573ffffffffffffffffffffffffffffffffffffffff169060200190929190803573ffffffffffffffffffffffffffffffffffffffff1690602001909291905050506103b4565b005b81801561021e57600080fd5b5061026b6004803603604081101561023557600080fd5b8101908080359060200190929190803573ffffffffffffffffffffffffffffffffffffffff1690602001909291905050506104c7565b005b81801561027957600080fd5b506103066004803603608081101561029057600080fd5b8101908080359060200190929190803573ffffffffffffffffffffffffffffffffffffffff169060200190929190803573ffffffffffffffffffffffffffffffffffffffff169060200190929190803573ffffffffffffffffffffffffffffffffffffffff16906020019092919050505061050e565b005b82846000018190555081846001018190555080846002018190555050505050565b818360000160006101000a81548173ffffffffffffffffffffffffffffffffffffffff021916908373ffffffffffffffffffffffffffffffffffffffff160217905550808360010160006101000a81548173ffffffffffffffffffffffffffffffffffffffff021916908373ffffffffffffffffffffffffffffffffffffffff160217905550505050565b838560000160006101000a81548173ffffffffffffffffffffffffffffffffffffffff021916908373ffffffffffffffffffffffffffffffffffffffff160217905550828560010160006101000a81548173ffffffffffffffffffffffffffffffffffffffff021916908373ffffffffffffffffffffffffffffffffffffffff160217905550818560020160006101000a81548173ffffffffffffffffffffffffffffffffffffffff021916908373ffffffffffffffffffffffffffffffffffffffff160217905550808560030160006101000a81548173ffffffffffffffffffffffffffffffffffffffff021916908373ffffffffffffffffffffffffffffffffffffffff1602179055505050505050565b808260000160006101000a81548173ffffffffffffffffffffffffffffffffffffffff021916908373ffffffffffffffffffffffffffffffffffffffff1602179055505050565b828460000160006101000a81548173ffffffffffffffffffffffffffffffffffffffff021916908373ffffffffffffffffffffffffffffffffffffffff160217905550818460010160006101000a81548173ffffffffffffffffffffffffffffffffffffffff021916908373ffffffffffffffffffffffffffffffffffffffff160217905550808460020160006101000a81548173ffffffffffffffffffffffffffffffffffffffff021916908373ffffffffffffffffffffffffffffffffffffffff1602179055505050505056fea165627a7a72305820fb02191ce9691685a5c681d24a88401039b4200087badaf57d3937256cb08ad30029",
  "source": "pragma solidity >=0.4.22 <0.6.0;\r\n\r\nimport \"../Organ.sol\";\r\n\r\n/**\r\n\r\nKelsen Framework\r\nProcedure library\r\nThis library is used to hold the logic common to all procedures\r\n\r\n**/\r\nlibrary procedureLibrary {\r\n  \r\n    struct ProcedureData \r\n    {\r\n        uint procedureTypeNumber;\r\n        bytes32 procedureName;\r\n        uint linkedOrgans;\r\n    }\r\n\r\n    struct oneRegisteredOrgan\r\n    {\r\n        address payable firstOrganAddress;\r\n    }\r\n\r\n    struct twoRegisteredOrgans\r\n    {\r\n        address payable firstOrganAddress;\r\n        address payable secondOrganAddress;\r\n    }\r\n\r\n    struct threeRegisteredOrgans\r\n    {\r\n        address payable firstOrganAddress;\r\n        address payable secondOrganAddress;\r\n        address payable thirdOrganAddress;\r\n    }\r\n\r\n    struct fourRegisteredOrgans\r\n    {\r\n        address payable firstOrganAddress;\r\n        address payable secondOrganAddress;\r\n        address payable thirdOrganAddress;\r\n        address payable fourthOrganAddress;\r\n    }\r\n\r\n    function initProcedure(ProcedureData storage self, uint _procedureTypeNumber, bytes32 _procedureName, uint _linkedOrgans)\r\n    public\r\n    {\r\n        self.procedureTypeNumber = _procedureTypeNumber;\r\n        self.procedureName = _procedureName;\r\n        self.linkedOrgans = _linkedOrgans;\r\n    }\r\n\r\n    function initOneRegisteredOrgan(oneRegisteredOrgan storage self, address payable _firstOrganAddress)\r\n    public\r\n    {\r\n        self.firstOrganAddress = _firstOrganAddress;\r\n    }\r\n\r\n    function initTwoRegisteredOrgans(twoRegisteredOrgans storage self, address payable _firstOrganAddress, address payable _secondOrganAddress)\r\n    public\r\n    {\r\n        self.firstOrganAddress = _firstOrganAddress;\r\n        self.secondOrganAddress = _secondOrganAddress;\r\n    }\r\n\r\n    function initThreeRegisteredOrgans(threeRegisteredOrgans storage self, address payable _firstOrganAddress, address payable _secondOrganAddress, address payable _thirdOrganAddress)\r\n    public\r\n    {\r\n        self.firstOrganAddress = _firstOrganAddress;\r\n        self.secondOrganAddress = _secondOrganAddress;\r\n        self.thirdOrganAddress = _thirdOrganAddress;\r\n    }\r\n\r\n    function initFourRegisteredOrgans(fourRegisteredOrgans storage self, address payable _firstOrganAddress, address payable _secondOrganAddress, address payable _thirdOrganAddress, address payable _fourthOrganAddress)\r\n    public\r\n    {\r\n        self.firstOrganAddress = _firstOrganAddress;\r\n        self.secondOrganAddress = _secondOrganAddress;\r\n        self.thirdOrganAddress = _thirdOrganAddress;\r\n        self.fourthOrganAddress = _fourthOrganAddress;\r\n    }\r\n\r\n    function isAllowed(address payable _organAddress)\r\n    internal\r\n    view\r\n    {\r\n      // Verifying the evaluator is an admin\r\n      Organ authorizedUsersOrgan = Organ(_organAddress);\r\n\r\n      require(authorizedUsersOrgan.getAddressPositionInNorm(msg.sender) != 0);\r\n      delete _organAddress;\r\n    }\r\n\r\n}",
  "sourcePath": "C:\\Users\\hlieutaud\\Documents\\Workshop\\Solidity\\solidity-101\\contracts\\utils\\Kelsen\\solidity\\contracts\\libraries\\procedureLibrary.sol",
  "compiler": {
    "name": "solc",
    "version": "0.5.4+commit.9549d8ff.Emscripten.clang"
  },
  "schemaVersion": "3.0.10",
  "updatedAt": "2019-10-01T09:42:26.142Z",
  "devdoc": {
    "methods": {}
  },
  "userdoc": {
    "methods": {},
    "notice": "Kelsen Framework\r Procedure library\r This library is used to hold the logic common to all procedures\r*"
  }
}