{
  "contractName": "procedureLibrary",
  "abi": [
    {
      "constant": false,
      "inputs": [
        {
          "name": "self",
          "type": "procedureLibrary.ProcedureData storage"
        },
        {
          "name": "_procedureTypeNumber",
          "type": "uint256"
        },
        {
          "name": "_procedureName",
          "type": "bytes32"
        },
        {
          "name": "_linkedOrgans",
          "type": "uint256"
        }
      ],
      "name": "initProcedure",
      "outputs": [],
      "payable": false,
      "stateMutability": "nonpayable",
      "type": "function"
    },
    {
      "constant": false,
      "inputs": [
        {
          "name": "self",
          "type": "procedureLibrary.oneRegisteredOrgan storage"
        },
        {
          "name": "_firstOrganAddress",
          "type": "address"
        }
      ],
      "name": "initOneRegisteredOrgan",
      "outputs": [],
      "payable": false,
      "stateMutability": "nonpayable",
      "type": "function"
    },
    {
      "constant": false,
      "inputs": [
        {
          "name": "self",
          "type": "procedureLibrary.twoRegisteredOrgans storage"
        },
        {
          "name": "_firstOrganAddress",
          "type": "address"
        },
        {
          "name": "_secondOrganAddress",
          "type": "address"
        }
      ],
      "name": "initTwoRegisteredOrgans",
      "outputs": [],
      "payable": false,
      "stateMutability": "nonpayable",
      "type": "function"
    },
    {
      "constant": false,
      "inputs": [
        {
          "name": "self",
          "type": "procedureLibrary.threeRegisteredOrgans storage"
        },
        {
          "name": "_firstOrganAddress",
          "type": "address"
        },
        {
          "name": "_secondOrganAddress",
          "type": "address"
        },
        {
          "name": "_thirdOrganAddress",
          "type": "address"
        }
      ],
      "name": "initThreeRegisteredOrgans",
      "outputs": [],
      "payable": false,
      "stateMutability": "nonpayable",
      "type": "function"
    },
    {
      "constant": false,
      "inputs": [
        {
          "name": "self",
          "type": "procedureLibrary.fourRegisteredOrgans storage"
        },
        {
          "name": "_firstOrganAddress",
          "type": "address"
        },
        {
          "name": "_secondOrganAddress",
          "type": "address"
        },
        {
          "name": "_thirdOrganAddress",
          "type": "address"
        },
        {
          "name": "_fourthOrganAddress",
          "type": "address"
        }
      ],
      "name": "initFourRegisteredOrgans",
      "outputs": [],
      "payable": false,
      "stateMutability": "nonpayable",
      "type": "function"
    }
  ],
  "bytecode": "0x61060f610030600b82828239805160001a6073146000811461002057610022565bfe5b5030600052607381538281f3fe7300000000000000000000000000000000000000003014608060405260043610610084576000357c0100000000000000000000000000000000000000000000000000000000900463ffffffff16806356e77656146100895780636f53715a146100e257806380ac418e1461015d578063e0f4337814610218578063e7d640db14610273575b600080fd5b81801561009557600080fd5b506100e0600480360360808110156100ac57600080fd5b810190808035906020019092919080359060200190929190803590602001909291908035906020019092919050505061030e565b005b8180156100ee57600080fd5b5061015b6004803603606081101561010557600080fd5b8101908080359060200190929190803573ffffffffffffffffffffffffffffffffffffffff169060200190929190803573ffffffffffffffffffffffffffffffffffffffff16906020019092919050505061032f565b005b81801561016957600080fd5b50610216600480360360a081101561018057600080fd5b8101908080359060200190929190803573ffffffffffffffffffffffffffffffffffffffff169060200190929190803573ffffffffffffffffffffffffffffffffffffffff169060200190929190803573ffffffffffffffffffffffffffffffffffffffff169060200190929190803573ffffffffffffffffffffffffffffffffffffffff1690602001909291905050506103ba565b005b81801561022457600080fd5b506102716004803603604081101561023b57600080fd5b8101908080359060200190929190803573ffffffffffffffffffffffffffffffffffffffff1690602001909291905050506104cd565b005b81801561027f57600080fd5b5061030c6004803603608081101561029657600080fd5b8101908080359060200190929190803573ffffffffffffffffffffffffffffffffffffffff169060200190929190803573ffffffffffffffffffffffffffffffffffffffff169060200190929190803573ffffffffffffffffffffffffffffffffffffffff169060200190929190505050610514565b005b82846000018190555081846001018190555080846002018190555050505050565b818360000160006101000a81548173ffffffffffffffffffffffffffffffffffffffff021916908373ffffffffffffffffffffffffffffffffffffffff160217905550808360010160006101000a81548173ffffffffffffffffffffffffffffffffffffffff021916908373ffffffffffffffffffffffffffffffffffffffff160217905550505050565b838560000160006101000a81548173ffffffffffffffffffffffffffffffffffffffff021916908373ffffffffffffffffffffffffffffffffffffffff160217905550828560010160006101000a81548173ffffffffffffffffffffffffffffffffffffffff021916908373ffffffffffffffffffffffffffffffffffffffff160217905550818560020160006101000a81548173ffffffffffffffffffffffffffffffffffffffff021916908373ffffffffffffffffffffffffffffffffffffffff160217905550808560030160006101000a81548173ffffffffffffffffffffffffffffffffffffffff021916908373ffffffffffffffffffffffffffffffffffffffff1602179055505050505050565b808260000160006101000a81548173ffffffffffffffffffffffffffffffffffffffff021916908373ffffffffffffffffffffffffffffffffffffffff1602179055505050565b828460000160006101000a81548173ffffffffffffffffffffffffffffffffffffffff021916908373ffffffffffffffffffffffffffffffffffffffff160217905550818460010160006101000a81548173ffffffffffffffffffffffffffffffffffffffff021916908373ffffffffffffffffffffffffffffffffffffffff160217905550808460020160006101000a81548173ffffffffffffffffffffffffffffffffffffffff021916908373ffffffffffffffffffffffffffffffffffffffff1602179055505050505056fea165627a7a72305820f14e8e425e7c1994f9c15e45bcd0b37539560a5774a0763450648ae57a8f6d4f0029",
  "source": "pragma solidity >=0.4.22 <0.6.0;\n\nimport \"../Organ.sol\";\n\n/**\n\nKelsen Framework\nProcedure library\nThis library is used to hold the logic common to all procedures\n\n**/\nlibrary procedureLibrary {\n  \n    struct ProcedureData \n    {\n        uint procedureTypeNumber;\n        bytes32 procedureName;\n        uint linkedOrgans;\n    }\n\n    struct oneRegisteredOrgan\n    {\n        address payable firstOrganAddress;\n    }\n\n    struct twoRegisteredOrgans\n    {\n        address payable firstOrganAddress;\n        address payable secondOrganAddress;\n    }\n\n    struct threeRegisteredOrgans\n    {\n        address payable firstOrganAddress;\n        address payable secondOrganAddress;\n        address payable thirdOrganAddress;\n    }\n\n    struct fourRegisteredOrgans\n    {\n        address payable firstOrganAddress;\n        address payable secondOrganAddress;\n        address payable thirdOrganAddress;\n        address payable fourthOrganAddress;\n    }\n\n    function initProcedure(ProcedureData storage self, uint _procedureTypeNumber, bytes32 _procedureName, uint _linkedOrgans)\n    public\n    {\n        self.procedureTypeNumber = _procedureTypeNumber;\n        self.procedureName = _procedureName;\n        self.linkedOrgans = _linkedOrgans;\n    }\n\n    function initOneRegisteredOrgan(oneRegisteredOrgan storage self, address payable _firstOrganAddress)\n    public\n    {\n        self.firstOrganAddress = _firstOrganAddress;\n    }\n\n    function initTwoRegisteredOrgans(twoRegisteredOrgans storage self, address payable _firstOrganAddress, address payable _secondOrganAddress)\n    public\n    {\n        self.firstOrganAddress = _firstOrganAddress;\n        self.secondOrganAddress = _secondOrganAddress;\n    }\n\n    function initThreeRegisteredOrgans(threeRegisteredOrgans storage self, address payable _firstOrganAddress, address payable _secondOrganAddress, address payable _thirdOrganAddress)\n    public\n    {\n        self.firstOrganAddress = _firstOrganAddress;\n        self.secondOrganAddress = _secondOrganAddress;\n        self.thirdOrganAddress = _thirdOrganAddress;\n    }\n\n    function initFourRegisteredOrgans(fourRegisteredOrgans storage self, address payable _firstOrganAddress, address payable _secondOrganAddress, address payable _thirdOrganAddress, address payable _fourthOrganAddress)\n    public\n    {\n        self.firstOrganAddress = _firstOrganAddress;\n        self.secondOrganAddress = _secondOrganAddress;\n        self.thirdOrganAddress = _thirdOrganAddress;\n        self.fourthOrganAddress = _fourthOrganAddress;\n    }\n\n    function isAllowed(address payable _organAddress)\n    internal\n    view\n    {\n      // Verifying the evaluator is an admin\n      Organ authorizedUsersOrgan = Organ(_organAddress);\n\n      require(authorizedUsersOrgan.getAddressPositionInNorm(msg.sender) != 0);\n      delete _organAddress;\n    }\n\n}",
  "sourcePath": "/Users/henrilieutaud/Documents/Mes documents/ESILV/03 Blockchain Programmation/solidity-101/contracts/utils/Kelsen/solidity/contracts/libraries/procedureLibrary.sol",
  "compiler": {
    "name": "solc",
    "version": "0.5.0+commit.1d4f565a.Emscripten.clang"
  },
  "schemaVersion": "3.0.6",
  "updatedAt": "2019-10-03T20:18:25.172Z",
  "devdoc": {
    "methods": {}
  },
  "userdoc": {
    "methods": {},
    "notice": "Kelsen Framework Procedure library This library is used to hold the logic common to all procedures*"
  }
}