{
  "contractName": "Procedure",
  "abi": [
    {
      "constant": true,
      "inputs": [],
      "name": "kelsenVersionNumber",
      "outputs": [
        {
          "name": "",
          "type": "int256"
        }
      ],
      "payable": false,
      "stateMutability": "view",
      "type": "function"
    },
    {
      "constant": true,
      "inputs": [],
      "name": "procedureInfo",
      "outputs": [
        {
          "name": "procedureTypeNumber",
          "type": "uint256"
        },
        {
          "name": "procedureName",
          "type": "bytes32"
        },
        {
          "name": "linkedOrgans",
          "type": "uint256"
        }
      ],
      "payable": false,
      "stateMutability": "view",
      "type": "function"
    },
    {
      "constant": true,
      "inputs": [],
      "name": "isAnOrgan",
      "outputs": [
        {
          "name": "",
          "type": "bool"
        }
      ],
      "payable": false,
      "stateMutability": "view",
      "type": "function"
    },
    {
      "constant": true,
      "inputs": [],
      "name": "isAProcedure",
      "outputs": [
        {
          "name": "",
          "type": "bool"
        }
      ],
      "payable": false,
      "stateMutability": "view",
      "type": "function"
    }
  ],
  "bytecode": "0x608060405260026000556000600560006101000a81548160ff0219169083151502179055506001600560016101000a81548160ff02191690831515021790555034801561004b57600080fd5b5061016c8061005b6000396000f3fe608060405234801561001057600080fd5b5060043610610069576000357c0100000000000000000000000000000000000000000000000000000000900480635dbe4d281461006e5780639397942e1461008c578063a8bef97a146100b8578063e80b30a5146100da575b600080fd5b6100766100fc565b6040518082815260200191505060405180910390f35b610094610102565b60405180848152602001838152602001828152602001935050505060405180910390f35b6100c061011a565b604051808215151515815260200191505060405180910390f35b6100e261012d565b604051808215151515815260200191505060405180910390f35b60005481565b60028060000154908060010154908060020154905083565b600560009054906101000a900460ff1681565b600560019054906101000a900460ff168156fea165627a7a72305820bd074353446c02006e68bfb3c829fefd32180f42ee0310b89591b32e5d9d22640029",
  "source": "pragma solidity >=0.4.22 <0.6.0;\r\n\r\n\r\n/// @title Standard organ contract\r\n\r\nimport \"./Kelsen.sol\";\r\nimport \"./libraries/procedureLibrary.sol\";\r\n\r\n\r\ncontract Procedure is Kelsen {\r\n\r\n    procedureLibrary.ProcedureData public procedureInfo;\r\n    using procedureLibrary for address;\r\n    using procedureLibrary for procedureLibrary.ProcedureData;\r\n\r\n    // Identifiers to adapt procedure interface\r\n    bool public isAnOrgan = false;\r\n    bool public isAProcedure = true;\r\n}\r\n",
  "sourcePath": "C:\\Users\\hlieutaud\\Documents\\Workshop\\Solidity\\solidity-101\\contracts\\utils\\Kelsen\\solidity\\contracts\\standardProcedure.sol",
  "compiler": {
    "name": "solc",
    "version": "0.5.4+commit.9549d8ff.Emscripten.clang"
  },
  "schemaVersion": "3.0.10",
  "updatedAt": "2019-10-01T09:15:28.283Z",
  "devdoc": {
    "methods": {}
  },
  "userdoc": {
    "methods": {}
  }
}