{
  "contractName": "propositionVotingLibrary",
  "abi": [
    {
      "anonymous": false,
      "inputs": [
        {
          "indexed": false,
          "name": "_from",
          "type": "address"
        },
        {
          "indexed": false,
          "name": "_targetOrgan",
          "type": "address"
        },
        {
          "indexed": false,
          "name": "_propositionType",
          "type": "uint256"
        },
        {
          "indexed": false,
          "name": "_propositionNumber",
          "type": "uint256"
        },
        {
          "indexed": false,
          "name": "_ipfsHash",
          "type": "bytes32"
        },
        {
          "indexed": false,
          "name": "_hash_function",
          "type": "uint8"
        },
        {
          "indexed": false,
          "name": "_size",
          "type": "uint8"
        }
      ],
      "name": "createPropositionEvent",
      "type": "event"
    },
    {
      "anonymous": false,
      "inputs": [
        {
          "indexed": false,
          "name": "_contractToAdd",
          "type": "address"
        },
        {
          "indexed": false,
          "name": "_contractToRemove",
          "type": "address"
        }
      ],
      "name": "createPropositionDetails",
      "type": "event"
    },
    {
      "anonymous": false,
      "inputs": [
        {
          "indexed": false,
          "name": "_propositionNumber",
          "type": "uint256"
        },
        {
          "indexed": false,
          "name": "_canAdd",
          "type": "bool"
        },
        {
          "indexed": false,
          "name": "_canDelete",
          "type": "bool"
        }
      ],
      "name": "createMasterPropositionEvent",
      "type": "event"
    },
    {
      "anonymous": false,
      "inputs": [
        {
          "indexed": false,
          "name": "_propositionNumber",
          "type": "uint256"
        },
        {
          "indexed": false,
          "name": "_canAdd",
          "type": "bool"
        },
        {
          "indexed": false,
          "name": "_canDelete",
          "type": "bool"
        },
        {
          "indexed": false,
          "name": "_canDeposit",
          "type": "bool"
        },
        {
          "indexed": false,
          "name": "_canSpend",
          "type": "bool"
        }
      ],
      "name": "createAdminPropositionEvent",
      "type": "event"
    },
    {
      "anonymous": false,
      "inputs": [
        {
          "indexed": false,
          "name": "_from",
          "type": "address"
        },
        {
          "indexed": false,
          "name": "_propositionNumber",
          "type": "uint256"
        }
      ],
      "name": "voteOnProposition",
      "type": "event"
    },
    {
      "anonymous": false,
      "inputs": [
        {
          "indexed": false,
          "name": "_from",
          "type": "address"
        },
        {
          "indexed": false,
          "name": "_propositionNumber",
          "type": "uint256"
        }
      ],
      "name": "vetoProposition",
      "type": "event"
    },
    {
      "anonymous": false,
      "inputs": [
        {
          "indexed": false,
          "name": "_from",
          "type": "address"
        },
        {
          "indexed": false,
          "name": "_propositionNumber",
          "type": "uint256"
        }
      ],
      "name": "countVotes",
      "type": "event"
    },
    {
      "anonymous": false,
      "inputs": [
        {
          "indexed": false,
          "name": "_from",
          "type": "address"
        },
        {
          "indexed": false,
          "name": "_propositionNumber",
          "type": "uint256"
        },
        {
          "indexed": false,
          "name": "_promulgate",
          "type": "bool"
        }
      ],
      "name": "promulgatePropositionEvent",
      "type": "event"
    },
    {
      "constant": false,
      "inputs": [
        {
          "name": "self",
          "type": "propositionVotingLibrary.VotingProcessInfo storage"
        },
        {
          "name": "_quorumSize",
          "type": "uint256"
        },
        {
          "name": "_votingPeriodDuration",
          "type": "uint256"
        },
        {
          "name": "_promulgationPeriodDuration",
          "type": "uint256"
        },
        {
          "name": "_majoritySize",
          "type": "uint256"
        }
      ],
      "name": "initElectionParameters",
      "outputs": [],
      "payable": false,
      "stateMutability": "nonpayable",
      "type": "function"
    },
    {
      "constant": true,
      "inputs": [
        {
          "name": "_packedBools",
          "type": "uint256"
        },
        {
          "name": "_boolNumber",
          "type": "uint256"
        }
      ],
      "name": "getBoolean",
      "outputs": [
        {
          "name": "",
          "type": "bool"
        }
      ],
      "payable": false,
      "stateMutability": "pure",
      "type": "function"
    },
    {
      "constant": true,
      "inputs": [
        {
          "name": "_packedBools",
          "type": "uint256"
        },
        {
          "name": "_boolNumber",
          "type": "uint256"
        },
        {
          "name": "_value",
          "type": "bool"
        }
      ],
      "name": "setBoolean",
      "outputs": [
        {
          "name": "",
          "type": "uint256"
        }
      ],
      "payable": false,
      "stateMutability": "pure",
      "type": "function"
    },
    {
      "constant": false,
      "inputs": [
        {
          "name": "self",
          "type": "propositionVotingLibrary.VotingProcessInfo storage"
        },
        {
          "name": "_targetOrgan",
          "type": "address"
        },
        {
          "name": "_contractToAdd",
          "type": "address"
        },
        {
          "name": "_contractToRemove",
          "type": "address"
        },
        {
          "name": "_ipfsHash",
          "type": "bytes32"
        },
        {
          "name": "_hash_function",
          "type": "uint8"
        },
        {
          "name": "_size",
          "type": "uint8"
        },
        {
          "name": "_canAdd",
          "type": "bool"
        },
        {
          "name": "_canDelete",
          "type": "bool"
        },
        {
          "name": "_canDeposit",
          "type": "bool"
        },
        {
          "name": "_canSpend",
          "type": "bool"
        },
        {
          "name": "_propositionType",
          "type": "uint256"
        }
      ],
      "name": "createPropositionLib",
      "outputs": [
        {
          "name": "propositionNumber",
          "type": "uint256"
        }
      ],
      "payable": false,
      "stateMutability": "nonpayable",
      "type": "function"
    },
    {
      "constant": false,
      "inputs": [
        {
          "name": "self",
          "type": "propositionVotingLibrary.VotingProcessInfo storage"
        },
        {
          "name": "proposition",
          "type": "propositionVotingLibrary.Proposition storage"
        },
        {
          "name": "_acceptProposition",
          "type": "bool"
        }
      ],
      "name": "voteLib",
      "outputs": [],
      "payable": false,
      "stateMutability": "nonpayable",
      "type": "function"
    },
    {
      "constant": false,
      "inputs": [
        {
          "name": "proposition",
          "type": "propositionVotingLibrary.Proposition storage"
        }
      ],
      "name": "vetoLib",
      "outputs": [],
      "payable": false,
      "stateMutability": "nonpayable",
      "type": "function"
    },
    {
      "constant": false,
      "inputs": [
        {
          "name": "self",
          "type": "propositionVotingLibrary.VotingProcessInfo storage"
        },
        {
          "name": "proposition",
          "type": "propositionVotingLibrary.Proposition storage"
        },
        {
          "name": "votersOrganAddress",
          "type": "address"
        }
      ],
      "name": "endPropositionVoteLib",
      "outputs": [
        {
          "name": "hasBeenAccepted",
          "type": "bool"
        }
      ],
      "payable": false,
      "stateMutability": "nonpayable",
      "type": "function"
    },
    {
      "constant": false,
      "inputs": [
        {
          "name": "proposition",
          "type": "propositionVotingLibrary.Proposition storage"
        },
        {
          "name": "_promulgate",
          "type": "bool"
        }
      ],
      "name": "promulgatePropositionLib",
      "outputs": [],
      "payable": false,
      "stateMutability": "nonpayable",
      "type": "function"
    },
    {
      "constant": false,
      "inputs": [
        {
          "name": "proposition",
          "type": "propositionVotingLibrary.Proposition storage"
        }
      ],
      "name": "archiveDefunctPropositionLib",
      "outputs": [],
      "payable": false,
      "stateMutability": "nonpayable",
      "type": "function"
    },
    {
      "constant": false,
      "inputs": [
        {
          "name": "proposition",
          "type": "propositionVotingLibrary.Proposition storage"
        },
        {
          "name": "_promulgate",
          "type": "bool"
        }
      ],
      "name": "processPayoutPropositionLib",
      "outputs": [],
      "payable": false,
      "stateMutability": "nonpayable",
      "type": "function"
    }
  ],
  "bytecode": "0x6123b7610030600b82828239805160001a6073146000811461002057610022565bfe5b5030600052607381538281f3fe73000000000000000000000000000000000000000030146080604052600436106100bb576000357c0100000000000000000000000000000000000000000000000000000000900463ffffffff16806320ffac54146100c05780633369581c146100fb57806396233b5f14610136578063995e922814610187578063a062e2b7146101d7578063aed723d51461023a578063cd3393d0146102b7578063d2e73b9d146103c5578063da66af9c1461040c578063e0f9895514610453575b600080fd5b8180156100cc57600080fd5b506100f9600480360360208110156100e357600080fd5b81019080803590602001909291905050506104ab565b005b81801561010757600080fd5b506101346004803603602081101561011e57600080fd5b810190808035906020019092919050505061084a565b005b81801561014257600080fd5b506101856004803603606081101561015957600080fd5b810190808035906020019092919080359060200190929190803515159060200190929190505050610909565b005b6101bd6004803603604081101561019d57600080fd5b810190808035906020019092919080359060200190929190505050610a8e565b604051808215151515815260200191505060405180910390f35b8180156101e357600080fd5b50610238600480360360a08110156101fa57600080fd5b810190808035906020019092919080359060200190929190803590602001909291908035906020019092919080359060200190929190505050610abd565b005b81801561024657600080fd5b5061029d6004803603606081101561025d57600080fd5b810190808035906020019092919080359060200190929190803573ffffffffffffffffffffffffffffffffffffffff169060200190929190505050610ae8565b604051808215151515815260200191505060405180910390f35b8180156102c357600080fd5b506103af60048036036101808110156102db57600080fd5b8101908080359060200190929190803573ffffffffffffffffffffffffffffffffffffffff169060200190929190803573ffffffffffffffffffffffffffffffffffffffff169060200190929190803573ffffffffffffffffffffffffffffffffffffffff16906020019092919080359060200190929190803560ff169060200190929190803560ff16906020019092919080351515906020019092919080351515906020019092919080351515906020019092919080351515906020019092919080359060200190929190505050610d2d565b6040518082815260200191505060405180910390f35b8180156103d157600080fd5b5061040a600480360360408110156103e857600080fd5b8101908080359060200190929190803515159060200190929190505050611337565b005b81801561041857600080fd5b506104516004803603604081101561042f57600080fd5b81019080803590602001909291908035151590602001909291905050506120e9565b005b6104956004803603606081101561046957600080fd5b81019080803590602001909291908035906020019092919080351515906020019092919050505061235d565b6040518082815260200191505060405180910390f35b60008160030154141515156104bf57600080fd5b60008160070160009054906101000a900473ffffffffffffffffffffffffffffffffffffffff1690506000806006846001015410156105e2578273ffffffffffffffffffffffffffffffffffffffff1663f720f80b306040518263ffffffff167c0100000000000000000000000000000000000000000000000000000000028152600401808273ffffffffffffffffffffffffffffffffffffffff1673ffffffffffffffffffffffffffffffffffffffff168152602001915050604080518083038186803b15801561059057600080fd5b505afa1580156105a4573d6000803e3d6000fd5b505050506040513d60408110156105ba57600080fd5b81019080805190602001909291908051906020019092919050505080925081935050506106e0565b8273ffffffffffffffffffffffffffffffffffffffff166324d7806c306040518263ffffffff167c0100000000000000000000000000000000000000000000000000000000028152600401808273ffffffffffffffffffffffffffffffffffffffff1673ffffffffffffffffffffffffffffffffffffffff16815260200191505060806040518083038186803b15801561067b57600080fd5b505afa15801561068f573d6000803e3d6000fd5b505050506040513d60808110156106a557600080fd5b810190808051906020019092919080519060200190929190805190602001909291908051906020019092919050505090505080925081935050505b8115801561073f5750600073ffffffffffffffffffffffffffffffffffffffff168460080160009054906101000a900473ffffffffffffffffffffffffffffffffffffffff1673ffffffffffffffffffffffffffffffffffffffff1614155b806107a55750801580156107a45750600073ffffffffffffffffffffffffffffffffffffffff168460090160009054906101000a900473ffffffffffffffffffffffffffffffffffffffff1673ffffffffffffffffffffffffffffffffffffffff1614155b5b156107c85760018460000160076101000a81548160ff0219169083151502179055505b7fed7c73834db4ae22add7f637175d8a32a1dddae4c154ccd25195b77df4c8d18d3385600601546000604051808473ffffffffffffffffffffffffffffffffffffffff1673ffffffffffffffffffffffffffffffffffffffff16815260200183815260200182151515158152602001935050505060405180910390a150505050565b8060000160059054906101000a900460ff1615151561086857600080fd5b42816003015411151561087a57600080fd5b60018160000160046101000a81548160ff0219169083151502179055507f62901d9c2f788a5c877cf5a2659a041eedf9a980c6dd3ed22a4878bcc228619b338260060154604051808373ffffffffffffffffffffffffffffffffffffffff1673ffffffffffffffffffffffffffffffffffffffff1681526020018281526020019250505060405180910390a150565b6109588360050160003373ffffffffffffffffffffffffffffffffffffffff1673ffffffffffffffffffffffffffffffffffffffff168152602001908152602001600020548360060154610a8e565b15151561096457600080fd5b8160000160059054906101000a900460ff1615151561098257600080fd5b42826003015411151561099457600080fd5b6001151581151514156109b557600182600401600082825401925050819055505b610a068360050160003373ffffffffffffffffffffffffffffffffffffffff1673ffffffffffffffffffffffffffffffffffffffff168152602001908152602001600020548360060154600161235d565b50600182600501600082825401925050819055507fd1faddd599b0d6b58c83de71d7ff5395895b5891894dcd37f2482f33b2a1c43d338360060154604051808373ffffffffffffffffffffffffffffffffffffffff1673ffffffffffffffffffffffffffffffffffffffff1681526020018281526020019250505060405180910390a1505050565b60008060018385908060020a820491505016905060018114610ab1576000610ab4565b60015b91505092915050565b8385600001819055508285600101819055508185600201819055508085600301819055505050505050565b60008260000160059054906101000a900460ff16151515610b0857600080fd5b428360030154101515610b1a57600080fd5b6000836003015414151515610b2e57600080fd5b600082905060008173ffffffffffffffffffffffffffffffffffffffff1663bbea06196040518163ffffffff167c0100000000000000000000000000000000000000000000000000000000028152600401604080518083038186803b158015610b9657600080fd5b505afa158015610baa573d6000803e3d6000fd5b505050506040513d6040811015610bc057600080fd5b8101908080519060200190929190805190602001909291905050509150508460000160049054906101000a900460ff1615610c1b576000925060018560000160076101000a81548160ff021916908315150217905550610c79565b80866000015402606486600501540210158015610c48575085600301548560050154026064866004015402115b15610c565760019250610c78565b6000925060018560000160076101000a81548160ff0219169083151502179055505b5b60018560000160056101000a81548160ff021916908315150217905550828560000160066101000a81548160ff0219169083151502179055507f297f1f08d2ef8c90272f7ee3e1d4272015a96cdff8a252b60547b9e432e72360338660060154604051808373ffffffffffffffffffffffffffffffffffffffff1673ffffffffffffffffffffffffffffffffffffffff1681526020018281526020019250505060405180910390a182925050509392505050565b60008c6004015490508b8d600601600083815260200190815260200160002060070160006101000a81548173ffffffffffffffffffffffffffffffffffffffff021916908373ffffffffffffffffffffffffffffffffffffffff1602179055508a8d600601600083815260200190815260200160002060080160006101000a81548173ffffffffffffffffffffffffffffffffffffffff021916908373ffffffffffffffffffffffffffffffffffffffff160217905550898d600601600083815260200190815260200160002060090160006101000a81548173ffffffffffffffffffffffffffffffffffffffff021916908373ffffffffffffffffffffffffffffffffffffffff160217905550888d600601600083815260200190815260200160002060020181905550878d600601600083815260200190815260200160002060000160086101000a81548160ff021916908360ff160217905550868d600601600083815260200190815260200160002060000160096101000a81548160ff021916908360ff160217905550858d600601600083815260200190815260200160002060000160006101000a81548160ff021916908315150217905550848d600601600083815260200190815260200160002060000160016101000a81548160ff021916908315150217905550828d600601600083815260200190815260200160002060000160026101000a81548160ff021916908315150217905550838d600601600083815260200190815260200160002060000160036101000a81548160ff021916908315150217905550818d6006016000838152602001908152602001600020600101819055508c6001015442018d60060160008381526020019081526020016000206003018190555060008d600601600083815260200190815260200160002060000160046101000a81548160ff02191690831515021790555060008d600601600083815260200190815260200160002060000160076101000a81548160ff02191690831515021790555060008d600601600083815260200190815260200160002060000160056101000a81548160ff02191690831515021790555060008d600601600083815260200190815260200160002060000160066101000a81548160ff02191690831515021790555060008d60060160008381526020019081526020016000206005018190555060008d600601600083815260200190815260200160002060040181905550808d60060160008381526020019081526020016000206006018190555060018d600401600082825401925050819055507ff92a740d453f330ca11a309148b364fabf2da98f81f4fc2c876ff86a4844da8b338d84848d8d8d604051808873ffffffffffffffffffffffffffffffffffffffff1673ffffffffffffffffffffffffffffffffffffffff1681526020018773ffffffffffffffffffffffffffffffffffffffff1673ffffffffffffffffffffffffffffffffffffffff1681526020018681526020018581526020018481526020018360ff1660ff1681526020018260ff1660ff16815260200197505050505050505060405180910390a17fe00280f434fd134c148d59d0345a47457ed75114c60d70d759e43848b8faf7f58b8b604051808373ffffffffffffffffffffffffffffffffffffffff1673ffffffffffffffffffffffffffffffffffffffff1681526020018273ffffffffffffffffffffffffffffffffffffffff1673ffffffffffffffffffffffffffffffffffffffff1681526020019250505060405180910390a160038210156112a9577fb91f9b0f33e5d279420575ac3eb8a99efa85ec13ee39f815477e6043c3d76fa1818787604051808481526020018315151515815260200182151515158152602001935050505060405180910390a1611327565b6002821180156112b95750600682105b15611326577f4d99d0eecab7fb4d4b35d5f0277148953e6b8046c83debc341fe52de98fe0482818787878760405180868152602001851515151581526020018415151515815260200183151515158152602001821515151581526020019550505050505060405180910390a15b5b9c9b505050505050505050505050565b8160000160079054906101000a900460ff1615151561135557600080fd5b8160000160059054906101000a900460ff16151561137257600080fd5b8160000160069054906101000a900460ff16151561138f57600080fd5b8015156114335760018260000160076101000a81548160ff0219169083151502179055507fed7c73834db4ae22add7f637175d8a32a1dddae4c154ccd25195b77df4c8d18d33836006015483604051808473ffffffffffffffffffffffffffffffffffffffff1673ffffffffffffffffffffffffffffffffffffffff16815260200183815260200182151515158152602001935050505060405180910390a16120e5565b6006826001015410156114fd57600073ffffffffffffffffffffffffffffffffffffffff168260080160009054906101000a900473ffffffffffffffffffffffffffffffffffffffff1673ffffffffffffffffffffffffffffffffffffffff161415806114f15750600073ffffffffffffffffffffffffffffffffffffffff168260090160009054906101000a900473ffffffffffffffffffffffffffffffffffffffff1673ffffffffffffffffffffffffffffffffffffffff1614155b15156114fc57600080fd5b5b60008260070160009054906101000a900473ffffffffffffffffffffffffffffffffffffffff169050600083600101541415611649578073ffffffffffffffffffffffffffffffffffffffff16633f7819a18460080160009054906101000a900473ffffffffffffffffffffffffffffffffffffffff168560000160009054906101000a900460ff168660000160019054906101000a900460ff166040518463ffffffff167c0100000000000000000000000000000000000000000000000000000000028152600401808473ffffffffffffffffffffffffffffffffffffffff1673ffffffffffffffffffffffffffffffffffffffff16815260200183151515158152602001821515151581526020019350505050600060405180830381600087803b15801561162c57600080fd5b505af1158015611640573d6000803e3d6000fd5b5050505061204b565b600183600101541415611732578073ffffffffffffffffffffffffffffffffffffffff166331a791988460090160009054906101000a900473ffffffffffffffffffffffffffffffffffffffff166040518263ffffffff167c0100000000000000000000000000000000000000000000000000000000028152600401808273ffffffffffffffffffffffffffffffffffffffff1673ffffffffffffffffffffffffffffffffffffffff168152602001915050600060405180830381600087803b15801561171557600080fd5b505af1158015611729573d6000803e3d6000fd5b5050505061204a565b6002836001015414156118ad578073ffffffffffffffffffffffffffffffffffffffff16636f2a4d5f8460090160009054906101000a900473ffffffffffffffffffffffffffffffffffffffff168560080160009054906101000a900473ffffffffffffffffffffffffffffffffffffffff168660000160009054906101000a900460ff168760000160019054906101000a900460ff166040518563ffffffff167c0100000000000000000000000000000000000000000000000000000000028152600401808573ffffffffffffffffffffffffffffffffffffffff1673ffffffffffffffffffffffffffffffffffffffff1681526020018473ffffffffffffffffffffffffffffffffffffffff1673ffffffffffffffffffffffffffffffffffffffff1681526020018315151515815260200182151515158152602001945050505050600060405180830381600087803b15801561189057600080fd5b505af11580156118a4573d6000803e3d6000fd5b50505050612049565b600383600101541415611a0a578073ffffffffffffffffffffffffffffffffffffffff166379524d2d8460080160009054906101000a900473ffffffffffffffffffffffffffffffffffffffff168560000160009054906101000a900460ff168660000160019054906101000a900460ff168760000160039054906101000a900460ff168860000160029054906101000a900460ff166040518663ffffffff167c0100000000000000000000000000000000000000000000000000000000028152600401808673ffffffffffffffffffffffffffffffffffffffff1673ffffffffffffffffffffffffffffffffffffffff1681526020018515151515815260200184151515158152602001831515151581526020018215151515815260200195505050505050600060405180830381600087803b1580156119ed57600080fd5b505af1158015611a01573d6000803e3d6000fd5b50505050612048565b600483600101541415611af3578073ffffffffffffffffffffffffffffffffffffffff166311c604188460090160009054906101000a900473ffffffffffffffffffffffffffffffffffffffff166040518263ffffffff167c0100000000000000000000000000000000000000000000000000000000028152600401808273ffffffffffffffffffffffffffffffffffffffff1673ffffffffffffffffffffffffffffffffffffffff168152602001915050600060405180830381600087803b158015611ad657600080fd5b505af1158015611aea573d6000803e3d6000fd5b50505050612047565b600583600101541415611ca8578073ffffffffffffffffffffffffffffffffffffffff166371e7f3748460090160009054906101000a900473ffffffffffffffffffffffffffffffffffffffff168560080160009054906101000a900473ffffffffffffffffffffffffffffffffffffffff168660000160009054906101000a900460ff168760000160019054906101000a900460ff168860000160039054906101000a900460ff168960000160029054906101000a900460ff166040518763ffffffff167c0100000000000000000000000000000000000000000000000000000000028152600401808773ffffffffffffffffffffffffffffffffffffffff1673ffffffffffffffffffffffffffffffffffffffff1681526020018673ffffffffffffffffffffffffffffffffffffffff1673ffffffffffffffffffffffffffffffffffffffff168152602001851515151581526020018415151515815260200183151515158152602001821515151581526020019650505050505050600060405180830381600087803b158015611c8b57600080fd5b505af1158015611c9f573d6000803e3d6000fd5b50505050612046565b600683600101541415611dff578073ffffffffffffffffffffffffffffffffffffffff1663a08c3cb58460080160009054906101000a900473ffffffffffffffffffffffffffffffffffffffff1685600201548660000160089054906101000a900460ff168760000160099054906101000a900460ff166040518563ffffffff167c0100000000000000000000000000000000000000000000000000000000028152600401808573ffffffffffffffffffffffffffffffffffffffff1673ffffffffffffffffffffffffffffffffffffffff1681526020018481526020018360ff1660ff1681526020018260ff1660ff168152602001945050505050602060405180830381600087803b158015611dbe57600080fd5b505af1158015611dd2573d6000803e3d6000fd5b505050506040513d6020811015611de857600080fd5b810190808051906020019092919050505050612045565b600783600101541415611ed2578073ffffffffffffffffffffffffffffffffffffffff16630e9defff8460090160009054906101000a900473ffffffffffffffffffffffffffffffffffffffff1673ffffffffffffffffffffffffffffffffffffffff166040518263ffffffff167c010000000000000000000000000000000000000000000000000000000002815260040180828152602001915050600060405180830381600087803b158015611eb557600080fd5b505af1158015611ec9573d6000803e3d6000fd5b50505050612044565b600883600101541415612043578073ffffffffffffffffffffffffffffffffffffffff16636c49e0878460090160009054906101000a900473ffffffffffffffffffffffffffffffffffffffff1673ffffffffffffffffffffffffffffffffffffffff168560080160009054906101000a900473ffffffffffffffffffffffffffffffffffffffff1686600201548760000160089054906101000a900460ff168860000160099054906101000a900460ff166040518663ffffffff167c0100000000000000000000000000000000000000000000000000000000028152600401808681526020018573ffffffffffffffffffffffffffffffffffffffff1673ffffffffffffffffffffffffffffffffffffffff1681526020018481526020018360ff1660ff1681526020018260ff1660ff16815260200195505050505050600060405180830381600087803b15801561202a57600080fd5b505af115801561203e573d6000803e3d6000fd5b505050505b5b5b5b5b5b5b5b5b60018360000160076101000a81548160ff0219169083151502179055507fed7c73834db4ae22add7f637175d8a32a1dddae4c154ccd25195b77df4c8d18d33846006015484604051808473ffffffffffffffffffffffffffffffffffffffff1673ffffffffffffffffffffffffffffffffffffffff16815260200183815260200182151515158152602001935050505060405180910390a1505b5050565b8160000160079054906101000a900460ff1615151561210757600080fd5b8160000160059054906101000a900460ff16151561212457600080fd5b8160000160069054906101000a900460ff16151561214157600080fd5b80806121ae5750600073ffffffffffffffffffffffffffffffffffffffff168260080160009054906101000a900473ffffffffffffffffffffffffffffffffffffffff1673ffffffffffffffffffffffffffffffffffffffff161415806121ad57506000826001015414155b5b156122c15760008260070160009054906101000a900473ffffffffffffffffffffffffffffffffffffffff1690508073ffffffffffffffffffffffffffffffffffffffff1663117de2fd8460080160009054906101000a900473ffffffffffffffffffffffffffffffffffffffff1685600101546040518363ffffffff167c0100000000000000000000000000000000000000000000000000000000028152600401808373ffffffffffffffffffffffffffffffffffffffff1673ffffffffffffffffffffffffffffffffffffffff16815260200182815260200192505050600060405180830381600087803b1580156122a757600080fd5b505af11580156122bb573d6000803e3d6000fd5b50505050505b60018260000160076101000a81548160ff0219169083151502179055507fed7c73834db4ae22add7f637175d8a32a1dddae4c154ccd25195b77df4c8d18d33836006015483604051808473ffffffffffffffffffffffffffffffffffffffff1673ffffffffffffffffffffffffffffffffffffffff16815260200183815260200182151515158152602001935050505060405180910390a15050565b60008115612376578260019060020a0284179050612384565b8260019060020a0219841690505b939250505056fea165627a7a723058205128a8f4685effb8a8a525d35746c331ccb3e8f42eda63a6172ea3515ddda1f50029",
  "source": "pragma solidity >=0.4.22 <0.6.0;\n\nimport \"../Organ.sol\";\n\n/**\n\nKelsen Framework\nProcedure library\nThis library is used to hold the logic common to all procedures\n\n**/\nlibrary propositionVotingLibrary {\n  \n    struct VotingProcessInfo \n    {\n        uint quorumSize;\n        uint votingPeriodDuration;\n        uint promulgationPeriodDuration;\n        uint majoritySize;\n        uint nextPropositionNumber;\n        // Mapping to track user participation\n        mapping(address => uint256) userParticipation;\n        mapping(uint => Proposition) propositions;\n    }\n\n        // Proposition structure\n    struct Proposition \n    {\n        //Authorization bools\n        bool canAdd;  // if true, Admin can add norms\n        bool canDelete;  // if true, Admin can delete norms\n        bool canSpend;\n        bool canDeposit;\n        // Counting bools\n        bool wasVetoed;\n        bool wasCounted;\n        bool wasAccepted;\n        bool wasEnded;\n        uint8 hash_function;\n        uint8 size;\n        // Proposition type typonomy\n        // 0: Add master\n        // 1: Remove master\n        // 2: Replace master\n        // 3: Add admin\n        // 4: Remove admin\n        // 5: Replace admin\n        // 6: Add norm\n        // 7: Remove norm. In this case, the norm to be removed must be designated by its NUMBER, encoded in hex in the contractToRemove field.\n        // 8: Replace norm. In this case, the norm to be replaced must be designated by its NUMBER, encoded in hex in the contractToRemove field.\n        // If the proposition is a payout proposition, the propositionType field is used to specify the desired payout. \n        // In this case it needs to be processed with the processPayoutPropositionLib() function\n        uint propositionType;\n        bytes32 ipfsHash; // ID of proposal on IPFS\n        \n        uint votingPeriodEndDate;\n        uint voteFor;\n        // uint voteAgainst;\n        uint totalVoteCount;\n        uint propositionNumber;\n        // Proposition details\n        address payable targetOrgan;\n        address payable contractToAdd;\n        address contractToRemove;\n    }\n\n    // Events\n\n    event createPropositionEvent(address _from, address _targetOrgan, uint _propositionType, uint _propositionNumber, bytes32 _ipfsHash, uint8 _hash_function, uint8 _size);\n    event createPropositionDetails(address _contractToAdd, address _contractToRemove);\n    event createMasterPropositionEvent(uint _propositionNumber, bool _canAdd, bool _canDelete);\n    event createAdminPropositionEvent(uint _propositionNumber, bool _canAdd, bool _canDelete, bool _canDeposit, bool _canSpend);\n    event voteOnProposition(address _from, uint _propositionNumber);\n    event vetoProposition(address _from, uint _propositionNumber);\n    event countVotes(address _from, uint _propositionNumber);\n    event promulgatePropositionEvent(address _from, uint _propositionNumber, bool _promulgate);\n\n\n    function initElectionParameters(VotingProcessInfo storage self, uint _quorumSize, uint _votingPeriodDuration, uint _promulgationPeriodDuration, uint _majoritySize)\n    public\n    {\n        self.quorumSize = _quorumSize;\n        self.votingPeriodDuration = _votingPeriodDuration;\n        self.promulgationPeriodDuration = _promulgationPeriodDuration;\n        self.majoritySize = _majoritySize;\n    }\n\n    function getBoolean(uint256 _packedBools, uint256 _boolNumber)\n    public \n    pure \n    returns(bool)\n    {\n        uint256 flag = (_packedBools >> _boolNumber) & uint256(1);\n        return (flag == 1 ? true : false);\n    }\n\n    function setBoolean(uint256 _packedBools, uint256 _boolNumber, bool _value) \n    public \n    pure \n    returns(uint256) \n    {\n        if (_value)\n            return _packedBools | uint256(1) << _boolNumber;\n        else\n            return _packedBools & ~(uint256(1) << _boolNumber);\n    }\n\n        /// Create a new ballot to choose one of `proposalNames`.\n    function createPropositionLib(VotingProcessInfo storage self, address payable _targetOrgan, address payable _contractToAdd, address _contractToRemove, bytes32 _ipfsHash, uint8 _hash_function, uint8 _size, bool _canAdd, bool _canDelete, bool _canDeposit, bool _canSpend, uint _propositionType) \n    public \n    returns (uint propositionNumber)\n    {\n        // Retrieving proposition number\n        propositionNumber = self.nextPropositionNumber;\n\n        self.propositions[propositionNumber].targetOrgan = _targetOrgan;\n        self.propositions[propositionNumber].contractToAdd = _contractToAdd;\n        self.propositions[propositionNumber].contractToRemove = _contractToRemove;\n        self.propositions[propositionNumber].ipfsHash = _ipfsHash;\n        self.propositions[propositionNumber].hash_function = _hash_function;\n        self.propositions[propositionNumber].size = _size;\n        self.propositions[propositionNumber].canAdd = _canAdd;\n        self.propositions[propositionNumber].canDelete = _canDelete;\n        self.propositions[propositionNumber].canSpend = _canSpend;\n        self.propositions[propositionNumber].canDeposit = _canDeposit;\n        self.propositions[propositionNumber].propositionType = _propositionType;\n        self.propositions[propositionNumber].votingPeriodEndDate = now + self.votingPeriodDuration;            \n        self.propositions[propositionNumber].wasVetoed = false;\n        self.propositions[propositionNumber].wasEnded = false;\n        self.propositions[propositionNumber].wasCounted = false;\n        self.propositions[propositionNumber].wasAccepted = false;\n        self.propositions[propositionNumber].totalVoteCount = 0;\n        self.propositions[propositionNumber].voteFor = 0;\n        self.propositions[propositionNumber].propositionNumber = propositionNumber;\n\n        self.nextPropositionNumber += 1;\n\n        // proposition creation event\n        emit createPropositionEvent(msg.sender, _targetOrgan, _propositionType, propositionNumber, _ipfsHash, _hash_function, _size);\n        emit createPropositionDetails(_contractToAdd, _contractToRemove);\n        if (_propositionType < 3)\n        {\n            // Master proposition event\n            emit createMasterPropositionEvent(propositionNumber, _canAdd, _canDelete);\n        }\n        else if (_propositionType > 2 && _propositionType < 6)\n        {\n            // Admin proposition event\n            emit createAdminPropositionEvent(propositionNumber, _canAdd, _canDelete, _canDeposit, _canSpend);\n        }\n    }\n\n        /// Vote for a proposition\n    function voteLib(VotingProcessInfo storage self, Proposition storage proposition, bool _acceptProposition) \n    public \n    {\n        // Check if voter already voted\n        require(!getBoolean(self.userParticipation[msg.sender], proposition.propositionNumber));\n\n        // Check if vote is still active\n        require(!proposition.wasCounted);\n\n        // Check if voting period ended\n        require(proposition.votingPeriodEndDate > now);\n\n        // Adding vote\n        if(_acceptProposition == true)\n        {\n            proposition.voteFor += 1;\n        }\n\n        // Loggin that user voted\n        setBoolean(self.userParticipation[msg.sender], proposition.propositionNumber, true);\n\n        // Adding vote count\n        proposition.totalVoteCount += 1;\n\n        // create vote event\n        emit voteOnProposition(msg.sender, proposition.propositionNumber);\n    }\n\n        /// Vote for a candidate\n    function vetoLib(Proposition storage proposition) \n    public \n    {\n        // Check if vote is still active\n        require(!proposition.wasCounted);\n\n        // Check if voting period ended\n        require(proposition.votingPeriodEndDate > now);\n\n        // Log that proposition was vetoed\n        proposition.wasVetoed = true;\n\n        //  Create veto event\n        emit vetoProposition(msg.sender, proposition.propositionNumber);\n    }\n\n    function endPropositionVoteLib(VotingProcessInfo storage self, Proposition storage proposition, address payable votersOrganAddress) \n    public \n    returns (bool hasBeenAccepted) \n    {\n        // We check if the vote was already counted\n        require(!proposition.wasCounted);\n\n        // Checking that the vote can be closed\n        require(proposition.votingPeriodEndDate < now);\n\n        // Checking that the proposition has been initialised\n        require(proposition.votingPeriodEndDate != 0);\n\n        Organ voterRegistryOrgan = Organ(votersOrganAddress);\n        ( ,uint voterNumber) = voterRegistryOrgan.organInfos();\n\n        // We check that Quorum was obtained and that a majority of votes were cast in favor of the proposition\n        if (proposition.wasVetoed)\n            {hasBeenAccepted=false;\n                proposition.wasEnded = true;}\n        else if\n            ((proposition.totalVoteCount*100 >= self.quorumSize*voterNumber) && (proposition.voteFor*100 > proposition.totalVoteCount*self.majoritySize))\n            {hasBeenAccepted = true;}\n        else \n            {hasBeenAccepted=false;\n            proposition.wasEnded = true;}\n\n\n        // ############## Updating ballot values if vote concluded\n        proposition.wasCounted = true;\n        proposition.wasAccepted = hasBeenAccepted;\n\n        emit countVotes(msg.sender, proposition.propositionNumber);\n\n        return hasBeenAccepted;\n    }\n\n    function promulgatePropositionLib(Proposition storage proposition, bool _promulgate) \n    public \n    {\n        // Checking if ballot was already enforced\n        require(!proposition.wasEnded );\n\n        // Checking the ballot was counted\n        require(proposition.wasCounted);\n\n        // Checking the ballot was accepted\n        require(proposition.wasAccepted);\n\n        // Checking if the promulgator is chosing to invalidate the proposition\n        if (!_promulgate)\n        {\n            // The promulgator choses to invalidate the promulgation\n            proposition.wasEnded = true;\n            emit promulgatePropositionEvent(msg.sender, proposition.propositionNumber, _promulgate);\n            return;\n        }\n\n        // If were are manipulating admin/masters, verify that at contractToRemove and contractToAdd are not both empty\n        if (proposition.propositionType < 6)\n        {\n            require((proposition.contractToAdd != address(0)) || (proposition.contractToRemove != address(0))); \n        }\n\n         // We initiate the Organ interface to add a norm / Admin / master\n        Organ affectedOrgan = Organ(proposition.targetOrgan);\n\n        // Adding a master\n        if (proposition.propositionType == 0)\n        {\n            affectedOrgan.addMaster(proposition.contractToAdd, proposition.canAdd, proposition.canDelete);\n        }\n        // Removing a master\n        else if (proposition.propositionType == 1)\n        {\n            affectedOrgan.remMaster(proposition.contractToRemove);\n        }\n        // Replacing a master\n        else if (proposition.propositionType == 2)\n        {\n            affectedOrgan.replaceMaster(proposition.contractToRemove, proposition.contractToAdd, proposition.canAdd, proposition.canDelete);\n        }\n        // Adding an admin\n        else if (proposition.propositionType == 3)\n        {\n            affectedOrgan.addAdmin(proposition.contractToAdd, proposition.canAdd, proposition.canDelete, proposition.canDeposit, proposition.canSpend);\n        }\n        // Removing an admin\n        else if (proposition.propositionType == 4)\n        {\n            affectedOrgan.remAdmin(proposition.contractToRemove);\n        }\n        // Replacing an admin\n        else if (proposition.propositionType == 5)\n        {\n            affectedOrgan.replaceAdmin(proposition.contractToRemove, proposition.contractToAdd, proposition.canAdd, proposition.canDelete, proposition.canDeposit, proposition.canSpend);\n        }\n        // Adding a norm\n        else if (proposition.propositionType == 6)\n        {\n            affectedOrgan.addNorm(proposition.contractToAdd, proposition.ipfsHash, proposition.hash_function, proposition.size );\n        }\n        // Removing a norm\n        else if (proposition.propositionType == 7)\n        {\n            affectedOrgan.remNorm(uint(proposition.contractToRemove));\n        }\n        // Replacing a norm\n        else if (proposition.propositionType == 8)\n        {\n            affectedOrgan.replaceNorm(uint(proposition.contractToRemove), proposition.contractToAdd , proposition.ipfsHash, proposition.hash_function, proposition.size);\n        }\n       \n        proposition.wasEnded = true;\n\n        // promulgation event\n        emit promulgatePropositionEvent(msg.sender, proposition.propositionNumber, _promulgate);\n    }\n\n    function archiveDefunctPropositionLib(Proposition storage proposition) \n    public \n    {\n        // Checking that the proposition has been initialised\n        require(proposition.votingPeriodEndDate != 0);\n        \n        // If a proposition contains an instruction that can not be executed (eg \"add an admin\" without having canAdd enabled), this proposition can be closed\n\n        Organ targetOrganContract = Organ(proposition.targetOrgan);\n        bool canAdd;\n        bool canDelete;\n        if (proposition.propositionType < 6)\n        {\n            (canAdd, canDelete) = targetOrganContract.isMaster(address(this));\n        }\n        else \n        {\n            (canAdd, canDelete, , ) = targetOrganContract.isAdmin(address(this));\n        }\n        \n        if ((!canAdd && (proposition.contractToAdd != address(0))) || (!canDelete && (proposition.contractToRemove != address(0))) )\n        {\n            proposition.wasEnded = true;\n        }\n        emit promulgatePropositionEvent(msg.sender, proposition.propositionNumber, false);\n    }\n\n    function processPayoutPropositionLib(Proposition storage proposition, bool _promulgate) \n    public\n    {\n        // Checking if ballot was already enforced\n        require(!proposition.wasEnded );\n\n        // Checking the ballot was counted\n        require(proposition.wasCounted);\n\n        // Checking the ballot was accepted\n        require(proposition.wasAccepted);\n\n        if ((_promulgate)||((proposition.contractToAdd != address(0)) || (proposition.propositionType != 0)))\n        {\n            // We initiate the Organ interface to add a norm\n            Organ affectedOrgan = Organ(proposition.targetOrgan);\n            affectedOrgan.payout(proposition.contractToAdd, proposition.propositionType);\n        }\n\n        proposition.wasEnded = true;\n\n        // Promulgation event\n        emit promulgatePropositionEvent(msg.sender, proposition.propositionNumber, _promulgate);\n    }\n}",
  "sourcePath": "/Users/henrilieutaud/Documents/Mes documents/ESILV/03 Blockchain Programmation/solidity-101/contracts/utils/Kelsen/solidity/contracts/libraries/propositionVotingLibrary.sol",
  "compiler": {
    "name": "solc",
    "version": "0.5.0+commit.1d4f565a.Emscripten.clang"
  },
  "schemaVersion": "3.0.6",
  "updatedAt": "2019-10-03T20:18:25.173Z",
  "devdoc": {
    "methods": {}
  },
  "userdoc": {
    "methods": {
      "createPropositionLib(propositionVotingLibrary.VotingProcessInfo storage,address,address,address,bytes32,uint8,uint8,bool,bool,bool,bool,uint256)": {
        "notice": "Create a new ballot to choose one of `proposalNames`."
      },
      "vetoLib(propositionVotingLibrary.Proposition storage)": {
        "notice": "Vote for a candidate"
      },
      "voteLib(propositionVotingLibrary.VotingProcessInfo storage,propositionVotingLibrary.Proposition storage,bool)": {
        "notice": "Vote for a proposition"
      }
    },
    "notice": "Kelsen Framework Procedure library This library is used to hold the logic common to all procedures*"
  }
}