{
  "contractName": "simpleAdminsAndMasterNominationProcedure",
  "abi": [
    {
      "constant": true,
      "inputs": [],
      "name": "kelsenVersionNumber",
      "outputs": [
        {
          "name": "",
          "type": "int256"
        }
      ],
      "payable": false,
      "stateMutability": "view",
      "type": "function"
    },
    {
      "constant": true,
      "inputs": [],
      "name": "procedureInfo",
      "outputs": [
        {
          "name": "procedureTypeNumber",
          "type": "uint256"
        },
        {
          "name": "procedureName",
          "type": "bytes32"
        },
        {
          "name": "linkedOrgans",
          "type": "uint256"
        }
      ],
      "payable": false,
      "stateMutability": "view",
      "type": "function"
    },
    {
      "constant": true,
      "inputs": [],
      "name": "linkedOrgans",
      "outputs": [
        {
          "name": "firstOrganAddress",
          "type": "address"
        }
      ],
      "payable": false,
      "stateMutability": "view",
      "type": "function"
    },
    {
      "constant": true,
      "inputs": [],
      "name": "isAnOrgan",
      "outputs": [
        {
          "name": "",
          "type": "bool"
        }
      ],
      "payable": false,
      "stateMutability": "view",
      "type": "function"
    },
    {
      "constant": true,
      "inputs": [],
      "name": "isAProcedure",
      "outputs": [
        {
          "name": "",
          "type": "bool"
        }
      ],
      "payable": false,
      "stateMutability": "view",
      "type": "function"
    },
    {
      "inputs": [
        {
          "name": "_authorizedNominatersOrgan",
          "type": "address"
        },
        {
          "name": "_name",
          "type": "bytes32"
        }
      ],
      "payable": false,
      "stateMutability": "nonpayable",
      "type": "constructor"
    },
    {
      "constant": false,
      "inputs": [
        {
          "name": "_organToReform",
          "type": "address"
        },
        {
          "name": "_newAdmin",
          "type": "address"
        },
        {
          "name": "_canAdd",
          "type": "bool"
        },
        {
          "name": "_canDelete",
          "type": "bool"
        },
        {
          "name": "_canDeposit",
          "type": "bool"
        },
        {
          "name": "_canSpend",
          "type": "bool"
        }
      ],
      "name": "addAdmin",
      "outputs": [],
      "payable": false,
      "stateMutability": "nonpayable",
      "type": "function"
    },
    {
      "constant": false,
      "inputs": [
        {
          "name": "_organToReform",
          "type": "address"
        },
        {
          "name": "_oldAdmin",
          "type": "address"
        }
      ],
      "name": "remAdmin",
      "outputs": [],
      "payable": false,
      "stateMutability": "nonpayable",
      "type": "function"
    },
    {
      "constant": false,
      "inputs": [
        {
          "name": "_organToReform",
          "type": "address"
        },
        {
          "name": "_oldAdmin",
          "type": "address"
        },
        {
          "name": "_newAdmin",
          "type": "address"
        },
        {
          "name": "_canAdd",
          "type": "bool"
        },
        {
          "name": "_canDelete",
          "type": "bool"
        },
        {
          "name": "_canDeposit",
          "type": "bool"
        },
        {
          "name": "_canSpend",
          "type": "bool"
        }
      ],
      "name": "replaceAdmin",
      "outputs": [],
      "payable": false,
      "stateMutability": "nonpayable",
      "type": "function"
    },
    {
      "constant": false,
      "inputs": [
        {
          "name": "_organToReform",
          "type": "address"
        },
        {
          "name": "_newMaster",
          "type": "address"
        },
        {
          "name": "_canAdd",
          "type": "bool"
        },
        {
          "name": "_canDelete",
          "type": "bool"
        }
      ],
      "name": "addMaster",
      "outputs": [],
      "payable": false,
      "stateMutability": "nonpayable",
      "type": "function"
    },
    {
      "constant": false,
      "inputs": [
        {
          "name": "_organToReform",
          "type": "address"
        },
        {
          "name": "_oldMaster",
          "type": "address"
        }
      ],
      "name": "remMaster",
      "outputs": [],
      "payable": false,
      "stateMutability": "nonpayable",
      "type": "function"
    },
    {
      "constant": false,
      "inputs": [
        {
          "name": "_organToReform",
          "type": "address"
        },
        {
          "name": "_oldMaster",
          "type": "address"
        },
        {
          "name": "_newMaster",
          "type": "address"
        },
        {
          "name": "_canAdd",
          "type": "bool"
        },
        {
          "name": "_canDelete",
          "type": "bool"
        }
      ],
      "name": "replaceMaster",
      "outputs": [],
      "payable": false,
      "stateMutability": "nonpayable",
      "type": "function"
    }
  ],
  "bytecode": "0x608060405260026000556000600560006101000a81548160ff0219169083151502179055506001600560016101000a81548160ff02191690831515021790555034801561004b57600080fd5b50604051604080610ed08339810180604052604081101561006b57600080fd5b810190808051906020019092919080519060200190929190505050600273__procedureLibrary______________________6356e77656909160048460016040518563ffffffff167c01000000000000000000000000000000000000000000000000000000000281526004018085815260200184815260200183815260200182815260200194505050505060006040518083038186803b15801561010e57600080fd5b505af4158015610122573d6000803e3d6000fd5b50505050600673__procedureLibrary______________________63e0f433789091846040518363ffffffff167c0100000000000000000000000000000000000000000000000000000000028152600401808381526020018273ffffffffffffffffffffffffffffffffffffffff1673ffffffffffffffffffffffffffffffffffffffff1681526020019250505060006040518083038186803b1580156101c857600080fd5b505af41580156101dc573d6000803e3d6000fd5b505050505050610cdf806101f16000396000f3fe608060405234801561001057600080fd5b50600436106100c6576000357c0100000000000000000000000000000000000000000000000000000000900480639397942e1161008e5780639397942e146103195780639e3dd25914610345578063a14db3521461038f578063a8bef97a14610423578063e80b30a514610445578063f69c875114610467576100c6565b80631d595bf4146100cb57806333754ae61461012f5780633a00f8ec146101ab57806345344a3b1461025f5780635dbe4d28146102fb575b600080fd5b61012d600480360360408110156100e157600080fd5b81019080803573ffffffffffffffffffffffffffffffffffffffff169060200190929190803573ffffffffffffffffffffffffffffffffffffffff1690602001909291905050506104cb565b005b6101a96004803603608081101561014557600080fd5b81019080803573ffffffffffffffffffffffffffffffffffffffff169060200190929190803573ffffffffffffffffffffffffffffffffffffffff1690602001909291908035151590602001909291908035151590602001909291905050506105b6565b005b61025d600480360360e08110156101c157600080fd5b81019080803573ffffffffffffffffffffffffffffffffffffffff169060200190929190803573ffffffffffffffffffffffffffffffffffffffff169060200190929190803573ffffffffffffffffffffffffffffffffffffffff1690602001909291908035151590602001909291908035151590602001909291908035151590602001909291908035151590602001909291905050506106bb565b005b6102f9600480360360a081101561027557600080fd5b81019080803573ffffffffffffffffffffffffffffffffffffffff169060200190929190803573ffffffffffffffffffffffffffffffffffffffff169060200190929190803573ffffffffffffffffffffffffffffffffffffffff16906020019092919080351515906020019092919080351515906020019092919050505061080f565b005b610303610949565b6040518082815260200191505060405180910390f35b61032161094f565b60405180848152602001838152602001828152602001935050505060405180910390f35b61034d610967565b604051808273ffffffffffffffffffffffffffffffffffffffff1673ffffffffffffffffffffffffffffffffffffffff16815260200191505060405180910390f35b610421600480360360c08110156103a557600080fd5b81019080803573ffffffffffffffffffffffffffffffffffffffff169060200190929190803573ffffffffffffffffffffffffffffffffffffffff169060200190929190803515159060200190929190803515159060200190929190803515159060200190929190803515159060200190929190505050610993565b005b61042b610ab2565b604051808215151515815260200191505060405180910390f35b61044d610ac5565b604051808215151515815260200191505060405180910390f35b6104c96004803603604081101561047d57600080fd5b81019080803573ffffffffffffffffffffffffffffffffffffffff169060200190929190803573ffffffffffffffffffffffffffffffffffffffff169060200190929190505050610ad8565b005b6104f9600660000160009054906101000a900473ffffffffffffffffffffffffffffffffffffffff16610bc3565b60008290508073ffffffffffffffffffffffffffffffffffffffff166311c60418836040518263ffffffff167c0100000000000000000000000000000000000000000000000000000000028152600401808273ffffffffffffffffffffffffffffffffffffffff1673ffffffffffffffffffffffffffffffffffffffff168152602001915050600060405180830381600087803b15801561059957600080fd5b505af11580156105ad573d6000803e3d6000fd5b50505050505050565b6105e4600660000160009054906101000a900473ffffffffffffffffffffffffffffffffffffffff16610bc3565b60008490508073ffffffffffffffffffffffffffffffffffffffff16633f7819a18585856040518463ffffffff167c0100000000000000000000000000000000000000000000000000000000028152600401808473ffffffffffffffffffffffffffffffffffffffff1673ffffffffffffffffffffffffffffffffffffffff16815260200183151515158152602001821515151581526020019350505050600060405180830381600087803b15801561069c57600080fd5b505af11580156106b0573d6000803e3d6000fd5b505050505050505050565b6106e9600660000160009054906101000a900473ffffffffffffffffffffffffffffffffffffffff16610bc3565b60008790508073ffffffffffffffffffffffffffffffffffffffff166371e7f3748888888888886040518763ffffffff167c0100000000000000000000000000000000000000000000000000000000028152600401808773ffffffffffffffffffffffffffffffffffffffff1673ffffffffffffffffffffffffffffffffffffffff1681526020018673ffffffffffffffffffffffffffffffffffffffff1673ffffffffffffffffffffffffffffffffffffffff168152602001851515151581526020018415151515815260200183151515158152602001821515151581526020019650505050505050600060405180830381600087803b1580156107ed57600080fd5b505af1158015610801573d6000803e3d6000fd5b505050505050505050505050565b61083d600660000160009054906101000a900473ffffffffffffffffffffffffffffffffffffffff16610bc3565b60008590508073ffffffffffffffffffffffffffffffffffffffff16636f2a4d5f868686866040518563ffffffff167c0100000000000000000000000000000000000000000000000000000000028152600401808573ffffffffffffffffffffffffffffffffffffffff1673ffffffffffffffffffffffffffffffffffffffff1681526020018473ffffffffffffffffffffffffffffffffffffffff1673ffffffffffffffffffffffffffffffffffffffff1681526020018315151515815260200182151515158152602001945050505050600060405180830381600087803b15801561092957600080fd5b505af115801561093d573d6000803e3d6000fd5b50505050505050505050565b60005481565b60028060000154908060010154908060020154905083565b60068060000160009054906101000a900473ffffffffffffffffffffffffffffffffffffffff16905081565b6109c1600660000160009054906101000a900473ffffffffffffffffffffffffffffffffffffffff16610bc3565b60008690508073ffffffffffffffffffffffffffffffffffffffff166379524d2d87878787876040518663ffffffff167c0100000000000000000000000000000000000000000000000000000000028152600401808673ffffffffffffffffffffffffffffffffffffffff1673ffffffffffffffffffffffffffffffffffffffff1681526020018515151515815260200184151515158152602001831515151581526020018215151515815260200195505050505050600060405180830381600087803b158015610a9157600080fd5b505af1158015610aa5573d6000803e3d6000fd5b5050505050505050505050565b600560009054906101000a900460ff1681565b600560019054906101000a900460ff1681565b610b06600660000160009054906101000a900473ffffffffffffffffffffffffffffffffffffffff16610bc3565b60008290508073ffffffffffffffffffffffffffffffffffffffff166331a79198836040518263ffffffff167c0100000000000000000000000000000000000000000000000000000000028152600401808273ffffffffffffffffffffffffffffffffffffffff1673ffffffffffffffffffffffffffffffffffffffff168152602001915050600060405180830381600087803b158015610ba657600080fd5b505af1158015610bba573d6000803e3d6000fd5b50505050505050565b600081905060008173ffffffffffffffffffffffffffffffffffffffff16635549ea51336040518263ffffffff167c0100000000000000000000000000000000000000000000000000000000028152600401808273ffffffffffffffffffffffffffffffffffffffff1673ffffffffffffffffffffffffffffffffffffffff16815260200191505060206040518083038186803b158015610c6357600080fd5b505afa158015610c77573d6000803e3d6000fd5b505050506040513d6020811015610c8d57600080fd5b810190808051906020019092919050505014151515610cab57600080fd5b60009150505056fea165627a7a7230582071779881510de4f4dff1016fa62067dab222e8d6b1ec9743a509621251fab0f70029",
  "source": "pragma solidity >=0.4.22 <0.6.0;\r\n\r\n\r\n// Standard contract for a presidential election procedure\r\n\r\nimport \"../standardProcedure.sol\";\r\nimport \"../Organ.sol\";\r\n\r\ncontract simpleAdminsAndMasterNominationProcedure is Procedure{\r\n\r\n    // 1: Cyclical many to one election (Presidential Election)\r\n    // 2: Cyclical many to many election (Moderators Election)\r\n    // 3: Simple norm nomination \r\n    // 4: Simple admins and master nomination\r\n    // 5: Vote on Norms \r\n    // 6: Vote on masters and admins \r\n    // 7: Cooptation\r\n\r\n    using procedureLibrary for procedureLibrary.oneRegisteredOrgan;\r\n    \r\n    // First stakeholder address is authorizedNominatersOrgan\r\n    procedureLibrary.oneRegisteredOrgan public linkedOrgans;\r\n    \r\n\r\n    constructor(address payable _authorizedNominatersOrgan, bytes32 _name) \r\n    public \r\n    {\r\n        procedureInfo.initProcedure(4, _name, 1);\r\n        linkedOrgans.initOneRegisteredOrgan(_authorizedNominatersOrgan);\r\n    }\r\n\r\n    function addAdmin(address payable _organToReform, address _newAdmin, bool _canAdd, bool _canDelete, bool _canDeposit, bool _canSpend) \r\n    public \r\n    {\r\n        // Checking if caller is an admin\r\n        procedureLibrary.isAllowed(linkedOrgans.firstOrganAddress);\r\n\r\n        // Sending the required command to the desired organ. If the nomination procedure is not an admin, the call will fail\r\n        Organ organToReformInstance = Organ(_organToReform);\r\n        organToReformInstance.addAdmin(_newAdmin, _canAdd, _canDelete, _canDeposit, _canSpend);\r\n    }\r\n\r\n    function remAdmin(address payable _organToReform, address _oldAdmin) \r\n    public \r\n    {\r\n        // Checking if caller is an admin\r\n        procedureLibrary.isAllowed(linkedOrgans.firstOrganAddress);\r\n\r\n        // Sending the required command to the desired organ. If the nomination procedure is not an admin, the call will fail\r\n        Organ organToReformInstance = Organ(_organToReform);\r\n        organToReformInstance.remAdmin(_oldAdmin);\r\n    }\r\n\r\n    function replaceAdmin(address payable _organToReform, address _oldAdmin, address _newAdmin, bool _canAdd, bool _canDelete, bool _canDeposit, bool _canSpend) \r\n    public \r\n    {\r\n        // Checking if caller is an admin\r\n        procedureLibrary.isAllowed(linkedOrgans.firstOrganAddress);\r\n\r\n        // Sending the required command to the desired organ. If the nomination procedure is not an admin, the call will fail\r\n        Organ organToReformInstance = Organ(_organToReform);\r\n        organToReformInstance.replaceAdmin(_oldAdmin, _newAdmin, _canAdd, _canDelete, _canDeposit, _canSpend );\r\n    }\r\n\r\n    function addMaster(address payable _organToReform, address _newMaster, bool _canAdd, bool _canDelete) \r\n    public \r\n    {\r\n        // Checking if caller is an admin\r\n        procedureLibrary.isAllowed(linkedOrgans.firstOrganAddress);\r\n\r\n        // Sending the required command to the desired organ. If the nomination procedure is not an admin, the call will fail\r\n        Organ organToReformInstance = Organ(_organToReform);\r\n        organToReformInstance.addMaster(_newMaster, _canAdd, _canDelete);\r\n    }\r\n\r\n    function remMaster(address payable _organToReform, address _oldMaster) \r\n    public \r\n    {\r\n\r\n        // Checking if caller is an admin\r\n        procedureLibrary.isAllowed(linkedOrgans.firstOrganAddress);\r\n                \r\n        // Sending the required command to the desired organ. If the nomination procedure is not an admin, the call will fail\r\n        Organ organToReformInstance = Organ(_organToReform);\r\n        organToReformInstance.remMaster(_oldMaster);\r\n    }\r\n\r\n    function replaceMaster(address payable _organToReform, address _oldMaster, address _newMaster, bool _canAdd, bool _canDelete) \r\n    public \r\n    {\r\n        // Checking if caller is an admin\r\n        procedureLibrary.isAllowed(linkedOrgans.firstOrganAddress);\r\n        \r\n        // Sending the required command to the desired organ. If the nomination procedure is not an admin, the call will fail\r\n        Organ organToReformInstance = Organ(_organToReform);\r\n        organToReformInstance.replaceMaster(_oldMaster, _newMaster, _canAdd, _canDelete);\r\n    }\r\n}",
  "sourcePath": "C:/Users/hlieutaud/Documents/Workshop/Solidity/solidity-101/contracts/utils/Kelsen/solidity/contracts/procedures/simpleAdminsAndMasterNominationProcedure.sol",
  "compiler": {
    "name": "solc",
    "version": "0.5.4+commit.9549d8ff.Emscripten.clang"
  },
  "schemaVersion": "3.0.10",
  "updatedAt": "2019-10-01T09:02:18.879Z",
  "devdoc": {
    "methods": {}
  },
  "userdoc": {
    "methods": {}
  }
}