{
  "contractName": "simpleAdminsAndMasterNominationProcedure",
  "abi": [
    {
      "constant": true,
      "inputs": [],
      "name": "kelsenVersionNumber",
      "outputs": [
        {
          "name": "",
          "type": "int256"
        }
      ],
      "payable": false,
      "stateMutability": "view",
      "type": "function"
    },
    {
      "constant": true,
      "inputs": [],
      "name": "procedureInfo",
      "outputs": [
        {
          "name": "procedureTypeNumber",
          "type": "uint256"
        },
        {
          "name": "procedureName",
          "type": "bytes32"
        },
        {
          "name": "linkedOrgans",
          "type": "uint256"
        }
      ],
      "payable": false,
      "stateMutability": "view",
      "type": "function"
    },
    {
      "constant": true,
      "inputs": [],
      "name": "linkedOrgans",
      "outputs": [
        {
          "name": "firstOrganAddress",
          "type": "address"
        }
      ],
      "payable": false,
      "stateMutability": "view",
      "type": "function"
    },
    {
      "constant": true,
      "inputs": [],
      "name": "isAnOrgan",
      "outputs": [
        {
          "name": "",
          "type": "bool"
        }
      ],
      "payable": false,
      "stateMutability": "view",
      "type": "function"
    },
    {
      "constant": true,
      "inputs": [],
      "name": "isAProcedure",
      "outputs": [
        {
          "name": "",
          "type": "bool"
        }
      ],
      "payable": false,
      "stateMutability": "view",
      "type": "function"
    },
    {
      "inputs": [
        {
          "name": "_authorizedNominatersOrgan",
          "type": "address"
        },
        {
          "name": "_name",
          "type": "bytes32"
        }
      ],
      "payable": false,
      "stateMutability": "nonpayable",
      "type": "constructor"
    },
    {
      "constant": false,
      "inputs": [
        {
          "name": "_organToReform",
          "type": "address"
        },
        {
          "name": "_newAdmin",
          "type": "address"
        },
        {
          "name": "_canAdd",
          "type": "bool"
        },
        {
          "name": "_canDelete",
          "type": "bool"
        },
        {
          "name": "_canDeposit",
          "type": "bool"
        },
        {
          "name": "_canSpend",
          "type": "bool"
        }
      ],
      "name": "addAdmin",
      "outputs": [],
      "payable": false,
      "stateMutability": "nonpayable",
      "type": "function"
    },
    {
      "constant": false,
      "inputs": [
        {
          "name": "_organToReform",
          "type": "address"
        },
        {
          "name": "_oldAdmin",
          "type": "address"
        }
      ],
      "name": "remAdmin",
      "outputs": [],
      "payable": false,
      "stateMutability": "nonpayable",
      "type": "function"
    },
    {
      "constant": false,
      "inputs": [
        {
          "name": "_organToReform",
          "type": "address"
        },
        {
          "name": "_oldAdmin",
          "type": "address"
        },
        {
          "name": "_newAdmin",
          "type": "address"
        },
        {
          "name": "_canAdd",
          "type": "bool"
        },
        {
          "name": "_canDelete",
          "type": "bool"
        },
        {
          "name": "_canDeposit",
          "type": "bool"
        },
        {
          "name": "_canSpend",
          "type": "bool"
        }
      ],
      "name": "replaceAdmin",
      "outputs": [],
      "payable": false,
      "stateMutability": "nonpayable",
      "type": "function"
    },
    {
      "constant": false,
      "inputs": [
        {
          "name": "_organToReform",
          "type": "address"
        },
        {
          "name": "_newMaster",
          "type": "address"
        },
        {
          "name": "_canAdd",
          "type": "bool"
        },
        {
          "name": "_canDelete",
          "type": "bool"
        }
      ],
      "name": "addMaster",
      "outputs": [],
      "payable": false,
      "stateMutability": "nonpayable",
      "type": "function"
    },
    {
      "constant": false,
      "inputs": [
        {
          "name": "_organToReform",
          "type": "address"
        },
        {
          "name": "_oldMaster",
          "type": "address"
        }
      ],
      "name": "remMaster",
      "outputs": [],
      "payable": false,
      "stateMutability": "nonpayable",
      "type": "function"
    },
    {
      "constant": false,
      "inputs": [
        {
          "name": "_organToReform",
          "type": "address"
        },
        {
          "name": "_oldMaster",
          "type": "address"
        },
        {
          "name": "_newMaster",
          "type": "address"
        },
        {
          "name": "_canAdd",
          "type": "bool"
        },
        {
          "name": "_canDelete",
          "type": "bool"
        }
      ],
      "name": "replaceMaster",
      "outputs": [],
      "payable": false,
      "stateMutability": "nonpayable",
      "type": "function"
    }
  ],
  "bytecode": "0x608060405260026000556000600560006101000a81548160ff0219169083151502179055506001600560016101000a81548160ff02191690831515021790555034801561004b57600080fd5b50604051604080610f488339810180604052604081101561006b57600080fd5b810190808051906020019092919080519060200190929190505050600273__procedureLibrary______________________6356e77656909160048460016040518563ffffffff167c01000000000000000000000000000000000000000000000000000000000281526004018085815260200184815260200183815260200182815260200194505050505060006040518083038186803b15801561010e57600080fd5b505af4158015610122573d6000803e3d6000fd5b50505050600673__procedureLibrary______________________63e0f433789091846040518363ffffffff167c0100000000000000000000000000000000000000000000000000000000028152600401808381526020018273ffffffffffffffffffffffffffffffffffffffff1673ffffffffffffffffffffffffffffffffffffffff1681526020019250505060006040518083038186803b1580156101c857600080fd5b505af41580156101dc573d6000803e3d6000fd5b505050505050610d57806101f16000396000f3fe6080604052600436106100af576000357c0100000000000000000000000000000000000000000000000000000000900463ffffffff1680631d595bf4146100b457806333754ae6146101255780633a00f8ec146101ae57806345344a3b1461026f5780635dbe4d28146103185780639397942e146103435780639e3dd2591461037c578063a14db352146103d3578063a8bef97a14610474578063e80b30a5146104a3578063f69c8751146104d2575b600080fd5b3480156100c057600080fd5b50610123600480360360408110156100d757600080fd5b81019080803573ffffffffffffffffffffffffffffffffffffffff169060200190929190803573ffffffffffffffffffffffffffffffffffffffff169060200190929190505050610543565b005b34801561013157600080fd5b506101ac6004803603608081101561014857600080fd5b81019080803573ffffffffffffffffffffffffffffffffffffffff169060200190929190803573ffffffffffffffffffffffffffffffffffffffff16906020019092919080351515906020019092919080351515906020019092919050505061062e565b005b3480156101ba57600080fd5b5061026d600480360360e08110156101d157600080fd5b81019080803573ffffffffffffffffffffffffffffffffffffffff169060200190929190803573ffffffffffffffffffffffffffffffffffffffff169060200190929190803573ffffffffffffffffffffffffffffffffffffffff169060200190929190803515159060200190929190803515159060200190929190803515159060200190929190803515159060200190929190505050610733565b005b34801561027b57600080fd5b50610316600480360360a081101561029257600080fd5b81019080803573ffffffffffffffffffffffffffffffffffffffff169060200190929190803573ffffffffffffffffffffffffffffffffffffffff169060200190929190803573ffffffffffffffffffffffffffffffffffffffff169060200190929190803515159060200190929190803515159060200190929190505050610887565b005b34801561032457600080fd5b5061032d6109c1565b6040518082815260200191505060405180910390f35b34801561034f57600080fd5b506103586109c7565b60405180848152602001838152602001828152602001935050505060405180910390f35b34801561038857600080fd5b506103916109df565b604051808273ffffffffffffffffffffffffffffffffffffffff1673ffffffffffffffffffffffffffffffffffffffff16815260200191505060405180910390f35b3480156103df57600080fd5b50610472600480360360c08110156103f657600080fd5b81019080803573ffffffffffffffffffffffffffffffffffffffff169060200190929190803573ffffffffffffffffffffffffffffffffffffffff169060200190929190803515159060200190929190803515159060200190929190803515159060200190929190803515159060200190929190505050610a0b565b005b34801561048057600080fd5b50610489610b2a565b604051808215151515815260200191505060405180910390f35b3480156104af57600080fd5b506104b8610b3d565b604051808215151515815260200191505060405180910390f35b3480156104de57600080fd5b50610541600480360360408110156104f557600080fd5b81019080803573ffffffffffffffffffffffffffffffffffffffff169060200190929190803573ffffffffffffffffffffffffffffffffffffffff169060200190929190505050610b50565b005b610571600660000160009054906101000a900473ffffffffffffffffffffffffffffffffffffffff16610c3b565b60008290508073ffffffffffffffffffffffffffffffffffffffff166311c60418836040518263ffffffff167c0100000000000000000000000000000000000000000000000000000000028152600401808273ffffffffffffffffffffffffffffffffffffffff1673ffffffffffffffffffffffffffffffffffffffff168152602001915050600060405180830381600087803b15801561061157600080fd5b505af1158015610625573d6000803e3d6000fd5b50505050505050565b61065c600660000160009054906101000a900473ffffffffffffffffffffffffffffffffffffffff16610c3b565b60008490508073ffffffffffffffffffffffffffffffffffffffff16633f7819a18585856040518463ffffffff167c0100000000000000000000000000000000000000000000000000000000028152600401808473ffffffffffffffffffffffffffffffffffffffff1673ffffffffffffffffffffffffffffffffffffffff16815260200183151515158152602001821515151581526020019350505050600060405180830381600087803b15801561071457600080fd5b505af1158015610728573d6000803e3d6000fd5b505050505050505050565b610761600660000160009054906101000a900473ffffffffffffffffffffffffffffffffffffffff16610c3b565b60008790508073ffffffffffffffffffffffffffffffffffffffff166371e7f3748888888888886040518763ffffffff167c0100000000000000000000000000000000000000000000000000000000028152600401808773ffffffffffffffffffffffffffffffffffffffff1673ffffffffffffffffffffffffffffffffffffffff1681526020018673ffffffffffffffffffffffffffffffffffffffff1673ffffffffffffffffffffffffffffffffffffffff168152602001851515151581526020018415151515815260200183151515158152602001821515151581526020019650505050505050600060405180830381600087803b15801561086557600080fd5b505af1158015610879573d6000803e3d6000fd5b505050505050505050505050565b6108b5600660000160009054906101000a900473ffffffffffffffffffffffffffffffffffffffff16610c3b565b60008590508073ffffffffffffffffffffffffffffffffffffffff16636f2a4d5f868686866040518563ffffffff167c0100000000000000000000000000000000000000000000000000000000028152600401808573ffffffffffffffffffffffffffffffffffffffff1673ffffffffffffffffffffffffffffffffffffffff1681526020018473ffffffffffffffffffffffffffffffffffffffff1673ffffffffffffffffffffffffffffffffffffffff1681526020018315151515815260200182151515158152602001945050505050600060405180830381600087803b1580156109a157600080fd5b505af11580156109b5573d6000803e3d6000fd5b50505050505050505050565b60005481565b60028060000154908060010154908060020154905083565b60068060000160009054906101000a900473ffffffffffffffffffffffffffffffffffffffff16905081565b610a39600660000160009054906101000a900473ffffffffffffffffffffffffffffffffffffffff16610c3b565b60008690508073ffffffffffffffffffffffffffffffffffffffff166379524d2d87878787876040518663ffffffff167c0100000000000000000000000000000000000000000000000000000000028152600401808673ffffffffffffffffffffffffffffffffffffffff1673ffffffffffffffffffffffffffffffffffffffff1681526020018515151515815260200184151515158152602001831515151581526020018215151515815260200195505050505050600060405180830381600087803b158015610b0957600080fd5b505af1158015610b1d573d6000803e3d6000fd5b5050505050505050505050565b600560009054906101000a900460ff1681565b600560019054906101000a900460ff1681565b610b7e600660000160009054906101000a900473ffffffffffffffffffffffffffffffffffffffff16610c3b565b60008290508073ffffffffffffffffffffffffffffffffffffffff166331a79198836040518263ffffffff167c0100000000000000000000000000000000000000000000000000000000028152600401808273ffffffffffffffffffffffffffffffffffffffff1673ffffffffffffffffffffffffffffffffffffffff168152602001915050600060405180830381600087803b158015610c1e57600080fd5b505af1158015610c32573d6000803e3d6000fd5b50505050505050565b600081905060008173ffffffffffffffffffffffffffffffffffffffff16635549ea51336040518263ffffffff167c0100000000000000000000000000000000000000000000000000000000028152600401808273ffffffffffffffffffffffffffffffffffffffff1673ffffffffffffffffffffffffffffffffffffffff16815260200191505060206040518083038186803b158015610cdb57600080fd5b505afa158015610cef573d6000803e3d6000fd5b505050506040513d6020811015610d0557600080fd5b810190808051906020019092919050505014151515610d2357600080fd5b60009150505056fea165627a7a7230582017594ef1f48bcd2fcf0c0d6056a57ca77ddef98a1f67574a516a0b40e58c8b6d0029",
  "source": "pragma solidity >=0.4.22 <0.6.0;\n\n\n// Standard contract for a presidential election procedure\n\nimport \"../standardProcedure.sol\";\nimport \"../Organ.sol\";\n\ncontract simpleAdminsAndMasterNominationProcedure is Procedure{\n\n    // 1: Cyclical many to one election (Presidential Election)\n    // 2: Cyclical many to many election (Moderators Election)\n    // 3: Simple norm nomination \n    // 4: Simple admins and master nomination\n    // 5: Vote on Norms \n    // 6: Vote on masters and admins \n    // 7: Cooptation\n\n    using procedureLibrary for procedureLibrary.oneRegisteredOrgan;\n    \n    // First stakeholder address is authorizedNominatersOrgan\n    procedureLibrary.oneRegisteredOrgan public linkedOrgans;\n    \n\n    constructor(address payable _authorizedNominatersOrgan, bytes32 _name) \n    public \n    {\n        procedureInfo.initProcedure(4, _name, 1);\n        linkedOrgans.initOneRegisteredOrgan(_authorizedNominatersOrgan);\n    }\n\n    function addAdmin(address payable _organToReform, address _newAdmin, bool _canAdd, bool _canDelete, bool _canDeposit, bool _canSpend) \n    public \n    {\n        // Checking if caller is an admin\n        procedureLibrary.isAllowed(linkedOrgans.firstOrganAddress);\n\n        // Sending the required command to the desired organ. If the nomination procedure is not an admin, the call will fail\n        Organ organToReformInstance = Organ(_organToReform);\n        organToReformInstance.addAdmin(_newAdmin, _canAdd, _canDelete, _canDeposit, _canSpend);\n    }\n\n    function remAdmin(address payable _organToReform, address _oldAdmin) \n    public \n    {\n        // Checking if caller is an admin\n        procedureLibrary.isAllowed(linkedOrgans.firstOrganAddress);\n\n        // Sending the required command to the desired organ. If the nomination procedure is not an admin, the call will fail\n        Organ organToReformInstance = Organ(_organToReform);\n        organToReformInstance.remAdmin(_oldAdmin);\n    }\n\n    function replaceAdmin(address payable _organToReform, address _oldAdmin, address _newAdmin, bool _canAdd, bool _canDelete, bool _canDeposit, bool _canSpend) \n    public \n    {\n        // Checking if caller is an admin\n        procedureLibrary.isAllowed(linkedOrgans.firstOrganAddress);\n\n        // Sending the required command to the desired organ. If the nomination procedure is not an admin, the call will fail\n        Organ organToReformInstance = Organ(_organToReform);\n        organToReformInstance.replaceAdmin(_oldAdmin, _newAdmin, _canAdd, _canDelete, _canDeposit, _canSpend );\n    }\n\n    function addMaster(address payable _organToReform, address _newMaster, bool _canAdd, bool _canDelete) \n    public \n    {\n        // Checking if caller is an admin\n        procedureLibrary.isAllowed(linkedOrgans.firstOrganAddress);\n\n        // Sending the required command to the desired organ. If the nomination procedure is not an admin, the call will fail\n        Organ organToReformInstance = Organ(_organToReform);\n        organToReformInstance.addMaster(_newMaster, _canAdd, _canDelete);\n    }\n\n    function remMaster(address payable _organToReform, address _oldMaster) \n    public \n    {\n\n        // Checking if caller is an admin\n        procedureLibrary.isAllowed(linkedOrgans.firstOrganAddress);\n                \n        // Sending the required command to the desired organ. If the nomination procedure is not an admin, the call will fail\n        Organ organToReformInstance = Organ(_organToReform);\n        organToReformInstance.remMaster(_oldMaster);\n    }\n\n    function replaceMaster(address payable _organToReform, address _oldMaster, address _newMaster, bool _canAdd, bool _canDelete) \n    public \n    {\n        // Checking if caller is an admin\n        procedureLibrary.isAllowed(linkedOrgans.firstOrganAddress);\n        \n        // Sending the required command to the desired organ. If the nomination procedure is not an admin, the call will fail\n        Organ organToReformInstance = Organ(_organToReform);\n        organToReformInstance.replaceMaster(_oldMaster, _newMaster, _canAdd, _canDelete);\n    }\n}",
  "sourcePath": "/Users/henrilieutaud/Documents/Mes documents/ESILV/03 Blockchain Programmation/solidity-101/contracts/utils/Kelsen/solidity/contracts/procedures/simpleAdminsAndMasterNominationProcedure.sol",
  "compiler": {
    "name": "solc",
    "version": "0.5.0+commit.1d4f565a.Emscripten.clang"
  },
  "schemaVersion": "3.0.6",
  "updatedAt": "2019-10-03T20:18:25.195Z",
  "devdoc": {
    "methods": {}
  },
  "userdoc": {
    "methods": {}
  }
}