{
  "contractName": "simpleNormNominationProcedure",
  "abi": [
    {
      "constant": true,
      "inputs": [],
      "name": "kelsenVersionNumber",
      "outputs": [
        {
          "name": "",
          "type": "int256"
        }
      ],
      "payable": false,
      "stateMutability": "view",
      "type": "function"
    },
    {
      "constant": true,
      "inputs": [],
      "name": "procedureInfo",
      "outputs": [
        {
          "name": "procedureTypeNumber",
          "type": "uint256"
        },
        {
          "name": "procedureName",
          "type": "bytes32"
        },
        {
          "name": "linkedOrgans",
          "type": "uint256"
        }
      ],
      "payable": false,
      "stateMutability": "view",
      "type": "function"
    },
    {
      "constant": true,
      "inputs": [],
      "name": "linkedOrgans",
      "outputs": [
        {
          "name": "firstOrganAddress",
          "type": "address"
        }
      ],
      "payable": false,
      "stateMutability": "view",
      "type": "function"
    },
    {
      "constant": true,
      "inputs": [],
      "name": "isAnOrgan",
      "outputs": [
        {
          "name": "",
          "type": "bool"
        }
      ],
      "payable": false,
      "stateMutability": "view",
      "type": "function"
    },
    {
      "constant": true,
      "inputs": [],
      "name": "isAProcedure",
      "outputs": [
        {
          "name": "",
          "type": "bool"
        }
      ],
      "payable": false,
      "stateMutability": "view",
      "type": "function"
    },
    {
      "inputs": [
        {
          "name": "_authorizedNominatersOrgan",
          "type": "address"
        },
        {
          "name": "_name",
          "type": "bytes32"
        }
      ],
      "payable": false,
      "stateMutability": "nonpayable",
      "type": "constructor"
    },
    {
      "constant": false,
      "inputs": [
        {
          "name": "_targetOrgan",
          "type": "address"
        },
        {
          "name": "_normAdress",
          "type": "address"
        },
        {
          "name": "_ipfsHash",
          "type": "bytes32"
        },
        {
          "name": "_hash_function",
          "type": "uint8"
        },
        {
          "name": "_size",
          "type": "uint8"
        }
      ],
      "name": "addNorm",
      "outputs": [
        {
          "name": "newNormNumber",
          "type": "uint256"
        }
      ],
      "payable": false,
      "stateMutability": "nonpayable",
      "type": "function"
    },
    {
      "constant": false,
      "inputs": [
        {
          "name": "_targetOrgan",
          "type": "address"
        },
        {
          "name": "_normNumber",
          "type": "uint256"
        }
      ],
      "name": "remNorm",
      "outputs": [],
      "payable": false,
      "stateMutability": "nonpayable",
      "type": "function"
    },
    {
      "constant": false,
      "inputs": [
        {
          "name": "_targetOrgan",
          "type": "address"
        },
        {
          "name": "_oldNormNumber",
          "type": "uint256"
        },
        {
          "name": "_newNormAdress",
          "type": "address"
        },
        {
          "name": "_ipfsHash",
          "type": "bytes32"
        },
        {
          "name": "_hash_function",
          "type": "uint8"
        },
        {
          "name": "_size",
          "type": "uint8"
        }
      ],
      "name": "replaceNorm",
      "outputs": [],
      "payable": false,
      "stateMutability": "nonpayable",
      "type": "function"
    }
  ],
  "bytecode": "0x608060405260026000556000600560006101000a81548160ff0219169083151502179055506001600560016101000a81548160ff02191690831515021790555034801561004b57600080fd5b506040516040806109908339810180604052604081101561006b57600080fd5b810190808051906020019092919080519060200190929190505050600273__procedureLibrary______________________6356e77656909160038460016040518563ffffffff167c01000000000000000000000000000000000000000000000000000000000281526004018085815260200184815260200183815260200182815260200194505050505060006040518083038186803b15801561010e57600080fd5b505af4158015610122573d6000803e3d6000fd5b50505050600673__procedureLibrary______________________63e0f433789091846040518363ffffffff167c0100000000000000000000000000000000000000000000000000000000028152600401808381526020018273ffffffffffffffffffffffffffffffffffffffff1673ffffffffffffffffffffffffffffffffffffffff1681526020019250505060006040518083038186803b1580156101c857600080fd5b505af41580156101dc573d6000803e3d6000fd5b50505050505061079f806101f16000396000f3fe608060405234801561001057600080fd5b50600436106100a5576000357c0100000000000000000000000000000000000000000000000000000000900480639974cd14116100785780639974cd14146101de5780639e3dd25914610270578063a8bef97a146102ba578063e80b30a5146102dc576100a5565b806326a1d187146100aa578063494e3d68146100f85780635dbe4d28146101945780639397942e146101b2575b600080fd5b6100f6600480360360408110156100c057600080fd5b81019080803573ffffffffffffffffffffffffffffffffffffffff169060200190929190803590602001909291905050506102fe565b005b61017e600480360360a081101561010e57600080fd5b81019080803573ffffffffffffffffffffffffffffffffffffffff169060200190929190803573ffffffffffffffffffffffffffffffffffffffff16906020019092919080359060200190929190803560ff169060200190929190803560ff1690602001909291905050506103bd565b6040518082815260200191505060405180910390f35b61019c6104f8565b6040518082815260200191505060405180910390f35b6101ba6104fe565b60405180848152602001838152602001828152602001935050505060405180910390f35b61026e600480360360c08110156101f457600080fd5b81019080803573ffffffffffffffffffffffffffffffffffffffff16906020019092919080359060200190929190803573ffffffffffffffffffffffffffffffffffffffff16906020019092919080359060200190929190803560ff169060200190929190803560ff169060200190929190505050610516565b005b610278610631565b604051808273ffffffffffffffffffffffffffffffffffffffff1673ffffffffffffffffffffffffffffffffffffffff16815260200191505060405180910390f35b6102c261065d565b604051808215151515815260200191505060405180910390f35b6102e4610670565b604051808215151515815260200191505060405180910390f35b61032c600660000160009054906101000a900473ffffffffffffffffffffffffffffffffffffffff16610683565b60008290508073ffffffffffffffffffffffffffffffffffffffff16630e9defff836040518263ffffffff167c010000000000000000000000000000000000000000000000000000000002815260040180828152602001915050600060405180830381600087803b1580156103a057600080fd5b505af11580156103b4573d6000803e3d6000fd5b50505050505050565b60006103ed600660000160009054906101000a900473ffffffffffffffffffffffffffffffffffffffff16610683565b60008690508073ffffffffffffffffffffffffffffffffffffffff1663a08c3cb5878787876040518563ffffffff167c0100000000000000000000000000000000000000000000000000000000028152600401808573ffffffffffffffffffffffffffffffffffffffff1673ffffffffffffffffffffffffffffffffffffffff1681526020018481526020018360ff1660ff1681526020018260ff1660ff168152602001945050505050602060405180830381600087803b1580156104b157600080fd5b505af11580156104c5573d6000803e3d6000fd5b505050506040513d60208110156104db57600080fd5b810190808051906020019092919050505091505095945050505050565b60005481565b60028060000154908060010154908060020154905083565b610544600660000160009054906101000a900473ffffffffffffffffffffffffffffffffffffffff16610683565b60008690508073ffffffffffffffffffffffffffffffffffffffff16636c49e08787878787876040518663ffffffff167c0100000000000000000000000000000000000000000000000000000000028152600401808681526020018573ffffffffffffffffffffffffffffffffffffffff1673ffffffffffffffffffffffffffffffffffffffff1681526020018481526020018360ff1660ff1681526020018260ff1660ff16815260200195505050505050600060405180830381600087803b15801561061057600080fd5b505af1158015610624573d6000803e3d6000fd5b5050505050505050505050565b60068060000160009054906101000a900473ffffffffffffffffffffffffffffffffffffffff16905081565b600560009054906101000a900460ff1681565b600560019054906101000a900460ff1681565b600081905060008173ffffffffffffffffffffffffffffffffffffffff16635549ea51336040518263ffffffff167c0100000000000000000000000000000000000000000000000000000000028152600401808273ffffffffffffffffffffffffffffffffffffffff1673ffffffffffffffffffffffffffffffffffffffff16815260200191505060206040518083038186803b15801561072357600080fd5b505afa158015610737573d6000803e3d6000fd5b505050506040513d602081101561074d57600080fd5b81019080805190602001909291905050501415151561076b57600080fd5b60009150505056fea165627a7a72305820de90aff545262d315aa0aa4ffa68abfdffccf7207c2324341397ebe250b22ea10029",
  "source": "pragma solidity >=0.4.22 <0.6.0;\r\n\r\n// Standard contract for a presidential election procedure\r\n\r\nimport \"../standardProcedure.sol\";\r\nimport \"../Organ.sol\";\r\n\r\ncontract simpleNormNominationProcedure is Procedure{\r\n\r\n    // 1: Cyclical many to one election (Presidential Election)\r\n    // 2: Cyclical many to many election (Moderators Election)\r\n    // 3: Simple norm nomination \r\n    // 4: Simple admins and master nomination\r\n    // 5: Vote on Norms \r\n    // 6: Vote on masters and admins \r\n    // 7: Cooptation\r\n\r\n    using procedureLibrary for procedureLibrary.oneRegisteredOrgan;\r\n    // First stakeholder address is authorizedNominatersOrgan\r\n    procedureLibrary.oneRegisteredOrgan public linkedOrgans;\r\n    \r\n    constructor (address payable _authorizedNominatersOrgan, bytes32 _name) \r\n    public\r\n    {\r\n        procedureInfo.initProcedure(3, _name, 1);\r\n        linkedOrgans.initOneRegisteredOrgan(_authorizedNominatersOrgan);\r\n    }\r\n\r\n    function addNorm(address payable _targetOrgan, address payable _normAdress, bytes32 _ipfsHash, uint8 _hash_function, uint8 _size)  \r\n    public \r\n    returns (uint newNormNumber) \r\n    {\r\n        // Checking if caller is an admin\r\n        procedureLibrary.isAllowed(linkedOrgans.firstOrganAddress);\r\n\r\n        // Sending the addNorm command to the desired organ. If the nomination procedure is not an admin, the call will fail\r\n        Organ targetOrganInstance = Organ(_targetOrgan);\r\n        return targetOrganInstance.addNorm(_normAdress, _ipfsHash, _hash_function, _size);\r\n    }\r\n\r\n    function remNorm(address payable _targetOrgan, uint _normNumber) \r\n    public \r\n    {\r\n        // Checking if caller is an admin\r\n        procedureLibrary.isAllowed(linkedOrgans.firstOrganAddress);\r\n\r\n        // Sending the addNorm command to the desired organ. If the nomination procedure is not an admin, the call will fail\r\n        Organ targetOrganInstance = Organ(_targetOrgan);\r\n        targetOrganInstance.remNorm(_normNumber);\r\n    }\r\n\r\n    function replaceNorm(address payable _targetOrgan, uint _oldNormNumber, address payable _newNormAdress, bytes32 _ipfsHash, uint8 _hash_function, uint8 _size) \r\n    public \r\n    {\r\n        // Checking if caller is an admin\r\n        procedureLibrary.isAllowed(linkedOrgans.firstOrganAddress);\r\n\r\n        // Sending the replaceNorm command to the desired organ. If the nomination procedure is not an admin, the call will fail\r\n        Organ targetOrganInstance = Organ(_targetOrgan);\r\n        targetOrganInstance.replaceNorm(_oldNormNumber, _newNormAdress, _ipfsHash, _hash_function, _size);        \r\n    }\r\n}",
  "sourcePath": "C:/Users/hlieutaud/Documents/Workshop/Solidity/solidity-101/contracts/utils/Kelsen/solidity/contracts/procedures/simpleNormNominationProcedure.sol",
  "compiler": {
    "name": "solc",
    "version": "0.5.4+commit.9549d8ff.Emscripten.clang"
  },
  "schemaVersion": "3.0.10",
  "updatedAt": "2019-10-01T09:02:18.886Z",
  "devdoc": {
    "methods": {}
  },
  "userdoc": {
    "methods": {}
  }
}