{
  "contractName": "simpleNormNominationProcedure",
  "abi": [
    {
      "constant": true,
      "inputs": [],
      "name": "kelsenVersionNumber",
      "outputs": [
        {
          "name": "",
          "type": "int256"
        }
      ],
      "payable": false,
      "stateMutability": "view",
      "type": "function"
    },
    {
      "constant": true,
      "inputs": [],
      "name": "procedureInfo",
      "outputs": [
        {
          "name": "procedureTypeNumber",
          "type": "uint256"
        },
        {
          "name": "procedureName",
          "type": "bytes32"
        },
        {
          "name": "linkedOrgans",
          "type": "uint256"
        }
      ],
      "payable": false,
      "stateMutability": "view",
      "type": "function"
    },
    {
      "constant": true,
      "inputs": [],
      "name": "linkedOrgans",
      "outputs": [
        {
          "name": "firstOrganAddress",
          "type": "address"
        }
      ],
      "payable": false,
      "stateMutability": "view",
      "type": "function"
    },
    {
      "constant": true,
      "inputs": [],
      "name": "isAnOrgan",
      "outputs": [
        {
          "name": "",
          "type": "bool"
        }
      ],
      "payable": false,
      "stateMutability": "view",
      "type": "function"
    },
    {
      "constant": true,
      "inputs": [],
      "name": "isAProcedure",
      "outputs": [
        {
          "name": "",
          "type": "bool"
        }
      ],
      "payable": false,
      "stateMutability": "view",
      "type": "function"
    },
    {
      "inputs": [
        {
          "name": "_authorizedNominatersOrgan",
          "type": "address"
        },
        {
          "name": "_name",
          "type": "bytes32"
        }
      ],
      "payable": false,
      "stateMutability": "nonpayable",
      "type": "constructor"
    },
    {
      "constant": false,
      "inputs": [
        {
          "name": "_targetOrgan",
          "type": "address"
        },
        {
          "name": "_normAdress",
          "type": "address"
        },
        {
          "name": "_ipfsHash",
          "type": "bytes32"
        },
        {
          "name": "_hash_function",
          "type": "uint8"
        },
        {
          "name": "_size",
          "type": "uint8"
        }
      ],
      "name": "addNorm",
      "outputs": [
        {
          "name": "newNormNumber",
          "type": "uint256"
        }
      ],
      "payable": false,
      "stateMutability": "nonpayable",
      "type": "function"
    },
    {
      "constant": false,
      "inputs": [
        {
          "name": "_targetOrgan",
          "type": "address"
        },
        {
          "name": "_normNumber",
          "type": "uint256"
        }
      ],
      "name": "remNorm",
      "outputs": [],
      "payable": false,
      "stateMutability": "nonpayable",
      "type": "function"
    },
    {
      "constant": false,
      "inputs": [
        {
          "name": "_targetOrgan",
          "type": "address"
        },
        {
          "name": "_oldNormNumber",
          "type": "uint256"
        },
        {
          "name": "_newNormAdress",
          "type": "address"
        },
        {
          "name": "_ipfsHash",
          "type": "bytes32"
        },
        {
          "name": "_hash_function",
          "type": "uint8"
        },
        {
          "name": "_size",
          "type": "uint8"
        }
      ],
      "name": "replaceNorm",
      "outputs": [],
      "payable": false,
      "stateMutability": "nonpayable",
      "type": "function"
    }
  ],
  "bytecode": "0x608060405260026000556000600560006101000a81548160ff0219169083151502179055506001600560016101000a81548160ff02191690831515021790555034801561004b57600080fd5b506040516040806109e18339810180604052604081101561006b57600080fd5b810190808051906020019092919080519060200190929190505050600273__procedureLibrary______________________6356e77656909160038460016040518563ffffffff167c01000000000000000000000000000000000000000000000000000000000281526004018085815260200184815260200183815260200182815260200194505050505060006040518083038186803b15801561010e57600080fd5b505af4158015610122573d6000803e3d6000fd5b50505050600673__procedureLibrary______________________63e0f433789091846040518363ffffffff167c0100000000000000000000000000000000000000000000000000000000028152600401808381526020018273ffffffffffffffffffffffffffffffffffffffff1673ffffffffffffffffffffffffffffffffffffffff1681526020019250505060006040518083038186803b1580156101c857600080fd5b505af41580156101dc573d6000803e3d6000fd5b5050505050506107f0806101f16000396000f3fe60806040526004361061008e576000357c0100000000000000000000000000000000000000000000000000000000900463ffffffff16806326a1d18714610093578063494e3d68146100ee5780635dbe4d28146101975780639397942e146101c25780639974cd14146101fb5780639e3dd2591461029a578063a8bef97a146102f1578063e80b30a514610320575b600080fd5b34801561009f57600080fd5b506100ec600480360360408110156100b657600080fd5b81019080803573ffffffffffffffffffffffffffffffffffffffff1690602001909291908035906020019092919050505061034f565b005b3480156100fa57600080fd5b50610181600480360360a081101561011157600080fd5b81019080803573ffffffffffffffffffffffffffffffffffffffff169060200190929190803573ffffffffffffffffffffffffffffffffffffffff16906020019092919080359060200190929190803560ff169060200190929190803560ff16906020019092919050505061040e565b6040518082815260200191505060405180910390f35b3480156101a357600080fd5b506101ac610549565b6040518082815260200191505060405180910390f35b3480156101ce57600080fd5b506101d761054f565b60405180848152602001838152602001828152602001935050505060405180910390f35b34801561020757600080fd5b50610298600480360360c081101561021e57600080fd5b81019080803573ffffffffffffffffffffffffffffffffffffffff16906020019092919080359060200190929190803573ffffffffffffffffffffffffffffffffffffffff16906020019092919080359060200190929190803560ff169060200190929190803560ff169060200190929190505050610567565b005b3480156102a657600080fd5b506102af610682565b604051808273ffffffffffffffffffffffffffffffffffffffff1673ffffffffffffffffffffffffffffffffffffffff16815260200191505060405180910390f35b3480156102fd57600080fd5b506103066106ae565b604051808215151515815260200191505060405180910390f35b34801561032c57600080fd5b506103356106c1565b604051808215151515815260200191505060405180910390f35b61037d600660000160009054906101000a900473ffffffffffffffffffffffffffffffffffffffff166106d4565b60008290508073ffffffffffffffffffffffffffffffffffffffff16630e9defff836040518263ffffffff167c010000000000000000000000000000000000000000000000000000000002815260040180828152602001915050600060405180830381600087803b1580156103f157600080fd5b505af1158015610405573d6000803e3d6000fd5b50505050505050565b600061043e600660000160009054906101000a900473ffffffffffffffffffffffffffffffffffffffff166106d4565b60008690508073ffffffffffffffffffffffffffffffffffffffff1663a08c3cb5878787876040518563ffffffff167c0100000000000000000000000000000000000000000000000000000000028152600401808573ffffffffffffffffffffffffffffffffffffffff1673ffffffffffffffffffffffffffffffffffffffff1681526020018481526020018360ff1660ff1681526020018260ff1660ff168152602001945050505050602060405180830381600087803b15801561050257600080fd5b505af1158015610516573d6000803e3d6000fd5b505050506040513d602081101561052c57600080fd5b810190808051906020019092919050505091505095945050505050565b60005481565b60028060000154908060010154908060020154905083565b610595600660000160009054906101000a900473ffffffffffffffffffffffffffffffffffffffff166106d4565b60008690508073ffffffffffffffffffffffffffffffffffffffff16636c49e08787878787876040518663ffffffff167c0100000000000000000000000000000000000000000000000000000000028152600401808681526020018573ffffffffffffffffffffffffffffffffffffffff1673ffffffffffffffffffffffffffffffffffffffff1681526020018481526020018360ff1660ff1681526020018260ff1660ff16815260200195505050505050600060405180830381600087803b15801561066157600080fd5b505af1158015610675573d6000803e3d6000fd5b5050505050505050505050565b60068060000160009054906101000a900473ffffffffffffffffffffffffffffffffffffffff16905081565b600560009054906101000a900460ff1681565b600560019054906101000a900460ff1681565b600081905060008173ffffffffffffffffffffffffffffffffffffffff16635549ea51336040518263ffffffff167c0100000000000000000000000000000000000000000000000000000000028152600401808273ffffffffffffffffffffffffffffffffffffffff1673ffffffffffffffffffffffffffffffffffffffff16815260200191505060206040518083038186803b15801561077457600080fd5b505afa158015610788573d6000803e3d6000fd5b505050506040513d602081101561079e57600080fd5b8101908080519060200190929190505050141515156107bc57600080fd5b60009150505056fea165627a7a72305820b79c00866124e7ea033c7cbadcb96f173783bbb190d46a11aa3fee14bc4bc1350029",
  "source": "pragma solidity >=0.4.22 <0.6.0;\n\n// Standard contract for a presidential election procedure\n\nimport \"../standardProcedure.sol\";\nimport \"../Organ.sol\";\n\ncontract simpleNormNominationProcedure is Procedure{\n\n    // 1: Cyclical many to one election (Presidential Election)\n    // 2: Cyclical many to many election (Moderators Election)\n    // 3: Simple norm nomination \n    // 4: Simple admins and master nomination\n    // 5: Vote on Norms \n    // 6: Vote on masters and admins \n    // 7: Cooptation\n\n    using procedureLibrary for procedureLibrary.oneRegisteredOrgan;\n    // First stakeholder address is authorizedNominatersOrgan\n    procedureLibrary.oneRegisteredOrgan public linkedOrgans;\n    \n    constructor (address payable _authorizedNominatersOrgan, bytes32 _name) \n    public\n    {\n        procedureInfo.initProcedure(3, _name, 1);\n        linkedOrgans.initOneRegisteredOrgan(_authorizedNominatersOrgan);\n    }\n\n    function addNorm(address payable _targetOrgan, address payable _normAdress, bytes32 _ipfsHash, uint8 _hash_function, uint8 _size)  \n    public \n    returns (uint newNormNumber) \n    {\n        // Checking if caller is an admin\n        procedureLibrary.isAllowed(linkedOrgans.firstOrganAddress);\n\n        // Sending the addNorm command to the desired organ. If the nomination procedure is not an admin, the call will fail\n        Organ targetOrganInstance = Organ(_targetOrgan);\n        return targetOrganInstance.addNorm(_normAdress, _ipfsHash, _hash_function, _size);\n    }\n\n    function remNorm(address payable _targetOrgan, uint _normNumber) \n    public \n    {\n        // Checking if caller is an admin\n        procedureLibrary.isAllowed(linkedOrgans.firstOrganAddress);\n\n        // Sending the addNorm command to the desired organ. If the nomination procedure is not an admin, the call will fail\n        Organ targetOrganInstance = Organ(_targetOrgan);\n        targetOrganInstance.remNorm(_normNumber);\n    }\n\n    function replaceNorm(address payable _targetOrgan, uint _oldNormNumber, address payable _newNormAdress, bytes32 _ipfsHash, uint8 _hash_function, uint8 _size) \n    public \n    {\n        // Checking if caller is an admin\n        procedureLibrary.isAllowed(linkedOrgans.firstOrganAddress);\n\n        // Sending the replaceNorm command to the desired organ. If the nomination procedure is not an admin, the call will fail\n        Organ targetOrganInstance = Organ(_targetOrgan);\n        targetOrganInstance.replaceNorm(_oldNormNumber, _newNormAdress, _ipfsHash, _hash_function, _size);        \n    }\n}",
  "sourcePath": "/Users/henrilieutaud/Documents/Mes documents/ESILV/03 Blockchain Programmation/solidity-101/contracts/utils/Kelsen/solidity/contracts/procedures/simpleNormNominationProcedure.sol",
  "compiler": {
    "name": "solc",
    "version": "0.5.0+commit.1d4f565a.Emscripten.clang"
  },
  "schemaVersion": "3.0.6",
  "updatedAt": "2019-10-03T20:18:25.196Z",
  "devdoc": {
    "methods": {}
  },
  "userdoc": {
    "methods": {}
  }
}