{
  "contractName": "voteOnExpenseProcedure",
  "abi": [
    {
      "constant": true,
      "inputs": [],
      "name": "kelsenVersionNumber",
      "outputs": [
        {
          "name": "",
          "type": "int256"
        }
      ],
      "payable": false,
      "stateMutability": "view",
      "type": "function"
    },
    {
      "constant": true,
      "inputs": [],
      "name": "procedureInfo",
      "outputs": [
        {
          "name": "procedureTypeNumber",
          "type": "uint256"
        },
        {
          "name": "procedureName",
          "type": "bytes32"
        },
        {
          "name": "linkedOrgans",
          "type": "uint256"
        }
      ],
      "payable": false,
      "stateMutability": "view",
      "type": "function"
    },
    {
      "constant": true,
      "inputs": [],
      "name": "linkedOrgans",
      "outputs": [
        {
          "name": "firstOrganAddress",
          "type": "address"
        },
        {
          "name": "secondOrganAddress",
          "type": "address"
        },
        {
          "name": "thirdOrganAddress",
          "type": "address"
        },
        {
          "name": "fourthOrganAddress",
          "type": "address"
        }
      ],
      "payable": false,
      "stateMutability": "view",
      "type": "function"
    },
    {
      "constant": true,
      "inputs": [],
      "name": "isAnOrgan",
      "outputs": [
        {
          "name": "",
          "type": "bool"
        }
      ],
      "payable": false,
      "stateMutability": "view",
      "type": "function"
    },
    {
      "constant": true,
      "inputs": [],
      "name": "isAProcedure",
      "outputs": [
        {
          "name": "",
          "type": "bool"
        }
      ],
      "payable": false,
      "stateMutability": "view",
      "type": "function"
    },
    {
      "constant": true,
      "inputs": [],
      "name": "votingProcedureInfo",
      "outputs": [
        {
          "name": "quorumSize",
          "type": "uint256"
        },
        {
          "name": "votingPeriodDuration",
          "type": "uint256"
        },
        {
          "name": "promulgationPeriodDuration",
          "type": "uint256"
        },
        {
          "name": "majoritySize",
          "type": "uint256"
        },
        {
          "name": "nextPropositionNumber",
          "type": "uint256"
        }
      ],
      "payable": false,
      "stateMutability": "view",
      "type": "function"
    },
    {
      "inputs": [
        {
          "name": "_affectedOrganContract",
          "type": "address"
        },
        {
          "name": "_votersOrganContract",
          "type": "address"
        },
        {
          "name": "_membersWithVetoOrganContract",
          "type": "address"
        },
        {
          "name": "_finalPromulgatorsOrganContract",
          "type": "address"
        },
        {
          "name": "_quorumSize",
          "type": "uint256"
        },
        {
          "name": "_votingPeriodDuration",
          "type": "uint256"
        },
        {
          "name": "_promulgationPeriodDuration",
          "type": "uint256"
        },
        {
          "name": "_majoritySize",
          "type": "uint256"
        },
        {
          "name": "_name",
          "type": "bytes32"
        }
      ],
      "payable": false,
      "stateMutability": "nonpayable",
      "type": "constructor"
    },
    {
      "constant": false,
      "inputs": [
        {
          "name": "_payoutAddress",
          "type": "address"
        },
        {
          "name": "_amount",
          "type": "uint256"
        },
        {
          "name": "_ipfsHash",
          "type": "bytes32"
        },
        {
          "name": "_hash_function",
          "type": "uint8"
        },
        {
          "name": "_size",
          "type": "uint8"
        }
      ],
      "name": "createProposition",
      "outputs": [
        {
          "name": "propositionNumber",
          "type": "uint256"
        }
      ],
      "payable": false,
      "stateMutability": "nonpayable",
      "type": "function"
    },
    {
      "constant": false,
      "inputs": [
        {
          "name": "_propositionNumber",
          "type": "uint256"
        },
        {
          "name": "_acceptProposition",
          "type": "bool"
        }
      ],
      "name": "vote",
      "outputs": [],
      "payable": false,
      "stateMutability": "nonpayable",
      "type": "function"
    },
    {
      "constant": false,
      "inputs": [
        {
          "name": "_propositionNumber",
          "type": "uint256"
        }
      ],
      "name": "veto",
      "outputs": [],
      "payable": false,
      "stateMutability": "nonpayable",
      "type": "function"
    },
    {
      "constant": false,
      "inputs": [
        {
          "name": "_propositionNumber",
          "type": "uint256"
        }
      ],
      "name": "endPropositionVote",
      "outputs": [
        {
          "name": "hasBeenAccepted",
          "type": "bool"
        }
      ],
      "payable": false,
      "stateMutability": "nonpayable",
      "type": "function"
    },
    {
      "constant": false,
      "inputs": [
        {
          "name": "_propositionNumber",
          "type": "uint256"
        },
        {
          "name": "_promulgate",
          "type": "bool"
        }
      ],
      "name": "promulgateProposition",
      "outputs": [],
      "payable": false,
      "stateMutability": "nonpayable",
      "type": "function"
    },
    {
      "constant": true,
      "inputs": [
        {
          "name": "_propositionNumber",
          "type": "uint256"
        }
      ],
      "name": "haveIVoted",
      "outputs": [
        {
          "name": "IHaveVoted",
          "type": "bool"
        }
      ],
      "payable": false,
      "stateMutability": "view",
      "type": "function"
    },
    {
      "constant": true,
      "inputs": [
        {
          "name": "_propositionNumber",
          "type": "uint256"
        }
      ],
      "name": "getPropositionDocumentation",
      "outputs": [
        {
          "name": "ipfsHash",
          "type": "bytes32"
        },
        {
          "name": "hash_function",
          "type": "uint8"
        },
        {
          "name": "size",
          "type": "uint8"
        },
        {
          "name": "propositionType",
          "type": "uint256"
        }
      ],
      "payable": false,
      "stateMutability": "view",
      "type": "function"
    },
    {
      "constant": true,
      "inputs": [
        {
          "name": "_propositionNumber",
          "type": "uint256"
        }
      ],
      "name": "getPropositionStatus",
      "outputs": [
        {
          "name": "wasVetoed",
          "type": "bool"
        },
        {
          "name": "wasCounted",
          "type": "bool"
        },
        {
          "name": "wasAccepted",
          "type": "bool"
        },
        {
          "name": "wasEnded",
          "type": "bool"
        },
        {
          "name": "votingPeriodEndDate",
          "type": "uint256"
        }
      ],
      "payable": false,
      "stateMutability": "view",
      "type": "function"
    },
    {
      "constant": true,
      "inputs": [
        {
          "name": "_propositionNumber",
          "type": "uint256"
        }
      ],
      "name": "getPropositionStatistics",
      "outputs": [
        {
          "name": "voteFor",
          "type": "uint256"
        },
        {
          "name": "totalVoteCount",
          "type": "uint256"
        }
      ],
      "payable": false,
      "stateMutability": "view",
      "type": "function"
    },
    {
      "constant": true,
      "inputs": [
        {
          "name": "_propositionNumber",
          "type": "uint256"
        }
      ],
      "name": "getPropositionAddresses",
      "outputs": [
        {
          "name": "targetOrgan",
          "type": "address"
        },
        {
          "name": "contractToAdd",
          "type": "address"
        },
        {
          "name": "contractToRemove",
          "type": "address"
        }
      ],
      "payable": false,
      "stateMutability": "view",
      "type": "function"
    },
    {
      "constant": true,
      "inputs": [
        {
          "name": "_propositionNumber",
          "type": "uint256"
        }
      ],
      "name": "getPropositionPermissions",
      "outputs": [
        {
          "name": "canAdd",
          "type": "bool"
        },
        {
          "name": "canDelete",
          "type": "bool"
        },
        {
          "name": "canSpend",
          "type": "bool"
        },
        {
          "name": "canDeposit",
          "type": "bool"
        }
      ],
      "payable": false,
      "stateMutability": "view",
      "type": "function"
    }
  ],
  "bytecode": "0x608060405260026000556000600560006101000a81548160ff0219169083151502179055506001600560016101000a81548160ff02191690831515021790555034801561004b57600080fd5b50604051610120806116b4833981018060405261012081101561006d57600080fd5b81019080805190602001909291908051906020019092919080519060200190929190805190602001909291908051906020019092919080519060200190929190805190602001909291908051906020019092919080519060200190929190505050600273__procedureLibrary______________________6356e77656909160088460046040518563ffffffff167c01000000000000000000000000000000000000000000000000000000000281526004018085815260200184815260200183815260200182815260200194505050505060006040518083038186803b15801561015657600080fd5b505af415801561016a573d6000803e3d6000fd5b50505050600673__procedureLibrary______________________6380ac418e90918a8a8a8e6040518663ffffffff167c0100000000000000000000000000000000000000000000000000000000028152600401808681526020018573ffffffffffffffffffffffffffffffffffffffff1673ffffffffffffffffffffffffffffffffffffffff1681526020018473ffffffffffffffffffffffffffffffffffffffff1673ffffffffffffffffffffffffffffffffffffffff1681526020018373ffffffffffffffffffffffffffffffffffffffff1673ffffffffffffffffffffffffffffffffffffffff1681526020018273ffffffffffffffffffffffffffffffffffffffff1673ffffffffffffffffffffffffffffffffffffffff1681526020019550505050505060006040518083038186803b1580156102ac57600080fd5b505af41580156102c0573d6000803e3d6000fd5b50505050600a73__propositionVotingLibrary______________63a062e2b79091878787876040518663ffffffff167c0100000000000000000000000000000000000000000000000000000000028152600401808681526020018581526020018481526020018381526020018281526020019550505050505060006040518083038186803b15801561035257600080fd5b505af4158015610366573d6000803e3d6000fd5b50505050505050505050505050611332806103826000396000f3fe608060405234801561001057600080fd5b5060043610610128576000357c0100000000000000000000000000000000000000000000000000000000900480639e869dd9116100bf578063d64ff0631161008e578063d64ff063146105bc578063e09ecb87146105f6578063e80b30a51461063c578063eae10c811461065e578063f249e7c3146106a757610128565b80639e869dd914610494578063a8bef97a1461051a578063ac37af1c1461053c578063c9d27afe1461058257610128565b80633ef4cfbb116100fb5780633ef4cfbb146103045780635dbe4d28146103675780639397942e146103855780639e3dd259146103b157610128565b80630366af3d1461012d578063043bb7561461019b5780631d28dec71461026f5780632ad9db171461029d575b600080fd5b6101596004803603602081101561014357600080fd5b81019080803590602001909291905050506106e1565b60405180861515151581526020018515151515815260200184151515158152602001831515151581526020018281526020019550505050505060405180910390f35b6101c7600480360360208110156101b157600080fd5b81019080803590602001909291905050506107b2565b604051808473ffffffffffffffffffffffffffffffffffffffff1673ffffffffffffffffffffffffffffffffffffffff1681526020018373ffffffffffffffffffffffffffffffffffffffff1673ffffffffffffffffffffffffffffffffffffffff1681526020018273ffffffffffffffffffffffffffffffffffffffff1673ffffffffffffffffffffffffffffffffffffffff168152602001935050505060405180910390f35b61029b6004803603602081101561028557600080fd5b8101908080359060200190929190505050610878565b005b6102c9600480360360208110156102b357600080fd5b8101908080359060200190929190505050610943565b604051808515151515815260200184151515158152602001831515151581526020018215151515815260200194505050505060405180910390f35b6103306004803603602081101561031a57600080fd5b81019080803590602001909291905050506109f4565b604051808581526020018460ff1660ff1681526020018360ff1660ff16815260200182815260200194505050505060405180910390f35b61036f610a8b565b6040518082815260200191505060405180910390f35b61038d610a91565b60405180848152602001838152602001828152602001935050505060405180910390f35b6103b9610aa9565b604051808573ffffffffffffffffffffffffffffffffffffffff1673ffffffffffffffffffffffffffffffffffffffff1681526020018473ffffffffffffffffffffffffffffffffffffffff1673ffffffffffffffffffffffffffffffffffffffff1681526020018373ffffffffffffffffffffffffffffffffffffffff1673ffffffffffffffffffffffffffffffffffffffff1681526020018273ffffffffffffffffffffffffffffffffffffffff1673ffffffffffffffffffffffffffffffffffffffff16815260200194505050505060405180910390f35b610504600480360360a08110156104aa57600080fd5b81019080803573ffffffffffffffffffffffffffffffffffffffff1690602001909291908035906020019092919080359060200190929190803560ff169060200190929190803560ff169060200190929190505050610b47565b6040518082815260200191505060405180910390f35b610522610d51565b604051808215151515815260200191505060405180910390f35b6105686004803603602081101561055257600080fd5b8101908080359060200190929190505050610d64565b604051808215151515815260200191505060405180910390f35b6105ba6004803603604081101561059857600080fd5b8101908080359060200190929190803515159060200190929190505050610e5d565b005b6105f4600480360360408110156105d257600080fd5b8101908080359060200190929190803515159060200190929190505050610f3e565b005b6106226004803603602081101561060c57600080fd5b8101908080359060200190929190505050611050565b604051808215151515815260200191505060405180910390f35b610644611178565b604051808215151515815260200191505060405180910390f35b61068a6004803603602081101561067457600080fd5b810190808035906020019092919050505061118b565b604051808381526020018281526020019250505060405180910390f35b6106af6111f2565b604051808681526020018581526020018481526020018381526020018281526020019550505050505060405180910390f35b6000806000806000600a600601600087815260200190815260200160002060000160049054906101000a900460ff16600a600601600088815260200190815260200160002060000160059054906101000a900460ff16600a600601600089815260200190815260200160002060000160069054906101000a900460ff16600a60060160008a815260200190815260200160002060000160079054906101000a900460ff16600a60060160008b8152602001908152602001600020600301549450945094509450945091939590929450565b6000806000600a600601600085815260200190815260200160002060070160009054906101000a900473ffffffffffffffffffffffffffffffffffffffff16600a600601600086815260200190815260200160002060080160009054906101000a900473ffffffffffffffffffffffffffffffffffffffff16600a600601600087815260200190815260200160002060090160009054906101000a900473ffffffffffffffffffffffffffffffffffffffff168292508191509250925092509193909250565b6108a6600660010160009054906101000a900473ffffffffffffffffffffffffffffffffffffffff16611216565b600a600601600082815260200190815260200160002073__propositionVotingLibrary______________633369581c90916040518263ffffffff167c01000000000000000000000000000000000000000000000000000000000281526004018082815260200191505060006040518083038186803b15801561092857600080fd5b505af415801561093c573d6000803e3d6000fd5b5050505050565b600080600080600a600601600086815260200190815260200160002060000160009054906101000a900460ff16600a600601600087815260200190815260200160002060000160019054906101000a900460ff16600a600601600088815260200190815260200160002060000160029054906101000a900460ff16600a600601600089815260200190815260200160002060000160039054906101000a900460ff1693509350935093509193509193565b600080600080600a600601600086815260200190815260200160002060020154600a600601600087815260200190815260200160002060000160089054906101000a900460ff16600a600601600088815260200190815260200160002060000160099054906101000a900460ff16600a60060160008981526020019081526020016000206001015493509350935093509193509193565b60005481565b60028060000154908060010154908060020154905083565b60068060000160009054906101000a900473ffffffffffffffffffffffffffffffffffffffff16908060010160009054906101000a900473ffffffffffffffffffffffffffffffffffffffff16908060020160009054906101000a900473ffffffffffffffffffffffffffffffffffffffff16908060030160009054906101000a900473ffffffffffffffffffffffffffffffffffffffff16905084565b6000610b77600660000160009054906101000a900473ffffffffffffffffffffffffffffffffffffffff16611216565b6000859050600a73__propositionVotingLibrary______________63cd3393d09091600660030160009054906101000a900473ffffffffffffffffffffffffffffffffffffffff168a60008a8a8a6000806000808d6040518d63ffffffff167c0100000000000000000000000000000000000000000000000000000000028152600401808d81526020018c73ffffffffffffffffffffffffffffffffffffffff1673ffffffffffffffffffffffffffffffffffffffff1681526020018b73ffffffffffffffffffffffffffffffffffffffff1673ffffffffffffffffffffffffffffffffffffffff1681526020018a73ffffffffffffffffffffffffffffffffffffffff1673ffffffffffffffffffffffffffffffffffffffff1681526020018981526020018860ff1660ff1681526020018760ff1660ff168152602001861515151581526020018515151515815260200184151515158152602001831515151581526020018281526020019c5050505050505050505050505060206040518083038186803b158015610d0a57600080fd5b505af4158015610d1e573d6000803e3d6000fd5b505050506040513d6020811015610d3457600080fd5b810190808051906020019092919050505091505095945050505050565b600560009054906101000a900460ff1681565b600073__propositionVotingLibrary______________63995e9228600a60050160003373ffffffffffffffffffffffffffffffffffffffff1673ffffffffffffffffffffffffffffffffffffffff16815260200190815260200160002054846040518363ffffffff167c0100000000000000000000000000000000000000000000000000000000028152600401808381526020018281526020019250505060206040518083038186803b158015610e1b57600080fd5b505af4158015610e2f573d6000803e3d6000fd5b505050506040513d6020811015610e4557600080fd5b81019080805190602001909291905050509050919050565b610e8b600660000160009054906101000a900473ffffffffffffffffffffffffffffffffffffffff16611216565b600a73__propositionVotingLibrary______________6396233b5f9091600a6006016000868152602001908152602001600020846040518463ffffffff167c01000000000000000000000000000000000000000000000000000000000281526004018084815260200183815260200182151515158152602001935050505060006040518083038186803b158015610f2257600080fd5b505af4158015610f36573d6000803e3d6000fd5b505050505050565b600a60020154600a60060160008481526020019081526020016000206003015401421015610f9957610f94600660020160009054906101000a900473ffffffffffffffffffffffffffffffffffffffff16611216565b610fa6565b801515610fa557600080fd5b5b600a600601600083815260200190815260200160002073__propositionVotingLibrary______________63da66af9c9091836040518363ffffffff167c010000000000000000000000000000000000000000000000000000000002815260040180838152602001821515151581526020019250505060006040518083038186803b15801561103457600080fd5b505af4158015611048573d6000803e3d6000fd5b505050505050565b6000600a73__propositionVotingLibrary______________63aed723d59091600a6006016000868152602001908152602001600020600660000160009054906101000a900473ffffffffffffffffffffffffffffffffffffffff166040518463ffffffff167c0100000000000000000000000000000000000000000000000000000000028152600401808481526020018381526020018273ffffffffffffffffffffffffffffffffffffffff1673ffffffffffffffffffffffffffffffffffffffff168152602001935050505060206040518083038186803b15801561113657600080fd5b505af415801561114a573d6000803e3d6000fd5b505050506040513d602081101561116057600080fd5b81019080805190602001909291905050509050919050565b600560019054906101000a900460ff1681565b60008042600a6006016000858152602001908152602001600020600301541015156111b557600080fd5b600a600601600084815260200190815260200160002060040154600a60060160008581526020019081526020016000206005015491509150915091565b600a8060000154908060010154908060020154908060030154908060040154905085565b600081905060008173ffffffffffffffffffffffffffffffffffffffff16635549ea51336040518263ffffffff167c0100000000000000000000000000000000000000000000000000000000028152600401808273ffffffffffffffffffffffffffffffffffffffff1673ffffffffffffffffffffffffffffffffffffffff16815260200191505060206040518083038186803b1580156112b657600080fd5b505afa1580156112ca573d6000803e3d6000fd5b505050506040513d60208110156112e057600080fd5b8101908080519060200190929190505050141515156112fe57600080fd5b60009150505056fea165627a7a72305820964f013f6d546f01020c82afeb76088e2ed8e214abdb221d8fba6eb19340b02e0029",
  "source": "pragma solidity >=0.4.22 <0.6.0;\r\n\r\n// Standard contract for promulgation of a norm\r\n\r\nimport \"../standardProcedure.sol\";\r\nimport \"../Organ.sol\";\r\nimport \"../libraries/propositionVotingLibrary.sol\";\r\n\r\ncontract voteOnExpenseProcedure is Procedure{\r\n    // 1: Cyclical many to one election (Presidential Election)\r\n    // 2: Cyclical many to many election (Moderators Election)\r\n    // 3: Simple norm nomination \r\n    // 4: Simple admins and master nomination\r\n    // 5: Vote on Norms \r\n    // 6: Vote on masters and admins \r\n    // 7: Cooptation\r\n    // 8: Vote on an expense\r\n\r\n    using procedureLibrary for procedureLibrary.fourRegisteredOrgans;\r\n    using propositionVotingLibrary for propositionVotingLibrary.Proposition;\r\n    using propositionVotingLibrary for propositionVotingLibrary.VotingProcessInfo;\r\n\r\n    // First stakeholder address is votersOrganContract\r\n    // Second stakeholder address is membersWithVetoOrganContract\r\n    // Third stakeholder address is finalPromulgatorsOrganContract\r\n    // Fourth stakeholder address is affectedOrganContract\r\n    procedureLibrary.fourRegisteredOrgans public linkedOrgans;\r\n    propositionVotingLibrary.VotingProcessInfo public votingProcedureInfo;\r\n\r\n    constructor(address payable _affectedOrganContract, address payable _votersOrganContract, address payable _membersWithVetoOrganContract, address payable _finalPromulgatorsOrganContract, uint _quorumSize, uint _votingPeriodDuration, uint _promulgationPeriodDuration, uint _majoritySize, bytes32 _name) \r\n    public \r\n    {\r\n        procedureInfo.initProcedure(8, _name, 4);\r\n        linkedOrgans.initFourRegisteredOrgans(_votersOrganContract, _membersWithVetoOrganContract, _finalPromulgatorsOrganContract, _affectedOrganContract);\r\n        votingProcedureInfo.initElectionParameters(_quorumSize, _votingPeriodDuration, _promulgationPeriodDuration, _majoritySize);\r\n    }\r\n\r\n    /// Create a new ballot to choose one of `proposalNames`.\r\n    function createProposition(address payable _payoutAddress, uint _amount, bytes32 _ipfsHash, uint8 _hash_function, uint8 _size) \r\n    public \r\n    returns (uint propositionNumber)\r\n    {\r\n\r\n        // Check the proposition creator is able to make a proposition\r\n        procedureLibrary.isAllowed(linkedOrgans.firstOrganAddress);\r\n        uint payoutAmount = _amount;\r\n        // The proposed payout amount is stored in the propositionType field\r\n        return votingProcedureInfo.createPropositionLib(linkedOrgans.fourthOrganAddress, _payoutAddress, address(0), _ipfsHash, _hash_function, _size, false, false, false, false, payoutAmount);\r\n    }\r\n\r\n    /// Vote for a proposition\r\n    function vote(uint _propositionNumber, bool _acceptProposition) \r\n    public \r\n    {\r\n        // Check the voter is able to vote on a proposition\r\n        procedureLibrary.isAllowed(linkedOrgans.firstOrganAddress);\r\n        votingProcedureInfo.voteLib(votingProcedureInfo.propositions[_propositionNumber], _acceptProposition);\r\n    }\r\n\r\n        /// Vote for a candidate\r\n    function veto(uint _propositionNumber) \r\n    public \r\n    {\r\n        // Check the voter is able to veto the proposition\r\n        procedureLibrary.isAllowed(linkedOrgans.secondOrganAddress);\r\n        \r\n        votingProcedureInfo.propositions[_propositionNumber].vetoLib();\r\n    }\r\n\r\n    // The vote is finished and we close it. This triggers the outcome of the vote.\r\n\r\n    function endPropositionVote(uint _propositionNumber) public returns (bool hasBeenAccepted) \r\n    {\r\n        return votingProcedureInfo.endPropositionVoteLib(votingProcedureInfo.propositions[_propositionNumber], linkedOrgans.firstOrganAddress);\r\n    }\r\n\r\n    function promulgateProposition(uint _propositionNumber, bool _promulgate) public\r\n    {\r\n        // If promulgation is happening before endOfVote + promulgationPeriodDuration, check caller is an official promulgator\r\n        if (now < votingProcedureInfo.propositions[_propositionNumber].votingPeriodEndDate + votingProcedureInfo.promulgationPeriodDuration)\r\n        {        \r\n            // Check the voter is able to promulgate the proposition\r\n            procedureLibrary.isAllowed(linkedOrgans.thirdOrganAddress);\r\n        }\r\n        else \r\n        { \r\n            // If Promulgator did not promulgate, the only option is validating\r\n            require(_promulgate);\r\n        }\r\n\r\n        votingProcedureInfo.propositions[_propositionNumber].processPayoutPropositionLib(_promulgate);\r\n    }\r\n\r\n    function haveIVoted(uint _propositionNumber) \r\n    public \r\n    view \r\n    returns (bool IHaveVoted)\r\n    {\r\n        return propositionVotingLibrary.getBoolean(votingProcedureInfo.userParticipation[msg.sender], _propositionNumber);\r\n    }\r\n\r\n    function getPropositionDocumentation(uint _propositionNumber) \r\n    public\r\n    view\r\n    returns (bytes32 ipfsHash, uint8 hash_function, uint8 size, uint propositionType)\r\n    {\r\n        return (votingProcedureInfo.propositions[_propositionNumber].ipfsHash, votingProcedureInfo.propositions[_propositionNumber].hash_function, votingProcedureInfo.propositions[_propositionNumber].size, votingProcedureInfo.propositions[_propositionNumber].propositionType);\r\n    }\r\n\r\n    function getPropositionStatus(uint _propositionNumber) \r\n    public\r\n    view\r\n    returns ( bool wasVetoed, bool wasCounted, bool wasAccepted, bool wasEnded, uint votingPeriodEndDate)\r\n    {\r\n        return (votingProcedureInfo.propositions[_propositionNumber].wasVetoed, votingProcedureInfo.propositions[_propositionNumber].wasCounted, votingProcedureInfo.propositions[_propositionNumber].wasAccepted, votingProcedureInfo.propositions[_propositionNumber].wasEnded, votingProcedureInfo.propositions[_propositionNumber].votingPeriodEndDate);\r\n    }\r\n\r\n    function getPropositionStatistics(uint _propositionNumber) \r\n    public\r\n    view\r\n    returns (uint voteFor, uint totalVoteCount)\r\n    {\r\n        require(votingProcedureInfo.propositions[_propositionNumber].votingPeriodEndDate < now);\r\n        return (votingProcedureInfo.propositions[_propositionNumber].voteFor, votingProcedureInfo.propositions[_propositionNumber].totalVoteCount);\r\n    }\r\n\r\n    function getPropositionAddresses(uint _propositionNumber) \r\n    public\r\n    view\r\n    returns (address targetOrgan, address contractToAdd, address contractToRemove)\r\n    {\r\n        return (votingProcedureInfo.propositions[_propositionNumber].targetOrgan, votingProcedureInfo.propositions[_propositionNumber].contractToAdd, votingProcedureInfo.propositions[_propositionNumber].contractToRemove);\r\n    }\r\n\r\n    function getPropositionPermissions(uint _propositionNumber) \r\n    public\r\n    view\r\n    returns (bool canAdd, bool canDelete, bool canSpend, bool canDeposit)\r\n    {\r\n        return (votingProcedureInfo.propositions[_propositionNumber].canAdd, votingProcedureInfo.propositions[_propositionNumber].canDelete, votingProcedureInfo.propositions[_propositionNumber].canSpend, votingProcedureInfo.propositions[_propositionNumber].canDeposit);\r\n    }\r\n\r\n}\r\n\r\n",
  "sourcePath": "C:/Users/hlieutaud/Documents/Workshop/Solidity/solidity-101/contracts/utils/Kelsen/solidity/contracts/procedures/voteOnExpenseProcedure.sol",
  "compiler": {
    "name": "solc",
    "version": "0.5.4+commit.9549d8ff.Emscripten.clang"
  },
  "schemaVersion": "3.0.10",
  "updatedAt": "2019-10-01T09:02:18.901Z",
  "devdoc": {
    "methods": {}
  },
  "userdoc": {
    "methods": {
      "createProposition(address,uint256,bytes32,uint8,uint8)": {
        "notice": "Create a new ballot to choose one of `proposalNames`."
      },
      "veto(uint256)": {
        "notice": "Vote for a candidate"
      },
      "vote(uint256,bool)": {
        "notice": "Vote for a proposition"
      }
    }
  }
}