{
  "contractName": "voteOnAdminsAndMastersProcedure",
  "abi": [
    {
      "constant": true,
      "inputs": [],
      "name": "kelsenVersionNumber",
      "outputs": [
        {
          "name": "",
          "type": "int256"
        }
      ],
      "payable": false,
      "stateMutability": "view",
      "type": "function"
    },
    {
      "constant": true,
      "inputs": [],
      "name": "procedureInfo",
      "outputs": [
        {
          "name": "procedureTypeNumber",
          "type": "uint256"
        },
        {
          "name": "procedureName",
          "type": "bytes32"
        },
        {
          "name": "linkedOrgans",
          "type": "uint256"
        }
      ],
      "payable": false,
      "stateMutability": "view",
      "type": "function"
    },
    {
      "constant": true,
      "inputs": [],
      "name": "linkedOrgans",
      "outputs": [
        {
          "name": "firstOrganAddress",
          "type": "address"
        },
        {
          "name": "secondOrganAddress",
          "type": "address"
        },
        {
          "name": "thirdOrganAddress",
          "type": "address"
        }
      ],
      "payable": false,
      "stateMutability": "view",
      "type": "function"
    },
    {
      "constant": true,
      "inputs": [],
      "name": "isAnOrgan",
      "outputs": [
        {
          "name": "",
          "type": "bool"
        }
      ],
      "payable": false,
      "stateMutability": "view",
      "type": "function"
    },
    {
      "constant": true,
      "inputs": [],
      "name": "isAProcedure",
      "outputs": [
        {
          "name": "",
          "type": "bool"
        }
      ],
      "payable": false,
      "stateMutability": "view",
      "type": "function"
    },
    {
      "constant": true,
      "inputs": [],
      "name": "votingProcedureInfo",
      "outputs": [
        {
          "name": "quorumSize",
          "type": "uint256"
        },
        {
          "name": "votingPeriodDuration",
          "type": "uint256"
        },
        {
          "name": "promulgationPeriodDuration",
          "type": "uint256"
        },
        {
          "name": "majoritySize",
          "type": "uint256"
        },
        {
          "name": "nextPropositionNumber",
          "type": "uint256"
        }
      ],
      "payable": false,
      "stateMutability": "view",
      "type": "function"
    },
    {
      "inputs": [
        {
          "name": "_votersOrganContract",
          "type": "address"
        },
        {
          "name": "_membersWithVetoOrganContract",
          "type": "address"
        },
        {
          "name": "_finalPromulgatorsOrganContract",
          "type": "address"
        },
        {
          "name": "_quorumSize",
          "type": "uint256"
        },
        {
          "name": "_votingPeriodDuration",
          "type": "uint256"
        },
        {
          "name": "_promulgationPeriodDuration",
          "type": "uint256"
        },
        {
          "name": "_majoritySize",
          "type": "uint256"
        },
        {
          "name": "_name",
          "type": "bytes32"
        }
      ],
      "payable": false,
      "stateMutability": "nonpayable",
      "type": "constructor"
    },
    {
      "constant": false,
      "inputs": [
        {
          "name": "_targetOrgan",
          "type": "address"
        },
        {
          "name": "_contractToAdd",
          "type": "address"
        },
        {
          "name": "_contractToRemove",
          "type": "address"
        },
        {
          "name": "_ipfsHash",
          "type": "bytes32"
        },
        {
          "name": "_hash_function",
          "type": "uint8"
        },
        {
          "name": "_size",
          "type": "uint8"
        },
        {
          "name": "_canAdd",
          "type": "bool"
        },
        {
          "name": "_canDelete",
          "type": "bool"
        },
        {
          "name": "_canDeposit",
          "type": "bool"
        },
        {
          "name": "_canSpend",
          "type": "bool"
        },
        {
          "name": "_propositionType",
          "type": "uint256"
        }
      ],
      "name": "createProposition",
      "outputs": [
        {
          "name": "propositionNumber",
          "type": "uint256"
        }
      ],
      "payable": false,
      "stateMutability": "nonpayable",
      "type": "function"
    },
    {
      "constant": false,
      "inputs": [
        {
          "name": "_propositionNumber",
          "type": "uint256"
        },
        {
          "name": "_acceptProposition",
          "type": "bool"
        }
      ],
      "name": "vote",
      "outputs": [],
      "payable": false,
      "stateMutability": "nonpayable",
      "type": "function"
    },
    {
      "constant": false,
      "inputs": [
        {
          "name": "_propositionNumber",
          "type": "uint256"
        }
      ],
      "name": "veto",
      "outputs": [],
      "payable": false,
      "stateMutability": "nonpayable",
      "type": "function"
    },
    {
      "constant": false,
      "inputs": [
        {
          "name": "_propositionNumber",
          "type": "uint256"
        }
      ],
      "name": "endPropositionVote",
      "outputs": [
        {
          "name": "hasBeenAccepted",
          "type": "bool"
        }
      ],
      "payable": false,
      "stateMutability": "nonpayable",
      "type": "function"
    },
    {
      "constant": false,
      "inputs": [
        {
          "name": "_propositionNumber",
          "type": "uint256"
        },
        {
          "name": "_promulgate",
          "type": "bool"
        }
      ],
      "name": "promulgateProposition",
      "outputs": [],
      "payable": false,
      "stateMutability": "nonpayable",
      "type": "function"
    },
    {
      "constant": false,
      "inputs": [
        {
          "name": "_propositionNumber",
          "type": "uint256"
        }
      ],
      "name": "archiveDefunctProposition",
      "outputs": [],
      "payable": false,
      "stateMutability": "nonpayable",
      "type": "function"
    },
    {
      "constant": true,
      "inputs": [
        {
          "name": "_propositionNumber",
          "type": "uint256"
        }
      ],
      "name": "haveIVoted",
      "outputs": [
        {
          "name": "IHaveVoted",
          "type": "bool"
        }
      ],
      "payable": false,
      "stateMutability": "view",
      "type": "function"
    },
    {
      "constant": true,
      "inputs": [
        {
          "name": "_propositionNumber",
          "type": "uint256"
        }
      ],
      "name": "getPropositionDocumentation",
      "outputs": [
        {
          "name": "ipfsHash",
          "type": "bytes32"
        },
        {
          "name": "hash_function",
          "type": "uint8"
        },
        {
          "name": "size",
          "type": "uint8"
        },
        {
          "name": "propositionType",
          "type": "uint256"
        }
      ],
      "payable": false,
      "stateMutability": "view",
      "type": "function"
    },
    {
      "constant": true,
      "inputs": [
        {
          "name": "_propositionNumber",
          "type": "uint256"
        }
      ],
      "name": "getPropositionStatus",
      "outputs": [
        {
          "name": "wasVetoed",
          "type": "bool"
        },
        {
          "name": "wasCounted",
          "type": "bool"
        },
        {
          "name": "wasAccepted",
          "type": "bool"
        },
        {
          "name": "wasEnded",
          "type": "bool"
        },
        {
          "name": "votingPeriodEndDate",
          "type": "uint256"
        }
      ],
      "payable": false,
      "stateMutability": "view",
      "type": "function"
    },
    {
      "constant": true,
      "inputs": [
        {
          "name": "_propositionNumber",
          "type": "uint256"
        }
      ],
      "name": "getPropositionStatistics",
      "outputs": [
        {
          "name": "voteFor",
          "type": "uint256"
        },
        {
          "name": "totalVoteCount",
          "type": "uint256"
        }
      ],
      "payable": false,
      "stateMutability": "view",
      "type": "function"
    },
    {
      "constant": true,
      "inputs": [
        {
          "name": "_propositionNumber",
          "type": "uint256"
        }
      ],
      "name": "getPropositionAddresses",
      "outputs": [
        {
          "name": "targetOrgan",
          "type": "address"
        },
        {
          "name": "contractToAdd",
          "type": "address"
        },
        {
          "name": "contractToRemove",
          "type": "address"
        }
      ],
      "payable": false,
      "stateMutability": "view",
      "type": "function"
    },
    {
      "constant": true,
      "inputs": [
        {
          "name": "_propositionNumber",
          "type": "uint256"
        }
      ],
      "name": "getPropositionPermissions",
      "outputs": [
        {
          "name": "canAdd",
          "type": "bool"
        },
        {
          "name": "canDelete",
          "type": "bool"
        },
        {
          "name": "canSpend",
          "type": "bool"
        },
        {
          "name": "canDeposit",
          "type": "bool"
        }
      ],
      "payable": false,
      "stateMutability": "view",
      "type": "function"
    }
  ],
  "bytecode": "0x608060405260026000556000600560006101000a81548160ff0219169083151502179055506001600560016101000a81548160ff02191690831515021790555034801561004b57600080fd5b50604051610100806117ee833981018060405261010081101561006d57600080fd5b810190808051906020019092919080519060200190929190805190602001909291908051906020019092919080519060200190929190805190602001909291908051906020019092919080519060200190929190505050600273__procedureLibrary______________________6356e77656909160068460036040518563ffffffff167c01000000000000000000000000000000000000000000000000000000000281526004018085815260200184815260200183815260200182815260200194505050505060006040518083038186803b15801561014c57600080fd5b505af4158015610160573d6000803e3d6000fd5b50505050600673__procedureLibrary______________________63e7d640db90918a8a8a6040518563ffffffff167c0100000000000000000000000000000000000000000000000000000000028152600401808581526020018473ffffffffffffffffffffffffffffffffffffffff1673ffffffffffffffffffffffffffffffffffffffff1681526020018373ffffffffffffffffffffffffffffffffffffffff1673ffffffffffffffffffffffffffffffffffffffff1681526020018273ffffffffffffffffffffffffffffffffffffffff1673ffffffffffffffffffffffffffffffffffffffff16815260200194505050505060006040518083038186803b15801561026e57600080fd5b505af4158015610282573d6000803e3d6000fd5b50505050600973__propositionVotingLibrary______________63a062e2b79091878787876040518663ffffffff167c0100000000000000000000000000000000000000000000000000000000028152600401808681526020018581526020018481526020018381526020018281526020019550505050505060006040518083038186803b15801561031457600080fd5b505af4158015610328573d6000803e3d6000fd5b5050505050505050505050506114ab806103436000396000f3fe6080604052600436106100fc576000357c0100000000000000000000000000000000000000000000000000000000900463ffffffff1680630366af3d14610101578063043bb7561461017c5780631d28dec71461025d5780632ad9db17146102985780633ef4cfbb1461030c5780635dbe4d281461037c578063615d9bff146103a757806388933264146103e25780639397942e146104e65780639e3dd2591461051f578063a8bef97a146105dc578063ac37af1c1461060b578063c9d27afe1461065e578063d64ff063146106a5578063e09ecb87146106ec578063e80b30a51461073f578063eae10c811461076e578063f249e7c3146107c4575b600080fd5b34801561010d57600080fd5b5061013a6004803603602081101561012457600080fd5b810190808035906020019092919050505061080b565b60405180861515151581526020018515151515815260200184151515158152602001831515151581526020018281526020019550505050505060405180910390f35b34801561018857600080fd5b506101b56004803603602081101561019f57600080fd5b81019080803590602001909291905050506108dc565b604051808473ffffffffffffffffffffffffffffffffffffffff1673ffffffffffffffffffffffffffffffffffffffff1681526020018373ffffffffffffffffffffffffffffffffffffffff1673ffffffffffffffffffffffffffffffffffffffff1681526020018273ffffffffffffffffffffffffffffffffffffffff1673ffffffffffffffffffffffffffffffffffffffff168152602001935050505060405180910390f35b34801561026957600080fd5b506102966004803603602081101561028057600080fd5b81019080803590602001909291905050506109a2565b005b3480156102a457600080fd5b506102d1600480360360208110156102bb57600080fd5b8101908080359060200190929190505050610a6d565b604051808515151515815260200184151515158152602001831515151581526020018215151515815260200194505050505060405180910390f35b34801561031857600080fd5b506103456004803603602081101561032f57600080fd5b8101908080359060200190929190505050610b1e565b604051808581526020018460ff1660ff1681526020018360ff1660ff16815260200182815260200194505050505060405180910390f35b34801561038857600080fd5b50610391610bb5565b6040518082815260200191505060405180910390f35b3480156103b357600080fd5b506103e0600480360360208110156103ca57600080fd5b8101908080359060200190929190505050610bbb565b005b3480156103ee57600080fd5b506104d0600480360361016081101561040657600080fd5b81019080803573ffffffffffffffffffffffffffffffffffffffff169060200190929190803573ffffffffffffffffffffffffffffffffffffffff169060200190929190803573ffffffffffffffffffffffffffffffffffffffff16906020019092919080359060200190929190803560ff169060200190929190803560ff16906020019092919080351515906020019092919080351515906020019092919080351515906020019092919080351515906020019092919080359060200190929190505050610c58565b6040518082815260200191505060405180910390f35b3480156104f257600080fd5b506104fb610e3a565b60405180848152602001838152602001828152602001935050505060405180910390f35b34801561052b57600080fd5b50610534610e52565b604051808473ffffffffffffffffffffffffffffffffffffffff1673ffffffffffffffffffffffffffffffffffffffff1681526020018373ffffffffffffffffffffffffffffffffffffffff1673ffffffffffffffffffffffffffffffffffffffff1681526020018273ffffffffffffffffffffffffffffffffffffffff1673ffffffffffffffffffffffffffffffffffffffff168152602001935050505060405180910390f35b3480156105e857600080fd5b506105f1610eca565b604051808215151515815260200191505060405180910390f35b34801561061757600080fd5b506106446004803603602081101561062e57600080fd5b8101908080359060200190929190505050610edd565b604051808215151515815260200191505060405180910390f35b34801561066a57600080fd5b506106a36004803603604081101561068157600080fd5b8101908080359060200190929190803515159060200190929190505050610fd6565b005b3480156106b157600080fd5b506106ea600480360360408110156106c857600080fd5b81019080803590602001909291908035151590602001909291905050506110b7565b005b3480156106f857600080fd5b506107256004803603602081101561070f57600080fd5b81019080803590602001909291905050506111c9565b604051808215151515815260200191505060405180910390f35b34801561074b57600080fd5b506107546112f1565b604051808215151515815260200191505060405180910390f35b34801561077a57600080fd5b506107a76004803603602081101561079157600080fd5b8101908080359060200190929190505050611304565b604051808381526020018281526020019250505060405180910390f35b3480156107d057600080fd5b506107d961136b565b604051808681526020018581526020018481526020018381526020018281526020019550505050505060405180910390f35b60008060008060006009600601600087815260200190815260200160002060000160049054906101000a900460ff166009600601600088815260200190815260200160002060000160059054906101000a900460ff166009600601600089815260200190815260200160002060000160069054906101000a900460ff16600960060160008a815260200190815260200160002060000160079054906101000a900460ff16600960060160008b8152602001908152602001600020600301549450945094509450945091939590929450565b60008060006009600601600085815260200190815260200160002060070160009054906101000a900473ffffffffffffffffffffffffffffffffffffffff166009600601600086815260200190815260200160002060080160009054906101000a900473ffffffffffffffffffffffffffffffffffffffff166009600601600087815260200190815260200160002060090160009054906101000a900473ffffffffffffffffffffffffffffffffffffffff168292508191509250925092509193909250565b6109d0600660010160009054906101000a900473ffffffffffffffffffffffffffffffffffffffff1661138f565b6009600601600082815260200190815260200160002073__propositionVotingLibrary______________633369581c90916040518263ffffffff167c01000000000000000000000000000000000000000000000000000000000281526004018082815260200191505060006040518083038186803b158015610a5257600080fd5b505af4158015610a66573d6000803e3d6000fd5b5050505050565b6000806000806009600601600086815260200190815260200160002060000160009054906101000a900460ff166009600601600087815260200190815260200160002060000160019054906101000a900460ff166009600601600088815260200190815260200160002060000160029054906101000a900460ff166009600601600089815260200190815260200160002060000160039054906101000a900460ff1693509350935093509193509193565b60008060008060096006016000868152602001908152602001600020600201546009600601600087815260200190815260200160002060000160089054906101000a900460ff166009600601600088815260200190815260200160002060000160099054906101000a900460ff16600960060160008981526020019081526020016000206001015493509350935093509193509193565b60005481565b6009600601600082815260200190815260200160002073__propositionVotingLibrary______________6320ffac5490916040518263ffffffff167c01000000000000000000000000000000000000000000000000000000000281526004018082815260200191505060006040518083038186803b158015610c3d57600080fd5b505af4158015610c51573d6000803e3d6000fd5b5050505050565b6000610c88600660000160009054906101000a900473ffffffffffffffffffffffffffffffffffffffff1661138f565b600973__propositionVotingLibrary______________63cd3393d090918e8e8e8e8e8e8e8e8e8e8e6040518d63ffffffff167c0100000000000000000000000000000000000000000000000000000000028152600401808d81526020018c73ffffffffffffffffffffffffffffffffffffffff1673ffffffffffffffffffffffffffffffffffffffff1681526020018b73ffffffffffffffffffffffffffffffffffffffff1673ffffffffffffffffffffffffffffffffffffffff1681526020018a73ffffffffffffffffffffffffffffffffffffffff1673ffffffffffffffffffffffffffffffffffffffff1681526020018981526020018860ff1660ff1681526020018760ff1660ff168152602001861515151581526020018515151515815260200184151515158152602001831515151581526020018281526020019c5050505050505050505050505060206040518083038186803b158015610dee57600080fd5b505af4158015610e02573d6000803e3d6000fd5b505050506040513d6020811015610e1857600080fd5b810190808051906020019092919050505090509b9a5050505050505050505050565b60028060000154908060010154908060020154905083565b60068060000160009054906101000a900473ffffffffffffffffffffffffffffffffffffffff16908060010160009054906101000a900473ffffffffffffffffffffffffffffffffffffffff16908060020160009054906101000a900473ffffffffffffffffffffffffffffffffffffffff16905083565b600560009054906101000a900460ff1681565b600073__propositionVotingLibrary______________63995e9228600960050160003373ffffffffffffffffffffffffffffffffffffffff1673ffffffffffffffffffffffffffffffffffffffff16815260200190815260200160002054846040518363ffffffff167c0100000000000000000000000000000000000000000000000000000000028152600401808381526020018281526020019250505060206040518083038186803b158015610f9457600080fd5b505af4158015610fa8573d6000803e3d6000fd5b505050506040513d6020811015610fbe57600080fd5b81019080805190602001909291905050509050919050565b611004600660000160009054906101000a900473ffffffffffffffffffffffffffffffffffffffff1661138f565b600973__propositionVotingLibrary______________6396233b5f909160096006016000868152602001908152602001600020846040518463ffffffff167c01000000000000000000000000000000000000000000000000000000000281526004018084815260200183815260200182151515158152602001935050505060006040518083038186803b15801561109b57600080fd5b505af41580156110af573d6000803e3d6000fd5b505050505050565b6009600201546009600601600084815260200190815260200160002060030154014210156111125761110d600660020160009054906101000a900473ffffffffffffffffffffffffffffffffffffffff1661138f565b61111f565b80151561111e57600080fd5b5b6009600601600083815260200190815260200160002073__propositionVotingLibrary______________63d2e73b9d9091836040518363ffffffff167c010000000000000000000000000000000000000000000000000000000002815260040180838152602001821515151581526020019250505060006040518083038186803b1580156111ad57600080fd5b505af41580156111c1573d6000803e3d6000fd5b505050505050565b6000600973__propositionVotingLibrary______________63aed723d5909160096006016000868152602001908152602001600020600660000160009054906101000a900473ffffffffffffffffffffffffffffffffffffffff166040518463ffffffff167c0100000000000000000000000000000000000000000000000000000000028152600401808481526020018381526020018273ffffffffffffffffffffffffffffffffffffffff1673ffffffffffffffffffffffffffffffffffffffff168152602001935050505060206040518083038186803b1580156112af57600080fd5b505af41580156112c3573d6000803e3d6000fd5b505050506040513d60208110156112d957600080fd5b81019080805190602001909291905050509050919050565b600560019054906101000a900460ff1681565b60008042600960060160008581526020019081526020016000206003015410151561132e57600080fd5b6009600601600084815260200190815260200160002060040154600960060160008581526020019081526020016000206005015491509150915091565b60098060000154908060010154908060020154908060030154908060040154905085565b600081905060008173ffffffffffffffffffffffffffffffffffffffff16635549ea51336040518263ffffffff167c0100000000000000000000000000000000000000000000000000000000028152600401808273ffffffffffffffffffffffffffffffffffffffff1673ffffffffffffffffffffffffffffffffffffffff16815260200191505060206040518083038186803b15801561142f57600080fd5b505afa158015611443573d6000803e3d6000fd5b505050506040513d602081101561145957600080fd5b81019080805190602001909291905050501415151561147757600080fd5b60009150505056fea165627a7a723058208139e441d89e214146a9276ff2a2b687bb24e256dac258c80eaabe30975ed8330029",
  "source": "pragma solidity >=0.4.22 <0.6.0;\n\n// Standard contract for promulgation of a norm\n\nimport \"../standardProcedure.sol\";\nimport \"../Organ.sol\";\nimport \"../libraries/propositionVotingLibrary.sol\";\n\n\ncontract voteOnAdminsAndMastersProcedure is Procedure{\n    // 1: Cyclical many to one election (Presidential Election)\n    // 2: Cyclical many to many election (Moderators Election)\n    // 3: Simple norm nomination \n    // 4: Simple admins and master nomination\n    // 5: Vote on Norms \n    // 6: Vote on masters and admins \n    // 7: Cooptation\n\n    using procedureLibrary for procedureLibrary.threeRegisteredOrgans;\n    using propositionVotingLibrary for propositionVotingLibrary.Proposition;\n    using propositionVotingLibrary for propositionVotingLibrary.VotingProcessInfo;\n\n    // First stakeholder address is votersOrganContract\n    // Second stakeholder address is membersWithVetoOrganContract\n    // Third stakeholder address is finalPromulgatorsOrganContract\n    procedureLibrary.threeRegisteredOrgans public linkedOrgans;\n    propositionVotingLibrary.VotingProcessInfo public votingProcedureInfo;\n\n    // ######################\n\n    constructor(address payable _votersOrganContract, address payable _membersWithVetoOrganContract, address payable _finalPromulgatorsOrganContract, uint _quorumSize, uint _votingPeriodDuration, uint _promulgationPeriodDuration, uint _majoritySize, bytes32 _name) \n    public \n    {\n    procedureInfo.initProcedure(6, _name, 3);\n    linkedOrgans.initThreeRegisteredOrgans(_votersOrganContract, _membersWithVetoOrganContract, _finalPromulgatorsOrganContract);\n    votingProcedureInfo.initElectionParameters(_quorumSize, _votingPeriodDuration, _promulgationPeriodDuration, _majoritySize);\n    }\n\n    /// Create a new ballot to choose one of `proposalNames`.\n    function createProposition(address payable _targetOrgan, address payable _contractToAdd, address payable _contractToRemove, bytes32 _ipfsHash, uint8 _hash_function, uint8 _size, bool _canAdd, bool _canDelete, bool _canDeposit, bool _canSpend, uint _propositionType) \n    public \n    returns (uint propositionNumber)\n    {\n        // Check the proposition creator is able to make a proposition\n        procedureLibrary.isAllowed(linkedOrgans.firstOrganAddress);\n\n        return votingProcedureInfo.createPropositionLib(_targetOrgan, _contractToAdd, _contractToRemove, _ipfsHash, _hash_function, _size, _canAdd, _canDelete, _canDeposit, _canSpend, _propositionType);\n    }\n\n    /// Vote for a proposition\n    function vote(uint _propositionNumber, bool _acceptProposition) \n    public \n    {\n        // Check the voter is able to vote on a proposition\n        procedureLibrary.isAllowed(linkedOrgans.firstOrganAddress);\n\n        votingProcedureInfo.voteLib(votingProcedureInfo.propositions[_propositionNumber], _acceptProposition);\n    }\n\n        /// Vote for a candidate\n    function veto(uint _propositionNumber) \n    public \n    {\n\n        // Check the voter is able to veto the proposition\n        procedureLibrary.isAllowed(linkedOrgans.secondOrganAddress);\n        \n        votingProcedureInfo.propositions[_propositionNumber].vetoLib();\n    }\n\n    // The vote is finished and we close it. This triggers the outcome of the vote.\n\n    function endPropositionVote(uint _propositionNumber) \n    public \n    returns (bool hasBeenAccepted) \n    {\n\n        return votingProcedureInfo.endPropositionVoteLib(votingProcedureInfo.propositions[_propositionNumber], linkedOrgans.firstOrganAddress);\n    }\n\n    function promulgateProposition(uint _propositionNumber, bool _promulgate) \n    public \n    {\n        // If promulgation is happening before endOfVote + promulgationPeriodDuration, check caller is an official promulgator\n        if (now < votingProcedureInfo.propositions[_propositionNumber].votingPeriodEndDate + votingProcedureInfo.promulgationPeriodDuration)\n        {        \n            // Check the voter is able to promulgate the proposition\n            procedureLibrary.isAllowed(linkedOrgans.thirdOrganAddress);\n        }\n        else \n        { \n            // If Promulgator did not promulgate, the only option is validating\n            require(_promulgate);\n        }\n\n        votingProcedureInfo.propositions[_propositionNumber].promulgatePropositionLib(_promulgate);\n    }\n\n    function archiveDefunctProposition(uint _propositionNumber) \n    public \n    {\n    // If a proposition contains an instruction that can not be executed (eg \"add an admin\" without having canAdd enabled), this proposition can be closed\n        votingProcedureInfo.propositions[_propositionNumber].archiveDefunctPropositionLib();\n    }\n\n\n    //////////////////////// Functions to communicate with other contracts\n\n    function haveIVoted(uint _propositionNumber) \n    public \n    view \n    returns (bool IHaveVoted)\n    {\n        return propositionVotingLibrary.getBoolean(votingProcedureInfo.userParticipation[msg.sender], _propositionNumber);\n    }\n\n    function getPropositionDocumentation(uint _propositionNumber) \n    public\n    view\n    returns (bytes32 ipfsHash, uint8 hash_function, uint8 size, uint propositionType)\n    {\n        return (votingProcedureInfo.propositions[_propositionNumber].ipfsHash, votingProcedureInfo.propositions[_propositionNumber].hash_function, votingProcedureInfo.propositions[_propositionNumber].size, votingProcedureInfo.propositions[_propositionNumber].propositionType);\n    }\n\n    function getPropositionStatus(uint _propositionNumber) \n    public\n    view\n    returns ( bool wasVetoed, bool wasCounted, bool wasAccepted, bool wasEnded, uint votingPeriodEndDate)\n    {\n        return (votingProcedureInfo.propositions[_propositionNumber].wasVetoed, votingProcedureInfo.propositions[_propositionNumber].wasCounted, votingProcedureInfo.propositions[_propositionNumber].wasAccepted, votingProcedureInfo.propositions[_propositionNumber].wasEnded, votingProcedureInfo.propositions[_propositionNumber].votingPeriodEndDate);\n    }\n\n    function getPropositionStatistics(uint _propositionNumber) \n    public\n    view\n    returns (uint voteFor, uint totalVoteCount)\n    {\n        require(votingProcedureInfo.propositions[_propositionNumber].votingPeriodEndDate < now);\n        return (votingProcedureInfo.propositions[_propositionNumber].voteFor, votingProcedureInfo.propositions[_propositionNumber].totalVoteCount);\n    }\n\n    function getPropositionAddresses(uint _propositionNumber) \n    public\n    view\n    returns (address targetOrgan, address contractToAdd, address contractToRemove)\n    {\n        return (votingProcedureInfo.propositions[_propositionNumber].targetOrgan, votingProcedureInfo.propositions[_propositionNumber].contractToAdd, votingProcedureInfo.propositions[_propositionNumber].contractToRemove);\n    }\n\n    function getPropositionPermissions(uint _propositionNumber) \n    public\n    view\n    returns (bool canAdd, bool canDelete, bool canSpend, bool canDeposit)\n    {\n        return (votingProcedureInfo.propositions[_propositionNumber].canAdd, votingProcedureInfo.propositions[_propositionNumber].canDelete, votingProcedureInfo.propositions[_propositionNumber].canSpend, votingProcedureInfo.propositions[_propositionNumber].canDeposit);\n    }\n\n\n\n}\n\n",
  "sourcePath": "/Users/henrilieutaud/Documents/Mes documents/ESILV/03 Blockchain Programmation/solidity-101/contracts/utils/Kelsen/solidity/contracts/procedures/voteOnAdminsAndMastersProcedure.sol",
  "compiler": {
    "name": "solc",
    "version": "0.5.0+commit.1d4f565a.Emscripten.clang"
  },
  "schemaVersion": "3.0.6",
  "updatedAt": "2019-10-03T20:18:25.196Z",
  "devdoc": {
    "methods": {}
  },
  "userdoc": {
    "methods": {
      "createProposition(address,address,address,bytes32,uint8,uint8,bool,bool,bool,bool,uint256)": {
        "notice": "Create a new ballot to choose one of `proposalNames`."
      },
      "haveIVoted(uint256)": {
        "notice": "///////////////////// Functions to communicate with other contracts"
      },
      "veto(uint256)": {
        "notice": "Vote for a candidate"
      },
      "vote(uint256,bool)": {
        "notice": "Vote for a proposition"
      }
    }
  }
}