{
  "contractName": "voteOnAdminsAndMastersProcedure",
  "abi": [
    {
      "constant": true,
      "inputs": [],
      "name": "kelsenVersionNumber",
      "outputs": [
        {
          "name": "",
          "type": "int256"
        }
      ],
      "payable": false,
      "stateMutability": "view",
      "type": "function"
    },
    {
      "constant": true,
      "inputs": [],
      "name": "procedureInfo",
      "outputs": [
        {
          "name": "procedureTypeNumber",
          "type": "uint256"
        },
        {
          "name": "procedureName",
          "type": "bytes32"
        },
        {
          "name": "linkedOrgans",
          "type": "uint256"
        }
      ],
      "payable": false,
      "stateMutability": "view",
      "type": "function"
    },
    {
      "constant": true,
      "inputs": [],
      "name": "linkedOrgans",
      "outputs": [
        {
          "name": "firstOrganAddress",
          "type": "address"
        },
        {
          "name": "secondOrganAddress",
          "type": "address"
        },
        {
          "name": "thirdOrganAddress",
          "type": "address"
        }
      ],
      "payable": false,
      "stateMutability": "view",
      "type": "function"
    },
    {
      "constant": true,
      "inputs": [],
      "name": "isAnOrgan",
      "outputs": [
        {
          "name": "",
          "type": "bool"
        }
      ],
      "payable": false,
      "stateMutability": "view",
      "type": "function"
    },
    {
      "constant": true,
      "inputs": [],
      "name": "isAProcedure",
      "outputs": [
        {
          "name": "",
          "type": "bool"
        }
      ],
      "payable": false,
      "stateMutability": "view",
      "type": "function"
    },
    {
      "constant": true,
      "inputs": [],
      "name": "votingProcedureInfo",
      "outputs": [
        {
          "name": "quorumSize",
          "type": "uint256"
        },
        {
          "name": "votingPeriodDuration",
          "type": "uint256"
        },
        {
          "name": "promulgationPeriodDuration",
          "type": "uint256"
        },
        {
          "name": "majoritySize",
          "type": "uint256"
        },
        {
          "name": "nextPropositionNumber",
          "type": "uint256"
        }
      ],
      "payable": false,
      "stateMutability": "view",
      "type": "function"
    },
    {
      "inputs": [
        {
          "name": "_votersOrganContract",
          "type": "address"
        },
        {
          "name": "_membersWithVetoOrganContract",
          "type": "address"
        },
        {
          "name": "_finalPromulgatorsOrganContract",
          "type": "address"
        },
        {
          "name": "_quorumSize",
          "type": "uint256"
        },
        {
          "name": "_votingPeriodDuration",
          "type": "uint256"
        },
        {
          "name": "_promulgationPeriodDuration",
          "type": "uint256"
        },
        {
          "name": "_majoritySize",
          "type": "uint256"
        },
        {
          "name": "_name",
          "type": "bytes32"
        }
      ],
      "payable": false,
      "stateMutability": "nonpayable",
      "type": "constructor"
    },
    {
      "constant": false,
      "inputs": [
        {
          "name": "_targetOrgan",
          "type": "address"
        },
        {
          "name": "_contractToAdd",
          "type": "address"
        },
        {
          "name": "_contractToRemove",
          "type": "address"
        },
        {
          "name": "_ipfsHash",
          "type": "bytes32"
        },
        {
          "name": "_hash_function",
          "type": "uint8"
        },
        {
          "name": "_size",
          "type": "uint8"
        },
        {
          "name": "_canAdd",
          "type": "bool"
        },
        {
          "name": "_canDelete",
          "type": "bool"
        },
        {
          "name": "_canDeposit",
          "type": "bool"
        },
        {
          "name": "_canSpend",
          "type": "bool"
        },
        {
          "name": "_propositionType",
          "type": "uint256"
        }
      ],
      "name": "createProposition",
      "outputs": [
        {
          "name": "propositionNumber",
          "type": "uint256"
        }
      ],
      "payable": false,
      "stateMutability": "nonpayable",
      "type": "function"
    },
    {
      "constant": false,
      "inputs": [
        {
          "name": "_propositionNumber",
          "type": "uint256"
        },
        {
          "name": "_acceptProposition",
          "type": "bool"
        }
      ],
      "name": "vote",
      "outputs": [],
      "payable": false,
      "stateMutability": "nonpayable",
      "type": "function"
    },
    {
      "constant": false,
      "inputs": [
        {
          "name": "_propositionNumber",
          "type": "uint256"
        }
      ],
      "name": "veto",
      "outputs": [],
      "payable": false,
      "stateMutability": "nonpayable",
      "type": "function"
    },
    {
      "constant": false,
      "inputs": [
        {
          "name": "_propositionNumber",
          "type": "uint256"
        }
      ],
      "name": "endPropositionVote",
      "outputs": [
        {
          "name": "hasBeenAccepted",
          "type": "bool"
        }
      ],
      "payable": false,
      "stateMutability": "nonpayable",
      "type": "function"
    },
    {
      "constant": false,
      "inputs": [
        {
          "name": "_propositionNumber",
          "type": "uint256"
        },
        {
          "name": "_promulgate",
          "type": "bool"
        }
      ],
      "name": "promulgateProposition",
      "outputs": [],
      "payable": false,
      "stateMutability": "nonpayable",
      "type": "function"
    },
    {
      "constant": false,
      "inputs": [
        {
          "name": "_propositionNumber",
          "type": "uint256"
        }
      ],
      "name": "archiveDefunctProposition",
      "outputs": [],
      "payable": false,
      "stateMutability": "nonpayable",
      "type": "function"
    },
    {
      "constant": true,
      "inputs": [
        {
          "name": "_propositionNumber",
          "type": "uint256"
        }
      ],
      "name": "haveIVoted",
      "outputs": [
        {
          "name": "IHaveVoted",
          "type": "bool"
        }
      ],
      "payable": false,
      "stateMutability": "view",
      "type": "function"
    },
    {
      "constant": true,
      "inputs": [
        {
          "name": "_propositionNumber",
          "type": "uint256"
        }
      ],
      "name": "getPropositionDocumentation",
      "outputs": [
        {
          "name": "ipfsHash",
          "type": "bytes32"
        },
        {
          "name": "hash_function",
          "type": "uint8"
        },
        {
          "name": "size",
          "type": "uint8"
        },
        {
          "name": "propositionType",
          "type": "uint256"
        }
      ],
      "payable": false,
      "stateMutability": "view",
      "type": "function"
    },
    {
      "constant": true,
      "inputs": [
        {
          "name": "_propositionNumber",
          "type": "uint256"
        }
      ],
      "name": "getPropositionStatus",
      "outputs": [
        {
          "name": "wasVetoed",
          "type": "bool"
        },
        {
          "name": "wasCounted",
          "type": "bool"
        },
        {
          "name": "wasAccepted",
          "type": "bool"
        },
        {
          "name": "wasEnded",
          "type": "bool"
        },
        {
          "name": "votingPeriodEndDate",
          "type": "uint256"
        }
      ],
      "payable": false,
      "stateMutability": "view",
      "type": "function"
    },
    {
      "constant": true,
      "inputs": [
        {
          "name": "_propositionNumber",
          "type": "uint256"
        }
      ],
      "name": "getPropositionStatistics",
      "outputs": [
        {
          "name": "voteFor",
          "type": "uint256"
        },
        {
          "name": "totalVoteCount",
          "type": "uint256"
        }
      ],
      "payable": false,
      "stateMutability": "view",
      "type": "function"
    },
    {
      "constant": true,
      "inputs": [
        {
          "name": "_propositionNumber",
          "type": "uint256"
        }
      ],
      "name": "getPropositionAddresses",
      "outputs": [
        {
          "name": "targetOrgan",
          "type": "address"
        },
        {
          "name": "contractToAdd",
          "type": "address"
        },
        {
          "name": "contractToRemove",
          "type": "address"
        }
      ],
      "payable": false,
      "stateMutability": "view",
      "type": "function"
    },
    {
      "constant": true,
      "inputs": [
        {
          "name": "_propositionNumber",
          "type": "uint256"
        }
      ],
      "name": "getPropositionPermissions",
      "outputs": [
        {
          "name": "canAdd",
          "type": "bool"
        },
        {
          "name": "canDelete",
          "type": "bool"
        },
        {
          "name": "canSpend",
          "type": "bool"
        },
        {
          "name": "canDeposit",
          "type": "bool"
        }
      ],
      "payable": false,
      "stateMutability": "view",
      "type": "function"
    }
  ],
  "bytecode": "0x608060405260026000556000600560006101000a81548160ff0219169083151502179055506001600560016101000a81548160ff02191690831515021790555034801561004b57600080fd5b506040516101008061173b833981018060405261010081101561006d57600080fd5b810190808051906020019092919080519060200190929190805190602001909291908051906020019092919080519060200190929190805190602001909291908051906020019092919080519060200190929190505050600273__procedureLibrary______________________6356e77656909160068460036040518563ffffffff167c01000000000000000000000000000000000000000000000000000000000281526004018085815260200184815260200183815260200182815260200194505050505060006040518083038186803b15801561014c57600080fd5b505af4158015610160573d6000803e3d6000fd5b50505050600673__procedureLibrary______________________63e7d640db90918a8a8a6040518563ffffffff167c0100000000000000000000000000000000000000000000000000000000028152600401808581526020018473ffffffffffffffffffffffffffffffffffffffff1673ffffffffffffffffffffffffffffffffffffffff1681526020018373ffffffffffffffffffffffffffffffffffffffff1673ffffffffffffffffffffffffffffffffffffffff1681526020018273ffffffffffffffffffffffffffffffffffffffff1673ffffffffffffffffffffffffffffffffffffffff16815260200194505050505060006040518083038186803b15801561026e57600080fd5b505af4158015610282573d6000803e3d6000fd5b50505050600973__propositionVotingLibrary______________63a062e2b79091878787876040518663ffffffff167c0100000000000000000000000000000000000000000000000000000000028152600401808681526020018581526020018481526020018381526020018281526020019550505050505060006040518083038186803b15801561031457600080fd5b505af4158015610328573d6000803e3d6000fd5b5050505050505050505050506113f8806103436000396000f3fe608060405234801561001057600080fd5b5060043610610133576000357c0100000000000000000000000000000000000000000000000000000000900480639e3dd259116100bf578063d64ff0631161008e578063d64ff06314610633578063e09ecb871461066d578063e80b30a5146106b3578063eae10c81146106d5578063f249e7c31461071e57610133565b80639e3dd259146104e1578063a8bef97a14610591578063ac37af1c146105b3578063c9d27afe146105f957610133565b80633ef4cfbb116101065780633ef4cfbb1461030f5780635dbe4d2814610372578063615d9bff1461039057806388933264146103be5780639397942e146104b557610133565b80630366af3d14610138578063043bb756146101a65780631d28dec71461027a5780632ad9db17146102a8575b600080fd5b6101646004803603602081101561014e57600080fd5b8101908080359060200190929190505050610758565b60405180861515151581526020018515151515815260200184151515158152602001831515151581526020018281526020019550505050505060405180910390f35b6101d2600480360360208110156101bc57600080fd5b8101908080359060200190929190505050610829565b604051808473ffffffffffffffffffffffffffffffffffffffff1673ffffffffffffffffffffffffffffffffffffffff1681526020018373ffffffffffffffffffffffffffffffffffffffff1673ffffffffffffffffffffffffffffffffffffffff1681526020018273ffffffffffffffffffffffffffffffffffffffff1673ffffffffffffffffffffffffffffffffffffffff168152602001935050505060405180910390f35b6102a66004803603602081101561029057600080fd5b81019080803590602001909291905050506108ef565b005b6102d4600480360360208110156102be57600080fd5b81019080803590602001909291905050506109ba565b604051808515151515815260200184151515158152602001831515151581526020018215151515815260200194505050505060405180910390f35b61033b6004803603602081101561032557600080fd5b8101908080359060200190929190505050610a6b565b604051808581526020018460ff1660ff1681526020018360ff1660ff16815260200182815260200194505050505060405180910390f35b61037a610b02565b6040518082815260200191505060405180910390f35b6103bc600480360360208110156103a657600080fd5b8101908080359060200190929190505050610b08565b005b61049f60048036036101608110156103d557600080fd5b81019080803573ffffffffffffffffffffffffffffffffffffffff169060200190929190803573ffffffffffffffffffffffffffffffffffffffff169060200190929190803573ffffffffffffffffffffffffffffffffffffffff16906020019092919080359060200190929190803560ff169060200190929190803560ff16906020019092919080351515906020019092919080351515906020019092919080351515906020019092919080351515906020019092919080359060200190929190505050610ba5565b6040518082815260200191505060405180910390f35b6104bd610d87565b60405180848152602001838152602001828152602001935050505060405180910390f35b6104e9610d9f565b604051808473ffffffffffffffffffffffffffffffffffffffff1673ffffffffffffffffffffffffffffffffffffffff1681526020018373ffffffffffffffffffffffffffffffffffffffff1673ffffffffffffffffffffffffffffffffffffffff1681526020018273ffffffffffffffffffffffffffffffffffffffff1673ffffffffffffffffffffffffffffffffffffffff168152602001935050505060405180910390f35b610599610e17565b604051808215151515815260200191505060405180910390f35b6105df600480360360208110156105c957600080fd5b8101908080359060200190929190505050610e2a565b604051808215151515815260200191505060405180910390f35b6106316004803603604081101561060f57600080fd5b8101908080359060200190929190803515159060200190929190505050610f23565b005b61066b6004803603604081101561064957600080fd5b8101908080359060200190929190803515159060200190929190505050611004565b005b6106996004803603602081101561068357600080fd5b8101908080359060200190929190505050611116565b604051808215151515815260200191505060405180910390f35b6106bb61123e565b604051808215151515815260200191505060405180910390f35b610701600480360360208110156106eb57600080fd5b8101908080359060200190929190505050611251565b604051808381526020018281526020019250505060405180910390f35b6107266112b8565b604051808681526020018581526020018481526020018381526020018281526020019550505050505060405180910390f35b60008060008060006009600601600087815260200190815260200160002060000160049054906101000a900460ff166009600601600088815260200190815260200160002060000160059054906101000a900460ff166009600601600089815260200190815260200160002060000160069054906101000a900460ff16600960060160008a815260200190815260200160002060000160079054906101000a900460ff16600960060160008b8152602001908152602001600020600301549450945094509450945091939590929450565b60008060006009600601600085815260200190815260200160002060070160009054906101000a900473ffffffffffffffffffffffffffffffffffffffff166009600601600086815260200190815260200160002060080160009054906101000a900473ffffffffffffffffffffffffffffffffffffffff166009600601600087815260200190815260200160002060090160009054906101000a900473ffffffffffffffffffffffffffffffffffffffff168292508191509250925092509193909250565b61091d600660010160009054906101000a900473ffffffffffffffffffffffffffffffffffffffff166112dc565b6009600601600082815260200190815260200160002073__propositionVotingLibrary______________633369581c90916040518263ffffffff167c01000000000000000000000000000000000000000000000000000000000281526004018082815260200191505060006040518083038186803b15801561099f57600080fd5b505af41580156109b3573d6000803e3d6000fd5b5050505050565b6000806000806009600601600086815260200190815260200160002060000160009054906101000a900460ff166009600601600087815260200190815260200160002060000160019054906101000a900460ff166009600601600088815260200190815260200160002060000160029054906101000a900460ff166009600601600089815260200190815260200160002060000160039054906101000a900460ff1693509350935093509193509193565b60008060008060096006016000868152602001908152602001600020600201546009600601600087815260200190815260200160002060000160089054906101000a900460ff166009600601600088815260200190815260200160002060000160099054906101000a900460ff16600960060160008981526020019081526020016000206001015493509350935093509193509193565b60005481565b6009600601600082815260200190815260200160002073__propositionVotingLibrary______________6320ffac5490916040518263ffffffff167c01000000000000000000000000000000000000000000000000000000000281526004018082815260200191505060006040518083038186803b158015610b8a57600080fd5b505af4158015610b9e573d6000803e3d6000fd5b5050505050565b6000610bd5600660000160009054906101000a900473ffffffffffffffffffffffffffffffffffffffff166112dc565b600973__propositionVotingLibrary______________63cd3393d090918e8e8e8e8e8e8e8e8e8e8e6040518d63ffffffff167c0100000000000000000000000000000000000000000000000000000000028152600401808d81526020018c73ffffffffffffffffffffffffffffffffffffffff1673ffffffffffffffffffffffffffffffffffffffff1681526020018b73ffffffffffffffffffffffffffffffffffffffff1673ffffffffffffffffffffffffffffffffffffffff1681526020018a73ffffffffffffffffffffffffffffffffffffffff1673ffffffffffffffffffffffffffffffffffffffff1681526020018981526020018860ff1660ff1681526020018760ff1660ff168152602001861515151581526020018515151515815260200184151515158152602001831515151581526020018281526020019c5050505050505050505050505060206040518083038186803b158015610d3b57600080fd5b505af4158015610d4f573d6000803e3d6000fd5b505050506040513d6020811015610d6557600080fd5b810190808051906020019092919050505090509b9a5050505050505050505050565b60028060000154908060010154908060020154905083565b60068060000160009054906101000a900473ffffffffffffffffffffffffffffffffffffffff16908060010160009054906101000a900473ffffffffffffffffffffffffffffffffffffffff16908060020160009054906101000a900473ffffffffffffffffffffffffffffffffffffffff16905083565b600560009054906101000a900460ff1681565b600073__propositionVotingLibrary______________63995e9228600960050160003373ffffffffffffffffffffffffffffffffffffffff1673ffffffffffffffffffffffffffffffffffffffff16815260200190815260200160002054846040518363ffffffff167c0100000000000000000000000000000000000000000000000000000000028152600401808381526020018281526020019250505060206040518083038186803b158015610ee157600080fd5b505af4158015610ef5573d6000803e3d6000fd5b505050506040513d6020811015610f0b57600080fd5b81019080805190602001909291905050509050919050565b610f51600660000160009054906101000a900473ffffffffffffffffffffffffffffffffffffffff166112dc565b600973__propositionVotingLibrary______________6396233b5f909160096006016000868152602001908152602001600020846040518463ffffffff167c01000000000000000000000000000000000000000000000000000000000281526004018084815260200183815260200182151515158152602001935050505060006040518083038186803b158015610fe857600080fd5b505af4158015610ffc573d6000803e3d6000fd5b505050505050565b60096002015460096006016000848152602001908152602001600020600301540142101561105f5761105a600660020160009054906101000a900473ffffffffffffffffffffffffffffffffffffffff166112dc565b61106c565b80151561106b57600080fd5b5b6009600601600083815260200190815260200160002073__propositionVotingLibrary______________63d2e73b9d9091836040518363ffffffff167c010000000000000000000000000000000000000000000000000000000002815260040180838152602001821515151581526020019250505060006040518083038186803b1580156110fa57600080fd5b505af415801561110e573d6000803e3d6000fd5b505050505050565b6000600973__propositionVotingLibrary______________63aed723d5909160096006016000868152602001908152602001600020600660000160009054906101000a900473ffffffffffffffffffffffffffffffffffffffff166040518463ffffffff167c0100000000000000000000000000000000000000000000000000000000028152600401808481526020018381526020018273ffffffffffffffffffffffffffffffffffffffff1673ffffffffffffffffffffffffffffffffffffffff168152602001935050505060206040518083038186803b1580156111fc57600080fd5b505af4158015611210573d6000803e3d6000fd5b505050506040513d602081101561122657600080fd5b81019080805190602001909291905050509050919050565b600560019054906101000a900460ff1681565b60008042600960060160008581526020019081526020016000206003015410151561127b57600080fd5b6009600601600084815260200190815260200160002060040154600960060160008581526020019081526020016000206005015491509150915091565b60098060000154908060010154908060020154908060030154908060040154905085565b600081905060008173ffffffffffffffffffffffffffffffffffffffff16635549ea51336040518263ffffffff167c0100000000000000000000000000000000000000000000000000000000028152600401808273ffffffffffffffffffffffffffffffffffffffff1673ffffffffffffffffffffffffffffffffffffffff16815260200191505060206040518083038186803b15801561137c57600080fd5b505afa158015611390573d6000803e3d6000fd5b505050506040513d60208110156113a657600080fd5b8101908080519060200190929190505050141515156113c457600080fd5b60009150505056fea165627a7a7230582031b406c571112834f135b24e5319fe9bf834191f26e4bdc925c8d9c8173dde7d0029",
  "source": "pragma solidity >=0.4.22 <0.6.0;\r\n\r\n// Standard contract for promulgation of a norm\r\n\r\nimport \"../standardProcedure.sol\";\r\nimport \"../Organ.sol\";\r\nimport \"../libraries/propositionVotingLibrary.sol\";\r\n\r\n\r\ncontract voteOnAdminsAndMastersProcedure is Procedure{\r\n    // 1: Cyclical many to one election (Presidential Election)\r\n    // 2: Cyclical many to many election (Moderators Election)\r\n    // 3: Simple norm nomination \r\n    // 4: Simple admins and master nomination\r\n    // 5: Vote on Norms \r\n    // 6: Vote on masters and admins \r\n    // 7: Cooptation\r\n\r\n    using procedureLibrary for procedureLibrary.threeRegisteredOrgans;\r\n    using propositionVotingLibrary for propositionVotingLibrary.Proposition;\r\n    using propositionVotingLibrary for propositionVotingLibrary.VotingProcessInfo;\r\n\r\n    // First stakeholder address is votersOrganContract\r\n    // Second stakeholder address is membersWithVetoOrganContract\r\n    // Third stakeholder address is finalPromulgatorsOrganContract\r\n    procedureLibrary.threeRegisteredOrgans public linkedOrgans;\r\n    propositionVotingLibrary.VotingProcessInfo public votingProcedureInfo;\r\n\r\n    // ######################\r\n\r\n    constructor(address payable _votersOrganContract, address payable _membersWithVetoOrganContract, address payable _finalPromulgatorsOrganContract, uint _quorumSize, uint _votingPeriodDuration, uint _promulgationPeriodDuration, uint _majoritySize, bytes32 _name) \r\n    public \r\n    {\r\n    procedureInfo.initProcedure(6, _name, 3);\r\n    linkedOrgans.initThreeRegisteredOrgans(_votersOrganContract, _membersWithVetoOrganContract, _finalPromulgatorsOrganContract);\r\n    votingProcedureInfo.initElectionParameters(_quorumSize, _votingPeriodDuration, _promulgationPeriodDuration, _majoritySize);\r\n    }\r\n\r\n    /// Create a new ballot to choose one of `proposalNames`.\r\n    function createProposition(address payable _targetOrgan, address payable _contractToAdd, address payable _contractToRemove, bytes32 _ipfsHash, uint8 _hash_function, uint8 _size, bool _canAdd, bool _canDelete, bool _canDeposit, bool _canSpend, uint _propositionType) \r\n    public \r\n    returns (uint propositionNumber)\r\n    {\r\n        // Check the proposition creator is able to make a proposition\r\n        procedureLibrary.isAllowed(linkedOrgans.firstOrganAddress);\r\n\r\n        return votingProcedureInfo.createPropositionLib(_targetOrgan, _contractToAdd, _contractToRemove, _ipfsHash, _hash_function, _size, _canAdd, _canDelete, _canDeposit, _canSpend, _propositionType);\r\n    }\r\n\r\n    /// Vote for a proposition\r\n    function vote(uint _propositionNumber, bool _acceptProposition) \r\n    public \r\n    {\r\n        // Check the voter is able to vote on a proposition\r\n        procedureLibrary.isAllowed(linkedOrgans.firstOrganAddress);\r\n\r\n        votingProcedureInfo.voteLib(votingProcedureInfo.propositions[_propositionNumber], _acceptProposition);\r\n    }\r\n\r\n        /// Vote for a candidate\r\n    function veto(uint _propositionNumber) \r\n    public \r\n    {\r\n\r\n        // Check the voter is able to veto the proposition\r\n        procedureLibrary.isAllowed(linkedOrgans.secondOrganAddress);\r\n        \r\n        votingProcedureInfo.propositions[_propositionNumber].vetoLib();\r\n    }\r\n\r\n    // The vote is finished and we close it. This triggers the outcome of the vote.\r\n\r\n    function endPropositionVote(uint _propositionNumber) \r\n    public \r\n    returns (bool hasBeenAccepted) \r\n    {\r\n\r\n        return votingProcedureInfo.endPropositionVoteLib(votingProcedureInfo.propositions[_propositionNumber], linkedOrgans.firstOrganAddress);\r\n    }\r\n\r\n    function promulgateProposition(uint _propositionNumber, bool _promulgate) \r\n    public \r\n    {\r\n        // If promulgation is happening before endOfVote + promulgationPeriodDuration, check caller is an official promulgator\r\n        if (now < votingProcedureInfo.propositions[_propositionNumber].votingPeriodEndDate + votingProcedureInfo.promulgationPeriodDuration)\r\n        {        \r\n            // Check the voter is able to promulgate the proposition\r\n            procedureLibrary.isAllowed(linkedOrgans.thirdOrganAddress);\r\n        }\r\n        else \r\n        { \r\n            // If Promulgator did not promulgate, the only option is validating\r\n            require(_promulgate);\r\n        }\r\n\r\n        votingProcedureInfo.propositions[_propositionNumber].promulgatePropositionLib(_promulgate);\r\n    }\r\n\r\n    function archiveDefunctProposition(uint _propositionNumber) \r\n    public \r\n    {\r\n    // If a proposition contains an instruction that can not be executed (eg \"add an admin\" without having canAdd enabled), this proposition can be closed\r\n        votingProcedureInfo.propositions[_propositionNumber].archiveDefunctPropositionLib();\r\n    }\r\n\r\n\r\n    //////////////////////// Functions to communicate with other contracts\r\n\r\n    function haveIVoted(uint _propositionNumber) \r\n    public \r\n    view \r\n    returns (bool IHaveVoted)\r\n    {\r\n        return propositionVotingLibrary.getBoolean(votingProcedureInfo.userParticipation[msg.sender], _propositionNumber);\r\n    }\r\n\r\n    function getPropositionDocumentation(uint _propositionNumber) \r\n    public\r\n    view\r\n    returns (bytes32 ipfsHash, uint8 hash_function, uint8 size, uint propositionType)\r\n    {\r\n        return (votingProcedureInfo.propositions[_propositionNumber].ipfsHash, votingProcedureInfo.propositions[_propositionNumber].hash_function, votingProcedureInfo.propositions[_propositionNumber].size, votingProcedureInfo.propositions[_propositionNumber].propositionType);\r\n    }\r\n\r\n    function getPropositionStatus(uint _propositionNumber) \r\n    public\r\n    view\r\n    returns ( bool wasVetoed, bool wasCounted, bool wasAccepted, bool wasEnded, uint votingPeriodEndDate)\r\n    {\r\n        return (votingProcedureInfo.propositions[_propositionNumber].wasVetoed, votingProcedureInfo.propositions[_propositionNumber].wasCounted, votingProcedureInfo.propositions[_propositionNumber].wasAccepted, votingProcedureInfo.propositions[_propositionNumber].wasEnded, votingProcedureInfo.propositions[_propositionNumber].votingPeriodEndDate);\r\n    }\r\n\r\n    function getPropositionStatistics(uint _propositionNumber) \r\n    public\r\n    view\r\n    returns (uint voteFor, uint totalVoteCount)\r\n    {\r\n        require(votingProcedureInfo.propositions[_propositionNumber].votingPeriodEndDate < now);\r\n        return (votingProcedureInfo.propositions[_propositionNumber].voteFor, votingProcedureInfo.propositions[_propositionNumber].totalVoteCount);\r\n    }\r\n\r\n    function getPropositionAddresses(uint _propositionNumber) \r\n    public\r\n    view\r\n    returns (address targetOrgan, address contractToAdd, address contractToRemove)\r\n    {\r\n        return (votingProcedureInfo.propositions[_propositionNumber].targetOrgan, votingProcedureInfo.propositions[_propositionNumber].contractToAdd, votingProcedureInfo.propositions[_propositionNumber].contractToRemove);\r\n    }\r\n\r\n    function getPropositionPermissions(uint _propositionNumber) \r\n    public\r\n    view\r\n    returns (bool canAdd, bool canDelete, bool canSpend, bool canDeposit)\r\n    {\r\n        return (votingProcedureInfo.propositions[_propositionNumber].canAdd, votingProcedureInfo.propositions[_propositionNumber].canDelete, votingProcedureInfo.propositions[_propositionNumber].canSpend, votingProcedureInfo.propositions[_propositionNumber].canDeposit);\r\n    }\r\n\r\n\r\n\r\n}\r\n\r\n",
  "sourcePath": "C:/Users/hlieutaud/Documents/Workshop/Solidity/solidity-101/contracts/utils/Kelsen/solidity/contracts/procedures/voteOnAdminsAndMastersProcedure.sol",
  "compiler": {
    "name": "solc",
    "version": "0.5.4+commit.9549d8ff.Emscripten.clang"
  },
  "schemaVersion": "3.0.10",
  "updatedAt": "2019-10-01T09:02:18.891Z",
  "devdoc": {
    "methods": {}
  },
  "userdoc": {
    "methods": {
      "createProposition(address,address,address,bytes32,uint8,uint8,bool,bool,bool,bool,uint256)": {
        "notice": "Create a new ballot to choose one of `proposalNames`."
      },
      "haveIVoted(uint256)": {
        "notice": "///////////////////// Functions to communicate with other contracts"
      },
      "veto(uint256)": {
        "notice": "Vote for a candidate"
      },
      "vote(uint256,bool)": {
        "notice": "Vote for a proposition"
      }
    }
  }
}