{
  "contractName": "voteOnExpenseProcedure",
  "abi": [
    {
      "constant": true,
      "inputs": [],
      "name": "kelsenVersionNumber",
      "outputs": [
        {
          "name": "",
          "type": "int256"
        }
      ],
      "payable": false,
      "stateMutability": "view",
      "type": "function"
    },
    {
      "constant": true,
      "inputs": [],
      "name": "procedureInfo",
      "outputs": [
        {
          "name": "procedureTypeNumber",
          "type": "uint256"
        },
        {
          "name": "procedureName",
          "type": "bytes32"
        },
        {
          "name": "linkedOrgans",
          "type": "uint256"
        }
      ],
      "payable": false,
      "stateMutability": "view",
      "type": "function"
    },
    {
      "constant": true,
      "inputs": [],
      "name": "linkedOrgans",
      "outputs": [
        {
          "name": "firstOrganAddress",
          "type": "address"
        },
        {
          "name": "secondOrganAddress",
          "type": "address"
        },
        {
          "name": "thirdOrganAddress",
          "type": "address"
        },
        {
          "name": "fourthOrganAddress",
          "type": "address"
        }
      ],
      "payable": false,
      "stateMutability": "view",
      "type": "function"
    },
    {
      "constant": true,
      "inputs": [],
      "name": "isAnOrgan",
      "outputs": [
        {
          "name": "",
          "type": "bool"
        }
      ],
      "payable": false,
      "stateMutability": "view",
      "type": "function"
    },
    {
      "constant": true,
      "inputs": [],
      "name": "isAProcedure",
      "outputs": [
        {
          "name": "",
          "type": "bool"
        }
      ],
      "payable": false,
      "stateMutability": "view",
      "type": "function"
    },
    {
      "constant": true,
      "inputs": [],
      "name": "votingProcedureInfo",
      "outputs": [
        {
          "name": "quorumSize",
          "type": "uint256"
        },
        {
          "name": "votingPeriodDuration",
          "type": "uint256"
        },
        {
          "name": "promulgationPeriodDuration",
          "type": "uint256"
        },
        {
          "name": "majoritySize",
          "type": "uint256"
        },
        {
          "name": "nextPropositionNumber",
          "type": "uint256"
        }
      ],
      "payable": false,
      "stateMutability": "view",
      "type": "function"
    },
    {
      "inputs": [
        {
          "name": "_affectedOrganContract",
          "type": "address"
        },
        {
          "name": "_votersOrganContract",
          "type": "address"
        },
        {
          "name": "_membersWithVetoOrganContract",
          "type": "address"
        },
        {
          "name": "_finalPromulgatorsOrganContract",
          "type": "address"
        },
        {
          "name": "_quorumSize",
          "type": "uint256"
        },
        {
          "name": "_votingPeriodDuration",
          "type": "uint256"
        },
        {
          "name": "_promulgationPeriodDuration",
          "type": "uint256"
        },
        {
          "name": "_majoritySize",
          "type": "uint256"
        },
        {
          "name": "_name",
          "type": "bytes32"
        }
      ],
      "payable": false,
      "stateMutability": "nonpayable",
      "type": "constructor"
    },
    {
      "constant": false,
      "inputs": [
        {
          "name": "_payoutAddress",
          "type": "address"
        },
        {
          "name": "_amount",
          "type": "uint256"
        },
        {
          "name": "_ipfsHash",
          "type": "bytes32"
        },
        {
          "name": "_hash_function",
          "type": "uint8"
        },
        {
          "name": "_size",
          "type": "uint8"
        }
      ],
      "name": "createProposition",
      "outputs": [
        {
          "name": "propositionNumber",
          "type": "uint256"
        }
      ],
      "payable": false,
      "stateMutability": "nonpayable",
      "type": "function"
    },
    {
      "constant": false,
      "inputs": [
        {
          "name": "_propositionNumber",
          "type": "uint256"
        },
        {
          "name": "_acceptProposition",
          "type": "bool"
        }
      ],
      "name": "vote",
      "outputs": [],
      "payable": false,
      "stateMutability": "nonpayable",
      "type": "function"
    },
    {
      "constant": false,
      "inputs": [
        {
          "name": "_propositionNumber",
          "type": "uint256"
        }
      ],
      "name": "veto",
      "outputs": [],
      "payable": false,
      "stateMutability": "nonpayable",
      "type": "function"
    },
    {
      "constant": false,
      "inputs": [
        {
          "name": "_propositionNumber",
          "type": "uint256"
        }
      ],
      "name": "endPropositionVote",
      "outputs": [
        {
          "name": "hasBeenAccepted",
          "type": "bool"
        }
      ],
      "payable": false,
      "stateMutability": "nonpayable",
      "type": "function"
    },
    {
      "constant": false,
      "inputs": [
        {
          "name": "_propositionNumber",
          "type": "uint256"
        },
        {
          "name": "_promulgate",
          "type": "bool"
        }
      ],
      "name": "promulgateProposition",
      "outputs": [],
      "payable": false,
      "stateMutability": "nonpayable",
      "type": "function"
    },
    {
      "constant": true,
      "inputs": [
        {
          "name": "_propositionNumber",
          "type": "uint256"
        }
      ],
      "name": "haveIVoted",
      "outputs": [
        {
          "name": "IHaveVoted",
          "type": "bool"
        }
      ],
      "payable": false,
      "stateMutability": "view",
      "type": "function"
    },
    {
      "constant": true,
      "inputs": [
        {
          "name": "_propositionNumber",
          "type": "uint256"
        }
      ],
      "name": "getPropositionDocumentation",
      "outputs": [
        {
          "name": "ipfsHash",
          "type": "bytes32"
        },
        {
          "name": "hash_function",
          "type": "uint8"
        },
        {
          "name": "size",
          "type": "uint8"
        },
        {
          "name": "propositionType",
          "type": "uint256"
        }
      ],
      "payable": false,
      "stateMutability": "view",
      "type": "function"
    },
    {
      "constant": true,
      "inputs": [
        {
          "name": "_propositionNumber",
          "type": "uint256"
        }
      ],
      "name": "getPropositionStatus",
      "outputs": [
        {
          "name": "wasVetoed",
          "type": "bool"
        },
        {
          "name": "wasCounted",
          "type": "bool"
        },
        {
          "name": "wasAccepted",
          "type": "bool"
        },
        {
          "name": "wasEnded",
          "type": "bool"
        },
        {
          "name": "votingPeriodEndDate",
          "type": "uint256"
        }
      ],
      "payable": false,
      "stateMutability": "view",
      "type": "function"
    },
    {
      "constant": true,
      "inputs": [
        {
          "name": "_propositionNumber",
          "type": "uint256"
        }
      ],
      "name": "getPropositionStatistics",
      "outputs": [
        {
          "name": "voteFor",
          "type": "uint256"
        },
        {
          "name": "totalVoteCount",
          "type": "uint256"
        }
      ],
      "payable": false,
      "stateMutability": "view",
      "type": "function"
    },
    {
      "constant": true,
      "inputs": [
        {
          "name": "_propositionNumber",
          "type": "uint256"
        }
      ],
      "name": "getPropositionAddresses",
      "outputs": [
        {
          "name": "targetOrgan",
          "type": "address"
        },
        {
          "name": "contractToAdd",
          "type": "address"
        },
        {
          "name": "contractToRemove",
          "type": "address"
        }
      ],
      "payable": false,
      "stateMutability": "view",
      "type": "function"
    },
    {
      "constant": true,
      "inputs": [
        {
          "name": "_propositionNumber",
          "type": "uint256"
        }
      ],
      "name": "getPropositionPermissions",
      "outputs": [
        {
          "name": "canAdd",
          "type": "bool"
        },
        {
          "name": "canDelete",
          "type": "bool"
        },
        {
          "name": "canSpend",
          "type": "bool"
        },
        {
          "name": "canDeposit",
          "type": "bool"
        }
      ],
      "payable": false,
      "stateMutability": "view",
      "type": "function"
    }
  ],
  "bytecode": "0x608060405260026000556000600560006101000a81548160ff0219169083151502179055506001600560016101000a81548160ff02191690831515021790555034801561004b57600080fd5b506040516101208061175a833981018060405261012081101561006d57600080fd5b81019080805190602001909291908051906020019092919080519060200190929190805190602001909291908051906020019092919080519060200190929190805190602001909291908051906020019092919080519060200190929190505050600273__procedureLibrary______________________6356e77656909160088460046040518563ffffffff167c01000000000000000000000000000000000000000000000000000000000281526004018085815260200184815260200183815260200182815260200194505050505060006040518083038186803b15801561015657600080fd5b505af415801561016a573d6000803e3d6000fd5b50505050600673__procedureLibrary______________________6380ac418e90918a8a8a8e6040518663ffffffff167c0100000000000000000000000000000000000000000000000000000000028152600401808681526020018573ffffffffffffffffffffffffffffffffffffffff1673ffffffffffffffffffffffffffffffffffffffff1681526020018473ffffffffffffffffffffffffffffffffffffffff1673ffffffffffffffffffffffffffffffffffffffff1681526020018373ffffffffffffffffffffffffffffffffffffffff1673ffffffffffffffffffffffffffffffffffffffff1681526020018273ffffffffffffffffffffffffffffffffffffffff1673ffffffffffffffffffffffffffffffffffffffff1681526020019550505050505060006040518083038186803b1580156102ac57600080fd5b505af41580156102c0573d6000803e3d6000fd5b50505050600a73__propositionVotingLibrary______________63a062e2b79091878787876040518663ffffffff167c0100000000000000000000000000000000000000000000000000000000028152600401808681526020018581526020018481526020018381526020018281526020019550505050505060006040518083038186803b15801561035257600080fd5b505af4158015610366573d6000803e3d6000fd5b505050505050505050505050506113d8806103826000396000f3fe6080604052600436106100f1576000357c0100000000000000000000000000000000000000000000000000000000900463ffffffff1680630366af3d146100f6578063043bb756146101715780631d28dec7146102525780632ad9db171461028d5780633ef4cfbb146103015780635dbe4d28146103715780639397942e1461039c5780639e3dd259146103d55780639e869dd9146104c5578063a8bef97a14610558578063ac37af1c14610587578063c9d27afe146105da578063d64ff06314610621578063e09ecb8714610668578063e80b30a5146106bb578063eae10c81146106ea578063f249e7c314610740575b600080fd5b34801561010257600080fd5b5061012f6004803603602081101561011957600080fd5b8101908080359060200190929190505050610787565b60405180861515151581526020018515151515815260200184151515158152602001831515151581526020018281526020019550505050505060405180910390f35b34801561017d57600080fd5b506101aa6004803603602081101561019457600080fd5b8101908080359060200190929190505050610858565b604051808473ffffffffffffffffffffffffffffffffffffffff1673ffffffffffffffffffffffffffffffffffffffff1681526020018373ffffffffffffffffffffffffffffffffffffffff1673ffffffffffffffffffffffffffffffffffffffff1681526020018273ffffffffffffffffffffffffffffffffffffffff1673ffffffffffffffffffffffffffffffffffffffff168152602001935050505060405180910390f35b34801561025e57600080fd5b5061028b6004803603602081101561027557600080fd5b810190808035906020019092919050505061091e565b005b34801561029957600080fd5b506102c6600480360360208110156102b057600080fd5b81019080803590602001909291905050506109e9565b604051808515151515815260200184151515158152602001831515151581526020018215151515815260200194505050505060405180910390f35b34801561030d57600080fd5b5061033a6004803603602081101561032457600080fd5b8101908080359060200190929190505050610a9a565b604051808581526020018460ff1660ff1681526020018360ff1660ff16815260200182815260200194505050505060405180910390f35b34801561037d57600080fd5b50610386610b31565b6040518082815260200191505060405180910390f35b3480156103a857600080fd5b506103b1610b37565b60405180848152602001838152602001828152602001935050505060405180910390f35b3480156103e157600080fd5b506103ea610b4f565b604051808573ffffffffffffffffffffffffffffffffffffffff1673ffffffffffffffffffffffffffffffffffffffff1681526020018473ffffffffffffffffffffffffffffffffffffffff1673ffffffffffffffffffffffffffffffffffffffff1681526020018373ffffffffffffffffffffffffffffffffffffffff1673ffffffffffffffffffffffffffffffffffffffff1681526020018273ffffffffffffffffffffffffffffffffffffffff1673ffffffffffffffffffffffffffffffffffffffff16815260200194505050505060405180910390f35b3480156104d157600080fd5b50610542600480360360a08110156104e857600080fd5b81019080803573ffffffffffffffffffffffffffffffffffffffff1690602001909291908035906020019092919080359060200190929190803560ff169060200190929190803560ff169060200190929190505050610bed565b6040518082815260200191505060405180910390f35b34801561056457600080fd5b5061056d610df7565b604051808215151515815260200191505060405180910390f35b34801561059357600080fd5b506105c0600480360360208110156105aa57600080fd5b8101908080359060200190929190505050610e0a565b604051808215151515815260200191505060405180910390f35b3480156105e657600080fd5b5061061f600480360360408110156105fd57600080fd5b8101908080359060200190929190803515159060200190929190505050610f03565b005b34801561062d57600080fd5b506106666004803603604081101561064457600080fd5b8101908080359060200190929190803515159060200190929190505050610fe4565b005b34801561067457600080fd5b506106a16004803603602081101561068b57600080fd5b81019080803590602001909291905050506110f6565b604051808215151515815260200191505060405180910390f35b3480156106c757600080fd5b506106d061121e565b604051808215151515815260200191505060405180910390f35b3480156106f657600080fd5b506107236004803603602081101561070d57600080fd5b8101908080359060200190929190505050611231565b604051808381526020018281526020019250505060405180910390f35b34801561074c57600080fd5b50610755611298565b604051808681526020018581526020018481526020018381526020018281526020019550505050505060405180910390f35b6000806000806000600a600601600087815260200190815260200160002060000160049054906101000a900460ff16600a600601600088815260200190815260200160002060000160059054906101000a900460ff16600a600601600089815260200190815260200160002060000160069054906101000a900460ff16600a60060160008a815260200190815260200160002060000160079054906101000a900460ff16600a60060160008b8152602001908152602001600020600301549450945094509450945091939590929450565b6000806000600a600601600085815260200190815260200160002060070160009054906101000a900473ffffffffffffffffffffffffffffffffffffffff16600a600601600086815260200190815260200160002060080160009054906101000a900473ffffffffffffffffffffffffffffffffffffffff16600a600601600087815260200190815260200160002060090160009054906101000a900473ffffffffffffffffffffffffffffffffffffffff168292508191509250925092509193909250565b61094c600660010160009054906101000a900473ffffffffffffffffffffffffffffffffffffffff166112bc565b600a600601600082815260200190815260200160002073__propositionVotingLibrary______________633369581c90916040518263ffffffff167c01000000000000000000000000000000000000000000000000000000000281526004018082815260200191505060006040518083038186803b1580156109ce57600080fd5b505af41580156109e2573d6000803e3d6000fd5b5050505050565b600080600080600a600601600086815260200190815260200160002060000160009054906101000a900460ff16600a600601600087815260200190815260200160002060000160019054906101000a900460ff16600a600601600088815260200190815260200160002060000160029054906101000a900460ff16600a600601600089815260200190815260200160002060000160039054906101000a900460ff1693509350935093509193509193565b600080600080600a600601600086815260200190815260200160002060020154600a600601600087815260200190815260200160002060000160089054906101000a900460ff16600a600601600088815260200190815260200160002060000160099054906101000a900460ff16600a60060160008981526020019081526020016000206001015493509350935093509193509193565b60005481565b60028060000154908060010154908060020154905083565b60068060000160009054906101000a900473ffffffffffffffffffffffffffffffffffffffff16908060010160009054906101000a900473ffffffffffffffffffffffffffffffffffffffff16908060020160009054906101000a900473ffffffffffffffffffffffffffffffffffffffff16908060030160009054906101000a900473ffffffffffffffffffffffffffffffffffffffff16905084565b6000610c1d600660000160009054906101000a900473ffffffffffffffffffffffffffffffffffffffff166112bc565b6000859050600a73__propositionVotingLibrary______________63cd3393d09091600660030160009054906101000a900473ffffffffffffffffffffffffffffffffffffffff168a60008a8a8a6000806000808d6040518d63ffffffff167c0100000000000000000000000000000000000000000000000000000000028152600401808d81526020018c73ffffffffffffffffffffffffffffffffffffffff1673ffffffffffffffffffffffffffffffffffffffff1681526020018b73ffffffffffffffffffffffffffffffffffffffff1673ffffffffffffffffffffffffffffffffffffffff1681526020018a73ffffffffffffffffffffffffffffffffffffffff1673ffffffffffffffffffffffffffffffffffffffff1681526020018981526020018860ff1660ff1681526020018760ff1660ff168152602001861515151581526020018515151515815260200184151515158152602001831515151581526020018281526020019c5050505050505050505050505060206040518083038186803b158015610db057600080fd5b505af4158015610dc4573d6000803e3d6000fd5b505050506040513d6020811015610dda57600080fd5b810190808051906020019092919050505091505095945050505050565b600560009054906101000a900460ff1681565b600073__propositionVotingLibrary______________63995e9228600a60050160003373ffffffffffffffffffffffffffffffffffffffff1673ffffffffffffffffffffffffffffffffffffffff16815260200190815260200160002054846040518363ffffffff167c0100000000000000000000000000000000000000000000000000000000028152600401808381526020018281526020019250505060206040518083038186803b158015610ec157600080fd5b505af4158015610ed5573d6000803e3d6000fd5b505050506040513d6020811015610eeb57600080fd5b81019080805190602001909291905050509050919050565b610f31600660000160009054906101000a900473ffffffffffffffffffffffffffffffffffffffff166112bc565b600a73__propositionVotingLibrary______________6396233b5f9091600a6006016000868152602001908152602001600020846040518463ffffffff167c01000000000000000000000000000000000000000000000000000000000281526004018084815260200183815260200182151515158152602001935050505060006040518083038186803b158015610fc857600080fd5b505af4158015610fdc573d6000803e3d6000fd5b505050505050565b600a60020154600a6006016000848152602001908152602001600020600301540142101561103f5761103a600660020160009054906101000a900473ffffffffffffffffffffffffffffffffffffffff166112bc565b61104c565b80151561104b57600080fd5b5b600a600601600083815260200190815260200160002073__propositionVotingLibrary______________63da66af9c9091836040518363ffffffff167c010000000000000000000000000000000000000000000000000000000002815260040180838152602001821515151581526020019250505060006040518083038186803b1580156110da57600080fd5b505af41580156110ee573d6000803e3d6000fd5b505050505050565b6000600a73__propositionVotingLibrary______________63aed723d59091600a6006016000868152602001908152602001600020600660000160009054906101000a900473ffffffffffffffffffffffffffffffffffffffff166040518463ffffffff167c0100000000000000000000000000000000000000000000000000000000028152600401808481526020018381526020018273ffffffffffffffffffffffffffffffffffffffff1673ffffffffffffffffffffffffffffffffffffffff168152602001935050505060206040518083038186803b1580156111dc57600080fd5b505af41580156111f0573d6000803e3d6000fd5b505050506040513d602081101561120657600080fd5b81019080805190602001909291905050509050919050565b600560019054906101000a900460ff1681565b60008042600a60060160008581526020019081526020016000206003015410151561125b57600080fd5b600a600601600084815260200190815260200160002060040154600a60060160008581526020019081526020016000206005015491509150915091565b600a8060000154908060010154908060020154908060030154908060040154905085565b600081905060008173ffffffffffffffffffffffffffffffffffffffff16635549ea51336040518263ffffffff167c0100000000000000000000000000000000000000000000000000000000028152600401808273ffffffffffffffffffffffffffffffffffffffff1673ffffffffffffffffffffffffffffffffffffffff16815260200191505060206040518083038186803b15801561135c57600080fd5b505afa158015611370573d6000803e3d6000fd5b505050506040513d602081101561138657600080fd5b8101908080519060200190929190505050141515156113a457600080fd5b60009150505056fea165627a7a72305820b33e46db794481bd2146661aeb8ec3ed1ec92d913f5cef983fb95843de307b000029",
  "source": "pragma solidity >=0.4.22 <0.6.0;\n\n// Standard contract for promulgation of a norm\n\nimport \"../standardProcedure.sol\";\nimport \"../Organ.sol\";\nimport \"../libraries/propositionVotingLibrary.sol\";\n\ncontract voteOnExpenseProcedure is Procedure{\n    // 1: Cyclical many to one election (Presidential Election)\n    // 2: Cyclical many to many election (Moderators Election)\n    // 3: Simple norm nomination \n    // 4: Simple admins and master nomination\n    // 5: Vote on Norms \n    // 6: Vote on masters and admins \n    // 7: Cooptation\n    // 8: Vote on an expense\n\n    using procedureLibrary for procedureLibrary.fourRegisteredOrgans;\n    using propositionVotingLibrary for propositionVotingLibrary.Proposition;\n    using propositionVotingLibrary for propositionVotingLibrary.VotingProcessInfo;\n\n    // First stakeholder address is votersOrganContract\n    // Second stakeholder address is membersWithVetoOrganContract\n    // Third stakeholder address is finalPromulgatorsOrganContract\n    // Fourth stakeholder address is affectedOrganContract\n    procedureLibrary.fourRegisteredOrgans public linkedOrgans;\n    propositionVotingLibrary.VotingProcessInfo public votingProcedureInfo;\n\n    constructor(address payable _affectedOrganContract, address payable _votersOrganContract, address payable _membersWithVetoOrganContract, address payable _finalPromulgatorsOrganContract, uint _quorumSize, uint _votingPeriodDuration, uint _promulgationPeriodDuration, uint _majoritySize, bytes32 _name) \n    public \n    {\n        procedureInfo.initProcedure(8, _name, 4);\n        linkedOrgans.initFourRegisteredOrgans(_votersOrganContract, _membersWithVetoOrganContract, _finalPromulgatorsOrganContract, _affectedOrganContract);\n        votingProcedureInfo.initElectionParameters(_quorumSize, _votingPeriodDuration, _promulgationPeriodDuration, _majoritySize);\n    }\n\n    /// Create a new ballot to choose one of `proposalNames`.\n    function createProposition(address payable _payoutAddress, uint _amount, bytes32 _ipfsHash, uint8 _hash_function, uint8 _size) \n    public \n    returns (uint propositionNumber)\n    {\n\n        // Check the proposition creator is able to make a proposition\n        procedureLibrary.isAllowed(linkedOrgans.firstOrganAddress);\n        uint payoutAmount = _amount;\n        // The proposed payout amount is stored in the propositionType field\n        return votingProcedureInfo.createPropositionLib(linkedOrgans.fourthOrganAddress, _payoutAddress, address(0), _ipfsHash, _hash_function, _size, false, false, false, false, payoutAmount);\n    }\n\n    /// Vote for a proposition\n    function vote(uint _propositionNumber, bool _acceptProposition) \n    public \n    {\n        // Check the voter is able to vote on a proposition\n        procedureLibrary.isAllowed(linkedOrgans.firstOrganAddress);\n        votingProcedureInfo.voteLib(votingProcedureInfo.propositions[_propositionNumber], _acceptProposition);\n    }\n\n        /// Vote for a candidate\n    function veto(uint _propositionNumber) \n    public \n    {\n        // Check the voter is able to veto the proposition\n        procedureLibrary.isAllowed(linkedOrgans.secondOrganAddress);\n        \n        votingProcedureInfo.propositions[_propositionNumber].vetoLib();\n    }\n\n    // The vote is finished and we close it. This triggers the outcome of the vote.\n\n    function endPropositionVote(uint _propositionNumber) public returns (bool hasBeenAccepted) \n    {\n        return votingProcedureInfo.endPropositionVoteLib(votingProcedureInfo.propositions[_propositionNumber], linkedOrgans.firstOrganAddress);\n    }\n\n    function promulgateProposition(uint _propositionNumber, bool _promulgate) public\n    {\n        // If promulgation is happening before endOfVote + promulgationPeriodDuration, check caller is an official promulgator\n        if (now < votingProcedureInfo.propositions[_propositionNumber].votingPeriodEndDate + votingProcedureInfo.promulgationPeriodDuration)\n        {        \n            // Check the voter is able to promulgate the proposition\n            procedureLibrary.isAllowed(linkedOrgans.thirdOrganAddress);\n        }\n        else \n        { \n            // If Promulgator did not promulgate, the only option is validating\n            require(_promulgate);\n        }\n\n        votingProcedureInfo.propositions[_propositionNumber].processPayoutPropositionLib(_promulgate);\n    }\n\n    function haveIVoted(uint _propositionNumber) \n    public \n    view \n    returns (bool IHaveVoted)\n    {\n        return propositionVotingLibrary.getBoolean(votingProcedureInfo.userParticipation[msg.sender], _propositionNumber);\n    }\n\n    function getPropositionDocumentation(uint _propositionNumber) \n    public\n    view\n    returns (bytes32 ipfsHash, uint8 hash_function, uint8 size, uint propositionType)\n    {\n        return (votingProcedureInfo.propositions[_propositionNumber].ipfsHash, votingProcedureInfo.propositions[_propositionNumber].hash_function, votingProcedureInfo.propositions[_propositionNumber].size, votingProcedureInfo.propositions[_propositionNumber].propositionType);\n    }\n\n    function getPropositionStatus(uint _propositionNumber) \n    public\n    view\n    returns ( bool wasVetoed, bool wasCounted, bool wasAccepted, bool wasEnded, uint votingPeriodEndDate)\n    {\n        return (votingProcedureInfo.propositions[_propositionNumber].wasVetoed, votingProcedureInfo.propositions[_propositionNumber].wasCounted, votingProcedureInfo.propositions[_propositionNumber].wasAccepted, votingProcedureInfo.propositions[_propositionNumber].wasEnded, votingProcedureInfo.propositions[_propositionNumber].votingPeriodEndDate);\n    }\n\n    function getPropositionStatistics(uint _propositionNumber) \n    public\n    view\n    returns (uint voteFor, uint totalVoteCount)\n    {\n        require(votingProcedureInfo.propositions[_propositionNumber].votingPeriodEndDate < now);\n        return (votingProcedureInfo.propositions[_propositionNumber].voteFor, votingProcedureInfo.propositions[_propositionNumber].totalVoteCount);\n    }\n\n    function getPropositionAddresses(uint _propositionNumber) \n    public\n    view\n    returns (address targetOrgan, address contractToAdd, address contractToRemove)\n    {\n        return (votingProcedureInfo.propositions[_propositionNumber].targetOrgan, votingProcedureInfo.propositions[_propositionNumber].contractToAdd, votingProcedureInfo.propositions[_propositionNumber].contractToRemove);\n    }\n\n    function getPropositionPermissions(uint _propositionNumber) \n    public\n    view\n    returns (bool canAdd, bool canDelete, bool canSpend, bool canDeposit)\n    {\n        return (votingProcedureInfo.propositions[_propositionNumber].canAdd, votingProcedureInfo.propositions[_propositionNumber].canDelete, votingProcedureInfo.propositions[_propositionNumber].canSpend, votingProcedureInfo.propositions[_propositionNumber].canDeposit);\n    }\n\n}\n\n",
  "sourcePath": "/Users/henrilieutaud/Documents/Mes documents/ESILV/03 Blockchain Programmation/solidity-101/contracts/utils/Kelsen/solidity/contracts/procedures/voteOnExpenseProcedure.sol",
  "compiler": {
    "name": "solc",
    "version": "0.5.0+commit.1d4f565a.Emscripten.clang"
  },
  "schemaVersion": "3.0.6",
  "updatedAt": "2019-10-03T20:18:25.198Z",
  "devdoc": {
    "methods": {}
  },
  "userdoc": {
    "methods": {
      "createProposition(address,uint256,bytes32,uint8,uint8)": {
        "notice": "Create a new ballot to choose one of `proposalNames`."
      },
      "veto(uint256)": {
        "notice": "Vote for a candidate"
      },
      "vote(uint256,bool)": {
        "notice": "Vote for a proposition"
      }
    }
  }
}